{"contracts/KazakhKhanate.sol":{"KazakhKhanate":{"abi":[{"inputs":[],"stateMutability":"nonpayable","type":"constructor"},{"anonymous":false,"inputs":[{"indexed":true,"internalType":"address","name":"player","type":"address"},{"indexed":false,"internalType":"string","name":"achievement","type":"string"}],"name":"AchievementUnlocked","type":"event"},{"anonymous":false,"inputs":[{"indexed":false,"internalType":"uint256","name":"battleId","type":"uint256"},{"indexed":false,"internalType":"address","name":"attacker","type":"address"},{"indexed":false,"internalType":"address","name":"defender","type":"address"},{"indexed":false,"internalType":"uint256","name":"travelTime","type":"uint256"}],"name":"BattleInitiated","type":"event"},{"anonymous":false,"inputs":[{"indexed":true,"internalType":"address","name":"winner","type":"address"},{"indexed":true,"internalType":"address","name":"loser","type":"address"},{"indexed":false,"internalType":"uint256","name":"experienceGained","type":"uint256"}],"name":"BattleResult","type":"event"},{"anonymous":false,"inputs":[{"indexed":false,"internalType":"uint256","name":"battleId","type":"uint256"},{"indexed":false,"internalType":"address","name":"attacker","type":"address"}],"name":"BattleSpedUp","type":"event"},{"anonymous":false,"inputs":[{"indexed":true,"internalType":"address","name":"owner","type":"address"},{"indexed":false,"internalType":"uint256","name":"batyrId","type":"uint256"},{"indexed":false,"internalType":"string","name":"name","type":"string"}],"name":"BatyrAcquired","type":"event"},{"anonymous":false,"inputs":[{"indexed":true,"internalType":"address","name":"owner","type":"address"},{"indexed":false,"internalType":"string","name":"name","type":"string"}],"name":"KhanateCreated","type":"event"},{"anonymous":false,"inputs":[{"indexed":true,"internalType":"address","name":"owner","type":"address"},{"indexed":false,"internalType":"uint256","name":"archers","type":"uint256"},{"indexed":false,"internalType":"uint256","name":"cavalry","type":"uint256"}],"name":"TroopsPurchased","type":"event"},{"inputs":[],"name":"ARCHER_PRICE","outputs":[{"internalType":"uint256","name":"","type":"uint256"}],"stateMutability":"view","type":"function"},{"inputs":[],"name":"CAVALRY_PRICE","outputs":[{"internalType":"uint256","name":"","type":"uint256"}],"stateMutability":"view","type":"function"},{"inputs":[],"name":"LUCKY_BOX_PRICE","outputs":[{"internalType":"uint256","name":"","type":"uint256"}],"stateMutability":"view","type":"function"},{"inputs":[],"name":"SPEED_UP_PRICE","outputs":[{"internalType":"uint256","name":"","type":"uint256"}],"stateMutability":"view","type":"function"},{"inputs":[{"internalType":"address","name":"","type":"address"},{"internalType":"string","name":"","type":"string"}],"name":"achievements","outputs":[{"internalType":"bool","name":"","type":"bool"}],"stateMutability":"view","type":"function"},{"inputs":[{"internalType":"uint256","name":"","type":"uint256"}],"name":"activeBattles","outputs":[{"internalType":"address","name":"attacker","type":"address"},{"internalType":"address","name":"defender","type":"address"},{"internalType":"uint256","name":"startTime","type":"uint256"},{"internalType":"bool","name":"resolved","type":"bool"},{"internalType":"uint256","name":"travelTime","type":"uint256"}],"stateMutability":"view","type":"function"},{"inputs":[{"internalType":"uint256","name":"","type":"uint256"}],"name":"allKhanates","outputs":[{"internalType":"address","name":"","type":"address"}],"stateMutability":"view","type":"function"},{"inputs":[{"internalType":"uint256","name":"","type":"uint256"}],"name":"batyrs","outputs":[{"internalType":"string","name":"name","type":"string"},{"internalType":"string","name":"ability","type":"string"},{"internalType":"string","name":"description","type":"string"},{"internalType":"uint256","name":"power","type":"uint256"},{"internalType":"uint256","name":"archerBonus","type":"uint256"},{"internalType":"uint256","name":"cavalryBonus","type":"uint256"},{"internalType":"bool","name":"canBattle","type":"bool"}],"stateMutability":"view","type":"function"},{"inputs":[{"internalType":"string","name":"name","type":"string"}],"name":"createKhanate","outputs":[],"stateMutability":"nonpayable","type":"function"},{"inputs":[{"internalType":"uint256","name":"battleId","type":"uint256"}],"name":"executeBattle","outputs":[],"stateMutability":"nonpayable","type":"function"},{"inputs":[],"name":"getAllKhanates","outputs":[{"internalType":"address[]","name":"","type":"address[]"}],"stateMutability":"view","type":"function"},{"inputs":[{"internalType":"uint256","name":"batyrId","type":"uint256"}],"name":"getBatyrStats","outputs":[{"internalType":"string","name":"name","type":"string"},{"internalType":"string","name":"ability","type":"string"},{"internalType":"string","name":"description","type":"string"},{"internalType":"uint256","name":"power","type":"uint256"},{"internalType":"uint256","name":"archerBonus","type":"uint256"},{"internalType":"uint256","name":"cavalryBonus","type":"uint256"},{"internalType":"bool","name":"canBattle","type":"bool"}],"stateMutability":"view","type":"function"},{"inputs":[{"internalType":"address","name":"player","type":"address"}],"name":"getKhanateStats","outputs":[{"internalType":"string","name":"name","type":"string"},{"internalType":"uint256","name":"level","type":"uint256"},{"internalType":"uint256","name":"archers","type":"uint256"},{"internalType":"uint256","name":"cavalry","type":"uint256"},{"internalType":"uint256","name":"experience","type":"uint256"},{"internalType":"uint256","name":"wins","type":"uint256"},{"internalType":"uint256","name":"losses","type":"uint256"}],"stateMutability":"view","type":"function"},{"inputs":[{"internalType":"address","name":"player","type":"address"}],"name":"getPlayerStats","outputs":[{"internalType":"bool","name":"FIRST_BLOOD","type":"bool"},{"internalType":"bool","name":"VETERAN","type":"bool"},{"internalType":"bool","name":"WARLORD","type":"bool"},{"internalType":"bool","name":"DEFENDER","type":"bool"},{"internalType":"bool","name":"COLLECTOR","type":"bool"}],"stateMutability":"view","type":"function"},{"inputs":[{"internalType":"address","name":"player","type":"address"},{"internalType":"uint256","name":"batyrId","type":"uint256"}],"name":"hasBatyr","outputs":[{"internalType":"bool","name":"","type":"bool"}],"stateMutability":"view","type":"function"},{"inputs":[{"internalType":"address","name":"defender","type":"address"}],"name":"initiateBattle","outputs":[],"stateMutability":"nonpayable","type":"function"},{"inputs":[{"internalType":"address","name":"","type":"address"}],"name":"khanateIndex","outputs":[{"internalType":"uint256","name":"","type":"uint256"}],"stateMutability":"view","type":"function"},{"inputs":[{"internalType":"address","name":"","type":"address"}],"name":"khanates","outputs":[{"internalType":"string","name":"name","type":"string"},{"internalType":"uint256","name":"level","type":"uint256"},{"internalType":"uint256","name":"archers","type":"uint256"},{"internalType":"uint256","name":"cavalry","type":"uint256"},{"internalType":"uint256","name":"experience","type":"uint256"},{"internalType":"uint256","name":"wins","type":"uint256"},{"internalType":"uint256","name":"losses","type":"uint256"},{"internalType":"uint256","name":"successfulDefenses","type":"uint256"},{"internalType":"bool","name":"initialized","type":"bool"}],"stateMutability":"view","type":"function"},{"inputs":[{"internalType":"address","name":"","type":"address"},{"internalType":"uint256","name":"","type":"uint256"}],"name":"ownedBatyrs","outputs":[{"internalType":"bool","name":"","type":"bool"}],"stateMutability":"view","type":"function"},{"inputs":[],"name":"purchaseLuckyBox","outputs":[],"stateMutability":"payable","type":"function"},{"inputs":[{"internalType":"uint256","name":"archerAmount","type":"uint256"},{"internalType":"uint256","name":"cavalryAmount","type":"uint256"}],"name":"purchaseTroops","outputs":[],"stateMutability":"payable","type":"function"},{"inputs":[{"internalType":"uint256","name":"battleId","type":"uint256"}],"name":"speedUpBattle","outputs":[],"stateMutability":"payable","type":"function"}],"evm":{"bytecode":{"linkReferences":{},"object":"60806040523480156200001157600080fd5b5060016000819055506040518060e001604052806040518060400160405280600e81526020017f4b6162616e62617920426174797200000000000000000000000000000000000081525081526020016040518060400160405280601181526020017f4d6173746572205374726174656769737400000000000000000000000000000081525081526020016040518060600160405280602e8152602001620053b3602e91398152602001606481526020016078815260200160788152602001600115158152506008600060018152602001908152602001600020600082015181600001908162000101919062000973565b50602082015181600101908162000119919062000973565b50604082015181600201908162000131919062000973565b50606082015181600301556080820151816004015560a0820151816005015560c08201518160060160006101000a81548160ff0219169083151502179055509050506040518060e001604052806040518060400160405280600e81526020017f426f67656e62616920426174797200000000000000000000000000000000000081525081526020016040518060400160405280601081526020017f41726368657220436f6d6d616e6465720000000000000000000000000000000081525081526020016040518060600160405280602181526020016200539260219139815260200160508152602001609681526020016064815260200160011515815250600860006002815260200190815260200160002060008201518160000190816200025a919062000973565b50602082015181600101908162000272919062000973565b5060408201518160020190816200028a919062000973565b50606082015181600301556080820151816004015560a0820151816005015560c08201518160060160006101000a81548160ff0219169083151502179055509050506040518060e001604052806040518060400160405280600f81526020017f4e617572797a626169204261747972000000000000000000000000000000000081525081526020016040518060400160405280600e81526020017f436176616c7279204d61737465720000000000000000000000000000000000008152508152602001604051806060016040528060228152602001620053e16022913981526020016050815260200160648152602001609681526020016001151581525060086000600381526020019081526020016000206000820151816000019081620003b3919062000973565b506020820151816001019081620003cb919062000973565b506040820151816002019081620003e3919062000973565b50606082015181600301556080820151816004015560a0820151816005015560c08201518160060160006101000a81548160ff0219169083151502179055509050506040518060e001604052806040518060400160405280600d81526020017f4b6172617361692042617479720000000000000000000000000000000000000081525081526020016040518060400160405280601081526020017f446566656e73697665204578706572740000000000000000000000000000000081525081526020016040518060600160405280602181526020016200537160219139815260200160788152602001606e8152602001606e815260200160001515815250600860006004815260200190815260200160002060008201518160000190816200050c919062000973565b50602082015181600101908162000524919062000973565b5060408201518160020190816200053c919062000973565b50606082015181600301556080820151816004015560a0820151816005015560c08201518160060160006101000a81548160ff0219169083151502179055509050506040518060e001604052806040518060400160405280600e81526020017f5a68616e6962656b20426174797200000000000000000000000000000000000081525081526020016040518060400160405280600e81526020017f456c69746520477561726469616e00000000000000000000000000000000000081525081526020016040518060400160405280601e81526020017f53757072656d6520646566656e73697665206361706162696c697469657300008152508152602001609681526020016064815260200160648152602001600015158152506008600060058152602001908152602001600020600082015181600001908162000681919062000973565b50602082015181600101908162000699919062000973565b506040820151816002019081620006b1919062000973565b50606082015181600301556080820151816004015560a0820151816005015560c08201518160060160006101000a81548160ff02191690831515021790555090505062000a5a565b600081519050919050565b7f4e487b7100000000000000000000000000000000000000000000000000000000600052604160045260246000fd5b7f4e487b7100000000000000000000000000000000000000000000000000000000600052602260045260246000fd5b600060028204905060018216806200077b57607f821691505b60208210810362000791576200079062000733565b5b50919050565b60008190508160005260206000209050919050565b60006020601f8301049050919050565b600082821b905092915050565b600060088302620007fb7fffffffffffffffffffffffffffffffffffffffffffffffffffffffffffffffff82620007bc565b620008078683620007bc565b95508019841693508086168417925050509392505050565b6000819050919050565b6000819050919050565b6000620008546200084e62000848846200081f565b62000829565b6200081f565b9050919050565b6000819050919050565b620008708362000833565b620008886200087f826200085b565b848454620007c9565b825550505050565b600090565b6200089f62000890565b620008ac81848462000865565b505050565b5b81811015620008d457620008c860008262000895565b600181019050620008b2565b5050565b601f8211156200092357620008ed8162000797565b620008f884620007ac565b8101602085101562000908578190505b620009206200091785620007ac565b830182620008b1565b50505b505050565b600082821c905092915050565b6000620009486000198460080262000928565b1980831691505092915050565b600062000963838362000935565b9150826002028217905092915050565b6200097e82620006f9565b67ffffffffffffffff8111156200099a576200099962000704565b5b620009a6825462000762565b620009b3828285620008d8565b600060209050601f831160018114620009eb5760008415620009d6578287015190505b620009e2858262000955565b86555062000a52565b601f198416620009fb8662000797565b60005b8281101562000a2557848901518255600182019150602085019450602081019050620009fe565b8683101562000a45578489015162000a41601f89168262000935565b8355505b6001600288020188555050505b505050505050565b6149078062000a6a6000396000f3fe6080604052600436106101355760003560e01c80636011515c116100ab578063c1c063eb1161006f578063c1c063eb14610470578063d1e69f40146104b3578063dfad6257146104de578063e0f83f21146104fa578063ee52f8f314610525578063fd0a5d9b1461056657610135565b80636011515c146103435780636b4faeca1461036e5780636c513c51146103b35780636d3c4787146103f05780638602eebf1461042d57610135565b80633b42f248116100fd5780633b42f248146101ef5780633dde60c21461022c5780633f430695146102575780634fd66eae1461029a57806354258088146102db5780635dcee8941461030657610135565b80630c1cdb6d1461013a5780631504f5cd1461016357806321ec18e11461018c578063232e096d146101a85780633a0de743146101e5575b600080fd5b34801561014657600080fd5b50610161600480360381019061015c9190613401565b61058f565b005b34801561016f57600080fd5b5061018a60048036038101906101859190613480565b610869565b005b6101a660048036038101906101a19190613480565b610b22565b005b3480156101b457600080fd5b506101cf60048036038101906101ca919061350b565b610d19565b6040516101dc9190613566565b60405180910390f35b6101ed610d81565b005b3480156101fb57600080fd5b506102166004803603810190610211919061350b565b611166565b6040516102239190613566565b60405180910390f35b34801561023857600080fd5b50610241611195565b60405161024e9190613590565b60405180910390f35b34801561026357600080fd5b5061027e600480360381019061027991906135ab565b6111a0565b6040516102919796959493929190613657565b60405180910390f35b3480156102a657600080fd5b506102c160048036038101906102bc91906135ab565b6113b9565b6040516102d29594939291906136cd565b60405180910390f35b3480156102e757600080fd5b506102f06115d7565b6040516102fd9190613590565b60405180910390f35b34801561031257600080fd5b5061032d60048036038101906103289190613720565b6115e3565b60405161033a9190613566565b60405180910390f35b34801561034f57600080fd5b50610358611628565b6040516103659190613590565b60405180910390f35b34801561037a57600080fd5b50610395600480360381019061039091906135ab565b611633565b6040516103aa9998979695949392919061377c565b60405180910390f35b3480156103bf57600080fd5b506103da60048036038101906103d591906135ab565b611716565b6040516103e79190613590565b60405180910390f35b3480156103fc57600080fd5b5061041760048036038101906104129190613480565b61172e565b604051610424919061381f565b60405180910390f35b34801561043957600080fd5b50610454600480360381019061044f9190613480565b61176d565b604051610467979695949392919061383a565b60405180910390f35b34801561047c57600080fd5b5061049760048036038101906104929190613480565b611954565b6040516104aa979695949392919061383a565b60405180910390f35b3480156104bf57600080fd5b506104c8611bfd565b6040516104d5919061397c565b60405180910390f35b6104f860048036038101906104f3919061399e565b611c8b565b005b34801561050657600080fd5b5061050f611ef3565b60405161051c9190613590565b60405180910390f35b34801561053157600080fd5b5061054c60048036038101906105479190613480565b611eff565b60405161055d9594939291906139de565b60405180910390f35b34801561057257600080fd5b5061058d600480360381019061058891906135ab565b611f82565b005b600160003373ffffffffffffffffffffffffffffffffffffffff1673ffffffffffffffffffffffffffffffffffffffff16815260200190815260200160002060080160009054906101000a900460ff161561061f576040517f08c379a000000000000000000000000000000000000000000000000000000000815260040161061690613a7d565b60405180910390fd5b6000815111610663576040517f08c379a000000000000000000000000000000000000000000000000000000000815260040161065a90613ae9565b60405180910390fd5b60405180610120016040528082815260200160018152602001600a8152602001600581526020016000815260200160008152602001600081526020016000815260200160011515815250600160003373ffffffffffffffffffffffffffffffffffffffff1673ffffffffffffffffffffffffffffffffffffffff16815260200190815260200160002060008201518160000190816107019190613d15565b506020820151816001015560408201518160020155606082015181600301556080820151816004015560a0820151816005015560c0820151816006015560e082015181600701556101008201518160080160006101000a81548160ff021916908315150217905550905050600680549050600760003373ffffffffffffffffffffffffffffffffffffffff1673ffffffffffffffffffffffffffffffffffffffff168152602001908152602001600020819055506006339080600181540180825580915050600190039060005260206000200160009091909190916101000a81548173ffffffffffffffffffffffffffffffffffffffff021916908373ffffffffffffffffffffffffffffffffffffffff1602179055503373ffffffffffffffffffffffffffffffffffffffff167f67409ced604950b5508f075f60153e7d166866a8251a44b569a7a07d7f27c3eb8260405161085e9190613de7565b60405180910390a250565b60006004600083815260200190815260200160002090508060030160009054906101000a900460ff16156108d2576040517f08c379a00000000000000000000000000000000000000000000000000000000081526004016108c990613e55565b60405180910390fd5b806004015481600201546108e69190613ea4565b421015610928576040517f08c379a000000000000000000000000000000000000000000000000000000000815260040161091f90613f24565b60405180910390fd5b60008160000160009054906101000a900473ffffffffffffffffffffffffffffffffffffffff16905060008260010160009054906101000a900473ffffffffffffffffffffffffffffffffffffffff169050600061098583612376565b9050600061099283612376565b90506000605a60144287876040516020016109af93929190613fad565b6040516020818303038152906040528051906020012060001c6109d29190614019565b6109dc9190613ea4565b9050606481846109ec919061404a565b6109f6919061408c565b925060018660030160006101000a81548160ff02191690831515021790555081831115610a2c57610a278585612726565b610b19565b610a368486612726565b600160008573ffffffffffffffffffffffffffffffffffffffff1673ffffffffffffffffffffffffffffffffffffffff1681526020019081526020016000206007016000815480929190610a89906140bd565b91905055506005600160008673ffffffffffffffffffffffffffffffffffffffff1673ffffffffffffffffffffffffffffffffffffffff1681526020019081526020016000206007015410610b1857610b17846040518060400160405280600881526020017f444546454e4445520000000000000000000000000000000000000000000000008152506130ea565b5b5b50505050505050565b6000600460008381526020019081526020016000209050670429d069189e0000341015610b84576040517f08c379a0000000000000000000000000000000000000000000000000000000008152600401610b7b90614177565b60405180910390fd5b3373ffffffffffffffffffffffffffffffffffffffff168160000160009054906101000a900473ffffffffffffffffffffffffffffffffffffffff1673ffffffffffffffffffffffffffffffffffffffff1614610c16576040517f08c379a0000000000000000000000000000000000000000000000000000000008152600401610c0d906141e3565b60405180910390fd5b8060030160009054906101000a900460ff1615610c68576040517f08c379a0000000000000000000000000000000000000000000000000000000008152600401610c5f90613e55565b60405180910390fd5b7f1e372b79674f198909a4f4ee1416fd2c6e8dcd6ae23ceb1593d2ed32264d8d2e8233604051610c99929190614203565b60405180910390a1610caa82610869565b670429d069189e0000341115610d15573373ffffffffffffffffffffffffffffffffffffffff166108fc670429d069189e000034610ce8919061422c565b9081150290604051600060405180830381858888f19350505050158015610d13573d6000803e3d6000fd5b505b5050565b6000600260008473ffffffffffffffffffffffffffffffffffffffff1673ffffffffffffffffffffffffffffffffffffffff168152602001908152602001600020600083815260200190815260200160002060009054906101000a900460ff16905092915050565b600160003373ffffffffffffffffffffffffffffffffffffffff1673ffffffffffffffffffffffffffffffffffffffff16815260200190815260200160002060080160009054906101000a900460ff16610e10576040517f08c379a0000000000000000000000000000000000000000000000000000000008152600401610e07906142ac565b60405180910390fd5b67016345785d8a0000341015610e5b576040517f08c379a0000000000000000000000000000000000000000000000000000000008152600401610e5290614318565b60405180910390fd5b600060644233604051602001610e72929190614338565b6040516020818303038152906040528051906020012060001c610e959190614019565b905060148110156110f857600060016005423385604051602001610ebb93929190614364565b6040516020818303038152906040528051906020012060001c610ede9190614019565b610ee89190613ea4565b9050600260003373ffffffffffffffffffffffffffffffffffffffff1673ffffffffffffffffffffffffffffffffffffffff168152602001908152602001600020600082815260200190815260200160002060009054906101000a900460ff166110f6576001600260003373ffffffffffffffffffffffffffffffffffffffff1673ffffffffffffffffffffffffffffffffffffffff168152602001908152602001600020600083815260200190815260200160002060006101000a81548160ff0219169083151502179055503373ffffffffffffffffffffffffffffffffffffffff167fc78cd494272180e0c224c92ca5bedd58597e9f5494e17a757b031988d4b6372c8260086000858152602001908152602001600020600001604051611012929190614425565b60405180910390a26000600190506000600190505b600581116110ad57600260003373ffffffffffffffffffffffffffffffffffffffff1673ffffffffffffffffffffffffffffffffffffffff168152602001908152602001600020600082815260200190815260200160002060009054906101000a900460ff1661109a57600091506110ad565b80806110a5906140bd565b915050611027565b5080156110f4576110f3336040518060400160405280600981526020017f434f4c4c4543544f5200000000000000000000000000000000000000000000008152506130ea565b5b505b505b67016345785d8a0000341115611163573373ffffffffffffffffffffffffffffffffffffffff166108fc67016345785d8a000034611136919061422c565b9081150290604051600060405180830381858888f19350505050158015611161573d6000803e3d6000fd5b505b50565b60026020528160005260406000206020528060005260406000206000915091509054906101000a900460ff1681565b662386f26fc1000081565b6060600080600080600080600160008973ffffffffffffffffffffffffffffffffffffffff1673ffffffffffffffffffffffffffffffffffffffff16815260200190815260200160002060080160009054906101000a900460ff1661123a576040517f08c379a0000000000000000000000000000000000000000000000000000000008152600401611231906142ac565b60405180910390fd5b6000600160008a73ffffffffffffffffffffffffffffffffffffffff1673ffffffffffffffffffffffffffffffffffffffff1681526020019081526020016000206040518061012001604052908160008201805461129790613b38565b80601f01602080910402602001604051908101604052809291908181526020018280546112c390613b38565b80156113105780601f106112e557610100808354040283529160200191611310565b820191906000526020600020905b8154815290600101906020018083116112f357829003601f168201915b50505050508152602001600182015481526020016002820154815260200160038201548152602001600482015481526020016005820154815260200160068201548152602001600782015481526020016008820160009054906101000a900460ff1615151515815250509050806000015181602001518260400151836060015184608001518560a001518660c00151975097509750975097509750975050919395979092949650565b6000806000806000600360008773ffffffffffffffffffffffffffffffffffffffff1673ffffffffffffffffffffffffffffffffffffffff16815260200190815260200160002060405161140c906144ac565b908152602001604051809103902060009054906101000a900460ff16600360008873ffffffffffffffffffffffffffffffffffffffff1673ffffffffffffffffffffffffffffffffffffffff1681526020019081526020016000206040516114739061450d565b908152602001604051809103902060009054906101000a900460ff16600360008973ffffffffffffffffffffffffffffffffffffffff1673ffffffffffffffffffffffffffffffffffffffff1681526020019081526020016000206040516114da9061456e565b908152602001604051809103902060009054906101000a900460ff16600360008a73ffffffffffffffffffffffffffffffffffffffff1673ffffffffffffffffffffffffffffffffffffffff168152602001908152602001600020604051611541906145cf565b908152602001604051809103902060009054906101000a900460ff16600360008b73ffffffffffffffffffffffffffffffffffffffff1673ffffffffffffffffffffffffffffffffffffffff1681526020019081526020016000206040516115a890614630565b908152602001604051809103902060009054906101000a900460ff169450945094509450945091939590929450565b670429d069189e000081565b6003602052816000526040600020818051602081018201805184825260208301602085012081835280955050505050506000915091509054906101000a900460ff1681565b66470de4df82000081565b600160205280600052604060002060009150905080600001805461165690613b38565b80601f016020809104026020016040519081016040528092919081815260200182805461168290613b38565b80156116cf5780601f106116a4576101008083540402835291602001916116cf565b820191906000526020600020905b8154815290600101906020018083116116b257829003601f168201915b5050505050908060010154908060020154908060030154908060040154908060050154908060060154908060070154908060080160009054906101000a900460ff16905089565b60076020528060005260406000206000915090505481565b6006818154811061173e57600080fd5b906000526020600020016000915054906101000a900473ffffffffffffffffffffffffffffffffffffffff1681565b600860205280600052604060002060009150905080600001805461179090613b38565b80601f01602080910402602001604051908101604052809291908181526020018280546117bc90613b38565b80156118095780601f106117de57610100808354040283529160200191611809565b820191906000526020600020905b8154815290600101906020018083116117ec57829003601f168201915b50505050509080600101805461181e90613b38565b80601f016020809104026020016040519081016040528092919081815260200182805461184a90613b38565b80156118975780601f1061186c57610100808354040283529160200191611897565b820191906000526020600020905b81548152906001019060200180831161187a57829003601f168201915b5050505050908060020180546118ac90613b38565b80601f01602080910402602001604051908101604052809291908181526020018280546118d890613b38565b80156119255780601f106118fa57610100808354040283529160200191611925565b820191906000526020600020905b81548152906001019060200180831161190857829003601f168201915b5050505050908060030154908060040154908060050154908060060160009054906101000a900460ff16905087565b6060806060600080600080600088118015611970575060058811155b6119af576040517f08c379a00000000000000000000000000000000000000000000000000000000081526004016119a690614691565b60405180910390fd5b6000600860008a81526020019081526020016000206040518060e00160405290816000820180546119df90613b38565b80601f0160208091040260200160405190810160405280929190818152602001828054611a0b90613b38565b8015611a585780601f10611a2d57610100808354040283529160200191611a58565b820191906000526020600020905b815481529060010190602001808311611a3b57829003601f168201915b50505050508152602001600182018054611a7190613b38565b80601f0160208091040260200160405190810160405280929190818152602001828054611a9d90613b38565b8015611aea5780601f10611abf57610100808354040283529160200191611aea565b820191906000526020600020905b815481529060010190602001808311611acd57829003601f168201915b50505050508152602001600282018054611b0390613b38565b80601f0160208091040260200160405190810160405280929190818152602001828054611b2f90613b38565b8015611b7c5780601f10611b5157610100808354040283529160200191611b7c565b820191906000526020600020905b815481529060010190602001808311611b5f57829003601f168201915b505050505081526020016003820154815260200160048201548152602001600582015481526020016006820160009054906101000a900460ff1615151515815250509050806000015181602001518260400151836060015184608001518560a001518660c00151975097509750975097509750975050919395979092949650565b60606006805480602002602001604051908101604052809291908181526020018280548015611c8157602002820191906000526020600020905b8160009054906101000a900473ffffffffffffffffffffffffffffffffffffffff1673ffffffffffffffffffffffffffffffffffffffff1681526020019060010190808311611c37575b5050505050905090565b600160003373ffffffffffffffffffffffffffffffffffffffff1673ffffffffffffffffffffffffffffffffffffffff16815260200190815260200160002060080160009054906101000a900460ff16611d1a576040517f08c379a0000000000000000000000000000000000000000000000000000000008152600401611d11906142ac565b60405180910390fd5b600066470de4df82000082611d2f919061404a565b662386f26fc1000084611d42919061404a565b611d4c9190613ea4565b905080341015611d91576040517f08c379a0000000000000000000000000000000000000000000000000000000008152600401611d8890614318565b60405180910390fd5b82600160003373ffffffffffffffffffffffffffffffffffffffff1673ffffffffffffffffffffffffffffffffffffffff1681526020019081526020016000206002016000828254611de39190613ea4565b9250508190555081600160003373ffffffffffffffffffffffffffffffffffffffff1673ffffffffffffffffffffffffffffffffffffffff1681526020019081526020016000206003016000828254611e3c9190613ea4565b925050819055503373ffffffffffffffffffffffffffffffffffffffff167faf29816cd11119a4c8c0eff4213407d9eee90e96234648827025b3dcda86af398484604051611e8b9291906146b1565b60405180910390a280341115611eee573373ffffffffffffffffffffffffffffffffffffffff166108fc8234611ec1919061422c565b9081150290604051600060405180830381858888f19350505050158015611eec573d6000803e3d6000fd5b505b505050565b67016345785d8a000081565b60046020528060005260406000206000915090508060000160009054906101000a900473ffffffffffffffffffffffffffffffffffffffff16908060010160009054906101000a900473ffffffffffffffffffffffffffffffffffffffff16908060020154908060030160009054906101000a900460ff16908060040154905085565b600160003373ffffffffffffffffffffffffffffffffffffffff1673ffffffffffffffffffffffffffffffffffffffff16815260200190815260200160002060080160009054906101000a900460ff16612011576040517f08c379a0000000000000000000000000000000000000000000000000000000008152600401612008906142ac565b60405180910390fd5b3373ffffffffffffffffffffffffffffffffffffffff168173ffffffffffffffffffffffffffffffffffffffff160361207f576040517f08c379a000000000000000000000000000000000000000000000000000000000815260040161207690614726565b60405180910390fd5b600160008273ffffffffffffffffffffffffffffffffffffffff1673ffffffffffffffffffffffffffffffffffffffff16815260200190815260200160002060080160009054906101000a900460ff1661210e576040517f08c379a0000000000000000000000000000000000000000000000000000000008152600401612105906147b8565b60405180910390fd5b6000600160003373ffffffffffffffffffffffffffffffffffffffff1673ffffffffffffffffffffffffffffffffffffffff1681526020019081526020016000206002015411806121a157506000600160003373ffffffffffffffffffffffffffffffffffffffff1673ffffffffffffffffffffffffffffffffffffffff16815260200190815260200160002060030154115b6121e0576040517f08c379a00000000000000000000000000000000000000000000000000000000081526004016121d790614824565b60405180910390fd5b60006121ec600561321e565b90506121f8600561322c565b60006122043384613242565b90506040518060a001604052803373ffffffffffffffffffffffffffffffffffffffff1681526020018473ffffffffffffffffffffffffffffffffffffffff168152602001428152602001600015158152602001828152506004600084815260200190815260200160002060008201518160000160006101000a81548173ffffffffffffffffffffffffffffffffffffffff021916908373ffffffffffffffffffffffffffffffffffffffff16021790555060208201518160010160006101000a81548173ffffffffffffffffffffffffffffffffffffffff021916908373ffffffffffffffffffffffffffffffffffffffff1602179055506040820151816002015560608201518160030160006101000a81548160ff021916908315150217905550608082015181600401559050507f44bbd1153f1b36a3354f2af50e8f8ceb7b4c95e46240e7547a0f73c322380d21823385846040516123699493929190614844565b60405180910390a1505050565b600080600a600160008573ffffffffffffffffffffffffffffffffffffffff1673ffffffffffffffffffffffffffffffffffffffff168152602001908152602001600020600201546123c8919061404a565b905060006014600160008673ffffffffffffffffffffffffffffffffffffffff1673ffffffffffffffffffffffffffffffffffffffff1681526020019081526020016000206003015461241b919061404a565b90506000818361242b9190613ea4565b90506000600190505b6005811161271a57600260008773ffffffffffffffffffffffffffffffffffffffff1673ffffffffffffffffffffffffffffffffffffffff168152602001908152602001600020600082815260200190815260200160002060009054906101000a900460ff1615612707576000600860008381526020019081526020016000206040518060e00160405290816000820180546124cf90613b38565b80601f01602080910402602001604051908101604052809291908181526020018280546124fb90613b38565b80156125485780601f1061251d57610100808354040283529160200191612548565b820191906000526020600020905b81548152906001019060200180831161252b57829003601f168201915b5050505050815260200160018201805461256190613b38565b80601f016020809104026020016040519081016040528092919081815260200182805461258d90613b38565b80156125da5780601f106125af576101008083540402835291602001916125da565b820191906000526020600020905b8154815290600101906020018083116125bd57829003601f168201915b505050505081526020016002820180546125f390613b38565b80601f016020809104026020016040519081016040528092919081815260200182805461261f90613b38565b801561266c5780601f106126415761010080835404028352916020019161266c565b820191906000526020600020905b81548152906001019060200180831161264f57829003601f168201915b505050505081526020016003820154815260200160048201548152602001600582015481526020016006820160009054906101000a900460ff16151515158152505090508060c00151156127055760648160800151866126cc919061404a565b6126d6919061408c565b945060648160a00151856126ea919061404a565b6126f4919061408c565b935083856127029190613ea4565b92505b505b8080612712906140bd565b915050612434565b50809350505050919050565b60006064905080600160008573ffffffffffffffffffffffffffffffffffffffff1673ffffffffffffffffffffffffffffffffffffffff168152602001908152602001600020600401600082825461277e9190613ea4565b92505081905550600160008473ffffffffffffffffffffffffffffffffffffffff1673ffffffffffffffffffffffffffffffffffffffff16815260200190815260200160002060050160008154809291906127d8906140bd565b9190505550600160008373ffffffffffffffffffffffffffffffffffffffff1673ffffffffffffffffffffffffffffffffffffffff1681526020019081526020016000206006016000815480929190612830906140bd565b91905055506000806000806064600f600160008a73ffffffffffffffffffffffffffffffffffffffff1673ffffffffffffffffffffffffffffffffffffffff1681526020019081526020016000206002015461288c919061404a565b612896919061408c565b93506064600f600160008a73ffffffffffffffffffffffffffffffffffffffff1673ffffffffffffffffffffffffffffffffffffffff168152602001908152602001600020600301546128e9919061404a565b6128f3919061408c565b925060646032600160008973ffffffffffffffffffffffffffffffffffffffff1673ffffffffffffffffffffffffffffffffffffffff16815260200190815260200160002060020154612946919061404a565b612950919061408c565b915060646032600160008973ffffffffffffffffffffffffffffffffffffffff1673ffffffffffffffffffffffffffffffffffffffff168152602001908152602001600020600301546129a3919061404a565b6129ad919061408c565b905083600160008973ffffffffffffffffffffffffffffffffffffffff1673ffffffffffffffffffffffffffffffffffffffff16815260200190815260200160002060020154116129ff576000612a4e565b83600160008973ffffffffffffffffffffffffffffffffffffffff1673ffffffffffffffffffffffffffffffffffffffff16815260200190815260200160002060020154612a4d919061422c565b5b600160008973ffffffffffffffffffffffffffffffffffffffff1673ffffffffffffffffffffffffffffffffffffffff1681526020019081526020016000206002018190555082600160008973ffffffffffffffffffffffffffffffffffffffff1673ffffffffffffffffffffffffffffffffffffffff1681526020019081526020016000206003015411612ae4576000612b33565b82600160008973ffffffffffffffffffffffffffffffffffffffff1673ffffffffffffffffffffffffffffffffffffffff16815260200190815260200160002060030154612b32919061422c565b5b600160008973ffffffffffffffffffffffffffffffffffffffff1673ffffffffffffffffffffffffffffffffffffffff1681526020019081526020016000206003018190555081600160008873ffffffffffffffffffffffffffffffffffffffff1673ffffffffffffffffffffffffffffffffffffffff1681526020019081526020016000206002015411612bc9576000612c18565b81600160008873ffffffffffffffffffffffffffffffffffffffff1673ffffffffffffffffffffffffffffffffffffffff16815260200190815260200160002060020154612c17919061422c565b5b600160008873ffffffffffffffffffffffffffffffffffffffff1673ffffffffffffffffffffffffffffffffffffffff1681526020019081526020016000206002018190555080600160008873ffffffffffffffffffffffffffffffffffffffff1673ffffffffffffffffffffffffffffffffffffffff1681526020019081526020016000206003015411612cae576000612cfd565b80600160008873ffffffffffffffffffffffffffffffffffffffff1673ffffffffffffffffffffffffffffffffffffffff16815260200190815260200160002060030154612cfc919061422c565b5b600160008873ffffffffffffffffffffffffffffffffffffffff1673ffffffffffffffffffffffffffffffffffffffff168152602001908152602001600020600301819055505b6064600160008973ffffffffffffffffffffffffffffffffffffffff1673ffffffffffffffffffffffffffffffffffffffff16815260200190815260200160002060010154612d93919061404a565b600160008973ffffffffffffffffffffffffffffffffffffffff1673ffffffffffffffffffffffffffffffffffffffff1681526020019081526020016000206004015410612edf576064600160008973ffffffffffffffffffffffffffffffffffffffff1673ffffffffffffffffffffffffffffffffffffffff16815260200190815260200160002060010154612e2a919061404a565b600160008973ffffffffffffffffffffffffffffffffffffffff1673ffffffffffffffffffffffffffffffffffffffff1681526020019081526020016000206004016000828254612e7b919061422c565b92505081905550600160008873ffffffffffffffffffffffffffffffffffffffff1673ffffffffffffffffffffffffffffffffffffffff1681526020019081526020016000206001016000815480929190612ed5906140bd565b9190505550612d44565b60018060008973ffffffffffffffffffffffffffffffffffffffff1673ffffffffffffffffffffffffffffffffffffffff1681526020019081526020016000206005015403612f6857612f67876040518060400160405280600b81526020017f46495253545f424c4f4f440000000000000000000000000000000000000000008152506130ea565b5b600a600160008973ffffffffffffffffffffffffffffffffffffffff1673ffffffffffffffffffffffffffffffffffffffff1681526020019081526020016000206005015403612ff257612ff1876040518060400160405280600781526020017f5645544552414e000000000000000000000000000000000000000000000000008152506130ea565b5b6032600160008973ffffffffffffffffffffffffffffffffffffffff1673ffffffffffffffffffffffffffffffffffffffff168152602001908152602001600020600501540361307c5761307b876040518060400160405280600781526020017f5741524c4f5244000000000000000000000000000000000000000000000000008152506130ea565b5b8573ffffffffffffffffffffffffffffffffffffffff168773ffffffffffffffffffffffffffffffffffffffff167f081ed76c4c071d6097731876fc5abf74d14653d1900d984ce23fe568f23448fa876040516130d99190613590565b60405180910390a350505050505050565b600360008373ffffffffffffffffffffffffffffffffffffffff1673ffffffffffffffffffffffffffffffffffffffff1681526020019081526020016000208160405161313791906148ba565b908152602001604051809103902060009054906101000a900460ff1661321a576001600360008473ffffffffffffffffffffffffffffffffffffffff1673ffffffffffffffffffffffffffffffffffffffff168152602001908152602001600020826040516131a691906148ba565b908152602001604051809103902060006101000a81548160ff0219169083151502179055508173ffffffffffffffffffffffffffffffffffffffff167fca8c9accce1ea9b1e88e76d666c26849f39052a6344521346b739cdd29ad4ae6826040516132119190613de7565b60405180910390a25b5050565b600081600001549050919050565b6001816000016000828254019250508190555050565b6000808273ffffffffffffffffffffffffffffffffffffffff168473ffffffffffffffffffffffffffffffffffffffff161890506064816132839190614019565b9050600181613292919061404a565b601e61329e9190613ea4565b91505092915050565b6000604051905090565b600080fd5b600080fd5b600080fd5b600080fd5b6000601f19601f8301169050919050565b7f4e487b7100000000000000000000000000000000000000000000000000000000600052604160045260246000fd5b61330e826132c5565b810181811067ffffffffffffffff8211171561332d5761332c6132d6565b5b80604052505050565b60006133406132a7565b905061334c8282613305565b919050565b600067ffffffffffffffff82111561336c5761336b6132d6565b5b613375826132c5565b9050602081019050919050565b82818337600083830152505050565b60006133a461339f84613351565b613336565b9050828152602081018484840111156133c0576133bf6132c0565b5b6133cb848285613382565b509392505050565b600082601f8301126133e8576133e76132bb565b5b81356133f8848260208601613391565b91505092915050565b600060208284031215613417576134166132b1565b5b600082013567ffffffffffffffff811115613435576134346132b6565b5b613441848285016133d3565b91505092915050565b6000819050919050565b61345d8161344a565b811461346857600080fd5b50565b60008135905061347a81613454565b92915050565b600060208284031215613496576134956132b1565b5b60006134a48482850161346b565b91505092915050565b600073ffffffffffffffffffffffffffffffffffffffff82169050919050565b60006134d8826134ad565b9050919050565b6134e8816134cd565b81146134f357600080fd5b50565b600081359050613505816134df565b92915050565b60008060408385031215613522576135216132b1565b5b6000613530858286016134f6565b92505060206135418582860161346b565b9150509250929050565b60008115159050919050565b6135608161354b565b82525050565b600060208201905061357b6000830184613557565b92915050565b61358a8161344a565b82525050565b60006020820190506135a56000830184613581565b92915050565b6000602082840312156135c1576135c06132b1565b5b60006135cf848285016134f6565b91505092915050565b600081519050919050565b600082825260208201905092915050565b60005b838110156136125780820151818401526020810190506135f7565b60008484015250505050565b6000613629826135d8565b61363381856135e3565b93506136438185602086016135f4565b61364c816132c5565b840191505092915050565b600060e0820190508181036000830152613671818a61361e565b90506136806020830189613581565b61368d6040830188613581565b61369a6060830187613581565b6136a76080830186613581565b6136b460a0830185613581565b6136c160c0830184613581565b98975050505050505050565b600060a0820190506136e26000830188613557565b6136ef6020830187613557565b6136fc6040830186613557565b6137096060830185613557565b6137166080830184613557565b9695505050505050565b60008060408385031215613737576137366132b1565b5b6000613745858286016134f6565b925050602083013567ffffffffffffffff811115613766576137656132b6565b5b613772858286016133d3565b9150509250929050565b6000610120820190508181036000830152613797818c61361e565b90506137a6602083018b613581565b6137b3604083018a613581565b6137c06060830189613581565b6137cd6080830188613581565b6137da60a0830187613581565b6137e760c0830186613581565b6137f460e0830185613581565b613802610100830184613557565b9a9950505050505050505050565b613819816134cd565b82525050565b60006020820190506138346000830184613810565b92915050565b600060e0820190508181036000830152613854818a61361e565b90508181036020830152613868818961361e565b9050818103604083015261387c818861361e565b905061388b6060830187613581565b6138986080830186613581565b6138a560a0830185613581565b6138b260c0830184613557565b98975050505050505050565b600081519050919050565b600082825260208201905092915050565b6000819050602082019050919050565b6138f3816134cd565b82525050565b600061390583836138ea565b60208301905092915050565b6000602082019050919050565b6000613929826138be565b61393381856138c9565b935061393e836138da565b8060005b8381101561396f57815161395688826138f9565b975061396183613911565b925050600181019050613942565b5085935050505092915050565b60006020820190508181036000830152613996818461391e565b905092915050565b600080604083850312156139b5576139b46132b1565b5b60006139c38582860161346b565b92505060206139d48582860161346b565b9150509250929050565b600060a0820190506139f36000830188613810565b613a006020830187613810565b613a0d6040830186613581565b613a1a6060830185613557565b613a276080830184613581565b9695505050505050565b7f4b68616e61746520616c72656164792065786973747300000000000000000000600082015250565b6000613a676016836135e3565b9150613a7282613a31565b602082019050919050565b60006020820190508181036000830152613a9681613a5a565b9050919050565b7f4e616d652063616e6e6f7420626520656d707479000000000000000000000000600082015250565b6000613ad36014836135e3565b9150613ade82613a9d565b602082019050919050565b60006020820190508181036000830152613b0281613ac6565b9050919050565b7f4e487b7100000000000000000000000000000000000000000000000000000000600052602260045260246000fd5b60006002820490506001821680613b5057607f821691505b602082108103613b6357613b62613b09565b5b50919050565b60008190508160005260206000209050919050565b60006020601f8301049050919050565b600082821b905092915050565b600060088302613bcb7fffffffffffffffffffffffffffffffffffffffffffffffffffffffffffffffff82613b8e565b613bd58683613b8e565b95508019841693508086168417925050509392505050565b6000819050919050565b6000613c12613c0d613c088461344a565b613bed565b61344a565b9050919050565b6000819050919050565b613c2c83613bf7565b613c40613c3882613c19565b848454613b9b565b825550505050565b600090565b613c55613c48565b613c60818484613c23565b505050565b5b81811015613c8457613c79600082613c4d565b600181019050613c66565b5050565b601f821115613cc957613c9a81613b69565b613ca384613b7e565b81016020851015613cb2578190505b613cc6613cbe85613b7e565b830182613c65565b50505b505050565b600082821c905092915050565b6000613cec60001984600802613cce565b1980831691505092915050565b6000613d058383613cdb565b9150826002028217905092915050565b613d1e826135d8565b67ffffffffffffffff811115613d3757613d366132d6565b5b613d418254613b38565b613d4c828285613c88565b600060209050601f831160018114613d7f5760008415613d6d578287015190505b613d778582613cf9565b865550613ddf565b601f198416613d8d86613b69565b60005b82811015613db557848901518255600182019150602085019450602081019050613d90565b86831015613dd25784890151613dce601f891682613cdb565b8355505b6001600288020188555050505b505050505050565b60006020820190508181036000830152613e01818461361e565b905092915050565b7f426174746c6520616c7265616479207265736f6c766564000000000000000000600082015250565b6000613e3f6017836135e3565b9150613e4a82613e09565b602082019050919050565b60006020820190508181036000830152613e6e81613e32565b9050919050565b7f4e487b7100000000000000000000000000000000000000000000000000000000600052601160045260246000fd5b6000613eaf8261344a565b9150613eba8361344a565b9250828201905080821115613ed257613ed1613e75565b5b92915050565b7f54726f6f7073207374696c6c2074726176656c696e6700000000000000000000600082015250565b6000613f0e6016836135e3565b9150613f1982613ed8565b602082019050919050565b60006020820190508181036000830152613f3d81613f01565b9050919050565b6000819050919050565b613f5f613f5a8261344a565b613f44565b82525050565b60008160601b9050919050565b6000613f7d82613f65565b9050919050565b6000613f8f82613f72565b9050919050565b613fa7613fa2826134cd565b613f84565b82525050565b6000613fb98286613f4e565b602082019150613fc98285613f96565b601482019150613fd98284613f96565b601482019150819050949350505050565b7f4e487b7100000000000000000000000000000000000000000000000000000000600052601260045260246000fd5b60006140248261344a565b915061402f8361344a565b92508261403f5761403e613fea565b5b828206905092915050565b60006140558261344a565b91506140608361344a565b925082820261406e8161344a565b9150828204841483151761408557614084613e75565b5b5092915050565b60006140978261344a565b91506140a28361344a565b9250826140b2576140b1613fea565b5b828204905092915050565b60006140c88261344a565b91507fffffffffffffffffffffffffffffffffffffffffffffffffffffffffffffffff82036140fa576140f9613e75565b5b600182019050919050565b7f496e73756666696369656e74207061796d656e7420666f72207370656564207560008201527f7000000000000000000000000000000000000000000000000000000000000000602082015250565b60006141616021836135e3565b915061416c82614105565b604082019050919050565b6000602082019050818103600083015261419081614154565b9050919050565b7f4e6f7420796f757220626174746c650000000000000000000000000000000000600082015250565b60006141cd600f836135e3565b91506141d882614197565b602082019050919050565b600060208201905081810360008301526141fc816141c0565b9050919050565b60006040820190506142186000830185613581565b6142256020830184613810565b9392505050565b60006142378261344a565b91506142428361344a565b925082820390508181111561425a57614259613e75565b5b92915050565b7f4b68616e617465206e6f7420696e697469616c697a6564000000000000000000600082015250565b60006142966017836135e3565b91506142a182614260565b602082019050919050565b600060208201905081810360008301526142c581614289565b9050919050565b7f496e73756666696369656e74207061796d656e74000000000000000000000000600082015250565b60006143026014836135e3565b915061430d826142cc565b602082019050919050565b60006020820190508181036000830152614331816142f5565b9050919050565b60006143448285613f4e565b6020820191506143548284613f96565b6014820191508190509392505050565b60006143708286613f4e565b6020820191506143808285613f96565b6014820191506143908284613f4e565b602082019150819050949350505050565b600081546143ae81613b38565b6143b881866135e3565b945060018216600081146143d357600181146143e95761441c565b60ff19831686528115156020028601935061441c565b6143f285613b69565b60005b83811015614414578154818901526001820191506020810190506143f5565b808801955050505b50505092915050565b600060408201905061443a6000830185613581565b818103602083015261444c81846143a1565b90509392505050565b600081905092915050565b7f46495253545f424c4f4f44000000000000000000000000000000000000000000600082015250565b6000614496600b83614455565b91506144a182614460565b600b82019050919050565b60006144b782614489565b9150819050919050565b7f5645544552414e00000000000000000000000000000000000000000000000000600082015250565b60006144f7600783614455565b9150614502826144c1565b600782019050919050565b6000614518826144ea565b9150819050919050565b7f5741524c4f524400000000000000000000000000000000000000000000000000600082015250565b6000614558600783614455565b915061456382614522565b600782019050919050565b60006145798261454b565b9150819050919050565b7f444546454e444552000000000000000000000000000000000000000000000000600082015250565b60006145b9600883614455565b91506145c482614583565b600882019050919050565b60006145da826145ac565b9150819050919050565b7f434f4c4c4543544f520000000000000000000000000000000000000000000000600082015250565b600061461a600983614455565b9150614625826145e4565b600982019050919050565b600061463b8261460d565b9150819050919050565b7f496e76616c696420426174797220494400000000000000000000000000000000600082015250565b600061467b6010836135e3565b915061468682614645565b602082019050919050565b600060208201905081810360008301526146aa8161466e565b9050919050565b60006040820190506146c66000830185613581565b6146d36020830184613581565b9392505050565b7f43616e6e6f7420626174746c6520796f757273656c6600000000000000000000600082015250565b60006147106016836135e3565b915061471b826146da565b602082019050919050565b6000602082019050818103600083015261473f81614703565b9050919050565b7f446566656e6465722773204b68616e617465206e6f7420696e697469616c697a60008201527f6564000000000000000000000000000000000000000000000000000000000000602082015250565b60006147a26022836135e3565b91506147ad82614746565b604082019050919050565b600060208201905081810360008301526147d181614795565b9050919050565b7f4e6f2074726f6f707320746f20626174746c6520776974680000000000000000600082015250565b600061480e6018836135e3565b9150614819826147d8565b602082019050919050565b6000602082019050818103600083015261483d81614801565b9050919050565b60006080820190506148596000830187613581565b6148666020830186613810565b6148736040830185613810565b6148806060830184613581565b95945050505050565b6000614894826135d8565b61489e8185614455565b93506148ae8185602086016135f4565b80840191505092915050565b60006148c68284614889565b91508190509291505056fea2646970667358221220e49b4ec59a9f812449cc226e0ef36cd4410e336d53a762e59e8fbef7d6bce44b64736f6c6343000813003350726f7669646573207374726f6e6720646566656e7369766520626f6e757365735369676e69666963616e746c7920626f6f7374732061726368657220706f776572456e68616e63657320626f74682061726368657220616e6420636176616c7279206566666563746976656e6573735369676e69666963616e746c7920626f6f73747320636176616c727920706f776572","opcodes":"PUSH1 0x80 PUSH1 0x40 MSTORE CALLVALUE DUP1 ISZERO PUSH3 0x11 JUMPI PUSH1 0x0 DUP1 REVERT JUMPDEST POP PUSH1 0x1 PUSH1 0x0 DUP2 SWAP1 SSTORE POP PUSH1 0x40 MLOAD DUP1 PUSH1 0xE0 ADD PUSH1 0x40 MSTORE DUP1 PUSH1 0x40 MLOAD DUP1 PUSH1 0x40 ADD PUSH1 0x40 MSTORE DUP1 PUSH1 0xE DUP2 MSTORE PUSH1 0x20 ADD PUSH32 0x4B6162616E626179204261747972000000000000000000000000000000000000 DUP2 MSTORE POP DUP2 MSTORE PUSH1 0x20 ADD PUSH1 0x40 MLOAD DUP1 PUSH1 0x40 ADD PUSH1 0x40 MSTORE DUP1 PUSH1 0x11 DUP2 MSTORE PUSH1 0x20 ADD PUSH32 0x4D61737465722053747261746567697374000000000000000000000000000000 DUP2 MSTORE POP DUP2 MSTORE PUSH1 0x20 ADD PUSH1 0x40 MLOAD DUP1 PUSH1 0x60 ADD PUSH1 0x40 MSTORE DUP1 PUSH1 0x2E DUP2 MSTORE PUSH1 0x20 ADD PUSH3 0x53B3 PUSH1 0x2E SWAP2 CODECOPY DUP2 MSTORE PUSH1 0x20 ADD PUSH1 0x64 DUP2 MSTORE PUSH1 0x20 ADD PUSH1 0x78 DUP2 MSTORE PUSH1 0x20 ADD PUSH1 0x78 DUP2 MSTORE PUSH1 0x20 ADD PUSH1 0x1 ISZERO ISZERO DUP2 MSTORE POP PUSH1 0x8 PUSH1 0x0 PUSH1 0x1 DUP2 MSTORE PUSH1 0x20 ADD SWAP1 DUP2 MSTORE PUSH1 0x20 ADD PUSH1 0x0 KECCAK256 PUSH1 0x0 DUP3 ADD MLOAD DUP2 PUSH1 0x0 ADD SWAP1 DUP2 PUSH3 0x101 SWAP2 SWAP1 PUSH3 0x973 JUMP JUMPDEST POP PUSH1 0x20 DUP3 ADD MLOAD DUP2 PUSH1 0x1 ADD SWAP1 DUP2 PUSH3 0x119 SWAP2 SWAP1 PUSH3 0x973 JUMP JUMPDEST POP PUSH1 0x40 DUP3 ADD MLOAD DUP2 PUSH1 0x2 ADD SWAP1 DUP2 PUSH3 0x131 SWAP2 SWAP1 PUSH3 0x973 JUMP JUMPDEST POP PUSH1 0x60 DUP3 ADD MLOAD DUP2 PUSH1 0x3 ADD SSTORE PUSH1 0x80 DUP3 ADD MLOAD DUP2 PUSH1 0x4 ADD SSTORE PUSH1 0xA0 DUP3 ADD MLOAD DUP2 PUSH1 0x5 ADD SSTORE PUSH1 0xC0 DUP3 ADD MLOAD DUP2 PUSH1 0x6 ADD PUSH1 0x0 PUSH2 0x100 EXP DUP2 SLOAD DUP2 PUSH1 0xFF MUL NOT AND SWAP1 DUP4 ISZERO ISZERO MUL OR SWAP1 SSTORE POP SWAP1 POP POP PUSH1 0x40 MLOAD DUP1 PUSH1 0xE0 ADD PUSH1 0x40 MSTORE DUP1 PUSH1 0x40 MLOAD DUP1 PUSH1 0x40 ADD PUSH1 0x40 MSTORE DUP1 PUSH1 0xE DUP2 MSTORE PUSH1 0x20 ADD PUSH32 0x426F67656E626169204261747972000000000000000000000000000000000000 DUP2 MSTORE POP DUP2 MSTORE PUSH1 0x20 ADD PUSH1 0x40 MLOAD DUP1 PUSH1 0x40 ADD PUSH1 0x40 MSTORE DUP1 PUSH1 0x10 DUP2 MSTORE PUSH1 0x20 ADD PUSH32 0x41726368657220436F6D6D616E64657200000000000000000000000000000000 DUP2 MSTORE POP DUP2 MSTORE PUSH1 0x20 ADD PUSH1 0x40 MLOAD DUP1 PUSH1 0x60 ADD PUSH1 0x40 MSTORE DUP1 PUSH1 0x21 DUP2 MSTORE PUSH1 0x20 ADD PUSH3 0x5392 PUSH1 0x21 SWAP2 CODECOPY DUP2 MSTORE PUSH1 0x20 ADD PUSH1 0x50 DUP2 MSTORE PUSH1 0x20 ADD PUSH1 0x96 DUP2 MSTORE PUSH1 0x20 ADD PUSH1 0x64 DUP2 MSTORE PUSH1 0x20 ADD PUSH1 0x1 ISZERO ISZERO DUP2 MSTORE POP PUSH1 0x8 PUSH1 0x0 PUSH1 0x2 DUP2 MSTORE PUSH1 0x20 ADD SWAP1 DUP2 MSTORE PUSH1 0x20 ADD PUSH1 0x0 KECCAK256 PUSH1 0x0 DUP3 ADD MLOAD DUP2 PUSH1 0x0 ADD SWAP1 DUP2 PUSH3 0x25A SWAP2 SWAP1 PUSH3 0x973 JUMP JUMPDEST POP PUSH1 0x20 DUP3 ADD MLOAD DUP2 PUSH1 0x1 ADD SWAP1 DUP2 PUSH3 0x272 SWAP2 SWAP1 PUSH3 0x973 JUMP JUMPDEST POP PUSH1 0x40 DUP3 ADD MLOAD DUP2 PUSH1 0x2 ADD SWAP1 DUP2 PUSH3 0x28A SWAP2 SWAP1 PUSH3 0x973 JUMP JUMPDEST POP PUSH1 0x60 DUP3 ADD MLOAD DUP2 PUSH1 0x3 ADD SSTORE PUSH1 0x80 DUP3 ADD MLOAD DUP2 PUSH1 0x4 ADD SSTORE PUSH1 0xA0 DUP3 ADD MLOAD DUP2 PUSH1 0x5 ADD SSTORE PUSH1 0xC0 DUP3 ADD MLOAD DUP2 PUSH1 0x6 ADD PUSH1 0x0 PUSH2 0x100 EXP DUP2 SLOAD DUP2 PUSH1 0xFF MUL NOT AND SWAP1 DUP4 ISZERO ISZERO MUL OR SWAP1 SSTORE POP SWAP1 POP POP PUSH1 0x40 MLOAD DUP1 PUSH1 0xE0 ADD PUSH1 0x40 MSTORE DUP1 PUSH1 0x40 MLOAD DUP1 PUSH1 0x40 ADD PUSH1 0x40 MSTORE DUP1 PUSH1 0xF DUP2 MSTORE PUSH1 0x20 ADD PUSH32 0x4E617572797A6261692042617479720000000000000000000000000000000000 DUP2 MSTORE POP DUP2 MSTORE PUSH1 0x20 ADD PUSH1 0x40 MLOAD DUP1 PUSH1 0x40 ADD PUSH1 0x40 MSTORE DUP1 PUSH1 0xE DUP2 MSTORE PUSH1 0x20 ADD PUSH32 0x436176616C7279204D6173746572000000000000000000000000000000000000 DUP2 MSTORE POP DUP2 MSTORE PUSH1 0x20 ADD PUSH1 0x40 MLOAD DUP1 PUSH1 0x60 ADD PUSH1 0x40 MSTORE DUP1 PUSH1 0x22 DUP2 MSTORE PUSH1 0x20 ADD PUSH3 0x53E1 PUSH1 0x22 SWAP2 CODECOPY DUP2 MSTORE PUSH1 0x20 ADD PUSH1 0x50 DUP2 MSTORE PUSH1 0x20 ADD PUSH1 0x64 DUP2 MSTORE PUSH1 0x20 ADD PUSH1 0x96 DUP2 MSTORE PUSH1 0x20 ADD PUSH1 0x1 ISZERO ISZERO DUP2 MSTORE POP PUSH1 0x8 PUSH1 0x0 PUSH1 0x3 DUP2 MSTORE PUSH1 0x20 ADD SWAP1 DUP2 MSTORE PUSH1 0x20 ADD PUSH1 0x0 KECCAK256 PUSH1 0x0 DUP3 ADD MLOAD DUP2 PUSH1 0x0 ADD SWAP1 DUP2 PUSH3 0x3B3 SWAP2 SWAP1 PUSH3 0x973 JUMP JUMPDEST POP PUSH1 0x20 DUP3 ADD MLOAD DUP2 PUSH1 0x1 ADD SWAP1 DUP2 PUSH3 0x3CB SWAP2 SWAP1 PUSH3 0x973 JUMP JUMPDEST POP PUSH1 0x40 DUP3 ADD MLOAD DUP2 PUSH1 0x2 ADD SWAP1 DUP2 PUSH3 0x3E3 SWAP2 SWAP1 PUSH3 0x973 JUMP JUMPDEST POP PUSH1 0x60 DUP3 ADD MLOAD DUP2 PUSH1 0x3 ADD SSTORE PUSH1 0x80 DUP3 ADD MLOAD DUP2 PUSH1 0x4 ADD SSTORE PUSH1 0xA0 DUP3 ADD MLOAD DUP2 PUSH1 0x5 ADD SSTORE PUSH1 0xC0 DUP3 ADD MLOAD DUP2 PUSH1 0x6 ADD PUSH1 0x0 PUSH2 0x100 EXP DUP2 SLOAD DUP2 PUSH1 0xFF MUL NOT AND SWAP1 DUP4 ISZERO ISZERO MUL OR SWAP1 SSTORE POP SWAP1 POP POP PUSH1 0x40 MLOAD DUP1 PUSH1 0xE0 ADD PUSH1 0x40 MSTORE DUP1 PUSH1 0x40 MLOAD DUP1 PUSH1 0x40 ADD PUSH1 0x40 MSTORE DUP1 PUSH1 0xD DUP2 MSTORE PUSH1 0x20 ADD PUSH32 0x4B61726173616920426174797200000000000000000000000000000000000000 DUP2 MSTORE POP DUP2 MSTORE PUSH1 0x20 ADD PUSH1 0x40 MLOAD DUP1 PUSH1 0x40 ADD PUSH1 0x40 MSTORE DUP1 PUSH1 0x10 DUP2 MSTORE PUSH1 0x20 ADD PUSH32 0x446566656E736976652045787065727400000000000000000000000000000000 DUP2 MSTORE POP DUP2 MSTORE PUSH1 0x20 ADD PUSH1 0x40 MLOAD DUP1 PUSH1 0x60 ADD PUSH1 0x40 MSTORE DUP1 PUSH1 0x21 DUP2 MSTORE PUSH1 0x20 ADD PUSH3 0x5371 PUSH1 0x21 SWAP2 CODECOPY DUP2 MSTORE PUSH1 0x20 ADD PUSH1 0x78 DUP2 MSTORE PUSH1 0x20 ADD PUSH1 0x6E DUP2 MSTORE PUSH1 0x20 ADD PUSH1 0x6E DUP2 MSTORE PUSH1 0x20 ADD PUSH1 0x0 ISZERO ISZERO DUP2 MSTORE POP PUSH1 0x8 PUSH1 0x0 PUSH1 0x4 DUP2 MSTORE PUSH1 0x20 ADD SWAP1 DUP2 MSTORE PUSH1 0x20 ADD PUSH1 0x0 KECCAK256 PUSH1 0x0 DUP3 ADD MLOAD DUP2 PUSH1 0x0 ADD SWAP1 DUP2 PUSH3 0x50C SWAP2 SWAP1 PUSH3 0x973 JUMP JUMPDEST POP PUSH1 0x20 DUP3 ADD MLOAD DUP2 PUSH1 0x1 ADD SWAP1 DUP2 PUSH3 0x524 SWAP2 SWAP1 PUSH3 0x973 JUMP JUMPDEST POP PUSH1 0x40 DUP3 ADD MLOAD DUP2 PUSH1 0x2 ADD SWAP1 DUP2 PUSH3 0x53C SWAP2 SWAP1 PUSH3 0x973 JUMP JUMPDEST POP PUSH1 0x60 DUP3 ADD MLOAD DUP2 PUSH1 0x3 ADD SSTORE PUSH1 0x80 DUP3 ADD MLOAD DUP2 PUSH1 0x4 ADD SSTORE PUSH1 0xA0 DUP3 ADD MLOAD DUP2 PUSH1 0x5 ADD SSTORE PUSH1 0xC0 DUP3 ADD MLOAD DUP2 PUSH1 0x6 ADD PUSH1 0x0 PUSH2 0x100 EXP DUP2 SLOAD DUP2 PUSH1 0xFF MUL NOT AND SWAP1 DUP4 ISZERO ISZERO MUL OR SWAP1 SSTORE POP SWAP1 POP POP PUSH1 0x40 MLOAD DUP1 PUSH1 0xE0 ADD PUSH1 0x40 MSTORE DUP1 PUSH1 0x40 MLOAD DUP1 PUSH1 0x40 ADD PUSH1 0x40 MSTORE DUP1 PUSH1 0xE DUP2 MSTORE PUSH1 0x20 ADD PUSH32 0x5A68616E6962656B204261747972000000000000000000000000000000000000 DUP2 MSTORE POP DUP2 MSTORE PUSH1 0x20 ADD PUSH1 0x40 MLOAD DUP1 PUSH1 0x40 ADD PUSH1 0x40 MSTORE DUP1 PUSH1 0xE DUP2 MSTORE PUSH1 0x20 ADD PUSH32 0x456C69746520477561726469616E000000000000000000000000000000000000 DUP2 MSTORE POP DUP2 MSTORE PUSH1 0x20 ADD PUSH1 0x40 MLOAD DUP1 PUSH1 0x40 ADD PUSH1 0x40 MSTORE DUP1 PUSH1 0x1E DUP2 MSTORE PUSH1 0x20 ADD PUSH32 0x53757072656D6520646566656E73697665206361706162696C69746965730000 DUP2 MSTORE POP DUP2 MSTORE PUSH1 0x20 ADD PUSH1 0x96 DUP2 MSTORE PUSH1 0x20 ADD PUSH1 0x64 DUP2 MSTORE PUSH1 0x20 ADD PUSH1 0x64 DUP2 MSTORE PUSH1 0x20 ADD PUSH1 0x0 ISZERO ISZERO DUP2 MSTORE POP PUSH1 0x8 PUSH1 0x0 PUSH1 0x5 DUP2 MSTORE PUSH1 0x20 ADD SWAP1 DUP2 MSTORE PUSH1 0x20 ADD PUSH1 0x0 KECCAK256 PUSH1 0x0 DUP3 ADD MLOAD DUP2 PUSH1 0x0 ADD SWAP1 DUP2 PUSH3 0x681 SWAP2 SWAP1 PUSH3 0x973 JUMP JUMPDEST POP PUSH1 0x20 DUP3 ADD MLOAD DUP2 PUSH1 0x1 ADD SWAP1 DUP2 PUSH3 0x699 SWAP2 SWAP1 PUSH3 0x973 JUMP JUMPDEST POP PUSH1 0x40 DUP3 ADD MLOAD DUP2 PUSH1 0x2 ADD SWAP1 DUP2 PUSH3 0x6B1 SWAP2 SWAP1 PUSH3 0x973 JUMP JUMPDEST POP PUSH1 0x60 DUP3 ADD MLOAD DUP2 PUSH1 0x3 ADD SSTORE PUSH1 0x80 DUP3 ADD MLOAD DUP2 PUSH1 0x4 ADD SSTORE PUSH1 0xA0 DUP3 ADD MLOAD DUP2 PUSH1 0x5 ADD SSTORE PUSH1 0xC0 DUP3 ADD MLOAD DUP2 PUSH1 0x6 ADD PUSH1 0x0 PUSH2 0x100 EXP DUP2 SLOAD DUP2 PUSH1 0xFF MUL NOT AND SWAP1 DUP4 ISZERO ISZERO MUL OR SWAP1 SSTORE POP SWAP1 POP POP PUSH3 0xA5A JUMP JUMPDEST PUSH1 0x0 DUP2 MLOAD SWAP1 POP SWAP2 SWAP1 POP JUMP JUMPDEST PUSH32 0x4E487B7100000000000000000000000000000000000000000000000000000000 PUSH1 0x0 MSTORE PUSH1 0x41 PUSH1 0x4 MSTORE PUSH1 0x24 PUSH1 0x0 REVERT JUMPDEST PUSH32 0x4E487B7100000000000000000000000000000000000000000000000000000000 PUSH1 0x0 MSTORE PUSH1 0x22 PUSH1 0x4 MSTORE PUSH1 0x24 PUSH1 0x0 REVERT JUMPDEST PUSH1 0x0 PUSH1 0x2 DUP3 DIV SWAP1 POP PUSH1 0x1 DUP3 AND DUP1 PUSH3 0x77B JUMPI PUSH1 0x7F DUP3 AND SWAP2 POP JUMPDEST PUSH1 0x20 DUP3 LT DUP2 SUB PUSH3 0x791 JUMPI PUSH3 0x790 PUSH3 0x733 JUMP JUMPDEST JUMPDEST POP SWAP2 SWAP1 POP JUMP JUMPDEST PUSH1 0x0 DUP2 SWAP1 POP DUP2 PUSH1 0x0 MSTORE PUSH1 0x20 PUSH1 0x0 KECCAK256 SWAP1 POP SWAP2 SWAP1 POP JUMP JUMPDEST PUSH1 0x0 PUSH1 0x20 PUSH1 0x1F DUP4 ADD DIV SWAP1 POP SWAP2 SWAP1 POP JUMP JUMPDEST PUSH1 0x0 DUP3 DUP3 SHL SWAP1 POP SWAP3 SWAP2 POP POP JUMP JUMPDEST PUSH1 0x0 PUSH1 0x8 DUP4 MUL PUSH3 0x7FB PUSH32 0xFFFFFFFFFFFFFFFFFFFFFFFFFFFFFFFFFFFFFFFFFFFFFFFFFFFFFFFFFFFFFFFF DUP3 PUSH3 0x7BC JUMP JUMPDEST PUSH3 0x807 DUP7 DUP4 PUSH3 0x7BC JUMP JUMPDEST SWAP6 POP DUP1 NOT DUP5 AND SWAP4 POP DUP1 DUP7 AND DUP5 OR SWAP3 POP POP POP SWAP4 SWAP3 POP POP POP JUMP JUMPDEST PUSH1 0x0 DUP2 SWAP1 POP SWAP2 SWAP1 POP JUMP JUMPDEST PUSH1 0x0 DUP2 SWAP1 POP SWAP2 SWAP1 POP JUMP JUMPDEST PUSH1 0x0 PUSH3 0x854 PUSH3 0x84E PUSH3 0x848 DUP5 PUSH3 0x81F JUMP JUMPDEST PUSH3 0x829 JUMP JUMPDEST PUSH3 0x81F JUMP JUMPDEST SWAP1 POP SWAP2 SWAP1 POP JUMP JUMPDEST PUSH1 0x0 DUP2 SWAP1 POP SWAP2 SWAP1 POP JUMP JUMPDEST PUSH3 0x870 DUP4 PUSH3 0x833 JUMP JUMPDEST PUSH3 0x888 PUSH3 0x87F DUP3 PUSH3 0x85B JUMP JUMPDEST DUP5 DUP5 SLOAD PUSH3 0x7C9 JUMP JUMPDEST DUP3 SSTORE POP POP POP POP JUMP JUMPDEST PUSH1 0x0 SWAP1 JUMP JUMPDEST PUSH3 0x89F PUSH3 0x890 JUMP JUMPDEST PUSH3 0x8AC DUP2 DUP5 DUP5 PUSH3 0x865 JUMP JUMPDEST POP POP POP JUMP JUMPDEST JUMPDEST DUP2 DUP2 LT ISZERO PUSH3 0x8D4 JUMPI PUSH3 0x8C8 PUSH1 0x0 DUP3 PUSH3 0x895 JUMP JUMPDEST PUSH1 0x1 DUP2 ADD SWAP1 POP PUSH3 0x8B2 JUMP JUMPDEST POP POP JUMP JUMPDEST PUSH1 0x1F DUP3 GT ISZERO PUSH3 0x923 JUMPI PUSH3 0x8ED DUP2 PUSH3 0x797 JUMP JUMPDEST PUSH3 0x8F8 DUP5 PUSH3 0x7AC JUMP JUMPDEST DUP2 ADD PUSH1 0x20 DUP6 LT ISZERO PUSH3 0x908 JUMPI DUP2 SWAP1 POP JUMPDEST PUSH3 0x920 PUSH3 0x917 DUP6 PUSH3 0x7AC JUMP JUMPDEST DUP4 ADD DUP3 PUSH3 0x8B1 JUMP JUMPDEST POP POP JUMPDEST POP POP POP JUMP JUMPDEST PUSH1 0x0 DUP3 DUP3 SHR SWAP1 POP SWAP3 SWAP2 POP POP JUMP JUMPDEST PUSH1 0x0 PUSH3 0x948 PUSH1 0x0 NOT DUP5 PUSH1 0x8 MUL PUSH3 0x928 JUMP JUMPDEST NOT DUP1 DUP4 AND SWAP2 POP POP SWAP3 SWAP2 POP POP JUMP JUMPDEST PUSH1 0x0 PUSH3 0x963 DUP4 DUP4 PUSH3 0x935 JUMP JUMPDEST SWAP2 POP DUP3 PUSH1 0x2 MUL DUP3 OR SWAP1 POP SWAP3 SWAP2 POP POP JUMP JUMPDEST PUSH3 0x97E DUP3 PUSH3 0x6F9 JUMP JUMPDEST PUSH8 0xFFFFFFFFFFFFFFFF DUP2 GT ISZERO PUSH3 0x99A JUMPI PUSH3 0x999 PUSH3 0x704 JUMP JUMPDEST JUMPDEST PUSH3 0x9A6 DUP3 SLOAD PUSH3 0x762 JUMP JUMPDEST PUSH3 0x9B3 DUP3 DUP3 DUP6 PUSH3 0x8D8 JUMP JUMPDEST PUSH1 0x0 PUSH1 0x20 SWAP1 POP PUSH1 0x1F DUP4 GT PUSH1 0x1 DUP2 EQ PUSH3 0x9EB JUMPI PUSH1 0x0 DUP5 ISZERO PUSH3 0x9D6 JUMPI DUP3 DUP8 ADD MLOAD SWAP1 POP JUMPDEST PUSH3 0x9E2 DUP6 DUP3 PUSH3 0x955 JUMP JUMPDEST DUP7 SSTORE POP PUSH3 0xA52 JUMP JUMPDEST PUSH1 0x1F NOT DUP5 AND PUSH3 0x9FB DUP7 PUSH3 0x797 JUMP JUMPDEST PUSH1 0x0 JUMPDEST DUP3 DUP2 LT ISZERO PUSH3 0xA25 JUMPI DUP5 DUP10 ADD MLOAD DUP3 SSTORE PUSH1 0x1 DUP3 ADD SWAP2 POP PUSH1 0x20 DUP6 ADD SWAP5 POP PUSH1 0x20 DUP2 ADD SWAP1 POP PUSH3 0x9FE JUMP JUMPDEST DUP7 DUP4 LT ISZERO PUSH3 0xA45 JUMPI DUP5 DUP10 ADD MLOAD PUSH3 0xA41 PUSH1 0x1F DUP10 AND DUP3 PUSH3 0x935 JUMP JUMPDEST DUP4 SSTORE POP JUMPDEST PUSH1 0x1 PUSH1 0x2 DUP9 MUL ADD DUP9 SSTORE POP POP POP JUMPDEST POP POP POP POP POP POP JUMP JUMPDEST PUSH2 0x4907 DUP1 PUSH3 0xA6A PUSH1 0x0 CODECOPY PUSH1 0x0 RETURN INVALID PUSH1 0x80 PUSH1 0x40 MSTORE PUSH1 0x4 CALLDATASIZE LT PUSH2 0x135 JUMPI PUSH1 0x0 CALLDATALOAD PUSH1 0xE0 SHR DUP1 PUSH4 0x6011515C GT PUSH2 0xAB JUMPI DUP1 PUSH4 0xC1C063EB GT PUSH2 0x6F JUMPI DUP1 PUSH4 0xC1C063EB EQ PUSH2 0x470 JUMPI DUP1 PUSH4 0xD1E69F40 EQ PUSH2 0x4B3 JUMPI DUP1 PUSH4 0xDFAD6257 EQ PUSH2 0x4DE JUMPI DUP1 PUSH4 0xE0F83F21 EQ PUSH2 0x4FA JUMPI DUP1 PUSH4 0xEE52F8F3 EQ PUSH2 0x525 JUMPI DUP1 PUSH4 0xFD0A5D9B EQ PUSH2 0x566 JUMPI PUSH2 0x135 JUMP JUMPDEST DUP1 PUSH4 0x6011515C EQ PUSH2 0x343 JUMPI DUP1 PUSH4 0x6B4FAECA EQ PUSH2 0x36E JUMPI DUP1 PUSH4 0x6C513C51 EQ PUSH2 0x3B3 JUMPI DUP1 PUSH4 0x6D3C4787 EQ PUSH2 0x3F0 JUMPI DUP1 PUSH4 0x8602EEBF EQ PUSH2 0x42D JUMPI PUSH2 0x135 JUMP JUMPDEST DUP1 PUSH4 0x3B42F248 GT PUSH2 0xFD JUMPI DUP1 PUSH4 0x3B42F248 EQ PUSH2 0x1EF JUMPI DUP1 PUSH4 0x3DDE60C2 EQ PUSH2 0x22C JUMPI DUP1 PUSH4 0x3F430695 EQ PUSH2 0x257 JUMPI DUP1 PUSH4 0x4FD66EAE EQ PUSH2 0x29A JUMPI DUP1 PUSH4 0x54258088 EQ PUSH2 0x2DB JUMPI DUP1 PUSH4 0x5DCEE894 EQ PUSH2 0x306 JUMPI PUSH2 0x135 JUMP JUMPDEST DUP1 PUSH4 0xC1CDB6D EQ PUSH2 0x13A JUMPI DUP1 PUSH4 0x1504F5CD EQ PUSH2 0x163 JUMPI DUP1 PUSH4 0x21EC18E1 EQ PUSH2 0x18C JUMPI DUP1 PUSH4 0x232E096D EQ PUSH2 0x1A8 JUMPI DUP1 PUSH4 0x3A0DE743 EQ PUSH2 0x1E5 JUMPI JUMPDEST PUSH1 0x0 DUP1 REVERT JUMPDEST CALLVALUE DUP1 ISZERO PUSH2 0x146 JUMPI PUSH1 0x0 DUP1 REVERT JUMPDEST POP PUSH2 0x161 PUSH1 0x4 DUP1 CALLDATASIZE SUB DUP2 ADD SWAP1 PUSH2 0x15C SWAP2 SWAP1 PUSH2 0x3401 JUMP JUMPDEST PUSH2 0x58F JUMP JUMPDEST STOP JUMPDEST CALLVALUE DUP1 ISZERO PUSH2 0x16F JUMPI PUSH1 0x0 DUP1 REVERT JUMPDEST POP PUSH2 0x18A PUSH1 0x4 DUP1 CALLDATASIZE SUB DUP2 ADD SWAP1 PUSH2 0x185 SWAP2 SWAP1 PUSH2 0x3480 JUMP JUMPDEST PUSH2 0x869 JUMP JUMPDEST STOP JUMPDEST PUSH2 0x1A6 PUSH1 0x4 DUP1 CALLDATASIZE SUB DUP2 ADD SWAP1 PUSH2 0x1A1 SWAP2 SWAP1 PUSH2 0x3480 JUMP JUMPDEST PUSH2 0xB22 JUMP JUMPDEST STOP JUMPDEST CALLVALUE DUP1 ISZERO PUSH2 0x1B4 JUMPI PUSH1 0x0 DUP1 REVERT JUMPDEST POP PUSH2 0x1CF PUSH1 0x4 DUP1 CALLDATASIZE SUB DUP2 ADD SWAP1 PUSH2 0x1CA SWAP2 SWAP1 PUSH2 0x350B JUMP JUMPDEST PUSH2 0xD19 JUMP JUMPDEST PUSH1 0x40 MLOAD PUSH2 0x1DC SWAP2 SWAP1 PUSH2 0x3566 JUMP JUMPDEST PUSH1 0x40 MLOAD DUP1 SWAP2 SUB SWAP1 RETURN JUMPDEST PUSH2 0x1ED PUSH2 0xD81 JUMP JUMPDEST STOP JUMPDEST CALLVALUE DUP1 ISZERO PUSH2 0x1FB JUMPI PUSH1 0x0 DUP1 REVERT JUMPDEST POP PUSH2 0x216 PUSH1 0x4 DUP1 CALLDATASIZE SUB DUP2 ADD SWAP1 PUSH2 0x211 SWAP2 SWAP1 PUSH2 0x350B JUMP JUMPDEST PUSH2 0x1166 JUMP JUMPDEST PUSH1 0x40 MLOAD PUSH2 0x223 SWAP2 SWAP1 PUSH2 0x3566 JUMP JUMPDEST PUSH1 0x40 MLOAD DUP1 SWAP2 SUB SWAP1 RETURN JUMPDEST CALLVALUE DUP1 ISZERO PUSH2 0x238 JUMPI PUSH1 0x0 DUP1 REVERT JUMPDEST POP PUSH2 0x241 PUSH2 0x1195 JUMP JUMPDEST PUSH1 0x40 MLOAD PUSH2 0x24E SWAP2 SWAP1 PUSH2 0x3590 JUMP JUMPDEST PUSH1 0x40 MLOAD DUP1 SWAP2 SUB SWAP1 RETURN JUMPDEST CALLVALUE DUP1 ISZERO PUSH2 0x263 JUMPI PUSH1 0x0 DUP1 REVERT JUMPDEST POP PUSH2 0x27E PUSH1 0x4 DUP1 CALLDATASIZE SUB DUP2 ADD SWAP1 PUSH2 0x279 SWAP2 SWAP1 PUSH2 0x35AB JUMP JUMPDEST PUSH2 0x11A0 JUMP JUMPDEST PUSH1 0x40 MLOAD PUSH2 0x291 SWAP8 SWAP7 SWAP6 SWAP5 SWAP4 SWAP3 SWAP2 SWAP1 PUSH2 0x3657 JUMP JUMPDEST PUSH1 0x40 MLOAD DUP1 SWAP2 SUB SWAP1 RETURN JUMPDEST CALLVALUE DUP1 ISZERO PUSH2 0x2A6 JUMPI PUSH1 0x0 DUP1 REVERT JUMPDEST POP PUSH2 0x2C1 PUSH1 0x4 DUP1 CALLDATASIZE SUB DUP2 ADD SWAP1 PUSH2 0x2BC SWAP2 SWAP1 PUSH2 0x35AB JUMP JUMPDEST PUSH2 0x13B9 JUMP JUMPDEST PUSH1 0x40 MLOAD PUSH2 0x2D2 SWAP6 SWAP5 SWAP4 SWAP3 SWAP2 SWAP1 PUSH2 0x36CD JUMP JUMPDEST PUSH1 0x40 MLOAD DUP1 SWAP2 SUB SWAP1 RETURN JUMPDEST CALLVALUE DUP1 ISZERO PUSH2 0x2E7 JUMPI PUSH1 0x0 DUP1 REVERT JUMPDEST POP PUSH2 0x2F0 PUSH2 0x15D7 JUMP JUMPDEST PUSH1 0x40 MLOAD PUSH2 0x2FD SWAP2 SWAP1 PUSH2 0x3590 JUMP JUMPDEST PUSH1 0x40 MLOAD DUP1 SWAP2 SUB SWAP1 RETURN JUMPDEST CALLVALUE DUP1 ISZERO PUSH2 0x312 JUMPI PUSH1 0x0 DUP1 REVERT JUMPDEST POP PUSH2 0x32D PUSH1 0x4 DUP1 CALLDATASIZE SUB DUP2 ADD SWAP1 PUSH2 0x328 SWAP2 SWAP1 PUSH2 0x3720 JUMP JUMPDEST PUSH2 0x15E3 JUMP JUMPDEST PUSH1 0x40 MLOAD PUSH2 0x33A SWAP2 SWAP1 PUSH2 0x3566 JUMP JUMPDEST PUSH1 0x40 MLOAD DUP1 SWAP2 SUB SWAP1 RETURN JUMPDEST CALLVALUE DUP1 ISZERO PUSH2 0x34F JUMPI PUSH1 0x0 DUP1 REVERT JUMPDEST POP PUSH2 0x358 PUSH2 0x1628 JUMP JUMPDEST PUSH1 0x40 MLOAD PUSH2 0x365 SWAP2 SWAP1 PUSH2 0x3590 JUMP JUMPDEST PUSH1 0x40 MLOAD DUP1 SWAP2 SUB SWAP1 RETURN JUMPDEST CALLVALUE DUP1 ISZERO PUSH2 0x37A JUMPI PUSH1 0x0 DUP1 REVERT JUMPDEST POP PUSH2 0x395 PUSH1 0x4 DUP1 CALLDATASIZE SUB DUP2 ADD SWAP1 PUSH2 0x390 SWAP2 SWAP1 PUSH2 0x35AB JUMP JUMPDEST PUSH2 0x1633 JUMP JUMPDEST PUSH1 0x40 MLOAD PUSH2 0x3AA SWAP10 SWAP9 SWAP8 SWAP7 SWAP6 SWAP5 SWAP4 SWAP3 SWAP2 SWAP1 PUSH2 0x377C JUMP JUMPDEST PUSH1 0x40 MLOAD DUP1 SWAP2 SUB SWAP1 RETURN JUMPDEST CALLVALUE DUP1 ISZERO PUSH2 0x3BF JUMPI PUSH1 0x0 DUP1 REVERT JUMPDEST POP PUSH2 0x3DA PUSH1 0x4 DUP1 CALLDATASIZE SUB DUP2 ADD SWAP1 PUSH2 0x3D5 SWAP2 SWAP1 PUSH2 0x35AB JUMP JUMPDEST PUSH2 0x1716 JUMP JUMPDEST PUSH1 0x40 MLOAD PUSH2 0x3E7 SWAP2 SWAP1 PUSH2 0x3590 JUMP JUMPDEST PUSH1 0x40 MLOAD DUP1 SWAP2 SUB SWAP1 RETURN JUMPDEST CALLVALUE DUP1 ISZERO PUSH2 0x3FC JUMPI PUSH1 0x0 DUP1 REVERT JUMPDEST POP PUSH2 0x417 PUSH1 0x4 DUP1 CALLDATASIZE SUB DUP2 ADD SWAP1 PUSH2 0x412 SWAP2 SWAP1 PUSH2 0x3480 JUMP JUMPDEST PUSH2 0x172E JUMP JUMPDEST PUSH1 0x40 MLOAD PUSH2 0x424 SWAP2 SWAP1 PUSH2 0x381F JUMP JUMPDEST PUSH1 0x40 MLOAD DUP1 SWAP2 SUB SWAP1 RETURN JUMPDEST CALLVALUE DUP1 ISZERO PUSH2 0x439 JUMPI PUSH1 0x0 DUP1 REVERT JUMPDEST POP PUSH2 0x454 PUSH1 0x4 DUP1 CALLDATASIZE SUB DUP2 ADD SWAP1 PUSH2 0x44F SWAP2 SWAP1 PUSH2 0x3480 JUMP JUMPDEST PUSH2 0x176D JUMP JUMPDEST PUSH1 0x40 MLOAD PUSH2 0x467 SWAP8 SWAP7 SWAP6 SWAP5 SWAP4 SWAP3 SWAP2 SWAP1 PUSH2 0x383A JUMP JUMPDEST PUSH1 0x40 MLOAD DUP1 SWAP2 SUB SWAP1 RETURN JUMPDEST CALLVALUE DUP1 ISZERO PUSH2 0x47C JUMPI PUSH1 0x0 DUP1 REVERT JUMPDEST POP PUSH2 0x497 PUSH1 0x4 DUP1 CALLDATASIZE SUB DUP2 ADD SWAP1 PUSH2 0x492 SWAP2 SWAP1 PUSH2 0x3480 JUMP JUMPDEST PUSH2 0x1954 JUMP JUMPDEST PUSH1 0x40 MLOAD PUSH2 0x4AA SWAP8 SWAP7 SWAP6 SWAP5 SWAP4 SWAP3 SWAP2 SWAP1 PUSH2 0x383A JUMP JUMPDEST PUSH1 0x40 MLOAD DUP1 SWAP2 SUB SWAP1 RETURN JUMPDEST CALLVALUE DUP1 ISZERO PUSH2 0x4BF JUMPI PUSH1 0x0 DUP1 REVERT JUMPDEST POP PUSH2 0x4C8 PUSH2 0x1BFD JUMP JUMPDEST PUSH1 0x40 MLOAD PUSH2 0x4D5 SWAP2 SWAP1 PUSH2 0x397C JUMP JUMPDEST PUSH1 0x40 MLOAD DUP1 SWAP2 SUB SWAP1 RETURN JUMPDEST PUSH2 0x4F8 PUSH1 0x4 DUP1 CALLDATASIZE SUB DUP2 ADD SWAP1 PUSH2 0x4F3 SWAP2 SWAP1 PUSH2 0x399E JUMP JUMPDEST PUSH2 0x1C8B JUMP JUMPDEST STOP JUMPDEST CALLVALUE DUP1 ISZERO PUSH2 0x506 JUMPI PUSH1 0x0 DUP1 REVERT JUMPDEST POP PUSH2 0x50F PUSH2 0x1EF3 JUMP JUMPDEST PUSH1 0x40 MLOAD PUSH2 0x51C SWAP2 SWAP1 PUSH2 0x3590 JUMP JUMPDEST PUSH1 0x40 MLOAD DUP1 SWAP2 SUB SWAP1 RETURN JUMPDEST CALLVALUE DUP1 ISZERO PUSH2 0x531 JUMPI PUSH1 0x0 DUP1 REVERT JUMPDEST POP PUSH2 0x54C PUSH1 0x4 DUP1 CALLDATASIZE SUB DUP2 ADD SWAP1 PUSH2 0x547 SWAP2 SWAP1 PUSH2 0x3480 JUMP JUMPDEST PUSH2 0x1EFF JUMP JUMPDEST PUSH1 0x40 MLOAD PUSH2 0x55D SWAP6 SWAP5 SWAP4 SWAP3 SWAP2 SWAP1 PUSH2 0x39DE JUMP JUMPDEST PUSH1 0x40 MLOAD DUP1 SWAP2 SUB SWAP1 RETURN JUMPDEST CALLVALUE DUP1 ISZERO PUSH2 0x572 JUMPI PUSH1 0x0 DUP1 REVERT JUMPDEST POP PUSH2 0x58D PUSH1 0x4 DUP1 CALLDATASIZE SUB DUP2 ADD SWAP1 PUSH2 0x588 SWAP2 SWAP1 PUSH2 0x35AB JUMP JUMPDEST PUSH2 0x1F82 JUMP JUMPDEST STOP JUMPDEST PUSH1 0x1 PUSH1 0x0 CALLER PUSH20 0xFFFFFFFFFFFFFFFFFFFFFFFFFFFFFFFFFFFFFFFF AND PUSH20 0xFFFFFFFFFFFFFFFFFFFFFFFFFFFFFFFFFFFFFFFF AND DUP2 MSTORE PUSH1 0x20 ADD SWAP1 DUP2 MSTORE PUSH1 0x20 ADD PUSH1 0x0 KECCAK256 PUSH1 0x8 ADD PUSH1 0x0 SWAP1 SLOAD SWAP1 PUSH2 0x100 EXP SWAP1 DIV PUSH1 0xFF AND ISZERO PUSH2 0x61F JUMPI PUSH1 0x40 MLOAD PUSH32 0x8C379A000000000000000000000000000000000000000000000000000000000 DUP2 MSTORE PUSH1 0x4 ADD PUSH2 0x616 SWAP1 PUSH2 0x3A7D JUMP JUMPDEST PUSH1 0x40 MLOAD DUP1 SWAP2 SUB SWAP1 REVERT JUMPDEST PUSH1 0x0 DUP2 MLOAD GT PUSH2 0x663 JUMPI PUSH1 0x40 MLOAD PUSH32 0x8C379A000000000000000000000000000000000000000000000000000000000 DUP2 MSTORE PUSH1 0x4 ADD PUSH2 0x65A SWAP1 PUSH2 0x3AE9 JUMP JUMPDEST PUSH1 0x40 MLOAD DUP1 SWAP2 SUB SWAP1 REVERT JUMPDEST PUSH1 0x40 MLOAD DUP1 PUSH2 0x120 ADD PUSH1 0x40 MSTORE DUP1 DUP3 DUP2 MSTORE PUSH1 0x20 ADD PUSH1 0x1 DUP2 MSTORE PUSH1 0x20 ADD PUSH1 0xA DUP2 MSTORE PUSH1 0x20 ADD PUSH1 0x5 DUP2 MSTORE PUSH1 0x20 ADD PUSH1 0x0 DUP2 MSTORE PUSH1 0x20 ADD PUSH1 0x0 DUP2 MSTORE PUSH1 0x20 ADD PUSH1 0x0 DUP2 MSTORE PUSH1 0x20 ADD PUSH1 0x0 DUP2 MSTORE PUSH1 0x20 ADD PUSH1 0x1 ISZERO ISZERO DUP2 MSTORE POP PUSH1 0x1 PUSH1 0x0 CALLER PUSH20 0xFFFFFFFFFFFFFFFFFFFFFFFFFFFFFFFFFFFFFFFF AND PUSH20 0xFFFFFFFFFFFFFFFFFFFFFFFFFFFFFFFFFFFFFFFF AND DUP2 MSTORE PUSH1 0x20 ADD SWAP1 DUP2 MSTORE PUSH1 0x20 ADD PUSH1 0x0 KECCAK256 PUSH1 0x0 DUP3 ADD MLOAD DUP2 PUSH1 0x0 ADD SWAP1 DUP2 PUSH2 0x701 SWAP2 SWAP1 PUSH2 0x3D15 JUMP JUMPDEST POP PUSH1 0x20 DUP3 ADD MLOAD DUP2 PUSH1 0x1 ADD SSTORE PUSH1 0x40 DUP3 ADD MLOAD DUP2 PUSH1 0x2 ADD SSTORE PUSH1 0x60 DUP3 ADD MLOAD DUP2 PUSH1 0x3 ADD SSTORE PUSH1 0x80 DUP3 ADD MLOAD DUP2 PUSH1 0x4 ADD SSTORE PUSH1 0xA0 DUP3 ADD MLOAD DUP2 PUSH1 0x5 ADD SSTORE PUSH1 0xC0 DUP3 ADD MLOAD DUP2 PUSH1 0x6 ADD SSTORE PUSH1 0xE0 DUP3 ADD MLOAD DUP2 PUSH1 0x7 ADD SSTORE PUSH2 0x100 DUP3 ADD MLOAD DUP2 PUSH1 0x8 ADD PUSH1 0x0 PUSH2 0x100 EXP DUP2 SLOAD DUP2 PUSH1 0xFF MUL NOT AND SWAP1 DUP4 ISZERO ISZERO MUL OR SWAP1 SSTORE POP SWAP1 POP POP PUSH1 0x6 DUP1 SLOAD SWAP1 POP PUSH1 0x7 PUSH1 0x0 CALLER PUSH20 0xFFFFFFFFFFFFFFFFFFFFFFFFFFFFFFFFFFFFFFFF AND PUSH20 0xFFFFFFFFFFFFFFFFFFFFFFFFFFFFFFFFFFFFFFFF AND DUP2 MSTORE PUSH1 0x20 ADD SWAP1 DUP2 MSTORE PUSH1 0x20 ADD PUSH1 0x0 KECCAK256 DUP2 SWAP1 SSTORE POP PUSH1 0x6 CALLER SWAP1 DUP1 PUSH1 0x1 DUP2 SLOAD ADD DUP1 DUP3 SSTORE DUP1 SWAP2 POP POP PUSH1 0x1 SWAP1 SUB SWAP1 PUSH1 0x0 MSTORE PUSH1 0x20 PUSH1 0x0 KECCAK256 ADD PUSH1 0x0 SWAP1 SWAP2 SWAP1 SWAP2 SWAP1 SWAP2 PUSH2 0x100 EXP DUP2 SLOAD DUP2 PUSH20 0xFFFFFFFFFFFFFFFFFFFFFFFFFFFFFFFFFFFFFFFF MUL NOT AND SWAP1 DUP4 PUSH20 0xFFFFFFFFFFFFFFFFFFFFFFFFFFFFFFFFFFFFFFFF AND MUL OR SWAP1 SSTORE POP CALLER PUSH20 0xFFFFFFFFFFFFFFFFFFFFFFFFFFFFFFFFFFFFFFFF AND PUSH32 0x67409CED604950B5508F075F60153E7D166866A8251A44B569A7A07D7F27C3EB DUP3 PUSH1 0x40 MLOAD PUSH2 0x85E SWAP2 SWAP1 PUSH2 0x3DE7 JUMP JUMPDEST PUSH1 0x40 MLOAD DUP1 SWAP2 SUB SWAP1 LOG2 POP JUMP JUMPDEST PUSH1 0x0 PUSH1 0x4 PUSH1 0x0 DUP4 DUP2 MSTORE PUSH1 0x20 ADD SWAP1 DUP2 MSTORE PUSH1 0x20 ADD PUSH1 0x0 KECCAK256 SWAP1 POP DUP1 PUSH1 0x3 ADD PUSH1 0x0 SWAP1 SLOAD SWAP1 PUSH2 0x100 EXP SWAP1 DIV PUSH1 0xFF AND ISZERO PUSH2 0x8D2 JUMPI PUSH1 0x40 MLOAD PUSH32 0x8C379A000000000000000000000000000000000000000000000000000000000 DUP2 MSTORE PUSH1 0x4 ADD PUSH2 0x8C9 SWAP1 PUSH2 0x3E55 JUMP JUMPDEST PUSH1 0x40 MLOAD DUP1 SWAP2 SUB SWAP1 REVERT JUMPDEST DUP1 PUSH1 0x4 ADD SLOAD DUP2 PUSH1 0x2 ADD SLOAD PUSH2 0x8E6 SWAP2 SWAP1 PUSH2 0x3EA4 JUMP JUMPDEST TIMESTAMP LT ISZERO PUSH2 0x928 JUMPI PUSH1 0x40 MLOAD PUSH32 0x8C379A000000000000000000000000000000000000000000000000000000000 DUP2 MSTORE PUSH1 0x4 ADD PUSH2 0x91F SWAP1 PUSH2 0x3F24 JUMP JUMPDEST PUSH1 0x40 MLOAD DUP1 SWAP2 SUB SWAP1 REVERT JUMPDEST PUSH1 0x0 DUP2 PUSH1 0x0 ADD PUSH1 0x0 SWAP1 SLOAD SWAP1 PUSH2 0x100 EXP SWAP1 DIV PUSH20 0xFFFFFFFFFFFFFFFFFFFFFFFFFFFFFFFFFFFFFFFF AND SWAP1 POP PUSH1 0x0 DUP3 PUSH1 0x1 ADD PUSH1 0x0 SWAP1 SLOAD SWAP1 PUSH2 0x100 EXP SWAP1 DIV PUSH20 0xFFFFFFFFFFFFFFFFFFFFFFFFFFFFFFFFFFFFFFFF AND SWAP1 POP PUSH1 0x0 PUSH2 0x985 DUP4 PUSH2 0x2376 JUMP JUMPDEST SWAP1 POP PUSH1 0x0 PUSH2 0x992 DUP4 PUSH2 0x2376 JUMP JUMPDEST SWAP1 POP PUSH1 0x0 PUSH1 0x5A PUSH1 0x14 TIMESTAMP DUP8 DUP8 PUSH1 0x40 MLOAD PUSH1 0x20 ADD PUSH2 0x9AF SWAP4 SWAP3 SWAP2 SWAP1 PUSH2 0x3FAD JUMP JUMPDEST PUSH1 0x40 MLOAD PUSH1 0x20 DUP2 DUP4 SUB SUB DUP2 MSTORE SWAP1 PUSH1 0x40 MSTORE DUP1 MLOAD SWAP1 PUSH1 0x20 ADD KECCAK256 PUSH1 0x0 SHR PUSH2 0x9D2 SWAP2 SWAP1 PUSH2 0x4019 JUMP JUMPDEST PUSH2 0x9DC SWAP2 SWAP1 PUSH2 0x3EA4 JUMP JUMPDEST SWAP1 POP PUSH1 0x64 DUP2 DUP5 PUSH2 0x9EC SWAP2 SWAP1 PUSH2 0x404A JUMP JUMPDEST PUSH2 0x9F6 SWAP2 SWAP1 PUSH2 0x408C JUMP JUMPDEST SWAP3 POP PUSH1 0x1 DUP7 PUSH1 0x3 ADD PUSH1 0x0 PUSH2 0x100 EXP DUP2 SLOAD DUP2 PUSH1 0xFF MUL NOT AND SWAP1 DUP4 ISZERO ISZERO MUL OR SWAP1 SSTORE POP DUP2 DUP4 GT ISZERO PUSH2 0xA2C JUMPI PUSH2 0xA27 DUP6 DUP6 PUSH2 0x2726 JUMP JUMPDEST PUSH2 0xB19 JUMP JUMPDEST PUSH2 0xA36 DUP5 DUP7 PUSH2 0x2726 JUMP JUMPDEST PUSH1 0x1 PUSH1 0x0 DUP6 PUSH20 0xFFFFFFFFFFFFFFFFFFFFFFFFFFFFFFFFFFFFFFFF AND PUSH20 0xFFFFFFFFFFFFFFFFFFFFFFFFFFFFFFFFFFFFFFFF AND DUP2 MSTORE PUSH1 0x20 ADD SWAP1 DUP2 MSTORE PUSH1 0x20 ADD PUSH1 0x0 KECCAK256 PUSH1 0x7 ADD PUSH1 0x0 DUP2 SLOAD DUP1 SWAP3 SWAP2 SWAP1 PUSH2 0xA89 SWAP1 PUSH2 0x40BD JUMP JUMPDEST SWAP2 SWAP1 POP SSTORE POP PUSH1 0x5 PUSH1 0x1 PUSH1 0x0 DUP7 PUSH20 0xFFFFFFFFFFFFFFFFFFFFFFFFFFFFFFFFFFFFFFFF AND PUSH20 0xFFFFFFFFFFFFFFFFFFFFFFFFFFFFFFFFFFFFFFFF AND DUP2 MSTORE PUSH1 0x20 ADD SWAP1 DUP2 MSTORE PUSH1 0x20 ADD PUSH1 0x0 KECCAK256 PUSH1 0x7 ADD SLOAD LT PUSH2 0xB18 JUMPI PUSH2 0xB17 DUP5 PUSH1 0x40 MLOAD DUP1 PUSH1 0x40 ADD PUSH1 0x40 MSTORE DUP1 PUSH1 0x8 DUP2 MSTORE PUSH1 0x20 ADD PUSH32 0x444546454E444552000000000000000000000000000000000000000000000000 DUP2 MSTORE POP PUSH2 0x30EA JUMP JUMPDEST JUMPDEST JUMPDEST POP POP POP POP POP POP POP JUMP JUMPDEST PUSH1 0x0 PUSH1 0x4 PUSH1 0x0 DUP4 DUP2 MSTORE PUSH1 0x20 ADD SWAP1 DUP2 MSTORE PUSH1 0x20 ADD PUSH1 0x0 KECCAK256 SWAP1 POP PUSH8 0x429D069189E0000 CALLVALUE LT ISZERO PUSH2 0xB84 JUMPI PUSH1 0x40 MLOAD PUSH32 0x8C379A000000000000000000000000000000000000000000000000000000000 DUP2 MSTORE PUSH1 0x4 ADD PUSH2 0xB7B SWAP1 PUSH2 0x4177 JUMP JUMPDEST PUSH1 0x40 MLOAD DUP1 SWAP2 SUB SWAP1 REVERT JUMPDEST CALLER PUSH20 0xFFFFFFFFFFFFFFFFFFFFFFFFFFFFFFFFFFFFFFFF AND DUP2 PUSH1 0x0 ADD PUSH1 0x0 SWAP1 SLOAD SWAP1 PUSH2 0x100 EXP SWAP1 DIV PUSH20 0xFFFFFFFFFFFFFFFFFFFFFFFFFFFFFFFFFFFFFFFF AND PUSH20 0xFFFFFFFFFFFFFFFFFFFFFFFFFFFFFFFFFFFFFFFF AND EQ PUSH2 0xC16 JUMPI PUSH1 0x40 MLOAD PUSH32 0x8C379A000000000000000000000000000000000000000000000000000000000 DUP2 MSTORE PUSH1 0x4 ADD PUSH2 0xC0D SWAP1 PUSH2 0x41E3 JUMP JUMPDEST PUSH1 0x40 MLOAD DUP1 SWAP2 SUB SWAP1 REVERT JUMPDEST DUP1 PUSH1 0x3 ADD PUSH1 0x0 SWAP1 SLOAD SWAP1 PUSH2 0x100 EXP SWAP1 DIV PUSH1 0xFF AND ISZERO PUSH2 0xC68 JUMPI PUSH1 0x40 MLOAD PUSH32 0x8C379A000000000000000000000000000000000000000000000000000000000 DUP2 MSTORE PUSH1 0x4 ADD PUSH2 0xC5F SWAP1 PUSH2 0x3E55 JUMP JUMPDEST PUSH1 0x40 MLOAD DUP1 SWAP2 SUB SWAP1 REVERT JUMPDEST PUSH32 0x1E372B79674F198909A4F4EE1416FD2C6E8DCD6AE23CEB1593D2ED32264D8D2E DUP3 CALLER PUSH1 0x40 MLOAD PUSH2 0xC99 SWAP3 SWAP2 SWAP1 PUSH2 0x4203 JUMP JUMPDEST PUSH1 0x40 MLOAD DUP1 SWAP2 SUB SWAP1 LOG1 PUSH2 0xCAA DUP3 PUSH2 0x869 JUMP JUMPDEST PUSH8 0x429D069189E0000 CALLVALUE GT ISZERO PUSH2 0xD15 JUMPI CALLER PUSH20 0xFFFFFFFFFFFFFFFFFFFFFFFFFFFFFFFFFFFFFFFF AND PUSH2 0x8FC PUSH8 0x429D069189E0000 CALLVALUE PUSH2 0xCE8 SWAP2 SWAP1 PUSH2 0x422C JUMP JUMPDEST SWAP1 DUP2 ISZERO MUL SWAP1 PUSH1 0x40 MLOAD PUSH1 0x0 PUSH1 0x40 MLOAD DUP1 DUP4 SUB DUP2 DUP6 DUP9 DUP9 CALL SWAP4 POP POP POP POP ISZERO DUP1 ISZERO PUSH2 0xD13 JUMPI RETURNDATASIZE PUSH1 0x0 DUP1 RETURNDATACOPY RETURNDATASIZE PUSH1 0x0 REVERT JUMPDEST POP JUMPDEST POP POP JUMP JUMPDEST PUSH1 0x0 PUSH1 0x2 PUSH1 0x0 DUP5 PUSH20 0xFFFFFFFFFFFFFFFFFFFFFFFFFFFFFFFFFFFFFFFF AND PUSH20 0xFFFFFFFFFFFFFFFFFFFFFFFFFFFFFFFFFFFFFFFF AND DUP2 MSTORE PUSH1 0x20 ADD SWAP1 DUP2 MSTORE PUSH1 0x20 ADD PUSH1 0x0 KECCAK256 PUSH1 0x0 DUP4 DUP2 MSTORE PUSH1 0x20 ADD SWAP1 DUP2 MSTORE PUSH1 0x20 ADD PUSH1 0x0 KECCAK256 PUSH1 0x0 SWAP1 SLOAD SWAP1 PUSH2 0x100 EXP SWAP1 DIV PUSH1 0xFF AND SWAP1 POP SWAP3 SWAP2 POP POP JUMP JUMPDEST PUSH1 0x1 PUSH1 0x0 CALLER PUSH20 0xFFFFFFFFFFFFFFFFFFFFFFFFFFFFFFFFFFFFFFFF AND PUSH20 0xFFFFFFFFFFFFFFFFFFFFFFFFFFFFFFFFFFFFFFFF AND DUP2 MSTORE PUSH1 0x20 ADD SWAP1 DUP2 MSTORE PUSH1 0x20 ADD PUSH1 0x0 KECCAK256 PUSH1 0x8 ADD PUSH1 0x0 SWAP1 SLOAD SWAP1 PUSH2 0x100 EXP SWAP1 DIV PUSH1 0xFF AND PUSH2 0xE10 JUMPI PUSH1 0x40 MLOAD PUSH32 0x8C379A000000000000000000000000000000000000000000000000000000000 DUP2 MSTORE PUSH1 0x4 ADD PUSH2 0xE07 SWAP1 PUSH2 0x42AC JUMP JUMPDEST PUSH1 0x40 MLOAD DUP1 SWAP2 SUB SWAP1 REVERT JUMPDEST PUSH8 0x16345785D8A0000 CALLVALUE LT ISZERO PUSH2 0xE5B JUMPI PUSH1 0x40 MLOAD PUSH32 0x8C379A000000000000000000000000000000000000000000000000000000000 DUP2 MSTORE PUSH1 0x4 ADD PUSH2 0xE52 SWAP1 PUSH2 0x4318 JUMP JUMPDEST PUSH1 0x40 MLOAD DUP1 SWAP2 SUB SWAP1 REVERT JUMPDEST PUSH1 0x0 PUSH1 0x64 TIMESTAMP CALLER PUSH1 0x40 MLOAD PUSH1 0x20 ADD PUSH2 0xE72 SWAP3 SWAP2 SWAP1 PUSH2 0x4338 JUMP JUMPDEST PUSH1 0x40 MLOAD PUSH1 0x20 DUP2 DUP4 SUB SUB DUP2 MSTORE SWAP1 PUSH1 0x40 MSTORE DUP1 MLOAD SWAP1 PUSH1 0x20 ADD KECCAK256 PUSH1 0x0 SHR PUSH2 0xE95 SWAP2 SWAP1 PUSH2 0x4019 JUMP JUMPDEST SWAP1 POP PUSH1 0x14 DUP2 LT ISZERO PUSH2 0x10F8 JUMPI PUSH1 0x0 PUSH1 0x1 PUSH1 0x5 TIMESTAMP CALLER DUP6 PUSH1 0x40 MLOAD PUSH1 0x20 ADD PUSH2 0xEBB SWAP4 SWAP3 SWAP2 SWAP1 PUSH2 0x4364 JUMP JUMPDEST PUSH1 0x40 MLOAD PUSH1 0x20 DUP2 DUP4 SUB SUB DUP2 MSTORE SWAP1 PUSH1 0x40 MSTORE DUP1 MLOAD SWAP1 PUSH1 0x20 ADD KECCAK256 PUSH1 0x0 SHR PUSH2 0xEDE SWAP2 SWAP1 PUSH2 0x4019 JUMP JUMPDEST PUSH2 0xEE8 SWAP2 SWAP1 PUSH2 0x3EA4 JUMP JUMPDEST SWAP1 POP PUSH1 0x2 PUSH1 0x0 CALLER PUSH20 0xFFFFFFFFFFFFFFFFFFFFFFFFFFFFFFFFFFFFFFFF AND PUSH20 0xFFFFFFFFFFFFFFFFFFFFFFFFFFFFFFFFFFFFFFFF AND DUP2 MSTORE PUSH1 0x20 ADD SWAP1 DUP2 MSTORE PUSH1 0x20 ADD PUSH1 0x0 KECCAK256 PUSH1 0x0 DUP3 DUP2 MSTORE PUSH1 0x20 ADD SWAP1 DUP2 MSTORE PUSH1 0x20 ADD PUSH1 0x0 KECCAK256 PUSH1 0x0 SWAP1 SLOAD SWAP1 PUSH2 0x100 EXP SWAP1 DIV PUSH1 0xFF AND PUSH2 0x10F6 JUMPI PUSH1 0x1 PUSH1 0x2 PUSH1 0x0 CALLER PUSH20 0xFFFFFFFFFFFFFFFFFFFFFFFFFFFFFFFFFFFFFFFF AND PUSH20 0xFFFFFFFFFFFFFFFFFFFFFFFFFFFFFFFFFFFFFFFF AND DUP2 MSTORE PUSH1 0x20 ADD SWAP1 DUP2 MSTORE PUSH1 0x20 ADD PUSH1 0x0 KECCAK256 PUSH1 0x0 DUP4 DUP2 MSTORE PUSH1 0x20 ADD SWAP1 DUP2 MSTORE PUSH1 0x20 ADD PUSH1 0x0 KECCAK256 PUSH1 0x0 PUSH2 0x100 EXP DUP2 SLOAD DUP2 PUSH1 0xFF MUL NOT AND SWAP1 DUP4 ISZERO ISZERO MUL OR SWAP1 SSTORE POP CALLER PUSH20 0xFFFFFFFFFFFFFFFFFFFFFFFFFFFFFFFFFFFFFFFF AND PUSH32 0xC78CD494272180E0C224C92CA5BEDD58597E9F5494E17A757B031988D4B6372C DUP3 PUSH1 0x8 PUSH1 0x0 DUP6 DUP2 MSTORE PUSH1 0x20 ADD SWAP1 DUP2 MSTORE PUSH1 0x20 ADD PUSH1 0x0 KECCAK256 PUSH1 0x0 ADD PUSH1 0x40 MLOAD PUSH2 0x1012 SWAP3 SWAP2 SWAP1 PUSH2 0x4425 JUMP JUMPDEST PUSH1 0x40 MLOAD DUP1 SWAP2 SUB SWAP1 LOG2 PUSH1 0x0 PUSH1 0x1 SWAP1 POP PUSH1 0x0 PUSH1 0x1 SWAP1 POP JUMPDEST PUSH1 0x5 DUP2 GT PUSH2 0x10AD JUMPI PUSH1 0x2 PUSH1 0x0 CALLER PUSH20 0xFFFFFFFFFFFFFFFFFFFFFFFFFFFFFFFFFFFFFFFF AND PUSH20 0xFFFFFFFFFFFFFFFFFFFFFFFFFFFFFFFFFFFFFFFF AND DUP2 MSTORE PUSH1 0x20 ADD SWAP1 DUP2 MSTORE PUSH1 0x20 ADD PUSH1 0x0 KECCAK256 PUSH1 0x0 DUP3 DUP2 MSTORE PUSH1 0x20 ADD SWAP1 DUP2 MSTORE PUSH1 0x20 ADD PUSH1 0x0 KECCAK256 PUSH1 0x0 SWAP1 SLOAD SWAP1 PUSH2 0x100 EXP SWAP1 DIV PUSH1 0xFF AND PUSH2 0x109A JUMPI PUSH1 0x0 SWAP2 POP PUSH2 0x10AD JUMP JUMPDEST DUP1 DUP1 PUSH2 0x10A5 SWAP1 PUSH2 0x40BD JUMP JUMPDEST SWAP2 POP POP PUSH2 0x1027 JUMP JUMPDEST POP DUP1 ISZERO PUSH2 0x10F4 JUMPI PUSH2 0x10F3 CALLER PUSH1 0x40 MLOAD DUP1 PUSH1 0x40 ADD PUSH1 0x40 MSTORE DUP1 PUSH1 0x9 DUP2 MSTORE PUSH1 0x20 ADD PUSH32 0x434F4C4C4543544F520000000000000000000000000000000000000000000000 DUP2 MSTORE POP PUSH2 0x30EA JUMP JUMPDEST JUMPDEST POP JUMPDEST POP JUMPDEST PUSH8 0x16345785D8A0000 CALLVALUE GT ISZERO PUSH2 0x1163 JUMPI CALLER PUSH20 0xFFFFFFFFFFFFFFFFFFFFFFFFFFFFFFFFFFFFFFFF AND PUSH2 0x8FC PUSH8 0x16345785D8A0000 CALLVALUE PUSH2 0x1136 SWAP2 SWAP1 PUSH2 0x422C JUMP JUMPDEST SWAP1 DUP2 ISZERO MUL SWAP1 PUSH1 0x40 MLOAD PUSH1 0x0 PUSH1 0x40 MLOAD DUP1 DUP4 SUB DUP2 DUP6 DUP9 DUP9 CALL SWAP4 POP POP POP POP ISZERO DUP1 ISZERO PUSH2 0x1161 JUMPI RETURNDATASIZE PUSH1 0x0 DUP1 RETURNDATACOPY RETURNDATASIZE PUSH1 0x0 REVERT JUMPDEST POP JUMPDEST POP JUMP JUMPDEST PUSH1 0x2 PUSH1 0x20 MSTORE DUP2 PUSH1 0x0 MSTORE PUSH1 0x40 PUSH1 0x0 KECCAK256 PUSH1 0x20 MSTORE DUP1 PUSH1 0x0 MSTORE PUSH1 0x40 PUSH1 0x0 KECCAK256 PUSH1 0x0 SWAP2 POP SWAP2 POP SWAP1 SLOAD SWAP1 PUSH2 0x100 EXP SWAP1 DIV PUSH1 0xFF AND DUP2 JUMP JUMPDEST PUSH7 0x2386F26FC10000 DUP2 JUMP JUMPDEST PUSH1 0x60 PUSH1 0x0 DUP1 PUSH1 0x0 DUP1 PUSH1 0x0 DUP1 PUSH1 0x1 PUSH1 0x0 DUP10 PUSH20 0xFFFFFFFFFFFFFFFFFFFFFFFFFFFFFFFFFFFFFFFF AND PUSH20 0xFFFFFFFFFFFFFFFFFFFFFFFFFFFFFFFFFFFFFFFF AND DUP2 MSTORE PUSH1 0x20 ADD SWAP1 DUP2 MSTORE PUSH1 0x20 ADD PUSH1 0x0 KECCAK256 PUSH1 0x8 ADD PUSH1 0x0 SWAP1 SLOAD SWAP1 PUSH2 0x100 EXP SWAP1 DIV PUSH1 0xFF AND PUSH2 0x123A JUMPI PUSH1 0x40 MLOAD PUSH32 0x8C379A000000000000000000000000000000000000000000000000000000000 DUP2 MSTORE PUSH1 0x4 ADD PUSH2 0x1231 SWAP1 PUSH2 0x42AC JUMP JUMPDEST PUSH1 0x40 MLOAD DUP1 SWAP2 SUB SWAP1 REVERT JUMPDEST PUSH1 0x0 PUSH1 0x1 PUSH1 0x0 DUP11 PUSH20 0xFFFFFFFFFFFFFFFFFFFFFFFFFFFFFFFFFFFFFFFF AND PUSH20 0xFFFFFFFFFFFFFFFFFFFFFFFFFFFFFFFFFFFFFFFF AND DUP2 MSTORE PUSH1 0x20 ADD SWAP1 DUP2 MSTORE PUSH1 0x20 ADD PUSH1 0x0 KECCAK256 PUSH1 0x40 MLOAD DUP1 PUSH2 0x120 ADD PUSH1 0x40 MSTORE SWAP1 DUP2 PUSH1 0x0 DUP3 ADD DUP1 SLOAD PUSH2 0x1297 SWAP1 PUSH2 0x3B38 JUMP JUMPDEST DUP1 PUSH1 0x1F ADD PUSH1 0x20 DUP1 SWAP2 DIV MUL PUSH1 0x20 ADD PUSH1 0x40 MLOAD SWAP1 DUP2 ADD PUSH1 0x40 MSTORE DUP1 SWAP3 SWAP2 SWAP1 DUP2 DUP2 MSTORE PUSH1 0x20 ADD DUP3 DUP1 SLOAD PUSH2 0x12C3 SWAP1 PUSH2 0x3B38 JUMP JUMPDEST DUP1 ISZERO PUSH2 0x1310 JUMPI DUP1 PUSH1 0x1F LT PUSH2 0x12E5 JUMPI PUSH2 0x100 DUP1 DUP4 SLOAD DIV MUL DUP4 MSTORE SWAP2 PUSH1 0x20 ADD SWAP2 PUSH2 0x1310 JUMP JUMPDEST DUP3 ADD SWAP2 SWAP1 PUSH1 0x0 MSTORE PUSH1 0x20 PUSH1 0x0 KECCAK256 SWAP1 JUMPDEST DUP2 SLOAD DUP2 MSTORE SWAP1 PUSH1 0x1 ADD SWAP1 PUSH1 0x20 ADD DUP1 DUP4 GT PUSH2 0x12F3 JUMPI DUP3 SWAP1 SUB PUSH1 0x1F AND DUP3 ADD SWAP2 JUMPDEST POP POP POP POP POP DUP2 MSTORE PUSH1 0x20 ADD PUSH1 0x1 DUP3 ADD SLOAD DUP2 MSTORE PUSH1 0x20 ADD PUSH1 0x2 DUP3 ADD SLOAD DUP2 MSTORE PUSH1 0x20 ADD PUSH1 0x3 DUP3 ADD SLOAD DUP2 MSTORE PUSH1 0x20 ADD PUSH1 0x4 DUP3 ADD SLOAD DUP2 MSTORE PUSH1 0x20 ADD PUSH1 0x5 DUP3 ADD SLOAD DUP2 MSTORE PUSH1 0x20 ADD PUSH1 0x6 DUP3 ADD SLOAD DUP2 MSTORE PUSH1 0x20 ADD PUSH1 0x7 DUP3 ADD SLOAD DUP2 MSTORE PUSH1 0x20 ADD PUSH1 0x8 DUP3 ADD PUSH1 0x0 SWAP1 SLOAD SWAP1 PUSH2 0x100 EXP SWAP1 DIV PUSH1 0xFF AND ISZERO ISZERO ISZERO ISZERO DUP2 MSTORE POP POP SWAP1 POP DUP1 PUSH1 0x0 ADD MLOAD DUP2 PUSH1 0x20 ADD MLOAD DUP3 PUSH1 0x40 ADD MLOAD DUP4 PUSH1 0x60 ADD MLOAD DUP5 PUSH1 0x80 ADD MLOAD DUP6 PUSH1 0xA0 ADD MLOAD DUP7 PUSH1 0xC0 ADD MLOAD SWAP8 POP SWAP8 POP SWAP8 POP SWAP8 POP SWAP8 POP SWAP8 POP SWAP8 POP POP SWAP2 SWAP4 SWAP6 SWAP8 SWAP1 SWAP3 SWAP5 SWAP7 POP JUMP JUMPDEST PUSH1 0x0 DUP1 PUSH1 0x0 DUP1 PUSH1 0x0 PUSH1 0x3 PUSH1 0x0 DUP8 PUSH20 0xFFFFFFFFFFFFFFFFFFFFFFFFFFFFFFFFFFFFFFFF AND PUSH20 0xFFFFFFFFFFFFFFFFFFFFFFFFFFFFFFFFFFFFFFFF AND DUP2 MSTORE PUSH1 0x20 ADD SWAP1 DUP2 MSTORE PUSH1 0x20 ADD PUSH1 0x0 KECCAK256 PUSH1 0x40 MLOAD PUSH2 0x140C SWAP1 PUSH2 0x44AC JUMP JUMPDEST SWAP1 DUP2 MSTORE PUSH1 0x20 ADD PUSH1 0x40 MLOAD DUP1 SWAP2 SUB SWAP1 KECCAK256 PUSH1 0x0 SWAP1 SLOAD SWAP1 PUSH2 0x100 EXP SWAP1 DIV PUSH1 0xFF AND PUSH1 0x3 PUSH1 0x0 DUP9 PUSH20 0xFFFFFFFFFFFFFFFFFFFFFFFFFFFFFFFFFFFFFFFF AND PUSH20 0xFFFFFFFFFFFFFFFFFFFFFFFFFFFFFFFFFFFFFFFF AND DUP2 MSTORE PUSH1 0x20 ADD SWAP1 DUP2 MSTORE PUSH1 0x20 ADD PUSH1 0x0 KECCAK256 PUSH1 0x40 MLOAD PUSH2 0x1473 SWAP1 PUSH2 0x450D JUMP JUMPDEST SWAP1 DUP2 MSTORE PUSH1 0x20 ADD PUSH1 0x40 MLOAD DUP1 SWAP2 SUB SWAP1 KECCAK256 PUSH1 0x0 SWAP1 SLOAD SWAP1 PUSH2 0x100 EXP SWAP1 DIV PUSH1 0xFF AND PUSH1 0x3 PUSH1 0x0 DUP10 PUSH20 0xFFFFFFFFFFFFFFFFFFFFFFFFFFFFFFFFFFFFFFFF AND PUSH20 0xFFFFFFFFFFFFFFFFFFFFFFFFFFFFFFFFFFFFFFFF AND DUP2 MSTORE PUSH1 0x20 ADD SWAP1 DUP2 MSTORE PUSH1 0x20 ADD PUSH1 0x0 KECCAK256 PUSH1 0x40 MLOAD PUSH2 0x14DA SWAP1 PUSH2 0x456E JUMP JUMPDEST SWAP1 DUP2 MSTORE PUSH1 0x20 ADD PUSH1 0x40 MLOAD DUP1 SWAP2 SUB SWAP1 KECCAK256 PUSH1 0x0 SWAP1 SLOAD SWAP1 PUSH2 0x100 EXP SWAP1 DIV PUSH1 0xFF AND PUSH1 0x3 PUSH1 0x0 DUP11 PUSH20 0xFFFFFFFFFFFFFFFFFFFFFFFFFFFFFFFFFFFFFFFF AND PUSH20 0xFFFFFFFFFFFFFFFFFFFFFFFFFFFFFFFFFFFFFFFF AND DUP2 MSTORE PUSH1 0x20 ADD SWAP1 DUP2 MSTORE PUSH1 0x20 ADD PUSH1 0x0 KECCAK256 PUSH1 0x40 MLOAD PUSH2 0x1541 SWAP1 PUSH2 0x45CF JUMP JUMPDEST SWAP1 DUP2 MSTORE PUSH1 0x20 ADD PUSH1 0x40 MLOAD DUP1 SWAP2 SUB SWAP1 KECCAK256 PUSH1 0x0 SWAP1 SLOAD SWAP1 PUSH2 0x100 EXP SWAP1 DIV PUSH1 0xFF AND PUSH1 0x3 PUSH1 0x0 DUP12 PUSH20 0xFFFFFFFFFFFFFFFFFFFFFFFFFFFFFFFFFFFFFFFF AND PUSH20 0xFFFFFFFFFFFFFFFFFFFFFFFFFFFFFFFFFFFFFFFF AND DUP2 MSTORE PUSH1 0x20 ADD SWAP1 DUP2 MSTORE PUSH1 0x20 ADD PUSH1 0x0 KECCAK256 PUSH1 0x40 MLOAD PUSH2 0x15A8 SWAP1 PUSH2 0x4630 JUMP JUMPDEST SWAP1 DUP2 MSTORE PUSH1 0x20 ADD PUSH1 0x40 MLOAD DUP1 SWAP2 SUB SWAP1 KECCAK256 PUSH1 0x0 SWAP1 SLOAD SWAP1 PUSH2 0x100 EXP SWAP1 DIV PUSH1 0xFF AND SWAP5 POP SWAP5 POP SWAP5 POP SWAP5 POP SWAP5 POP SWAP2 SWAP4 SWAP6 SWAP1 SWAP3 SWAP5 POP JUMP JUMPDEST PUSH8 0x429D069189E0000 DUP2 JUMP JUMPDEST PUSH1 0x3 PUSH1 0x20 MSTORE DUP2 PUSH1 0x0 MSTORE PUSH1 0x40 PUSH1 0x0 KECCAK256 DUP2 DUP1 MLOAD PUSH1 0x20 DUP2 ADD DUP3 ADD DUP1 MLOAD DUP5 DUP3 MSTORE PUSH1 0x20 DUP4 ADD PUSH1 0x20 DUP6 ADD KECCAK256 DUP2 DUP4 MSTORE DUP1 SWAP6 POP POP POP POP POP POP PUSH1 0x0 SWAP2 POP SWAP2 POP SWAP1 SLOAD SWAP1 PUSH2 0x100 EXP SWAP1 DIV PUSH1 0xFF AND DUP2 JUMP JUMPDEST PUSH7 0x470DE4DF820000 DUP2 JUMP JUMPDEST PUSH1 0x1 PUSH1 0x20 MSTORE DUP1 PUSH1 0x0 MSTORE PUSH1 0x40 PUSH1 0x0 KECCAK256 PUSH1 0x0 SWAP2 POP SWAP1 POP DUP1 PUSH1 0x0 ADD DUP1 SLOAD PUSH2 0x1656 SWAP1 PUSH2 0x3B38 JUMP JUMPDEST DUP1 PUSH1 0x1F ADD PUSH1 0x20 DUP1 SWAP2 DIV MUL PUSH1 0x20 ADD PUSH1 0x40 MLOAD SWAP1 DUP2 ADD PUSH1 0x40 MSTORE DUP1 SWAP3 SWAP2 SWAP1 DUP2 DUP2 MSTORE PUSH1 0x20 ADD DUP3 DUP1 SLOAD PUSH2 0x1682 SWAP1 PUSH2 0x3B38 JUMP JUMPDEST DUP1 ISZERO PUSH2 0x16CF JUMPI DUP1 PUSH1 0x1F LT PUSH2 0x16A4 JUMPI PUSH2 0x100 DUP1 DUP4 SLOAD DIV MUL DUP4 MSTORE SWAP2 PUSH1 0x20 ADD SWAP2 PUSH2 0x16CF JUMP JUMPDEST DUP3 ADD SWAP2 SWAP1 PUSH1 0x0 MSTORE PUSH1 0x20 PUSH1 0x0 KECCAK256 SWAP1 JUMPDEST DUP2 SLOAD DUP2 MSTORE SWAP1 PUSH1 0x1 ADD SWAP1 PUSH1 0x20 ADD DUP1 DUP4 GT PUSH2 0x16B2 JUMPI DUP3 SWAP1 SUB PUSH1 0x1F AND DUP3 ADD SWAP2 JUMPDEST POP POP POP POP POP SWAP1 DUP1 PUSH1 0x1 ADD SLOAD SWAP1 DUP1 PUSH1 0x2 ADD SLOAD SWAP1 DUP1 PUSH1 0x3 ADD SLOAD SWAP1 DUP1 PUSH1 0x4 ADD SLOAD SWAP1 DUP1 PUSH1 0x5 ADD SLOAD SWAP1 DUP1 PUSH1 0x6 ADD SLOAD SWAP1 DUP1 PUSH1 0x7 ADD SLOAD SWAP1 DUP1 PUSH1 0x8 ADD PUSH1 0x0 SWAP1 SLOAD SWAP1 PUSH2 0x100 EXP SWAP1 DIV PUSH1 0xFF AND SWAP1 POP DUP10 JUMP JUMPDEST PUSH1 0x7 PUSH1 0x20 MSTORE DUP1 PUSH1 0x0 MSTORE PUSH1 0x40 PUSH1 0x0 KECCAK256 PUSH1 0x0 SWAP2 POP SWAP1 POP SLOAD DUP2 JUMP JUMPDEST PUSH1 0x6 DUP2 DUP2 SLOAD DUP2 LT PUSH2 0x173E JUMPI PUSH1 0x0 DUP1 REVERT JUMPDEST SWAP1 PUSH1 0x0 MSTORE PUSH1 0x20 PUSH1 0x0 KECCAK256 ADD PUSH1 0x0 SWAP2 POP SLOAD SWAP1 PUSH2 0x100 EXP SWAP1 DIV PUSH20 0xFFFFFFFFFFFFFFFFFFFFFFFFFFFFFFFFFFFFFFFF AND DUP2 JUMP JUMPDEST PUSH1 0x8 PUSH1 0x20 MSTORE DUP1 PUSH1 0x0 MSTORE PUSH1 0x40 PUSH1 0x0 KECCAK256 PUSH1 0x0 SWAP2 POP SWAP1 POP DUP1 PUSH1 0x0 ADD DUP1 SLOAD PUSH2 0x1790 SWAP1 PUSH2 0x3B38 JUMP JUMPDEST DUP1 PUSH1 0x1F ADD PUSH1 0x20 DUP1 SWAP2 DIV MUL PUSH1 0x20 ADD PUSH1 0x40 MLOAD SWAP1 DUP2 ADD PUSH1 0x40 MSTORE DUP1 SWAP3 SWAP2 SWAP1 DUP2 DUP2 MSTORE PUSH1 0x20 ADD DUP3 DUP1 SLOAD PUSH2 0x17BC SWAP1 PUSH2 0x3B38 JUMP JUMPDEST DUP1 ISZERO PUSH2 0x1809 JUMPI DUP1 PUSH1 0x1F LT PUSH2 0x17DE JUMPI PUSH2 0x100 DUP1 DUP4 SLOAD DIV MUL DUP4 MSTORE SWAP2 PUSH1 0x20 ADD SWAP2 PUSH2 0x1809 JUMP JUMPDEST DUP3 ADD SWAP2 SWAP1 PUSH1 0x0 MSTORE PUSH1 0x20 PUSH1 0x0 KECCAK256 SWAP1 JUMPDEST DUP2 SLOAD DUP2 MSTORE SWAP1 PUSH1 0x1 ADD SWAP1 PUSH1 0x20 ADD DUP1 DUP4 GT PUSH2 0x17EC JUMPI DUP3 SWAP1 SUB PUSH1 0x1F AND DUP3 ADD SWAP2 JUMPDEST POP POP POP POP POP SWAP1 DUP1 PUSH1 0x1 ADD DUP1 SLOAD PUSH2 0x181E SWAP1 PUSH2 0x3B38 JUMP JUMPDEST DUP1 PUSH1 0x1F ADD PUSH1 0x20 DUP1 SWAP2 DIV MUL PUSH1 0x20 ADD PUSH1 0x40 MLOAD SWAP1 DUP2 ADD PUSH1 0x40 MSTORE DUP1 SWAP3 SWAP2 SWAP1 DUP2 DUP2 MSTORE PUSH1 0x20 ADD DUP3 DUP1 SLOAD PUSH2 0x184A SWAP1 PUSH2 0x3B38 JUMP JUMPDEST DUP1 ISZERO PUSH2 0x1897 JUMPI DUP1 PUSH1 0x1F LT PUSH2 0x186C JUMPI PUSH2 0x100 DUP1 DUP4 SLOAD DIV MUL DUP4 MSTORE SWAP2 PUSH1 0x20 ADD SWAP2 PUSH2 0x1897 JUMP JUMPDEST DUP3 ADD SWAP2 SWAP1 PUSH1 0x0 MSTORE PUSH1 0x20 PUSH1 0x0 KECCAK256 SWAP1 JUMPDEST DUP2 SLOAD DUP2 MSTORE SWAP1 PUSH1 0x1 ADD SWAP1 PUSH1 0x20 ADD DUP1 DUP4 GT PUSH2 0x187A JUMPI DUP3 SWAP1 SUB PUSH1 0x1F AND DUP3 ADD SWAP2 JUMPDEST POP POP POP POP POP SWAP1 DUP1 PUSH1 0x2 ADD DUP1 SLOAD PUSH2 0x18AC SWAP1 PUSH2 0x3B38 JUMP JUMPDEST DUP1 PUSH1 0x1F ADD PUSH1 0x20 DUP1 SWAP2 DIV MUL PUSH1 0x20 ADD PUSH1 0x40 MLOAD SWAP1 DUP2 ADD PUSH1 0x40 MSTORE DUP1 SWAP3 SWAP2 SWAP1 DUP2 DUP2 MSTORE PUSH1 0x20 ADD DUP3 DUP1 SLOAD PUSH2 0x18D8 SWAP1 PUSH2 0x3B38 JUMP JUMPDEST DUP1 ISZERO PUSH2 0x1925 JUMPI DUP1 PUSH1 0x1F LT PUSH2 0x18FA JUMPI PUSH2 0x100 DUP1 DUP4 SLOAD DIV MUL DUP4 MSTORE SWAP2 PUSH1 0x20 ADD SWAP2 PUSH2 0x1925 JUMP JUMPDEST DUP3 ADD SWAP2 SWAP1 PUSH1 0x0 MSTORE PUSH1 0x20 PUSH1 0x0 KECCAK256 SWAP1 JUMPDEST DUP2 SLOAD DUP2 MSTORE SWAP1 PUSH1 0x1 ADD SWAP1 PUSH1 0x20 ADD DUP1 DUP4 GT PUSH2 0x1908 JUMPI DUP3 SWAP1 SUB PUSH1 0x1F AND DUP3 ADD SWAP2 JUMPDEST POP POP POP POP POP SWAP1 DUP1 PUSH1 0x3 ADD SLOAD SWAP1 DUP1 PUSH1 0x4 ADD SLOAD SWAP1 DUP1 PUSH1 0x5 ADD SLOAD SWAP1 DUP1 PUSH1 0x6 ADD PUSH1 0x0 SWAP1 SLOAD SWAP1 PUSH2 0x100 EXP SWAP1 DIV PUSH1 0xFF AND SWAP1 POP DUP8 JUMP JUMPDEST PUSH1 0x60 DUP1 PUSH1 0x60 PUSH1 0x0 DUP1 PUSH1 0x0 DUP1 PUSH1 0x0 DUP9 GT DUP1 ISZERO PUSH2 0x1970 JUMPI POP PUSH1 0x5 DUP9 GT ISZERO JUMPDEST PUSH2 0x19AF JUMPI PUSH1 0x40 MLOAD PUSH32 0x8C379A000000000000000000000000000000000000000000000000000000000 DUP2 MSTORE PUSH1 0x4 ADD PUSH2 0x19A6 SWAP1 PUSH2 0x4691 JUMP JUMPDEST PUSH1 0x40 MLOAD DUP1 SWAP2 SUB SWAP1 REVERT JUMPDEST PUSH1 0x0 PUSH1 0x8 PUSH1 0x0 DUP11 DUP2 MSTORE PUSH1 0x20 ADD SWAP1 DUP2 MSTORE PUSH1 0x20 ADD PUSH1 0x0 KECCAK256 PUSH1 0x40 MLOAD DUP1 PUSH1 0xE0 ADD PUSH1 0x40 MSTORE SWAP1 DUP2 PUSH1 0x0 DUP3 ADD DUP1 SLOAD PUSH2 0x19DF SWAP1 PUSH2 0x3B38 JUMP JUMPDEST DUP1 PUSH1 0x1F ADD PUSH1 0x20 DUP1 SWAP2 DIV MUL PUSH1 0x20 ADD PUSH1 0x40 MLOAD SWAP1 DUP2 ADD PUSH1 0x40 MSTORE DUP1 SWAP3 SWAP2 SWAP1 DUP2 DUP2 MSTORE PUSH1 0x20 ADD DUP3 DUP1 SLOAD PUSH2 0x1A0B SWAP1 PUSH2 0x3B38 JUMP JUMPDEST DUP1 ISZERO PUSH2 0x1A58 JUMPI DUP1 PUSH1 0x1F LT PUSH2 0x1A2D JUMPI PUSH2 0x100 DUP1 DUP4 SLOAD DIV MUL DUP4 MSTORE SWAP2 PUSH1 0x20 ADD SWAP2 PUSH2 0x1A58 JUMP JUMPDEST DUP3 ADD SWAP2 SWAP1 PUSH1 0x0 MSTORE PUSH1 0x20 PUSH1 0x0 KECCAK256 SWAP1 JUMPDEST DUP2 SLOAD DUP2 MSTORE SWAP1 PUSH1 0x1 ADD SWAP1 PUSH1 0x20 ADD DUP1 DUP4 GT PUSH2 0x1A3B JUMPI DUP3 SWAP1 SUB PUSH1 0x1F AND DUP3 ADD SWAP2 JUMPDEST POP POP POP POP POP DUP2 MSTORE PUSH1 0x20 ADD PUSH1 0x1 DUP3 ADD DUP1 SLOAD PUSH2 0x1A71 SWAP1 PUSH2 0x3B38 JUMP JUMPDEST DUP1 PUSH1 0x1F ADD PUSH1 0x20 DUP1 SWAP2 DIV MUL PUSH1 0x20 ADD PUSH1 0x40 MLOAD SWAP1 DUP2 ADD PUSH1 0x40 MSTORE DUP1 SWAP3 SWAP2 SWAP1 DUP2 DUP2 MSTORE PUSH1 0x20 ADD DUP3 DUP1 SLOAD PUSH2 0x1A9D SWAP1 PUSH2 0x3B38 JUMP JUMPDEST DUP1 ISZERO PUSH2 0x1AEA JUMPI DUP1 PUSH1 0x1F LT PUSH2 0x1ABF JUMPI PUSH2 0x100 DUP1 DUP4 SLOAD DIV MUL DUP4 MSTORE SWAP2 PUSH1 0x20 ADD SWAP2 PUSH2 0x1AEA JUMP JUMPDEST DUP3 ADD SWAP2 SWAP1 PUSH1 0x0 MSTORE PUSH1 0x20 PUSH1 0x0 KECCAK256 SWAP1 JUMPDEST DUP2 SLOAD DUP2 MSTORE SWAP1 PUSH1 0x1 ADD SWAP1 PUSH1 0x20 ADD DUP1 DUP4 GT PUSH2 0x1ACD JUMPI DUP3 SWAP1 SUB PUSH1 0x1F AND DUP3 ADD SWAP2 JUMPDEST POP POP POP POP POP DUP2 MSTORE PUSH1 0x20 ADD PUSH1 0x2 DUP3 ADD DUP1 SLOAD PUSH2 0x1B03 SWAP1 PUSH2 0x3B38 JUMP JUMPDEST DUP1 PUSH1 0x1F ADD PUSH1 0x20 DUP1 SWAP2 DIV MUL PUSH1 0x20 ADD PUSH1 0x40 MLOAD SWAP1 DUP2 ADD PUSH1 0x40 MSTORE DUP1 SWAP3 SWAP2 SWAP1 DUP2 DUP2 MSTORE PUSH1 0x20 ADD DUP3 DUP1 SLOAD PUSH2 0x1B2F SWAP1 PUSH2 0x3B38 JUMP JUMPDEST DUP1 ISZERO PUSH2 0x1B7C JUMPI DUP1 PUSH1 0x1F LT PUSH2 0x1B51 JUMPI PUSH2 0x100 DUP1 DUP4 SLOAD DIV MUL DUP4 MSTORE SWAP2 PUSH1 0x20 ADD SWAP2 PUSH2 0x1B7C JUMP JUMPDEST DUP3 ADD SWAP2 SWAP1 PUSH1 0x0 MSTORE PUSH1 0x20 PUSH1 0x0 KECCAK256 SWAP1 JUMPDEST DUP2 SLOAD DUP2 MSTORE SWAP1 PUSH1 0x1 ADD SWAP1 PUSH1 0x20 ADD DUP1 DUP4 GT PUSH2 0x1B5F JUMPI DUP3 SWAP1 SUB PUSH1 0x1F AND DUP3 ADD SWAP2 JUMPDEST POP POP POP POP POP DUP2 MSTORE PUSH1 0x20 ADD PUSH1 0x3 DUP3 ADD SLOAD DUP2 MSTORE PUSH1 0x20 ADD PUSH1 0x4 DUP3 ADD SLOAD DUP2 MSTORE PUSH1 0x20 ADD PUSH1 0x5 DUP3 ADD SLOAD DUP2 MSTORE PUSH1 0x20 ADD PUSH1 0x6 DUP3 ADD PUSH1 0x0 SWAP1 SLOAD SWAP1 PUSH2 0x100 EXP SWAP1 DIV PUSH1 0xFF AND ISZERO ISZERO ISZERO ISZERO DUP2 MSTORE POP POP SWAP1 POP DUP1 PUSH1 0x0 ADD MLOAD DUP2 PUSH1 0x20 ADD MLOAD DUP3 PUSH1 0x40 ADD MLOAD DUP4 PUSH1 0x60 ADD MLOAD DUP5 PUSH1 0x80 ADD MLOAD DUP6 PUSH1 0xA0 ADD MLOAD DUP7 PUSH1 0xC0 ADD MLOAD SWAP8 POP SWAP8 POP SWAP8 POP SWAP8 POP SWAP8 POP SWAP8 POP SWAP8 POP POP SWAP2 SWAP4 SWAP6 SWAP8 SWAP1 SWAP3 SWAP5 SWAP7 POP JUMP JUMPDEST PUSH1 0x60 PUSH1 0x6 DUP1 SLOAD DUP1 PUSH1 0x20 MUL PUSH1 0x20 ADD PUSH1 0x40 MLOAD SWAP1 DUP2 ADD PUSH1 0x40 MSTORE DUP1 SWAP3 SWAP2 SWAP1 DUP2 DUP2 MSTORE PUSH1 0x20 ADD DUP3 DUP1 SLOAD DUP1 ISZERO PUSH2 0x1C81 JUMPI PUSH1 0x20 MUL DUP3 ADD SWAP2 SWAP1 PUSH1 0x0 MSTORE PUSH1 0x20 PUSH1 0x0 KECCAK256 SWAP1 JUMPDEST DUP2 PUSH1 0x0 SWAP1 SLOAD SWAP1 PUSH2 0x100 EXP SWAP1 DIV PUSH20 0xFFFFFFFFFFFFFFFFFFFFFFFFFFFFFFFFFFFFFFFF AND PUSH20 0xFFFFFFFFFFFFFFFFFFFFFFFFFFFFFFFFFFFFFFFF AND DUP2 MSTORE PUSH1 0x20 ADD SWAP1 PUSH1 0x1 ADD SWAP1 DUP1 DUP4 GT PUSH2 0x1C37 JUMPI JUMPDEST POP POP POP POP POP SWAP1 POP SWAP1 JUMP JUMPDEST PUSH1 0x1 PUSH1 0x0 CALLER PUSH20 0xFFFFFFFFFFFFFFFFFFFFFFFFFFFFFFFFFFFFFFFF AND PUSH20 0xFFFFFFFFFFFFFFFFFFFFFFFFFFFFFFFFFFFFFFFF AND DUP2 MSTORE PUSH1 0x20 ADD SWAP1 DUP2 MSTORE PUSH1 0x20 ADD PUSH1 0x0 KECCAK256 PUSH1 0x8 ADD PUSH1 0x0 SWAP1 SLOAD SWAP1 PUSH2 0x100 EXP SWAP1 DIV PUSH1 0xFF AND PUSH2 0x1D1A JUMPI PUSH1 0x40 MLOAD PUSH32 0x8C379A000000000000000000000000000000000000000000000000000000000 DUP2 MSTORE PUSH1 0x4 ADD PUSH2 0x1D11 SWAP1 PUSH2 0x42AC JUMP JUMPDEST PUSH1 0x40 MLOAD DUP1 SWAP2 SUB SWAP1 REVERT JUMPDEST PUSH1 0x0 PUSH7 0x470DE4DF820000 DUP3 PUSH2 0x1D2F SWAP2 SWAP1 PUSH2 0x404A JUMP JUMPDEST PUSH7 0x2386F26FC10000 DUP5 PUSH2 0x1D42 SWAP2 SWAP1 PUSH2 0x404A JUMP JUMPDEST PUSH2 0x1D4C SWAP2 SWAP1 PUSH2 0x3EA4 JUMP JUMPDEST SWAP1 POP DUP1 CALLVALUE LT ISZERO PUSH2 0x1D91 JUMPI PUSH1 0x40 MLOAD PUSH32 0x8C379A000000000000000000000000000000000000000000000000000000000 DUP2 MSTORE PUSH1 0x4 ADD PUSH2 0x1D88 SWAP1 PUSH2 0x4318 JUMP JUMPDEST PUSH1 0x40 MLOAD DUP1 SWAP2 SUB SWAP1 REVERT JUMPDEST DUP3 PUSH1 0x1 PUSH1 0x0 CALLER PUSH20 0xFFFFFFFFFFFFFFFFFFFFFFFFFFFFFFFFFFFFFFFF AND PUSH20 0xFFFFFFFFFFFFFFFFFFFFFFFFFFFFFFFFFFFFFFFF AND DUP2 MSTORE PUSH1 0x20 ADD SWAP1 DUP2 MSTORE PUSH1 0x20 ADD PUSH1 0x0 KECCAK256 PUSH1 0x2 ADD PUSH1 0x0 DUP3 DUP3 SLOAD PUSH2 0x1DE3 SWAP2 SWAP1 PUSH2 0x3EA4 JUMP JUMPDEST SWAP3 POP POP DUP2 SWAP1 SSTORE POP DUP2 PUSH1 0x1 PUSH1 0x0 CALLER PUSH20 0xFFFFFFFFFFFFFFFFFFFFFFFFFFFFFFFFFFFFFFFF AND PUSH20 0xFFFFFFFFFFFFFFFFFFFFFFFFFFFFFFFFFFFFFFFF AND DUP2 MSTORE PUSH1 0x20 ADD SWAP1 DUP2 MSTORE PUSH1 0x20 ADD PUSH1 0x0 KECCAK256 PUSH1 0x3 ADD PUSH1 0x0 DUP3 DUP3 SLOAD PUSH2 0x1E3C SWAP2 SWAP1 PUSH2 0x3EA4 JUMP JUMPDEST SWAP3 POP POP DUP2 SWAP1 SSTORE POP CALLER PUSH20 0xFFFFFFFFFFFFFFFFFFFFFFFFFFFFFFFFFFFFFFFF AND PUSH32 0xAF29816CD11119A4C8C0EFF4213407D9EEE90E96234648827025B3DCDA86AF39 DUP5 DUP5 PUSH1 0x40 MLOAD PUSH2 0x1E8B SWAP3 SWAP2 SWAP1 PUSH2 0x46B1 JUMP JUMPDEST PUSH1 0x40 MLOAD DUP1 SWAP2 SUB SWAP1 LOG2 DUP1 CALLVALUE GT ISZERO PUSH2 0x1EEE JUMPI CALLER PUSH20 0xFFFFFFFFFFFFFFFFFFFFFFFFFFFFFFFFFFFFFFFF AND PUSH2 0x8FC DUP3 CALLVALUE PUSH2 0x1EC1 SWAP2 SWAP1 PUSH2 0x422C JUMP JUMPDEST SWAP1 DUP2 ISZERO MUL SWAP1 PUSH1 0x40 MLOAD PUSH1 0x0 PUSH1 0x40 MLOAD DUP1 DUP4 SUB DUP2 DUP6 DUP9 DUP9 CALL SWAP4 POP POP POP POP ISZERO DUP1 ISZERO PUSH2 0x1EEC JUMPI RETURNDATASIZE PUSH1 0x0 DUP1 RETURNDATACOPY RETURNDATASIZE PUSH1 0x0 REVERT JUMPDEST POP JUMPDEST POP POP POP JUMP JUMPDEST PUSH8 0x16345785D8A0000 DUP2 JUMP JUMPDEST PUSH1 0x4 PUSH1 0x20 MSTORE DUP1 PUSH1 0x0 MSTORE PUSH1 0x40 PUSH1 0x0 KECCAK256 PUSH1 0x0 SWAP2 POP SWAP1 POP DUP1 PUSH1 0x0 ADD PUSH1 0x0 SWAP1 SLOAD SWAP1 PUSH2 0x100 EXP SWAP1 DIV PUSH20 0xFFFFFFFFFFFFFFFFFFFFFFFFFFFFFFFFFFFFFFFF AND SWAP1 DUP1 PUSH1 0x1 ADD PUSH1 0x0 SWAP1 SLOAD SWAP1 PUSH2 0x100 EXP SWAP1 DIV PUSH20 0xFFFFFFFFFFFFFFFFFFFFFFFFFFFFFFFFFFFFFFFF AND SWAP1 DUP1 PUSH1 0x2 ADD SLOAD SWAP1 DUP1 PUSH1 0x3 ADD PUSH1 0x0 SWAP1 SLOAD SWAP1 PUSH2 0x100 EXP SWAP1 DIV PUSH1 0xFF AND SWAP1 DUP1 PUSH1 0x4 ADD SLOAD SWAP1 POP DUP6 JUMP JUMPDEST PUSH1 0x1 PUSH1 0x0 CALLER PUSH20 0xFFFFFFFFFFFFFFFFFFFFFFFFFFFFFFFFFFFFFFFF AND PUSH20 0xFFFFFFFFFFFFFFFFFFFFFFFFFFFFFFFFFFFFFFFF AND DUP2 MSTORE PUSH1 0x20 ADD SWAP1 DUP2 MSTORE PUSH1 0x20 ADD PUSH1 0x0 KECCAK256 PUSH1 0x8 ADD PUSH1 0x0 SWAP1 SLOAD SWAP1 PUSH2 0x100 EXP SWAP1 DIV PUSH1 0xFF AND PUSH2 0x2011 JUMPI PUSH1 0x40 MLOAD PUSH32 0x8C379A000000000000000000000000000000000000000000000000000000000 DUP2 MSTORE PUSH1 0x4 ADD PUSH2 0x2008 SWAP1 PUSH2 0x42AC JUMP JUMPDEST PUSH1 0x40 MLOAD DUP1 SWAP2 SUB SWAP1 REVERT JUMPDEST CALLER PUSH20 0xFFFFFFFFFFFFFFFFFFFFFFFFFFFFFFFFFFFFFFFF AND DUP2 PUSH20 0xFFFFFFFFFFFFFFFFFFFFFFFFFFFFFFFFFFFFFFFF AND SUB PUSH2 0x207F JUMPI PUSH1 0x40 MLOAD PUSH32 0x8C379A000000000000000000000000000000000000000000000000000000000 DUP2 MSTORE PUSH1 0x4 ADD PUSH2 0x2076 SWAP1 PUSH2 0x4726 JUMP JUMPDEST PUSH1 0x40 MLOAD DUP1 SWAP2 SUB SWAP1 REVERT JUMPDEST PUSH1 0x1 PUSH1 0x0 DUP3 PUSH20 0xFFFFFFFFFFFFFFFFFFFFFFFFFFFFFFFFFFFFFFFF AND PUSH20 0xFFFFFFFFFFFFFFFFFFFFFFFFFFFFFFFFFFFFFFFF AND DUP2 MSTORE PUSH1 0x20 ADD SWAP1 DUP2 MSTORE PUSH1 0x20 ADD PUSH1 0x0 KECCAK256 PUSH1 0x8 ADD PUSH1 0x0 SWAP1 SLOAD SWAP1 PUSH2 0x100 EXP SWAP1 DIV PUSH1 0xFF AND PUSH2 0x210E JUMPI PUSH1 0x40 MLOAD PUSH32 0x8C379A000000000000000000000000000000000000000000000000000000000 DUP2 MSTORE PUSH1 0x4 ADD PUSH2 0x2105 SWAP1 PUSH2 0x47B8 JUMP JUMPDEST PUSH1 0x40 MLOAD DUP1 SWAP2 SUB SWAP1 REVERT JUMPDEST PUSH1 0x0 PUSH1 0x1 PUSH1 0x0 CALLER PUSH20 0xFFFFFFFFFFFFFFFFFFFFFFFFFFFFFFFFFFFFFFFF AND PUSH20 0xFFFFFFFFFFFFFFFFFFFFFFFFFFFFFFFFFFFFFFFF AND DUP2 MSTORE PUSH1 0x20 ADD SWAP1 DUP2 MSTORE PUSH1 0x20 ADD PUSH1 0x0 KECCAK256 PUSH1 0x2 ADD SLOAD GT DUP1 PUSH2 0x21A1 JUMPI POP PUSH1 0x0 PUSH1 0x1 PUSH1 0x0 CALLER PUSH20 0xFFFFFFFFFFFFFFFFFFFFFFFFFFFFFFFFFFFFFFFF AND PUSH20 0xFFFFFFFFFFFFFFFFFFFFFFFFFFFFFFFFFFFFFFFF AND DUP2 MSTORE PUSH1 0x20 ADD SWAP1 DUP2 MSTORE PUSH1 0x20 ADD PUSH1 0x0 KECCAK256 PUSH1 0x3 ADD SLOAD GT JUMPDEST PUSH2 0x21E0 JUMPI PUSH1 0x40 MLOAD PUSH32 0x8C379A000000000000000000000000000000000000000000000000000000000 DUP2 MSTORE PUSH1 0x4 ADD PUSH2 0x21D7 SWAP1 PUSH2 0x4824 JUMP JUMPDEST PUSH1 0x40 MLOAD DUP1 SWAP2 SUB SWAP1 REVERT JUMPDEST PUSH1 0x0 PUSH2 0x21EC PUSH1 0x5 PUSH2 0x321E JUMP JUMPDEST SWAP1 POP PUSH2 0x21F8 PUSH1 0x5 PUSH2 0x322C JUMP JUMPDEST PUSH1 0x0 PUSH2 0x2204 CALLER DUP5 PUSH2 0x3242 JUMP JUMPDEST SWAP1 POP PUSH1 0x40 MLOAD DUP1 PUSH1 0xA0 ADD PUSH1 0x40 MSTORE DUP1 CALLER PUSH20 0xFFFFFFFFFFFFFFFFFFFFFFFFFFFFFFFFFFFFFFFF AND DUP2 MSTORE PUSH1 0x20 ADD DUP5 PUSH20 0xFFFFFFFFFFFFFFFFFFFFFFFFFFFFFFFFFFFFFFFF AND DUP2 MSTORE PUSH1 0x20 ADD TIMESTAMP DUP2 MSTORE PUSH1 0x20 ADD PUSH1 0x0 ISZERO ISZERO DUP2 MSTORE PUSH1 0x20 ADD DUP3 DUP2 MSTORE POP PUSH1 0x4 PUSH1 0x0 DUP5 DUP2 MSTORE PUSH1 0x20 ADD SWAP1 DUP2 MSTORE PUSH1 0x20 ADD PUSH1 0x0 KECCAK256 PUSH1 0x0 DUP3 ADD MLOAD DUP2 PUSH1 0x0 ADD PUSH1 0x0 PUSH2 0x100 EXP DUP2 SLOAD DUP2 PUSH20 0xFFFFFFFFFFFFFFFFFFFFFFFFFFFFFFFFFFFFFFFF MUL NOT AND SWAP1 DUP4 PUSH20 0xFFFFFFFFFFFFFFFFFFFFFFFFFFFFFFFFFFFFFFFF AND MUL OR SWAP1 SSTORE POP PUSH1 0x20 DUP3 ADD MLOAD DUP2 PUSH1 0x1 ADD PUSH1 0x0 PUSH2 0x100 EXP DUP2 SLOAD DUP2 PUSH20 0xFFFFFFFFFFFFFFFFFFFFFFFFFFFFFFFFFFFFFFFF MUL NOT AND SWAP1 DUP4 PUSH20 0xFFFFFFFFFFFFFFFFFFFFFFFFFFFFFFFFFFFFFFFF AND MUL OR SWAP1 SSTORE POP PUSH1 0x40 DUP3 ADD MLOAD DUP2 PUSH1 0x2 ADD SSTORE PUSH1 0x60 DUP3 ADD MLOAD DUP2 PUSH1 0x3 ADD PUSH1 0x0 PUSH2 0x100 EXP DUP2 SLOAD DUP2 PUSH1 0xFF MUL NOT AND SWAP1 DUP4 ISZERO ISZERO MUL OR SWAP1 SSTORE POP PUSH1 0x80 DUP3 ADD MLOAD DUP2 PUSH1 0x4 ADD SSTORE SWAP1 POP POP PUSH32 0x44BBD1153F1B36A3354F2AF50E8F8CEB7B4C95E46240E7547A0F73C322380D21 DUP3 CALLER DUP6 DUP5 PUSH1 0x40 MLOAD PUSH2 0x2369 SWAP5 SWAP4 SWAP3 SWAP2 SWAP1 PUSH2 0x4844 JUMP JUMPDEST PUSH1 0x40 MLOAD DUP1 SWAP2 SUB SWAP1 LOG1 POP POP POP JUMP JUMPDEST PUSH1 0x0 DUP1 PUSH1 0xA PUSH1 0x1 PUSH1 0x0 DUP6 PUSH20 0xFFFFFFFFFFFFFFFFFFFFFFFFFFFFFFFFFFFFFFFF AND PUSH20 0xFFFFFFFFFFFFFFFFFFFFFFFFFFFFFFFFFFFFFFFF AND DUP2 MSTORE PUSH1 0x20 ADD SWAP1 DUP2 MSTORE PUSH1 0x20 ADD PUSH1 0x0 KECCAK256 PUSH1 0x2 ADD SLOAD PUSH2 0x23C8 SWAP2 SWAP1 PUSH2 0x404A JUMP JUMPDEST SWAP1 POP PUSH1 0x0 PUSH1 0x14 PUSH1 0x1 PUSH1 0x0 DUP7 PUSH20 0xFFFFFFFFFFFFFFFFFFFFFFFFFFFFFFFFFFFFFFFF AND PUSH20 0xFFFFFFFFFFFFFFFFFFFFFFFFFFFFFFFFFFFFFFFF AND DUP2 MSTORE PUSH1 0x20 ADD SWAP1 DUP2 MSTORE PUSH1 0x20 ADD PUSH1 0x0 KECCAK256 PUSH1 0x3 ADD SLOAD PUSH2 0x241B SWAP2 SWAP1 PUSH2 0x404A JUMP JUMPDEST SWAP1 POP PUSH1 0x0 DUP2 DUP4 PUSH2 0x242B SWAP2 SWAP1 PUSH2 0x3EA4 JUMP JUMPDEST SWAP1 POP PUSH1 0x0 PUSH1 0x1 SWAP1 POP JUMPDEST PUSH1 0x5 DUP2 GT PUSH2 0x271A JUMPI PUSH1 0x2 PUSH1 0x0 DUP8 PUSH20 0xFFFFFFFFFFFFFFFFFFFFFFFFFFFFFFFFFFFFFFFF AND PUSH20 0xFFFFFFFFFFFFFFFFFFFFFFFFFFFFFFFFFFFFFFFF AND DUP2 MSTORE PUSH1 0x20 ADD SWAP1 DUP2 MSTORE PUSH1 0x20 ADD PUSH1 0x0 KECCAK256 PUSH1 0x0 DUP3 DUP2 MSTORE PUSH1 0x20 ADD SWAP1 DUP2 MSTORE PUSH1 0x20 ADD PUSH1 0x0 KECCAK256 PUSH1 0x0 SWAP1 SLOAD SWAP1 PUSH2 0x100 EXP SWAP1 DIV PUSH1 0xFF AND ISZERO PUSH2 0x2707 JUMPI PUSH1 0x0 PUSH1 0x8 PUSH1 0x0 DUP4 DUP2 MSTORE PUSH1 0x20 ADD SWAP1 DUP2 MSTORE PUSH1 0x20 ADD PUSH1 0x0 KECCAK256 PUSH1 0x40 MLOAD DUP1 PUSH1 0xE0 ADD PUSH1 0x40 MSTORE SWAP1 DUP2 PUSH1 0x0 DUP3 ADD DUP1 SLOAD PUSH2 0x24CF SWAP1 PUSH2 0x3B38 JUMP JUMPDEST DUP1 PUSH1 0x1F ADD PUSH1 0x20 DUP1 SWAP2 DIV MUL PUSH1 0x20 ADD PUSH1 0x40 MLOAD SWAP1 DUP2 ADD PUSH1 0x40 MSTORE DUP1 SWAP3 SWAP2 SWAP1 DUP2 DUP2 MSTORE PUSH1 0x20 ADD DUP3 DUP1 SLOAD PUSH2 0x24FB SWAP1 PUSH2 0x3B38 JUMP JUMPDEST DUP1 ISZERO PUSH2 0x2548 JUMPI DUP1 PUSH1 0x1F LT PUSH2 0x251D JUMPI PUSH2 0x100 DUP1 DUP4 SLOAD DIV MUL DUP4 MSTORE SWAP2 PUSH1 0x20 ADD SWAP2 PUSH2 0x2548 JUMP JUMPDEST DUP3 ADD SWAP2 SWAP1 PUSH1 0x0 MSTORE PUSH1 0x20 PUSH1 0x0 KECCAK256 SWAP1 JUMPDEST DUP2 SLOAD DUP2 MSTORE SWAP1 PUSH1 0x1 ADD SWAP1 PUSH1 0x20 ADD DUP1 DUP4 GT PUSH2 0x252B JUMPI DUP3 SWAP1 SUB PUSH1 0x1F AND DUP3 ADD SWAP2 JUMPDEST POP POP POP POP POP DUP2 MSTORE PUSH1 0x20 ADD PUSH1 0x1 DUP3 ADD DUP1 SLOAD PUSH2 0x2561 SWAP1 PUSH2 0x3B38 JUMP JUMPDEST DUP1 PUSH1 0x1F ADD PUSH1 0x20 DUP1 SWAP2 DIV MUL PUSH1 0x20 ADD PUSH1 0x40 MLOAD SWAP1 DUP2 ADD PUSH1 0x40 MSTORE DUP1 SWAP3 SWAP2 SWAP1 DUP2 DUP2 MSTORE PUSH1 0x20 ADD DUP3 DUP1 SLOAD PUSH2 0x258D SWAP1 PUSH2 0x3B38 JUMP JUMPDEST DUP1 ISZERO PUSH2 0x25DA JUMPI DUP1 PUSH1 0x1F LT PUSH2 0x25AF JUMPI PUSH2 0x100 DUP1 DUP4 SLOAD DIV MUL DUP4 MSTORE SWAP2 PUSH1 0x20 ADD SWAP2 PUSH2 0x25DA JUMP JUMPDEST DUP3 ADD SWAP2 SWAP1 PUSH1 0x0 MSTORE PUSH1 0x20 PUSH1 0x0 KECCAK256 SWAP1 JUMPDEST DUP2 SLOAD DUP2 MSTORE SWAP1 PUSH1 0x1 ADD SWAP1 PUSH1 0x20 ADD DUP1 DUP4 GT PUSH2 0x25BD JUMPI DUP3 SWAP1 SUB PUSH1 0x1F AND DUP3 ADD SWAP2 JUMPDEST POP POP POP POP POP DUP2 MSTORE PUSH1 0x20 ADD PUSH1 0x2 DUP3 ADD DUP1 SLOAD PUSH2 0x25F3 SWAP1 PUSH2 0x3B38 JUMP JUMPDEST DUP1 PUSH1 0x1F ADD PUSH1 0x20 DUP1 SWAP2 DIV MUL PUSH1 0x20 ADD PUSH1 0x40 MLOAD SWAP1 DUP2 ADD PUSH1 0x40 MSTORE DUP1 SWAP3 SWAP2 SWAP1 DUP2 DUP2 MSTORE PUSH1 0x20 ADD DUP3 DUP1 SLOAD PUSH2 0x261F SWAP1 PUSH2 0x3B38 JUMP JUMPDEST DUP1 ISZERO PUSH2 0x266C JUMPI DUP1 PUSH1 0x1F LT PUSH2 0x2641 JUMPI PUSH2 0x100 DUP1 DUP4 SLOAD DIV MUL DUP4 MSTORE SWAP2 PUSH1 0x20 ADD SWAP2 PUSH2 0x266C JUMP JUMPDEST DUP3 ADD SWAP2 SWAP1 PUSH1 0x0 MSTORE PUSH1 0x20 PUSH1 0x0 KECCAK256 SWAP1 JUMPDEST DUP2 SLOAD DUP2 MSTORE SWAP1 PUSH1 0x1 ADD SWAP1 PUSH1 0x20 ADD DUP1 DUP4 GT PUSH2 0x264F JUMPI DUP3 SWAP1 SUB PUSH1 0x1F AND DUP3 ADD SWAP2 JUMPDEST POP POP POP POP POP DUP2 MSTORE PUSH1 0x20 ADD PUSH1 0x3 DUP3 ADD SLOAD DUP2 MSTORE PUSH1 0x20 ADD PUSH1 0x4 DUP3 ADD SLOAD DUP2 MSTORE PUSH1 0x20 ADD PUSH1 0x5 DUP3 ADD SLOAD DUP2 MSTORE PUSH1 0x20 ADD PUSH1 0x6 DUP3 ADD PUSH1 0x0 SWAP1 SLOAD SWAP1 PUSH2 0x100 EXP SWAP1 DIV PUSH1 0xFF AND ISZERO ISZERO ISZERO ISZERO DUP2 MSTORE POP POP SWAP1 POP DUP1 PUSH1 0xC0 ADD MLOAD ISZERO PUSH2 0x2705 JUMPI PUSH1 0x64 DUP2 PUSH1 0x80 ADD MLOAD DUP7 PUSH2 0x26CC SWAP2 SWAP1 PUSH2 0x404A JUMP JUMPDEST PUSH2 0x26D6 SWAP2 SWAP1 PUSH2 0x408C JUMP JUMPDEST SWAP5 POP PUSH1 0x64 DUP2 PUSH1 0xA0 ADD MLOAD DUP6 PUSH2 0x26EA SWAP2 SWAP1 PUSH2 0x404A JUMP JUMPDEST PUSH2 0x26F4 SWAP2 SWAP1 PUSH2 0x408C JUMP JUMPDEST SWAP4 POP DUP4 DUP6 PUSH2 0x2702 SWAP2 SWAP1 PUSH2 0x3EA4 JUMP JUMPDEST SWAP3 POP JUMPDEST POP JUMPDEST DUP1 DUP1 PUSH2 0x2712 SWAP1 PUSH2 0x40BD JUMP JUMPDEST SWAP2 POP POP PUSH2 0x2434 JUMP JUMPDEST POP DUP1 SWAP4 POP POP POP POP SWAP2 SWAP1 POP JUMP JUMPDEST PUSH1 0x0 PUSH1 0x64 SWAP1 POP DUP1 PUSH1 0x1 PUSH1 0x0 DUP6 PUSH20 0xFFFFFFFFFFFFFFFFFFFFFFFFFFFFFFFFFFFFFFFF AND PUSH20 0xFFFFFFFFFFFFFFFFFFFFFFFFFFFFFFFFFFFFFFFF AND DUP2 MSTORE PUSH1 0x20 ADD SWAP1 DUP2 MSTORE PUSH1 0x20 ADD PUSH1 0x0 KECCAK256 PUSH1 0x4 ADD PUSH1 0x0 DUP3 DUP3 SLOAD PUSH2 0x277E SWAP2 SWAP1 PUSH2 0x3EA4 JUMP JUMPDEST SWAP3 POP POP DUP2 SWAP1 SSTORE POP PUSH1 0x1 PUSH1 0x0 DUP5 PUSH20 0xFFFFFFFFFFFFFFFFFFFFFFFFFFFFFFFFFFFFFFFF AND PUSH20 0xFFFFFFFFFFFFFFFFFFFFFFFFFFFFFFFFFFFFFFFF AND DUP2 MSTORE PUSH1 0x20 ADD SWAP1 DUP2 MSTORE PUSH1 0x20 ADD PUSH1 0x0 KECCAK256 PUSH1 0x5 ADD PUSH1 0x0 DUP2 SLOAD DUP1 SWAP3 SWAP2 SWAP1 PUSH2 0x27D8 SWAP1 PUSH2 0x40BD JUMP JUMPDEST SWAP2 SWAP1 POP SSTORE POP PUSH1 0x1 PUSH1 0x0 DUP4 PUSH20 0xFFFFFFFFFFFFFFFFFFFFFFFFFFFFFFFFFFFFFFFF AND PUSH20 0xFFFFFFFFFFFFFFFFFFFFFFFFFFFFFFFFFFFFFFFF AND DUP2 MSTORE PUSH1 0x20 ADD SWAP1 DUP2 MSTORE PUSH1 0x20 ADD PUSH1 0x0 KECCAK256 PUSH1 0x6 ADD PUSH1 0x0 DUP2 SLOAD DUP1 SWAP3 SWAP2 SWAP1 PUSH2 0x2830 SWAP1 PUSH2 0x40BD JUMP JUMPDEST SWAP2 SWAP1 POP SSTORE POP PUSH1 0x0 DUP1 PUSH1 0x0 DUP1 PUSH1 0x64 PUSH1 0xF PUSH1 0x1 PUSH1 0x0 DUP11 PUSH20 0xFFFFFFFFFFFFFFFFFFFFFFFFFFFFFFFFFFFFFFFF AND PUSH20 0xFFFFFFFFFFFFFFFFFFFFFFFFFFFFFFFFFFFFFFFF AND DUP2 MSTORE PUSH1 0x20 ADD SWAP1 DUP2 MSTORE PUSH1 0x20 ADD PUSH1 0x0 KECCAK256 PUSH1 0x2 ADD SLOAD PUSH2 0x288C SWAP2 SWAP1 PUSH2 0x404A JUMP JUMPDEST PUSH2 0x2896 SWAP2 SWAP1 PUSH2 0x408C JUMP JUMPDEST SWAP4 POP PUSH1 0x64 PUSH1 0xF PUSH1 0x1 PUSH1 0x0 DUP11 PUSH20 0xFFFFFFFFFFFFFFFFFFFFFFFFFFFFFFFFFFFFFFFF AND PUSH20 0xFFFFFFFFFFFFFFFFFFFFFFFFFFFFFFFFFFFFFFFF AND DUP2 MSTORE PUSH1 0x20 ADD SWAP1 DUP2 MSTORE PUSH1 0x20 ADD PUSH1 0x0 KECCAK256 PUSH1 0x3 ADD SLOAD PUSH2 0x28E9 SWAP2 SWAP1 PUSH2 0x404A JUMP JUMPDEST PUSH2 0x28F3 SWAP2 SWAP1 PUSH2 0x408C JUMP JUMPDEST SWAP3 POP PUSH1 0x64 PUSH1 0x32 PUSH1 0x1 PUSH1 0x0 DUP10 PUSH20 0xFFFFFFFFFFFFFFFFFFFFFFFFFFFFFFFFFFFFFFFF AND PUSH20 0xFFFFFFFFFFFFFFFFFFFFFFFFFFFFFFFFFFFFFFFF AND DUP2 MSTORE PUSH1 0x20 ADD SWAP1 DUP2 MSTORE PUSH1 0x20 ADD PUSH1 0x0 KECCAK256 PUSH1 0x2 ADD SLOAD PUSH2 0x2946 SWAP2 SWAP1 PUSH2 0x404A JUMP JUMPDEST PUSH2 0x2950 SWAP2 SWAP1 PUSH2 0x408C JUMP JUMPDEST SWAP2 POP PUSH1 0x64 PUSH1 0x32 PUSH1 0x1 PUSH1 0x0 DUP10 PUSH20 0xFFFFFFFFFFFFFFFFFFFFFFFFFFFFFFFFFFFFFFFF AND PUSH20 0xFFFFFFFFFFFFFFFFFFFFFFFFFFFFFFFFFFFFFFFF AND DUP2 MSTORE PUSH1 0x20 ADD SWAP1 DUP2 MSTORE PUSH1 0x20 ADD PUSH1 0x0 KECCAK256 PUSH1 0x3 ADD SLOAD PUSH2 0x29A3 SWAP2 SWAP1 PUSH2 0x404A JUMP JUMPDEST PUSH2 0x29AD SWAP2 SWAP1 PUSH2 0x408C JUMP JUMPDEST SWAP1 POP DUP4 PUSH1 0x1 PUSH1 0x0 DUP10 PUSH20 0xFFFFFFFFFFFFFFFFFFFFFFFFFFFFFFFFFFFFFFFF AND PUSH20 0xFFFFFFFFFFFFFFFFFFFFFFFFFFFFFFFFFFFFFFFF AND DUP2 MSTORE PUSH1 0x20 ADD SWAP1 DUP2 MSTORE PUSH1 0x20 ADD PUSH1 0x0 KECCAK256 PUSH1 0x2 ADD SLOAD GT PUSH2 0x29FF JUMPI PUSH1 0x0 PUSH2 0x2A4E JUMP JUMPDEST DUP4 PUSH1 0x1 PUSH1 0x0 DUP10 PUSH20 0xFFFFFFFFFFFFFFFFFFFFFFFFFFFFFFFFFFFFFFFF AND PUSH20 0xFFFFFFFFFFFFFFFFFFFFFFFFFFFFFFFFFFFFFFFF AND DUP2 MSTORE PUSH1 0x20 ADD SWAP1 DUP2 MSTORE PUSH1 0x20 ADD PUSH1 0x0 KECCAK256 PUSH1 0x2 ADD SLOAD PUSH2 0x2A4D SWAP2 SWAP1 PUSH2 0x422C JUMP JUMPDEST JUMPDEST PUSH1 0x1 PUSH1 0x0 DUP10 PUSH20 0xFFFFFFFFFFFFFFFFFFFFFFFFFFFFFFFFFFFFFFFF AND PUSH20 0xFFFFFFFFFFFFFFFFFFFFFFFFFFFFFFFFFFFFFFFF AND DUP2 MSTORE PUSH1 0x20 ADD SWAP1 DUP2 MSTORE PUSH1 0x20 ADD PUSH1 0x0 KECCAK256 PUSH1 0x2 ADD DUP2 SWAP1 SSTORE POP DUP3 PUSH1 0x1 PUSH1 0x0 DUP10 PUSH20 0xFFFFFFFFFFFFFFFFFFFFFFFFFFFFFFFFFFFFFFFF AND PUSH20 0xFFFFFFFFFFFFFFFFFFFFFFFFFFFFFFFFFFFFFFFF AND DUP2 MSTORE PUSH1 0x20 ADD SWAP1 DUP2 MSTORE PUSH1 0x20 ADD PUSH1 0x0 KECCAK256 PUSH1 0x3 ADD SLOAD GT PUSH2 0x2AE4 JUMPI PUSH1 0x0 PUSH2 0x2B33 JUMP JUMPDEST DUP3 PUSH1 0x1 PUSH1 0x0 DUP10 PUSH20 0xFFFFFFFFFFFFFFFFFFFFFFFFFFFFFFFFFFFFFFFF AND PUSH20 0xFFFFFFFFFFFFFFFFFFFFFFFFFFFFFFFFFFFFFFFF AND DUP2 MSTORE PUSH1 0x20 ADD SWAP1 DUP2 MSTORE PUSH1 0x20 ADD PUSH1 0x0 KECCAK256 PUSH1 0x3 ADD SLOAD PUSH2 0x2B32 SWAP2 SWAP1 PUSH2 0x422C JUMP JUMPDEST JUMPDEST PUSH1 0x1 PUSH1 0x0 DUP10 PUSH20 0xFFFFFFFFFFFFFFFFFFFFFFFFFFFFFFFFFFFFFFFF AND PUSH20 0xFFFFFFFFFFFFFFFFFFFFFFFFFFFFFFFFFFFFFFFF AND DUP2 MSTORE PUSH1 0x20 ADD SWAP1 DUP2 MSTORE PUSH1 0x20 ADD PUSH1 0x0 KECCAK256 PUSH1 0x3 ADD DUP2 SWAP1 SSTORE POP DUP2 PUSH1 0x1 PUSH1 0x0 DUP9 PUSH20 0xFFFFFFFFFFFFFFFFFFFFFFFFFFFFFFFFFFFFFFFF AND PUSH20 0xFFFFFFFFFFFFFFFFFFFFFFFFFFFFFFFFFFFFFFFF AND DUP2 MSTORE PUSH1 0x20 ADD SWAP1 DUP2 MSTORE PUSH1 0x20 ADD PUSH1 0x0 KECCAK256 PUSH1 0x2 ADD SLOAD GT PUSH2 0x2BC9 JUMPI PUSH1 0x0 PUSH2 0x2C18 JUMP JUMPDEST DUP2 PUSH1 0x1 PUSH1 0x0 DUP9 PUSH20 0xFFFFFFFFFFFFFFFFFFFFFFFFFFFFFFFFFFFFFFFF AND PUSH20 0xFFFFFFFFFFFFFFFFFFFFFFFFFFFFFFFFFFFFFFFF AND DUP2 MSTORE PUSH1 0x20 ADD SWAP1 DUP2 MSTORE PUSH1 0x20 ADD PUSH1 0x0 KECCAK256 PUSH1 0x2 ADD SLOAD PUSH2 0x2C17 SWAP2 SWAP1 PUSH2 0x422C JUMP JUMPDEST JUMPDEST PUSH1 0x1 PUSH1 0x0 DUP9 PUSH20 0xFFFFFFFFFFFFFFFFFFFFFFFFFFFFFFFFFFFFFFFF AND PUSH20 0xFFFFFFFFFFFFFFFFFFFFFFFFFFFFFFFFFFFFFFFF AND DUP2 MSTORE PUSH1 0x20 ADD SWAP1 DUP2 MSTORE PUSH1 0x20 ADD PUSH1 0x0 KECCAK256 PUSH1 0x2 ADD DUP2 SWAP1 SSTORE POP DUP1 PUSH1 0x1 PUSH1 0x0 DUP9 PUSH20 0xFFFFFFFFFFFFFFFFFFFFFFFFFFFFFFFFFFFFFFFF AND PUSH20 0xFFFFFFFFFFFFFFFFFFFFFFFFFFFFFFFFFFFFFFFF AND DUP2 MSTORE PUSH1 0x20 ADD SWAP1 DUP2 MSTORE PUSH1 0x20 ADD PUSH1 0x0 KECCAK256 PUSH1 0x3 ADD SLOAD GT PUSH2 0x2CAE JUMPI PUSH1 0x0 PUSH2 0x2CFD JUMP JUMPDEST DUP1 PUSH1 0x1 PUSH1 0x0 DUP9 PUSH20 0xFFFFFFFFFFFFFFFFFFFFFFFFFFFFFFFFFFFFFFFF AND PUSH20 0xFFFFFFFFFFFFFFFFFFFFFFFFFFFFFFFFFFFFFFFF AND DUP2 MSTORE PUSH1 0x20 ADD SWAP1 DUP2 MSTORE PUSH1 0x20 ADD PUSH1 0x0 KECCAK256 PUSH1 0x3 ADD SLOAD PUSH2 0x2CFC SWAP2 SWAP1 PUSH2 0x422C JUMP JUMPDEST JUMPDEST PUSH1 0x1 PUSH1 0x0 DUP9 PUSH20 0xFFFFFFFFFFFFFFFFFFFFFFFFFFFFFFFFFFFFFFFF AND PUSH20 0xFFFFFFFFFFFFFFFFFFFFFFFFFFFFFFFFFFFFFFFF AND DUP2 MSTORE PUSH1 0x20 ADD SWAP1 DUP2 MSTORE PUSH1 0x20 ADD PUSH1 0x0 KECCAK256 PUSH1 0x3 ADD DUP2 SWAP1 SSTORE POP JUMPDEST PUSH1 0x64 PUSH1 0x1 PUSH1 0x0 DUP10 PUSH20 0xFFFFFFFFFFFFFFFFFFFFFFFFFFFFFFFFFFFFFFFF AND PUSH20 0xFFFFFFFFFFFFFFFFFFFFFFFFFFFFFFFFFFFFFFFF AND DUP2 MSTORE PUSH1 0x20 ADD SWAP1 DUP2 MSTORE PUSH1 0x20 ADD PUSH1 0x0 KECCAK256 PUSH1 0x1 ADD SLOAD PUSH2 0x2D93 SWAP2 SWAP1 PUSH2 0x404A JUMP JUMPDEST PUSH1 0x1 PUSH1 0x0 DUP10 PUSH20 0xFFFFFFFFFFFFFFFFFFFFFFFFFFFFFFFFFFFFFFFF AND PUSH20 0xFFFFFFFFFFFFFFFFFFFFFFFFFFFFFFFFFFFFFFFF AND DUP2 MSTORE PUSH1 0x20 ADD SWAP1 DUP2 MSTORE PUSH1 0x20 ADD PUSH1 0x0 KECCAK256 PUSH1 0x4 ADD SLOAD LT PUSH2 0x2EDF JUMPI PUSH1 0x64 PUSH1 0x1 PUSH1 0x0 DUP10 PUSH20 0xFFFFFFFFFFFFFFFFFFFFFFFFFFFFFFFFFFFFFFFF AND PUSH20 0xFFFFFFFFFFFFFFFFFFFFFFFFFFFFFFFFFFFFFFFF AND DUP2 MSTORE PUSH1 0x20 ADD SWAP1 DUP2 MSTORE PUSH1 0x20 ADD PUSH1 0x0 KECCAK256 PUSH1 0x1 ADD SLOAD PUSH2 0x2E2A SWAP2 SWAP1 PUSH2 0x404A JUMP JUMPDEST PUSH1 0x1 PUSH1 0x0 DUP10 PUSH20 0xFFFFFFFFFFFFFFFFFFFFFFFFFFFFFFFFFFFFFFFF AND PUSH20 0xFFFFFFFFFFFFFFFFFFFFFFFFFFFFFFFFFFFFFFFF AND DUP2 MSTORE PUSH1 0x20 ADD SWAP1 DUP2 MSTORE PUSH1 0x20 ADD PUSH1 0x0 KECCAK256 PUSH1 0x4 ADD PUSH1 0x0 DUP3 DUP3 SLOAD PUSH2 0x2E7B SWAP2 SWAP1 PUSH2 0x422C JUMP JUMPDEST SWAP3 POP POP DUP2 SWAP1 SSTORE POP PUSH1 0x1 PUSH1 0x0 DUP9 PUSH20 0xFFFFFFFFFFFFFFFFFFFFFFFFFFFFFFFFFFFFFFFF AND PUSH20 0xFFFFFFFFFFFFFFFFFFFFFFFFFFFFFFFFFFFFFFFF AND DUP2 MSTORE PUSH1 0x20 ADD SWAP1 DUP2 MSTORE PUSH1 0x20 ADD PUSH1 0x0 KECCAK256 PUSH1 0x1 ADD PUSH1 0x0 DUP2 SLOAD DUP1 SWAP3 SWAP2 SWAP1 PUSH2 0x2ED5 SWAP1 PUSH2 0x40BD JUMP JUMPDEST SWAP2 SWAP1 POP SSTORE POP PUSH2 0x2D44 JUMP JUMPDEST PUSH1 0x1 DUP1 PUSH1 0x0 DUP10 PUSH20 0xFFFFFFFFFFFFFFFFFFFFFFFFFFFFFFFFFFFFFFFF AND PUSH20 0xFFFFFFFFFFFFFFFFFFFFFFFFFFFFFFFFFFFFFFFF AND DUP2 MSTORE PUSH1 0x20 ADD SWAP1 DUP2 MSTORE PUSH1 0x20 ADD PUSH1 0x0 KECCAK256 PUSH1 0x5 ADD SLOAD SUB PUSH2 0x2F68 JUMPI PUSH2 0x2F67 DUP8 PUSH1 0x40 MLOAD DUP1 PUSH1 0x40 ADD PUSH1 0x40 MSTORE DUP1 PUSH1 0xB DUP2 MSTORE PUSH1 0x20 ADD PUSH32 0x46495253545F424C4F4F44000000000000000000000000000000000000000000 DUP2 MSTORE POP PUSH2 0x30EA JUMP JUMPDEST JUMPDEST PUSH1 0xA PUSH1 0x1 PUSH1 0x0 DUP10 PUSH20 0xFFFFFFFFFFFFFFFFFFFFFFFFFFFFFFFFFFFFFFFF AND PUSH20 0xFFFFFFFFFFFFFFFFFFFFFFFFFFFFFFFFFFFFFFFF AND DUP2 MSTORE PUSH1 0x20 ADD SWAP1 DUP2 MSTORE PUSH1 0x20 ADD PUSH1 0x0 KECCAK256 PUSH1 0x5 ADD SLOAD SUB PUSH2 0x2FF2 JUMPI PUSH2 0x2FF1 DUP8 PUSH1 0x40 MLOAD DUP1 PUSH1 0x40 ADD PUSH1 0x40 MSTORE DUP1 PUSH1 0x7 DUP2 MSTORE PUSH1 0x20 ADD PUSH32 0x5645544552414E00000000000000000000000000000000000000000000000000 DUP2 MSTORE POP PUSH2 0x30EA JUMP JUMPDEST JUMPDEST PUSH1 0x32 PUSH1 0x1 PUSH1 0x0 DUP10 PUSH20 0xFFFFFFFFFFFFFFFFFFFFFFFFFFFFFFFFFFFFFFFF AND PUSH20 0xFFFFFFFFFFFFFFFFFFFFFFFFFFFFFFFFFFFFFFFF AND DUP2 MSTORE PUSH1 0x20 ADD SWAP1 DUP2 MSTORE PUSH1 0x20 ADD PUSH1 0x0 KECCAK256 PUSH1 0x5 ADD SLOAD SUB PUSH2 0x307C JUMPI PUSH2 0x307B DUP8 PUSH1 0x40 MLOAD DUP1 PUSH1 0x40 ADD PUSH1 0x40 MSTORE DUP1 PUSH1 0x7 DUP2 MSTORE PUSH1 0x20 ADD PUSH32 0x5741524C4F524400000000000000000000000000000000000000000000000000 DUP2 MSTORE POP PUSH2 0x30EA JUMP JUMPDEST JUMPDEST DUP6 PUSH20 0xFFFFFFFFFFFFFFFFFFFFFFFFFFFFFFFFFFFFFFFF AND DUP8 PUSH20 0xFFFFFFFFFFFFFFFFFFFFFFFFFFFFFFFFFFFFFFFF AND PUSH32 0x81ED76C4C071D6097731876FC5ABF74D14653D1900D984CE23FE568F23448FA DUP8 PUSH1 0x40 MLOAD PUSH2 0x30D9 SWAP2 SWAP1 PUSH2 0x3590 JUMP JUMPDEST PUSH1 0x40 MLOAD DUP1 SWAP2 SUB SWAP1 LOG3 POP POP POP POP POP POP POP JUMP JUMPDEST PUSH1 0x3 PUSH1 0x0 DUP4 PUSH20 0xFFFFFFFFFFFFFFFFFFFFFFFFFFFFFFFFFFFFFFFF AND PUSH20 0xFFFFFFFFFFFFFFFFFFFFFFFFFFFFFFFFFFFFFFFF AND DUP2 MSTORE PUSH1 0x20 ADD SWAP1 DUP2 MSTORE PUSH1 0x20 ADD PUSH1 0x0 KECCAK256 DUP2 PUSH1 0x40 MLOAD PUSH2 0x3137 SWAP2 SWAP1 PUSH2 0x48BA JUMP JUMPDEST SWAP1 DUP2 MSTORE PUSH1 0x20 ADD PUSH1 0x40 MLOAD DUP1 SWAP2 SUB SWAP1 KECCAK256 PUSH1 0x0 SWAP1 SLOAD SWAP1 PUSH2 0x100 EXP SWAP1 DIV PUSH1 0xFF AND PUSH2 0x321A JUMPI PUSH1 0x1 PUSH1 0x3 PUSH1 0x0 DUP5 PUSH20 0xFFFFFFFFFFFFFFFFFFFFFFFFFFFFFFFFFFFFFFFF AND PUSH20 0xFFFFFFFFFFFFFFFFFFFFFFFFFFFFFFFFFFFFFFFF AND DUP2 MSTORE PUSH1 0x20 ADD SWAP1 DUP2 MSTORE PUSH1 0x20 ADD PUSH1 0x0 KECCAK256 DUP3 PUSH1 0x40 MLOAD PUSH2 0x31A6 SWAP2 SWAP1 PUSH2 0x48BA JUMP JUMPDEST SWAP1 DUP2 MSTORE PUSH1 0x20 ADD PUSH1 0x40 MLOAD DUP1 SWAP2 SUB SWAP1 KECCAK256 PUSH1 0x0 PUSH2 0x100 EXP DUP2 SLOAD DUP2 PUSH1 0xFF MUL NOT AND SWAP1 DUP4 ISZERO ISZERO MUL OR SWAP1 SSTORE POP DUP2 PUSH20 0xFFFFFFFFFFFFFFFFFFFFFFFFFFFFFFFFFFFFFFFF AND PUSH32 0xCA8C9ACCCE1EA9B1E88E76D666C26849F39052A6344521346B739CDD29AD4AE6 DUP3 PUSH1 0x40 MLOAD PUSH2 0x3211 SWAP2 SWAP1 PUSH2 0x3DE7 JUMP JUMPDEST PUSH1 0x40 MLOAD DUP1 SWAP2 SUB SWAP1 LOG2 JUMPDEST POP POP JUMP JUMPDEST PUSH1 0x0 DUP2 PUSH1 0x0 ADD SLOAD SWAP1 POP SWAP2 SWAP1 POP JUMP JUMPDEST PUSH1 0x1 DUP2 PUSH1 0x0 ADD PUSH1 0x0 DUP3 DUP3 SLOAD ADD SWAP3 POP POP DUP2 SWAP1 SSTORE POP POP JUMP JUMPDEST PUSH1 0x0 DUP1 DUP3 PUSH20 0xFFFFFFFFFFFFFFFFFFFFFFFFFFFFFFFFFFFFFFFF AND DUP5 PUSH20 0xFFFFFFFFFFFFFFFFFFFFFFFFFFFFFFFFFFFFFFFF AND XOR SWAP1 POP PUSH1 0x64 DUP2 PUSH2 0x3283 SWAP2 SWAP1 PUSH2 0x4019 JUMP JUMPDEST SWAP1 POP PUSH1 0x1 DUP2 PUSH2 0x3292 SWAP2 SWAP1 PUSH2 0x404A JUMP JUMPDEST PUSH1 0x1E PUSH2 0x329E SWAP2 SWAP1 PUSH2 0x3EA4 JUMP JUMPDEST SWAP2 POP POP SWAP3 SWAP2 POP POP JUMP JUMPDEST PUSH1 0x0 PUSH1 0x40 MLOAD SWAP1 POP SWAP1 JUMP JUMPDEST PUSH1 0x0 DUP1 REVERT JUMPDEST PUSH1 0x0 DUP1 REVERT JUMPDEST PUSH1 0x0 DUP1 REVERT JUMPDEST PUSH1 0x0 DUP1 REVERT JUMPDEST PUSH1 0x0 PUSH1 0x1F NOT PUSH1 0x1F DUP4 ADD AND SWAP1 POP SWAP2 SWAP1 POP JUMP JUMPDEST PUSH32 0x4E487B7100000000000000000000000000000000000000000000000000000000 PUSH1 0x0 MSTORE PUSH1 0x41 PUSH1 0x4 MSTORE PUSH1 0x24 PUSH1 0x0 REVERT JUMPDEST PUSH2 0x330E DUP3 PUSH2 0x32C5 JUMP JUMPDEST DUP2 ADD DUP2 DUP2 LT PUSH8 0xFFFFFFFFFFFFFFFF DUP3 GT OR ISZERO PUSH2 0x332D JUMPI PUSH2 0x332C PUSH2 0x32D6 JUMP JUMPDEST JUMPDEST DUP1 PUSH1 0x40 MSTORE POP POP POP JUMP JUMPDEST PUSH1 0x0 PUSH2 0x3340 PUSH2 0x32A7 JUMP JUMPDEST SWAP1 POP PUSH2 0x334C DUP3 DUP3 PUSH2 0x3305 JUMP JUMPDEST SWAP2 SWAP1 POP JUMP JUMPDEST PUSH1 0x0 PUSH8 0xFFFFFFFFFFFFFFFF DUP3 GT ISZERO PUSH2 0x336C JUMPI PUSH2 0x336B PUSH2 0x32D6 JUMP JUMPDEST JUMPDEST PUSH2 0x3375 DUP3 PUSH2 0x32C5 JUMP JUMPDEST SWAP1 POP PUSH1 0x20 DUP2 ADD SWAP1 POP SWAP2 SWAP1 POP JUMP JUMPDEST DUP3 DUP2 DUP4 CALLDATACOPY PUSH1 0x0 DUP4 DUP4 ADD MSTORE POP POP POP JUMP JUMPDEST PUSH1 0x0 PUSH2 0x33A4 PUSH2 0x339F DUP5 PUSH2 0x3351 JUMP JUMPDEST PUSH2 0x3336 JUMP JUMPDEST SWAP1 POP DUP3 DUP2 MSTORE PUSH1 0x20 DUP2 ADD DUP5 DUP5 DUP5 ADD GT ISZERO PUSH2 0x33C0 JUMPI PUSH2 0x33BF PUSH2 0x32C0 JUMP JUMPDEST JUMPDEST PUSH2 0x33CB DUP5 DUP3 DUP6 PUSH2 0x3382 JUMP JUMPDEST POP SWAP4 SWAP3 POP POP POP JUMP JUMPDEST PUSH1 0x0 DUP3 PUSH1 0x1F DUP4 ADD SLT PUSH2 0x33E8 JUMPI PUSH2 0x33E7 PUSH2 0x32BB JUMP JUMPDEST JUMPDEST DUP2 CALLDATALOAD PUSH2 0x33F8 DUP5 DUP3 PUSH1 0x20 DUP7 ADD PUSH2 0x3391 JUMP JUMPDEST SWAP2 POP POP SWAP3 SWAP2 POP POP JUMP JUMPDEST PUSH1 0x0 PUSH1 0x20 DUP3 DUP5 SUB SLT ISZERO PUSH2 0x3417 JUMPI PUSH2 0x3416 PUSH2 0x32B1 JUMP JUMPDEST JUMPDEST PUSH1 0x0 DUP3 ADD CALLDATALOAD PUSH8 0xFFFFFFFFFFFFFFFF DUP2 GT ISZERO PUSH2 0x3435 JUMPI PUSH2 0x3434 PUSH2 0x32B6 JUMP JUMPDEST JUMPDEST PUSH2 0x3441 DUP5 DUP3 DUP6 ADD PUSH2 0x33D3 JUMP JUMPDEST SWAP2 POP POP SWAP3 SWAP2 POP POP JUMP JUMPDEST PUSH1 0x0 DUP2 SWAP1 POP SWAP2 SWAP1 POP JUMP JUMPDEST PUSH2 0x345D DUP2 PUSH2 0x344A JUMP JUMPDEST DUP2 EQ PUSH2 0x3468 JUMPI PUSH1 0x0 DUP1 REVERT JUMPDEST POP JUMP JUMPDEST PUSH1 0x0 DUP2 CALLDATALOAD SWAP1 POP PUSH2 0x347A DUP2 PUSH2 0x3454 JUMP JUMPDEST SWAP3 SWAP2 POP POP JUMP JUMPDEST PUSH1 0x0 PUSH1 0x20 DUP3 DUP5 SUB SLT ISZERO PUSH2 0x3496 JUMPI PUSH2 0x3495 PUSH2 0x32B1 JUMP JUMPDEST JUMPDEST PUSH1 0x0 PUSH2 0x34A4 DUP5 DUP3 DUP6 ADD PUSH2 0x346B JUMP JUMPDEST SWAP2 POP POP SWAP3 SWAP2 POP POP JUMP JUMPDEST PUSH1 0x0 PUSH20 0xFFFFFFFFFFFFFFFFFFFFFFFFFFFFFFFFFFFFFFFF DUP3 AND SWAP1 POP SWAP2 SWAP1 POP JUMP JUMPDEST PUSH1 0x0 PUSH2 0x34D8 DUP3 PUSH2 0x34AD JUMP JUMPDEST SWAP1 POP SWAP2 SWAP1 POP JUMP JUMPDEST PUSH2 0x34E8 DUP2 PUSH2 0x34CD JUMP JUMPDEST DUP2 EQ PUSH2 0x34F3 JUMPI PUSH1 0x0 DUP1 REVERT JUMPDEST POP JUMP JUMPDEST PUSH1 0x0 DUP2 CALLDATALOAD SWAP1 POP PUSH2 0x3505 DUP2 PUSH2 0x34DF JUMP JUMPDEST SWAP3 SWAP2 POP POP JUMP JUMPDEST PUSH1 0x0 DUP1 PUSH1 0x40 DUP4 DUP6 SUB SLT ISZERO PUSH2 0x3522 JUMPI PUSH2 0x3521 PUSH2 0x32B1 JUMP JUMPDEST JUMPDEST PUSH1 0x0 PUSH2 0x3530 DUP6 DUP3 DUP7 ADD PUSH2 0x34F6 JUMP JUMPDEST SWAP3 POP POP PUSH1 0x20 PUSH2 0x3541 DUP6 DUP3 DUP7 ADD PUSH2 0x346B JUMP JUMPDEST SWAP2 POP POP SWAP3 POP SWAP3 SWAP1 POP JUMP JUMPDEST PUSH1 0x0 DUP2 ISZERO ISZERO SWAP1 POP SWAP2 SWAP1 POP JUMP JUMPDEST PUSH2 0x3560 DUP2 PUSH2 0x354B JUMP JUMPDEST DUP3 MSTORE POP POP JUMP JUMPDEST PUSH1 0x0 PUSH1 0x20 DUP3 ADD SWAP1 POP PUSH2 0x357B PUSH1 0x0 DUP4 ADD DUP5 PUSH2 0x3557 JUMP JUMPDEST SWAP3 SWAP2 POP POP JUMP JUMPDEST PUSH2 0x358A DUP2 PUSH2 0x344A JUMP JUMPDEST DUP3 MSTORE POP POP JUMP JUMPDEST PUSH1 0x0 PUSH1 0x20 DUP3 ADD SWAP1 POP PUSH2 0x35A5 PUSH1 0x0 DUP4 ADD DUP5 PUSH2 0x3581 JUMP JUMPDEST SWAP3 SWAP2 POP POP JUMP JUMPDEST PUSH1 0x0 PUSH1 0x20 DUP3 DUP5 SUB SLT ISZERO PUSH2 0x35C1 JUMPI PUSH2 0x35C0 PUSH2 0x32B1 JUMP JUMPDEST JUMPDEST PUSH1 0x0 PUSH2 0x35CF DUP5 DUP3 DUP6 ADD PUSH2 0x34F6 JUMP JUMPDEST SWAP2 POP POP SWAP3 SWAP2 POP POP JUMP JUMPDEST PUSH1 0x0 DUP2 MLOAD SWAP1 POP SWAP2 SWAP1 POP JUMP JUMPDEST PUSH1 0x0 DUP3 DUP3 MSTORE PUSH1 0x20 DUP3 ADD SWAP1 POP SWAP3 SWAP2 POP POP JUMP JUMPDEST PUSH1 0x0 JUMPDEST DUP4 DUP2 LT ISZERO PUSH2 0x3612 JUMPI DUP1 DUP3 ADD MLOAD DUP2 DUP5 ADD MSTORE PUSH1 0x20 DUP2 ADD SWAP1 POP PUSH2 0x35F7 JUMP JUMPDEST PUSH1 0x0 DUP5 DUP5 ADD MSTORE POP POP POP POP JUMP JUMPDEST PUSH1 0x0 PUSH2 0x3629 DUP3 PUSH2 0x35D8 JUMP JUMPDEST PUSH2 0x3633 DUP2 DUP6 PUSH2 0x35E3 JUMP JUMPDEST SWAP4 POP PUSH2 0x3643 DUP2 DUP6 PUSH1 0x20 DUP7 ADD PUSH2 0x35F4 JUMP JUMPDEST PUSH2 0x364C DUP2 PUSH2 0x32C5 JUMP JUMPDEST DUP5 ADD SWAP2 POP POP SWAP3 SWAP2 POP POP JUMP JUMPDEST PUSH1 0x0 PUSH1 0xE0 DUP3 ADD SWAP1 POP DUP2 DUP2 SUB PUSH1 0x0 DUP4 ADD MSTORE PUSH2 0x3671 DUP2 DUP11 PUSH2 0x361E JUMP JUMPDEST SWAP1 POP PUSH2 0x3680 PUSH1 0x20 DUP4 ADD DUP10 PUSH2 0x3581 JUMP JUMPDEST PUSH2 0x368D PUSH1 0x40 DUP4 ADD DUP9 PUSH2 0x3581 JUMP JUMPDEST PUSH2 0x369A PUSH1 0x60 DUP4 ADD DUP8 PUSH2 0x3581 JUMP JUMPDEST PUSH2 0x36A7 PUSH1 0x80 DUP4 ADD DUP7 PUSH2 0x3581 JUMP JUMPDEST PUSH2 0x36B4 PUSH1 0xA0 DUP4 ADD DUP6 PUSH2 0x3581 JUMP JUMPDEST PUSH2 0x36C1 PUSH1 0xC0 DUP4 ADD DUP5 PUSH2 0x3581 JUMP JUMPDEST SWAP9 SWAP8 POP POP POP POP POP POP POP POP JUMP JUMPDEST PUSH1 0x0 PUSH1 0xA0 DUP3 ADD SWAP1 POP PUSH2 0x36E2 PUSH1 0x0 DUP4 ADD DUP9 PUSH2 0x3557 JUMP JUMPDEST PUSH2 0x36EF PUSH1 0x20 DUP4 ADD DUP8 PUSH2 0x3557 JUMP JUMPDEST PUSH2 0x36FC PUSH1 0x40 DUP4 ADD DUP7 PUSH2 0x3557 JUMP JUMPDEST PUSH2 0x3709 PUSH1 0x60 DUP4 ADD DUP6 PUSH2 0x3557 JUMP JUMPDEST PUSH2 0x3716 PUSH1 0x80 DUP4 ADD DUP5 PUSH2 0x3557 JUMP JUMPDEST SWAP7 SWAP6 POP POP POP POP POP POP JUMP JUMPDEST PUSH1 0x0 DUP1 PUSH1 0x40 DUP4 DUP6 SUB SLT ISZERO PUSH2 0x3737 JUMPI PUSH2 0x3736 PUSH2 0x32B1 JUMP JUMPDEST JUMPDEST PUSH1 0x0 PUSH2 0x3745 DUP6 DUP3 DUP7 ADD PUSH2 0x34F6 JUMP JUMPDEST SWAP3 POP POP PUSH1 0x20 DUP4 ADD CALLDATALOAD PUSH8 0xFFFFFFFFFFFFFFFF DUP2 GT ISZERO PUSH2 0x3766 JUMPI PUSH2 0x3765 PUSH2 0x32B6 JUMP JUMPDEST JUMPDEST PUSH2 0x3772 DUP6 DUP3 DUP7 ADD PUSH2 0x33D3 JUMP JUMPDEST SWAP2 POP POP SWAP3 POP SWAP3 SWAP1 POP JUMP JUMPDEST PUSH1 0x0 PUSH2 0x120 DUP3 ADD SWAP1 POP DUP2 DUP2 SUB PUSH1 0x0 DUP4 ADD MSTORE PUSH2 0x3797 DUP2 DUP13 PUSH2 0x361E JUMP JUMPDEST SWAP1 POP PUSH2 0x37A6 PUSH1 0x20 DUP4 ADD DUP12 PUSH2 0x3581 JUMP JUMPDEST PUSH2 0x37B3 PUSH1 0x40 DUP4 ADD DUP11 PUSH2 0x3581 JUMP JUMPDEST PUSH2 0x37C0 PUSH1 0x60 DUP4 ADD DUP10 PUSH2 0x3581 JUMP JUMPDEST PUSH2 0x37CD PUSH1 0x80 DUP4 ADD DUP9 PUSH2 0x3581 JUMP JUMPDEST PUSH2 0x37DA PUSH1 0xA0 DUP4 ADD DUP8 PUSH2 0x3581 JUMP JUMPDEST PUSH2 0x37E7 PUSH1 0xC0 DUP4 ADD DUP7 PUSH2 0x3581 JUMP JUMPDEST PUSH2 0x37F4 PUSH1 0xE0 DUP4 ADD DUP6 PUSH2 0x3581 JUMP JUMPDEST PUSH2 0x3802 PUSH2 0x100 DUP4 ADD DUP5 PUSH2 0x3557 JUMP JUMPDEST SWAP11 SWAP10 POP POP POP POP POP POP POP POP POP POP JUMP JUMPDEST PUSH2 0x3819 DUP2 PUSH2 0x34CD JUMP JUMPDEST DUP3 MSTORE POP POP JUMP JUMPDEST PUSH1 0x0 PUSH1 0x20 DUP3 ADD SWAP1 POP PUSH2 0x3834 PUSH1 0x0 DUP4 ADD DUP5 PUSH2 0x3810 JUMP JUMPDEST SWAP3 SWAP2 POP POP JUMP JUMPDEST PUSH1 0x0 PUSH1 0xE0 DUP3 ADD SWAP1 POP DUP2 DUP2 SUB PUSH1 0x0 DUP4 ADD MSTORE PUSH2 0x3854 DUP2 DUP11 PUSH2 0x361E JUMP JUMPDEST SWAP1 POP DUP2 DUP2 SUB PUSH1 0x20 DUP4 ADD MSTORE PUSH2 0x3868 DUP2 DUP10 PUSH2 0x361E JUMP JUMPDEST SWAP1 POP DUP2 DUP2 SUB PUSH1 0x40 DUP4 ADD MSTORE PUSH2 0x387C DUP2 DUP9 PUSH2 0x361E JUMP JUMPDEST SWAP1 POP PUSH2 0x388B PUSH1 0x60 DUP4 ADD DUP8 PUSH2 0x3581 JUMP JUMPDEST PUSH2 0x3898 PUSH1 0x80 DUP4 ADD DUP7 PUSH2 0x3581 JUMP JUMPDEST PUSH2 0x38A5 PUSH1 0xA0 DUP4 ADD DUP6 PUSH2 0x3581 JUMP JUMPDEST PUSH2 0x38B2 PUSH1 0xC0 DUP4 ADD DUP5 PUSH2 0x3557 JUMP JUMPDEST SWAP9 SWAP8 POP POP POP POP POP POP POP POP JUMP JUMPDEST PUSH1 0x0 DUP2 MLOAD SWAP1 POP SWAP2 SWAP1 POP JUMP JUMPDEST PUSH1 0x0 DUP3 DUP3 MSTORE PUSH1 0x20 DUP3 ADD SWAP1 POP SWAP3 SWAP2 POP POP JUMP JUMPDEST PUSH1 0x0 DUP2 SWAP1 POP PUSH1 0x20 DUP3 ADD SWAP1 POP SWAP2 SWAP1 POP JUMP JUMPDEST PUSH2 0x38F3 DUP2 PUSH2 0x34CD JUMP JUMPDEST DUP3 MSTORE POP POP JUMP JUMPDEST PUSH1 0x0 PUSH2 0x3905 DUP4 DUP4 PUSH2 0x38EA JUMP JUMPDEST PUSH1 0x20 DUP4 ADD SWAP1 POP SWAP3 SWAP2 POP POP JUMP JUMPDEST PUSH1 0x0 PUSH1 0x20 DUP3 ADD SWAP1 POP SWAP2 SWAP1 POP JUMP JUMPDEST PUSH1 0x0 PUSH2 0x3929 DUP3 PUSH2 0x38BE JUMP JUMPDEST PUSH2 0x3933 DUP2 DUP6 PUSH2 0x38C9 JUMP JUMPDEST SWAP4 POP PUSH2 0x393E DUP4 PUSH2 0x38DA JUMP JUMPDEST DUP1 PUSH1 0x0 JUMPDEST DUP4 DUP2 LT ISZERO PUSH2 0x396F JUMPI DUP2 MLOAD PUSH2 0x3956 DUP9 DUP3 PUSH2 0x38F9 JUMP JUMPDEST SWAP8 POP PUSH2 0x3961 DUP4 PUSH2 0x3911 JUMP JUMPDEST SWAP3 POP POP PUSH1 0x1 DUP2 ADD SWAP1 POP PUSH2 0x3942 JUMP JUMPDEST POP DUP6 SWAP4 POP POP POP POP SWAP3 SWAP2 POP POP JUMP JUMPDEST PUSH1 0x0 PUSH1 0x20 DUP3 ADD SWAP1 POP DUP2 DUP2 SUB PUSH1 0x0 DUP4 ADD MSTORE PUSH2 0x3996 DUP2 DUP5 PUSH2 0x391E JUMP JUMPDEST SWAP1 POP SWAP3 SWAP2 POP POP JUMP JUMPDEST PUSH1 0x0 DUP1 PUSH1 0x40 DUP4 DUP6 SUB SLT ISZERO PUSH2 0x39B5 JUMPI PUSH2 0x39B4 PUSH2 0x32B1 JUMP JUMPDEST JUMPDEST PUSH1 0x0 PUSH2 0x39C3 DUP6 DUP3 DUP7 ADD PUSH2 0x346B JUMP JUMPDEST SWAP3 POP POP PUSH1 0x20 PUSH2 0x39D4 DUP6 DUP3 DUP7 ADD PUSH2 0x346B JUMP JUMPDEST SWAP2 POP POP SWAP3 POP SWAP3 SWAP1 POP JUMP JUMPDEST PUSH1 0x0 PUSH1 0xA0 DUP3 ADD SWAP1 POP PUSH2 0x39F3 PUSH1 0x0 DUP4 ADD DUP9 PUSH2 0x3810 JUMP JUMPDEST PUSH2 0x3A00 PUSH1 0x20 DUP4 ADD DUP8 PUSH2 0x3810 JUMP JUMPDEST PUSH2 0x3A0D PUSH1 0x40 DUP4 ADD DUP7 PUSH2 0x3581 JUMP JUMPDEST PUSH2 0x3A1A PUSH1 0x60 DUP4 ADD DUP6 PUSH2 0x3557 JUMP JUMPDEST PUSH2 0x3A27 PUSH1 0x80 DUP4 ADD DUP5 PUSH2 0x3581 JUMP JUMPDEST SWAP7 SWAP6 POP POP POP POP POP POP JUMP JUMPDEST PUSH32 0x4B68616E61746520616C72656164792065786973747300000000000000000000 PUSH1 0x0 DUP3 ADD MSTORE POP JUMP JUMPDEST PUSH1 0x0 PUSH2 0x3A67 PUSH1 0x16 DUP4 PUSH2 0x35E3 JUMP JUMPDEST SWAP2 POP PUSH2 0x3A72 DUP3 PUSH2 0x3A31 JUMP JUMPDEST PUSH1 0x20 DUP3 ADD SWAP1 POP SWAP2 SWAP1 POP JUMP JUMPDEST PUSH1 0x0 PUSH1 0x20 DUP3 ADD SWAP1 POP DUP2 DUP2 SUB PUSH1 0x0 DUP4 ADD MSTORE PUSH2 0x3A96 DUP2 PUSH2 0x3A5A JUMP JUMPDEST SWAP1 POP SWAP2 SWAP1 POP JUMP JUMPDEST PUSH32 0x4E616D652063616E6E6F7420626520656D707479000000000000000000000000 PUSH1 0x0 DUP3 ADD MSTORE POP JUMP JUMPDEST PUSH1 0x0 PUSH2 0x3AD3 PUSH1 0x14 DUP4 PUSH2 0x35E3 JUMP JUMPDEST SWAP2 POP PUSH2 0x3ADE DUP3 PUSH2 0x3A9D JUMP JUMPDEST PUSH1 0x20 DUP3 ADD SWAP1 POP SWAP2 SWAP1 POP JUMP JUMPDEST PUSH1 0x0 PUSH1 0x20 DUP3 ADD SWAP1 POP DUP2 DUP2 SUB PUSH1 0x0 DUP4 ADD MSTORE PUSH2 0x3B02 DUP2 PUSH2 0x3AC6 JUMP JUMPDEST SWAP1 POP SWAP2 SWAP1 POP JUMP JUMPDEST PUSH32 0x4E487B7100000000000000000000000000000000000000000000000000000000 PUSH1 0x0 MSTORE PUSH1 0x22 PUSH1 0x4 MSTORE PUSH1 0x24 PUSH1 0x0 REVERT JUMPDEST PUSH1 0x0 PUSH1 0x2 DUP3 DIV SWAP1 POP PUSH1 0x1 DUP3 AND DUP1 PUSH2 0x3B50 JUMPI PUSH1 0x7F DUP3 AND SWAP2 POP JUMPDEST PUSH1 0x20 DUP3 LT DUP2 SUB PUSH2 0x3B63 JUMPI PUSH2 0x3B62 PUSH2 0x3B09 JUMP JUMPDEST JUMPDEST POP SWAP2 SWAP1 POP JUMP JUMPDEST PUSH1 0x0 DUP2 SWAP1 POP DUP2 PUSH1 0x0 MSTORE PUSH1 0x20 PUSH1 0x0 KECCAK256 SWAP1 POP SWAP2 SWAP1 POP JUMP JUMPDEST PUSH1 0x0 PUSH1 0x20 PUSH1 0x1F DUP4 ADD DIV SWAP1 POP SWAP2 SWAP1 POP JUMP JUMPDEST PUSH1 0x0 DUP3 DUP3 SHL SWAP1 POP SWAP3 SWAP2 POP POP JUMP JUMPDEST PUSH1 0x0 PUSH1 0x8 DUP4 MUL PUSH2 0x3BCB PUSH32 0xFFFFFFFFFFFFFFFFFFFFFFFFFFFFFFFFFFFFFFFFFFFFFFFFFFFFFFFFFFFFFFFF DUP3 PUSH2 0x3B8E JUMP JUMPDEST PUSH2 0x3BD5 DUP7 DUP4 PUSH2 0x3B8E JUMP JUMPDEST SWAP6 POP DUP1 NOT DUP5 AND SWAP4 POP DUP1 DUP7 AND DUP5 OR SWAP3 POP POP POP SWAP4 SWAP3 POP POP POP JUMP JUMPDEST PUSH1 0x0 DUP2 SWAP1 POP SWAP2 SWAP1 POP JUMP JUMPDEST PUSH1 0x0 PUSH2 0x3C12 PUSH2 0x3C0D PUSH2 0x3C08 DUP5 PUSH2 0x344A JUMP JUMPDEST PUSH2 0x3BED JUMP JUMPDEST PUSH2 0x344A JUMP JUMPDEST SWAP1 POP SWAP2 SWAP1 POP JUMP JUMPDEST PUSH1 0x0 DUP2 SWAP1 POP SWAP2 SWAP1 POP JUMP JUMPDEST PUSH2 0x3C2C DUP4 PUSH2 0x3BF7 JUMP JUMPDEST PUSH2 0x3C40 PUSH2 0x3C38 DUP3 PUSH2 0x3C19 JUMP JUMPDEST DUP5 DUP5 SLOAD PUSH2 0x3B9B JUMP JUMPDEST DUP3 SSTORE POP POP POP POP JUMP JUMPDEST PUSH1 0x0 SWAP1 JUMP JUMPDEST PUSH2 0x3C55 PUSH2 0x3C48 JUMP JUMPDEST PUSH2 0x3C60 DUP2 DUP5 DUP5 PUSH2 0x3C23 JUMP JUMPDEST POP POP POP JUMP JUMPDEST JUMPDEST DUP2 DUP2 LT ISZERO PUSH2 0x3C84 JUMPI PUSH2 0x3C79 PUSH1 0x0 DUP3 PUSH2 0x3C4D JUMP JUMPDEST PUSH1 0x1 DUP2 ADD SWAP1 POP PUSH2 0x3C66 JUMP JUMPDEST POP POP JUMP JUMPDEST PUSH1 0x1F DUP3 GT ISZERO PUSH2 0x3CC9 JUMPI PUSH2 0x3C9A DUP2 PUSH2 0x3B69 JUMP JUMPDEST PUSH2 0x3CA3 DUP5 PUSH2 0x3B7E JUMP JUMPDEST DUP2 ADD PUSH1 0x20 DUP6 LT ISZERO PUSH2 0x3CB2 JUMPI DUP2 SWAP1 POP JUMPDEST PUSH2 0x3CC6 PUSH2 0x3CBE DUP6 PUSH2 0x3B7E JUMP JUMPDEST DUP4 ADD DUP3 PUSH2 0x3C65 JUMP JUMPDEST POP POP JUMPDEST POP POP POP JUMP JUMPDEST PUSH1 0x0 DUP3 DUP3 SHR SWAP1 POP SWAP3 SWAP2 POP POP JUMP JUMPDEST PUSH1 0x0 PUSH2 0x3CEC PUSH1 0x0 NOT DUP5 PUSH1 0x8 MUL PUSH2 0x3CCE JUMP JUMPDEST NOT DUP1 DUP4 AND SWAP2 POP POP SWAP3 SWAP2 POP POP JUMP JUMPDEST PUSH1 0x0 PUSH2 0x3D05 DUP4 DUP4 PUSH2 0x3CDB JUMP JUMPDEST SWAP2 POP DUP3 PUSH1 0x2 MUL DUP3 OR SWAP1 POP SWAP3 SWAP2 POP POP JUMP JUMPDEST PUSH2 0x3D1E DUP3 PUSH2 0x35D8 JUMP JUMPDEST PUSH8 0xFFFFFFFFFFFFFFFF DUP2 GT ISZERO PUSH2 0x3D37 JUMPI PUSH2 0x3D36 PUSH2 0x32D6 JUMP JUMPDEST JUMPDEST PUSH2 0x3D41 DUP3 SLOAD PUSH2 0x3B38 JUMP JUMPDEST PUSH2 0x3D4C DUP3 DUP3 DUP6 PUSH2 0x3C88 JUMP JUMPDEST PUSH1 0x0 PUSH1 0x20 SWAP1 POP PUSH1 0x1F DUP4 GT PUSH1 0x1 DUP2 EQ PUSH2 0x3D7F JUMPI PUSH1 0x0 DUP5 ISZERO PUSH2 0x3D6D JUMPI DUP3 DUP8 ADD MLOAD SWAP1 POP JUMPDEST PUSH2 0x3D77 DUP6 DUP3 PUSH2 0x3CF9 JUMP JUMPDEST DUP7 SSTORE POP PUSH2 0x3DDF JUMP JUMPDEST PUSH1 0x1F NOT DUP5 AND PUSH2 0x3D8D DUP7 PUSH2 0x3B69 JUMP JUMPDEST PUSH1 0x0 JUMPDEST DUP3 DUP2 LT ISZERO PUSH2 0x3DB5 JUMPI DUP5 DUP10 ADD MLOAD DUP3 SSTORE PUSH1 0x1 DUP3 ADD SWAP2 POP PUSH1 0x20 DUP6 ADD SWAP5 POP PUSH1 0x20 DUP2 ADD SWAP1 POP PUSH2 0x3D90 JUMP JUMPDEST DUP7 DUP4 LT ISZERO PUSH2 0x3DD2 JUMPI DUP5 DUP10 ADD MLOAD PUSH2 0x3DCE PUSH1 0x1F DUP10 AND DUP3 PUSH2 0x3CDB JUMP JUMPDEST DUP4 SSTORE POP JUMPDEST PUSH1 0x1 PUSH1 0x2 DUP9 MUL ADD DUP9 SSTORE POP POP POP JUMPDEST POP POP POP POP POP POP JUMP JUMPDEST PUSH1 0x0 PUSH1 0x20 DUP3 ADD SWAP1 POP DUP2 DUP2 SUB PUSH1 0x0 DUP4 ADD MSTORE PUSH2 0x3E01 DUP2 DUP5 PUSH2 0x361E JUMP JUMPDEST SWAP1 POP SWAP3 SWAP2 POP POP JUMP JUMPDEST PUSH32 0x426174746C6520616C7265616479207265736F6C766564000000000000000000 PUSH1 0x0 DUP3 ADD MSTORE POP JUMP JUMPDEST PUSH1 0x0 PUSH2 0x3E3F PUSH1 0x17 DUP4 PUSH2 0x35E3 JUMP JUMPDEST SWAP2 POP PUSH2 0x3E4A DUP3 PUSH2 0x3E09 JUMP JUMPDEST PUSH1 0x20 DUP3 ADD SWAP1 POP SWAP2 SWAP1 POP JUMP JUMPDEST PUSH1 0x0 PUSH1 0x20 DUP3 ADD SWAP1 POP DUP2 DUP2 SUB PUSH1 0x0 DUP4 ADD MSTORE PUSH2 0x3E6E DUP2 PUSH2 0x3E32 JUMP JUMPDEST SWAP1 POP SWAP2 SWAP1 POP JUMP JUMPDEST PUSH32 0x4E487B7100000000000000000000000000000000000000000000000000000000 PUSH1 0x0 MSTORE PUSH1 0x11 PUSH1 0x4 MSTORE PUSH1 0x24 PUSH1 0x0 REVERT JUMPDEST PUSH1 0x0 PUSH2 0x3EAF DUP3 PUSH2 0x344A JUMP JUMPDEST SWAP2 POP PUSH2 0x3EBA DUP4 PUSH2 0x344A JUMP JUMPDEST SWAP3 POP DUP3 DUP3 ADD SWAP1 POP DUP1 DUP3 GT ISZERO PUSH2 0x3ED2 JUMPI PUSH2 0x3ED1 PUSH2 0x3E75 JUMP JUMPDEST JUMPDEST SWAP3 SWAP2 POP POP JUMP JUMPDEST PUSH32 0x54726F6F7073207374696C6C2074726176656C696E6700000000000000000000 PUSH1 0x0 DUP3 ADD MSTORE POP JUMP JUMPDEST PUSH1 0x0 PUSH2 0x3F0E PUSH1 0x16 DUP4 PUSH2 0x35E3 JUMP JUMPDEST SWAP2 POP PUSH2 0x3F19 DUP3 PUSH2 0x3ED8 JUMP JUMPDEST PUSH1 0x20 DUP3 ADD SWAP1 POP SWAP2 SWAP1 POP JUMP JUMPDEST PUSH1 0x0 PUSH1 0x20 DUP3 ADD SWAP1 POP DUP2 DUP2 SUB PUSH1 0x0 DUP4 ADD MSTORE PUSH2 0x3F3D DUP2 PUSH2 0x3F01 JUMP JUMPDEST SWAP1 POP SWAP2 SWAP1 POP JUMP JUMPDEST PUSH1 0x0 DUP2 SWAP1 POP SWAP2 SWAP1 POP JUMP JUMPDEST PUSH2 0x3F5F PUSH2 0x3F5A DUP3 PUSH2 0x344A JUMP JUMPDEST PUSH2 0x3F44 JUMP JUMPDEST DUP3 MSTORE POP POP JUMP JUMPDEST PUSH1 0x0 DUP2 PUSH1 0x60 SHL SWAP1 POP SWAP2 SWAP1 POP JUMP JUMPDEST PUSH1 0x0 PUSH2 0x3F7D DUP3 PUSH2 0x3F65 JUMP JUMPDEST SWAP1 POP SWAP2 SWAP1 POP JUMP JUMPDEST PUSH1 0x0 PUSH2 0x3F8F DUP3 PUSH2 0x3F72 JUMP JUMPDEST SWAP1 POP SWAP2 SWAP1 POP JUMP JUMPDEST PUSH2 0x3FA7 PUSH2 0x3FA2 DUP3 PUSH2 0x34CD JUMP JUMPDEST PUSH2 0x3F84 JUMP JUMPDEST DUP3 MSTORE POP POP JUMP JUMPDEST PUSH1 0x0 PUSH2 0x3FB9 DUP3 DUP7 PUSH2 0x3F4E JUMP JUMPDEST PUSH1 0x20 DUP3 ADD SWAP2 POP PUSH2 0x3FC9 DUP3 DUP6 PUSH2 0x3F96 JUMP JUMPDEST PUSH1 0x14 DUP3 ADD SWAP2 POP PUSH2 0x3FD9 DUP3 DUP5 PUSH2 0x3F96 JUMP JUMPDEST PUSH1 0x14 DUP3 ADD SWAP2 POP DUP2 SWAP1 POP SWAP5 SWAP4 POP POP POP POP JUMP JUMPDEST PUSH32 0x4E487B7100000000000000000000000000000000000000000000000000000000 PUSH1 0x0 MSTORE PUSH1 0x12 PUSH1 0x4 MSTORE PUSH1 0x24 PUSH1 0x0 REVERT JUMPDEST PUSH1 0x0 PUSH2 0x4024 DUP3 PUSH2 0x344A JUMP JUMPDEST SWAP2 POP PUSH2 0x402F DUP4 PUSH2 0x344A JUMP JUMPDEST SWAP3 POP DUP3 PUSH2 0x403F JUMPI PUSH2 0x403E PUSH2 0x3FEA JUMP JUMPDEST JUMPDEST DUP3 DUP3 MOD SWAP1 POP SWAP3 SWAP2 POP POP JUMP JUMPDEST PUSH1 0x0 PUSH2 0x4055 DUP3 PUSH2 0x344A JUMP JUMPDEST SWAP2 POP PUSH2 0x4060 DUP4 PUSH2 0x344A JUMP JUMPDEST SWAP3 POP DUP3 DUP3 MUL PUSH2 0x406E DUP2 PUSH2 0x344A JUMP JUMPDEST SWAP2 POP DUP3 DUP3 DIV DUP5 EQ DUP4 ISZERO OR PUSH2 0x4085 JUMPI PUSH2 0x4084 PUSH2 0x3E75 JUMP JUMPDEST JUMPDEST POP SWAP3 SWAP2 POP POP JUMP JUMPDEST PUSH1 0x0 PUSH2 0x4097 DUP3 PUSH2 0x344A JUMP JUMPDEST SWAP2 POP PUSH2 0x40A2 DUP4 PUSH2 0x344A JUMP JUMPDEST SWAP3 POP DUP3 PUSH2 0x40B2 JUMPI PUSH2 0x40B1 PUSH2 0x3FEA JUMP JUMPDEST JUMPDEST DUP3 DUP3 DIV SWAP1 POP SWAP3 SWAP2 POP POP JUMP JUMPDEST PUSH1 0x0 PUSH2 0x40C8 DUP3 PUSH2 0x344A JUMP JUMPDEST SWAP2 POP PUSH32 0xFFFFFFFFFFFFFFFFFFFFFFFFFFFFFFFFFFFFFFFFFFFFFFFFFFFFFFFFFFFFFFFF DUP3 SUB PUSH2 0x40FA JUMPI PUSH2 0x40F9 PUSH2 0x3E75 JUMP JUMPDEST JUMPDEST PUSH1 0x1 DUP3 ADD SWAP1 POP SWAP2 SWAP1 POP JUMP JUMPDEST PUSH32 0x496E73756666696369656E74207061796D656E7420666F722073706565642075 PUSH1 0x0 DUP3 ADD MSTORE PUSH32 0x7000000000000000000000000000000000000000000000000000000000000000 PUSH1 0x20 DUP3 ADD MSTORE POP JUMP JUMPDEST PUSH1 0x0 PUSH2 0x4161 PUSH1 0x21 DUP4 PUSH2 0x35E3 JUMP JUMPDEST SWAP2 POP PUSH2 0x416C DUP3 PUSH2 0x4105 JUMP JUMPDEST PUSH1 0x40 DUP3 ADD SWAP1 POP SWAP2 SWAP1 POP JUMP JUMPDEST PUSH1 0x0 PUSH1 0x20 DUP3 ADD SWAP1 POP DUP2 DUP2 SUB PUSH1 0x0 DUP4 ADD MSTORE PUSH2 0x4190 DUP2 PUSH2 0x4154 JUMP JUMPDEST SWAP1 POP SWAP2 SWAP1 POP JUMP JUMPDEST PUSH32 0x4E6F7420796F757220626174746C650000000000000000000000000000000000 PUSH1 0x0 DUP3 ADD MSTORE POP JUMP JUMPDEST PUSH1 0x0 PUSH2 0x41CD PUSH1 0xF DUP4 PUSH2 0x35E3 JUMP JUMPDEST SWAP2 POP PUSH2 0x41D8 DUP3 PUSH2 0x4197 JUMP JUMPDEST PUSH1 0x20 DUP3 ADD SWAP1 POP SWAP2 SWAP1 POP JUMP JUMPDEST PUSH1 0x0 PUSH1 0x20 DUP3 ADD SWAP1 POP DUP2 DUP2 SUB PUSH1 0x0 DUP4 ADD MSTORE PUSH2 0x41FC DUP2 PUSH2 0x41C0 JUMP JUMPDEST SWAP1 POP SWAP2 SWAP1 POP JUMP JUMPDEST PUSH1 0x0 PUSH1 0x40 DUP3 ADD SWAP1 POP PUSH2 0x4218 PUSH1 0x0 DUP4 ADD DUP6 PUSH2 0x3581 JUMP JUMPDEST PUSH2 0x4225 PUSH1 0x20 DUP4 ADD DUP5 PUSH2 0x3810 JUMP JUMPDEST SWAP4 SWAP3 POP POP POP JUMP JUMPDEST PUSH1 0x0 PUSH2 0x4237 DUP3 PUSH2 0x344A JUMP JUMPDEST SWAP2 POP PUSH2 0x4242 DUP4 PUSH2 0x344A JUMP JUMPDEST SWAP3 POP DUP3 DUP3 SUB SWAP1 POP DUP2 DUP2 GT ISZERO PUSH2 0x425A JUMPI PUSH2 0x4259 PUSH2 0x3E75 JUMP JUMPDEST JUMPDEST SWAP3 SWAP2 POP POP JUMP JUMPDEST PUSH32 0x4B68616E617465206E6F7420696E697469616C697A6564000000000000000000 PUSH1 0x0 DUP3 ADD MSTORE POP JUMP JUMPDEST PUSH1 0x0 PUSH2 0x4296 PUSH1 0x17 DUP4 PUSH2 0x35E3 JUMP JUMPDEST SWAP2 POP PUSH2 0x42A1 DUP3 PUSH2 0x4260 JUMP JUMPDEST PUSH1 0x20 DUP3 ADD SWAP1 POP SWAP2 SWAP1 POP JUMP JUMPDEST PUSH1 0x0 PUSH1 0x20 DUP3 ADD SWAP1 POP DUP2 DUP2 SUB PUSH1 0x0 DUP4 ADD MSTORE PUSH2 0x42C5 DUP2 PUSH2 0x4289 JUMP JUMPDEST SWAP1 POP SWAP2 SWAP1 POP JUMP JUMPDEST PUSH32 0x496E73756666696369656E74207061796D656E74000000000000000000000000 PUSH1 0x0 DUP3 ADD MSTORE POP JUMP JUMPDEST PUSH1 0x0 PUSH2 0x4302 PUSH1 0x14 DUP4 PUSH2 0x35E3 JUMP JUMPDEST SWAP2 POP PUSH2 0x430D DUP3 PUSH2 0x42CC JUMP JUMPDEST PUSH1 0x20 DUP3 ADD SWAP1 POP SWAP2 SWAP1 POP JUMP JUMPDEST PUSH1 0x0 PUSH1 0x20 DUP3 ADD SWAP1 POP DUP2 DUP2 SUB PUSH1 0x0 DUP4 ADD MSTORE PUSH2 0x4331 DUP2 PUSH2 0x42F5 JUMP JUMPDEST SWAP1 POP SWAP2 SWAP1 POP JUMP JUMPDEST PUSH1 0x0 PUSH2 0x4344 DUP3 DUP6 PUSH2 0x3F4E JUMP JUMPDEST PUSH1 0x20 DUP3 ADD SWAP2 POP PUSH2 0x4354 DUP3 DUP5 PUSH2 0x3F96 JUMP JUMPDEST PUSH1 0x14 DUP3 ADD SWAP2 POP DUP2 SWAP1 POP SWAP4 SWAP3 POP POP POP JUMP JUMPDEST PUSH1 0x0 PUSH2 0x4370 DUP3 DUP7 PUSH2 0x3F4E JUMP JUMPDEST PUSH1 0x20 DUP3 ADD SWAP2 POP PUSH2 0x4380 DUP3 DUP6 PUSH2 0x3F96 JUMP JUMPDEST PUSH1 0x14 DUP3 ADD SWAP2 POP PUSH2 0x4390 DUP3 DUP5 PUSH2 0x3F4E JUMP JUMPDEST PUSH1 0x20 DUP3 ADD SWAP2 POP DUP2 SWAP1 POP SWAP5 SWAP4 POP POP POP POP JUMP JUMPDEST PUSH1 0x0 DUP2 SLOAD PUSH2 0x43AE DUP2 PUSH2 0x3B38 JUMP JUMPDEST PUSH2 0x43B8 DUP2 DUP7 PUSH2 0x35E3 JUMP JUMPDEST SWAP5 POP PUSH1 0x1 DUP3 AND PUSH1 0x0 DUP2 EQ PUSH2 0x43D3 JUMPI PUSH1 0x1 DUP2 EQ PUSH2 0x43E9 JUMPI PUSH2 0x441C JUMP JUMPDEST PUSH1 0xFF NOT DUP4 AND DUP7 MSTORE DUP2 ISZERO ISZERO PUSH1 0x20 MUL DUP7 ADD SWAP4 POP PUSH2 0x441C JUMP JUMPDEST PUSH2 0x43F2 DUP6 PUSH2 0x3B69 JUMP JUMPDEST PUSH1 0x0 JUMPDEST DUP4 DUP2 LT ISZERO PUSH2 0x4414 JUMPI DUP2 SLOAD DUP2 DUP10 ADD MSTORE PUSH1 0x1 DUP3 ADD SWAP2 POP PUSH1 0x20 DUP2 ADD SWAP1 POP PUSH2 0x43F5 JUMP JUMPDEST DUP1 DUP9 ADD SWAP6 POP POP POP JUMPDEST POP POP POP SWAP3 SWAP2 POP POP JUMP JUMPDEST PUSH1 0x0 PUSH1 0x40 DUP3 ADD SWAP1 POP PUSH2 0x443A PUSH1 0x0 DUP4 ADD DUP6 PUSH2 0x3581 JUMP JUMPDEST DUP2 DUP2 SUB PUSH1 0x20 DUP4 ADD MSTORE PUSH2 0x444C DUP2 DUP5 PUSH2 0x43A1 JUMP JUMPDEST SWAP1 POP SWAP4 SWAP3 POP POP POP JUMP JUMPDEST PUSH1 0x0 DUP2 SWAP1 POP SWAP3 SWAP2 POP POP JUMP JUMPDEST PUSH32 0x46495253545F424C4F4F44000000000000000000000000000000000000000000 PUSH1 0x0 DUP3 ADD MSTORE POP JUMP JUMPDEST PUSH1 0x0 PUSH2 0x4496 PUSH1 0xB DUP4 PUSH2 0x4455 JUMP JUMPDEST SWAP2 POP PUSH2 0x44A1 DUP3 PUSH2 0x4460 JUMP JUMPDEST PUSH1 0xB DUP3 ADD SWAP1 POP SWAP2 SWAP1 POP JUMP JUMPDEST PUSH1 0x0 PUSH2 0x44B7 DUP3 PUSH2 0x4489 JUMP JUMPDEST SWAP2 POP DUP2 SWAP1 POP SWAP2 SWAP1 POP JUMP JUMPDEST PUSH32 0x5645544552414E00000000000000000000000000000000000000000000000000 PUSH1 0x0 DUP3 ADD MSTORE POP JUMP JUMPDEST PUSH1 0x0 PUSH2 0x44F7 PUSH1 0x7 DUP4 PUSH2 0x4455 JUMP JUMPDEST SWAP2 POP PUSH2 0x4502 DUP3 PUSH2 0x44C1 JUMP JUMPDEST PUSH1 0x7 DUP3 ADD SWAP1 POP SWAP2 SWAP1 POP JUMP JUMPDEST PUSH1 0x0 PUSH2 0x4518 DUP3 PUSH2 0x44EA JUMP JUMPDEST SWAP2 POP DUP2 SWAP1 POP SWAP2 SWAP1 POP JUMP JUMPDEST PUSH32 0x5741524C4F524400000000000000000000000000000000000000000000000000 PUSH1 0x0 DUP3 ADD MSTORE POP JUMP JUMPDEST PUSH1 0x0 PUSH2 0x4558 PUSH1 0x7 DUP4 PUSH2 0x4455 JUMP JUMPDEST SWAP2 POP PUSH2 0x4563 DUP3 PUSH2 0x4522 JUMP JUMPDEST PUSH1 0x7 DUP3 ADD SWAP1 POP SWAP2 SWAP1 POP JUMP JUMPDEST PUSH1 0x0 PUSH2 0x4579 DUP3 PUSH2 0x454B JUMP JUMPDEST SWAP2 POP DUP2 SWAP1 POP SWAP2 SWAP1 POP JUMP JUMPDEST PUSH32 0x444546454E444552000000000000000000000000000000000000000000000000 PUSH1 0x0 DUP3 ADD MSTORE POP JUMP JUMPDEST PUSH1 0x0 PUSH2 0x45B9 PUSH1 0x8 DUP4 PUSH2 0x4455 JUMP JUMPDEST SWAP2 POP PUSH2 0x45C4 DUP3 PUSH2 0x4583 JUMP JUMPDEST PUSH1 0x8 DUP3 ADD SWAP1 POP SWAP2 SWAP1 POP JUMP JUMPDEST PUSH1 0x0 PUSH2 0x45DA DUP3 PUSH2 0x45AC JUMP JUMPDEST SWAP2 POP DUP2 SWAP1 POP SWAP2 SWAP1 POP JUMP JUMPDEST PUSH32 0x434F4C4C4543544F520000000000000000000000000000000000000000000000 PUSH1 0x0 DUP3 ADD MSTORE POP JUMP JUMPDEST PUSH1 0x0 PUSH2 0x461A PUSH1 0x9 DUP4 PUSH2 0x4455 JUMP JUMPDEST SWAP2 POP PUSH2 0x4625 DUP3 PUSH2 0x45E4 JUMP JUMPDEST PUSH1 0x9 DUP3 ADD SWAP1 POP SWAP2 SWAP1 POP JUMP JUMPDEST PUSH1 0x0 PUSH2 0x463B DUP3 PUSH2 0x460D JUMP JUMPDEST SWAP2 POP DUP2 SWAP1 POP SWAP2 SWAP1 POP JUMP JUMPDEST PUSH32 0x496E76616C696420426174797220494400000000000000000000000000000000 PUSH1 0x0 DUP3 ADD MSTORE POP JUMP JUMPDEST PUSH1 0x0 PUSH2 0x467B PUSH1 0x10 DUP4 PUSH2 0x35E3 JUMP JUMPDEST SWAP2 POP PUSH2 0x4686 DUP3 PUSH2 0x4645 JUMP JUMPDEST PUSH1 0x20 DUP3 ADD SWAP1 POP SWAP2 SWAP1 POP JUMP JUMPDEST PUSH1 0x0 PUSH1 0x20 DUP3 ADD SWAP1 POP DUP2 DUP2 SUB PUSH1 0x0 DUP4 ADD MSTORE PUSH2 0x46AA DUP2 PUSH2 0x466E JUMP JUMPDEST SWAP1 POP SWAP2 SWAP1 POP JUMP JUMPDEST PUSH1 0x0 PUSH1 0x40 DUP3 ADD SWAP1 POP PUSH2 0x46C6 PUSH1 0x0 DUP4 ADD DUP6 PUSH2 0x3581 JUMP JUMPDEST PUSH2 0x46D3 PUSH1 0x20 DUP4 ADD DUP5 PUSH2 0x3581 JUMP JUMPDEST SWAP4 SWAP3 POP POP POP JUMP JUMPDEST PUSH32 0x43616E6E6F7420626174746C6520796F757273656C6600000000000000000000 PUSH1 0x0 DUP3 ADD MSTORE POP JUMP JUMPDEST PUSH1 0x0 PUSH2 0x4710 PUSH1 0x16 DUP4 PUSH2 0x35E3 JUMP JUMPDEST SWAP2 POP PUSH2 0x471B DUP3 PUSH2 0x46DA JUMP JUMPDEST PUSH1 0x20 DUP3 ADD SWAP1 POP SWAP2 SWAP1 POP JUMP JUMPDEST PUSH1 0x0 PUSH1 0x20 DUP3 ADD SWAP1 POP DUP2 DUP2 SUB PUSH1 0x0 DUP4 ADD MSTORE PUSH2 0x473F DUP2 PUSH2 0x4703 JUMP JUMPDEST SWAP1 POP SWAP2 SWAP1 POP JUMP JUMPDEST PUSH32 0x446566656E6465722773204B68616E617465206E6F7420696E697469616C697A PUSH1 0x0 DUP3 ADD MSTORE PUSH32 0x6564000000000000000000000000000000000000000000000000000000000000 PUSH1 0x20 DUP3 ADD MSTORE POP JUMP JUMPDEST PUSH1 0x0 PUSH2 0x47A2 PUSH1 0x22 DUP4 PUSH2 0x35E3 JUMP JUMPDEST SWAP2 POP PUSH2 0x47AD DUP3 PUSH2 0x4746 JUMP JUMPDEST PUSH1 0x40 DUP3 ADD SWAP1 POP SWAP2 SWAP1 POP JUMP JUMPDEST PUSH1 0x0 PUSH1 0x20 DUP3 ADD SWAP1 POP DUP2 DUP2 SUB PUSH1 0x0 DUP4 ADD MSTORE PUSH2 0x47D1 DUP2 PUSH2 0x4795 JUMP JUMPDEST SWAP1 POP SWAP2 SWAP1 POP JUMP JUMPDEST PUSH32 0x4E6F2074726F6F707320746F20626174746C6520776974680000000000000000 PUSH1 0x0 DUP3 ADD MSTORE POP JUMP JUMPDEST PUSH1 0x0 PUSH2 0x480E PUSH1 0x18 DUP4 PUSH2 0x35E3 JUMP JUMPDEST SWAP2 POP PUSH2 0x4819 DUP3 PUSH2 0x47D8 JUMP JUMPDEST PUSH1 0x20 DUP3 ADD SWAP1 POP SWAP2 SWAP1 POP JUMP JUMPDEST PUSH1 0x0 PUSH1 0x20 DUP3 ADD SWAP1 POP DUP2 DUP2 SUB PUSH1 0x0 DUP4 ADD MSTORE PUSH2 0x483D DUP2 PUSH2 0x4801 JUMP JUMPDEST SWAP1 POP SWAP2 SWAP1 POP JUMP JUMPDEST PUSH1 0x0 PUSH1 0x80 DUP3 ADD SWAP1 POP PUSH2 0x4859 PUSH1 0x0 DUP4 ADD DUP8 PUSH2 0x3581 JUMP JUMPDEST PUSH2 0x4866 PUSH1 0x20 DUP4 ADD DUP7 PUSH2 0x3810 JUMP JUMPDEST PUSH2 0x4873 PUSH1 0x40 DUP4 ADD DUP6 PUSH2 0x3810 JUMP JUMPDEST PUSH2 0x4880 PUSH1 0x60 DUP4 ADD DUP5 PUSH2 0x3581 JUMP JUMPDEST SWAP6 SWAP5 POP POP POP POP POP JUMP JUMPDEST PUSH1 0x0 PUSH2 0x4894 DUP3 PUSH2 0x35D8 JUMP JUMPDEST PUSH2 0x489E DUP2 DUP6 PUSH2 0x4455 JUMP JUMPDEST SWAP4 POP PUSH2 0x48AE DUP2 DUP6 PUSH1 0x20 DUP7 ADD PUSH2 0x35F4 JUMP JUMPDEST DUP1 DUP5 ADD SWAP2 POP POP SWAP3 SWAP2 POP POP JUMP JUMPDEST PUSH1 0x0 PUSH2 0x48C6 DUP3 DUP5 PUSH2 0x4889 JUMP JUMPDEST SWAP2 POP DUP2 SWAP1 POP SWAP3 SWAP2 POP POP JUMP INVALID LOG2 PUSH5 0x6970667358 0x22 SLT KECCAK256 0xE4 SWAP12 0x4E 0xC5 SWAP11 SWAP16 DUP2 0x24 0x49 0xCC 0x22 PUSH15 0xEF36CD4410E336D53A762E59E8FBE 0xF7 0xD6 0xBC 0xE4 0x4B PUSH5 0x736F6C6343 STOP ADDMOD SGT STOP CALLER POP PUSH19 0x6F7669646573207374726F6E6720646566656E PUSH20 0x69766520626F6E757365735369676E6966696361 PUSH15 0x746C7920626F6F7374732061726368 PUSH6 0x7220706F7765 PUSH19 0x456E68616E63657320626F7468206172636865 PUSH19 0x20616E6420636176616C727920656666656374 PUSH10 0x76656E6573735369676E PUSH10 0x666963616E746C792062 PUSH16 0x6F73747320636176616C727920706F77 PUSH6 0x720000000000 "},"methodIdentifiers":{"ARCHER_PRICE()":"3dde60c2","CAVALRY_PRICE()":"6011515c","LUCKY_BOX_PRICE()":"e0f83f21","SPEED_UP_PRICE()":"54258088","achievements(address,string)":"5dcee894","activeBattles(uint256)":"ee52f8f3","allKhanates(uint256)":"6d3c4787","batyrs(uint256)":"8602eebf","createKhanate(string)":"0c1cdb6d","executeBattle(uint256)":"1504f5cd","getAllKhanates()":"d1e69f40","getBatyrStats(uint256)":"c1c063eb","getKhanateStats(address)":"3f430695","getPlayerStats(address)":"4fd66eae","hasBatyr(address,uint256)":"232e096d","initiateBattle(address)":"fd0a5d9b","khanateIndex(address)":"6c513c51","khanates(address)":"6b4faeca","ownedBatyrs(address,uint256)":"3b42f248","purchaseLuckyBox()":"3a0de743","purchaseTroops(uint256,uint256)":"dfad6257","speedUpBattle(uint256)":"21ec18e1"}}}}}