{"contracts/KazakhKhanate.sol":{"KazakhKhanate":{"abi":[{"inputs":[],"stateMutability":"nonpayable","type":"constructor"},{"anonymous":false,"inputs":[{"indexed":true,"internalType":"address","name":"attacker","type":"address"},{"indexed":true,"internalType":"address","name":"defender","type":"address"},{"indexed":false,"internalType":"bool","name":"victory","type":"bool"},{"indexed":false,"internalType":"uint256","name":"powerUsed","type":"uint256"}],"name":"BattleResult","type":"event"},{"anonymous":false,"inputs":[{"indexed":true,"internalType":"address","name":"owner","type":"address"},{"indexed":false,"internalType":"uint256","name":"batyrId","type":"uint256"},{"indexed":false,"internalType":"string","name":"name","type":"string"}],"name":"BatyrAcquired","type":"event"},{"anonymous":false,"inputs":[{"indexed":true,"internalType":"address","name":"owner","type":"address"},{"indexed":false,"internalType":"string","name":"name","type":"string"}],"name":"KhanateCreated","type":"event"},{"anonymous":false,"inputs":[{"indexed":true,"internalType":"address","name":"previousOwner","type":"address"},{"indexed":true,"internalType":"address","name":"newOwner","type":"address"}],"name":"OwnershipTransferred","type":"event"},{"anonymous":false,"inputs":[{"indexed":true,"internalType":"address","name":"owner","type":"address"},{"indexed":false,"internalType":"uint256","name":"archers","type":"uint256"},{"indexed":false,"internalType":"uint256","name":"cavalry","type":"uint256"}],"name":"TroopsPurchased","type":"event"},{"inputs":[],"name":"ARCHER_PRICE","outputs":[{"internalType":"uint256","name":"","type":"uint256"}],"stateMutability":"view","type":"function"},{"inputs":[],"name":"CAVALRY_PRICE","outputs":[{"internalType":"uint256","name":"","type":"uint256"}],"stateMutability":"view","type":"function"},{"inputs":[],"name":"LUCKY_BOX_PRICE","outputs":[{"internalType":"uint256","name":"","type":"uint256"}],"stateMutability":"view","type":"function"},{"inputs":[{"internalType":"address","name":"_opponent","type":"address"}],"name":"battle","outputs":[],"stateMutability":"nonpayable","type":"function"},{"inputs":[{"internalType":"uint256","name":"","type":"uint256"}],"name":"batyrStats","outputs":[{"internalType":"string","name":"name","type":"string"},{"internalType":"uint256","name":"power","type":"uint256"},{"internalType":"string","name":"ability","type":"string"},{"internalType":"string","name":"description","type":"string"},{"internalType":"bool","name":"canBattle","type":"bool"},{"internalType":"bool","name":"defenseBonus","type":"bool"},{"internalType":"uint256","name":"archerBonus","type":"uint256"},{"internalType":"uint256","name":"cavalryBonus","type":"uint256"}],"stateMutability":"view","type":"function"},{"inputs":[{"internalType":"string","name":"_name","type":"string"}],"name":"createKhanate","outputs":[],"stateMutability":"nonpayable","type":"function"},{"inputs":[{"internalType":"uint256","name":"_batyrId","type":"uint256"}],"name":"getBatyrStats","outputs":[{"internalType":"string","name":"name","type":"string"},{"internalType":"uint256","name":"power","type":"uint256"},{"internalType":"string","name":"ability","type":"string"},{"internalType":"string","name":"description","type":"string"},{"internalType":"bool","name":"canBattle","type":"bool"},{"internalType":"bool","name":"defenseBonus","type":"bool"},{"internalType":"uint256","name":"archerBonus","type":"uint256"},{"internalType":"uint256","name":"cavalryBonus","type":"uint256"}],"stateMutability":"view","type":"function"},{"inputs":[{"internalType":"address","name":"_player","type":"address"}],"name":"getKhanateStats","outputs":[{"internalType":"string","name":"name","type":"string"},{"internalType":"uint256","name":"level","type":"uint256"},{"internalType":"uint256","name":"archers","type":"uint256"},{"internalType":"uint256","name":"cavalry","type":"uint256"}],"stateMutability":"view","type":"function"},{"inputs":[{"internalType":"address","name":"_player","type":"address"},{"internalType":"uint256","name":"_batyrId","type":"uint256"}],"name":"hasBatyr","outputs":[{"internalType":"bool","name":"","type":"bool"}],"stateMutability":"view","type":"function"},{"inputs":[{"internalType":"address","name":"","type":"address"}],"name":"khanates","outputs":[{"internalType":"string","name":"name","type":"string"},{"internalType":"uint256","name":"level","type":"uint256"},{"internalType":"uint256","name":"archers","type":"uint256"},{"internalType":"uint256","name":"cavalry","type":"uint256"},{"internalType":"bool","name":"isInitialized","type":"bool"}],"stateMutability":"view","type":"function"},{"inputs":[],"name":"owner","outputs":[{"internalType":"address","name":"","type":"address"}],"stateMutability":"view","type":"function"},{"inputs":[],"name":"purchaseLuckyBox","outputs":[],"stateMutability":"payable","type":"function"},{"inputs":[{"internalType":"uint256","name":"_archers","type":"uint256"},{"internalType":"uint256","name":"_cavalry","type":"uint256"}],"name":"purchaseTroops","outputs":[],"stateMutability":"payable","type":"function"},{"inputs":[],"name":"renounceOwnership","outputs":[],"stateMutability":"nonpayable","type":"function"},{"inputs":[{"internalType":"address","name":"newOwner","type":"address"}],"name":"transferOwnership","outputs":[],"stateMutability":"nonpayable","type":"function"}],"evm":{"bytecode":{"linkReferences":{},"object":"60806040523480156200001157600080fd5b506200003262000026620007ce60201b60201c565b620007d660201b60201c565b600180819055506040518061010001604052806040518060400160405280600e81526020017f4b6162616e6261792042617479720000000000000000000000000000000000008152508152602001601e81526020016040518060400160405280601181526020017f436176616c727920436f6d6d616e646572000000000000000000000000000000815250815260200160405180608001604052806059815260200162003a9e605991398152602001600115158152602001600015158152602001606481526020016096815250600360006001815260200190815260200160002060008201518160000190816200012a919062000b14565b506020820151816001015560408201518160020190816200014c919062000b14565b50606082015181600301908162000164919062000b14565b5060808201518160040160006101000a81548160ff02191690831515021790555060a08201518160040160016101000a81548160ff02191690831515021790555060c0820151816005015560e082015181600601559050506040518061010001604052806040518060400160405280600f81526020017f4b6f62796c616e647920426174797200000000000000000000000000000000008152508152602001601981526020016040518060400160405280600f81526020017f4d617374657220446566656e646572000000000000000000000000000000000081525081526020016040518060a00160405280606c815260200162003a32606c9139815260200160001515815260200160011515815260200160648152602001606481525060036000600281526020019081526020016000206000820151816000019081620002ad919062000b14565b50602082015181600101556040820151816002019081620002cf919062000b14565b506060820151816003019081620002e7919062000b14565b5060808201518160040160006101000a81548160ff02191690831515021790555060a08201518160040160016101000a81548160ff02191690831515021790555060c0820151816005015560e082015181600601559050506040518061010001604052806040518060400160405280600b81526020017f4162796c6169204b68616e0000000000000000000000000000000000000000008152508152602001601481526020016040518060400160405280601081526020017f537472617465676963204c6561646572000000000000000000000000000000008152508152602001604051806080016040528060448152602001620039a56044913981526020016001151581526020016001151581526020016078815260200160788152506003600060038152602001908152602001600020600082015181600001908162000430919062000b14565b5060208201518160010155604082015181600201908162000452919062000b14565b5060608201518160030190816200046a919062000b14565b5060808201518160040160006101000a81548160ff02191690831515021790555060a08201518160040160016101000a81548160ff02191690831515021790555060c0820151816005015560e082015181600601559050506040518061010001604052806040518060400160405280600e81526020017f5261696d67617a792042617479720000000000000000000000000000000000008152508152602001601681526020016040518060400160405280601081526020017f41726368657220436f6d6d616e64657200000000000000000000000000000000815250815260200160405180606001604052806040815260200162003af760409139815260200160011515815260200160001515815260200160968152602001606481525060036000600481526020019081526020016000206000820151816000019081620005b3919062000b14565b50602082015181600101556040820151816002019081620005d5919062000b14565b506060820151816003019081620005ed919062000b14565b5060808201518160040160006101000a81548160ff02191690831515021790555060a08201518160040160016101000a81548160ff02191690831515021790555060c0820151816005015560e082015181600601559050506040518061010001604052806040518060400160405280600a81526020017f5372796d204461746f76000000000000000000000000000000000000000000008152508152602001601581526020016040518060400160405280600f81526020017f546163746963616c2047656e69757300000000000000000000000000000000008152508152602001604051806080016040528060498152602001620039e96049913981526020016001151581526020016001151581526020016082815260200160828152506003600060058152602001908152602001600020600082015181600001908162000736919062000b14565b5060208201518160010155604082015181600201908162000758919062000b14565b50606082015181600301908162000770919062000b14565b5060808201518160040160006101000a81548160ff02191690831515021790555060a08201518160040160016101000a81548160ff02191690831515021790555060c0820151816005015560e0820151816006015590505062000bfb565b600033905090565b60008060009054906101000a900473ffffffffffffffffffffffffffffffffffffffff169050816000806101000a81548173ffffffffffffffffffffffffffffffffffffffff021916908373ffffffffffffffffffffffffffffffffffffffff1602179055508173ffffffffffffffffffffffffffffffffffffffff168173ffffffffffffffffffffffffffffffffffffffff167f8be0079c531659141344cd1fd0a4f28419497f9722a3daafe3b4186f6b6457e060405160405180910390a35050565b600081519050919050565b7f4e487b7100000000000000000000000000000000000000000000000000000000600052604160045260246000fd5b7f4e487b7100000000000000000000000000000000000000000000000000000000600052602260045260246000fd5b600060028204905060018216806200091c57607f821691505b602082108103620009325762000931620008d4565b5b50919050565b60008190508160005260206000209050919050565b60006020601f8301049050919050565b600082821b905092915050565b6000600883026200099c7fffffffffffffffffffffffffffffffffffffffffffffffffffffffffffffffff826200095d565b620009a886836200095d565b95508019841693508086168417925050509392505050565b6000819050919050565b6000819050919050565b6000620009f5620009ef620009e984620009c0565b620009ca565b620009c0565b9050919050565b6000819050919050565b62000a1183620009d4565b62000a2962000a2082620009fc565b8484546200096a565b825550505050565b600090565b62000a4062000a31565b62000a4d81848462000a06565b505050565b5b8181101562000a755762000a6960008262000a36565b60018101905062000a53565b5050565b601f82111562000ac45762000a8e8162000938565b62000a99846200094d565b8101602085101562000aa9578190505b62000ac162000ab8856200094d565b83018262000a52565b50505b505050565b600082821c905092915050565b600062000ae96000198460080262000ac9565b1980831691505092915050565b600062000b04838362000ad6565b9150826002028217905092915050565b62000b1f826200089a565b67ffffffffffffffff81111562000b3b5762000b3a620008a5565b5b62000b47825462000903565b62000b5482828562000a79565b600060209050601f83116001811462000b8c576000841562000b77578287015190505b62000b83858262000af6565b86555062000bf3565b601f19841662000b9c8662000938565b60005b8281101562000bc65784890151825560018201915060208501945060208101905062000b9f565b8683101562000be6578489015162000be2601f89168262000ad6565b8355505b6001600288020188555050505b505050505050565b612d9a8062000c0b6000396000f3fe6080604052600436106100e85760003560e01c80636b4faeca1161008a578063c1c063eb11610059578063c1c063eb146102e3578063dfad625714610327578063e0f83f2114610343578063f2fde38b1461036e576100e8565b80636b4faeca14610237578063715018a61461027857806371c952811461028f5780638da5cb5b146102b8576100e8565b80633dde60c2116100c65780633dde60c21461015d5780633f4306951461018857806357c86704146101c85780636011515c1461020c576100e8565b80630c1cdb6d146100ed578063232e096d146101165780633a0de74314610153575b600080fd5b3480156100f957600080fd5b50610114600480360381019061010f9190611f1b565b610397565b005b34801561012257600080fd5b5061013d60048036038101906101389190611ff8565b610509565b60405161014a9190612053565b60405180910390f35b61015b6105c3565b005b34801561016957600080fd5b50610172610903565b60405161017f919061207d565b60405180910390f35b34801561019457600080fd5b506101af60048036038101906101aa9190612098565b61090e565b6040516101bf9493929190612144565b60405180910390f35b3480156101d457600080fd5b506101ef60048036038101906101ea9190612190565b610a96565b6040516102039897969594939291906121bd565b60405180910390f35b34801561021857600080fd5b50610221610c90565b60405161022e919061207d565b60405180910390f35b34801561024357600080fd5b5061025e60048036038101906102599190612098565b610c9b565b60405161026f959493929190612250565b60405180910390f35b34801561028457600080fd5b5061028d610d66565b005b34801561029b57600080fd5b506102b660048036038101906102b19190612098565b610d7a565b005b3480156102c457600080fd5b506102cd61124b565b6040516102da91906122b9565b60405180910390f35b3480156102ef57600080fd5b5061030a60048036038101906103059190612190565b611274565b60405161031e9897969594939291906121bd565b60405180910390f35b610341600480360381019061033c91906122d4565b6114f2565b005b34801561034f57600080fd5b5061035861176a565b604051610365919061207d565b60405180910390f35b34801561037a57600080fd5b5061039560048036038101906103909190612098565b611776565b005b600260003373ffffffffffffffffffffffffffffffffffffffff1673ffffffffffffffffffffffffffffffffffffffff16815260200190815260200160002060050160009054906101000a900460ff1615610427576040517f08c379a000000000000000000000000000000000000000000000000000000000815260040161041e90612360565b60405180910390fd5b6000600260003373ffffffffffffffffffffffffffffffffffffffff1673ffffffffffffffffffffffffffffffffffffffff16815260200190815260200160002090508181600001908161047b919061258c565b5060018160010181905550600a81600201819055506005816003018190555060018160050160006101000a81548160ff0219169083151502179055503373ffffffffffffffffffffffffffffffffffffffff167f67409ced604950b5508f075f60153e7d166866a8251a44b569a7a07d7f27c3eb836040516104fd919061265e565b60405180910390a25050565b6000808211801561051b575060058211155b61055a576040517f08c379a0000000000000000000000000000000000000000000000000000000008152600401610551906126cc565b60405180910390fd5b600260008473ffffffffffffffffffffffffffffffffffffffff1673ffffffffffffffffffffffffffffffffffffffff168152602001908152602001600020600401600083815260200190815260200160002060009054906101000a900460ff16905092915050565b6105cb6117f9565b67016345785d8a0000341015610616576040517f08c379a000000000000000000000000000000000000000000000000000000000815260040161060d90612738565b60405180910390fd5b600260003373ffffffffffffffffffffffffffffffffffffffff1673ffffffffffffffffffffffffffffffffffffffff16815260200190815260200160002060050160009054906101000a900460ff166106a5576040517f08c379a000000000000000000000000000000000000000000000000000000000815260040161069c906127a4565b60405180910390fd5b60004442336040516020016106bc9392919061282d565b6040516020818303038152906040528051906020012060001c905060006103e8826106e79190612899565b9050600080600190505b6005811161077b57600260003373ffffffffffffffffffffffffffffffffffffffff1673ffffffffffffffffffffffffffffffffffffffff168152602001908152602001600020600401600082815260200190815260200160002060009054906101000a900460ff1615610768576001915061077b565b8080610773906128f9565b9150506106f1565b5060008161078a57606461078d565b60015b60ff1690508083101561088a57600060016005866107ab9190612899565b6107b59190612941565b90506001600260003373ffffffffffffffffffffffffffffffffffffffff1673ffffffffffffffffffffffffffffffffffffffff168152602001908152602001600020600401600083815260200190815260200160002060006101000a81548160ff0219169083151502179055503373ffffffffffffffffffffffffffffffffffffffff167fc78cd494272180e0c224c92ca5bedd58597e9f5494e17a757b031988d4b6372c82600360008581526020019081526020016000206000016040516108809291906129f9565b60405180910390a2505b67016345785d8a00003411156108f5573373ffffffffffffffffffffffffffffffffffffffff166108fc67016345785d8a0000346108c89190612a29565b9081150290604051600060405180830381858888f193505050501580156108f3573d6000803e3d6000fd5b505b50505050610901611848565b565b662386f26fc1000081565b60606000806000600260008673ffffffffffffffffffffffffffffffffffffffff1673ffffffffffffffffffffffffffffffffffffffff16815260200190815260200160002060050160009054906101000a900460ff166109a4576040517f08c379a000000000000000000000000000000000000000000000000000000000815260040161099b906127a4565b60405180910390fd5b6000600260008773ffffffffffffffffffffffffffffffffffffffff1673ffffffffffffffffffffffffffffffffffffffff168152602001908152602001600020905080600001816001015482600201548360030154838054610a06906123af565b80601f0160208091040260200160405190810160405280929190818152602001828054610a32906123af565b8015610a7f5780601f10610a5457610100808354040283529160200191610a7f565b820191906000526020600020905b815481529060010190602001808311610a6257829003601f168201915b505050505093509450945094509450509193509193565b6003602052806000526040600020600091509050806000018054610ab9906123af565b80601f0160208091040260200160405190810160405280929190818152602001828054610ae5906123af565b8015610b325780601f10610b0757610100808354040283529160200191610b32565b820191906000526020600020905b815481529060010190602001808311610b1557829003601f168201915b505050505090806001015490806002018054610b4d906123af565b80601f0160208091040260200160405190810160405280929190818152602001828054610b79906123af565b8015610bc65780601f10610b9b57610100808354040283529160200191610bc6565b820191906000526020600020905b815481529060010190602001808311610ba957829003601f168201915b505050505090806003018054610bdb906123af565b80601f0160208091040260200160405190810160405280929190818152602001828054610c07906123af565b8015610c545780601f10610c2957610100808354040283529160200191610c54565b820191906000526020600020905b815481529060010190602001808311610c3757829003601f168201915b5050505050908060040160009054906101000a900460ff16908060040160019054906101000a900460ff16908060050154908060060154905088565b66470de4df82000081565b6002602052806000526040600020600091509050806000018054610cbe906123af565b80601f0160208091040260200160405190810160405280929190818152602001828054610cea906123af565b8015610d375780601f10610d0c57610100808354040283529160200191610d37565b820191906000526020600020905b815481529060010190602001808311610d1a57829003601f168201915b5050505050908060010154908060020154908060030154908060050160009054906101000a900460ff16905085565b610d6e611851565b610d7860006118cf565b565b600260003373ffffffffffffffffffffffffffffffffffffffff1673ffffffffffffffffffffffffffffffffffffffff16815260200190815260200160002060050160009054906101000a900460ff168015610e225750600260008273ffffffffffffffffffffffffffffffffffffffff1673ffffffffffffffffffffffffffffffffffffffff16815260200190815260200160002060050160009054906101000a900460ff165b610e61576040517f08c379a0000000000000000000000000000000000000000000000000000000008152600401610e5890612aa9565b60405180910390fd5b3373ffffffffffffffffffffffffffffffffffffffff168173ffffffffffffffffffffffffffffffffffffffff1603610ecf576040517f08c379a0000000000000000000000000000000000000000000000000000000008152600401610ec690612b15565b60405180910390fd5b6000610edc336000611993565b90506000610eeb836001611993565b905060008183119050801561109b576001600260003373ffffffffffffffffffffffffffffffffffffffff1673ffffffffffffffffffffffffffffffffffffffff1681526020019081526020016000206001016000828254610f4d9190612941565b92505081905550600a6008600260003373ffffffffffffffffffffffffffffffffffffffff1673ffffffffffffffffffffffffffffffffffffffff16815260200190815260200160002060020154610fa59190612b35565b610faf9190612b77565b600260003373ffffffffffffffffffffffffffffffffffffffff1673ffffffffffffffffffffffffffffffffffffffff16815260200190815260200160002060020181905550600a6008600260003373ffffffffffffffffffffffffffffffffffffffff1673ffffffffffffffffffffffffffffffffffffffff168152602001908152602001600020600301546110469190612b35565b6110509190612b77565b600260003373ffffffffffffffffffffffffffffffffffffffff1673ffffffffffffffffffffffffffffffffffffffff168152602001908152602001600020600301819055506111de565b600a6006600260003373ffffffffffffffffffffffffffffffffffffffff1673ffffffffffffffffffffffffffffffffffffffff168152602001908152602001600020600201546110ec9190612b35565b6110f69190612b77565b600260003373ffffffffffffffffffffffffffffffffffffffff1673ffffffffffffffffffffffffffffffffffffffff16815260200190815260200160002060020181905550600a6006600260003373ffffffffffffffffffffffffffffffffffffffff1673ffffffffffffffffffffffffffffffffffffffff1681526020019081526020016000206003015461118d9190612b35565b6111979190612b77565b600260003373ffffffffffffffffffffffffffffffffffffffff1673ffffffffffffffffffffffffffffffffffffffff168152602001908152602001600020600301819055505b8373ffffffffffffffffffffffffffffffffffffffff163373ffffffffffffffffffffffffffffffffffffffff167fe140066861257b53c07d803d0138b6eb631e7e5ac99e7cd9e7b4eca01e32fcf4838660405161123d929190612ba8565b60405180910390a350505050565b60008060009054906101000a900473ffffffffffffffffffffffffffffffffffffffff16905090565b606060006060806000806000806000600360008b8152602001908152602001600020604051806101000160405290816000820180546112b2906123af565b80601f01602080910402602001604051908101604052809291908181526020018280546112de906123af565b801561132b5780601f106113005761010080835404028352916020019161132b565b820191906000526020600020905b81548152906001019060200180831161130e57829003601f168201915b505050505081526020016001820154815260200160028201805461134e906123af565b80601f016020809104026020016040519081016040528092919081815260200182805461137a906123af565b80156113c75780601f1061139c576101008083540402835291602001916113c7565b820191906000526020600020905b8154815290600101906020018083116113aa57829003601f168201915b505050505081526020016003820180546113e0906123af565b80601f016020809104026020016040519081016040528092919081815260200182805461140c906123af565b80156114595780601f1061142e57610100808354040283529160200191611459565b820191906000526020600020905b81548152906001019060200180831161143c57829003601f168201915b505050505081526020016004820160009054906101000a900460ff161515151581526020016004820160019054906101000a900460ff16151515158152602001600582015481526020016006820154815250509050806000015181602001518260400151836060015184608001518560a001518660c001518760e001519850985098509850985098509850985050919395975091939597565b6114fa6117f9565b600260003373ffffffffffffffffffffffffffffffffffffffff1673ffffffffffffffffffffffffffffffffffffffff16815260200190815260200160002060050160009054906101000a900460ff16611589576040517f08c379a0000000000000000000000000000000000000000000000000000000008152600401611580906127a4565b60405180910390fd5b600066470de4df8200008261159e9190612b35565b662386f26fc10000846115b19190612b35565b6115bb9190612941565b905080341015611600576040517f08c379a00000000000000000000000000000000000000000000000000000000081526004016115f790612738565b60405180910390fd5b82600260003373ffffffffffffffffffffffffffffffffffffffff1673ffffffffffffffffffffffffffffffffffffffff16815260200190815260200160002060020160008282546116529190612941565b9250508190555081600260003373ffffffffffffffffffffffffffffffffffffffff1673ffffffffffffffffffffffffffffffffffffffff16815260200190815260200160002060030160008282546116ab9190612941565b925050819055503373ffffffffffffffffffffffffffffffffffffffff167faf29816cd11119a4c8c0eff4213407d9eee90e96234648827025b3dcda86af3984846040516116fa929190612bd1565b60405180910390a28034111561175d573373ffffffffffffffffffffffffffffffffffffffff166108fc82346117309190612a29565b9081150290604051600060405180830381858888f1935050505015801561175b573d6000803e3d6000fd5b505b50611766611848565b5050565b67016345785d8a000081565b61177e611851565b600073ffffffffffffffffffffffffffffffffffffffff168173ffffffffffffffffffffffffffffffffffffffff16036117ed576040517f08c379a00000000000000000000000000000000000000000000000000000000081526004016117e490612c6c565b60405180910390fd5b6117f6816118cf565b50565b60026001540361183e576040517f08c379a000000000000000000000000000000000000000000000000000000000815260040161183590612cd8565b60405180910390fd5b6002600181905550565b60018081905550565b611859611db9565b73ffffffffffffffffffffffffffffffffffffffff1661187761124b565b73ffffffffffffffffffffffffffffffffffffffff16146118cd576040517f08c379a00000000000000000000000000000000000000000000000000000000081526004016118c490612d44565b60405180910390fd5b565b60008060009054906101000a900473ffffffffffffffffffffffffffffffffffffffff169050816000806101000a81548173ffffffffffffffffffffffffffffffffffffffff021916908373ffffffffffffffffffffffffffffffffffffffff1602179055508173ffffffffffffffffffffffffffffffffffffffff168173ffffffffffffffffffffffffffffffffffffffff167f8be0079c531659141344cd1fd0a4f28419497f9722a3daafe3b4186f6b6457e060405160405180910390a35050565b60008060649050600060649050600080600190505b60058111611ccd57600260008873ffffffffffffffffffffffffffffffffffffffff1673ffffffffffffffffffffffffffffffffffffffff168152602001908152602001600020600401600082815260200190815260200160002060009054906101000a900460ff1615611cba5760006003600083815260200190815260200160002060405180610100016040529081600082018054611a47906123af565b80601f0160208091040260200160405190810160405280929190818152602001828054611a73906123af565b8015611ac05780601f10611a9557610100808354040283529160200191611ac0565b820191906000526020600020905b815481529060010190602001808311611aa357829003601f168201915b5050505050815260200160018201548152602001600282018054611ae3906123af565b80601f0160208091040260200160405190810160405280929190818152602001828054611b0f906123af565b8015611b5c5780601f10611b3157610100808354040283529160200191611b5c565b820191906000526020600020905b815481529060010190602001808311611b3f57829003601f168201915b50505050508152602001600382018054611b75906123af565b80601f0160208091040260200160405190810160405280929190818152602001828054611ba1906123af565b8015611bee5780601f10611bc357610100808354040283529160200191611bee565b820191906000526020600020905b815481529060010190602001808311611bd157829003601f168201915b505050505081526020016004820160009054906101000a900460ff161515151581526020016004820160019054906101000a900460ff1615151515815260200160058201548152602001600682015481525050905086158015611c52575080608001515b15611c6a57806020015183611c679190612941565b92505b868015611c7857508060a001515b15611c9057806020015183611c8d9190612941565b92505b848160c001511115611ca4578060c0015194505b838160e001511115611cb8578060e0015193505b505b8080611cc5906128f9565b9150506119a8565b506000606484600260008a73ffffffffffffffffffffffffffffffffffffffff1673ffffffffffffffffffffffffffffffffffffffff16815260200190815260200160002060020154611d209190612b35565b611d2a9190612b77565b9050600060648460028060008c73ffffffffffffffffffffffffffffffffffffffff1673ffffffffffffffffffffffffffffffffffffffff16815260200190815260200160002060030154611d7f9190612b35565b611d899190612b35565b611d939190612b77565b9050828183611da29190612941565b611dac9190612941565b9550505050505092915050565b600033905090565b6000604051905090565b600080fd5b600080fd5b600080fd5b600080fd5b6000601f19601f8301169050919050565b7f4e487b7100000000000000000000000000000000000000000000000000000000600052604160045260246000fd5b611e2882611ddf565b810181811067ffffffffffffffff82111715611e4757611e46611df0565b5b80604052505050565b6000611e5a611dc1565b9050611e668282611e1f565b919050565b600067ffffffffffffffff821115611e8657611e85611df0565b5b611e8f82611ddf565b9050602081019050919050565b82818337600083830152505050565b6000611ebe611eb984611e6b565b611e50565b905082815260208101848484011115611eda57611ed9611dda565b5b611ee5848285611e9c565b509392505050565b600082601f830112611f0257611f01611dd5565b5b8135611f12848260208601611eab565b91505092915050565b600060208284031215611f3157611f30611dcb565b5b600082013567ffffffffffffffff811115611f4f57611f4e611dd0565b5b611f5b84828501611eed565b91505092915050565b600073ffffffffffffffffffffffffffffffffffffffff82169050919050565b6000611f8f82611f64565b9050919050565b611f9f81611f84565b8114611faa57600080fd5b50565b600081359050611fbc81611f96565b92915050565b6000819050919050565b611fd581611fc2565b8114611fe057600080fd5b50565b600081359050611ff281611fcc565b92915050565b6000806040838503121561200f5761200e611dcb565b5b600061201d85828601611fad565b925050602061202e85828601611fe3565b9150509250929050565b60008115159050919050565b61204d81612038565b82525050565b60006020820190506120686000830184612044565b92915050565b61207781611fc2565b82525050565b6000602082019050612092600083018461206e565b92915050565b6000602082840312156120ae576120ad611dcb565b5b60006120bc84828501611fad565b91505092915050565b600081519050919050565b600082825260208201905092915050565b60005b838110156120ff5780820151818401526020810190506120e4565b60008484015250505050565b6000612116826120c5565b61212081856120d0565b93506121308185602086016120e1565b61213981611ddf565b840191505092915050565b6000608082019050818103600083015261215e818761210b565b905061216d602083018661206e565b61217a604083018561206e565b612187606083018461206e565b95945050505050565b6000602082840312156121a6576121a5611dcb565b5b60006121b484828501611fe3565b91505092915050565b60006101008201905081810360008301526121d8818b61210b565b90506121e7602083018a61206e565b81810360408301526121f9818961210b565b9050818103606083015261220d818861210b565b905061221c6080830187612044565b61222960a0830186612044565b61223660c083018561206e565b61224360e083018461206e565b9998505050505050505050565b600060a082019050818103600083015261226a818861210b565b9050612279602083018761206e565b612286604083018661206e565b612293606083018561206e565b6122a06080830184612044565b9695505050505050565b6122b381611f84565b82525050565b60006020820190506122ce60008301846122aa565b92915050565b600080604083850312156122eb576122ea611dcb565b5b60006122f985828601611fe3565b925050602061230a85828601611fe3565b9150509250929050565b7f4b68616e61746520616c72656164792065786973747300000000000000000000600082015250565b600061234a6016836120d0565b915061235582612314565b602082019050919050565b600060208201905081810360008301526123798161233d565b9050919050565b7f4e487b7100000000000000000000000000000000000000000000000000000000600052602260045260246000fd5b600060028204905060018216806123c757607f821691505b6020821081036123da576123d9612380565b5b50919050565b60008190508160005260206000209050919050565b60006020601f8301049050919050565b600082821b905092915050565b6000600883026124427fffffffffffffffffffffffffffffffffffffffffffffffffffffffffffffffff82612405565b61244c8683612405565b95508019841693508086168417925050509392505050565b6000819050919050565b600061248961248461247f84611fc2565b612464565b611fc2565b9050919050565b6000819050919050565b6124a38361246e565b6124b76124af82612490565b848454612412565b825550505050565b600090565b6124cc6124bf565b6124d781848461249a565b505050565b5b818110156124fb576124f06000826124c4565b6001810190506124dd565b5050565b601f82111561254057612511816123e0565b61251a846123f5565b81016020851015612529578190505b61253d612535856123f5565b8301826124dc565b50505b505050565b600082821c905092915050565b600061256360001984600802612545565b1980831691505092915050565b600061257c8383612552565b9150826002028217905092915050565b612595826120c5565b67ffffffffffffffff8111156125ae576125ad611df0565b5b6125b882546123af565b6125c38282856124ff565b600060209050601f8311600181146125f657600084156125e4578287015190505b6125ee8582612570565b865550612656565b601f198416612604866123e0565b60005b8281101561262c57848901518255600182019150602085019450602081019050612607565b868310156126495784890151612645601f891682612552565b8355505b6001600288020188555050505b505050505050565b60006020820190508181036000830152612678818461210b565b905092915050565b7f496e76616c696420426174797220494400000000000000000000000000000000600082015250565b60006126b66010836120d0565b91506126c182612680565b602082019050919050565b600060208201905081810360008301526126e5816126a9565b9050919050565b7f496e73756666696369656e74207061796d656e74000000000000000000000000600082015250565b60006127226014836120d0565b915061272d826126ec565b602082019050919050565b6000602082019050818103600083015261275181612715565b9050919050565b7f4b68616e617465206e6f7420696e697469616c697a6564000000000000000000600082015250565b600061278e6017836120d0565b915061279982612758565b602082019050919050565b600060208201905081810360008301526127bd81612781565b9050919050565b6000819050919050565b6127df6127da82611fc2565b6127c4565b82525050565b60008160601b9050919050565b60006127fd826127e5565b9050919050565b600061280f826127f2565b9050919050565b61282761282282611f84565b612804565b82525050565b600061283982866127ce565b60208201915061284982856127ce565b6020820191506128598284612816565b601482019150819050949350505050565b7f4e487b7100000000000000000000000000000000000000000000000000000000600052601260045260246000fd5b60006128a482611fc2565b91506128af83611fc2565b9250826128bf576128be61286a565b5b828206905092915050565b7f4e487b7100000000000000000000000000000000000000000000000000000000600052601160045260246000fd5b600061290482611fc2565b91507fffffffffffffffffffffffffffffffffffffffffffffffffffffffffffffffff8203612936576129356128ca565b5b600182019050919050565b600061294c82611fc2565b915061295783611fc2565b925082820190508082111561296f5761296e6128ca565b5b92915050565b60008154612982816123af565b61298c81866120d0565b945060018216600081146129a757600181146129bd576129f0565b60ff1983168652811515602002860193506129f0565b6129c6856123e0565b60005b838110156129e8578154818901526001820191506020810190506129c9565b808801955050505b50505092915050565b6000604082019050612a0e600083018561206e565b8181036020830152612a208184612975565b90509392505050565b6000612a3482611fc2565b9150612a3f83611fc2565b9250828203905081811115612a5757612a566128ca565b5b92915050565b7f496e76616c6964206b68616e6174657300000000000000000000000000000000600082015250565b6000612a936010836120d0565b9150612a9e82612a5d565b602082019050919050565b60006020820190508181036000830152612ac281612a86565b9050919050565b7f43616e6e6f7420626174746c6520796f757273656c6600000000000000000000600082015250565b6000612aff6016836120d0565b9150612b0a82612ac9565b602082019050919050565b60006020820190508181036000830152612b2e81612af2565b9050919050565b6000612b4082611fc2565b9150612b4b83611fc2565b9250828202612b5981611fc2565b91508282048414831517612b7057612b6f6128ca565b5b5092915050565b6000612b8282611fc2565b9150612b8d83611fc2565b925082612b9d57612b9c61286a565b5b828204905092915050565b6000604082019050612bbd6000830185612044565b612bca602083018461206e565b9392505050565b6000604082019050612be6600083018561206e565b612bf3602083018461206e565b9392505050565b7f4f776e61626c653a206e6577206f776e657220697320746865207a65726f206160008201527f6464726573730000000000000000000000000000000000000000000000000000602082015250565b6000612c566026836120d0565b9150612c6182612bfa565b604082019050919050565b60006020820190508181036000830152612c8581612c49565b9050919050565b7f5265656e7472616e637947756172643a207265656e7472616e742063616c6c00600082015250565b6000612cc2601f836120d0565b9150612ccd82612c8c565b602082019050919050565b60006020820190508181036000830152612cf181612cb5565b9050919050565b7f4f776e61626c653a2063616c6c6572206973206e6f7420746865206f776e6572600082015250565b6000612d2e6020836120d0565b9150612d3982612cf8565b602082019050919050565b60006020820190508181036000830152612d5d81612d21565b905091905056fea2646970667358221220478dc3f1f4a837dbe8effc9bfcb781b26f910610088e00ecc2b49195adf849a764736f6c6343000813003341206272696c6c69616e7420737472617465676973742077686f20656e68616e63657320616c6c2074726f6f707327206566666563746976656e6573732062792032302541206d6173746572206f6620636f6d62696e65642061726d7320746163746963732e2050726f76696465732062616c616e63656420626f6e7573657320746f20616c6c20756e69747341207374616c7761727420646566656e646572206f6620746865204b617a616b68206c616e64732e2050726f7669646573207374726f6e6720646566656e7369766520626f6e75736573206275742063616e6e6f7420706172746963697061746520696e2061747461636b7341206c6567656e646172792077617272696f72206b6e6f776e20666f722068697320636176616c727920746163746963732e20496e6372656173657320636176616c7279206566666563746976656e657373206279203530254d6173746572206f66206172636865727920746163746963732e20496e6372656173657320617263686572206566666563746976656e65737320627920353025","opcodes":"PUSH1 0x80 PUSH1 0x40 MSTORE CALLVALUE DUP1 ISZERO PUSH3 0x11 JUMPI PUSH1 0x0 DUP1 REVERT JUMPDEST POP PUSH3 0x32 PUSH3 0x26 PUSH3 0x7CE PUSH1 0x20 SHL PUSH1 0x20 SHR JUMP JUMPDEST PUSH3 0x7D6 PUSH1 0x20 SHL PUSH1 0x20 SHR JUMP JUMPDEST PUSH1 0x1 DUP1 DUP2 SWAP1 SSTORE POP PUSH1 0x40 MLOAD DUP1 PUSH2 0x100 ADD PUSH1 0x40 MSTORE DUP1 PUSH1 0x40 MLOAD DUP1 PUSH1 0x40 ADD PUSH1 0x40 MSTORE DUP1 PUSH1 0xE DUP2 MSTORE PUSH1 0x20 ADD PUSH32 0x4B6162616E626179204261747972000000000000000000000000000000000000 DUP2 MSTORE POP DUP2 MSTORE PUSH1 0x20 ADD PUSH1 0x1E DUP2 MSTORE PUSH1 0x20 ADD PUSH1 0x40 MLOAD DUP1 PUSH1 0x40 ADD PUSH1 0x40 MSTORE DUP1 PUSH1 0x11 DUP2 MSTORE PUSH1 0x20 ADD PUSH32 0x436176616C727920436F6D6D616E646572000000000000000000000000000000 DUP2 MSTORE POP DUP2 MSTORE PUSH1 0x20 ADD PUSH1 0x40 MLOAD DUP1 PUSH1 0x80 ADD PUSH1 0x40 MSTORE DUP1 PUSH1 0x59 DUP2 MSTORE PUSH1 0x20 ADD PUSH3 0x3A9E PUSH1 0x59 SWAP2 CODECOPY DUP2 MSTORE PUSH1 0x20 ADD PUSH1 0x1 ISZERO ISZERO DUP2 MSTORE PUSH1 0x20 ADD PUSH1 0x0 ISZERO ISZERO DUP2 MSTORE PUSH1 0x20 ADD PUSH1 0x64 DUP2 MSTORE PUSH1 0x20 ADD PUSH1 0x96 DUP2 MSTORE POP PUSH1 0x3 PUSH1 0x0 PUSH1 0x1 DUP2 MSTORE PUSH1 0x20 ADD SWAP1 DUP2 MSTORE PUSH1 0x20 ADD PUSH1 0x0 KECCAK256 PUSH1 0x0 DUP3 ADD MLOAD DUP2 PUSH1 0x0 ADD SWAP1 DUP2 PUSH3 0x12A SWAP2 SWAP1 PUSH3 0xB14 JUMP JUMPDEST POP PUSH1 0x20 DUP3 ADD MLOAD DUP2 PUSH1 0x1 ADD SSTORE PUSH1 0x40 DUP3 ADD MLOAD DUP2 PUSH1 0x2 ADD SWAP1 DUP2 PUSH3 0x14C SWAP2 SWAP1 PUSH3 0xB14 JUMP JUMPDEST POP PUSH1 0x60 DUP3 ADD MLOAD DUP2 PUSH1 0x3 ADD SWAP1 DUP2 PUSH3 0x164 SWAP2 SWAP1 PUSH3 0xB14 JUMP JUMPDEST POP PUSH1 0x80 DUP3 ADD MLOAD DUP2 PUSH1 0x4 ADD PUSH1 0x0 PUSH2 0x100 EXP DUP2 SLOAD DUP2 PUSH1 0xFF MUL NOT AND SWAP1 DUP4 ISZERO ISZERO MUL OR SWAP1 SSTORE POP PUSH1 0xA0 DUP3 ADD MLOAD DUP2 PUSH1 0x4 ADD PUSH1 0x1 PUSH2 0x100 EXP DUP2 SLOAD DUP2 PUSH1 0xFF MUL NOT AND SWAP1 DUP4 ISZERO ISZERO MUL OR SWAP1 SSTORE POP PUSH1 0xC0 DUP3 ADD MLOAD DUP2 PUSH1 0x5 ADD SSTORE PUSH1 0xE0 DUP3 ADD MLOAD DUP2 PUSH1 0x6 ADD SSTORE SWAP1 POP POP PUSH1 0x40 MLOAD DUP1 PUSH2 0x100 ADD PUSH1 0x40 MSTORE DUP1 PUSH1 0x40 MLOAD DUP1 PUSH1 0x40 ADD PUSH1 0x40 MSTORE DUP1 PUSH1 0xF DUP2 MSTORE PUSH1 0x20 ADD PUSH32 0x4B6F62796C616E64792042617479720000000000000000000000000000000000 DUP2 MSTORE POP DUP2 MSTORE PUSH1 0x20 ADD PUSH1 0x19 DUP2 MSTORE PUSH1 0x20 ADD PUSH1 0x40 MLOAD DUP1 PUSH1 0x40 ADD PUSH1 0x40 MSTORE DUP1 PUSH1 0xF DUP2 MSTORE PUSH1 0x20 ADD PUSH32 0x4D617374657220446566656E6465720000000000000000000000000000000000 DUP2 MSTORE POP DUP2 MSTORE PUSH1 0x20 ADD PUSH1 0x40 MLOAD DUP1 PUSH1 0xA0 ADD PUSH1 0x40 MSTORE DUP1 PUSH1 0x6C DUP2 MSTORE PUSH1 0x20 ADD PUSH3 0x3A32 PUSH1 0x6C SWAP2 CODECOPY DUP2 MSTORE PUSH1 0x20 ADD PUSH1 0x0 ISZERO ISZERO DUP2 MSTORE PUSH1 0x20 ADD PUSH1 0x1 ISZERO ISZERO DUP2 MSTORE PUSH1 0x20 ADD PUSH1 0x64 DUP2 MSTORE PUSH1 0x20 ADD PUSH1 0x64 DUP2 MSTORE POP PUSH1 0x3 PUSH1 0x0 PUSH1 0x2 DUP2 MSTORE PUSH1 0x20 ADD SWAP1 DUP2 MSTORE PUSH1 0x20 ADD PUSH1 0x0 KECCAK256 PUSH1 0x0 DUP3 ADD MLOAD DUP2 PUSH1 0x0 ADD SWAP1 DUP2 PUSH3 0x2AD SWAP2 SWAP1 PUSH3 0xB14 JUMP JUMPDEST POP PUSH1 0x20 DUP3 ADD MLOAD DUP2 PUSH1 0x1 ADD SSTORE PUSH1 0x40 DUP3 ADD MLOAD DUP2 PUSH1 0x2 ADD SWAP1 DUP2 PUSH3 0x2CF SWAP2 SWAP1 PUSH3 0xB14 JUMP JUMPDEST POP PUSH1 0x60 DUP3 ADD MLOAD DUP2 PUSH1 0x3 ADD SWAP1 DUP2 PUSH3 0x2E7 SWAP2 SWAP1 PUSH3 0xB14 JUMP JUMPDEST POP PUSH1 0x80 DUP3 ADD MLOAD DUP2 PUSH1 0x4 ADD PUSH1 0x0 PUSH2 0x100 EXP DUP2 SLOAD DUP2 PUSH1 0xFF MUL NOT AND SWAP1 DUP4 ISZERO ISZERO MUL OR SWAP1 SSTORE POP PUSH1 0xA0 DUP3 ADD MLOAD DUP2 PUSH1 0x4 ADD PUSH1 0x1 PUSH2 0x100 EXP DUP2 SLOAD DUP2 PUSH1 0xFF MUL NOT AND SWAP1 DUP4 ISZERO ISZERO MUL OR SWAP1 SSTORE POP PUSH1 0xC0 DUP3 ADD MLOAD DUP2 PUSH1 0x5 ADD SSTORE PUSH1 0xE0 DUP3 ADD MLOAD DUP2 PUSH1 0x6 ADD SSTORE SWAP1 POP POP PUSH1 0x40 MLOAD DUP1 PUSH2 0x100 ADD PUSH1 0x40 MSTORE DUP1 PUSH1 0x40 MLOAD DUP1 PUSH1 0x40 ADD PUSH1 0x40 MSTORE DUP1 PUSH1 0xB DUP2 MSTORE PUSH1 0x20 ADD PUSH32 0x4162796C6169204B68616E000000000000000000000000000000000000000000 DUP2 MSTORE POP DUP2 MSTORE PUSH1 0x20 ADD PUSH1 0x14 DUP2 MSTORE PUSH1 0x20 ADD PUSH1 0x40 MLOAD DUP1 PUSH1 0x40 ADD PUSH1 0x40 MSTORE DUP1 PUSH1 0x10 DUP2 MSTORE PUSH1 0x20 ADD PUSH32 0x537472617465676963204C656164657200000000000000000000000000000000 DUP2 MSTORE POP DUP2 MSTORE PUSH1 0x20 ADD PUSH1 0x40 MLOAD DUP1 PUSH1 0x80 ADD PUSH1 0x40 MSTORE DUP1 PUSH1 0x44 DUP2 MSTORE PUSH1 0x20 ADD PUSH3 0x39A5 PUSH1 0x44 SWAP2 CODECOPY DUP2 MSTORE PUSH1 0x20 ADD PUSH1 0x1 ISZERO ISZERO DUP2 MSTORE PUSH1 0x20 ADD PUSH1 0x1 ISZERO ISZERO DUP2 MSTORE PUSH1 0x20 ADD PUSH1 0x78 DUP2 MSTORE PUSH1 0x20 ADD PUSH1 0x78 DUP2 MSTORE POP PUSH1 0x3 PUSH1 0x0 PUSH1 0x3 DUP2 MSTORE PUSH1 0x20 ADD SWAP1 DUP2 MSTORE PUSH1 0x20 ADD PUSH1 0x0 KECCAK256 PUSH1 0x0 DUP3 ADD MLOAD DUP2 PUSH1 0x0 ADD SWAP1 DUP2 PUSH3 0x430 SWAP2 SWAP1 PUSH3 0xB14 JUMP JUMPDEST POP PUSH1 0x20 DUP3 ADD MLOAD DUP2 PUSH1 0x1 ADD SSTORE PUSH1 0x40 DUP3 ADD MLOAD DUP2 PUSH1 0x2 ADD SWAP1 DUP2 PUSH3 0x452 SWAP2 SWAP1 PUSH3 0xB14 JUMP JUMPDEST POP PUSH1 0x60 DUP3 ADD MLOAD DUP2 PUSH1 0x3 ADD SWAP1 DUP2 PUSH3 0x46A SWAP2 SWAP1 PUSH3 0xB14 JUMP JUMPDEST POP PUSH1 0x80 DUP3 ADD MLOAD DUP2 PUSH1 0x4 ADD PUSH1 0x0 PUSH2 0x100 EXP DUP2 SLOAD DUP2 PUSH1 0xFF MUL NOT AND SWAP1 DUP4 ISZERO ISZERO MUL OR SWAP1 SSTORE POP PUSH1 0xA0 DUP3 ADD MLOAD DUP2 PUSH1 0x4 ADD PUSH1 0x1 PUSH2 0x100 EXP DUP2 SLOAD DUP2 PUSH1 0xFF MUL NOT AND SWAP1 DUP4 ISZERO ISZERO MUL OR SWAP1 SSTORE POP PUSH1 0xC0 DUP3 ADD MLOAD DUP2 PUSH1 0x5 ADD SSTORE PUSH1 0xE0 DUP3 ADD MLOAD DUP2 PUSH1 0x6 ADD SSTORE SWAP1 POP POP PUSH1 0x40 MLOAD DUP1 PUSH2 0x100 ADD PUSH1 0x40 MSTORE DUP1 PUSH1 0x40 MLOAD DUP1 PUSH1 0x40 ADD PUSH1 0x40 MSTORE DUP1 PUSH1 0xE DUP2 MSTORE PUSH1 0x20 ADD PUSH32 0x5261696D67617A79204261747972000000000000000000000000000000000000 DUP2 MSTORE POP DUP2 MSTORE PUSH1 0x20 ADD PUSH1 0x16 DUP2 MSTORE PUSH1 0x20 ADD PUSH1 0x40 MLOAD DUP1 PUSH1 0x40 ADD PUSH1 0x40 MSTORE DUP1 PUSH1 0x10 DUP2 MSTORE PUSH1 0x20 ADD PUSH32 0x41726368657220436F6D6D616E64657200000000000000000000000000000000 DUP2 MSTORE POP DUP2 MSTORE PUSH1 0x20 ADD PUSH1 0x40 MLOAD DUP1 PUSH1 0x60 ADD PUSH1 0x40 MSTORE DUP1 PUSH1 0x40 DUP2 MSTORE PUSH1 0x20 ADD PUSH3 0x3AF7 PUSH1 0x40 SWAP2 CODECOPY DUP2 MSTORE PUSH1 0x20 ADD PUSH1 0x1 ISZERO ISZERO DUP2 MSTORE PUSH1 0x20 ADD PUSH1 0x0 ISZERO ISZERO DUP2 MSTORE PUSH1 0x20 ADD PUSH1 0x96 DUP2 MSTORE PUSH1 0x20 ADD PUSH1 0x64 DUP2 MSTORE POP PUSH1 0x3 PUSH1 0x0 PUSH1 0x4 DUP2 MSTORE PUSH1 0x20 ADD SWAP1 DUP2 MSTORE PUSH1 0x20 ADD PUSH1 0x0 KECCAK256 PUSH1 0x0 DUP3 ADD MLOAD DUP2 PUSH1 0x0 ADD SWAP1 DUP2 PUSH3 0x5B3 SWAP2 SWAP1 PUSH3 0xB14 JUMP JUMPDEST POP PUSH1 0x20 DUP3 ADD MLOAD DUP2 PUSH1 0x1 ADD SSTORE PUSH1 0x40 DUP3 ADD MLOAD DUP2 PUSH1 0x2 ADD SWAP1 DUP2 PUSH3 0x5D5 SWAP2 SWAP1 PUSH3 0xB14 JUMP JUMPDEST POP PUSH1 0x60 DUP3 ADD MLOAD DUP2 PUSH1 0x3 ADD SWAP1 DUP2 PUSH3 0x5ED SWAP2 SWAP1 PUSH3 0xB14 JUMP JUMPDEST POP PUSH1 0x80 DUP3 ADD MLOAD DUP2 PUSH1 0x4 ADD PUSH1 0x0 PUSH2 0x100 EXP DUP2 SLOAD DUP2 PUSH1 0xFF MUL NOT AND SWAP1 DUP4 ISZERO ISZERO MUL OR SWAP1 SSTORE POP PUSH1 0xA0 DUP3 ADD MLOAD DUP2 PUSH1 0x4 ADD PUSH1 0x1 PUSH2 0x100 EXP DUP2 SLOAD DUP2 PUSH1 0xFF MUL NOT AND SWAP1 DUP4 ISZERO ISZERO MUL OR SWAP1 SSTORE POP PUSH1 0xC0 DUP3 ADD MLOAD DUP2 PUSH1 0x5 ADD SSTORE PUSH1 0xE0 DUP3 ADD MLOAD DUP2 PUSH1 0x6 ADD SSTORE SWAP1 POP POP PUSH1 0x40 MLOAD DUP1 PUSH2 0x100 ADD PUSH1 0x40 MSTORE DUP1 PUSH1 0x40 MLOAD DUP1 PUSH1 0x40 ADD PUSH1 0x40 MSTORE DUP1 PUSH1 0xA DUP2 MSTORE PUSH1 0x20 ADD PUSH32 0x5372796D204461746F7600000000000000000000000000000000000000000000 DUP2 MSTORE POP DUP2 MSTORE PUSH1 0x20 ADD PUSH1 0x15 DUP2 MSTORE PUSH1 0x20 ADD PUSH1 0x40 MLOAD DUP1 PUSH1 0x40 ADD PUSH1 0x40 MSTORE DUP1 PUSH1 0xF DUP2 MSTORE PUSH1 0x20 ADD PUSH32 0x546163746963616C2047656E6975730000000000000000000000000000000000 DUP2 MSTORE POP DUP2 MSTORE PUSH1 0x20 ADD PUSH1 0x40 MLOAD DUP1 PUSH1 0x80 ADD PUSH1 0x40 MSTORE DUP1 PUSH1 0x49 DUP2 MSTORE PUSH1 0x20 ADD PUSH3 0x39E9 PUSH1 0x49 SWAP2 CODECOPY DUP2 MSTORE PUSH1 0x20 ADD PUSH1 0x1 ISZERO ISZERO DUP2 MSTORE PUSH1 0x20 ADD PUSH1 0x1 ISZERO ISZERO DUP2 MSTORE PUSH1 0x20 ADD PUSH1 0x82 DUP2 MSTORE PUSH1 0x20 ADD PUSH1 0x82 DUP2 MSTORE POP PUSH1 0x3 PUSH1 0x0 PUSH1 0x5 DUP2 MSTORE PUSH1 0x20 ADD SWAP1 DUP2 MSTORE PUSH1 0x20 ADD PUSH1 0x0 KECCAK256 PUSH1 0x0 DUP3 ADD MLOAD DUP2 PUSH1 0x0 ADD SWAP1 DUP2 PUSH3 0x736 SWAP2 SWAP1 PUSH3 0xB14 JUMP JUMPDEST POP PUSH1 0x20 DUP3 ADD MLOAD DUP2 PUSH1 0x1 ADD SSTORE PUSH1 0x40 DUP3 ADD MLOAD DUP2 PUSH1 0x2 ADD SWAP1 DUP2 PUSH3 0x758 SWAP2 SWAP1 PUSH3 0xB14 JUMP JUMPDEST POP PUSH1 0x60 DUP3 ADD MLOAD DUP2 PUSH1 0x3 ADD SWAP1 DUP2 PUSH3 0x770 SWAP2 SWAP1 PUSH3 0xB14 JUMP JUMPDEST POP PUSH1 0x80 DUP3 ADD MLOAD DUP2 PUSH1 0x4 ADD PUSH1 0x0 PUSH2 0x100 EXP DUP2 SLOAD DUP2 PUSH1 0xFF MUL NOT AND SWAP1 DUP4 ISZERO ISZERO MUL OR SWAP1 SSTORE POP PUSH1 0xA0 DUP3 ADD MLOAD DUP2 PUSH1 0x4 ADD PUSH1 0x1 PUSH2 0x100 EXP DUP2 SLOAD DUP2 PUSH1 0xFF MUL NOT AND SWAP1 DUP4 ISZERO ISZERO MUL OR SWAP1 SSTORE POP PUSH1 0xC0 DUP3 ADD MLOAD DUP2 PUSH1 0x5 ADD SSTORE PUSH1 0xE0 DUP3 ADD MLOAD DUP2 PUSH1 0x6 ADD SSTORE SWAP1 POP POP PUSH3 0xBFB JUMP JUMPDEST PUSH1 0x0 CALLER SWAP1 POP SWAP1 JUMP JUMPDEST PUSH1 0x0 DUP1 PUSH1 0x0 SWAP1 SLOAD SWAP1 PUSH2 0x100 EXP SWAP1 DIV PUSH20 0xFFFFFFFFFFFFFFFFFFFFFFFFFFFFFFFFFFFFFFFF AND SWAP1 POP DUP2 PUSH1 0x0 DUP1 PUSH2 0x100 EXP DUP2 SLOAD DUP2 PUSH20 0xFFFFFFFFFFFFFFFFFFFFFFFFFFFFFFFFFFFFFFFF MUL NOT AND SWAP1 DUP4 PUSH20 0xFFFFFFFFFFFFFFFFFFFFFFFFFFFFFFFFFFFFFFFF AND MUL OR SWAP1 SSTORE POP DUP2 PUSH20 0xFFFFFFFFFFFFFFFFFFFFFFFFFFFFFFFFFFFFFFFF AND DUP2 PUSH20 0xFFFFFFFFFFFFFFFFFFFFFFFFFFFFFFFFFFFFFFFF AND PUSH32 0x8BE0079C531659141344CD1FD0A4F28419497F9722A3DAAFE3B4186F6B6457E0 PUSH1 0x40 MLOAD PUSH1 0x40 MLOAD DUP1 SWAP2 SUB SWAP1 LOG3 POP POP JUMP JUMPDEST PUSH1 0x0 DUP2 MLOAD SWAP1 POP SWAP2 SWAP1 POP JUMP JUMPDEST PUSH32 0x4E487B7100000000000000000000000000000000000000000000000000000000 PUSH1 0x0 MSTORE PUSH1 0x41 PUSH1 0x4 MSTORE PUSH1 0x24 PUSH1 0x0 REVERT JUMPDEST PUSH32 0x4E487B7100000000000000000000000000000000000000000000000000000000 PUSH1 0x0 MSTORE PUSH1 0x22 PUSH1 0x4 MSTORE PUSH1 0x24 PUSH1 0x0 REVERT JUMPDEST PUSH1 0x0 PUSH1 0x2 DUP3 DIV SWAP1 POP PUSH1 0x1 DUP3 AND DUP1 PUSH3 0x91C JUMPI PUSH1 0x7F DUP3 AND SWAP2 POP JUMPDEST PUSH1 0x20 DUP3 LT DUP2 SUB PUSH3 0x932 JUMPI PUSH3 0x931 PUSH3 0x8D4 JUMP JUMPDEST JUMPDEST POP SWAP2 SWAP1 POP JUMP JUMPDEST PUSH1 0x0 DUP2 SWAP1 POP DUP2 PUSH1 0x0 MSTORE PUSH1 0x20 PUSH1 0x0 KECCAK256 SWAP1 POP SWAP2 SWAP1 POP JUMP JUMPDEST PUSH1 0x0 PUSH1 0x20 PUSH1 0x1F DUP4 ADD DIV SWAP1 POP SWAP2 SWAP1 POP JUMP JUMPDEST PUSH1 0x0 DUP3 DUP3 SHL SWAP1 POP SWAP3 SWAP2 POP POP JUMP JUMPDEST PUSH1 0x0 PUSH1 0x8 DUP4 MUL PUSH3 0x99C PUSH32 0xFFFFFFFFFFFFFFFFFFFFFFFFFFFFFFFFFFFFFFFFFFFFFFFFFFFFFFFFFFFFFFFF DUP3 PUSH3 0x95D JUMP JUMPDEST PUSH3 0x9A8 DUP7 DUP4 PUSH3 0x95D JUMP JUMPDEST SWAP6 POP DUP1 NOT DUP5 AND SWAP4 POP DUP1 DUP7 AND DUP5 OR SWAP3 POP POP POP SWAP4 SWAP3 POP POP POP JUMP JUMPDEST PUSH1 0x0 DUP2 SWAP1 POP SWAP2 SWAP1 POP JUMP JUMPDEST PUSH1 0x0 DUP2 SWAP1 POP SWAP2 SWAP1 POP JUMP JUMPDEST PUSH1 0x0 PUSH3 0x9F5 PUSH3 0x9EF PUSH3 0x9E9 DUP5 PUSH3 0x9C0 JUMP JUMPDEST PUSH3 0x9CA JUMP JUMPDEST PUSH3 0x9C0 JUMP JUMPDEST SWAP1 POP SWAP2 SWAP1 POP JUMP JUMPDEST PUSH1 0x0 DUP2 SWAP1 POP SWAP2 SWAP1 POP JUMP JUMPDEST PUSH3 0xA11 DUP4 PUSH3 0x9D4 JUMP JUMPDEST PUSH3 0xA29 PUSH3 0xA20 DUP3 PUSH3 0x9FC JUMP JUMPDEST DUP5 DUP5 SLOAD PUSH3 0x96A JUMP JUMPDEST DUP3 SSTORE POP POP POP POP JUMP JUMPDEST PUSH1 0x0 SWAP1 JUMP JUMPDEST PUSH3 0xA40 PUSH3 0xA31 JUMP JUMPDEST PUSH3 0xA4D DUP2 DUP5 DUP5 PUSH3 0xA06 JUMP JUMPDEST POP POP POP JUMP JUMPDEST JUMPDEST DUP2 DUP2 LT ISZERO PUSH3 0xA75 JUMPI PUSH3 0xA69 PUSH1 0x0 DUP3 PUSH3 0xA36 JUMP JUMPDEST PUSH1 0x1 DUP2 ADD SWAP1 POP PUSH3 0xA53 JUMP JUMPDEST POP POP JUMP JUMPDEST PUSH1 0x1F DUP3 GT ISZERO PUSH3 0xAC4 JUMPI PUSH3 0xA8E DUP2 PUSH3 0x938 JUMP JUMPDEST PUSH3 0xA99 DUP5 PUSH3 0x94D JUMP JUMPDEST DUP2 ADD PUSH1 0x20 DUP6 LT ISZERO PUSH3 0xAA9 JUMPI DUP2 SWAP1 POP JUMPDEST PUSH3 0xAC1 PUSH3 0xAB8 DUP6 PUSH3 0x94D JUMP JUMPDEST DUP4 ADD DUP3 PUSH3 0xA52 JUMP JUMPDEST POP POP JUMPDEST POP POP POP JUMP JUMPDEST PUSH1 0x0 DUP3 DUP3 SHR SWAP1 POP SWAP3 SWAP2 POP POP JUMP JUMPDEST PUSH1 0x0 PUSH3 0xAE9 PUSH1 0x0 NOT DUP5 PUSH1 0x8 MUL PUSH3 0xAC9 JUMP JUMPDEST NOT DUP1 DUP4 AND SWAP2 POP POP SWAP3 SWAP2 POP POP JUMP JUMPDEST PUSH1 0x0 PUSH3 0xB04 DUP4 DUP4 PUSH3 0xAD6 JUMP JUMPDEST SWAP2 POP DUP3 PUSH1 0x2 MUL DUP3 OR SWAP1 POP SWAP3 SWAP2 POP POP JUMP JUMPDEST PUSH3 0xB1F DUP3 PUSH3 0x89A JUMP JUMPDEST PUSH8 0xFFFFFFFFFFFFFFFF DUP2 GT ISZERO PUSH3 0xB3B JUMPI PUSH3 0xB3A PUSH3 0x8A5 JUMP JUMPDEST JUMPDEST PUSH3 0xB47 DUP3 SLOAD PUSH3 0x903 JUMP JUMPDEST PUSH3 0xB54 DUP3 DUP3 DUP6 PUSH3 0xA79 JUMP JUMPDEST PUSH1 0x0 PUSH1 0x20 SWAP1 POP PUSH1 0x1F DUP4 GT PUSH1 0x1 DUP2 EQ PUSH3 0xB8C JUMPI PUSH1 0x0 DUP5 ISZERO PUSH3 0xB77 JUMPI DUP3 DUP8 ADD MLOAD SWAP1 POP JUMPDEST PUSH3 0xB83 DUP6 DUP3 PUSH3 0xAF6 JUMP JUMPDEST DUP7 SSTORE POP PUSH3 0xBF3 JUMP JUMPDEST PUSH1 0x1F NOT DUP5 AND PUSH3 0xB9C DUP7 PUSH3 0x938 JUMP JUMPDEST PUSH1 0x0 JUMPDEST DUP3 DUP2 LT ISZERO PUSH3 0xBC6 JUMPI DUP5 DUP10 ADD MLOAD DUP3 SSTORE PUSH1 0x1 DUP3 ADD SWAP2 POP PUSH1 0x20 DUP6 ADD SWAP5 POP PUSH1 0x20 DUP2 ADD SWAP1 POP PUSH3 0xB9F JUMP JUMPDEST DUP7 DUP4 LT ISZERO PUSH3 0xBE6 JUMPI DUP5 DUP10 ADD MLOAD PUSH3 0xBE2 PUSH1 0x1F DUP10 AND DUP3 PUSH3 0xAD6 JUMP JUMPDEST DUP4 SSTORE POP JUMPDEST PUSH1 0x1 PUSH1 0x2 DUP9 MUL ADD DUP9 SSTORE POP POP POP JUMPDEST POP POP POP POP POP POP JUMP JUMPDEST PUSH2 0x2D9A DUP1 PUSH3 0xC0B PUSH1 0x0 CODECOPY PUSH1 0x0 RETURN INVALID PUSH1 0x80 PUSH1 0x40 MSTORE PUSH1 0x4 CALLDATASIZE LT PUSH2 0xE8 JUMPI PUSH1 0x0 CALLDATALOAD PUSH1 0xE0 SHR DUP1 PUSH4 0x6B4FAECA GT PUSH2 0x8A JUMPI DUP1 PUSH4 0xC1C063EB GT PUSH2 0x59 JUMPI DUP1 PUSH4 0xC1C063EB EQ PUSH2 0x2E3 JUMPI DUP1 PUSH4 0xDFAD6257 EQ PUSH2 0x327 JUMPI DUP1 PUSH4 0xE0F83F21 EQ PUSH2 0x343 JUMPI DUP1 PUSH4 0xF2FDE38B EQ PUSH2 0x36E JUMPI PUSH2 0xE8 JUMP JUMPDEST DUP1 PUSH4 0x6B4FAECA EQ PUSH2 0x237 JUMPI DUP1 PUSH4 0x715018A6 EQ PUSH2 0x278 JUMPI DUP1 PUSH4 0x71C95281 EQ PUSH2 0x28F JUMPI DUP1 PUSH4 0x8DA5CB5B EQ PUSH2 0x2B8 JUMPI PUSH2 0xE8 JUMP JUMPDEST DUP1 PUSH4 0x3DDE60C2 GT PUSH2 0xC6 JUMPI DUP1 PUSH4 0x3DDE60C2 EQ PUSH2 0x15D JUMPI DUP1 PUSH4 0x3F430695 EQ PUSH2 0x188 JUMPI DUP1 PUSH4 0x57C86704 EQ PUSH2 0x1C8 JUMPI DUP1 PUSH4 0x6011515C EQ PUSH2 0x20C JUMPI PUSH2 0xE8 JUMP JUMPDEST DUP1 PUSH4 0xC1CDB6D EQ PUSH2 0xED JUMPI DUP1 PUSH4 0x232E096D EQ PUSH2 0x116 JUMPI DUP1 PUSH4 0x3A0DE743 EQ PUSH2 0x153 JUMPI JUMPDEST PUSH1 0x0 DUP1 REVERT JUMPDEST CALLVALUE DUP1 ISZERO PUSH2 0xF9 JUMPI PUSH1 0x0 DUP1 REVERT JUMPDEST POP PUSH2 0x114 PUSH1 0x4 DUP1 CALLDATASIZE SUB DUP2 ADD SWAP1 PUSH2 0x10F SWAP2 SWAP1 PUSH2 0x1F1B JUMP JUMPDEST PUSH2 0x397 JUMP JUMPDEST STOP JUMPDEST CALLVALUE DUP1 ISZERO PUSH2 0x122 JUMPI PUSH1 0x0 DUP1 REVERT JUMPDEST POP PUSH2 0x13D PUSH1 0x4 DUP1 CALLDATASIZE SUB DUP2 ADD SWAP1 PUSH2 0x138 SWAP2 SWAP1 PUSH2 0x1FF8 JUMP JUMPDEST PUSH2 0x509 JUMP JUMPDEST PUSH1 0x40 MLOAD PUSH2 0x14A SWAP2 SWAP1 PUSH2 0x2053 JUMP JUMPDEST PUSH1 0x40 MLOAD DUP1 SWAP2 SUB SWAP1 RETURN JUMPDEST PUSH2 0x15B PUSH2 0x5C3 JUMP JUMPDEST STOP JUMPDEST CALLVALUE DUP1 ISZERO PUSH2 0x169 JUMPI PUSH1 0x0 DUP1 REVERT JUMPDEST POP PUSH2 0x172 PUSH2 0x903 JUMP JUMPDEST PUSH1 0x40 MLOAD PUSH2 0x17F SWAP2 SWAP1 PUSH2 0x207D JUMP JUMPDEST PUSH1 0x40 MLOAD DUP1 SWAP2 SUB SWAP1 RETURN JUMPDEST CALLVALUE DUP1 ISZERO PUSH2 0x194 JUMPI PUSH1 0x0 DUP1 REVERT JUMPDEST POP PUSH2 0x1AF PUSH1 0x4 DUP1 CALLDATASIZE SUB DUP2 ADD SWAP1 PUSH2 0x1AA SWAP2 SWAP1 PUSH2 0x2098 JUMP JUMPDEST PUSH2 0x90E JUMP JUMPDEST PUSH1 0x40 MLOAD PUSH2 0x1BF SWAP5 SWAP4 SWAP3 SWAP2 SWAP1 PUSH2 0x2144 JUMP JUMPDEST PUSH1 0x40 MLOAD DUP1 SWAP2 SUB SWAP1 RETURN JUMPDEST CALLVALUE DUP1 ISZERO PUSH2 0x1D4 JUMPI PUSH1 0x0 DUP1 REVERT JUMPDEST POP PUSH2 0x1EF PUSH1 0x4 DUP1 CALLDATASIZE SUB DUP2 ADD SWAP1 PUSH2 0x1EA SWAP2 SWAP1 PUSH2 0x2190 JUMP JUMPDEST PUSH2 0xA96 JUMP JUMPDEST PUSH1 0x40 MLOAD PUSH2 0x203 SWAP9 SWAP8 SWAP7 SWAP6 SWAP5 SWAP4 SWAP3 SWAP2 SWAP1 PUSH2 0x21BD JUMP JUMPDEST PUSH1 0x40 MLOAD DUP1 SWAP2 SUB SWAP1 RETURN JUMPDEST CALLVALUE DUP1 ISZERO PUSH2 0x218 JUMPI PUSH1 0x0 DUP1 REVERT JUMPDEST POP PUSH2 0x221 PUSH2 0xC90 JUMP JUMPDEST PUSH1 0x40 MLOAD PUSH2 0x22E SWAP2 SWAP1 PUSH2 0x207D JUMP JUMPDEST PUSH1 0x40 MLOAD DUP1 SWAP2 SUB SWAP1 RETURN JUMPDEST CALLVALUE DUP1 ISZERO PUSH2 0x243 JUMPI PUSH1 0x0 DUP1 REVERT JUMPDEST POP PUSH2 0x25E PUSH1 0x4 DUP1 CALLDATASIZE SUB DUP2 ADD SWAP1 PUSH2 0x259 SWAP2 SWAP1 PUSH2 0x2098 JUMP JUMPDEST PUSH2 0xC9B JUMP JUMPDEST PUSH1 0x40 MLOAD PUSH2 0x26F SWAP6 SWAP5 SWAP4 SWAP3 SWAP2 SWAP1 PUSH2 0x2250 JUMP JUMPDEST PUSH1 0x40 MLOAD DUP1 SWAP2 SUB SWAP1 RETURN JUMPDEST CALLVALUE DUP1 ISZERO PUSH2 0x284 JUMPI PUSH1 0x0 DUP1 REVERT JUMPDEST POP PUSH2 0x28D PUSH2 0xD66 JUMP JUMPDEST STOP JUMPDEST CALLVALUE DUP1 ISZERO PUSH2 0x29B JUMPI PUSH1 0x0 DUP1 REVERT JUMPDEST POP PUSH2 0x2B6 PUSH1 0x4 DUP1 CALLDATASIZE SUB DUP2 ADD SWAP1 PUSH2 0x2B1 SWAP2 SWAP1 PUSH2 0x2098 JUMP JUMPDEST PUSH2 0xD7A JUMP JUMPDEST STOP JUMPDEST CALLVALUE DUP1 ISZERO PUSH2 0x2C4 JUMPI PUSH1 0x0 DUP1 REVERT JUMPDEST POP PUSH2 0x2CD PUSH2 0x124B JUMP JUMPDEST PUSH1 0x40 MLOAD PUSH2 0x2DA SWAP2 SWAP1 PUSH2 0x22B9 JUMP JUMPDEST PUSH1 0x40 MLOAD DUP1 SWAP2 SUB SWAP1 RETURN JUMPDEST CALLVALUE DUP1 ISZERO PUSH2 0x2EF JUMPI PUSH1 0x0 DUP1 REVERT JUMPDEST POP PUSH2 0x30A PUSH1 0x4 DUP1 CALLDATASIZE SUB DUP2 ADD SWAP1 PUSH2 0x305 SWAP2 SWAP1 PUSH2 0x2190 JUMP JUMPDEST PUSH2 0x1274 JUMP JUMPDEST PUSH1 0x40 MLOAD PUSH2 0x31E SWAP9 SWAP8 SWAP7 SWAP6 SWAP5 SWAP4 SWAP3 SWAP2 SWAP1 PUSH2 0x21BD JUMP JUMPDEST PUSH1 0x40 MLOAD DUP1 SWAP2 SUB SWAP1 RETURN JUMPDEST PUSH2 0x341 PUSH1 0x4 DUP1 CALLDATASIZE SUB DUP2 ADD SWAP1 PUSH2 0x33C SWAP2 SWAP1 PUSH2 0x22D4 JUMP JUMPDEST PUSH2 0x14F2 JUMP JUMPDEST STOP JUMPDEST CALLVALUE DUP1 ISZERO PUSH2 0x34F JUMPI PUSH1 0x0 DUP1 REVERT JUMPDEST POP PUSH2 0x358 PUSH2 0x176A JUMP JUMPDEST PUSH1 0x40 MLOAD PUSH2 0x365 SWAP2 SWAP1 PUSH2 0x207D JUMP JUMPDEST PUSH1 0x40 MLOAD DUP1 SWAP2 SUB SWAP1 RETURN JUMPDEST CALLVALUE DUP1 ISZERO PUSH2 0x37A JUMPI PUSH1 0x0 DUP1 REVERT JUMPDEST POP PUSH2 0x395 PUSH1 0x4 DUP1 CALLDATASIZE SUB DUP2 ADD SWAP1 PUSH2 0x390 SWAP2 SWAP1 PUSH2 0x2098 JUMP JUMPDEST PUSH2 0x1776 JUMP JUMPDEST STOP JUMPDEST PUSH1 0x2 PUSH1 0x0 CALLER PUSH20 0xFFFFFFFFFFFFFFFFFFFFFFFFFFFFFFFFFFFFFFFF AND PUSH20 0xFFFFFFFFFFFFFFFFFFFFFFFFFFFFFFFFFFFFFFFF AND DUP2 MSTORE PUSH1 0x20 ADD SWAP1 DUP2 MSTORE PUSH1 0x20 ADD PUSH1 0x0 KECCAK256 PUSH1 0x5 ADD PUSH1 0x0 SWAP1 SLOAD SWAP1 PUSH2 0x100 EXP SWAP1 DIV PUSH1 0xFF AND ISZERO PUSH2 0x427 JUMPI PUSH1 0x40 MLOAD PUSH32 0x8C379A000000000000000000000000000000000000000000000000000000000 DUP2 MSTORE PUSH1 0x4 ADD PUSH2 0x41E SWAP1 PUSH2 0x2360 JUMP JUMPDEST PUSH1 0x40 MLOAD DUP1 SWAP2 SUB SWAP1 REVERT JUMPDEST PUSH1 0x0 PUSH1 0x2 PUSH1 0x0 CALLER PUSH20 0xFFFFFFFFFFFFFFFFFFFFFFFFFFFFFFFFFFFFFFFF AND PUSH20 0xFFFFFFFFFFFFFFFFFFFFFFFFFFFFFFFFFFFFFFFF AND DUP2 MSTORE PUSH1 0x20 ADD SWAP1 DUP2 MSTORE PUSH1 0x20 ADD PUSH1 0x0 KECCAK256 SWAP1 POP DUP2 DUP2 PUSH1 0x0 ADD SWAP1 DUP2 PUSH2 0x47B SWAP2 SWAP1 PUSH2 0x258C JUMP JUMPDEST POP PUSH1 0x1 DUP2 PUSH1 0x1 ADD DUP2 SWAP1 SSTORE POP PUSH1 0xA DUP2 PUSH1 0x2 ADD DUP2 SWAP1 SSTORE POP PUSH1 0x5 DUP2 PUSH1 0x3 ADD DUP2 SWAP1 SSTORE POP PUSH1 0x1 DUP2 PUSH1 0x5 ADD PUSH1 0x0 PUSH2 0x100 EXP DUP2 SLOAD DUP2 PUSH1 0xFF MUL NOT AND SWAP1 DUP4 ISZERO ISZERO MUL OR SWAP1 SSTORE POP CALLER PUSH20 0xFFFFFFFFFFFFFFFFFFFFFFFFFFFFFFFFFFFFFFFF AND PUSH32 0x67409CED604950B5508F075F60153E7D166866A8251A44B569A7A07D7F27C3EB DUP4 PUSH1 0x40 MLOAD PUSH2 0x4FD SWAP2 SWAP1 PUSH2 0x265E JUMP JUMPDEST PUSH1 0x40 MLOAD DUP1 SWAP2 SUB SWAP1 LOG2 POP POP JUMP JUMPDEST PUSH1 0x0 DUP1 DUP3 GT DUP1 ISZERO PUSH2 0x51B JUMPI POP PUSH1 0x5 DUP3 GT ISZERO JUMPDEST PUSH2 0x55A JUMPI PUSH1 0x40 MLOAD PUSH32 0x8C379A000000000000000000000000000000000000000000000000000000000 DUP2 MSTORE PUSH1 0x4 ADD PUSH2 0x551 SWAP1 PUSH2 0x26CC JUMP JUMPDEST PUSH1 0x40 MLOAD DUP1 SWAP2 SUB SWAP1 REVERT JUMPDEST PUSH1 0x2 PUSH1 0x0 DUP5 PUSH20 0xFFFFFFFFFFFFFFFFFFFFFFFFFFFFFFFFFFFFFFFF AND PUSH20 0xFFFFFFFFFFFFFFFFFFFFFFFFFFFFFFFFFFFFFFFF AND DUP2 MSTORE PUSH1 0x20 ADD SWAP1 DUP2 MSTORE PUSH1 0x20 ADD PUSH1 0x0 KECCAK256 PUSH1 0x4 ADD PUSH1 0x0 DUP4 DUP2 MSTORE PUSH1 0x20 ADD SWAP1 DUP2 MSTORE PUSH1 0x20 ADD PUSH1 0x0 KECCAK256 PUSH1 0x0 SWAP1 SLOAD SWAP1 PUSH2 0x100 EXP SWAP1 DIV PUSH1 0xFF AND SWAP1 POP SWAP3 SWAP2 POP POP JUMP JUMPDEST PUSH2 0x5CB PUSH2 0x17F9 JUMP JUMPDEST PUSH8 0x16345785D8A0000 CALLVALUE LT ISZERO PUSH2 0x616 JUMPI PUSH1 0x40 MLOAD PUSH32 0x8C379A000000000000000000000000000000000000000000000000000000000 DUP2 MSTORE PUSH1 0x4 ADD PUSH2 0x60D SWAP1 PUSH2 0x2738 JUMP JUMPDEST PUSH1 0x40 MLOAD DUP1 SWAP2 SUB SWAP1 REVERT JUMPDEST PUSH1 0x2 PUSH1 0x0 CALLER PUSH20 0xFFFFFFFFFFFFFFFFFFFFFFFFFFFFFFFFFFFFFFFF AND PUSH20 0xFFFFFFFFFFFFFFFFFFFFFFFFFFFFFFFFFFFFFFFF AND DUP2 MSTORE PUSH1 0x20 ADD SWAP1 DUP2 MSTORE PUSH1 0x20 ADD PUSH1 0x0 KECCAK256 PUSH1 0x5 ADD PUSH1 0x0 SWAP1 SLOAD SWAP1 PUSH2 0x100 EXP SWAP1 DIV PUSH1 0xFF AND PUSH2 0x6A5 JUMPI PUSH1 0x40 MLOAD PUSH32 0x8C379A000000000000000000000000000000000000000000000000000000000 DUP2 MSTORE PUSH1 0x4 ADD PUSH2 0x69C SWAP1 PUSH2 0x27A4 JUMP JUMPDEST PUSH1 0x40 MLOAD DUP1 SWAP2 SUB SWAP1 REVERT JUMPDEST PUSH1 0x0 PREVRANDAO TIMESTAMP CALLER PUSH1 0x40 MLOAD PUSH1 0x20 ADD PUSH2 0x6BC SWAP4 SWAP3 SWAP2 SWAP1 PUSH2 0x282D JUMP JUMPDEST PUSH1 0x40 MLOAD PUSH1 0x20 DUP2 DUP4 SUB SUB DUP2 MSTORE SWAP1 PUSH1 0x40 MSTORE DUP1 MLOAD SWAP1 PUSH1 0x20 ADD KECCAK256 PUSH1 0x0 SHR SWAP1 POP PUSH1 0x0 PUSH2 0x3E8 DUP3 PUSH2 0x6E7 SWAP2 SWAP1 PUSH2 0x2899 JUMP JUMPDEST SWAP1 POP PUSH1 0x0 DUP1 PUSH1 0x1 SWAP1 POP JUMPDEST PUSH1 0x5 DUP2 GT PUSH2 0x77B JUMPI PUSH1 0x2 PUSH1 0x0 CALLER PUSH20 0xFFFFFFFFFFFFFFFFFFFFFFFFFFFFFFFFFFFFFFFF AND PUSH20 0xFFFFFFFFFFFFFFFFFFFFFFFFFFFFFFFFFFFFFFFF AND DUP2 MSTORE PUSH1 0x20 ADD SWAP1 DUP2 MSTORE PUSH1 0x20 ADD PUSH1 0x0 KECCAK256 PUSH1 0x4 ADD PUSH1 0x0 DUP3 DUP2 MSTORE PUSH1 0x20 ADD SWAP1 DUP2 MSTORE PUSH1 0x20 ADD PUSH1 0x0 KECCAK256 PUSH1 0x0 SWAP1 SLOAD SWAP1 PUSH2 0x100 EXP SWAP1 DIV PUSH1 0xFF AND ISZERO PUSH2 0x768 JUMPI PUSH1 0x1 SWAP2 POP PUSH2 0x77B JUMP JUMPDEST DUP1 DUP1 PUSH2 0x773 SWAP1 PUSH2 0x28F9 JUMP JUMPDEST SWAP2 POP POP PUSH2 0x6F1 JUMP JUMPDEST POP PUSH1 0x0 DUP2 PUSH2 0x78A JUMPI PUSH1 0x64 PUSH2 0x78D JUMP JUMPDEST PUSH1 0x1 JUMPDEST PUSH1 0xFF AND SWAP1 POP DUP1 DUP4 LT ISZERO PUSH2 0x88A JUMPI PUSH1 0x0 PUSH1 0x1 PUSH1 0x5 DUP7 PUSH2 0x7AB SWAP2 SWAP1 PUSH2 0x2899 JUMP JUMPDEST PUSH2 0x7B5 SWAP2 SWAP1 PUSH2 0x2941 JUMP JUMPDEST SWAP1 POP PUSH1 0x1 PUSH1 0x2 PUSH1 0x0 CALLER PUSH20 0xFFFFFFFFFFFFFFFFFFFFFFFFFFFFFFFFFFFFFFFF AND PUSH20 0xFFFFFFFFFFFFFFFFFFFFFFFFFFFFFFFFFFFFFFFF AND DUP2 MSTORE PUSH1 0x20 ADD SWAP1 DUP2 MSTORE PUSH1 0x20 ADD PUSH1 0x0 KECCAK256 PUSH1 0x4 ADD PUSH1 0x0 DUP4 DUP2 MSTORE PUSH1 0x20 ADD SWAP1 DUP2 MSTORE PUSH1 0x20 ADD PUSH1 0x0 KECCAK256 PUSH1 0x0 PUSH2 0x100 EXP DUP2 SLOAD DUP2 PUSH1 0xFF MUL NOT AND SWAP1 DUP4 ISZERO ISZERO MUL OR SWAP1 SSTORE POP CALLER PUSH20 0xFFFFFFFFFFFFFFFFFFFFFFFFFFFFFFFFFFFFFFFF AND PUSH32 0xC78CD494272180E0C224C92CA5BEDD58597E9F5494E17A757B031988D4B6372C DUP3 PUSH1 0x3 PUSH1 0x0 DUP6 DUP2 MSTORE PUSH1 0x20 ADD SWAP1 DUP2 MSTORE PUSH1 0x20 ADD PUSH1 0x0 KECCAK256 PUSH1 0x0 ADD PUSH1 0x40 MLOAD PUSH2 0x880 SWAP3 SWAP2 SWAP1 PUSH2 0x29F9 JUMP JUMPDEST PUSH1 0x40 MLOAD DUP1 SWAP2 SUB SWAP1 LOG2 POP JUMPDEST PUSH8 0x16345785D8A0000 CALLVALUE GT ISZERO PUSH2 0x8F5 JUMPI CALLER PUSH20 0xFFFFFFFFFFFFFFFFFFFFFFFFFFFFFFFFFFFFFFFF AND PUSH2 0x8FC PUSH8 0x16345785D8A0000 CALLVALUE PUSH2 0x8C8 SWAP2 SWAP1 PUSH2 0x2A29 JUMP JUMPDEST SWAP1 DUP2 ISZERO MUL SWAP1 PUSH1 0x40 MLOAD PUSH1 0x0 PUSH1 0x40 MLOAD DUP1 DUP4 SUB DUP2 DUP6 DUP9 DUP9 CALL SWAP4 POP POP POP POP ISZERO DUP1 ISZERO PUSH2 0x8F3 JUMPI RETURNDATASIZE PUSH1 0x0 DUP1 RETURNDATACOPY RETURNDATASIZE PUSH1 0x0 REVERT JUMPDEST POP JUMPDEST POP POP POP POP PUSH2 0x901 PUSH2 0x1848 JUMP JUMPDEST JUMP JUMPDEST PUSH7 0x2386F26FC10000 DUP2 JUMP JUMPDEST PUSH1 0x60 PUSH1 0x0 DUP1 PUSH1 0x0 PUSH1 0x2 PUSH1 0x0 DUP7 PUSH20 0xFFFFFFFFFFFFFFFFFFFFFFFFFFFFFFFFFFFFFFFF AND PUSH20 0xFFFFFFFFFFFFFFFFFFFFFFFFFFFFFFFFFFFFFFFF AND DUP2 MSTORE PUSH1 0x20 ADD SWAP1 DUP2 MSTORE PUSH1 0x20 ADD PUSH1 0x0 KECCAK256 PUSH1 0x5 ADD PUSH1 0x0 SWAP1 SLOAD SWAP1 PUSH2 0x100 EXP SWAP1 DIV PUSH1 0xFF AND PUSH2 0x9A4 JUMPI PUSH1 0x40 MLOAD PUSH32 0x8C379A000000000000000000000000000000000000000000000000000000000 DUP2 MSTORE PUSH1 0x4 ADD PUSH2 0x99B SWAP1 PUSH2 0x27A4 JUMP JUMPDEST PUSH1 0x40 MLOAD DUP1 SWAP2 SUB SWAP1 REVERT JUMPDEST PUSH1 0x0 PUSH1 0x2 PUSH1 0x0 DUP8 PUSH20 0xFFFFFFFFFFFFFFFFFFFFFFFFFFFFFFFFFFFFFFFF AND PUSH20 0xFFFFFFFFFFFFFFFFFFFFFFFFFFFFFFFFFFFFFFFF AND DUP2 MSTORE PUSH1 0x20 ADD SWAP1 DUP2 MSTORE PUSH1 0x20 ADD PUSH1 0x0 KECCAK256 SWAP1 POP DUP1 PUSH1 0x0 ADD DUP2 PUSH1 0x1 ADD SLOAD DUP3 PUSH1 0x2 ADD SLOAD DUP4 PUSH1 0x3 ADD SLOAD DUP4 DUP1 SLOAD PUSH2 0xA06 SWAP1 PUSH2 0x23AF JUMP JUMPDEST DUP1 PUSH1 0x1F ADD PUSH1 0x20 DUP1 SWAP2 DIV MUL PUSH1 0x20 ADD PUSH1 0x40 MLOAD SWAP1 DUP2 ADD PUSH1 0x40 MSTORE DUP1 SWAP3 SWAP2 SWAP1 DUP2 DUP2 MSTORE PUSH1 0x20 ADD DUP3 DUP1 SLOAD PUSH2 0xA32 SWAP1 PUSH2 0x23AF JUMP JUMPDEST DUP1 ISZERO PUSH2 0xA7F JUMPI DUP1 PUSH1 0x1F LT PUSH2 0xA54 JUMPI PUSH2 0x100 DUP1 DUP4 SLOAD DIV MUL DUP4 MSTORE SWAP2 PUSH1 0x20 ADD SWAP2 PUSH2 0xA7F JUMP JUMPDEST DUP3 ADD SWAP2 SWAP1 PUSH1 0x0 MSTORE PUSH1 0x20 PUSH1 0x0 KECCAK256 SWAP1 JUMPDEST DUP2 SLOAD DUP2 MSTORE SWAP1 PUSH1 0x1 ADD SWAP1 PUSH1 0x20 ADD DUP1 DUP4 GT PUSH2 0xA62 JUMPI DUP3 SWAP1 SUB PUSH1 0x1F AND DUP3 ADD SWAP2 JUMPDEST POP POP POP POP POP SWAP4 POP SWAP5 POP SWAP5 POP SWAP5 POP SWAP5 POP POP SWAP2 SWAP4 POP SWAP2 SWAP4 JUMP JUMPDEST PUSH1 0x3 PUSH1 0x20 MSTORE DUP1 PUSH1 0x0 MSTORE PUSH1 0x40 PUSH1 0x0 KECCAK256 PUSH1 0x0 SWAP2 POP SWAP1 POP DUP1 PUSH1 0x0 ADD DUP1 SLOAD PUSH2 0xAB9 SWAP1 PUSH2 0x23AF JUMP JUMPDEST DUP1 PUSH1 0x1F ADD PUSH1 0x20 DUP1 SWAP2 DIV MUL PUSH1 0x20 ADD PUSH1 0x40 MLOAD SWAP1 DUP2 ADD PUSH1 0x40 MSTORE DUP1 SWAP3 SWAP2 SWAP1 DUP2 DUP2 MSTORE PUSH1 0x20 ADD DUP3 DUP1 SLOAD PUSH2 0xAE5 SWAP1 PUSH2 0x23AF JUMP JUMPDEST DUP1 ISZERO PUSH2 0xB32 JUMPI DUP1 PUSH1 0x1F LT PUSH2 0xB07 JUMPI PUSH2 0x100 DUP1 DUP4 SLOAD DIV MUL DUP4 MSTORE SWAP2 PUSH1 0x20 ADD SWAP2 PUSH2 0xB32 JUMP JUMPDEST DUP3 ADD SWAP2 SWAP1 PUSH1 0x0 MSTORE PUSH1 0x20 PUSH1 0x0 KECCAK256 SWAP1 JUMPDEST DUP2 SLOAD DUP2 MSTORE SWAP1 PUSH1 0x1 ADD SWAP1 PUSH1 0x20 ADD DUP1 DUP4 GT PUSH2 0xB15 JUMPI DUP3 SWAP1 SUB PUSH1 0x1F AND DUP3 ADD SWAP2 JUMPDEST POP POP POP POP POP SWAP1 DUP1 PUSH1 0x1 ADD SLOAD SWAP1 DUP1 PUSH1 0x2 ADD DUP1 SLOAD PUSH2 0xB4D SWAP1 PUSH2 0x23AF JUMP JUMPDEST DUP1 PUSH1 0x1F ADD PUSH1 0x20 DUP1 SWAP2 DIV MUL PUSH1 0x20 ADD PUSH1 0x40 MLOAD SWAP1 DUP2 ADD PUSH1 0x40 MSTORE DUP1 SWAP3 SWAP2 SWAP1 DUP2 DUP2 MSTORE PUSH1 0x20 ADD DUP3 DUP1 SLOAD PUSH2 0xB79 SWAP1 PUSH2 0x23AF JUMP JUMPDEST DUP1 ISZERO PUSH2 0xBC6 JUMPI DUP1 PUSH1 0x1F LT PUSH2 0xB9B JUMPI PUSH2 0x100 DUP1 DUP4 SLOAD DIV MUL DUP4 MSTORE SWAP2 PUSH1 0x20 ADD SWAP2 PUSH2 0xBC6 JUMP JUMPDEST DUP3 ADD SWAP2 SWAP1 PUSH1 0x0 MSTORE PUSH1 0x20 PUSH1 0x0 KECCAK256 SWAP1 JUMPDEST DUP2 SLOAD DUP2 MSTORE SWAP1 PUSH1 0x1 ADD SWAP1 PUSH1 0x20 ADD DUP1 DUP4 GT PUSH2 0xBA9 JUMPI DUP3 SWAP1 SUB PUSH1 0x1F AND DUP3 ADD SWAP2 JUMPDEST POP POP POP POP POP SWAP1 DUP1 PUSH1 0x3 ADD DUP1 SLOAD PUSH2 0xBDB SWAP1 PUSH2 0x23AF JUMP JUMPDEST DUP1 PUSH1 0x1F ADD PUSH1 0x20 DUP1 SWAP2 DIV MUL PUSH1 0x20 ADD PUSH1 0x40 MLOAD SWAP1 DUP2 ADD PUSH1 0x40 MSTORE DUP1 SWAP3 SWAP2 SWAP1 DUP2 DUP2 MSTORE PUSH1 0x20 ADD DUP3 DUP1 SLOAD PUSH2 0xC07 SWAP1 PUSH2 0x23AF JUMP JUMPDEST DUP1 ISZERO PUSH2 0xC54 JUMPI DUP1 PUSH1 0x1F LT PUSH2 0xC29 JUMPI PUSH2 0x100 DUP1 DUP4 SLOAD DIV MUL DUP4 MSTORE SWAP2 PUSH1 0x20 ADD SWAP2 PUSH2 0xC54 JUMP JUMPDEST DUP3 ADD SWAP2 SWAP1 PUSH1 0x0 MSTORE PUSH1 0x20 PUSH1 0x0 KECCAK256 SWAP1 JUMPDEST DUP2 SLOAD DUP2 MSTORE SWAP1 PUSH1 0x1 ADD SWAP1 PUSH1 0x20 ADD DUP1 DUP4 GT PUSH2 0xC37 JUMPI DUP3 SWAP1 SUB PUSH1 0x1F AND DUP3 ADD SWAP2 JUMPDEST POP POP POP POP POP SWAP1 DUP1 PUSH1 0x4 ADD PUSH1 0x0 SWAP1 SLOAD SWAP1 PUSH2 0x100 EXP SWAP1 DIV PUSH1 0xFF AND SWAP1 DUP1 PUSH1 0x4 ADD PUSH1 0x1 SWAP1 SLOAD SWAP1 PUSH2 0x100 EXP SWAP1 DIV PUSH1 0xFF AND SWAP1 DUP1 PUSH1 0x5 ADD SLOAD SWAP1 DUP1 PUSH1 0x6 ADD SLOAD SWAP1 POP DUP9 JUMP JUMPDEST PUSH7 0x470DE4DF820000 DUP2 JUMP JUMPDEST PUSH1 0x2 PUSH1 0x20 MSTORE DUP1 PUSH1 0x0 MSTORE PUSH1 0x40 PUSH1 0x0 KECCAK256 PUSH1 0x0 SWAP2 POP SWAP1 POP DUP1 PUSH1 0x0 ADD DUP1 SLOAD PUSH2 0xCBE SWAP1 PUSH2 0x23AF JUMP JUMPDEST DUP1 PUSH1 0x1F ADD PUSH1 0x20 DUP1 SWAP2 DIV MUL PUSH1 0x20 ADD PUSH1 0x40 MLOAD SWAP1 DUP2 ADD PUSH1 0x40 MSTORE DUP1 SWAP3 SWAP2 SWAP1 DUP2 DUP2 MSTORE PUSH1 0x20 ADD DUP3 DUP1 SLOAD PUSH2 0xCEA SWAP1 PUSH2 0x23AF JUMP JUMPDEST DUP1 ISZERO PUSH2 0xD37 JUMPI DUP1 PUSH1 0x1F LT PUSH2 0xD0C JUMPI PUSH2 0x100 DUP1 DUP4 SLOAD DIV MUL DUP4 MSTORE SWAP2 PUSH1 0x20 ADD SWAP2 PUSH2 0xD37 JUMP JUMPDEST DUP3 ADD SWAP2 SWAP1 PUSH1 0x0 MSTORE PUSH1 0x20 PUSH1 0x0 KECCAK256 SWAP1 JUMPDEST DUP2 SLOAD DUP2 MSTORE SWAP1 PUSH1 0x1 ADD SWAP1 PUSH1 0x20 ADD DUP1 DUP4 GT PUSH2 0xD1A JUMPI DUP3 SWAP1 SUB PUSH1 0x1F AND DUP3 ADD SWAP2 JUMPDEST POP POP POP POP POP SWAP1 DUP1 PUSH1 0x1 ADD SLOAD SWAP1 DUP1 PUSH1 0x2 ADD SLOAD SWAP1 DUP1 PUSH1 0x3 ADD SLOAD SWAP1 DUP1 PUSH1 0x5 ADD PUSH1 0x0 SWAP1 SLOAD SWAP1 PUSH2 0x100 EXP SWAP1 DIV PUSH1 0xFF AND SWAP1 POP DUP6 JUMP JUMPDEST PUSH2 0xD6E PUSH2 0x1851 JUMP JUMPDEST PUSH2 0xD78 PUSH1 0x0 PUSH2 0x18CF JUMP JUMPDEST JUMP JUMPDEST PUSH1 0x2 PUSH1 0x0 CALLER PUSH20 0xFFFFFFFFFFFFFFFFFFFFFFFFFFFFFFFFFFFFFFFF AND PUSH20 0xFFFFFFFFFFFFFFFFFFFFFFFFFFFFFFFFFFFFFFFF AND DUP2 MSTORE PUSH1 0x20 ADD SWAP1 DUP2 MSTORE PUSH1 0x20 ADD PUSH1 0x0 KECCAK256 PUSH1 0x5 ADD PUSH1 0x0 SWAP1 SLOAD SWAP1 PUSH2 0x100 EXP SWAP1 DIV PUSH1 0xFF AND DUP1 ISZERO PUSH2 0xE22 JUMPI POP PUSH1 0x2 PUSH1 0x0 DUP3 PUSH20 0xFFFFFFFFFFFFFFFFFFFFFFFFFFFFFFFFFFFFFFFF AND PUSH20 0xFFFFFFFFFFFFFFFFFFFFFFFFFFFFFFFFFFFFFFFF AND DUP2 MSTORE PUSH1 0x20 ADD SWAP1 DUP2 MSTORE PUSH1 0x20 ADD PUSH1 0x0 KECCAK256 PUSH1 0x5 ADD PUSH1 0x0 SWAP1 SLOAD SWAP1 PUSH2 0x100 EXP SWAP1 DIV PUSH1 0xFF AND JUMPDEST PUSH2 0xE61 JUMPI PUSH1 0x40 MLOAD PUSH32 0x8C379A000000000000000000000000000000000000000000000000000000000 DUP2 MSTORE PUSH1 0x4 ADD PUSH2 0xE58 SWAP1 PUSH2 0x2AA9 JUMP JUMPDEST PUSH1 0x40 MLOAD DUP1 SWAP2 SUB SWAP1 REVERT JUMPDEST CALLER PUSH20 0xFFFFFFFFFFFFFFFFFFFFFFFFFFFFFFFFFFFFFFFF AND DUP2 PUSH20 0xFFFFFFFFFFFFFFFFFFFFFFFFFFFFFFFFFFFFFFFF AND SUB PUSH2 0xECF JUMPI PUSH1 0x40 MLOAD PUSH32 0x8C379A000000000000000000000000000000000000000000000000000000000 DUP2 MSTORE PUSH1 0x4 ADD PUSH2 0xEC6 SWAP1 PUSH2 0x2B15 JUMP JUMPDEST PUSH1 0x40 MLOAD DUP1 SWAP2 SUB SWAP1 REVERT JUMPDEST PUSH1 0x0 PUSH2 0xEDC CALLER PUSH1 0x0 PUSH2 0x1993 JUMP JUMPDEST SWAP1 POP PUSH1 0x0 PUSH2 0xEEB DUP4 PUSH1 0x1 PUSH2 0x1993 JUMP JUMPDEST SWAP1 POP PUSH1 0x0 DUP2 DUP4 GT SWAP1 POP DUP1 ISZERO PUSH2 0x109B JUMPI PUSH1 0x1 PUSH1 0x2 PUSH1 0x0 CALLER PUSH20 0xFFFFFFFFFFFFFFFFFFFFFFFFFFFFFFFFFFFFFFFF AND PUSH20 0xFFFFFFFFFFFFFFFFFFFFFFFFFFFFFFFFFFFFFFFF AND DUP2 MSTORE PUSH1 0x20 ADD SWAP1 DUP2 MSTORE PUSH1 0x20 ADD PUSH1 0x0 KECCAK256 PUSH1 0x1 ADD PUSH1 0x0 DUP3 DUP3 SLOAD PUSH2 0xF4D SWAP2 SWAP1 PUSH2 0x2941 JUMP JUMPDEST SWAP3 POP POP DUP2 SWAP1 SSTORE POP PUSH1 0xA PUSH1 0x8 PUSH1 0x2 PUSH1 0x0 CALLER PUSH20 0xFFFFFFFFFFFFFFFFFFFFFFFFFFFFFFFFFFFFFFFF AND PUSH20 0xFFFFFFFFFFFFFFFFFFFFFFFFFFFFFFFFFFFFFFFF AND DUP2 MSTORE PUSH1 0x20 ADD SWAP1 DUP2 MSTORE PUSH1 0x20 ADD PUSH1 0x0 KECCAK256 PUSH1 0x2 ADD SLOAD PUSH2 0xFA5 SWAP2 SWAP1 PUSH2 0x2B35 JUMP JUMPDEST PUSH2 0xFAF SWAP2 SWAP1 PUSH2 0x2B77 JUMP JUMPDEST PUSH1 0x2 PUSH1 0x0 CALLER PUSH20 0xFFFFFFFFFFFFFFFFFFFFFFFFFFFFFFFFFFFFFFFF AND PUSH20 0xFFFFFFFFFFFFFFFFFFFFFFFFFFFFFFFFFFFFFFFF AND DUP2 MSTORE PUSH1 0x20 ADD SWAP1 DUP2 MSTORE PUSH1 0x20 ADD PUSH1 0x0 KECCAK256 PUSH1 0x2 ADD DUP2 SWAP1 SSTORE POP PUSH1 0xA PUSH1 0x8 PUSH1 0x2 PUSH1 0x0 CALLER PUSH20 0xFFFFFFFFFFFFFFFFFFFFFFFFFFFFFFFFFFFFFFFF AND PUSH20 0xFFFFFFFFFFFFFFFFFFFFFFFFFFFFFFFFFFFFFFFF AND DUP2 MSTORE PUSH1 0x20 ADD SWAP1 DUP2 MSTORE PUSH1 0x20 ADD PUSH1 0x0 KECCAK256 PUSH1 0x3 ADD SLOAD PUSH2 0x1046 SWAP2 SWAP1 PUSH2 0x2B35 JUMP JUMPDEST PUSH2 0x1050 SWAP2 SWAP1 PUSH2 0x2B77 JUMP JUMPDEST PUSH1 0x2 PUSH1 0x0 CALLER PUSH20 0xFFFFFFFFFFFFFFFFFFFFFFFFFFFFFFFFFFFFFFFF AND PUSH20 0xFFFFFFFFFFFFFFFFFFFFFFFFFFFFFFFFFFFFFFFF AND DUP2 MSTORE PUSH1 0x20 ADD SWAP1 DUP2 MSTORE PUSH1 0x20 ADD PUSH1 0x0 KECCAK256 PUSH1 0x3 ADD DUP2 SWAP1 SSTORE POP PUSH2 0x11DE JUMP JUMPDEST PUSH1 0xA PUSH1 0x6 PUSH1 0x2 PUSH1 0x0 CALLER PUSH20 0xFFFFFFFFFFFFFFFFFFFFFFFFFFFFFFFFFFFFFFFF AND PUSH20 0xFFFFFFFFFFFFFFFFFFFFFFFFFFFFFFFFFFFFFFFF AND DUP2 MSTORE PUSH1 0x20 ADD SWAP1 DUP2 MSTORE PUSH1 0x20 ADD PUSH1 0x0 KECCAK256 PUSH1 0x2 ADD SLOAD PUSH2 0x10EC SWAP2 SWAP1 PUSH2 0x2B35 JUMP JUMPDEST PUSH2 0x10F6 SWAP2 SWAP1 PUSH2 0x2B77 JUMP JUMPDEST PUSH1 0x2 PUSH1 0x0 CALLER PUSH20 0xFFFFFFFFFFFFFFFFFFFFFFFFFFFFFFFFFFFFFFFF AND PUSH20 0xFFFFFFFFFFFFFFFFFFFFFFFFFFFFFFFFFFFFFFFF AND DUP2 MSTORE PUSH1 0x20 ADD SWAP1 DUP2 MSTORE PUSH1 0x20 ADD PUSH1 0x0 KECCAK256 PUSH1 0x2 ADD DUP2 SWAP1 SSTORE POP PUSH1 0xA PUSH1 0x6 PUSH1 0x2 PUSH1 0x0 CALLER PUSH20 0xFFFFFFFFFFFFFFFFFFFFFFFFFFFFFFFFFFFFFFFF AND PUSH20 0xFFFFFFFFFFFFFFFFFFFFFFFFFFFFFFFFFFFFFFFF AND DUP2 MSTORE PUSH1 0x20 ADD SWAP1 DUP2 MSTORE PUSH1 0x20 ADD PUSH1 0x0 KECCAK256 PUSH1 0x3 ADD SLOAD PUSH2 0x118D SWAP2 SWAP1 PUSH2 0x2B35 JUMP JUMPDEST PUSH2 0x1197 SWAP2 SWAP1 PUSH2 0x2B77 JUMP JUMPDEST PUSH1 0x2 PUSH1 0x0 CALLER PUSH20 0xFFFFFFFFFFFFFFFFFFFFFFFFFFFFFFFFFFFFFFFF AND PUSH20 0xFFFFFFFFFFFFFFFFFFFFFFFFFFFFFFFFFFFFFFFF AND DUP2 MSTORE PUSH1 0x20 ADD SWAP1 DUP2 MSTORE PUSH1 0x20 ADD PUSH1 0x0 KECCAK256 PUSH1 0x3 ADD DUP2 SWAP1 SSTORE POP JUMPDEST DUP4 PUSH20 0xFFFFFFFFFFFFFFFFFFFFFFFFFFFFFFFFFFFFFFFF AND CALLER PUSH20 0xFFFFFFFFFFFFFFFFFFFFFFFFFFFFFFFFFFFFFFFF AND PUSH32 0xE140066861257B53C07D803D0138B6EB631E7E5AC99E7CD9E7B4ECA01E32FCF4 DUP4 DUP7 PUSH1 0x40 MLOAD PUSH2 0x123D SWAP3 SWAP2 SWAP1 PUSH2 0x2BA8 JUMP JUMPDEST PUSH1 0x40 MLOAD DUP1 SWAP2 SUB SWAP1 LOG3 POP POP POP POP JUMP JUMPDEST PUSH1 0x0 DUP1 PUSH1 0x0 SWAP1 SLOAD SWAP1 PUSH2 0x100 EXP SWAP1 DIV PUSH20 0xFFFFFFFFFFFFFFFFFFFFFFFFFFFFFFFFFFFFFFFF AND SWAP1 POP SWAP1 JUMP JUMPDEST PUSH1 0x60 PUSH1 0x0 PUSH1 0x60 DUP1 PUSH1 0x0 DUP1 PUSH1 0x0 DUP1 PUSH1 0x0 PUSH1 0x3 PUSH1 0x0 DUP12 DUP2 MSTORE PUSH1 0x20 ADD SWAP1 DUP2 MSTORE PUSH1 0x20 ADD PUSH1 0x0 KECCAK256 PUSH1 0x40 MLOAD DUP1 PUSH2 0x100 ADD PUSH1 0x40 MSTORE SWAP1 DUP2 PUSH1 0x0 DUP3 ADD DUP1 SLOAD PUSH2 0x12B2 SWAP1 PUSH2 0x23AF JUMP JUMPDEST DUP1 PUSH1 0x1F ADD PUSH1 0x20 DUP1 SWAP2 DIV MUL PUSH1 0x20 ADD PUSH1 0x40 MLOAD SWAP1 DUP2 ADD PUSH1 0x40 MSTORE DUP1 SWAP3 SWAP2 SWAP1 DUP2 DUP2 MSTORE PUSH1 0x20 ADD DUP3 DUP1 SLOAD PUSH2 0x12DE SWAP1 PUSH2 0x23AF JUMP JUMPDEST DUP1 ISZERO PUSH2 0x132B JUMPI DUP1 PUSH1 0x1F LT PUSH2 0x1300 JUMPI PUSH2 0x100 DUP1 DUP4 SLOAD DIV MUL DUP4 MSTORE SWAP2 PUSH1 0x20 ADD SWAP2 PUSH2 0x132B JUMP JUMPDEST DUP3 ADD SWAP2 SWAP1 PUSH1 0x0 MSTORE PUSH1 0x20 PUSH1 0x0 KECCAK256 SWAP1 JUMPDEST DUP2 SLOAD DUP2 MSTORE SWAP1 PUSH1 0x1 ADD SWAP1 PUSH1 0x20 ADD DUP1 DUP4 GT PUSH2 0x130E JUMPI DUP3 SWAP1 SUB PUSH1 0x1F AND DUP3 ADD SWAP2 JUMPDEST POP POP POP POP POP DUP2 MSTORE PUSH1 0x20 ADD PUSH1 0x1 DUP3 ADD SLOAD DUP2 MSTORE PUSH1 0x20 ADD PUSH1 0x2 DUP3 ADD DUP1 SLOAD PUSH2 0x134E SWAP1 PUSH2 0x23AF JUMP JUMPDEST DUP1 PUSH1 0x1F ADD PUSH1 0x20 DUP1 SWAP2 DIV MUL PUSH1 0x20 ADD PUSH1 0x40 MLOAD SWAP1 DUP2 ADD PUSH1 0x40 MSTORE DUP1 SWAP3 SWAP2 SWAP1 DUP2 DUP2 MSTORE PUSH1 0x20 ADD DUP3 DUP1 SLOAD PUSH2 0x137A SWAP1 PUSH2 0x23AF JUMP JUMPDEST DUP1 ISZERO PUSH2 0x13C7 JUMPI DUP1 PUSH1 0x1F LT PUSH2 0x139C JUMPI PUSH2 0x100 DUP1 DUP4 SLOAD DIV MUL DUP4 MSTORE SWAP2 PUSH1 0x20 ADD SWAP2 PUSH2 0x13C7 JUMP JUMPDEST DUP3 ADD SWAP2 SWAP1 PUSH1 0x0 MSTORE PUSH1 0x20 PUSH1 0x0 KECCAK256 SWAP1 JUMPDEST DUP2 SLOAD DUP2 MSTORE SWAP1 PUSH1 0x1 ADD SWAP1 PUSH1 0x20 ADD DUP1 DUP4 GT PUSH2 0x13AA JUMPI DUP3 SWAP1 SUB PUSH1 0x1F AND DUP3 ADD SWAP2 JUMPDEST POP POP POP POP POP DUP2 MSTORE PUSH1 0x20 ADD PUSH1 0x3 DUP3 ADD DUP1 SLOAD PUSH2 0x13E0 SWAP1 PUSH2 0x23AF JUMP JUMPDEST DUP1 PUSH1 0x1F ADD PUSH1 0x20 DUP1 SWAP2 DIV MUL PUSH1 0x20 ADD PUSH1 0x40 MLOAD SWAP1 DUP2 ADD PUSH1 0x40 MSTORE DUP1 SWAP3 SWAP2 SWAP1 DUP2 DUP2 MSTORE PUSH1 0x20 ADD DUP3 DUP1 SLOAD PUSH2 0x140C SWAP1 PUSH2 0x23AF JUMP JUMPDEST DUP1 ISZERO PUSH2 0x1459 JUMPI DUP1 PUSH1 0x1F LT PUSH2 0x142E JUMPI PUSH2 0x100 DUP1 DUP4 SLOAD DIV MUL DUP4 MSTORE SWAP2 PUSH1 0x20 ADD SWAP2 PUSH2 0x1459 JUMP JUMPDEST DUP3 ADD SWAP2 SWAP1 PUSH1 0x0 MSTORE PUSH1 0x20 PUSH1 0x0 KECCAK256 SWAP1 JUMPDEST DUP2 SLOAD DUP2 MSTORE SWAP1 PUSH1 0x1 ADD SWAP1 PUSH1 0x20 ADD DUP1 DUP4 GT PUSH2 0x143C JUMPI DUP3 SWAP1 SUB PUSH1 0x1F AND DUP3 ADD SWAP2 JUMPDEST POP POP POP POP POP DUP2 MSTORE PUSH1 0x20 ADD PUSH1 0x4 DUP3 ADD PUSH1 0x0 SWAP1 SLOAD SWAP1 PUSH2 0x100 EXP SWAP1 DIV PUSH1 0xFF AND ISZERO ISZERO ISZERO ISZERO DUP2 MSTORE PUSH1 0x20 ADD PUSH1 0x4 DUP3 ADD PUSH1 0x1 SWAP1 SLOAD SWAP1 PUSH2 0x100 EXP SWAP1 DIV PUSH1 0xFF AND ISZERO ISZERO ISZERO ISZERO DUP2 MSTORE PUSH1 0x20 ADD PUSH1 0x5 DUP3 ADD SLOAD DUP2 MSTORE PUSH1 0x20 ADD PUSH1 0x6 DUP3 ADD SLOAD DUP2 MSTORE POP POP SWAP1 POP DUP1 PUSH1 0x0 ADD MLOAD DUP2 PUSH1 0x20 ADD MLOAD DUP3 PUSH1 0x40 ADD MLOAD DUP4 PUSH1 0x60 ADD MLOAD DUP5 PUSH1 0x80 ADD MLOAD DUP6 PUSH1 0xA0 ADD MLOAD DUP7 PUSH1 0xC0 ADD MLOAD DUP8 PUSH1 0xE0 ADD MLOAD SWAP9 POP SWAP9 POP SWAP9 POP SWAP9 POP SWAP9 POP SWAP9 POP SWAP9 POP SWAP9 POP POP SWAP2 SWAP4 SWAP6 SWAP8 POP SWAP2 SWAP4 SWAP6 SWAP8 JUMP JUMPDEST PUSH2 0x14FA PUSH2 0x17F9 JUMP JUMPDEST PUSH1 0x2 PUSH1 0x0 CALLER PUSH20 0xFFFFFFFFFFFFFFFFFFFFFFFFFFFFFFFFFFFFFFFF AND PUSH20 0xFFFFFFFFFFFFFFFFFFFFFFFFFFFFFFFFFFFFFFFF AND DUP2 MSTORE PUSH1 0x20 ADD SWAP1 DUP2 MSTORE PUSH1 0x20 ADD PUSH1 0x0 KECCAK256 PUSH1 0x5 ADD PUSH1 0x0 SWAP1 SLOAD SWAP1 PUSH2 0x100 EXP SWAP1 DIV PUSH1 0xFF AND PUSH2 0x1589 JUMPI PUSH1 0x40 MLOAD PUSH32 0x8C379A000000000000000000000000000000000000000000000000000000000 DUP2 MSTORE PUSH1 0x4 ADD PUSH2 0x1580 SWAP1 PUSH2 0x27A4 JUMP JUMPDEST PUSH1 0x40 MLOAD DUP1 SWAP2 SUB SWAP1 REVERT JUMPDEST PUSH1 0x0 PUSH7 0x470DE4DF820000 DUP3 PUSH2 0x159E SWAP2 SWAP1 PUSH2 0x2B35 JUMP JUMPDEST PUSH7 0x2386F26FC10000 DUP5 PUSH2 0x15B1 SWAP2 SWAP1 PUSH2 0x2B35 JUMP JUMPDEST PUSH2 0x15BB SWAP2 SWAP1 PUSH2 0x2941 JUMP JUMPDEST SWAP1 POP DUP1 CALLVALUE LT ISZERO PUSH2 0x1600 JUMPI PUSH1 0x40 MLOAD PUSH32 0x8C379A000000000000000000000000000000000000000000000000000000000 DUP2 MSTORE PUSH1 0x4 ADD PUSH2 0x15F7 SWAP1 PUSH2 0x2738 JUMP JUMPDEST PUSH1 0x40 MLOAD DUP1 SWAP2 SUB SWAP1 REVERT JUMPDEST DUP3 PUSH1 0x2 PUSH1 0x0 CALLER PUSH20 0xFFFFFFFFFFFFFFFFFFFFFFFFFFFFFFFFFFFFFFFF AND PUSH20 0xFFFFFFFFFFFFFFFFFFFFFFFFFFFFFFFFFFFFFFFF AND DUP2 MSTORE PUSH1 0x20 ADD SWAP1 DUP2 MSTORE PUSH1 0x20 ADD PUSH1 0x0 KECCAK256 PUSH1 0x2 ADD PUSH1 0x0 DUP3 DUP3 SLOAD PUSH2 0x1652 SWAP2 SWAP1 PUSH2 0x2941 JUMP JUMPDEST SWAP3 POP POP DUP2 SWAP1 SSTORE POP DUP2 PUSH1 0x2 PUSH1 0x0 CALLER PUSH20 0xFFFFFFFFFFFFFFFFFFFFFFFFFFFFFFFFFFFFFFFF AND PUSH20 0xFFFFFFFFFFFFFFFFFFFFFFFFFFFFFFFFFFFFFFFF AND DUP2 MSTORE PUSH1 0x20 ADD SWAP1 DUP2 MSTORE PUSH1 0x20 ADD PUSH1 0x0 KECCAK256 PUSH1 0x3 ADD PUSH1 0x0 DUP3 DUP3 SLOAD PUSH2 0x16AB SWAP2 SWAP1 PUSH2 0x2941 JUMP JUMPDEST SWAP3 POP POP DUP2 SWAP1 SSTORE POP CALLER PUSH20 0xFFFFFFFFFFFFFFFFFFFFFFFFFFFFFFFFFFFFFFFF AND PUSH32 0xAF29816CD11119A4C8C0EFF4213407D9EEE90E96234648827025B3DCDA86AF39 DUP5 DUP5 PUSH1 0x40 MLOAD PUSH2 0x16FA SWAP3 SWAP2 SWAP1 PUSH2 0x2BD1 JUMP JUMPDEST PUSH1 0x40 MLOAD DUP1 SWAP2 SUB SWAP1 LOG2 DUP1 CALLVALUE GT ISZERO PUSH2 0x175D JUMPI CALLER PUSH20 0xFFFFFFFFFFFFFFFFFFFFFFFFFFFFFFFFFFFFFFFF AND PUSH2 0x8FC DUP3 CALLVALUE PUSH2 0x1730 SWAP2 SWAP1 PUSH2 0x2A29 JUMP JUMPDEST SWAP1 DUP2 ISZERO MUL SWAP1 PUSH1 0x40 MLOAD PUSH1 0x0 PUSH1 0x40 MLOAD DUP1 DUP4 SUB DUP2 DUP6 DUP9 DUP9 CALL SWAP4 POP POP POP POP ISZERO DUP1 ISZERO PUSH2 0x175B JUMPI RETURNDATASIZE PUSH1 0x0 DUP1 RETURNDATACOPY RETURNDATASIZE PUSH1 0x0 REVERT JUMPDEST POP JUMPDEST POP PUSH2 0x1766 PUSH2 0x1848 JUMP JUMPDEST POP POP JUMP JUMPDEST PUSH8 0x16345785D8A0000 DUP2 JUMP JUMPDEST PUSH2 0x177E PUSH2 0x1851 JUMP JUMPDEST PUSH1 0x0 PUSH20 0xFFFFFFFFFFFFFFFFFFFFFFFFFFFFFFFFFFFFFFFF AND DUP2 PUSH20 0xFFFFFFFFFFFFFFFFFFFFFFFFFFFFFFFFFFFFFFFF AND SUB PUSH2 0x17ED JUMPI PUSH1 0x40 MLOAD PUSH32 0x8C379A000000000000000000000000000000000000000000000000000000000 DUP2 MSTORE PUSH1 0x4 ADD PUSH2 0x17E4 SWAP1 PUSH2 0x2C6C JUMP JUMPDEST PUSH1 0x40 MLOAD DUP1 SWAP2 SUB SWAP1 REVERT JUMPDEST PUSH2 0x17F6 DUP2 PUSH2 0x18CF JUMP JUMPDEST POP JUMP JUMPDEST PUSH1 0x2 PUSH1 0x1 SLOAD SUB PUSH2 0x183E JUMPI PUSH1 0x40 MLOAD PUSH32 0x8C379A000000000000000000000000000000000000000000000000000000000 DUP2 MSTORE PUSH1 0x4 ADD PUSH2 0x1835 SWAP1 PUSH2 0x2CD8 JUMP JUMPDEST PUSH1 0x40 MLOAD DUP1 SWAP2 SUB SWAP1 REVERT JUMPDEST PUSH1 0x2 PUSH1 0x1 DUP2 SWAP1 SSTORE POP JUMP JUMPDEST PUSH1 0x1 DUP1 DUP2 SWAP1 SSTORE POP JUMP JUMPDEST PUSH2 0x1859 PUSH2 0x1DB9 JUMP JUMPDEST PUSH20 0xFFFFFFFFFFFFFFFFFFFFFFFFFFFFFFFFFFFFFFFF AND PUSH2 0x1877 PUSH2 0x124B JUMP JUMPDEST PUSH20 0xFFFFFFFFFFFFFFFFFFFFFFFFFFFFFFFFFFFFFFFF AND EQ PUSH2 0x18CD JUMPI PUSH1 0x40 MLOAD PUSH32 0x8C379A000000000000000000000000000000000000000000000000000000000 DUP2 MSTORE PUSH1 0x4 ADD PUSH2 0x18C4 SWAP1 PUSH2 0x2D44 JUMP JUMPDEST PUSH1 0x40 MLOAD DUP1 SWAP2 SUB SWAP1 REVERT JUMPDEST JUMP JUMPDEST PUSH1 0x0 DUP1 PUSH1 0x0 SWAP1 SLOAD SWAP1 PUSH2 0x100 EXP SWAP1 DIV PUSH20 0xFFFFFFFFFFFFFFFFFFFFFFFFFFFFFFFFFFFFFFFF AND SWAP1 POP DUP2 PUSH1 0x0 DUP1 PUSH2 0x100 EXP DUP2 SLOAD DUP2 PUSH20 0xFFFFFFFFFFFFFFFFFFFFFFFFFFFFFFFFFFFFFFFF MUL NOT AND SWAP1 DUP4 PUSH20 0xFFFFFFFFFFFFFFFFFFFFFFFFFFFFFFFFFFFFFFFF AND MUL OR SWAP1 SSTORE POP DUP2 PUSH20 0xFFFFFFFFFFFFFFFFFFFFFFFFFFFFFFFFFFFFFFFF AND DUP2 PUSH20 0xFFFFFFFFFFFFFFFFFFFFFFFFFFFFFFFFFFFFFFFF AND PUSH32 0x8BE0079C531659141344CD1FD0A4F28419497F9722A3DAAFE3B4186F6B6457E0 PUSH1 0x40 MLOAD PUSH1 0x40 MLOAD DUP1 SWAP2 SUB SWAP1 LOG3 POP POP JUMP JUMPDEST PUSH1 0x0 DUP1 PUSH1 0x64 SWAP1 POP PUSH1 0x0 PUSH1 0x64 SWAP1 POP PUSH1 0x0 DUP1 PUSH1 0x1 SWAP1 POP JUMPDEST PUSH1 0x5 DUP2 GT PUSH2 0x1CCD JUMPI PUSH1 0x2 PUSH1 0x0 DUP9 PUSH20 0xFFFFFFFFFFFFFFFFFFFFFFFFFFFFFFFFFFFFFFFF AND PUSH20 0xFFFFFFFFFFFFFFFFFFFFFFFFFFFFFFFFFFFFFFFF AND DUP2 MSTORE PUSH1 0x20 ADD SWAP1 DUP2 MSTORE PUSH1 0x20 ADD PUSH1 0x0 KECCAK256 PUSH1 0x4 ADD PUSH1 0x0 DUP3 DUP2 MSTORE PUSH1 0x20 ADD SWAP1 DUP2 MSTORE PUSH1 0x20 ADD PUSH1 0x0 KECCAK256 PUSH1 0x0 SWAP1 SLOAD SWAP1 PUSH2 0x100 EXP SWAP1 DIV PUSH1 0xFF AND ISZERO PUSH2 0x1CBA JUMPI PUSH1 0x0 PUSH1 0x3 PUSH1 0x0 DUP4 DUP2 MSTORE PUSH1 0x20 ADD SWAP1 DUP2 MSTORE PUSH1 0x20 ADD PUSH1 0x0 KECCAK256 PUSH1 0x40 MLOAD DUP1 PUSH2 0x100 ADD PUSH1 0x40 MSTORE SWAP1 DUP2 PUSH1 0x0 DUP3 ADD DUP1 SLOAD PUSH2 0x1A47 SWAP1 PUSH2 0x23AF JUMP JUMPDEST DUP1 PUSH1 0x1F ADD PUSH1 0x20 DUP1 SWAP2 DIV MUL PUSH1 0x20 ADD PUSH1 0x40 MLOAD SWAP1 DUP2 ADD PUSH1 0x40 MSTORE DUP1 SWAP3 SWAP2 SWAP1 DUP2 DUP2 MSTORE PUSH1 0x20 ADD DUP3 DUP1 SLOAD PUSH2 0x1A73 SWAP1 PUSH2 0x23AF JUMP JUMPDEST DUP1 ISZERO PUSH2 0x1AC0 JUMPI DUP1 PUSH1 0x1F LT PUSH2 0x1A95 JUMPI PUSH2 0x100 DUP1 DUP4 SLOAD DIV MUL DUP4 MSTORE SWAP2 PUSH1 0x20 ADD SWAP2 PUSH2 0x1AC0 JUMP JUMPDEST DUP3 ADD SWAP2 SWAP1 PUSH1 0x0 MSTORE PUSH1 0x20 PUSH1 0x0 KECCAK256 SWAP1 JUMPDEST DUP2 SLOAD DUP2 MSTORE SWAP1 PUSH1 0x1 ADD SWAP1 PUSH1 0x20 ADD DUP1 DUP4 GT PUSH2 0x1AA3 JUMPI DUP3 SWAP1 SUB PUSH1 0x1F AND DUP3 ADD SWAP2 JUMPDEST POP POP POP POP POP DUP2 MSTORE PUSH1 0x20 ADD PUSH1 0x1 DUP3 ADD SLOAD DUP2 MSTORE PUSH1 0x20 ADD PUSH1 0x2 DUP3 ADD DUP1 SLOAD PUSH2 0x1AE3 SWAP1 PUSH2 0x23AF JUMP JUMPDEST DUP1 PUSH1 0x1F ADD PUSH1 0x20 DUP1 SWAP2 DIV MUL PUSH1 0x20 ADD PUSH1 0x40 MLOAD SWAP1 DUP2 ADD PUSH1 0x40 MSTORE DUP1 SWAP3 SWAP2 SWAP1 DUP2 DUP2 MSTORE PUSH1 0x20 ADD DUP3 DUP1 SLOAD PUSH2 0x1B0F SWAP1 PUSH2 0x23AF JUMP JUMPDEST DUP1 ISZERO PUSH2 0x1B5C JUMPI DUP1 PUSH1 0x1F LT PUSH2 0x1B31 JUMPI PUSH2 0x100 DUP1 DUP4 SLOAD DIV MUL DUP4 MSTORE SWAP2 PUSH1 0x20 ADD SWAP2 PUSH2 0x1B5C JUMP JUMPDEST DUP3 ADD SWAP2 SWAP1 PUSH1 0x0 MSTORE PUSH1 0x20 PUSH1 0x0 KECCAK256 SWAP1 JUMPDEST DUP2 SLOAD DUP2 MSTORE SWAP1 PUSH1 0x1 ADD SWAP1 PUSH1 0x20 ADD DUP1 DUP4 GT PUSH2 0x1B3F JUMPI DUP3 SWAP1 SUB PUSH1 0x1F AND DUP3 ADD SWAP2 JUMPDEST POP POP POP POP POP DUP2 MSTORE PUSH1 0x20 ADD PUSH1 0x3 DUP3 ADD DUP1 SLOAD PUSH2 0x1B75 SWAP1 PUSH2 0x23AF JUMP JUMPDEST DUP1 PUSH1 0x1F ADD PUSH1 0x20 DUP1 SWAP2 DIV MUL PUSH1 0x20 ADD PUSH1 0x40 MLOAD SWAP1 DUP2 ADD PUSH1 0x40 MSTORE DUP1 SWAP3 SWAP2 SWAP1 DUP2 DUP2 MSTORE PUSH1 0x20 ADD DUP3 DUP1 SLOAD PUSH2 0x1BA1 SWAP1 PUSH2 0x23AF JUMP JUMPDEST DUP1 ISZERO PUSH2 0x1BEE JUMPI DUP1 PUSH1 0x1F LT PUSH2 0x1BC3 JUMPI PUSH2 0x100 DUP1 DUP4 SLOAD DIV MUL DUP4 MSTORE SWAP2 PUSH1 0x20 ADD SWAP2 PUSH2 0x1BEE JUMP JUMPDEST DUP3 ADD SWAP2 SWAP1 PUSH1 0x0 MSTORE PUSH1 0x20 PUSH1 0x0 KECCAK256 SWAP1 JUMPDEST DUP2 SLOAD DUP2 MSTORE SWAP1 PUSH1 0x1 ADD SWAP1 PUSH1 0x20 ADD DUP1 DUP4 GT PUSH2 0x1BD1 JUMPI DUP3 SWAP1 SUB PUSH1 0x1F AND DUP3 ADD SWAP2 JUMPDEST POP POP POP POP POP DUP2 MSTORE PUSH1 0x20 ADD PUSH1 0x4 DUP3 ADD PUSH1 0x0 SWAP1 SLOAD SWAP1 PUSH2 0x100 EXP SWAP1 DIV PUSH1 0xFF AND ISZERO ISZERO ISZERO ISZERO DUP2 MSTORE PUSH1 0x20 ADD PUSH1 0x4 DUP3 ADD PUSH1 0x1 SWAP1 SLOAD SWAP1 PUSH2 0x100 EXP SWAP1 DIV PUSH1 0xFF AND ISZERO ISZERO ISZERO ISZERO DUP2 MSTORE PUSH1 0x20 ADD PUSH1 0x5 DUP3 ADD SLOAD DUP2 MSTORE PUSH1 0x20 ADD PUSH1 0x6 DUP3 ADD SLOAD DUP2 MSTORE POP POP SWAP1 POP DUP7 ISZERO DUP1 ISZERO PUSH2 0x1C52 JUMPI POP DUP1 PUSH1 0x80 ADD MLOAD JUMPDEST ISZERO PUSH2 0x1C6A JUMPI DUP1 PUSH1 0x20 ADD MLOAD DUP4 PUSH2 0x1C67 SWAP2 SWAP1 PUSH2 0x2941 JUMP JUMPDEST SWAP3 POP JUMPDEST DUP7 DUP1 ISZERO PUSH2 0x1C78 JUMPI POP DUP1 PUSH1 0xA0 ADD MLOAD JUMPDEST ISZERO PUSH2 0x1C90 JUMPI DUP1 PUSH1 0x20 ADD MLOAD DUP4 PUSH2 0x1C8D SWAP2 SWAP1 PUSH2 0x2941 JUMP JUMPDEST SWAP3 POP JUMPDEST DUP5 DUP2 PUSH1 0xC0 ADD MLOAD GT ISZERO PUSH2 0x1CA4 JUMPI DUP1 PUSH1 0xC0 ADD MLOAD SWAP5 POP JUMPDEST DUP4 DUP2 PUSH1 0xE0 ADD MLOAD GT ISZERO PUSH2 0x1CB8 JUMPI DUP1 PUSH1 0xE0 ADD MLOAD SWAP4 POP JUMPDEST POP JUMPDEST DUP1 DUP1 PUSH2 0x1CC5 SWAP1 PUSH2 0x28F9 JUMP JUMPDEST SWAP2 POP POP PUSH2 0x19A8 JUMP JUMPDEST POP PUSH1 0x0 PUSH1 0x64 DUP5 PUSH1 0x2 PUSH1 0x0 DUP11 PUSH20 0xFFFFFFFFFFFFFFFFFFFFFFFFFFFFFFFFFFFFFFFF AND PUSH20 0xFFFFFFFFFFFFFFFFFFFFFFFFFFFFFFFFFFFFFFFF AND DUP2 MSTORE PUSH1 0x20 ADD SWAP1 DUP2 MSTORE PUSH1 0x20 ADD PUSH1 0x0 KECCAK256 PUSH1 0x2 ADD SLOAD PUSH2 0x1D20 SWAP2 SWAP1 PUSH2 0x2B35 JUMP JUMPDEST PUSH2 0x1D2A SWAP2 SWAP1 PUSH2 0x2B77 JUMP JUMPDEST SWAP1 POP PUSH1 0x0 PUSH1 0x64 DUP5 PUSH1 0x2 DUP1 PUSH1 0x0 DUP13 PUSH20 0xFFFFFFFFFFFFFFFFFFFFFFFFFFFFFFFFFFFFFFFF AND PUSH20 0xFFFFFFFFFFFFFFFFFFFFFFFFFFFFFFFFFFFFFFFF AND DUP2 MSTORE PUSH1 0x20 ADD SWAP1 DUP2 MSTORE PUSH1 0x20 ADD PUSH1 0x0 KECCAK256 PUSH1 0x3 ADD SLOAD PUSH2 0x1D7F SWAP2 SWAP1 PUSH2 0x2B35 JUMP JUMPDEST PUSH2 0x1D89 SWAP2 SWAP1 PUSH2 0x2B35 JUMP JUMPDEST PUSH2 0x1D93 SWAP2 SWAP1 PUSH2 0x2B77 JUMP JUMPDEST SWAP1 POP DUP3 DUP2 DUP4 PUSH2 0x1DA2 SWAP2 SWAP1 PUSH2 0x2941 JUMP JUMPDEST PUSH2 0x1DAC SWAP2 SWAP1 PUSH2 0x2941 JUMP JUMPDEST SWAP6 POP POP POP POP POP POP SWAP3 SWAP2 POP POP JUMP JUMPDEST PUSH1 0x0 CALLER SWAP1 POP SWAP1 JUMP JUMPDEST PUSH1 0x0 PUSH1 0x40 MLOAD SWAP1 POP SWAP1 JUMP JUMPDEST PUSH1 0x0 DUP1 REVERT JUMPDEST PUSH1 0x0 DUP1 REVERT JUMPDEST PUSH1 0x0 DUP1 REVERT JUMPDEST PUSH1 0x0 DUP1 REVERT JUMPDEST PUSH1 0x0 PUSH1 0x1F NOT PUSH1 0x1F DUP4 ADD AND SWAP1 POP SWAP2 SWAP1 POP JUMP JUMPDEST PUSH32 0x4E487B7100000000000000000000000000000000000000000000000000000000 PUSH1 0x0 MSTORE PUSH1 0x41 PUSH1 0x4 MSTORE PUSH1 0x24 PUSH1 0x0 REVERT JUMPDEST PUSH2 0x1E28 DUP3 PUSH2 0x1DDF JUMP JUMPDEST DUP2 ADD DUP2 DUP2 LT PUSH8 0xFFFFFFFFFFFFFFFF DUP3 GT OR ISZERO PUSH2 0x1E47 JUMPI PUSH2 0x1E46 PUSH2 0x1DF0 JUMP JUMPDEST JUMPDEST DUP1 PUSH1 0x40 MSTORE POP POP POP JUMP JUMPDEST PUSH1 0x0 PUSH2 0x1E5A PUSH2 0x1DC1 JUMP JUMPDEST SWAP1 POP PUSH2 0x1E66 DUP3 DUP3 PUSH2 0x1E1F JUMP JUMPDEST SWAP2 SWAP1 POP JUMP JUMPDEST PUSH1 0x0 PUSH8 0xFFFFFFFFFFFFFFFF DUP3 GT ISZERO PUSH2 0x1E86 JUMPI PUSH2 0x1E85 PUSH2 0x1DF0 JUMP JUMPDEST JUMPDEST PUSH2 0x1E8F DUP3 PUSH2 0x1DDF JUMP JUMPDEST SWAP1 POP PUSH1 0x20 DUP2 ADD SWAP1 POP SWAP2 SWAP1 POP JUMP JUMPDEST DUP3 DUP2 DUP4 CALLDATACOPY PUSH1 0x0 DUP4 DUP4 ADD MSTORE POP POP POP JUMP JUMPDEST PUSH1 0x0 PUSH2 0x1EBE PUSH2 0x1EB9 DUP5 PUSH2 0x1E6B JUMP JUMPDEST PUSH2 0x1E50 JUMP JUMPDEST SWAP1 POP DUP3 DUP2 MSTORE PUSH1 0x20 DUP2 ADD DUP5 DUP5 DUP5 ADD GT ISZERO PUSH2 0x1EDA JUMPI PUSH2 0x1ED9 PUSH2 0x1DDA JUMP JUMPDEST JUMPDEST PUSH2 0x1EE5 DUP5 DUP3 DUP6 PUSH2 0x1E9C JUMP JUMPDEST POP SWAP4 SWAP3 POP POP POP JUMP JUMPDEST PUSH1 0x0 DUP3 PUSH1 0x1F DUP4 ADD SLT PUSH2 0x1F02 JUMPI PUSH2 0x1F01 PUSH2 0x1DD5 JUMP JUMPDEST JUMPDEST DUP2 CALLDATALOAD PUSH2 0x1F12 DUP5 DUP3 PUSH1 0x20 DUP7 ADD PUSH2 0x1EAB JUMP JUMPDEST SWAP2 POP POP SWAP3 SWAP2 POP POP JUMP JUMPDEST PUSH1 0x0 PUSH1 0x20 DUP3 DUP5 SUB SLT ISZERO PUSH2 0x1F31 JUMPI PUSH2 0x1F30 PUSH2 0x1DCB JUMP JUMPDEST JUMPDEST PUSH1 0x0 DUP3 ADD CALLDATALOAD PUSH8 0xFFFFFFFFFFFFFFFF DUP2 GT ISZERO PUSH2 0x1F4F JUMPI PUSH2 0x1F4E PUSH2 0x1DD0 JUMP JUMPDEST JUMPDEST PUSH2 0x1F5B DUP5 DUP3 DUP6 ADD PUSH2 0x1EED JUMP JUMPDEST SWAP2 POP POP SWAP3 SWAP2 POP POP JUMP JUMPDEST PUSH1 0x0 PUSH20 0xFFFFFFFFFFFFFFFFFFFFFFFFFFFFFFFFFFFFFFFF DUP3 AND SWAP1 POP SWAP2 SWAP1 POP JUMP JUMPDEST PUSH1 0x0 PUSH2 0x1F8F DUP3 PUSH2 0x1F64 JUMP JUMPDEST SWAP1 POP SWAP2 SWAP1 POP JUMP JUMPDEST PUSH2 0x1F9F DUP2 PUSH2 0x1F84 JUMP JUMPDEST DUP2 EQ PUSH2 0x1FAA JUMPI PUSH1 0x0 DUP1 REVERT JUMPDEST POP JUMP JUMPDEST PUSH1 0x0 DUP2 CALLDATALOAD SWAP1 POP PUSH2 0x1FBC DUP2 PUSH2 0x1F96 JUMP JUMPDEST SWAP3 SWAP2 POP POP JUMP JUMPDEST PUSH1 0x0 DUP2 SWAP1 POP SWAP2 SWAP1 POP JUMP JUMPDEST PUSH2 0x1FD5 DUP2 PUSH2 0x1FC2 JUMP JUMPDEST DUP2 EQ PUSH2 0x1FE0 JUMPI PUSH1 0x0 DUP1 REVERT JUMPDEST POP JUMP JUMPDEST PUSH1 0x0 DUP2 CALLDATALOAD SWAP1 POP PUSH2 0x1FF2 DUP2 PUSH2 0x1FCC JUMP JUMPDEST SWAP3 SWAP2 POP POP JUMP JUMPDEST PUSH1 0x0 DUP1 PUSH1 0x40 DUP4 DUP6 SUB SLT ISZERO PUSH2 0x200F JUMPI PUSH2 0x200E PUSH2 0x1DCB JUMP JUMPDEST JUMPDEST PUSH1 0x0 PUSH2 0x201D DUP6 DUP3 DUP7 ADD PUSH2 0x1FAD JUMP JUMPDEST SWAP3 POP POP PUSH1 0x20 PUSH2 0x202E DUP6 DUP3 DUP7 ADD PUSH2 0x1FE3 JUMP JUMPDEST SWAP2 POP POP SWAP3 POP SWAP3 SWAP1 POP JUMP JUMPDEST PUSH1 0x0 DUP2 ISZERO ISZERO SWAP1 POP SWAP2 SWAP1 POP JUMP JUMPDEST PUSH2 0x204D DUP2 PUSH2 0x2038 JUMP JUMPDEST DUP3 MSTORE POP POP JUMP JUMPDEST PUSH1 0x0 PUSH1 0x20 DUP3 ADD SWAP1 POP PUSH2 0x2068 PUSH1 0x0 DUP4 ADD DUP5 PUSH2 0x2044 JUMP JUMPDEST SWAP3 SWAP2 POP POP JUMP JUMPDEST PUSH2 0x2077 DUP2 PUSH2 0x1FC2 JUMP JUMPDEST DUP3 MSTORE POP POP JUMP JUMPDEST PUSH1 0x0 PUSH1 0x20 DUP3 ADD SWAP1 POP PUSH2 0x2092 PUSH1 0x0 DUP4 ADD DUP5 PUSH2 0x206E JUMP JUMPDEST SWAP3 SWAP2 POP POP JUMP JUMPDEST PUSH1 0x0 PUSH1 0x20 DUP3 DUP5 SUB SLT ISZERO PUSH2 0x20AE JUMPI PUSH2 0x20AD PUSH2 0x1DCB JUMP JUMPDEST JUMPDEST PUSH1 0x0 PUSH2 0x20BC DUP5 DUP3 DUP6 ADD PUSH2 0x1FAD JUMP JUMPDEST SWAP2 POP POP SWAP3 SWAP2 POP POP JUMP JUMPDEST PUSH1 0x0 DUP2 MLOAD SWAP1 POP SWAP2 SWAP1 POP JUMP JUMPDEST PUSH1 0x0 DUP3 DUP3 MSTORE PUSH1 0x20 DUP3 ADD SWAP1 POP SWAP3 SWAP2 POP POP JUMP JUMPDEST PUSH1 0x0 JUMPDEST DUP4 DUP2 LT ISZERO PUSH2 0x20FF JUMPI DUP1 DUP3 ADD MLOAD DUP2 DUP5 ADD MSTORE PUSH1 0x20 DUP2 ADD SWAP1 POP PUSH2 0x20E4 JUMP JUMPDEST PUSH1 0x0 DUP5 DUP5 ADD MSTORE POP POP POP POP JUMP JUMPDEST PUSH1 0x0 PUSH2 0x2116 DUP3 PUSH2 0x20C5 JUMP JUMPDEST PUSH2 0x2120 DUP2 DUP6 PUSH2 0x20D0 JUMP JUMPDEST SWAP4 POP PUSH2 0x2130 DUP2 DUP6 PUSH1 0x20 DUP7 ADD PUSH2 0x20E1 JUMP JUMPDEST PUSH2 0x2139 DUP2 PUSH2 0x1DDF JUMP JUMPDEST DUP5 ADD SWAP2 POP POP SWAP3 SWAP2 POP POP JUMP JUMPDEST PUSH1 0x0 PUSH1 0x80 DUP3 ADD SWAP1 POP DUP2 DUP2 SUB PUSH1 0x0 DUP4 ADD MSTORE PUSH2 0x215E DUP2 DUP8 PUSH2 0x210B JUMP JUMPDEST SWAP1 POP PUSH2 0x216D PUSH1 0x20 DUP4 ADD DUP7 PUSH2 0x206E JUMP JUMPDEST PUSH2 0x217A PUSH1 0x40 DUP4 ADD DUP6 PUSH2 0x206E JUMP JUMPDEST PUSH2 0x2187 PUSH1 0x60 DUP4 ADD DUP5 PUSH2 0x206E JUMP JUMPDEST SWAP6 SWAP5 POP POP POP POP POP JUMP JUMPDEST PUSH1 0x0 PUSH1 0x20 DUP3 DUP5 SUB SLT ISZERO PUSH2 0x21A6 JUMPI PUSH2 0x21A5 PUSH2 0x1DCB JUMP JUMPDEST JUMPDEST PUSH1 0x0 PUSH2 0x21B4 DUP5 DUP3 DUP6 ADD PUSH2 0x1FE3 JUMP JUMPDEST SWAP2 POP POP SWAP3 SWAP2 POP POP JUMP JUMPDEST PUSH1 0x0 PUSH2 0x100 DUP3 ADD SWAP1 POP DUP2 DUP2 SUB PUSH1 0x0 DUP4 ADD MSTORE PUSH2 0x21D8 DUP2 DUP12 PUSH2 0x210B JUMP JUMPDEST SWAP1 POP PUSH2 0x21E7 PUSH1 0x20 DUP4 ADD DUP11 PUSH2 0x206E JUMP JUMPDEST DUP2 DUP2 SUB PUSH1 0x40 DUP4 ADD MSTORE PUSH2 0x21F9 DUP2 DUP10 PUSH2 0x210B JUMP JUMPDEST SWAP1 POP DUP2 DUP2 SUB PUSH1 0x60 DUP4 ADD MSTORE PUSH2 0x220D DUP2 DUP9 PUSH2 0x210B JUMP JUMPDEST SWAP1 POP PUSH2 0x221C PUSH1 0x80 DUP4 ADD DUP8 PUSH2 0x2044 JUMP JUMPDEST PUSH2 0x2229 PUSH1 0xA0 DUP4 ADD DUP7 PUSH2 0x2044 JUMP JUMPDEST PUSH2 0x2236 PUSH1 0xC0 DUP4 ADD DUP6 PUSH2 0x206E JUMP JUMPDEST PUSH2 0x2243 PUSH1 0xE0 DUP4 ADD DUP5 PUSH2 0x206E JUMP JUMPDEST SWAP10 SWAP9 POP POP POP POP POP POP POP POP POP JUMP JUMPDEST PUSH1 0x0 PUSH1 0xA0 DUP3 ADD SWAP1 POP DUP2 DUP2 SUB PUSH1 0x0 DUP4 ADD MSTORE PUSH2 0x226A DUP2 DUP9 PUSH2 0x210B JUMP JUMPDEST SWAP1 POP PUSH2 0x2279 PUSH1 0x20 DUP4 ADD DUP8 PUSH2 0x206E JUMP JUMPDEST PUSH2 0x2286 PUSH1 0x40 DUP4 ADD DUP7 PUSH2 0x206E JUMP JUMPDEST PUSH2 0x2293 PUSH1 0x60 DUP4 ADD DUP6 PUSH2 0x206E JUMP JUMPDEST PUSH2 0x22A0 PUSH1 0x80 DUP4 ADD DUP5 PUSH2 0x2044 JUMP JUMPDEST SWAP7 SWAP6 POP POP POP POP POP POP JUMP JUMPDEST PUSH2 0x22B3 DUP2 PUSH2 0x1F84 JUMP JUMPDEST DUP3 MSTORE POP POP JUMP JUMPDEST PUSH1 0x0 PUSH1 0x20 DUP3 ADD SWAP1 POP PUSH2 0x22CE PUSH1 0x0 DUP4 ADD DUP5 PUSH2 0x22AA JUMP JUMPDEST SWAP3 SWAP2 POP POP JUMP JUMPDEST PUSH1 0x0 DUP1 PUSH1 0x40 DUP4 DUP6 SUB SLT ISZERO PUSH2 0x22EB JUMPI PUSH2 0x22EA PUSH2 0x1DCB JUMP JUMPDEST JUMPDEST PUSH1 0x0 PUSH2 0x22F9 DUP6 DUP3 DUP7 ADD PUSH2 0x1FE3 JUMP JUMPDEST SWAP3 POP POP PUSH1 0x20 PUSH2 0x230A DUP6 DUP3 DUP7 ADD PUSH2 0x1FE3 JUMP JUMPDEST SWAP2 POP POP SWAP3 POP SWAP3 SWAP1 POP JUMP JUMPDEST PUSH32 0x4B68616E61746520616C72656164792065786973747300000000000000000000 PUSH1 0x0 DUP3 ADD MSTORE POP JUMP JUMPDEST PUSH1 0x0 PUSH2 0x234A PUSH1 0x16 DUP4 PUSH2 0x20D0 JUMP JUMPDEST SWAP2 POP PUSH2 0x2355 DUP3 PUSH2 0x2314 JUMP JUMPDEST PUSH1 0x20 DUP3 ADD SWAP1 POP SWAP2 SWAP1 POP JUMP JUMPDEST PUSH1 0x0 PUSH1 0x20 DUP3 ADD SWAP1 POP DUP2 DUP2 SUB PUSH1 0x0 DUP4 ADD MSTORE PUSH2 0x2379 DUP2 PUSH2 0x233D JUMP JUMPDEST SWAP1 POP SWAP2 SWAP1 POP JUMP JUMPDEST PUSH32 0x4E487B7100000000000000000000000000000000000000000000000000000000 PUSH1 0x0 MSTORE PUSH1 0x22 PUSH1 0x4 MSTORE PUSH1 0x24 PUSH1 0x0 REVERT JUMPDEST PUSH1 0x0 PUSH1 0x2 DUP3 DIV SWAP1 POP PUSH1 0x1 DUP3 AND DUP1 PUSH2 0x23C7 JUMPI PUSH1 0x7F DUP3 AND SWAP2 POP JUMPDEST PUSH1 0x20 DUP3 LT DUP2 SUB PUSH2 0x23DA JUMPI PUSH2 0x23D9 PUSH2 0x2380 JUMP JUMPDEST JUMPDEST POP SWAP2 SWAP1 POP JUMP JUMPDEST PUSH1 0x0 DUP2 SWAP1 POP DUP2 PUSH1 0x0 MSTORE PUSH1 0x20 PUSH1 0x0 KECCAK256 SWAP1 POP SWAP2 SWAP1 POP JUMP JUMPDEST PUSH1 0x0 PUSH1 0x20 PUSH1 0x1F DUP4 ADD DIV SWAP1 POP SWAP2 SWAP1 POP JUMP JUMPDEST PUSH1 0x0 DUP3 DUP3 SHL SWAP1 POP SWAP3 SWAP2 POP POP JUMP JUMPDEST PUSH1 0x0 PUSH1 0x8 DUP4 MUL PUSH2 0x2442 PUSH32 0xFFFFFFFFFFFFFFFFFFFFFFFFFFFFFFFFFFFFFFFFFFFFFFFFFFFFFFFFFFFFFFFF DUP3 PUSH2 0x2405 JUMP JUMPDEST PUSH2 0x244C DUP7 DUP4 PUSH2 0x2405 JUMP JUMPDEST SWAP6 POP DUP1 NOT DUP5 AND SWAP4 POP DUP1 DUP7 AND DUP5 OR SWAP3 POP POP POP SWAP4 SWAP3 POP POP POP JUMP JUMPDEST PUSH1 0x0 DUP2 SWAP1 POP SWAP2 SWAP1 POP JUMP JUMPDEST PUSH1 0x0 PUSH2 0x2489 PUSH2 0x2484 PUSH2 0x247F DUP5 PUSH2 0x1FC2 JUMP JUMPDEST PUSH2 0x2464 JUMP JUMPDEST PUSH2 0x1FC2 JUMP JUMPDEST SWAP1 POP SWAP2 SWAP1 POP JUMP JUMPDEST PUSH1 0x0 DUP2 SWAP1 POP SWAP2 SWAP1 POP JUMP JUMPDEST PUSH2 0x24A3 DUP4 PUSH2 0x246E JUMP JUMPDEST PUSH2 0x24B7 PUSH2 0x24AF DUP3 PUSH2 0x2490 JUMP JUMPDEST DUP5 DUP5 SLOAD PUSH2 0x2412 JUMP JUMPDEST DUP3 SSTORE POP POP POP POP JUMP JUMPDEST PUSH1 0x0 SWAP1 JUMP JUMPDEST PUSH2 0x24CC PUSH2 0x24BF JUMP JUMPDEST PUSH2 0x24D7 DUP2 DUP5 DUP5 PUSH2 0x249A JUMP JUMPDEST POP POP POP JUMP JUMPDEST JUMPDEST DUP2 DUP2 LT ISZERO PUSH2 0x24FB JUMPI PUSH2 0x24F0 PUSH1 0x0 DUP3 PUSH2 0x24C4 JUMP JUMPDEST PUSH1 0x1 DUP2 ADD SWAP1 POP PUSH2 0x24DD JUMP JUMPDEST POP POP JUMP JUMPDEST PUSH1 0x1F DUP3 GT ISZERO PUSH2 0x2540 JUMPI PUSH2 0x2511 DUP2 PUSH2 0x23E0 JUMP JUMPDEST PUSH2 0x251A DUP5 PUSH2 0x23F5 JUMP JUMPDEST DUP2 ADD PUSH1 0x20 DUP6 LT ISZERO PUSH2 0x2529 JUMPI DUP2 SWAP1 POP JUMPDEST PUSH2 0x253D PUSH2 0x2535 DUP6 PUSH2 0x23F5 JUMP JUMPDEST DUP4 ADD DUP3 PUSH2 0x24DC JUMP JUMPDEST POP POP JUMPDEST POP POP POP JUMP JUMPDEST PUSH1 0x0 DUP3 DUP3 SHR SWAP1 POP SWAP3 SWAP2 POP POP JUMP JUMPDEST PUSH1 0x0 PUSH2 0x2563 PUSH1 0x0 NOT DUP5 PUSH1 0x8 MUL PUSH2 0x2545 JUMP JUMPDEST NOT DUP1 DUP4 AND SWAP2 POP POP SWAP3 SWAP2 POP POP JUMP JUMPDEST PUSH1 0x0 PUSH2 0x257C DUP4 DUP4 PUSH2 0x2552 JUMP JUMPDEST SWAP2 POP DUP3 PUSH1 0x2 MUL DUP3 OR SWAP1 POP SWAP3 SWAP2 POP POP JUMP JUMPDEST PUSH2 0x2595 DUP3 PUSH2 0x20C5 JUMP JUMPDEST PUSH8 0xFFFFFFFFFFFFFFFF DUP2 GT ISZERO PUSH2 0x25AE JUMPI PUSH2 0x25AD PUSH2 0x1DF0 JUMP JUMPDEST JUMPDEST PUSH2 0x25B8 DUP3 SLOAD PUSH2 0x23AF JUMP JUMPDEST PUSH2 0x25C3 DUP3 DUP3 DUP6 PUSH2 0x24FF JUMP JUMPDEST PUSH1 0x0 PUSH1 0x20 SWAP1 POP PUSH1 0x1F DUP4 GT PUSH1 0x1 DUP2 EQ PUSH2 0x25F6 JUMPI PUSH1 0x0 DUP5 ISZERO PUSH2 0x25E4 JUMPI DUP3 DUP8 ADD MLOAD SWAP1 POP JUMPDEST PUSH2 0x25EE DUP6 DUP3 PUSH2 0x2570 JUMP JUMPDEST DUP7 SSTORE POP PUSH2 0x2656 JUMP JUMPDEST PUSH1 0x1F NOT DUP5 AND PUSH2 0x2604 DUP7 PUSH2 0x23E0 JUMP JUMPDEST PUSH1 0x0 JUMPDEST DUP3 DUP2 LT ISZERO PUSH2 0x262C JUMPI DUP5 DUP10 ADD MLOAD DUP3 SSTORE PUSH1 0x1 DUP3 ADD SWAP2 POP PUSH1 0x20 DUP6 ADD SWAP5 POP PUSH1 0x20 DUP2 ADD SWAP1 POP PUSH2 0x2607 JUMP JUMPDEST DUP7 DUP4 LT ISZERO PUSH2 0x2649 JUMPI DUP5 DUP10 ADD MLOAD PUSH2 0x2645 PUSH1 0x1F DUP10 AND DUP3 PUSH2 0x2552 JUMP JUMPDEST DUP4 SSTORE POP JUMPDEST PUSH1 0x1 PUSH1 0x2 DUP9 MUL ADD DUP9 SSTORE POP POP POP JUMPDEST POP POP POP POP POP POP JUMP JUMPDEST PUSH1 0x0 PUSH1 0x20 DUP3 ADD SWAP1 POP DUP2 DUP2 SUB PUSH1 0x0 DUP4 ADD MSTORE PUSH2 0x2678 DUP2 DUP5 PUSH2 0x210B JUMP JUMPDEST SWAP1 POP SWAP3 SWAP2 POP POP JUMP JUMPDEST PUSH32 0x496E76616C696420426174797220494400000000000000000000000000000000 PUSH1 0x0 DUP3 ADD MSTORE POP JUMP JUMPDEST PUSH1 0x0 PUSH2 0x26B6 PUSH1 0x10 DUP4 PUSH2 0x20D0 JUMP JUMPDEST SWAP2 POP PUSH2 0x26C1 DUP3 PUSH2 0x2680 JUMP JUMPDEST PUSH1 0x20 DUP3 ADD SWAP1 POP SWAP2 SWAP1 POP JUMP JUMPDEST PUSH1 0x0 PUSH1 0x20 DUP3 ADD SWAP1 POP DUP2 DUP2 SUB PUSH1 0x0 DUP4 ADD MSTORE PUSH2 0x26E5 DUP2 PUSH2 0x26A9 JUMP JUMPDEST SWAP1 POP SWAP2 SWAP1 POP JUMP JUMPDEST PUSH32 0x496E73756666696369656E74207061796D656E74000000000000000000000000 PUSH1 0x0 DUP3 ADD MSTORE POP JUMP JUMPDEST PUSH1 0x0 PUSH2 0x2722 PUSH1 0x14 DUP4 PUSH2 0x20D0 JUMP JUMPDEST SWAP2 POP PUSH2 0x272D DUP3 PUSH2 0x26EC JUMP JUMPDEST PUSH1 0x20 DUP3 ADD SWAP1 POP SWAP2 SWAP1 POP JUMP JUMPDEST PUSH1 0x0 PUSH1 0x20 DUP3 ADD SWAP1 POP DUP2 DUP2 SUB PUSH1 0x0 DUP4 ADD MSTORE PUSH2 0x2751 DUP2 PUSH2 0x2715 JUMP JUMPDEST SWAP1 POP SWAP2 SWAP1 POP JUMP JUMPDEST PUSH32 0x4B68616E617465206E6F7420696E697469616C697A6564000000000000000000 PUSH1 0x0 DUP3 ADD MSTORE POP JUMP JUMPDEST PUSH1 0x0 PUSH2 0x278E PUSH1 0x17 DUP4 PUSH2 0x20D0 JUMP JUMPDEST SWAP2 POP PUSH2 0x2799 DUP3 PUSH2 0x2758 JUMP JUMPDEST PUSH1 0x20 DUP3 ADD SWAP1 POP SWAP2 SWAP1 POP JUMP JUMPDEST PUSH1 0x0 PUSH1 0x20 DUP3 ADD SWAP1 POP DUP2 DUP2 SUB PUSH1 0x0 DUP4 ADD MSTORE PUSH2 0x27BD DUP2 PUSH2 0x2781 JUMP JUMPDEST SWAP1 POP SWAP2 SWAP1 POP JUMP JUMPDEST PUSH1 0x0 DUP2 SWAP1 POP SWAP2 SWAP1 POP JUMP JUMPDEST PUSH2 0x27DF PUSH2 0x27DA DUP3 PUSH2 0x1FC2 JUMP JUMPDEST PUSH2 0x27C4 JUMP JUMPDEST DUP3 MSTORE POP POP JUMP JUMPDEST PUSH1 0x0 DUP2 PUSH1 0x60 SHL SWAP1 POP SWAP2 SWAP1 POP JUMP JUMPDEST PUSH1 0x0 PUSH2 0x27FD DUP3 PUSH2 0x27E5 JUMP JUMPDEST SWAP1 POP SWAP2 SWAP1 POP JUMP JUMPDEST PUSH1 0x0 PUSH2 0x280F DUP3 PUSH2 0x27F2 JUMP JUMPDEST SWAP1 POP SWAP2 SWAP1 POP JUMP JUMPDEST PUSH2 0x2827 PUSH2 0x2822 DUP3 PUSH2 0x1F84 JUMP JUMPDEST PUSH2 0x2804 JUMP JUMPDEST DUP3 MSTORE POP POP JUMP JUMPDEST PUSH1 0x0 PUSH2 0x2839 DUP3 DUP7 PUSH2 0x27CE JUMP JUMPDEST PUSH1 0x20 DUP3 ADD SWAP2 POP PUSH2 0x2849 DUP3 DUP6 PUSH2 0x27CE JUMP JUMPDEST PUSH1 0x20 DUP3 ADD SWAP2 POP PUSH2 0x2859 DUP3 DUP5 PUSH2 0x2816 JUMP JUMPDEST PUSH1 0x14 DUP3 ADD SWAP2 POP DUP2 SWAP1 POP SWAP5 SWAP4 POP POP POP POP JUMP JUMPDEST PUSH32 0x4E487B7100000000000000000000000000000000000000000000000000000000 PUSH1 0x0 MSTORE PUSH1 0x12 PUSH1 0x4 MSTORE PUSH1 0x24 PUSH1 0x0 REVERT JUMPDEST PUSH1 0x0 PUSH2 0x28A4 DUP3 PUSH2 0x1FC2 JUMP JUMPDEST SWAP2 POP PUSH2 0x28AF DUP4 PUSH2 0x1FC2 JUMP JUMPDEST SWAP3 POP DUP3 PUSH2 0x28BF JUMPI PUSH2 0x28BE PUSH2 0x286A JUMP JUMPDEST JUMPDEST DUP3 DUP3 MOD SWAP1 POP SWAP3 SWAP2 POP POP JUMP JUMPDEST PUSH32 0x4E487B7100000000000000000000000000000000000000000000000000000000 PUSH1 0x0 MSTORE PUSH1 0x11 PUSH1 0x4 MSTORE PUSH1 0x24 PUSH1 0x0 REVERT JUMPDEST PUSH1 0x0 PUSH2 0x2904 DUP3 PUSH2 0x1FC2 JUMP JUMPDEST SWAP2 POP PUSH32 0xFFFFFFFFFFFFFFFFFFFFFFFFFFFFFFFFFFFFFFFFFFFFFFFFFFFFFFFFFFFFFFFF DUP3 SUB PUSH2 0x2936 JUMPI PUSH2 0x2935 PUSH2 0x28CA JUMP JUMPDEST JUMPDEST PUSH1 0x1 DUP3 ADD SWAP1 POP SWAP2 SWAP1 POP JUMP JUMPDEST PUSH1 0x0 PUSH2 0x294C DUP3 PUSH2 0x1FC2 JUMP JUMPDEST SWAP2 POP PUSH2 0x2957 DUP4 PUSH2 0x1FC2 JUMP JUMPDEST SWAP3 POP DUP3 DUP3 ADD SWAP1 POP DUP1 DUP3 GT ISZERO PUSH2 0x296F JUMPI PUSH2 0x296E PUSH2 0x28CA JUMP JUMPDEST JUMPDEST SWAP3 SWAP2 POP POP JUMP JUMPDEST PUSH1 0x0 DUP2 SLOAD PUSH2 0x2982 DUP2 PUSH2 0x23AF JUMP JUMPDEST PUSH2 0x298C DUP2 DUP7 PUSH2 0x20D0 JUMP JUMPDEST SWAP5 POP PUSH1 0x1 DUP3 AND PUSH1 0x0 DUP2 EQ PUSH2 0x29A7 JUMPI PUSH1 0x1 DUP2 EQ PUSH2 0x29BD JUMPI PUSH2 0x29F0 JUMP JUMPDEST PUSH1 0xFF NOT DUP4 AND DUP7 MSTORE DUP2 ISZERO ISZERO PUSH1 0x20 MUL DUP7 ADD SWAP4 POP PUSH2 0x29F0 JUMP JUMPDEST PUSH2 0x29C6 DUP6 PUSH2 0x23E0 JUMP JUMPDEST PUSH1 0x0 JUMPDEST DUP4 DUP2 LT ISZERO PUSH2 0x29E8 JUMPI DUP2 SLOAD DUP2 DUP10 ADD MSTORE PUSH1 0x1 DUP3 ADD SWAP2 POP PUSH1 0x20 DUP2 ADD SWAP1 POP PUSH2 0x29C9 JUMP JUMPDEST DUP1 DUP9 ADD SWAP6 POP POP POP JUMPDEST POP POP POP SWAP3 SWAP2 POP POP JUMP JUMPDEST PUSH1 0x0 PUSH1 0x40 DUP3 ADD SWAP1 POP PUSH2 0x2A0E PUSH1 0x0 DUP4 ADD DUP6 PUSH2 0x206E JUMP JUMPDEST DUP2 DUP2 SUB PUSH1 0x20 DUP4 ADD MSTORE PUSH2 0x2A20 DUP2 DUP5 PUSH2 0x2975 JUMP JUMPDEST SWAP1 POP SWAP4 SWAP3 POP POP POP JUMP JUMPDEST PUSH1 0x0 PUSH2 0x2A34 DUP3 PUSH2 0x1FC2 JUMP JUMPDEST SWAP2 POP PUSH2 0x2A3F DUP4 PUSH2 0x1FC2 JUMP JUMPDEST SWAP3 POP DUP3 DUP3 SUB SWAP1 POP DUP2 DUP2 GT ISZERO PUSH2 0x2A57 JUMPI PUSH2 0x2A56 PUSH2 0x28CA JUMP JUMPDEST JUMPDEST SWAP3 SWAP2 POP POP JUMP JUMPDEST PUSH32 0x496E76616C6964206B68616E6174657300000000000000000000000000000000 PUSH1 0x0 DUP3 ADD MSTORE POP JUMP JUMPDEST PUSH1 0x0 PUSH2 0x2A93 PUSH1 0x10 DUP4 PUSH2 0x20D0 JUMP JUMPDEST SWAP2 POP PUSH2 0x2A9E DUP3 PUSH2 0x2A5D JUMP JUMPDEST PUSH1 0x20 DUP3 ADD SWAP1 POP SWAP2 SWAP1 POP JUMP JUMPDEST PUSH1 0x0 PUSH1 0x20 DUP3 ADD SWAP1 POP DUP2 DUP2 SUB PUSH1 0x0 DUP4 ADD MSTORE PUSH2 0x2AC2 DUP2 PUSH2 0x2A86 JUMP JUMPDEST SWAP1 POP SWAP2 SWAP1 POP JUMP JUMPDEST PUSH32 0x43616E6E6F7420626174746C6520796F757273656C6600000000000000000000 PUSH1 0x0 DUP3 ADD MSTORE POP JUMP JUMPDEST PUSH1 0x0 PUSH2 0x2AFF PUSH1 0x16 DUP4 PUSH2 0x20D0 JUMP JUMPDEST SWAP2 POP PUSH2 0x2B0A DUP3 PUSH2 0x2AC9 JUMP JUMPDEST PUSH1 0x20 DUP3 ADD SWAP1 POP SWAP2 SWAP1 POP JUMP JUMPDEST PUSH1 0x0 PUSH1 0x20 DUP3 ADD SWAP1 POP DUP2 DUP2 SUB PUSH1 0x0 DUP4 ADD MSTORE PUSH2 0x2B2E DUP2 PUSH2 0x2AF2 JUMP JUMPDEST SWAP1 POP SWAP2 SWAP1 POP JUMP JUMPDEST PUSH1 0x0 PUSH2 0x2B40 DUP3 PUSH2 0x1FC2 JUMP JUMPDEST SWAP2 POP PUSH2 0x2B4B DUP4 PUSH2 0x1FC2 JUMP JUMPDEST SWAP3 POP DUP3 DUP3 MUL PUSH2 0x2B59 DUP2 PUSH2 0x1FC2 JUMP JUMPDEST SWAP2 POP DUP3 DUP3 DIV DUP5 EQ DUP4 ISZERO OR PUSH2 0x2B70 JUMPI PUSH2 0x2B6F PUSH2 0x28CA JUMP JUMPDEST JUMPDEST POP SWAP3 SWAP2 POP POP JUMP JUMPDEST PUSH1 0x0 PUSH2 0x2B82 DUP3 PUSH2 0x1FC2 JUMP JUMPDEST SWAP2 POP PUSH2 0x2B8D DUP4 PUSH2 0x1FC2 JUMP JUMPDEST SWAP3 POP DUP3 PUSH2 0x2B9D JUMPI PUSH2 0x2B9C PUSH2 0x286A JUMP JUMPDEST JUMPDEST DUP3 DUP3 DIV SWAP1 POP SWAP3 SWAP2 POP POP JUMP JUMPDEST PUSH1 0x0 PUSH1 0x40 DUP3 ADD SWAP1 POP PUSH2 0x2BBD PUSH1 0x0 DUP4 ADD DUP6 PUSH2 0x2044 JUMP JUMPDEST PUSH2 0x2BCA PUSH1 0x20 DUP4 ADD DUP5 PUSH2 0x206E JUMP JUMPDEST SWAP4 SWAP3 POP POP POP JUMP JUMPDEST PUSH1 0x0 PUSH1 0x40 DUP3 ADD SWAP1 POP PUSH2 0x2BE6 PUSH1 0x0 DUP4 ADD DUP6 PUSH2 0x206E JUMP JUMPDEST PUSH2 0x2BF3 PUSH1 0x20 DUP4 ADD DUP5 PUSH2 0x206E JUMP JUMPDEST SWAP4 SWAP3 POP POP POP JUMP JUMPDEST PUSH32 0x4F776E61626C653A206E6577206F776E657220697320746865207A65726F2061 PUSH1 0x0 DUP3 ADD MSTORE PUSH32 0x6464726573730000000000000000000000000000000000000000000000000000 PUSH1 0x20 DUP3 ADD MSTORE POP JUMP JUMPDEST PUSH1 0x0 PUSH2 0x2C56 PUSH1 0x26 DUP4 PUSH2 0x20D0 JUMP JUMPDEST SWAP2 POP PUSH2 0x2C61 DUP3 PUSH2 0x2BFA JUMP JUMPDEST PUSH1 0x40 DUP3 ADD SWAP1 POP SWAP2 SWAP1 POP JUMP JUMPDEST PUSH1 0x0 PUSH1 0x20 DUP3 ADD SWAP1 POP DUP2 DUP2 SUB PUSH1 0x0 DUP4 ADD MSTORE PUSH2 0x2C85 DUP2 PUSH2 0x2C49 JUMP JUMPDEST SWAP1 POP SWAP2 SWAP1 POP JUMP JUMPDEST PUSH32 0x5265656E7472616E637947756172643A207265656E7472616E742063616C6C00 PUSH1 0x0 DUP3 ADD MSTORE POP JUMP JUMPDEST PUSH1 0x0 PUSH2 0x2CC2 PUSH1 0x1F DUP4 PUSH2 0x20D0 JUMP JUMPDEST SWAP2 POP PUSH2 0x2CCD DUP3 PUSH2 0x2C8C JUMP JUMPDEST PUSH1 0x20 DUP3 ADD SWAP1 POP SWAP2 SWAP1 POP JUMP JUMPDEST PUSH1 0x0 PUSH1 0x20 DUP3 ADD SWAP1 POP DUP2 DUP2 SUB PUSH1 0x0 DUP4 ADD MSTORE PUSH2 0x2CF1 DUP2 PUSH2 0x2CB5 JUMP JUMPDEST SWAP1 POP SWAP2 SWAP1 POP JUMP JUMPDEST PUSH32 0x4F776E61626C653A2063616C6C6572206973206E6F7420746865206F776E6572 PUSH1 0x0 DUP3 ADD MSTORE POP JUMP JUMPDEST PUSH1 0x0 PUSH2 0x2D2E PUSH1 0x20 DUP4 PUSH2 0x20D0 JUMP JUMPDEST SWAP2 POP PUSH2 0x2D39 DUP3 PUSH2 0x2CF8 JUMP JUMPDEST PUSH1 0x20 DUP3 ADD SWAP1 POP SWAP2 SWAP1 POP JUMP JUMPDEST PUSH1 0x0 PUSH1 0x20 DUP3 ADD SWAP1 POP DUP2 DUP2 SUB PUSH1 0x0 DUP4 ADD MSTORE PUSH2 0x2D5D DUP2 PUSH2 0x2D21 JUMP JUMPDEST SWAP1 POP SWAP2 SWAP1 POP JUMP INVALID LOG2 PUSH5 0x6970667358 0x22 SLT KECCAK256 SELFBALANCE DUP14 0xC3 CALL DELEGATECALL 0xA8 CALLDATACOPY 0xDB 0xE8 0xEF 0xFC SWAP12 0xFC 0xB7 DUP2 0xB2 PUSH16 0x910610088E00ECC2B49195ADF849A764 PUSH20 0x6F6C6343000813003341206272696C6C69616E74 KECCAK256 PUSH20 0x7472617465676973742077686F20656E68616E63 PUSH6 0x7320616C6C20 PUSH21 0x726F6F707327206566666563746976656E65737320 PUSH3 0x792032 ADDRESS 0x25 COINBASE KECCAK256 PUSH14 0x6173746572206F6620636F6D6269 PUSH15 0x65642061726D732074616374696373 0x2E KECCAK256 POP PUSH19 0x6F76696465732062616C616E63656420626F6E PUSH22 0x73657320746F20616C6C20756E69747341207374616C PUSH24 0x61727420646566656E646572206F6620746865204B617A61 PUSH12 0x68206C616E64732E2050726F PUSH23 0x69646573207374726F6E6720646566656E736976652062 PUSH16 0x6E75736573206275742063616E6E6F74 KECCAK256 PUSH17 0x6172746963697061746520696E20617474 PUSH2 0x636B PUSH20 0x41206C6567656E646172792077617272696F7220 PUSH12 0x6E6F776E20666F7220686973 KECCAK256 PUSH4 0x6176616C PUSH19 0x7920746163746963732E20496E637265617365 PUSH20 0x20636176616C7279206566666563746976656E65 PUSH20 0x73206279203530254D6173746572206F66206172 PUSH4 0x68657279 KECCAK256 PUSH21 0x6163746963732E20496E6372656173657320617263 PUSH9 0x657220656666656374 PUSH10 0x76656E65737320627920 CALLDATALOAD ADDRESS 0x25 "},"methodIdentifiers":{"ARCHER_PRICE()":"3dde60c2","CAVALRY_PRICE()":"6011515c","LUCKY_BOX_PRICE()":"e0f83f21","battle(address)":"71c95281","batyrStats(uint256)":"57c86704","createKhanate(string)":"0c1cdb6d","getBatyrStats(uint256)":"c1c063eb","getKhanateStats(address)":"3f430695","hasBatyr(address,uint256)":"232e096d","khanates(address)":"6b4faeca","owner()":"8da5cb5b","purchaseLuckyBox()":"3a0de743","purchaseTroops(uint256,uint256)":"dfad6257","renounceOwnership()":"715018a6","transferOwnership(address)":"f2fde38b"}}}}}