{"contracts/KazakhKhanate.sol":{"KazakhKhanate":{"abi":[{"inputs":[],"stateMutability":"nonpayable","type":"constructor"},{"anonymous":false,"inputs":[{"indexed":true,"internalType":"address","name":"attacker","type":"address"},{"indexed":true,"internalType":"address","name":"defender","type":"address"},{"indexed":false,"internalType":"bool","name":"victory","type":"bool"}],"name":"BattleResult","type":"event"},{"anonymous":false,"inputs":[{"indexed":true,"internalType":"address","name":"owner","type":"address"},{"indexed":false,"internalType":"uint256","name":"batyrId","type":"uint256"}],"name":"BatyrAcquired","type":"event"},{"anonymous":false,"inputs":[{"indexed":true,"internalType":"address","name":"owner","type":"address"},{"indexed":false,"internalType":"string","name":"name","type":"string"}],"name":"KhanateCreated","type":"event"},{"anonymous":false,"inputs":[{"indexed":true,"internalType":"address","name":"previousOwner","type":"address"},{"indexed":true,"internalType":"address","name":"newOwner","type":"address"}],"name":"OwnershipTransferred","type":"event"},{"anonymous":false,"inputs":[{"indexed":true,"internalType":"address","name":"owner","type":"address"},{"indexed":false,"internalType":"uint256","name":"archers","type":"uint256"},{"indexed":false,"internalType":"uint256","name":"cavalry","type":"uint256"}],"name":"TroopsPurchased","type":"event"},{"inputs":[],"name":"ARCHER_PRICE","outputs":[{"internalType":"uint256","name":"","type":"uint256"}],"stateMutability":"view","type":"function"},{"inputs":[],"name":"CAVALRY_PRICE","outputs":[{"internalType":"uint256","name":"","type":"uint256"}],"stateMutability":"view","type":"function"},{"inputs":[],"name":"LUCKY_BOX_PRICE","outputs":[{"internalType":"uint256","name":"","type":"uint256"}],"stateMutability":"view","type":"function"},{"inputs":[{"internalType":"address","name":"_opponent","type":"address"}],"name":"battle","outputs":[],"stateMutability":"nonpayable","type":"function"},{"inputs":[{"internalType":"uint256","name":"","type":"uint256"}],"name":"batyrStats","outputs":[{"internalType":"string","name":"name","type":"string"},{"internalType":"uint256","name":"power","type":"uint256"},{"internalType":"string","name":"ability","type":"string"}],"stateMutability":"view","type":"function"},{"inputs":[{"internalType":"string","name":"_name","type":"string"}],"name":"createKhanate","outputs":[],"stateMutability":"nonpayable","type":"function"},{"inputs":[{"internalType":"address","name":"_player","type":"address"}],"name":"getKhanateStats","outputs":[{"internalType":"string","name":"name","type":"string"},{"internalType":"uint256","name":"level","type":"uint256"},{"internalType":"uint256","name":"archers","type":"uint256"},{"internalType":"uint256","name":"cavalry","type":"uint256"}],"stateMutability":"view","type":"function"},{"inputs":[{"internalType":"address","name":"_player","type":"address"},{"internalType":"uint256","name":"_batyrId","type":"uint256"}],"name":"hasBatyr","outputs":[{"internalType":"bool","name":"","type":"bool"}],"stateMutability":"view","type":"function"},{"inputs":[{"internalType":"address","name":"","type":"address"}],"name":"khanates","outputs":[{"internalType":"string","name":"name","type":"string"},{"internalType":"uint256","name":"level","type":"uint256"},{"internalType":"uint256","name":"archers","type":"uint256"},{"internalType":"uint256","name":"cavalry","type":"uint256"},{"internalType":"bool","name":"isInitialized","type":"bool"}],"stateMutability":"view","type":"function"},{"inputs":[],"name":"owner","outputs":[{"internalType":"address","name":"","type":"address"}],"stateMutability":"view","type":"function"},{"inputs":[],"name":"purchaseLuckyBox","outputs":[],"stateMutability":"payable","type":"function"},{"inputs":[{"internalType":"uint256","name":"_archers","type":"uint256"},{"internalType":"uint256","name":"_cavalry","type":"uint256"}],"name":"purchaseTroops","outputs":[],"stateMutability":"payable","type":"function"},{"inputs":[],"name":"renounceOwnership","outputs":[],"stateMutability":"nonpayable","type":"function"},{"inputs":[{"internalType":"address","name":"newOwner","type":"address"}],"name":"transferOwnership","outputs":[],"stateMutability":"nonpayable","type":"function"}],"evm":{"bytecode":{"linkReferences":{},"object":"60806040523480156200001157600080fd5b5062000032620000266200047260201b60201c565b6200047a60201b60201c565b6001808190555060405180606001604052806040518060400160405280600e81526020017f4b6162616e6261792042617479720000000000000000000000000000000000008152508152602001601e81526020016040518060400160405280601081526020017f5665727920686967682064616d6167650000000000000000000000000000000081525081525060036000600181526020019081526020016000206000820151816000019081620000ea9190620007b8565b506020820151816001015560408201518160020190816200010c9190620007b8565b5090505060405180606001604052806040518060400160405280600f81526020017f4b6f62796c616e647920426174797200000000000000000000000000000000008152508152602001601981526020016040518060400160405280601681526020017f4869676820737065656420616e6420646566656e73650000000000000000000081525081525060036000600281526020019081526020016000206000820151816000019081620001c19190620007b8565b50602082015181600101556040820151816002019081620001e39190620007b8565b5090505060405180606001604052806040518060400160405280600b81526020017f4162796c6169204b68616e0000000000000000000000000000000000000000008152508152602001601481526020016040518060400160405280601081526020017f4c65616465727368697020626f6e75730000000000000000000000000000000081525081525060036000600381526020019081526020016000206000820151816000019081620002989190620007b8565b50602082015181600101556040820151816002019081620002ba9190620007b8565b5090505060405180606001604052806040518060400160405280600e81526020017f5261696d67617a792042617479720000000000000000000000000000000000008152508152602001601681526020016040518060400160405280600f81526020017f436176616c727920636f756e7465720000000000000000000000000000000000815250815250600360006004815260200190815260200160002060008201518160000190816200036f9190620007b8565b50602082015181600101556040820151816002019081620003919190620007b8565b5090505060405180606001604052806040518060400160405280600a81526020017f5372796d204461746f76000000000000000000000000000000000000000000008152508152602001601581526020016040518060400160405280601181526020017f417263686572207370656369616c69737400000000000000000000000000000081525081525060036000600581526020019081526020016000206000820151816000019081620004469190620007b8565b50602082015181600101556040820151816002019081620004689190620007b8565b509050506200089f565b600033905090565b60008060009054906101000a900473ffffffffffffffffffffffffffffffffffffffff169050816000806101000a81548173ffffffffffffffffffffffffffffffffffffffff021916908373ffffffffffffffffffffffffffffffffffffffff1602179055508173ffffffffffffffffffffffffffffffffffffffff168173ffffffffffffffffffffffffffffffffffffffff167f8be0079c531659141344cd1fd0a4f28419497f9722a3daafe3b4186f6b6457e060405160405180910390a35050565b600081519050919050565b7f4e487b7100000000000000000000000000000000000000000000000000000000600052604160045260246000fd5b7f4e487b7100000000000000000000000000000000000000000000000000000000600052602260045260246000fd5b60006002820490506001821680620005c057607f821691505b602082108103620005d657620005d562000578565b5b50919050565b60008190508160005260206000209050919050565b60006020601f8301049050919050565b600082821b905092915050565b600060088302620006407fffffffffffffffffffffffffffffffffffffffffffffffffffffffffffffffff8262000601565b6200064c868362000601565b95508019841693508086168417925050509392505050565b6000819050919050565b6000819050919050565b600062000699620006936200068d8462000664565b6200066e565b62000664565b9050919050565b6000819050919050565b620006b58362000678565b620006cd620006c482620006a0565b8484546200060e565b825550505050565b600090565b620006e4620006d5565b620006f1818484620006aa565b505050565b5b8181101562000719576200070d600082620006da565b600181019050620006f7565b5050565b601f82111562000768576200073281620005dc565b6200073d84620005f1565b810160208510156200074d578190505b620007656200075c85620005f1565b830182620006f6565b50505b505050565b600082821c905092915050565b60006200078d600019846008026200076d565b1980831691505092915050565b6000620007a883836200077a565b9150826002028217905092915050565b620007c3826200053e565b67ffffffffffffffff811115620007df57620007de62000549565b5b620007eb8254620005a7565b620007f88282856200071d565b600060209050601f8311600181146200083057600084156200081b578287015190505b6200082785826200079a565b86555062000897565b601f1984166200084086620005dc565b60005b828110156200086a5784890151825560018201915060208501945060208101905062000843565b868310156200088a578489015162000886601f8916826200077a565b8355505b6001600288020188555050505b505050505050565b61255280620008af6000396000f3fe6080604052600436106100dd5760003560e01c80636b4faeca1161007f5780638da5cb5b116100595780638da5cb5b146102a8578063dfad6257146102d3578063e0f83f21146102ef578063f2fde38b1461031a576100dd565b80636b4faeca14610227578063715018a61461026857806371c952811461027f576100dd565b80633dde60c2116100bb5780633dde60c2146101525780633f4306951461017d57806357c86704146101bd5780636011515c146101fc576100dd565b80630c1cdb6d146100e2578063232e096d1461010b5780633a0de74314610148575b600080fd5b3480156100ee57600080fd5b50610109600480360381019061010491906117fe565b610343565b005b34801561011757600080fd5b50610132600480360381019061012d91906118db565b6104b5565b60405161013f9190611936565b60405180910390f35b61015061056f565b005b34801561015e57600080fd5b506101676107ed565b6040516101749190611960565b60405180910390f35b34801561018957600080fd5b506101a4600480360381019061019f919061197b565b6107f8565b6040516101b49493929190611a27565b60405180910390f35b3480156101c957600080fd5b506101e460048036038101906101df9190611a73565b610980565b6040516101f393929190611aa0565b60405180910390f35b34801561020857600080fd5b50610211610aba565b60405161021e9190611960565b60405180910390f35b34801561023357600080fd5b5061024e6004803603810190610249919061197b565b610ac5565b60405161025f959493929190611ae5565b60405180910390f35b34801561027457600080fd5b5061027d610b90565b005b34801561028b57600080fd5b506102a660048036038101906102a1919061197b565b610ba4565b005b3480156102b457600080fd5b506102bd61106f565b6040516102ca9190611b4e565b60405180910390f35b6102ed60048036038101906102e89190611b69565b611098565b005b3480156102fb57600080fd5b50610304611310565b6040516103119190611960565b60405180910390f35b34801561032657600080fd5b50610341600480360381019061033c919061197b565b61131c565b005b600260003373ffffffffffffffffffffffffffffffffffffffff1673ffffffffffffffffffffffffffffffffffffffff16815260200190815260200160002060050160009054906101000a900460ff16156103d3576040517f08c379a00000000000000000000000000000000000000000000000000000000081526004016103ca90611bf5565b60405180910390fd5b6000600260003373ffffffffffffffffffffffffffffffffffffffff1673ffffffffffffffffffffffffffffffffffffffff1681526020019081526020016000209050818160000190816104279190611e21565b5060018160010181905550600a81600201819055506005816003018190555060018160050160006101000a81548160ff0219169083151502179055503373ffffffffffffffffffffffffffffffffffffffff167f67409ced604950b5508f075f60153e7d166866a8251a44b569a7a07d7f27c3eb836040516104a99190611ef3565b60405180910390a25050565b600080821180156104c7575060058211155b610506576040517f08c379a00000000000000000000000000000000000000000000000000000000081526004016104fd90611f61565b60405180910390fd5b600260008473ffffffffffffffffffffffffffffffffffffffff1673ffffffffffffffffffffffffffffffffffffffff168152602001908152602001600020600401600083815260200190815260200160002060009054906101000a900460ff16905092915050565b61057761139f565b67016345785d8a00003410156105c2576040517f08c379a00000000000000000000000000000000000000000000000000000000081526004016105b990611fcd565b60405180910390fd5b600260003373ffffffffffffffffffffffffffffffffffffffff1673ffffffffffffffffffffffffffffffffffffffff16815260200190815260200160002060050160009054906101000a900460ff16610651576040517f08c379a000000000000000000000000000000000000000000000000000000000815260040161064890612039565b60405180910390fd5b6000444233604051602001610668939291906120c2565b6040516020818303038152906040528051906020012060001c90506000606482610692919061212e565b9050600a81101561077657600060016005846106ae919061212e565b6106b8919061218e565b90506001600260003373ffffffffffffffffffffffffffffffffffffffff1673ffffffffffffffffffffffffffffffffffffffff168152602001908152602001600020600401600083815260200190815260200160002060006101000a81548160ff0219169083151502179055503373ffffffffffffffffffffffffffffffffffffffff167ff877951e00dcc3cdca3128576bb85744a328db5182a4961bb6cf59cfec3095948260405161076c9190611960565b60405180910390a2505b67016345785d8a00003411156107e1573373ffffffffffffffffffffffffffffffffffffffff166108fc67016345785d8a0000346107b491906121c2565b9081150290604051600060405180830381858888f193505050501580156107df573d6000803e3d6000fd5b505b50506107eb6113ee565b565b662386f26fc1000081565b60606000806000600260008673ffffffffffffffffffffffffffffffffffffffff1673ffffffffffffffffffffffffffffffffffffffff16815260200190815260200160002060050160009054906101000a900460ff1661088e576040517f08c379a000000000000000000000000000000000000000000000000000000000815260040161088590612039565b60405180910390fd5b6000600260008773ffffffffffffffffffffffffffffffffffffffff1673ffffffffffffffffffffffffffffffffffffffff1681526020019081526020016000209050806000018160010154826002015483600301548380546108f090611c44565b80601f016020809104026020016040519081016040528092919081815260200182805461091c90611c44565b80156109695780601f1061093e57610100808354040283529160200191610969565b820191906000526020600020905b81548152906001019060200180831161094c57829003601f168201915b505050505093509450945094509450509193509193565b60036020528060005260406000206000915090508060000180546109a390611c44565b80601f01602080910402602001604051908101604052809291908181526020018280546109cf90611c44565b8015610a1c5780601f106109f157610100808354040283529160200191610a1c565b820191906000526020600020905b8154815290600101906020018083116109ff57829003601f168201915b505050505090806001015490806002018054610a3790611c44565b80601f0160208091040260200160405190810160405280929190818152602001828054610a6390611c44565b8015610ab05780601f10610a8557610100808354040283529160200191610ab0565b820191906000526020600020905b815481529060010190602001808311610a9357829003601f168201915b5050505050905083565b66470de4df82000081565b6002602052806000526040600020600091509050806000018054610ae890611c44565b80601f0160208091040260200160405190810160405280929190818152602001828054610b1490611c44565b8015610b615780601f10610b3657610100808354040283529160200191610b61565b820191906000526020600020905b815481529060010190602001808311610b4457829003601f168201915b5050505050908060010154908060020154908060030154908060050160009054906101000a900460ff16905085565b610b986113f7565b610ba26000611475565b565b600260003373ffffffffffffffffffffffffffffffffffffffff1673ffffffffffffffffffffffffffffffffffffffff16815260200190815260200160002060050160009054906101000a900460ff168015610c4c5750600260008273ffffffffffffffffffffffffffffffffffffffff1673ffffffffffffffffffffffffffffffffffffffff16815260200190815260200160002060050160009054906101000a900460ff165b610c8b576040517f08c379a0000000000000000000000000000000000000000000000000000000008152600401610c8290612242565b60405180910390fd5b3373ffffffffffffffffffffffffffffffffffffffff168173ffffffffffffffffffffffffffffffffffffffff1603610cf9576040517f08c379a0000000000000000000000000000000000000000000000000000000008152600401610cf0906122ae565b60405180910390fd5b6000610d0433611539565b90506000610d1183611539565b9050600081831190508015610ec1576001600260003373ffffffffffffffffffffffffffffffffffffffff1673ffffffffffffffffffffffffffffffffffffffff1681526020019081526020016000206001016000828254610d73919061218e565b92505081905550600a6008600260003373ffffffffffffffffffffffffffffffffffffffff1673ffffffffffffffffffffffffffffffffffffffff16815260200190815260200160002060020154610dcb91906122ce565b610dd59190612310565b600260003373ffffffffffffffffffffffffffffffffffffffff1673ffffffffffffffffffffffffffffffffffffffff16815260200190815260200160002060020181905550600a6008600260003373ffffffffffffffffffffffffffffffffffffffff1673ffffffffffffffffffffffffffffffffffffffff16815260200190815260200160002060030154610e6c91906122ce565b610e769190612310565b600260003373ffffffffffffffffffffffffffffffffffffffff1673ffffffffffffffffffffffffffffffffffffffff16815260200190815260200160002060030181905550611004565b600a6006600260003373ffffffffffffffffffffffffffffffffffffffff1673ffffffffffffffffffffffffffffffffffffffff16815260200190815260200160002060020154610f1291906122ce565b610f1c9190612310565b600260003373ffffffffffffffffffffffffffffffffffffffff1673ffffffffffffffffffffffffffffffffffffffff16815260200190815260200160002060020181905550600a6006600260003373ffffffffffffffffffffffffffffffffffffffff1673ffffffffffffffffffffffffffffffffffffffff16815260200190815260200160002060030154610fb391906122ce565b610fbd9190612310565b600260003373ffffffffffffffffffffffffffffffffffffffff1673ffffffffffffffffffffffffffffffffffffffff168152602001908152602001600020600301819055505b8373ffffffffffffffffffffffffffffffffffffffff163373ffffffffffffffffffffffffffffffffffffffff167fcd99ebcbb6c7824bebc9f9b71ce6415d1cf7515bac8c494d896f0c833620c3e1836040516110619190611936565b60405180910390a350505050565b60008060009054906101000a900473ffffffffffffffffffffffffffffffffffffffff16905090565b6110a061139f565b600260003373ffffffffffffffffffffffffffffffffffffffff1673ffffffffffffffffffffffffffffffffffffffff16815260200190815260200160002060050160009054906101000a900460ff1661112f576040517f08c379a000000000000000000000000000000000000000000000000000000000815260040161112690612039565b60405180910390fd5b600066470de4df8200008261114491906122ce565b662386f26fc100008461115791906122ce565b611161919061218e565b9050803410156111a6576040517f08c379a000000000000000000000000000000000000000000000000000000000815260040161119d90611fcd565b60405180910390fd5b82600260003373ffffffffffffffffffffffffffffffffffffffff1673ffffffffffffffffffffffffffffffffffffffff16815260200190815260200160002060020160008282546111f8919061218e565b9250508190555081600260003373ffffffffffffffffffffffffffffffffffffffff1673ffffffffffffffffffffffffffffffffffffffff1681526020019081526020016000206003016000828254611251919061218e565b925050819055503373ffffffffffffffffffffffffffffffffffffffff167faf29816cd11119a4c8c0eff4213407d9eee90e96234648827025b3dcda86af3984846040516112a0929190612341565b60405180910390a280341115611303573373ffffffffffffffffffffffffffffffffffffffff166108fc82346112d691906121c2565b9081150290604051600060405180830381858888f19350505050158015611301573d6000803e3d6000fd5b505b5061130c6113ee565b5050565b67016345785d8a000081565b6113246113f7565b600073ffffffffffffffffffffffffffffffffffffffff168173ffffffffffffffffffffffffffffffffffffffff1603611393576040517f08c379a000000000000000000000000000000000000000000000000000000000815260040161138a906123dc565b60405180910390fd5b61139c81611475565b50565b6002600154036113e4576040517f08c379a00000000000000000000000000000000000000000000000000000000081526004016113db90612448565b60405180910390fd5b6002600181905550565b60018081905550565b6113ff61169c565b73ffffffffffffffffffffffffffffffffffffffff1661141d61106f565b73ffffffffffffffffffffffffffffffffffffffff1614611473576040517f08c379a000000000000000000000000000000000000000000000000000000000815260040161146a906124b4565b60405180910390fd5b565b60008060009054906101000a900473ffffffffffffffffffffffffffffffffffffffff169050816000806101000a81548173ffffffffffffffffffffffffffffffffffffffff021916908373ffffffffffffffffffffffffffffffffffffffff1602179055508173ffffffffffffffffffffffffffffffffffffffff168173ffffffffffffffffffffffffffffffffffffffff167f8be0079c531659141344cd1fd0a4f28419497f9722a3daafe3b4186f6b6457e060405160405180910390a35050565b60008060028060008573ffffffffffffffffffffffffffffffffffffffff1673ffffffffffffffffffffffffffffffffffffffff1681526020019081526020016000206003015461158a91906122ce565b6001600260008673ffffffffffffffffffffffffffffffffffffffff1673ffffffffffffffffffffffffffffffffffffffff168152602001908152602001600020600201546115d991906122ce565b6115e3919061218e565b90506000600190505b6005811161169257600260008573ffffffffffffffffffffffffffffffffffffffff1673ffffffffffffffffffffffffffffffffffffffff168152602001908152602001600020600401600082815260200190815260200160002060009054906101000a900460ff161561167f5760036000828152602001908152602001600020600101548261167c919061218e565b91505b808061168a906124d4565b9150506115ec565b5080915050919050565b600033905090565b6000604051905090565b600080fd5b600080fd5b600080fd5b600080fd5b6000601f19601f8301169050919050565b7f4e487b7100000000000000000000000000000000000000000000000000000000600052604160045260246000fd5b61170b826116c2565b810181811067ffffffffffffffff8211171561172a576117296116d3565b5b80604052505050565b600061173d6116a4565b90506117498282611702565b919050565b600067ffffffffffffffff821115611769576117686116d3565b5b611772826116c2565b9050602081019050919050565b82818337600083830152505050565b60006117a161179c8461174e565b611733565b9050828152602081018484840111156117bd576117bc6116bd565b5b6117c884828561177f565b509392505050565b600082601f8301126117e5576117e46116b8565b5b81356117f584826020860161178e565b91505092915050565b600060208284031215611814576118136116ae565b5b600082013567ffffffffffffffff811115611832576118316116b3565b5b61183e848285016117d0565b91505092915050565b600073ffffffffffffffffffffffffffffffffffffffff82169050919050565b600061187282611847565b9050919050565b61188281611867565b811461188d57600080fd5b50565b60008135905061189f81611879565b92915050565b6000819050919050565b6118b8816118a5565b81146118c357600080fd5b50565b6000813590506118d5816118af565b92915050565b600080604083850312156118f2576118f16116ae565b5b600061190085828601611890565b9250506020611911858286016118c6565b9150509250929050565b60008115159050919050565b6119308161191b565b82525050565b600060208201905061194b6000830184611927565b92915050565b61195a816118a5565b82525050565b60006020820190506119756000830184611951565b92915050565b600060208284031215611991576119906116ae565b5b600061199f84828501611890565b91505092915050565b600081519050919050565b600082825260208201905092915050565b60005b838110156119e25780820151818401526020810190506119c7565b60008484015250505050565b60006119f9826119a8565b611a0381856119b3565b9350611a138185602086016119c4565b611a1c816116c2565b840191505092915050565b60006080820190508181036000830152611a4181876119ee565b9050611a506020830186611951565b611a5d6040830185611951565b611a6a6060830184611951565b95945050505050565b600060208284031215611a8957611a886116ae565b5b6000611a97848285016118c6565b91505092915050565b60006060820190508181036000830152611aba81866119ee565b9050611ac96020830185611951565b8181036040830152611adb81846119ee565b9050949350505050565b600060a0820190508181036000830152611aff81886119ee565b9050611b0e6020830187611951565b611b1b6040830186611951565b611b286060830185611951565b611b356080830184611927565b9695505050505050565b611b4881611867565b82525050565b6000602082019050611b636000830184611b3f565b92915050565b60008060408385031215611b8057611b7f6116ae565b5b6000611b8e858286016118c6565b9250506020611b9f858286016118c6565b9150509250929050565b7f4b68616e61746520616c72656164792065786973747300000000000000000000600082015250565b6000611bdf6016836119b3565b9150611bea82611ba9565b602082019050919050565b60006020820190508181036000830152611c0e81611bd2565b9050919050565b7f4e487b7100000000000000000000000000000000000000000000000000000000600052602260045260246000fd5b60006002820490506001821680611c5c57607f821691505b602082108103611c6f57611c6e611c15565b5b50919050565b60008190508160005260206000209050919050565b60006020601f8301049050919050565b600082821b905092915050565b600060088302611cd77fffffffffffffffffffffffffffffffffffffffffffffffffffffffffffffffff82611c9a565b611ce18683611c9a565b95508019841693508086168417925050509392505050565b6000819050919050565b6000611d1e611d19611d14846118a5565b611cf9565b6118a5565b9050919050565b6000819050919050565b611d3883611d03565b611d4c611d4482611d25565b848454611ca7565b825550505050565b600090565b611d61611d54565b611d6c818484611d2f565b505050565b5b81811015611d9057611d85600082611d59565b600181019050611d72565b5050565b601f821115611dd557611da681611c75565b611daf84611c8a565b81016020851015611dbe578190505b611dd2611dca85611c8a565b830182611d71565b50505b505050565b600082821c905092915050565b6000611df860001984600802611dda565b1980831691505092915050565b6000611e118383611de7565b9150826002028217905092915050565b611e2a826119a8565b67ffffffffffffffff811115611e4357611e426116d3565b5b611e4d8254611c44565b611e58828285611d94565b600060209050601f831160018114611e8b5760008415611e79578287015190505b611e838582611e05565b865550611eeb565b601f198416611e9986611c75565b60005b82811015611ec157848901518255600182019150602085019450602081019050611e9c565b86831015611ede5784890151611eda601f891682611de7565b8355505b6001600288020188555050505b505050505050565b60006020820190508181036000830152611f0d81846119ee565b905092915050565b7f496e76616c696420426174797220494400000000000000000000000000000000600082015250565b6000611f4b6010836119b3565b9150611f5682611f15565b602082019050919050565b60006020820190508181036000830152611f7a81611f3e565b9050919050565b7f496e73756666696369656e74207061796d656e74000000000000000000000000600082015250565b6000611fb76014836119b3565b9150611fc282611f81565b602082019050919050565b60006020820190508181036000830152611fe681611faa565b9050919050565b7f4b68616e617465206e6f7420696e697469616c697a6564000000000000000000600082015250565b60006120236017836119b3565b915061202e82611fed565b602082019050919050565b6000602082019050818103600083015261205281612016565b9050919050565b6000819050919050565b61207461206f826118a5565b612059565b82525050565b60008160601b9050919050565b60006120928261207a565b9050919050565b60006120a482612087565b9050919050565b6120bc6120b782611867565b612099565b82525050565b60006120ce8286612063565b6020820191506120de8285612063565b6020820191506120ee82846120ab565b601482019150819050949350505050565b7f4e487b7100000000000000000000000000000000000000000000000000000000600052601260045260246000fd5b6000612139826118a5565b9150612144836118a5565b925082612154576121536120ff565b5b828206905092915050565b7f4e487b7100000000000000000000000000000000000000000000000000000000600052601160045260246000fd5b6000612199826118a5565b91506121a4836118a5565b92508282019050808211156121bc576121bb61215f565b5b92915050565b60006121cd826118a5565b91506121d8836118a5565b92508282039050818111156121f0576121ef61215f565b5b92915050565b7f496e76616c6964206b68616e6174657300000000000000000000000000000000600082015250565b600061222c6010836119b3565b9150612237826121f6565b602082019050919050565b6000602082019050818103600083015261225b8161221f565b9050919050565b7f43616e6e6f7420626174746c6520796f757273656c6600000000000000000000600082015250565b60006122986016836119b3565b91506122a382612262565b602082019050919050565b600060208201905081810360008301526122c78161228b565b9050919050565b60006122d9826118a5565b91506122e4836118a5565b92508282026122f2816118a5565b915082820484148315176123095761230861215f565b5b5092915050565b600061231b826118a5565b9150612326836118a5565b925082612336576123356120ff565b5b828204905092915050565b60006040820190506123566000830185611951565b6123636020830184611951565b9392505050565b7f4f776e61626c653a206e6577206f776e657220697320746865207a65726f206160008201527f6464726573730000000000000000000000000000000000000000000000000000602082015250565b60006123c66026836119b3565b91506123d18261236a565b604082019050919050565b600060208201905081810360008301526123f5816123b9565b9050919050565b7f5265656e7472616e637947756172643a207265656e7472616e742063616c6c00600082015250565b6000612432601f836119b3565b915061243d826123fc565b602082019050919050565b6000602082019050818103600083015261246181612425565b9050919050565b7f4f776e61626c653a2063616c6c6572206973206e6f7420746865206f776e6572600082015250565b600061249e6020836119b3565b91506124a982612468565b602082019050919050565b600060208201905081810360008301526124cd81612491565b9050919050565b60006124df826118a5565b91507fffffffffffffffffffffffffffffffffffffffffffffffffffffffffffffffff82036125115761251061215f565b5b60018201905091905056fea26469706673582212208cbe156a31ed60cf3f6438abd3d62f0f99da78dac8d1abc3388a77cab6c944e964736f6c63430008130033","opcodes":"PUSH1 0x80 PUSH1 0x40 MSTORE CALLVALUE DUP1 ISZERO PUSH3 0x11 JUMPI PUSH1 0x0 DUP1 REVERT JUMPDEST POP PUSH3 0x32 PUSH3 0x26 PUSH3 0x472 PUSH1 0x20 SHL PUSH1 0x20 SHR JUMP JUMPDEST PUSH3 0x47A PUSH1 0x20 SHL PUSH1 0x20 SHR JUMP JUMPDEST PUSH1 0x1 DUP1 DUP2 SWAP1 SSTORE POP PUSH1 0x40 MLOAD DUP1 PUSH1 0x60 ADD PUSH1 0x40 MSTORE DUP1 PUSH1 0x40 MLOAD DUP1 PUSH1 0x40 ADD PUSH1 0x40 MSTORE DUP1 PUSH1 0xE DUP2 MSTORE PUSH1 0x20 ADD PUSH32 0x4B6162616E626179204261747972000000000000000000000000000000000000 DUP2 MSTORE POP DUP2 MSTORE PUSH1 0x20 ADD PUSH1 0x1E DUP2 MSTORE PUSH1 0x20 ADD PUSH1 0x40 MLOAD DUP1 PUSH1 0x40 ADD PUSH1 0x40 MSTORE DUP1 PUSH1 0x10 DUP2 MSTORE PUSH1 0x20 ADD PUSH32 0x5665727920686967682064616D61676500000000000000000000000000000000 DUP2 MSTORE POP DUP2 MSTORE POP PUSH1 0x3 PUSH1 0x0 PUSH1 0x1 DUP2 MSTORE PUSH1 0x20 ADD SWAP1 DUP2 MSTORE PUSH1 0x20 ADD PUSH1 0x0 KECCAK256 PUSH1 0x0 DUP3 ADD MLOAD DUP2 PUSH1 0x0 ADD SWAP1 DUP2 PUSH3 0xEA SWAP2 SWAP1 PUSH3 0x7B8 JUMP JUMPDEST POP PUSH1 0x20 DUP3 ADD MLOAD DUP2 PUSH1 0x1 ADD SSTORE PUSH1 0x40 DUP3 ADD MLOAD DUP2 PUSH1 0x2 ADD SWAP1 DUP2 PUSH3 0x10C SWAP2 SWAP1 PUSH3 0x7B8 JUMP JUMPDEST POP SWAP1 POP POP PUSH1 0x40 MLOAD DUP1 PUSH1 0x60 ADD PUSH1 0x40 MSTORE DUP1 PUSH1 0x40 MLOAD DUP1 PUSH1 0x40 ADD PUSH1 0x40 MSTORE DUP1 PUSH1 0xF DUP2 MSTORE PUSH1 0x20 ADD PUSH32 0x4B6F62796C616E64792042617479720000000000000000000000000000000000 DUP2 MSTORE POP DUP2 MSTORE PUSH1 0x20 ADD PUSH1 0x19 DUP2 MSTORE PUSH1 0x20 ADD PUSH1 0x40 MLOAD DUP1 PUSH1 0x40 ADD PUSH1 0x40 MSTORE DUP1 PUSH1 0x16 DUP2 MSTORE PUSH1 0x20 ADD PUSH32 0x4869676820737065656420616E6420646566656E736500000000000000000000 DUP2 MSTORE POP DUP2 MSTORE POP PUSH1 0x3 PUSH1 0x0 PUSH1 0x2 DUP2 MSTORE PUSH1 0x20 ADD SWAP1 DUP2 MSTORE PUSH1 0x20 ADD PUSH1 0x0 KECCAK256 PUSH1 0x0 DUP3 ADD MLOAD DUP2 PUSH1 0x0 ADD SWAP1 DUP2 PUSH3 0x1C1 SWAP2 SWAP1 PUSH3 0x7B8 JUMP JUMPDEST POP PUSH1 0x20 DUP3 ADD MLOAD DUP2 PUSH1 0x1 ADD SSTORE PUSH1 0x40 DUP3 ADD MLOAD DUP2 PUSH1 0x2 ADD SWAP1 DUP2 PUSH3 0x1E3 SWAP2 SWAP1 PUSH3 0x7B8 JUMP JUMPDEST POP SWAP1 POP POP PUSH1 0x40 MLOAD DUP1 PUSH1 0x60 ADD PUSH1 0x40 MSTORE DUP1 PUSH1 0x40 MLOAD DUP1 PUSH1 0x40 ADD PUSH1 0x40 MSTORE DUP1 PUSH1 0xB DUP2 MSTORE PUSH1 0x20 ADD PUSH32 0x4162796C6169204B68616E000000000000000000000000000000000000000000 DUP2 MSTORE POP DUP2 MSTORE PUSH1 0x20 ADD PUSH1 0x14 DUP2 MSTORE PUSH1 0x20 ADD PUSH1 0x40 MLOAD DUP1 PUSH1 0x40 ADD PUSH1 0x40 MSTORE DUP1 PUSH1 0x10 DUP2 MSTORE PUSH1 0x20 ADD PUSH32 0x4C65616465727368697020626F6E757300000000000000000000000000000000 DUP2 MSTORE POP DUP2 MSTORE POP PUSH1 0x3 PUSH1 0x0 PUSH1 0x3 DUP2 MSTORE PUSH1 0x20 ADD SWAP1 DUP2 MSTORE PUSH1 0x20 ADD PUSH1 0x0 KECCAK256 PUSH1 0x0 DUP3 ADD MLOAD DUP2 PUSH1 0x0 ADD SWAP1 DUP2 PUSH3 0x298 SWAP2 SWAP1 PUSH3 0x7B8 JUMP JUMPDEST POP PUSH1 0x20 DUP3 ADD MLOAD DUP2 PUSH1 0x1 ADD SSTORE PUSH1 0x40 DUP3 ADD MLOAD DUP2 PUSH1 0x2 ADD SWAP1 DUP2 PUSH3 0x2BA SWAP2 SWAP1 PUSH3 0x7B8 JUMP JUMPDEST POP SWAP1 POP POP PUSH1 0x40 MLOAD DUP1 PUSH1 0x60 ADD PUSH1 0x40 MSTORE DUP1 PUSH1 0x40 MLOAD DUP1 PUSH1 0x40 ADD PUSH1 0x40 MSTORE DUP1 PUSH1 0xE DUP2 MSTORE PUSH1 0x20 ADD PUSH32 0x5261696D67617A79204261747972000000000000000000000000000000000000 DUP2 MSTORE POP DUP2 MSTORE PUSH1 0x20 ADD PUSH1 0x16 DUP2 MSTORE PUSH1 0x20 ADD PUSH1 0x40 MLOAD DUP1 PUSH1 0x40 ADD PUSH1 0x40 MSTORE DUP1 PUSH1 0xF DUP2 MSTORE PUSH1 0x20 ADD PUSH32 0x436176616C727920636F756E7465720000000000000000000000000000000000 DUP2 MSTORE POP DUP2 MSTORE POP PUSH1 0x3 PUSH1 0x0 PUSH1 0x4 DUP2 MSTORE PUSH1 0x20 ADD SWAP1 DUP2 MSTORE PUSH1 0x20 ADD PUSH1 0x0 KECCAK256 PUSH1 0x0 DUP3 ADD MLOAD DUP2 PUSH1 0x0 ADD SWAP1 DUP2 PUSH3 0x36F SWAP2 SWAP1 PUSH3 0x7B8 JUMP JUMPDEST POP PUSH1 0x20 DUP3 ADD MLOAD DUP2 PUSH1 0x1 ADD SSTORE PUSH1 0x40 DUP3 ADD MLOAD DUP2 PUSH1 0x2 ADD SWAP1 DUP2 PUSH3 0x391 SWAP2 SWAP1 PUSH3 0x7B8 JUMP JUMPDEST POP SWAP1 POP POP PUSH1 0x40 MLOAD DUP1 PUSH1 0x60 ADD PUSH1 0x40 MSTORE DUP1 PUSH1 0x40 MLOAD DUP1 PUSH1 0x40 ADD PUSH1 0x40 MSTORE DUP1 PUSH1 0xA DUP2 MSTORE PUSH1 0x20 ADD PUSH32 0x5372796D204461746F7600000000000000000000000000000000000000000000 DUP2 MSTORE POP DUP2 MSTORE PUSH1 0x20 ADD PUSH1 0x15 DUP2 MSTORE PUSH1 0x20 ADD PUSH1 0x40 MLOAD DUP1 PUSH1 0x40 ADD PUSH1 0x40 MSTORE DUP1 PUSH1 0x11 DUP2 MSTORE PUSH1 0x20 ADD PUSH32 0x417263686572207370656369616C697374000000000000000000000000000000 DUP2 MSTORE POP DUP2 MSTORE POP PUSH1 0x3 PUSH1 0x0 PUSH1 0x5 DUP2 MSTORE PUSH1 0x20 ADD SWAP1 DUP2 MSTORE PUSH1 0x20 ADD PUSH1 0x0 KECCAK256 PUSH1 0x0 DUP3 ADD MLOAD DUP2 PUSH1 0x0 ADD SWAP1 DUP2 PUSH3 0x446 SWAP2 SWAP1 PUSH3 0x7B8 JUMP JUMPDEST POP PUSH1 0x20 DUP3 ADD MLOAD DUP2 PUSH1 0x1 ADD SSTORE PUSH1 0x40 DUP3 ADD MLOAD DUP2 PUSH1 0x2 ADD SWAP1 DUP2 PUSH3 0x468 SWAP2 SWAP1 PUSH3 0x7B8 JUMP JUMPDEST POP SWAP1 POP POP PUSH3 0x89F JUMP JUMPDEST PUSH1 0x0 CALLER SWAP1 POP SWAP1 JUMP JUMPDEST PUSH1 0x0 DUP1 PUSH1 0x0 SWAP1 SLOAD SWAP1 PUSH2 0x100 EXP SWAP1 DIV PUSH20 0xFFFFFFFFFFFFFFFFFFFFFFFFFFFFFFFFFFFFFFFF AND SWAP1 POP DUP2 PUSH1 0x0 DUP1 PUSH2 0x100 EXP DUP2 SLOAD DUP2 PUSH20 0xFFFFFFFFFFFFFFFFFFFFFFFFFFFFFFFFFFFFFFFF MUL NOT AND SWAP1 DUP4 PUSH20 0xFFFFFFFFFFFFFFFFFFFFFFFFFFFFFFFFFFFFFFFF AND MUL OR SWAP1 SSTORE POP DUP2 PUSH20 0xFFFFFFFFFFFFFFFFFFFFFFFFFFFFFFFFFFFFFFFF AND DUP2 PUSH20 0xFFFFFFFFFFFFFFFFFFFFFFFFFFFFFFFFFFFFFFFF AND PUSH32 0x8BE0079C531659141344CD1FD0A4F28419497F9722A3DAAFE3B4186F6B6457E0 PUSH1 0x40 MLOAD PUSH1 0x40 MLOAD DUP1 SWAP2 SUB SWAP1 LOG3 POP POP JUMP JUMPDEST PUSH1 0x0 DUP2 MLOAD SWAP1 POP SWAP2 SWAP1 POP JUMP JUMPDEST PUSH32 0x4E487B7100000000000000000000000000000000000000000000000000000000 PUSH1 0x0 MSTORE PUSH1 0x41 PUSH1 0x4 MSTORE PUSH1 0x24 PUSH1 0x0 REVERT JUMPDEST PUSH32 0x4E487B7100000000000000000000000000000000000000000000000000000000 PUSH1 0x0 MSTORE PUSH1 0x22 PUSH1 0x4 MSTORE PUSH1 0x24 PUSH1 0x0 REVERT JUMPDEST PUSH1 0x0 PUSH1 0x2 DUP3 DIV SWAP1 POP PUSH1 0x1 DUP3 AND DUP1 PUSH3 0x5C0 JUMPI PUSH1 0x7F DUP3 AND SWAP2 POP JUMPDEST PUSH1 0x20 DUP3 LT DUP2 SUB PUSH3 0x5D6 JUMPI PUSH3 0x5D5 PUSH3 0x578 JUMP JUMPDEST JUMPDEST POP SWAP2 SWAP1 POP JUMP JUMPDEST PUSH1 0x0 DUP2 SWAP1 POP DUP2 PUSH1 0x0 MSTORE PUSH1 0x20 PUSH1 0x0 KECCAK256 SWAP1 POP SWAP2 SWAP1 POP JUMP JUMPDEST PUSH1 0x0 PUSH1 0x20 PUSH1 0x1F DUP4 ADD DIV SWAP1 POP SWAP2 SWAP1 POP JUMP JUMPDEST PUSH1 0x0 DUP3 DUP3 SHL SWAP1 POP SWAP3 SWAP2 POP POP JUMP JUMPDEST PUSH1 0x0 PUSH1 0x8 DUP4 MUL PUSH3 0x640 PUSH32 0xFFFFFFFFFFFFFFFFFFFFFFFFFFFFFFFFFFFFFFFFFFFFFFFFFFFFFFFFFFFFFFFF DUP3 PUSH3 0x601 JUMP JUMPDEST PUSH3 0x64C DUP7 DUP4 PUSH3 0x601 JUMP JUMPDEST SWAP6 POP DUP1 NOT DUP5 AND SWAP4 POP DUP1 DUP7 AND DUP5 OR SWAP3 POP POP POP SWAP4 SWAP3 POP POP POP JUMP JUMPDEST PUSH1 0x0 DUP2 SWAP1 POP SWAP2 SWAP1 POP JUMP JUMPDEST PUSH1 0x0 DUP2 SWAP1 POP SWAP2 SWAP1 POP JUMP JUMPDEST PUSH1 0x0 PUSH3 0x699 PUSH3 0x693 PUSH3 0x68D DUP5 PUSH3 0x664 JUMP JUMPDEST PUSH3 0x66E JUMP JUMPDEST PUSH3 0x664 JUMP JUMPDEST SWAP1 POP SWAP2 SWAP1 POP JUMP JUMPDEST PUSH1 0x0 DUP2 SWAP1 POP SWAP2 SWAP1 POP JUMP JUMPDEST PUSH3 0x6B5 DUP4 PUSH3 0x678 JUMP JUMPDEST PUSH3 0x6CD PUSH3 0x6C4 DUP3 PUSH3 0x6A0 JUMP JUMPDEST DUP5 DUP5 SLOAD PUSH3 0x60E JUMP JUMPDEST DUP3 SSTORE POP POP POP POP JUMP JUMPDEST PUSH1 0x0 SWAP1 JUMP JUMPDEST PUSH3 0x6E4 PUSH3 0x6D5 JUMP JUMPDEST PUSH3 0x6F1 DUP2 DUP5 DUP5 PUSH3 0x6AA JUMP JUMPDEST POP POP POP JUMP JUMPDEST JUMPDEST DUP2 DUP2 LT ISZERO PUSH3 0x719 JUMPI PUSH3 0x70D PUSH1 0x0 DUP3 PUSH3 0x6DA JUMP JUMPDEST PUSH1 0x1 DUP2 ADD SWAP1 POP PUSH3 0x6F7 JUMP JUMPDEST POP POP JUMP JUMPDEST PUSH1 0x1F DUP3 GT ISZERO PUSH3 0x768 JUMPI PUSH3 0x732 DUP2 PUSH3 0x5DC JUMP JUMPDEST PUSH3 0x73D DUP5 PUSH3 0x5F1 JUMP JUMPDEST DUP2 ADD PUSH1 0x20 DUP6 LT ISZERO PUSH3 0x74D JUMPI DUP2 SWAP1 POP JUMPDEST PUSH3 0x765 PUSH3 0x75C DUP6 PUSH3 0x5F1 JUMP JUMPDEST DUP4 ADD DUP3 PUSH3 0x6F6 JUMP JUMPDEST POP POP JUMPDEST POP POP POP JUMP JUMPDEST PUSH1 0x0 DUP3 DUP3 SHR SWAP1 POP SWAP3 SWAP2 POP POP JUMP JUMPDEST PUSH1 0x0 PUSH3 0x78D PUSH1 0x0 NOT DUP5 PUSH1 0x8 MUL PUSH3 0x76D JUMP JUMPDEST NOT DUP1 DUP4 AND SWAP2 POP POP SWAP3 SWAP2 POP POP JUMP JUMPDEST PUSH1 0x0 PUSH3 0x7A8 DUP4 DUP4 PUSH3 0x77A JUMP JUMPDEST SWAP2 POP DUP3 PUSH1 0x2 MUL DUP3 OR SWAP1 POP SWAP3 SWAP2 POP POP JUMP JUMPDEST PUSH3 0x7C3 DUP3 PUSH3 0x53E JUMP JUMPDEST PUSH8 0xFFFFFFFFFFFFFFFF DUP2 GT ISZERO PUSH3 0x7DF JUMPI PUSH3 0x7DE PUSH3 0x549 JUMP JUMPDEST JUMPDEST PUSH3 0x7EB DUP3 SLOAD PUSH3 0x5A7 JUMP JUMPDEST PUSH3 0x7F8 DUP3 DUP3 DUP6 PUSH3 0x71D JUMP JUMPDEST PUSH1 0x0 PUSH1 0x20 SWAP1 POP PUSH1 0x1F DUP4 GT PUSH1 0x1 DUP2 EQ PUSH3 0x830 JUMPI PUSH1 0x0 DUP5 ISZERO PUSH3 0x81B JUMPI DUP3 DUP8 ADD MLOAD SWAP1 POP JUMPDEST PUSH3 0x827 DUP6 DUP3 PUSH3 0x79A JUMP JUMPDEST DUP7 SSTORE POP PUSH3 0x897 JUMP JUMPDEST PUSH1 0x1F NOT DUP5 AND PUSH3 0x840 DUP7 PUSH3 0x5DC JUMP JUMPDEST PUSH1 0x0 JUMPDEST DUP3 DUP2 LT ISZERO PUSH3 0x86A JUMPI DUP5 DUP10 ADD MLOAD DUP3 SSTORE PUSH1 0x1 DUP3 ADD SWAP2 POP PUSH1 0x20 DUP6 ADD SWAP5 POP PUSH1 0x20 DUP2 ADD SWAP1 POP PUSH3 0x843 JUMP JUMPDEST DUP7 DUP4 LT ISZERO PUSH3 0x88A JUMPI DUP5 DUP10 ADD MLOAD PUSH3 0x886 PUSH1 0x1F DUP10 AND DUP3 PUSH3 0x77A JUMP JUMPDEST DUP4 SSTORE POP JUMPDEST PUSH1 0x1 PUSH1 0x2 DUP9 MUL ADD DUP9 SSTORE POP POP POP JUMPDEST POP POP POP POP POP POP JUMP JUMPDEST PUSH2 0x2552 DUP1 PUSH3 0x8AF PUSH1 0x0 CODECOPY PUSH1 0x0 RETURN INVALID PUSH1 0x80 PUSH1 0x40 MSTORE PUSH1 0x4 CALLDATASIZE LT PUSH2 0xDD JUMPI PUSH1 0x0 CALLDATALOAD PUSH1 0xE0 SHR DUP1 PUSH4 0x6B4FAECA GT PUSH2 0x7F JUMPI DUP1 PUSH4 0x8DA5CB5B GT PUSH2 0x59 JUMPI DUP1 PUSH4 0x8DA5CB5B EQ PUSH2 0x2A8 JUMPI DUP1 PUSH4 0xDFAD6257 EQ PUSH2 0x2D3 JUMPI DUP1 PUSH4 0xE0F83F21 EQ PUSH2 0x2EF JUMPI DUP1 PUSH4 0xF2FDE38B EQ PUSH2 0x31A JUMPI PUSH2 0xDD JUMP JUMPDEST DUP1 PUSH4 0x6B4FAECA EQ PUSH2 0x227 JUMPI DUP1 PUSH4 0x715018A6 EQ PUSH2 0x268 JUMPI DUP1 PUSH4 0x71C95281 EQ PUSH2 0x27F JUMPI PUSH2 0xDD JUMP JUMPDEST DUP1 PUSH4 0x3DDE60C2 GT PUSH2 0xBB JUMPI DUP1 PUSH4 0x3DDE60C2 EQ PUSH2 0x152 JUMPI DUP1 PUSH4 0x3F430695 EQ PUSH2 0x17D JUMPI DUP1 PUSH4 0x57C86704 EQ PUSH2 0x1BD JUMPI DUP1 PUSH4 0x6011515C EQ PUSH2 0x1FC JUMPI PUSH2 0xDD JUMP JUMPDEST DUP1 PUSH4 0xC1CDB6D EQ PUSH2 0xE2 JUMPI DUP1 PUSH4 0x232E096D EQ PUSH2 0x10B JUMPI DUP1 PUSH4 0x3A0DE743 EQ PUSH2 0x148 JUMPI JUMPDEST PUSH1 0x0 DUP1 REVERT JUMPDEST CALLVALUE DUP1 ISZERO PUSH2 0xEE JUMPI PUSH1 0x0 DUP1 REVERT JUMPDEST POP PUSH2 0x109 PUSH1 0x4 DUP1 CALLDATASIZE SUB DUP2 ADD SWAP1 PUSH2 0x104 SWAP2 SWAP1 PUSH2 0x17FE JUMP JUMPDEST PUSH2 0x343 JUMP JUMPDEST STOP JUMPDEST CALLVALUE DUP1 ISZERO PUSH2 0x117 JUMPI PUSH1 0x0 DUP1 REVERT JUMPDEST POP PUSH2 0x132 PUSH1 0x4 DUP1 CALLDATASIZE SUB DUP2 ADD SWAP1 PUSH2 0x12D SWAP2 SWAP1 PUSH2 0x18DB JUMP JUMPDEST PUSH2 0x4B5 JUMP JUMPDEST PUSH1 0x40 MLOAD PUSH2 0x13F SWAP2 SWAP1 PUSH2 0x1936 JUMP JUMPDEST PUSH1 0x40 MLOAD DUP1 SWAP2 SUB SWAP1 RETURN JUMPDEST PUSH2 0x150 PUSH2 0x56F JUMP JUMPDEST STOP JUMPDEST CALLVALUE DUP1 ISZERO PUSH2 0x15E JUMPI PUSH1 0x0 DUP1 REVERT JUMPDEST POP PUSH2 0x167 PUSH2 0x7ED JUMP JUMPDEST PUSH1 0x40 MLOAD PUSH2 0x174 SWAP2 SWAP1 PUSH2 0x1960 JUMP JUMPDEST PUSH1 0x40 MLOAD DUP1 SWAP2 SUB SWAP1 RETURN JUMPDEST CALLVALUE DUP1 ISZERO PUSH2 0x189 JUMPI PUSH1 0x0 DUP1 REVERT JUMPDEST POP PUSH2 0x1A4 PUSH1 0x4 DUP1 CALLDATASIZE SUB DUP2 ADD SWAP1 PUSH2 0x19F SWAP2 SWAP1 PUSH2 0x197B JUMP JUMPDEST PUSH2 0x7F8 JUMP JUMPDEST PUSH1 0x40 MLOAD PUSH2 0x1B4 SWAP5 SWAP4 SWAP3 SWAP2 SWAP1 PUSH2 0x1A27 JUMP JUMPDEST PUSH1 0x40 MLOAD DUP1 SWAP2 SUB SWAP1 RETURN JUMPDEST CALLVALUE DUP1 ISZERO PUSH2 0x1C9 JUMPI PUSH1 0x0 DUP1 REVERT JUMPDEST POP PUSH2 0x1E4 PUSH1 0x4 DUP1 CALLDATASIZE SUB DUP2 ADD SWAP1 PUSH2 0x1DF SWAP2 SWAP1 PUSH2 0x1A73 JUMP JUMPDEST PUSH2 0x980 JUMP JUMPDEST PUSH1 0x40 MLOAD PUSH2 0x1F3 SWAP4 SWAP3 SWAP2 SWAP1 PUSH2 0x1AA0 JUMP JUMPDEST PUSH1 0x40 MLOAD DUP1 SWAP2 SUB SWAP1 RETURN JUMPDEST CALLVALUE DUP1 ISZERO PUSH2 0x208 JUMPI PUSH1 0x0 DUP1 REVERT JUMPDEST POP PUSH2 0x211 PUSH2 0xABA JUMP JUMPDEST PUSH1 0x40 MLOAD PUSH2 0x21E SWAP2 SWAP1 PUSH2 0x1960 JUMP JUMPDEST PUSH1 0x40 MLOAD DUP1 SWAP2 SUB SWAP1 RETURN JUMPDEST CALLVALUE DUP1 ISZERO PUSH2 0x233 JUMPI PUSH1 0x0 DUP1 REVERT JUMPDEST POP PUSH2 0x24E PUSH1 0x4 DUP1 CALLDATASIZE SUB DUP2 ADD SWAP1 PUSH2 0x249 SWAP2 SWAP1 PUSH2 0x197B JUMP JUMPDEST PUSH2 0xAC5 JUMP JUMPDEST PUSH1 0x40 MLOAD PUSH2 0x25F SWAP6 SWAP5 SWAP4 SWAP3 SWAP2 SWAP1 PUSH2 0x1AE5 JUMP JUMPDEST PUSH1 0x40 MLOAD DUP1 SWAP2 SUB SWAP1 RETURN JUMPDEST CALLVALUE DUP1 ISZERO PUSH2 0x274 JUMPI PUSH1 0x0 DUP1 REVERT JUMPDEST POP PUSH2 0x27D PUSH2 0xB90 JUMP JUMPDEST STOP JUMPDEST CALLVALUE DUP1 ISZERO PUSH2 0x28B JUMPI PUSH1 0x0 DUP1 REVERT JUMPDEST POP PUSH2 0x2A6 PUSH1 0x4 DUP1 CALLDATASIZE SUB DUP2 ADD SWAP1 PUSH2 0x2A1 SWAP2 SWAP1 PUSH2 0x197B JUMP JUMPDEST PUSH2 0xBA4 JUMP JUMPDEST STOP JUMPDEST CALLVALUE DUP1 ISZERO PUSH2 0x2B4 JUMPI PUSH1 0x0 DUP1 REVERT JUMPDEST POP PUSH2 0x2BD PUSH2 0x106F JUMP JUMPDEST PUSH1 0x40 MLOAD PUSH2 0x2CA SWAP2 SWAP1 PUSH2 0x1B4E JUMP JUMPDEST PUSH1 0x40 MLOAD DUP1 SWAP2 SUB SWAP1 RETURN JUMPDEST PUSH2 0x2ED PUSH1 0x4 DUP1 CALLDATASIZE SUB DUP2 ADD SWAP1 PUSH2 0x2E8 SWAP2 SWAP1 PUSH2 0x1B69 JUMP JUMPDEST PUSH2 0x1098 JUMP JUMPDEST STOP JUMPDEST CALLVALUE DUP1 ISZERO PUSH2 0x2FB JUMPI PUSH1 0x0 DUP1 REVERT JUMPDEST POP PUSH2 0x304 PUSH2 0x1310 JUMP JUMPDEST PUSH1 0x40 MLOAD PUSH2 0x311 SWAP2 SWAP1 PUSH2 0x1960 JUMP JUMPDEST PUSH1 0x40 MLOAD DUP1 SWAP2 SUB SWAP1 RETURN JUMPDEST CALLVALUE DUP1 ISZERO PUSH2 0x326 JUMPI PUSH1 0x0 DUP1 REVERT JUMPDEST POP PUSH2 0x341 PUSH1 0x4 DUP1 CALLDATASIZE SUB DUP2 ADD SWAP1 PUSH2 0x33C SWAP2 SWAP1 PUSH2 0x197B JUMP JUMPDEST PUSH2 0x131C JUMP JUMPDEST STOP JUMPDEST PUSH1 0x2 PUSH1 0x0 CALLER PUSH20 0xFFFFFFFFFFFFFFFFFFFFFFFFFFFFFFFFFFFFFFFF AND PUSH20 0xFFFFFFFFFFFFFFFFFFFFFFFFFFFFFFFFFFFFFFFF AND DUP2 MSTORE PUSH1 0x20 ADD SWAP1 DUP2 MSTORE PUSH1 0x20 ADD PUSH1 0x0 KECCAK256 PUSH1 0x5 ADD PUSH1 0x0 SWAP1 SLOAD SWAP1 PUSH2 0x100 EXP SWAP1 DIV PUSH1 0xFF AND ISZERO PUSH2 0x3D3 JUMPI PUSH1 0x40 MLOAD PUSH32 0x8C379A000000000000000000000000000000000000000000000000000000000 DUP2 MSTORE PUSH1 0x4 ADD PUSH2 0x3CA SWAP1 PUSH2 0x1BF5 JUMP JUMPDEST PUSH1 0x40 MLOAD DUP1 SWAP2 SUB SWAP1 REVERT JUMPDEST PUSH1 0x0 PUSH1 0x2 PUSH1 0x0 CALLER PUSH20 0xFFFFFFFFFFFFFFFFFFFFFFFFFFFFFFFFFFFFFFFF AND PUSH20 0xFFFFFFFFFFFFFFFFFFFFFFFFFFFFFFFFFFFFFFFF AND DUP2 MSTORE PUSH1 0x20 ADD SWAP1 DUP2 MSTORE PUSH1 0x20 ADD PUSH1 0x0 KECCAK256 SWAP1 POP DUP2 DUP2 PUSH1 0x0 ADD SWAP1 DUP2 PUSH2 0x427 SWAP2 SWAP1 PUSH2 0x1E21 JUMP JUMPDEST POP PUSH1 0x1 DUP2 PUSH1 0x1 ADD DUP2 SWAP1 SSTORE POP PUSH1 0xA DUP2 PUSH1 0x2 ADD DUP2 SWAP1 SSTORE POP PUSH1 0x5 DUP2 PUSH1 0x3 ADD DUP2 SWAP1 SSTORE POP PUSH1 0x1 DUP2 PUSH1 0x5 ADD PUSH1 0x0 PUSH2 0x100 EXP DUP2 SLOAD DUP2 PUSH1 0xFF MUL NOT AND SWAP1 DUP4 ISZERO ISZERO MUL OR SWAP1 SSTORE POP CALLER PUSH20 0xFFFFFFFFFFFFFFFFFFFFFFFFFFFFFFFFFFFFFFFF AND PUSH32 0x67409CED604950B5508F075F60153E7D166866A8251A44B569A7A07D7F27C3EB DUP4 PUSH1 0x40 MLOAD PUSH2 0x4A9 SWAP2 SWAP1 PUSH2 0x1EF3 JUMP JUMPDEST PUSH1 0x40 MLOAD DUP1 SWAP2 SUB SWAP1 LOG2 POP POP JUMP JUMPDEST PUSH1 0x0 DUP1 DUP3 GT DUP1 ISZERO PUSH2 0x4C7 JUMPI POP PUSH1 0x5 DUP3 GT ISZERO JUMPDEST PUSH2 0x506 JUMPI PUSH1 0x40 MLOAD PUSH32 0x8C379A000000000000000000000000000000000000000000000000000000000 DUP2 MSTORE PUSH1 0x4 ADD PUSH2 0x4FD SWAP1 PUSH2 0x1F61 JUMP JUMPDEST PUSH1 0x40 MLOAD DUP1 SWAP2 SUB SWAP1 REVERT JUMPDEST PUSH1 0x2 PUSH1 0x0 DUP5 PUSH20 0xFFFFFFFFFFFFFFFFFFFFFFFFFFFFFFFFFFFFFFFF AND PUSH20 0xFFFFFFFFFFFFFFFFFFFFFFFFFFFFFFFFFFFFFFFF AND DUP2 MSTORE PUSH1 0x20 ADD SWAP1 DUP2 MSTORE PUSH1 0x20 ADD PUSH1 0x0 KECCAK256 PUSH1 0x4 ADD PUSH1 0x0 DUP4 DUP2 MSTORE PUSH1 0x20 ADD SWAP1 DUP2 MSTORE PUSH1 0x20 ADD PUSH1 0x0 KECCAK256 PUSH1 0x0 SWAP1 SLOAD SWAP1 PUSH2 0x100 EXP SWAP1 DIV PUSH1 0xFF AND SWAP1 POP SWAP3 SWAP2 POP POP JUMP JUMPDEST PUSH2 0x577 PUSH2 0x139F JUMP JUMPDEST PUSH8 0x16345785D8A0000 CALLVALUE LT ISZERO PUSH2 0x5C2 JUMPI PUSH1 0x40 MLOAD PUSH32 0x8C379A000000000000000000000000000000000000000000000000000000000 DUP2 MSTORE PUSH1 0x4 ADD PUSH2 0x5B9 SWAP1 PUSH2 0x1FCD JUMP JUMPDEST PUSH1 0x40 MLOAD DUP1 SWAP2 SUB SWAP1 REVERT JUMPDEST PUSH1 0x2 PUSH1 0x0 CALLER PUSH20 0xFFFFFFFFFFFFFFFFFFFFFFFFFFFFFFFFFFFFFFFF AND PUSH20 0xFFFFFFFFFFFFFFFFFFFFFFFFFFFFFFFFFFFFFFFF AND DUP2 MSTORE PUSH1 0x20 ADD SWAP1 DUP2 MSTORE PUSH1 0x20 ADD PUSH1 0x0 KECCAK256 PUSH1 0x5 ADD PUSH1 0x0 SWAP1 SLOAD SWAP1 PUSH2 0x100 EXP SWAP1 DIV PUSH1 0xFF AND PUSH2 0x651 JUMPI PUSH1 0x40 MLOAD PUSH32 0x8C379A000000000000000000000000000000000000000000000000000000000 DUP2 MSTORE PUSH1 0x4 ADD PUSH2 0x648 SWAP1 PUSH2 0x2039 JUMP JUMPDEST PUSH1 0x40 MLOAD DUP1 SWAP2 SUB SWAP1 REVERT JUMPDEST PUSH1 0x0 PREVRANDAO TIMESTAMP CALLER PUSH1 0x40 MLOAD PUSH1 0x20 ADD PUSH2 0x668 SWAP4 SWAP3 SWAP2 SWAP1 PUSH2 0x20C2 JUMP JUMPDEST PUSH1 0x40 MLOAD PUSH1 0x20 DUP2 DUP4 SUB SUB DUP2 MSTORE SWAP1 PUSH1 0x40 MSTORE DUP1 MLOAD SWAP1 PUSH1 0x20 ADD KECCAK256 PUSH1 0x0 SHR SWAP1 POP PUSH1 0x0 PUSH1 0x64 DUP3 PUSH2 0x692 SWAP2 SWAP1 PUSH2 0x212E JUMP JUMPDEST SWAP1 POP PUSH1 0xA DUP2 LT ISZERO PUSH2 0x776 JUMPI PUSH1 0x0 PUSH1 0x1 PUSH1 0x5 DUP5 PUSH2 0x6AE SWAP2 SWAP1 PUSH2 0x212E JUMP JUMPDEST PUSH2 0x6B8 SWAP2 SWAP1 PUSH2 0x218E JUMP JUMPDEST SWAP1 POP PUSH1 0x1 PUSH1 0x2 PUSH1 0x0 CALLER PUSH20 0xFFFFFFFFFFFFFFFFFFFFFFFFFFFFFFFFFFFFFFFF AND PUSH20 0xFFFFFFFFFFFFFFFFFFFFFFFFFFFFFFFFFFFFFFFF AND DUP2 MSTORE PUSH1 0x20 ADD SWAP1 DUP2 MSTORE PUSH1 0x20 ADD PUSH1 0x0 KECCAK256 PUSH1 0x4 ADD PUSH1 0x0 DUP4 DUP2 MSTORE PUSH1 0x20 ADD SWAP1 DUP2 MSTORE PUSH1 0x20 ADD PUSH1 0x0 KECCAK256 PUSH1 0x0 PUSH2 0x100 EXP DUP2 SLOAD DUP2 PUSH1 0xFF MUL NOT AND SWAP1 DUP4 ISZERO ISZERO MUL OR SWAP1 SSTORE POP CALLER PUSH20 0xFFFFFFFFFFFFFFFFFFFFFFFFFFFFFFFFFFFFFFFF AND PUSH32 0xF877951E00DCC3CDCA3128576BB85744A328DB5182A4961BB6CF59CFEC309594 DUP3 PUSH1 0x40 MLOAD PUSH2 0x76C SWAP2 SWAP1 PUSH2 0x1960 JUMP JUMPDEST PUSH1 0x40 MLOAD DUP1 SWAP2 SUB SWAP1 LOG2 POP JUMPDEST PUSH8 0x16345785D8A0000 CALLVALUE GT ISZERO PUSH2 0x7E1 JUMPI CALLER PUSH20 0xFFFFFFFFFFFFFFFFFFFFFFFFFFFFFFFFFFFFFFFF AND PUSH2 0x8FC PUSH8 0x16345785D8A0000 CALLVALUE PUSH2 0x7B4 SWAP2 SWAP1 PUSH2 0x21C2 JUMP JUMPDEST SWAP1 DUP2 ISZERO MUL SWAP1 PUSH1 0x40 MLOAD PUSH1 0x0 PUSH1 0x40 MLOAD DUP1 DUP4 SUB DUP2 DUP6 DUP9 DUP9 CALL SWAP4 POP POP POP POP ISZERO DUP1 ISZERO PUSH2 0x7DF JUMPI RETURNDATASIZE PUSH1 0x0 DUP1 RETURNDATACOPY RETURNDATASIZE PUSH1 0x0 REVERT JUMPDEST POP JUMPDEST POP POP PUSH2 0x7EB PUSH2 0x13EE JUMP JUMPDEST JUMP JUMPDEST PUSH7 0x2386F26FC10000 DUP2 JUMP JUMPDEST PUSH1 0x60 PUSH1 0x0 DUP1 PUSH1 0x0 PUSH1 0x2 PUSH1 0x0 DUP7 PUSH20 0xFFFFFFFFFFFFFFFFFFFFFFFFFFFFFFFFFFFFFFFF AND PUSH20 0xFFFFFFFFFFFFFFFFFFFFFFFFFFFFFFFFFFFFFFFF AND DUP2 MSTORE PUSH1 0x20 ADD SWAP1 DUP2 MSTORE PUSH1 0x20 ADD PUSH1 0x0 KECCAK256 PUSH1 0x5 ADD PUSH1 0x0 SWAP1 SLOAD SWAP1 PUSH2 0x100 EXP SWAP1 DIV PUSH1 0xFF AND PUSH2 0x88E JUMPI PUSH1 0x40 MLOAD PUSH32 0x8C379A000000000000000000000000000000000000000000000000000000000 DUP2 MSTORE PUSH1 0x4 ADD PUSH2 0x885 SWAP1 PUSH2 0x2039 JUMP JUMPDEST PUSH1 0x40 MLOAD DUP1 SWAP2 SUB SWAP1 REVERT JUMPDEST PUSH1 0x0 PUSH1 0x2 PUSH1 0x0 DUP8 PUSH20 0xFFFFFFFFFFFFFFFFFFFFFFFFFFFFFFFFFFFFFFFF AND PUSH20 0xFFFFFFFFFFFFFFFFFFFFFFFFFFFFFFFFFFFFFFFF AND DUP2 MSTORE PUSH1 0x20 ADD SWAP1 DUP2 MSTORE PUSH1 0x20 ADD PUSH1 0x0 KECCAK256 SWAP1 POP DUP1 PUSH1 0x0 ADD DUP2 PUSH1 0x1 ADD SLOAD DUP3 PUSH1 0x2 ADD SLOAD DUP4 PUSH1 0x3 ADD SLOAD DUP4 DUP1 SLOAD PUSH2 0x8F0 SWAP1 PUSH2 0x1C44 JUMP JUMPDEST DUP1 PUSH1 0x1F ADD PUSH1 0x20 DUP1 SWAP2 DIV MUL PUSH1 0x20 ADD PUSH1 0x40 MLOAD SWAP1 DUP2 ADD PUSH1 0x40 MSTORE DUP1 SWAP3 SWAP2 SWAP1 DUP2 DUP2 MSTORE PUSH1 0x20 ADD DUP3 DUP1 SLOAD PUSH2 0x91C SWAP1 PUSH2 0x1C44 JUMP JUMPDEST DUP1 ISZERO PUSH2 0x969 JUMPI DUP1 PUSH1 0x1F LT PUSH2 0x93E JUMPI PUSH2 0x100 DUP1 DUP4 SLOAD DIV MUL DUP4 MSTORE SWAP2 PUSH1 0x20 ADD SWAP2 PUSH2 0x969 JUMP JUMPDEST DUP3 ADD SWAP2 SWAP1 PUSH1 0x0 MSTORE PUSH1 0x20 PUSH1 0x0 KECCAK256 SWAP1 JUMPDEST DUP2 SLOAD DUP2 MSTORE SWAP1 PUSH1 0x1 ADD SWAP1 PUSH1 0x20 ADD DUP1 DUP4 GT PUSH2 0x94C JUMPI DUP3 SWAP1 SUB PUSH1 0x1F AND DUP3 ADD SWAP2 JUMPDEST POP POP POP POP POP SWAP4 POP SWAP5 POP SWAP5 POP SWAP5 POP SWAP5 POP POP SWAP2 SWAP4 POP SWAP2 SWAP4 JUMP JUMPDEST PUSH1 0x3 PUSH1 0x20 MSTORE DUP1 PUSH1 0x0 MSTORE PUSH1 0x40 PUSH1 0x0 KECCAK256 PUSH1 0x0 SWAP2 POP SWAP1 POP DUP1 PUSH1 0x0 ADD DUP1 SLOAD PUSH2 0x9A3 SWAP1 PUSH2 0x1C44 JUMP JUMPDEST DUP1 PUSH1 0x1F ADD PUSH1 0x20 DUP1 SWAP2 DIV MUL PUSH1 0x20 ADD PUSH1 0x40 MLOAD SWAP1 DUP2 ADD PUSH1 0x40 MSTORE DUP1 SWAP3 SWAP2 SWAP1 DUP2 DUP2 MSTORE PUSH1 0x20 ADD DUP3 DUP1 SLOAD PUSH2 0x9CF SWAP1 PUSH2 0x1C44 JUMP JUMPDEST DUP1 ISZERO PUSH2 0xA1C JUMPI DUP1 PUSH1 0x1F LT PUSH2 0x9F1 JUMPI PUSH2 0x100 DUP1 DUP4 SLOAD DIV MUL DUP4 MSTORE SWAP2 PUSH1 0x20 ADD SWAP2 PUSH2 0xA1C JUMP JUMPDEST DUP3 ADD SWAP2 SWAP1 PUSH1 0x0 MSTORE PUSH1 0x20 PUSH1 0x0 KECCAK256 SWAP1 JUMPDEST DUP2 SLOAD DUP2 MSTORE SWAP1 PUSH1 0x1 ADD SWAP1 PUSH1 0x20 ADD DUP1 DUP4 GT PUSH2 0x9FF JUMPI DUP3 SWAP1 SUB PUSH1 0x1F AND DUP3 ADD SWAP2 JUMPDEST POP POP POP POP POP SWAP1 DUP1 PUSH1 0x1 ADD SLOAD SWAP1 DUP1 PUSH1 0x2 ADD DUP1 SLOAD PUSH2 0xA37 SWAP1 PUSH2 0x1C44 JUMP JUMPDEST DUP1 PUSH1 0x1F ADD PUSH1 0x20 DUP1 SWAP2 DIV MUL PUSH1 0x20 ADD PUSH1 0x40 MLOAD SWAP1 DUP2 ADD PUSH1 0x40 MSTORE DUP1 SWAP3 SWAP2 SWAP1 DUP2 DUP2 MSTORE PUSH1 0x20 ADD DUP3 DUP1 SLOAD PUSH2 0xA63 SWAP1 PUSH2 0x1C44 JUMP JUMPDEST DUP1 ISZERO PUSH2 0xAB0 JUMPI DUP1 PUSH1 0x1F LT PUSH2 0xA85 JUMPI PUSH2 0x100 DUP1 DUP4 SLOAD DIV MUL DUP4 MSTORE SWAP2 PUSH1 0x20 ADD SWAP2 PUSH2 0xAB0 JUMP JUMPDEST DUP3 ADD SWAP2 SWAP1 PUSH1 0x0 MSTORE PUSH1 0x20 PUSH1 0x0 KECCAK256 SWAP1 JUMPDEST DUP2 SLOAD DUP2 MSTORE SWAP1 PUSH1 0x1 ADD SWAP1 PUSH1 0x20 ADD DUP1 DUP4 GT PUSH2 0xA93 JUMPI DUP3 SWAP1 SUB PUSH1 0x1F AND DUP3 ADD SWAP2 JUMPDEST POP POP POP POP POP SWAP1 POP DUP4 JUMP JUMPDEST PUSH7 0x470DE4DF820000 DUP2 JUMP JUMPDEST PUSH1 0x2 PUSH1 0x20 MSTORE DUP1 PUSH1 0x0 MSTORE PUSH1 0x40 PUSH1 0x0 KECCAK256 PUSH1 0x0 SWAP2 POP SWAP1 POP DUP1 PUSH1 0x0 ADD DUP1 SLOAD PUSH2 0xAE8 SWAP1 PUSH2 0x1C44 JUMP JUMPDEST DUP1 PUSH1 0x1F ADD PUSH1 0x20 DUP1 SWAP2 DIV MUL PUSH1 0x20 ADD PUSH1 0x40 MLOAD SWAP1 DUP2 ADD PUSH1 0x40 MSTORE DUP1 SWAP3 SWAP2 SWAP1 DUP2 DUP2 MSTORE PUSH1 0x20 ADD DUP3 DUP1 SLOAD PUSH2 0xB14 SWAP1 PUSH2 0x1C44 JUMP JUMPDEST DUP1 ISZERO PUSH2 0xB61 JUMPI DUP1 PUSH1 0x1F LT PUSH2 0xB36 JUMPI PUSH2 0x100 DUP1 DUP4 SLOAD DIV MUL DUP4 MSTORE SWAP2 PUSH1 0x20 ADD SWAP2 PUSH2 0xB61 JUMP JUMPDEST DUP3 ADD SWAP2 SWAP1 PUSH1 0x0 MSTORE PUSH1 0x20 PUSH1 0x0 KECCAK256 SWAP1 JUMPDEST DUP2 SLOAD DUP2 MSTORE SWAP1 PUSH1 0x1 ADD SWAP1 PUSH1 0x20 ADD DUP1 DUP4 GT PUSH2 0xB44 JUMPI DUP3 SWAP1 SUB PUSH1 0x1F AND DUP3 ADD SWAP2 JUMPDEST POP POP POP POP POP SWAP1 DUP1 PUSH1 0x1 ADD SLOAD SWAP1 DUP1 PUSH1 0x2 ADD SLOAD SWAP1 DUP1 PUSH1 0x3 ADD SLOAD SWAP1 DUP1 PUSH1 0x5 ADD PUSH1 0x0 SWAP1 SLOAD SWAP1 PUSH2 0x100 EXP SWAP1 DIV PUSH1 0xFF AND SWAP1 POP DUP6 JUMP JUMPDEST PUSH2 0xB98 PUSH2 0x13F7 JUMP JUMPDEST PUSH2 0xBA2 PUSH1 0x0 PUSH2 0x1475 JUMP JUMPDEST JUMP JUMPDEST PUSH1 0x2 PUSH1 0x0 CALLER PUSH20 0xFFFFFFFFFFFFFFFFFFFFFFFFFFFFFFFFFFFFFFFF AND PUSH20 0xFFFFFFFFFFFFFFFFFFFFFFFFFFFFFFFFFFFFFFFF AND DUP2 MSTORE PUSH1 0x20 ADD SWAP1 DUP2 MSTORE PUSH1 0x20 ADD PUSH1 0x0 KECCAK256 PUSH1 0x5 ADD PUSH1 0x0 SWAP1 SLOAD SWAP1 PUSH2 0x100 EXP SWAP1 DIV PUSH1 0xFF AND DUP1 ISZERO PUSH2 0xC4C JUMPI POP PUSH1 0x2 PUSH1 0x0 DUP3 PUSH20 0xFFFFFFFFFFFFFFFFFFFFFFFFFFFFFFFFFFFFFFFF AND PUSH20 0xFFFFFFFFFFFFFFFFFFFFFFFFFFFFFFFFFFFFFFFF AND DUP2 MSTORE PUSH1 0x20 ADD SWAP1 DUP2 MSTORE PUSH1 0x20 ADD PUSH1 0x0 KECCAK256 PUSH1 0x5 ADD PUSH1 0x0 SWAP1 SLOAD SWAP1 PUSH2 0x100 EXP SWAP1 DIV PUSH1 0xFF AND JUMPDEST PUSH2 0xC8B JUMPI PUSH1 0x40 MLOAD PUSH32 0x8C379A000000000000000000000000000000000000000000000000000000000 DUP2 MSTORE PUSH1 0x4 ADD PUSH2 0xC82 SWAP1 PUSH2 0x2242 JUMP JUMPDEST PUSH1 0x40 MLOAD DUP1 SWAP2 SUB SWAP1 REVERT JUMPDEST CALLER PUSH20 0xFFFFFFFFFFFFFFFFFFFFFFFFFFFFFFFFFFFFFFFF AND DUP2 PUSH20 0xFFFFFFFFFFFFFFFFFFFFFFFFFFFFFFFFFFFFFFFF AND SUB PUSH2 0xCF9 JUMPI PUSH1 0x40 MLOAD PUSH32 0x8C379A000000000000000000000000000000000000000000000000000000000 DUP2 MSTORE PUSH1 0x4 ADD PUSH2 0xCF0 SWAP1 PUSH2 0x22AE JUMP JUMPDEST PUSH1 0x40 MLOAD DUP1 SWAP2 SUB SWAP1 REVERT JUMPDEST PUSH1 0x0 PUSH2 0xD04 CALLER PUSH2 0x1539 JUMP JUMPDEST SWAP1 POP PUSH1 0x0 PUSH2 0xD11 DUP4 PUSH2 0x1539 JUMP JUMPDEST SWAP1 POP PUSH1 0x0 DUP2 DUP4 GT SWAP1 POP DUP1 ISZERO PUSH2 0xEC1 JUMPI PUSH1 0x1 PUSH1 0x2 PUSH1 0x0 CALLER PUSH20 0xFFFFFFFFFFFFFFFFFFFFFFFFFFFFFFFFFFFFFFFF AND PUSH20 0xFFFFFFFFFFFFFFFFFFFFFFFFFFFFFFFFFFFFFFFF AND DUP2 MSTORE PUSH1 0x20 ADD SWAP1 DUP2 MSTORE PUSH1 0x20 ADD PUSH1 0x0 KECCAK256 PUSH1 0x1 ADD PUSH1 0x0 DUP3 DUP3 SLOAD PUSH2 0xD73 SWAP2 SWAP1 PUSH2 0x218E JUMP JUMPDEST SWAP3 POP POP DUP2 SWAP1 SSTORE POP PUSH1 0xA PUSH1 0x8 PUSH1 0x2 PUSH1 0x0 CALLER PUSH20 0xFFFFFFFFFFFFFFFFFFFFFFFFFFFFFFFFFFFFFFFF AND PUSH20 0xFFFFFFFFFFFFFFFFFFFFFFFFFFFFFFFFFFFFFFFF AND DUP2 MSTORE PUSH1 0x20 ADD SWAP1 DUP2 MSTORE PUSH1 0x20 ADD PUSH1 0x0 KECCAK256 PUSH1 0x2 ADD SLOAD PUSH2 0xDCB SWAP2 SWAP1 PUSH2 0x22CE JUMP JUMPDEST PUSH2 0xDD5 SWAP2 SWAP1 PUSH2 0x2310 JUMP JUMPDEST PUSH1 0x2 PUSH1 0x0 CALLER PUSH20 0xFFFFFFFFFFFFFFFFFFFFFFFFFFFFFFFFFFFFFFFF AND PUSH20 0xFFFFFFFFFFFFFFFFFFFFFFFFFFFFFFFFFFFFFFFF AND DUP2 MSTORE PUSH1 0x20 ADD SWAP1 DUP2 MSTORE PUSH1 0x20 ADD PUSH1 0x0 KECCAK256 PUSH1 0x2 ADD DUP2 SWAP1 SSTORE POP PUSH1 0xA PUSH1 0x8 PUSH1 0x2 PUSH1 0x0 CALLER PUSH20 0xFFFFFFFFFFFFFFFFFFFFFFFFFFFFFFFFFFFFFFFF AND PUSH20 0xFFFFFFFFFFFFFFFFFFFFFFFFFFFFFFFFFFFFFFFF AND DUP2 MSTORE PUSH1 0x20 ADD SWAP1 DUP2 MSTORE PUSH1 0x20 ADD PUSH1 0x0 KECCAK256 PUSH1 0x3 ADD SLOAD PUSH2 0xE6C SWAP2 SWAP1 PUSH2 0x22CE JUMP JUMPDEST PUSH2 0xE76 SWAP2 SWAP1 PUSH2 0x2310 JUMP JUMPDEST PUSH1 0x2 PUSH1 0x0 CALLER PUSH20 0xFFFFFFFFFFFFFFFFFFFFFFFFFFFFFFFFFFFFFFFF AND PUSH20 0xFFFFFFFFFFFFFFFFFFFFFFFFFFFFFFFFFFFFFFFF AND DUP2 MSTORE PUSH1 0x20 ADD SWAP1 DUP2 MSTORE PUSH1 0x20 ADD PUSH1 0x0 KECCAK256 PUSH1 0x3 ADD DUP2 SWAP1 SSTORE POP PUSH2 0x1004 JUMP JUMPDEST PUSH1 0xA PUSH1 0x6 PUSH1 0x2 PUSH1 0x0 CALLER PUSH20 0xFFFFFFFFFFFFFFFFFFFFFFFFFFFFFFFFFFFFFFFF AND PUSH20 0xFFFFFFFFFFFFFFFFFFFFFFFFFFFFFFFFFFFFFFFF AND DUP2 MSTORE PUSH1 0x20 ADD SWAP1 DUP2 MSTORE PUSH1 0x20 ADD PUSH1 0x0 KECCAK256 PUSH1 0x2 ADD SLOAD PUSH2 0xF12 SWAP2 SWAP1 PUSH2 0x22CE JUMP JUMPDEST PUSH2 0xF1C SWAP2 SWAP1 PUSH2 0x2310 JUMP JUMPDEST PUSH1 0x2 PUSH1 0x0 CALLER PUSH20 0xFFFFFFFFFFFFFFFFFFFFFFFFFFFFFFFFFFFFFFFF AND PUSH20 0xFFFFFFFFFFFFFFFFFFFFFFFFFFFFFFFFFFFFFFFF AND DUP2 MSTORE PUSH1 0x20 ADD SWAP1 DUP2 MSTORE PUSH1 0x20 ADD PUSH1 0x0 KECCAK256 PUSH1 0x2 ADD DUP2 SWAP1 SSTORE POP PUSH1 0xA PUSH1 0x6 PUSH1 0x2 PUSH1 0x0 CALLER PUSH20 0xFFFFFFFFFFFFFFFFFFFFFFFFFFFFFFFFFFFFFFFF AND PUSH20 0xFFFFFFFFFFFFFFFFFFFFFFFFFFFFFFFFFFFFFFFF AND DUP2 MSTORE PUSH1 0x20 ADD SWAP1 DUP2 MSTORE PUSH1 0x20 ADD PUSH1 0x0 KECCAK256 PUSH1 0x3 ADD SLOAD PUSH2 0xFB3 SWAP2 SWAP1 PUSH2 0x22CE JUMP JUMPDEST PUSH2 0xFBD SWAP2 SWAP1 PUSH2 0x2310 JUMP JUMPDEST PUSH1 0x2 PUSH1 0x0 CALLER PUSH20 0xFFFFFFFFFFFFFFFFFFFFFFFFFFFFFFFFFFFFFFFF AND PUSH20 0xFFFFFFFFFFFFFFFFFFFFFFFFFFFFFFFFFFFFFFFF AND DUP2 MSTORE PUSH1 0x20 ADD SWAP1 DUP2 MSTORE PUSH1 0x20 ADD PUSH1 0x0 KECCAK256 PUSH1 0x3 ADD DUP2 SWAP1 SSTORE POP JUMPDEST DUP4 PUSH20 0xFFFFFFFFFFFFFFFFFFFFFFFFFFFFFFFFFFFFFFFF AND CALLER PUSH20 0xFFFFFFFFFFFFFFFFFFFFFFFFFFFFFFFFFFFFFFFF AND PUSH32 0xCD99EBCBB6C7824BEBC9F9B71CE6415D1CF7515BAC8C494D896F0C833620C3E1 DUP4 PUSH1 0x40 MLOAD PUSH2 0x1061 SWAP2 SWAP1 PUSH2 0x1936 JUMP JUMPDEST PUSH1 0x40 MLOAD DUP1 SWAP2 SUB SWAP1 LOG3 POP POP POP POP JUMP JUMPDEST PUSH1 0x0 DUP1 PUSH1 0x0 SWAP1 SLOAD SWAP1 PUSH2 0x100 EXP SWAP1 DIV PUSH20 0xFFFFFFFFFFFFFFFFFFFFFFFFFFFFFFFFFFFFFFFF AND SWAP1 POP SWAP1 JUMP JUMPDEST PUSH2 0x10A0 PUSH2 0x139F JUMP JUMPDEST PUSH1 0x2 PUSH1 0x0 CALLER PUSH20 0xFFFFFFFFFFFFFFFFFFFFFFFFFFFFFFFFFFFFFFFF AND PUSH20 0xFFFFFFFFFFFFFFFFFFFFFFFFFFFFFFFFFFFFFFFF AND DUP2 MSTORE PUSH1 0x20 ADD SWAP1 DUP2 MSTORE PUSH1 0x20 ADD PUSH1 0x0 KECCAK256 PUSH1 0x5 ADD PUSH1 0x0 SWAP1 SLOAD SWAP1 PUSH2 0x100 EXP SWAP1 DIV PUSH1 0xFF AND PUSH2 0x112F JUMPI PUSH1 0x40 MLOAD PUSH32 0x8C379A000000000000000000000000000000000000000000000000000000000 DUP2 MSTORE PUSH1 0x4 ADD PUSH2 0x1126 SWAP1 PUSH2 0x2039 JUMP JUMPDEST PUSH1 0x40 MLOAD DUP1 SWAP2 SUB SWAP1 REVERT JUMPDEST PUSH1 0x0 PUSH7 0x470DE4DF820000 DUP3 PUSH2 0x1144 SWAP2 SWAP1 PUSH2 0x22CE JUMP JUMPDEST PUSH7 0x2386F26FC10000 DUP5 PUSH2 0x1157 SWAP2 SWAP1 PUSH2 0x22CE JUMP JUMPDEST PUSH2 0x1161 SWAP2 SWAP1 PUSH2 0x218E JUMP JUMPDEST SWAP1 POP DUP1 CALLVALUE LT ISZERO PUSH2 0x11A6 JUMPI PUSH1 0x40 MLOAD PUSH32 0x8C379A000000000000000000000000000000000000000000000000000000000 DUP2 MSTORE PUSH1 0x4 ADD PUSH2 0x119D SWAP1 PUSH2 0x1FCD JUMP JUMPDEST PUSH1 0x40 MLOAD DUP1 SWAP2 SUB SWAP1 REVERT JUMPDEST DUP3 PUSH1 0x2 PUSH1 0x0 CALLER PUSH20 0xFFFFFFFFFFFFFFFFFFFFFFFFFFFFFFFFFFFFFFFF AND PUSH20 0xFFFFFFFFFFFFFFFFFFFFFFFFFFFFFFFFFFFFFFFF AND DUP2 MSTORE PUSH1 0x20 ADD SWAP1 DUP2 MSTORE PUSH1 0x20 ADD PUSH1 0x0 KECCAK256 PUSH1 0x2 ADD PUSH1 0x0 DUP3 DUP3 SLOAD PUSH2 0x11F8 SWAP2 SWAP1 PUSH2 0x218E JUMP JUMPDEST SWAP3 POP POP DUP2 SWAP1 SSTORE POP DUP2 PUSH1 0x2 PUSH1 0x0 CALLER PUSH20 0xFFFFFFFFFFFFFFFFFFFFFFFFFFFFFFFFFFFFFFFF AND PUSH20 0xFFFFFFFFFFFFFFFFFFFFFFFFFFFFFFFFFFFFFFFF AND DUP2 MSTORE PUSH1 0x20 ADD SWAP1 DUP2 MSTORE PUSH1 0x20 ADD PUSH1 0x0 KECCAK256 PUSH1 0x3 ADD PUSH1 0x0 DUP3 DUP3 SLOAD PUSH2 0x1251 SWAP2 SWAP1 PUSH2 0x218E JUMP JUMPDEST SWAP3 POP POP DUP2 SWAP1 SSTORE POP CALLER PUSH20 0xFFFFFFFFFFFFFFFFFFFFFFFFFFFFFFFFFFFFFFFF AND PUSH32 0xAF29816CD11119A4C8C0EFF4213407D9EEE90E96234648827025B3DCDA86AF39 DUP5 DUP5 PUSH1 0x40 MLOAD PUSH2 0x12A0 SWAP3 SWAP2 SWAP1 PUSH2 0x2341 JUMP JUMPDEST PUSH1 0x40 MLOAD DUP1 SWAP2 SUB SWAP1 LOG2 DUP1 CALLVALUE GT ISZERO PUSH2 0x1303 JUMPI CALLER PUSH20 0xFFFFFFFFFFFFFFFFFFFFFFFFFFFFFFFFFFFFFFFF AND PUSH2 0x8FC DUP3 CALLVALUE PUSH2 0x12D6 SWAP2 SWAP1 PUSH2 0x21C2 JUMP JUMPDEST SWAP1 DUP2 ISZERO MUL SWAP1 PUSH1 0x40 MLOAD PUSH1 0x0 PUSH1 0x40 MLOAD DUP1 DUP4 SUB DUP2 DUP6 DUP9 DUP9 CALL SWAP4 POP POP POP POP ISZERO DUP1 ISZERO PUSH2 0x1301 JUMPI RETURNDATASIZE PUSH1 0x0 DUP1 RETURNDATACOPY RETURNDATASIZE PUSH1 0x0 REVERT JUMPDEST POP JUMPDEST POP PUSH2 0x130C PUSH2 0x13EE JUMP JUMPDEST POP POP JUMP JUMPDEST PUSH8 0x16345785D8A0000 DUP2 JUMP JUMPDEST PUSH2 0x1324 PUSH2 0x13F7 JUMP JUMPDEST PUSH1 0x0 PUSH20 0xFFFFFFFFFFFFFFFFFFFFFFFFFFFFFFFFFFFFFFFF AND DUP2 PUSH20 0xFFFFFFFFFFFFFFFFFFFFFFFFFFFFFFFFFFFFFFFF AND SUB PUSH2 0x1393 JUMPI PUSH1 0x40 MLOAD PUSH32 0x8C379A000000000000000000000000000000000000000000000000000000000 DUP2 MSTORE PUSH1 0x4 ADD PUSH2 0x138A SWAP1 PUSH2 0x23DC JUMP JUMPDEST PUSH1 0x40 MLOAD DUP1 SWAP2 SUB SWAP1 REVERT JUMPDEST PUSH2 0x139C DUP2 PUSH2 0x1475 JUMP JUMPDEST POP JUMP JUMPDEST PUSH1 0x2 PUSH1 0x1 SLOAD SUB PUSH2 0x13E4 JUMPI PUSH1 0x40 MLOAD PUSH32 0x8C379A000000000000000000000000000000000000000000000000000000000 DUP2 MSTORE PUSH1 0x4 ADD PUSH2 0x13DB SWAP1 PUSH2 0x2448 JUMP JUMPDEST PUSH1 0x40 MLOAD DUP1 SWAP2 SUB SWAP1 REVERT JUMPDEST PUSH1 0x2 PUSH1 0x1 DUP2 SWAP1 SSTORE POP JUMP JUMPDEST PUSH1 0x1 DUP1 DUP2 SWAP1 SSTORE POP JUMP JUMPDEST PUSH2 0x13FF PUSH2 0x169C JUMP JUMPDEST PUSH20 0xFFFFFFFFFFFFFFFFFFFFFFFFFFFFFFFFFFFFFFFF AND PUSH2 0x141D PUSH2 0x106F JUMP JUMPDEST PUSH20 0xFFFFFFFFFFFFFFFFFFFFFFFFFFFFFFFFFFFFFFFF AND EQ PUSH2 0x1473 JUMPI PUSH1 0x40 MLOAD PUSH32 0x8C379A000000000000000000000000000000000000000000000000000000000 DUP2 MSTORE PUSH1 0x4 ADD PUSH2 0x146A SWAP1 PUSH2 0x24B4 JUMP JUMPDEST PUSH1 0x40 MLOAD DUP1 SWAP2 SUB SWAP1 REVERT JUMPDEST JUMP JUMPDEST PUSH1 0x0 DUP1 PUSH1 0x0 SWAP1 SLOAD SWAP1 PUSH2 0x100 EXP SWAP1 DIV PUSH20 0xFFFFFFFFFFFFFFFFFFFFFFFFFFFFFFFFFFFFFFFF AND SWAP1 POP DUP2 PUSH1 0x0 DUP1 PUSH2 0x100 EXP DUP2 SLOAD DUP2 PUSH20 0xFFFFFFFFFFFFFFFFFFFFFFFFFFFFFFFFFFFFFFFF MUL NOT AND SWAP1 DUP4 PUSH20 0xFFFFFFFFFFFFFFFFFFFFFFFFFFFFFFFFFFFFFFFF AND MUL OR SWAP1 SSTORE POP DUP2 PUSH20 0xFFFFFFFFFFFFFFFFFFFFFFFFFFFFFFFFFFFFFFFF AND DUP2 PUSH20 0xFFFFFFFFFFFFFFFFFFFFFFFFFFFFFFFFFFFFFFFF AND PUSH32 0x8BE0079C531659141344CD1FD0A4F28419497F9722A3DAAFE3B4186F6B6457E0 PUSH1 0x40 MLOAD PUSH1 0x40 MLOAD DUP1 SWAP2 SUB SWAP1 LOG3 POP POP JUMP JUMPDEST PUSH1 0x0 DUP1 PUSH1 0x2 DUP1 PUSH1 0x0 DUP6 PUSH20 0xFFFFFFFFFFFFFFFFFFFFFFFFFFFFFFFFFFFFFFFF AND PUSH20 0xFFFFFFFFFFFFFFFFFFFFFFFFFFFFFFFFFFFFFFFF AND DUP2 MSTORE PUSH1 0x20 ADD SWAP1 DUP2 MSTORE PUSH1 0x20 ADD PUSH1 0x0 KECCAK256 PUSH1 0x3 ADD SLOAD PUSH2 0x158A SWAP2 SWAP1 PUSH2 0x22CE JUMP JUMPDEST PUSH1 0x1 PUSH1 0x2 PUSH1 0x0 DUP7 PUSH20 0xFFFFFFFFFFFFFFFFFFFFFFFFFFFFFFFFFFFFFFFF AND PUSH20 0xFFFFFFFFFFFFFFFFFFFFFFFFFFFFFFFFFFFFFFFF AND DUP2 MSTORE PUSH1 0x20 ADD SWAP1 DUP2 MSTORE PUSH1 0x20 ADD PUSH1 0x0 KECCAK256 PUSH1 0x2 ADD SLOAD PUSH2 0x15D9 SWAP2 SWAP1 PUSH2 0x22CE JUMP JUMPDEST PUSH2 0x15E3 SWAP2 SWAP1 PUSH2 0x218E JUMP JUMPDEST SWAP1 POP PUSH1 0x0 PUSH1 0x1 SWAP1 POP JUMPDEST PUSH1 0x5 DUP2 GT PUSH2 0x1692 JUMPI PUSH1 0x2 PUSH1 0x0 DUP6 PUSH20 0xFFFFFFFFFFFFFFFFFFFFFFFFFFFFFFFFFFFFFFFF AND PUSH20 0xFFFFFFFFFFFFFFFFFFFFFFFFFFFFFFFFFFFFFFFF AND DUP2 MSTORE PUSH1 0x20 ADD SWAP1 DUP2 MSTORE PUSH1 0x20 ADD PUSH1 0x0 KECCAK256 PUSH1 0x4 ADD PUSH1 0x0 DUP3 DUP2 MSTORE PUSH1 0x20 ADD SWAP1 DUP2 MSTORE PUSH1 0x20 ADD PUSH1 0x0 KECCAK256 PUSH1 0x0 SWAP1 SLOAD SWAP1 PUSH2 0x100 EXP SWAP1 DIV PUSH1 0xFF AND ISZERO PUSH2 0x167F JUMPI PUSH1 0x3 PUSH1 0x0 DUP3 DUP2 MSTORE PUSH1 0x20 ADD SWAP1 DUP2 MSTORE PUSH1 0x20 ADD PUSH1 0x0 KECCAK256 PUSH1 0x1 ADD SLOAD DUP3 PUSH2 0x167C SWAP2 SWAP1 PUSH2 0x218E JUMP JUMPDEST SWAP2 POP JUMPDEST DUP1 DUP1 PUSH2 0x168A SWAP1 PUSH2 0x24D4 JUMP JUMPDEST SWAP2 POP POP PUSH2 0x15EC JUMP JUMPDEST POP DUP1 SWAP2 POP POP SWAP2 SWAP1 POP JUMP JUMPDEST PUSH1 0x0 CALLER SWAP1 POP SWAP1 JUMP JUMPDEST PUSH1 0x0 PUSH1 0x40 MLOAD SWAP1 POP SWAP1 JUMP JUMPDEST PUSH1 0x0 DUP1 REVERT JUMPDEST PUSH1 0x0 DUP1 REVERT JUMPDEST PUSH1 0x0 DUP1 REVERT JUMPDEST PUSH1 0x0 DUP1 REVERT JUMPDEST PUSH1 0x0 PUSH1 0x1F NOT PUSH1 0x1F DUP4 ADD AND SWAP1 POP SWAP2 SWAP1 POP JUMP JUMPDEST PUSH32 0x4E487B7100000000000000000000000000000000000000000000000000000000 PUSH1 0x0 MSTORE PUSH1 0x41 PUSH1 0x4 MSTORE PUSH1 0x24 PUSH1 0x0 REVERT JUMPDEST PUSH2 0x170B DUP3 PUSH2 0x16C2 JUMP JUMPDEST DUP2 ADD DUP2 DUP2 LT PUSH8 0xFFFFFFFFFFFFFFFF DUP3 GT OR ISZERO PUSH2 0x172A JUMPI PUSH2 0x1729 PUSH2 0x16D3 JUMP JUMPDEST JUMPDEST DUP1 PUSH1 0x40 MSTORE POP POP POP JUMP JUMPDEST PUSH1 0x0 PUSH2 0x173D PUSH2 0x16A4 JUMP JUMPDEST SWAP1 POP PUSH2 0x1749 DUP3 DUP3 PUSH2 0x1702 JUMP JUMPDEST SWAP2 SWAP1 POP JUMP JUMPDEST PUSH1 0x0 PUSH8 0xFFFFFFFFFFFFFFFF DUP3 GT ISZERO PUSH2 0x1769 JUMPI PUSH2 0x1768 PUSH2 0x16D3 JUMP JUMPDEST JUMPDEST PUSH2 0x1772 DUP3 PUSH2 0x16C2 JUMP JUMPDEST SWAP1 POP PUSH1 0x20 DUP2 ADD SWAP1 POP SWAP2 SWAP1 POP JUMP JUMPDEST DUP3 DUP2 DUP4 CALLDATACOPY PUSH1 0x0 DUP4 DUP4 ADD MSTORE POP POP POP JUMP JUMPDEST PUSH1 0x0 PUSH2 0x17A1 PUSH2 0x179C DUP5 PUSH2 0x174E JUMP JUMPDEST PUSH2 0x1733 JUMP JUMPDEST SWAP1 POP DUP3 DUP2 MSTORE PUSH1 0x20 DUP2 ADD DUP5 DUP5 DUP5 ADD GT ISZERO PUSH2 0x17BD JUMPI PUSH2 0x17BC PUSH2 0x16BD JUMP JUMPDEST JUMPDEST PUSH2 0x17C8 DUP5 DUP3 DUP6 PUSH2 0x177F JUMP JUMPDEST POP SWAP4 SWAP3 POP POP POP JUMP JUMPDEST PUSH1 0x0 DUP3 PUSH1 0x1F DUP4 ADD SLT PUSH2 0x17E5 JUMPI PUSH2 0x17E4 PUSH2 0x16B8 JUMP JUMPDEST JUMPDEST DUP2 CALLDATALOAD PUSH2 0x17F5 DUP5 DUP3 PUSH1 0x20 DUP7 ADD PUSH2 0x178E JUMP JUMPDEST SWAP2 POP POP SWAP3 SWAP2 POP POP JUMP JUMPDEST PUSH1 0x0 PUSH1 0x20 DUP3 DUP5 SUB SLT ISZERO PUSH2 0x1814 JUMPI PUSH2 0x1813 PUSH2 0x16AE JUMP JUMPDEST JUMPDEST PUSH1 0x0 DUP3 ADD CALLDATALOAD PUSH8 0xFFFFFFFFFFFFFFFF DUP2 GT ISZERO PUSH2 0x1832 JUMPI PUSH2 0x1831 PUSH2 0x16B3 JUMP JUMPDEST JUMPDEST PUSH2 0x183E DUP5 DUP3 DUP6 ADD PUSH2 0x17D0 JUMP JUMPDEST SWAP2 POP POP SWAP3 SWAP2 POP POP JUMP JUMPDEST PUSH1 0x0 PUSH20 0xFFFFFFFFFFFFFFFFFFFFFFFFFFFFFFFFFFFFFFFF DUP3 AND SWAP1 POP SWAP2 SWAP1 POP JUMP JUMPDEST PUSH1 0x0 PUSH2 0x1872 DUP3 PUSH2 0x1847 JUMP JUMPDEST SWAP1 POP SWAP2 SWAP1 POP JUMP JUMPDEST PUSH2 0x1882 DUP2 PUSH2 0x1867 JUMP JUMPDEST DUP2 EQ PUSH2 0x188D JUMPI PUSH1 0x0 DUP1 REVERT JUMPDEST POP JUMP JUMPDEST PUSH1 0x0 DUP2 CALLDATALOAD SWAP1 POP PUSH2 0x189F DUP2 PUSH2 0x1879 JUMP JUMPDEST SWAP3 SWAP2 POP POP JUMP JUMPDEST PUSH1 0x0 DUP2 SWAP1 POP SWAP2 SWAP1 POP JUMP JUMPDEST PUSH2 0x18B8 DUP2 PUSH2 0x18A5 JUMP JUMPDEST DUP2 EQ PUSH2 0x18C3 JUMPI PUSH1 0x0 DUP1 REVERT JUMPDEST POP JUMP JUMPDEST PUSH1 0x0 DUP2 CALLDATALOAD SWAP1 POP PUSH2 0x18D5 DUP2 PUSH2 0x18AF JUMP JUMPDEST SWAP3 SWAP2 POP POP JUMP JUMPDEST PUSH1 0x0 DUP1 PUSH1 0x40 DUP4 DUP6 SUB SLT ISZERO PUSH2 0x18F2 JUMPI PUSH2 0x18F1 PUSH2 0x16AE JUMP JUMPDEST JUMPDEST PUSH1 0x0 PUSH2 0x1900 DUP6 DUP3 DUP7 ADD PUSH2 0x1890 JUMP JUMPDEST SWAP3 POP POP PUSH1 0x20 PUSH2 0x1911 DUP6 DUP3 DUP7 ADD PUSH2 0x18C6 JUMP JUMPDEST SWAP2 POP POP SWAP3 POP SWAP3 SWAP1 POP JUMP JUMPDEST PUSH1 0x0 DUP2 ISZERO ISZERO SWAP1 POP SWAP2 SWAP1 POP JUMP JUMPDEST PUSH2 0x1930 DUP2 PUSH2 0x191B JUMP JUMPDEST DUP3 MSTORE POP POP JUMP JUMPDEST PUSH1 0x0 PUSH1 0x20 DUP3 ADD SWAP1 POP PUSH2 0x194B PUSH1 0x0 DUP4 ADD DUP5 PUSH2 0x1927 JUMP JUMPDEST SWAP3 SWAP2 POP POP JUMP JUMPDEST PUSH2 0x195A DUP2 PUSH2 0x18A5 JUMP JUMPDEST DUP3 MSTORE POP POP JUMP JUMPDEST PUSH1 0x0 PUSH1 0x20 DUP3 ADD SWAP1 POP PUSH2 0x1975 PUSH1 0x0 DUP4 ADD DUP5 PUSH2 0x1951 JUMP JUMPDEST SWAP3 SWAP2 POP POP JUMP JUMPDEST PUSH1 0x0 PUSH1 0x20 DUP3 DUP5 SUB SLT ISZERO PUSH2 0x1991 JUMPI PUSH2 0x1990 PUSH2 0x16AE JUMP JUMPDEST JUMPDEST PUSH1 0x0 PUSH2 0x199F DUP5 DUP3 DUP6 ADD PUSH2 0x1890 JUMP JUMPDEST SWAP2 POP POP SWAP3 SWAP2 POP POP JUMP JUMPDEST PUSH1 0x0 DUP2 MLOAD SWAP1 POP SWAP2 SWAP1 POP JUMP JUMPDEST PUSH1 0x0 DUP3 DUP3 MSTORE PUSH1 0x20 DUP3 ADD SWAP1 POP SWAP3 SWAP2 POP POP JUMP JUMPDEST PUSH1 0x0 JUMPDEST DUP4 DUP2 LT ISZERO PUSH2 0x19E2 JUMPI DUP1 DUP3 ADD MLOAD DUP2 DUP5 ADD MSTORE PUSH1 0x20 DUP2 ADD SWAP1 POP PUSH2 0x19C7 JUMP JUMPDEST PUSH1 0x0 DUP5 DUP5 ADD MSTORE POP POP POP POP JUMP JUMPDEST PUSH1 0x0 PUSH2 0x19F9 DUP3 PUSH2 0x19A8 JUMP JUMPDEST PUSH2 0x1A03 DUP2 DUP6 PUSH2 0x19B3 JUMP JUMPDEST SWAP4 POP PUSH2 0x1A13 DUP2 DUP6 PUSH1 0x20 DUP7 ADD PUSH2 0x19C4 JUMP JUMPDEST PUSH2 0x1A1C DUP2 PUSH2 0x16C2 JUMP JUMPDEST DUP5 ADD SWAP2 POP POP SWAP3 SWAP2 POP POP JUMP JUMPDEST PUSH1 0x0 PUSH1 0x80 DUP3 ADD SWAP1 POP DUP2 DUP2 SUB PUSH1 0x0 DUP4 ADD MSTORE PUSH2 0x1A41 DUP2 DUP8 PUSH2 0x19EE JUMP JUMPDEST SWAP1 POP PUSH2 0x1A50 PUSH1 0x20 DUP4 ADD DUP7 PUSH2 0x1951 JUMP JUMPDEST PUSH2 0x1A5D PUSH1 0x40 DUP4 ADD DUP6 PUSH2 0x1951 JUMP JUMPDEST PUSH2 0x1A6A PUSH1 0x60 DUP4 ADD DUP5 PUSH2 0x1951 JUMP JUMPDEST SWAP6 SWAP5 POP POP POP POP POP JUMP JUMPDEST PUSH1 0x0 PUSH1 0x20 DUP3 DUP5 SUB SLT ISZERO PUSH2 0x1A89 JUMPI PUSH2 0x1A88 PUSH2 0x16AE JUMP JUMPDEST JUMPDEST PUSH1 0x0 PUSH2 0x1A97 DUP5 DUP3 DUP6 ADD PUSH2 0x18C6 JUMP JUMPDEST SWAP2 POP POP SWAP3 SWAP2 POP POP JUMP JUMPDEST PUSH1 0x0 PUSH1 0x60 DUP3 ADD SWAP1 POP DUP2 DUP2 SUB PUSH1 0x0 DUP4 ADD MSTORE PUSH2 0x1ABA DUP2 DUP7 PUSH2 0x19EE JUMP JUMPDEST SWAP1 POP PUSH2 0x1AC9 PUSH1 0x20 DUP4 ADD DUP6 PUSH2 0x1951 JUMP JUMPDEST DUP2 DUP2 SUB PUSH1 0x40 DUP4 ADD MSTORE PUSH2 0x1ADB DUP2 DUP5 PUSH2 0x19EE JUMP JUMPDEST SWAP1 POP SWAP5 SWAP4 POP POP POP POP JUMP JUMPDEST PUSH1 0x0 PUSH1 0xA0 DUP3 ADD SWAP1 POP DUP2 DUP2 SUB PUSH1 0x0 DUP4 ADD MSTORE PUSH2 0x1AFF DUP2 DUP9 PUSH2 0x19EE JUMP JUMPDEST SWAP1 POP PUSH2 0x1B0E PUSH1 0x20 DUP4 ADD DUP8 PUSH2 0x1951 JUMP JUMPDEST PUSH2 0x1B1B PUSH1 0x40 DUP4 ADD DUP7 PUSH2 0x1951 JUMP JUMPDEST PUSH2 0x1B28 PUSH1 0x60 DUP4 ADD DUP6 PUSH2 0x1951 JUMP JUMPDEST PUSH2 0x1B35 PUSH1 0x80 DUP4 ADD DUP5 PUSH2 0x1927 JUMP JUMPDEST SWAP7 SWAP6 POP POP POP POP POP POP JUMP JUMPDEST PUSH2 0x1B48 DUP2 PUSH2 0x1867 JUMP JUMPDEST DUP3 MSTORE POP POP JUMP JUMPDEST PUSH1 0x0 PUSH1 0x20 DUP3 ADD SWAP1 POP PUSH2 0x1B63 PUSH1 0x0 DUP4 ADD DUP5 PUSH2 0x1B3F JUMP JUMPDEST SWAP3 SWAP2 POP POP JUMP JUMPDEST PUSH1 0x0 DUP1 PUSH1 0x40 DUP4 DUP6 SUB SLT ISZERO PUSH2 0x1B80 JUMPI PUSH2 0x1B7F PUSH2 0x16AE JUMP JUMPDEST JUMPDEST PUSH1 0x0 PUSH2 0x1B8E DUP6 DUP3 DUP7 ADD PUSH2 0x18C6 JUMP JUMPDEST SWAP3 POP POP PUSH1 0x20 PUSH2 0x1B9F DUP6 DUP3 DUP7 ADD PUSH2 0x18C6 JUMP JUMPDEST SWAP2 POP POP SWAP3 POP SWAP3 SWAP1 POP JUMP JUMPDEST PUSH32 0x4B68616E61746520616C72656164792065786973747300000000000000000000 PUSH1 0x0 DUP3 ADD MSTORE POP JUMP JUMPDEST PUSH1 0x0 PUSH2 0x1BDF PUSH1 0x16 DUP4 PUSH2 0x19B3 JUMP JUMPDEST SWAP2 POP PUSH2 0x1BEA DUP3 PUSH2 0x1BA9 JUMP JUMPDEST PUSH1 0x20 DUP3 ADD SWAP1 POP SWAP2 SWAP1 POP JUMP JUMPDEST PUSH1 0x0 PUSH1 0x20 DUP3 ADD SWAP1 POP DUP2 DUP2 SUB PUSH1 0x0 DUP4 ADD MSTORE PUSH2 0x1C0E DUP2 PUSH2 0x1BD2 JUMP JUMPDEST SWAP1 POP SWAP2 SWAP1 POP JUMP JUMPDEST PUSH32 0x4E487B7100000000000000000000000000000000000000000000000000000000 PUSH1 0x0 MSTORE PUSH1 0x22 PUSH1 0x4 MSTORE PUSH1 0x24 PUSH1 0x0 REVERT JUMPDEST PUSH1 0x0 PUSH1 0x2 DUP3 DIV SWAP1 POP PUSH1 0x1 DUP3 AND DUP1 PUSH2 0x1C5C JUMPI PUSH1 0x7F DUP3 AND SWAP2 POP JUMPDEST PUSH1 0x20 DUP3 LT DUP2 SUB PUSH2 0x1C6F JUMPI PUSH2 0x1C6E PUSH2 0x1C15 JUMP JUMPDEST JUMPDEST POP SWAP2 SWAP1 POP JUMP JUMPDEST PUSH1 0x0 DUP2 SWAP1 POP DUP2 PUSH1 0x0 MSTORE PUSH1 0x20 PUSH1 0x0 KECCAK256 SWAP1 POP SWAP2 SWAP1 POP JUMP JUMPDEST PUSH1 0x0 PUSH1 0x20 PUSH1 0x1F DUP4 ADD DIV SWAP1 POP SWAP2 SWAP1 POP JUMP JUMPDEST PUSH1 0x0 DUP3 DUP3 SHL SWAP1 POP SWAP3 SWAP2 POP POP JUMP JUMPDEST PUSH1 0x0 PUSH1 0x8 DUP4 MUL PUSH2 0x1CD7 PUSH32 0xFFFFFFFFFFFFFFFFFFFFFFFFFFFFFFFFFFFFFFFFFFFFFFFFFFFFFFFFFFFFFFFF DUP3 PUSH2 0x1C9A JUMP JUMPDEST PUSH2 0x1CE1 DUP7 DUP4 PUSH2 0x1C9A JUMP JUMPDEST SWAP6 POP DUP1 NOT DUP5 AND SWAP4 POP DUP1 DUP7 AND DUP5 OR SWAP3 POP POP POP SWAP4 SWAP3 POP POP POP JUMP JUMPDEST PUSH1 0x0 DUP2 SWAP1 POP SWAP2 SWAP1 POP JUMP JUMPDEST PUSH1 0x0 PUSH2 0x1D1E PUSH2 0x1D19 PUSH2 0x1D14 DUP5 PUSH2 0x18A5 JUMP JUMPDEST PUSH2 0x1CF9 JUMP JUMPDEST PUSH2 0x18A5 JUMP JUMPDEST SWAP1 POP SWAP2 SWAP1 POP JUMP JUMPDEST PUSH1 0x0 DUP2 SWAP1 POP SWAP2 SWAP1 POP JUMP JUMPDEST PUSH2 0x1D38 DUP4 PUSH2 0x1D03 JUMP JUMPDEST PUSH2 0x1D4C PUSH2 0x1D44 DUP3 PUSH2 0x1D25 JUMP JUMPDEST DUP5 DUP5 SLOAD PUSH2 0x1CA7 JUMP JUMPDEST DUP3 SSTORE POP POP POP POP JUMP JUMPDEST PUSH1 0x0 SWAP1 JUMP JUMPDEST PUSH2 0x1D61 PUSH2 0x1D54 JUMP JUMPDEST PUSH2 0x1D6C DUP2 DUP5 DUP5 PUSH2 0x1D2F JUMP JUMPDEST POP POP POP JUMP JUMPDEST JUMPDEST DUP2 DUP2 LT ISZERO PUSH2 0x1D90 JUMPI PUSH2 0x1D85 PUSH1 0x0 DUP3 PUSH2 0x1D59 JUMP JUMPDEST PUSH1 0x1 DUP2 ADD SWAP1 POP PUSH2 0x1D72 JUMP JUMPDEST POP POP JUMP JUMPDEST PUSH1 0x1F DUP3 GT ISZERO PUSH2 0x1DD5 JUMPI PUSH2 0x1DA6 DUP2 PUSH2 0x1C75 JUMP JUMPDEST PUSH2 0x1DAF DUP5 PUSH2 0x1C8A JUMP JUMPDEST DUP2 ADD PUSH1 0x20 DUP6 LT ISZERO PUSH2 0x1DBE JUMPI DUP2 SWAP1 POP JUMPDEST PUSH2 0x1DD2 PUSH2 0x1DCA DUP6 PUSH2 0x1C8A JUMP JUMPDEST DUP4 ADD DUP3 PUSH2 0x1D71 JUMP JUMPDEST POP POP JUMPDEST POP POP POP JUMP JUMPDEST PUSH1 0x0 DUP3 DUP3 SHR SWAP1 POP SWAP3 SWAP2 POP POP JUMP JUMPDEST PUSH1 0x0 PUSH2 0x1DF8 PUSH1 0x0 NOT DUP5 PUSH1 0x8 MUL PUSH2 0x1DDA JUMP JUMPDEST NOT DUP1 DUP4 AND SWAP2 POP POP SWAP3 SWAP2 POP POP JUMP JUMPDEST PUSH1 0x0 PUSH2 0x1E11 DUP4 DUP4 PUSH2 0x1DE7 JUMP JUMPDEST SWAP2 POP DUP3 PUSH1 0x2 MUL DUP3 OR SWAP1 POP SWAP3 SWAP2 POP POP JUMP JUMPDEST PUSH2 0x1E2A DUP3 PUSH2 0x19A8 JUMP JUMPDEST PUSH8 0xFFFFFFFFFFFFFFFF DUP2 GT ISZERO PUSH2 0x1E43 JUMPI PUSH2 0x1E42 PUSH2 0x16D3 JUMP JUMPDEST JUMPDEST PUSH2 0x1E4D DUP3 SLOAD PUSH2 0x1C44 JUMP JUMPDEST PUSH2 0x1E58 DUP3 DUP3 DUP6 PUSH2 0x1D94 JUMP JUMPDEST PUSH1 0x0 PUSH1 0x20 SWAP1 POP PUSH1 0x1F DUP4 GT PUSH1 0x1 DUP2 EQ PUSH2 0x1E8B JUMPI PUSH1 0x0 DUP5 ISZERO PUSH2 0x1E79 JUMPI DUP3 DUP8 ADD MLOAD SWAP1 POP JUMPDEST PUSH2 0x1E83 DUP6 DUP3 PUSH2 0x1E05 JUMP JUMPDEST DUP7 SSTORE POP PUSH2 0x1EEB JUMP JUMPDEST PUSH1 0x1F NOT DUP5 AND PUSH2 0x1E99 DUP7 PUSH2 0x1C75 JUMP JUMPDEST PUSH1 0x0 JUMPDEST DUP3 DUP2 LT ISZERO PUSH2 0x1EC1 JUMPI DUP5 DUP10 ADD MLOAD DUP3 SSTORE PUSH1 0x1 DUP3 ADD SWAP2 POP PUSH1 0x20 DUP6 ADD SWAP5 POP PUSH1 0x20 DUP2 ADD SWAP1 POP PUSH2 0x1E9C JUMP JUMPDEST DUP7 DUP4 LT ISZERO PUSH2 0x1EDE JUMPI DUP5 DUP10 ADD MLOAD PUSH2 0x1EDA PUSH1 0x1F DUP10 AND DUP3 PUSH2 0x1DE7 JUMP JUMPDEST DUP4 SSTORE POP JUMPDEST PUSH1 0x1 PUSH1 0x2 DUP9 MUL ADD DUP9 SSTORE POP POP POP JUMPDEST POP POP POP POP POP POP JUMP JUMPDEST PUSH1 0x0 PUSH1 0x20 DUP3 ADD SWAP1 POP DUP2 DUP2 SUB PUSH1 0x0 DUP4 ADD MSTORE PUSH2 0x1F0D DUP2 DUP5 PUSH2 0x19EE JUMP JUMPDEST SWAP1 POP SWAP3 SWAP2 POP POP JUMP JUMPDEST PUSH32 0x496E76616C696420426174797220494400000000000000000000000000000000 PUSH1 0x0 DUP3 ADD MSTORE POP JUMP JUMPDEST PUSH1 0x0 PUSH2 0x1F4B PUSH1 0x10 DUP4 PUSH2 0x19B3 JUMP JUMPDEST SWAP2 POP PUSH2 0x1F56 DUP3 PUSH2 0x1F15 JUMP JUMPDEST PUSH1 0x20 DUP3 ADD SWAP1 POP SWAP2 SWAP1 POP JUMP JUMPDEST PUSH1 0x0 PUSH1 0x20 DUP3 ADD SWAP1 POP DUP2 DUP2 SUB PUSH1 0x0 DUP4 ADD MSTORE PUSH2 0x1F7A DUP2 PUSH2 0x1F3E JUMP JUMPDEST SWAP1 POP SWAP2 SWAP1 POP JUMP JUMPDEST PUSH32 0x496E73756666696369656E74207061796D656E74000000000000000000000000 PUSH1 0x0 DUP3 ADD MSTORE POP JUMP JUMPDEST PUSH1 0x0 PUSH2 0x1FB7 PUSH1 0x14 DUP4 PUSH2 0x19B3 JUMP JUMPDEST SWAP2 POP PUSH2 0x1FC2 DUP3 PUSH2 0x1F81 JUMP JUMPDEST PUSH1 0x20 DUP3 ADD SWAP1 POP SWAP2 SWAP1 POP JUMP JUMPDEST PUSH1 0x0 PUSH1 0x20 DUP3 ADD SWAP1 POP DUP2 DUP2 SUB PUSH1 0x0 DUP4 ADD MSTORE PUSH2 0x1FE6 DUP2 PUSH2 0x1FAA JUMP JUMPDEST SWAP1 POP SWAP2 SWAP1 POP JUMP JUMPDEST PUSH32 0x4B68616E617465206E6F7420696E697469616C697A6564000000000000000000 PUSH1 0x0 DUP3 ADD MSTORE POP JUMP JUMPDEST PUSH1 0x0 PUSH2 0x2023 PUSH1 0x17 DUP4 PUSH2 0x19B3 JUMP JUMPDEST SWAP2 POP PUSH2 0x202E DUP3 PUSH2 0x1FED JUMP JUMPDEST PUSH1 0x20 DUP3 ADD SWAP1 POP SWAP2 SWAP1 POP JUMP JUMPDEST PUSH1 0x0 PUSH1 0x20 DUP3 ADD SWAP1 POP DUP2 DUP2 SUB PUSH1 0x0 DUP4 ADD MSTORE PUSH2 0x2052 DUP2 PUSH2 0x2016 JUMP JUMPDEST SWAP1 POP SWAP2 SWAP1 POP JUMP JUMPDEST PUSH1 0x0 DUP2 SWAP1 POP SWAP2 SWAP1 POP JUMP JUMPDEST PUSH2 0x2074 PUSH2 0x206F DUP3 PUSH2 0x18A5 JUMP JUMPDEST PUSH2 0x2059 JUMP JUMPDEST DUP3 MSTORE POP POP JUMP JUMPDEST PUSH1 0x0 DUP2 PUSH1 0x60 SHL SWAP1 POP SWAP2 SWAP1 POP JUMP JUMPDEST PUSH1 0x0 PUSH2 0x2092 DUP3 PUSH2 0x207A JUMP JUMPDEST SWAP1 POP SWAP2 SWAP1 POP JUMP JUMPDEST PUSH1 0x0 PUSH2 0x20A4 DUP3 PUSH2 0x2087 JUMP JUMPDEST SWAP1 POP SWAP2 SWAP1 POP JUMP JUMPDEST PUSH2 0x20BC PUSH2 0x20B7 DUP3 PUSH2 0x1867 JUMP JUMPDEST PUSH2 0x2099 JUMP JUMPDEST DUP3 MSTORE POP POP JUMP JUMPDEST PUSH1 0x0 PUSH2 0x20CE DUP3 DUP7 PUSH2 0x2063 JUMP JUMPDEST PUSH1 0x20 DUP3 ADD SWAP2 POP PUSH2 0x20DE DUP3 DUP6 PUSH2 0x2063 JUMP JUMPDEST PUSH1 0x20 DUP3 ADD SWAP2 POP PUSH2 0x20EE DUP3 DUP5 PUSH2 0x20AB JUMP JUMPDEST PUSH1 0x14 DUP3 ADD SWAP2 POP DUP2 SWAP1 POP SWAP5 SWAP4 POP POP POP POP JUMP JUMPDEST PUSH32 0x4E487B7100000000000000000000000000000000000000000000000000000000 PUSH1 0x0 MSTORE PUSH1 0x12 PUSH1 0x4 MSTORE PUSH1 0x24 PUSH1 0x0 REVERT JUMPDEST PUSH1 0x0 PUSH2 0x2139 DUP3 PUSH2 0x18A5 JUMP JUMPDEST SWAP2 POP PUSH2 0x2144 DUP4 PUSH2 0x18A5 JUMP JUMPDEST SWAP3 POP DUP3 PUSH2 0x2154 JUMPI PUSH2 0x2153 PUSH2 0x20FF JUMP JUMPDEST JUMPDEST DUP3 DUP3 MOD SWAP1 POP SWAP3 SWAP2 POP POP JUMP JUMPDEST PUSH32 0x4E487B7100000000000000000000000000000000000000000000000000000000 PUSH1 0x0 MSTORE PUSH1 0x11 PUSH1 0x4 MSTORE PUSH1 0x24 PUSH1 0x0 REVERT JUMPDEST PUSH1 0x0 PUSH2 0x2199 DUP3 PUSH2 0x18A5 JUMP JUMPDEST SWAP2 POP PUSH2 0x21A4 DUP4 PUSH2 0x18A5 JUMP JUMPDEST SWAP3 POP DUP3 DUP3 ADD SWAP1 POP DUP1 DUP3 GT ISZERO PUSH2 0x21BC JUMPI PUSH2 0x21BB PUSH2 0x215F JUMP JUMPDEST JUMPDEST SWAP3 SWAP2 POP POP JUMP JUMPDEST PUSH1 0x0 PUSH2 0x21CD DUP3 PUSH2 0x18A5 JUMP JUMPDEST SWAP2 POP PUSH2 0x21D8 DUP4 PUSH2 0x18A5 JUMP JUMPDEST SWAP3 POP DUP3 DUP3 SUB SWAP1 POP DUP2 DUP2 GT ISZERO PUSH2 0x21F0 JUMPI PUSH2 0x21EF PUSH2 0x215F JUMP JUMPDEST JUMPDEST SWAP3 SWAP2 POP POP JUMP JUMPDEST PUSH32 0x496E76616C6964206B68616E6174657300000000000000000000000000000000 PUSH1 0x0 DUP3 ADD MSTORE POP JUMP JUMPDEST PUSH1 0x0 PUSH2 0x222C PUSH1 0x10 DUP4 PUSH2 0x19B3 JUMP JUMPDEST SWAP2 POP PUSH2 0x2237 DUP3 PUSH2 0x21F6 JUMP JUMPDEST PUSH1 0x20 DUP3 ADD SWAP1 POP SWAP2 SWAP1 POP JUMP JUMPDEST PUSH1 0x0 PUSH1 0x20 DUP3 ADD SWAP1 POP DUP2 DUP2 SUB PUSH1 0x0 DUP4 ADD MSTORE PUSH2 0x225B DUP2 PUSH2 0x221F JUMP JUMPDEST SWAP1 POP SWAP2 SWAP1 POP JUMP JUMPDEST PUSH32 0x43616E6E6F7420626174746C6520796F757273656C6600000000000000000000 PUSH1 0x0 DUP3 ADD MSTORE POP JUMP JUMPDEST PUSH1 0x0 PUSH2 0x2298 PUSH1 0x16 DUP4 PUSH2 0x19B3 JUMP JUMPDEST SWAP2 POP PUSH2 0x22A3 DUP3 PUSH2 0x2262 JUMP JUMPDEST PUSH1 0x20 DUP3 ADD SWAP1 POP SWAP2 SWAP1 POP JUMP JUMPDEST PUSH1 0x0 PUSH1 0x20 DUP3 ADD SWAP1 POP DUP2 DUP2 SUB PUSH1 0x0 DUP4 ADD MSTORE PUSH2 0x22C7 DUP2 PUSH2 0x228B JUMP JUMPDEST SWAP1 POP SWAP2 SWAP1 POP JUMP JUMPDEST PUSH1 0x0 PUSH2 0x22D9 DUP3 PUSH2 0x18A5 JUMP JUMPDEST SWAP2 POP PUSH2 0x22E4 DUP4 PUSH2 0x18A5 JUMP JUMPDEST SWAP3 POP DUP3 DUP3 MUL PUSH2 0x22F2 DUP2 PUSH2 0x18A5 JUMP JUMPDEST SWAP2 POP DUP3 DUP3 DIV DUP5 EQ DUP4 ISZERO OR PUSH2 0x2309 JUMPI PUSH2 0x2308 PUSH2 0x215F JUMP JUMPDEST JUMPDEST POP SWAP3 SWAP2 POP POP JUMP JUMPDEST PUSH1 0x0 PUSH2 0x231B DUP3 PUSH2 0x18A5 JUMP JUMPDEST SWAP2 POP PUSH2 0x2326 DUP4 PUSH2 0x18A5 JUMP JUMPDEST SWAP3 POP DUP3 PUSH2 0x2336 JUMPI PUSH2 0x2335 PUSH2 0x20FF JUMP JUMPDEST JUMPDEST DUP3 DUP3 DIV SWAP1 POP SWAP3 SWAP2 POP POP JUMP JUMPDEST PUSH1 0x0 PUSH1 0x40 DUP3 ADD SWAP1 POP PUSH2 0x2356 PUSH1 0x0 DUP4 ADD DUP6 PUSH2 0x1951 JUMP JUMPDEST PUSH2 0x2363 PUSH1 0x20 DUP4 ADD DUP5 PUSH2 0x1951 JUMP JUMPDEST SWAP4 SWAP3 POP POP POP JUMP JUMPDEST PUSH32 0x4F776E61626C653A206E6577206F776E657220697320746865207A65726F2061 PUSH1 0x0 DUP3 ADD MSTORE PUSH32 0x6464726573730000000000000000000000000000000000000000000000000000 PUSH1 0x20 DUP3 ADD MSTORE POP JUMP JUMPDEST PUSH1 0x0 PUSH2 0x23C6 PUSH1 0x26 DUP4 PUSH2 0x19B3 JUMP JUMPDEST SWAP2 POP PUSH2 0x23D1 DUP3 PUSH2 0x236A JUMP JUMPDEST PUSH1 0x40 DUP3 ADD SWAP1 POP SWAP2 SWAP1 POP JUMP JUMPDEST PUSH1 0x0 PUSH1 0x20 DUP3 ADD SWAP1 POP DUP2 DUP2 SUB PUSH1 0x0 DUP4 ADD MSTORE PUSH2 0x23F5 DUP2 PUSH2 0x23B9 JUMP JUMPDEST SWAP1 POP SWAP2 SWAP1 POP JUMP JUMPDEST PUSH32 0x5265656E7472616E637947756172643A207265656E7472616E742063616C6C00 PUSH1 0x0 DUP3 ADD MSTORE POP JUMP JUMPDEST PUSH1 0x0 PUSH2 0x2432 PUSH1 0x1F DUP4 PUSH2 0x19B3 JUMP JUMPDEST SWAP2 POP PUSH2 0x243D DUP3 PUSH2 0x23FC JUMP JUMPDEST PUSH1 0x20 DUP3 ADD SWAP1 POP SWAP2 SWAP1 POP JUMP JUMPDEST PUSH1 0x0 PUSH1 0x20 DUP3 ADD SWAP1 POP DUP2 DUP2 SUB PUSH1 0x0 DUP4 ADD MSTORE PUSH2 0x2461 DUP2 PUSH2 0x2425 JUMP JUMPDEST SWAP1 POP SWAP2 SWAP1 POP JUMP JUMPDEST PUSH32 0x4F776E61626C653A2063616C6C6572206973206E6F7420746865206F776E6572 PUSH1 0x0 DUP3 ADD MSTORE POP JUMP JUMPDEST PUSH1 0x0 PUSH2 0x249E PUSH1 0x20 DUP4 PUSH2 0x19B3 JUMP JUMPDEST SWAP2 POP PUSH2 0x24A9 DUP3 PUSH2 0x2468 JUMP JUMPDEST PUSH1 0x20 DUP3 ADD SWAP1 POP SWAP2 SWAP1 POP JUMP JUMPDEST PUSH1 0x0 PUSH1 0x20 DUP3 ADD SWAP1 POP DUP2 DUP2 SUB PUSH1 0x0 DUP4 ADD MSTORE PUSH2 0x24CD DUP2 PUSH2 0x2491 JUMP JUMPDEST SWAP1 POP SWAP2 SWAP1 POP JUMP JUMPDEST PUSH1 0x0 PUSH2 0x24DF DUP3 PUSH2 0x18A5 JUMP JUMPDEST SWAP2 POP PUSH32 0xFFFFFFFFFFFFFFFFFFFFFFFFFFFFFFFFFFFFFFFFFFFFFFFFFFFFFFFFFFFFFFFF DUP3 SUB PUSH2 0x2511 JUMPI PUSH2 0x2510 PUSH2 0x215F JUMP JUMPDEST JUMPDEST PUSH1 0x1 DUP3 ADD SWAP1 POP SWAP2 SWAP1 POP JUMP INVALID LOG2 PUSH5 0x6970667358 0x22 SLT KECCAK256 DUP13 0xBE ISZERO PUSH11 0x31ED60CF3F6438ABD3D62F 0xF SWAP10 0xDA PUSH25 0xDAC8D1ABC3388A77CAB6C944E964736F6C6343000813003300 "},"methodIdentifiers":{"ARCHER_PRICE()":"3dde60c2","CAVALRY_PRICE()":"6011515c","LUCKY_BOX_PRICE()":"e0f83f21","battle(address)":"71c95281","batyrStats(uint256)":"57c86704","createKhanate(string)":"0c1cdb6d","getKhanateStats(address)":"3f430695","hasBatyr(address,uint256)":"232e096d","khanates(address)":"6b4faeca","owner()":"8da5cb5b","purchaseLuckyBox()":"3a0de743","purchaseTroops(uint256,uint256)":"dfad6257","renounceOwnership()":"715018a6","transferOwnership(address)":"f2fde38b"}}}}}