{
  "_format": "hh-sol-artifact-1",
  "contractName": "KazakhKhanate",
  "sourceName": "contracts/KazakhKhanate.sol",
  "abi": [
    {
      "inputs": [],
      "stateMutability": "nonpayable",
      "type": "constructor"
    },
    {
      "anonymous": false,
      "inputs": [
        {
          "indexed": true,
          "internalType": "address",
          "name": "attacker",
          "type": "address"
        },
        {
          "indexed": true,
          "internalType": "address",
          "name": "defender",
          "type": "address"
        },
        {
          "indexed": false,
          "internalType": "bool",
          "name": "victory",
          "type": "bool"
        },
        {
          "indexed": false,
          "internalType": "uint256",
          "name": "powerUsed",
          "type": "uint256"
        }
      ],
      "name": "BattleResult",
      "type": "event"
    },
    {
      "anonymous": false,
      "inputs": [
        {
          "indexed": true,
          "internalType": "address",
          "name": "owner",
          "type": "address"
        },
        {
          "indexed": false,
          "internalType": "uint256",
          "name": "batyrId",
          "type": "uint256"
        },
        {
          "indexed": false,
          "internalType": "string",
          "name": "name",
          "type": "string"
        }
      ],
      "name": "BatyrAcquired",
      "type": "event"
    },
    {
      "anonymous": false,
      "inputs": [
        {
          "indexed": true,
          "internalType": "address",
          "name": "owner",
          "type": "address"
        },
        {
          "indexed": false,
          "internalType": "string",
          "name": "name",
          "type": "string"
        }
      ],
      "name": "KhanateCreated",
      "type": "event"
    },
    {
      "anonymous": false,
      "inputs": [
        {
          "indexed": true,
          "internalType": "address",
          "name": "previousOwner",
          "type": "address"
        },
        {
          "indexed": true,
          "internalType": "address",
          "name": "newOwner",
          "type": "address"
        }
      ],
      "name": "OwnershipTransferred",
      "type": "event"
    },
    {
      "anonymous": false,
      "inputs": [
        {
          "indexed": true,
          "internalType": "address",
          "name": "owner",
          "type": "address"
        },
        {
          "indexed": false,
          "internalType": "uint256",
          "name": "archers",
          "type": "uint256"
        },
        {
          "indexed": false,
          "internalType": "uint256",
          "name": "cavalry",
          "type": "uint256"
        }
      ],
      "name": "TroopsPurchased",
      "type": "event"
    },
    {
      "inputs": [],
      "name": "ARCHER_PRICE",
      "outputs": [
        {
          "internalType": "uint256",
          "name": "",
          "type": "uint256"
        }
      ],
      "stateMutability": "view",
      "type": "function"
    },
    {
      "inputs": [],
      "name": "CAVALRY_PRICE",
      "outputs": [
        {
          "internalType": "uint256",
          "name": "",
          "type": "uint256"
        }
      ],
      "stateMutability": "view",
      "type": "function"
    },
    {
      "inputs": [],
      "name": "LUCKY_BOX_PRICE",
      "outputs": [
        {
          "internalType": "uint256",
          "name": "",
          "type": "uint256"
        }
      ],
      "stateMutability": "view",
      "type": "function"
    },
    {
      "inputs": [
        {
          "internalType": "address",
          "name": "_opponent",
          "type": "address"
        }
      ],
      "name": "battle",
      "outputs": [],
      "stateMutability": "nonpayable",
      "type": "function"
    },
    {
      "inputs": [
        {
          "internalType": "uint256",
          "name": "",
          "type": "uint256"
        }
      ],
      "name": "batyrStats",
      "outputs": [
        {
          "internalType": "string",
          "name": "name",
          "type": "string"
        },
        {
          "internalType": "uint256",
          "name": "power",
          "type": "uint256"
        },
        {
          "internalType": "string",
          "name": "ability",
          "type": "string"
        },
        {
          "internalType": "string",
          "name": "description",
          "type": "string"
        },
        {
          "internalType": "bool",
          "name": "canBattle",
          "type": "bool"
        },
        {
          "internalType": "bool",
          "name": "defenseBonus",
          "type": "bool"
        },
        {
          "internalType": "uint256",
          "name": "archerBonus",
          "type": "uint256"
        },
        {
          "internalType": "uint256",
          "name": "cavalryBonus",
          "type": "uint256"
        }
      ],
      "stateMutability": "view",
      "type": "function"
    },
    {
      "inputs": [
        {
          "internalType": "string",
          "name": "_name",
          "type": "string"
        }
      ],
      "name": "createKhanate",
      "outputs": [],
      "stateMutability": "nonpayable",
      "type": "function"
    },
    {
      "inputs": [
        {
          "internalType": "uint256",
          "name": "_batyrId",
          "type": "uint256"
        }
      ],
      "name": "getBatyrStats",
      "outputs": [
        {
          "internalType": "string",
          "name": "name",
          "type": "string"
        },
        {
          "internalType": "uint256",
          "name": "power",
          "type": "uint256"
        },
        {
          "internalType": "string",
          "name": "ability",
          "type": "string"
        },
        {
          "internalType": "string",
          "name": "description",
          "type": "string"
        },
        {
          "internalType": "bool",
          "name": "canBattle",
          "type": "bool"
        },
        {
          "internalType": "bool",
          "name": "defenseBonus",
          "type": "bool"
        },
        {
          "internalType": "uint256",
          "name": "archerBonus",
          "type": "uint256"
        },
        {
          "internalType": "uint256",
          "name": "cavalryBonus",
          "type": "uint256"
        }
      ],
      "stateMutability": "view",
      "type": "function"
    },
    {
      "inputs": [
        {
          "internalType": "address",
          "name": "_player",
          "type": "address"
        }
      ],
      "name": "getKhanateStats",
      "outputs": [
        {
          "internalType": "string",
          "name": "name",
          "type": "string"
        },
        {
          "internalType": "uint256",
          "name": "level",
          "type": "uint256"
        },
        {
          "internalType": "uint256",
          "name": "archers",
          "type": "uint256"
        },
        {
          "internalType": "uint256",
          "name": "cavalry",
          "type": "uint256"
        }
      ],
      "stateMutability": "view",
      "type": "function"
    },
    {
      "inputs": [
        {
          "internalType": "address",
          "name": "_player",
          "type": "address"
        },
        {
          "internalType": "uint256",
          "name": "_batyrId",
          "type": "uint256"
        }
      ],
      "name": "hasBatyr",
      "outputs": [
        {
          "internalType": "bool",
          "name": "",
          "type": "bool"
        }
      ],
      "stateMutability": "view",
      "type": "function"
    },
    {
      "inputs": [
        {
          "internalType": "address",
          "name": "",
          "type": "address"
        }
      ],
      "name": "khanates",
      "outputs": [
        {
          "internalType": "string",
          "name": "name",
          "type": "string"
        },
        {
          "internalType": "uint256",
          "name": "level",
          "type": "uint256"
        },
        {
          "internalType": "uint256",
          "name": "archers",
          "type": "uint256"
        },
        {
          "internalType": "uint256",
          "name": "cavalry",
          "type": "uint256"
        },
        {
          "internalType": "bool",
          "name": "isInitialized",
          "type": "bool"
        }
      ],
      "stateMutability": "view",
      "type": "function"
    },
    {
      "inputs": [],
      "name": "owner",
      "outputs": [
        {
          "internalType": "address",
          "name": "",
          "type": "address"
        }
      ],
      "stateMutability": "view",
      "type": "function"
    },
    {
      "inputs": [],
      "name": "purchaseLuckyBox",
      "outputs": [],
      "stateMutability": "payable",
      "type": "function"
    },
    {
      "inputs": [
        {
          "internalType": "uint256",
          "name": "_archers",
          "type": "uint256"
        },
        {
          "internalType": "uint256",
          "name": "_cavalry",
          "type": "uint256"
        }
      ],
      "name": "purchaseTroops",
      "outputs": [],
      "stateMutability": "payable",
      "type": "function"
    },
    {
      "inputs": [],
      "name": "renounceOwnership",
      "outputs": [],
      "stateMutability": "nonpayable",
      "type": "function"
    },
    {
      "inputs": [
        {
          "internalType": "address",
          "name": "newOwner",
          "type": "address"
        }
      ],
      "name": "transferOwnership",
      "outputs": [],
      "stateMutability": "nonpayable",
      "type": "function"
    }
  ],
  "bytecode": "0x60806040523480156200001157600080fd5b506200003262000026620007ce60201b60201c565b620007d660201b60201c565b600180819055506040518061010001604052806040518060400160405280600e81526020017f4b6162616e6261792042617479720000000000000000000000000000000000008152508152602001601e81526020016040518060400160405280601181526020017f436176616c727920436f6d6d616e646572000000000000000000000000000000815250815260200160405180608001604052806059815260200162003a9e605991398152602001600115158152602001600015158152602001606481526020016096815250600360006001815260200190815260200160002060008201518160000190816200012a919062000b14565b506020820151816001015560408201518160020190816200014c919062000b14565b50606082015181600301908162000164919062000b14565b5060808201518160040160006101000a81548160ff02191690831515021790555060a08201518160040160016101000a81548160ff02191690831515021790555060c0820151816005015560e082015181600601559050506040518061010001604052806040518060400160405280600f81526020017f4b6f62796c616e647920426174797200000000000000000000000000000000008152508152602001601981526020016040518060400160405280600f81526020017f4d617374657220446566656e646572000000000000000000000000000000000081525081526020016040518060a00160405280606c815260200162003a32606c9139815260200160001515815260200160011515815260200160648152602001606481525060036000600281526020019081526020016000206000820151816000019081620002ad919062000b14565b50602082015181600101556040820151816002019081620002cf919062000b14565b506060820151816003019081620002e7919062000b14565b5060808201518160040160006101000a81548160ff02191690831515021790555060a08201518160040160016101000a81548160ff02191690831515021790555060c0820151816005015560e082015181600601559050506040518061010001604052806040518060400160405280600b81526020017f4162796c6169204b68616e0000000000000000000000000000000000000000008152508152602001601481526020016040518060400160405280601081526020017f537472617465676963204c6561646572000000000000000000000000000000008152508152602001604051806080016040528060448152602001620039a56044913981526020016001151581526020016001151581526020016078815260200160788152506003600060038152602001908152602001600020600082015181600001908162000430919062000b14565b5060208201518160010155604082015181600201908162000452919062000b14565b5060608201518160030190816200046a919062000b14565b5060808201518160040160006101000a81548160ff02191690831515021790555060a08201518160040160016101000a81548160ff02191690831515021790555060c0820151816005015560e082015181600601559050506040518061010001604052806040518060400160405280600e81526020017f5261696d67617a792042617479720000000000000000000000000000000000008152508152602001601681526020016040518060400160405280601081526020017f41726368657220436f6d6d616e64657200000000000000000000000000000000815250815260200160405180606001604052806040815260200162003af760409139815260200160011515815260200160001515815260200160968152602001606481525060036000600481526020019081526020016000206000820151816000019081620005b3919062000b14565b50602082015181600101556040820151816002019081620005d5919062000b14565b506060820151816003019081620005ed919062000b14565b5060808201518160040160006101000a81548160ff02191690831515021790555060a08201518160040160016101000a81548160ff02191690831515021790555060c0820151816005015560e082015181600601559050506040518061010001604052806040518060400160405280600a81526020017f5372796d204461746f76000000000000000000000000000000000000000000008152508152602001601581526020016040518060400160405280600f81526020017f546163746963616c2047656e69757300000000000000000000000000000000008152508152602001604051806080016040528060498152602001620039e96049913981526020016001151581526020016001151581526020016082815260200160828152506003600060058152602001908152602001600020600082015181600001908162000736919062000b14565b5060208201518160010155604082015181600201908162000758919062000b14565b50606082015181600301908162000770919062000b14565b5060808201518160040160006101000a81548160ff02191690831515021790555060a08201518160040160016101000a81548160ff02191690831515021790555060c0820151816005015560e0820151816006015590505062000bfb565b600033905090565b60008060009054906101000a900473ffffffffffffffffffffffffffffffffffffffff169050816000806101000a81548173ffffffffffffffffffffffffffffffffffffffff021916908373ffffffffffffffffffffffffffffffffffffffff1602179055508173ffffffffffffffffffffffffffffffffffffffff168173ffffffffffffffffffffffffffffffffffffffff167f8be0079c531659141344cd1fd0a4f28419497f9722a3daafe3b4186f6b6457e060405160405180910390a35050565b600081519050919050565b7f4e487b7100000000000000000000000000000000000000000000000000000000600052604160045260246000fd5b7f4e487b7100000000000000000000000000000000000000000000000000000000600052602260045260246000fd5b600060028204905060018216806200091c57607f821691505b602082108103620009325762000931620008d4565b5b50919050565b60008190508160005260206000209050919050565b60006020601f8301049050919050565b600082821b905092915050565b6000600883026200099c7fffffffffffffffffffffffffffffffffffffffffffffffffffffffffffffffff826200095d565b620009a886836200095d565b95508019841693508086168417925050509392505050565b6000819050919050565b6000819050919050565b6000620009f5620009ef620009e984620009c0565b620009ca565b620009c0565b9050919050565b6000819050919050565b62000a1183620009d4565b62000a2962000a2082620009fc565b8484546200096a565b825550505050565b600090565b62000a4062000a31565b62000a4d81848462000a06565b505050565b5b8181101562000a755762000a6960008262000a36565b60018101905062000a53565b5050565b601f82111562000ac45762000a8e8162000938565b62000a99846200094d565b8101602085101562000aa9578190505b62000ac162000ab8856200094d565b83018262000a52565b50505b505050565b600082821c905092915050565b600062000ae96000198460080262000ac9565b1980831691505092915050565b600062000b04838362000ad6565b9150826002028217905092915050565b62000b1f826200089a565b67ffffffffffffffff81111562000b3b5762000b3a620008a5565b5b62000b47825462000903565b62000b5482828562000a79565b600060209050601f83116001811462000b8c576000841562000b77578287015190505b62000b83858262000af6565b86555062000bf3565b601f19841662000b9c8662000938565b60005b8281101562000bc65784890151825560018201915060208501945060208101905062000b9f565b8683101562000be6578489015162000be2601f89168262000ad6565b8355505b6001600288020188555050505b505050505050565b612d9a8062000c0b6000396000f3fe6080604052600436106100e85760003560e01c80636b4faeca1161008a578063c1c063eb11610059578063c1c063eb146102e3578063dfad625714610327578063e0f83f2114610343578063f2fde38b1461036e576100e8565b80636b4faeca14610237578063715018a61461027857806371c952811461028f5780638da5cb5b146102b8576100e8565b80633dde60c2116100c65780633dde60c21461015d5780633f4306951461018857806357c86704146101c85780636011515c1461020c576100e8565b80630c1cdb6d146100ed578063232e096d146101165780633a0de74314610153575b600080fd5b3480156100f957600080fd5b50610114600480360381019061010f9190611f1b565b610397565b005b34801561012257600080fd5b5061013d60048036038101906101389190611ff8565b610509565b60405161014a9190612053565b60405180910390f35b61015b6105c3565b005b34801561016957600080fd5b50610172610903565b60405161017f919061207d565b60405180910390f35b34801561019457600080fd5b506101af60048036038101906101aa9190612098565b61090e565b6040516101bf9493929190612144565b60405180910390f35b3480156101d457600080fd5b506101ef60048036038101906101ea9190612190565b610a96565b6040516102039897969594939291906121bd565b60405180910390f35b34801561021857600080fd5b50610221610c90565b60405161022e919061207d565b60405180910390f35b34801561024357600080fd5b5061025e60048036038101906102599190612098565b610c9b565b60405161026f959493929190612250565b60405180910390f35b34801561028457600080fd5b5061028d610d66565b005b34801561029b57600080fd5b506102b660048036038101906102b19190612098565b610d7a565b005b3480156102c457600080fd5b506102cd61124b565b6040516102da91906122b9565b60405180910390f35b3480156102ef57600080fd5b5061030a60048036038101906103059190612190565b611274565b60405161031e9897969594939291906121bd565b60405180910390f35b610341600480360381019061033c91906122d4565b6114f2565b005b34801561034f57600080fd5b5061035861176a565b604051610365919061207d565b60405180910390f35b34801561037a57600080fd5b5061039560048036038101906103909190612098565b611776565b005b600260003373ffffffffffffffffffffffffffffffffffffffff1673ffffffffffffffffffffffffffffffffffffffff16815260200190815260200160002060050160009054906101000a900460ff1615610427576040517f08c379a000000000000000000000000000000000000000000000000000000000815260040161041e90612360565b60405180910390fd5b6000600260003373ffffffffffffffffffffffffffffffffffffffff1673ffffffffffffffffffffffffffffffffffffffff16815260200190815260200160002090508181600001908161047b919061258c565b5060018160010181905550600a81600201819055506005816003018190555060018160050160006101000a81548160ff0219169083151502179055503373ffffffffffffffffffffffffffffffffffffffff167f67409ced604950b5508f075f60153e7d166866a8251a44b569a7a07d7f27c3eb836040516104fd919061265e565b60405180910390a25050565b6000808211801561051b575060058211155b61055a576040517f08c379a0000000000000000000000000000000000000000000000000000000008152600401610551906126cc565b60405180910390fd5b600260008473ffffffffffffffffffffffffffffffffffffffff1673ffffffffffffffffffffffffffffffffffffffff168152602001908152602001600020600401600083815260200190815260200160002060009054906101000a900460ff16905092915050565b6105cb6117f9565b67016345785d8a0000341015610616576040517f08c379a000000000000000000000000000000000000000000000000000000000815260040161060d90612738565b60405180910390fd5b600260003373ffffffffffffffffffffffffffffffffffffffff1673ffffffffffffffffffffffffffffffffffffffff16815260200190815260200160002060050160009054906101000a900460ff166106a5576040517f08c379a000000000000000000000000000000000000000000000000000000000815260040161069c906127a4565b60405180910390fd5b60004442336040516020016106bc9392919061282d565b6040516020818303038152906040528051906020012060001c905060006103e8826106e79190612899565b9050600080600190505b6005811161077b57600260003373ffffffffffffffffffffffffffffffffffffffff1673ffffffffffffffffffffffffffffffffffffffff168152602001908152602001600020600401600082815260200190815260200160002060009054906101000a900460ff1615610768576001915061077b565b8080610773906128f9565b9150506106f1565b5060008161078a57606461078d565b60015b60ff1690508083101561088a57600060016005866107ab9190612899565b6107b59190612941565b90506001600260003373ffffffffffffffffffffffffffffffffffffffff1673ffffffffffffffffffffffffffffffffffffffff168152602001908152602001600020600401600083815260200190815260200160002060006101000a81548160ff0219169083151502179055503373ffffffffffffffffffffffffffffffffffffffff167fc78cd494272180e0c224c92ca5bedd58597e9f5494e17a757b031988d4b6372c82600360008581526020019081526020016000206000016040516108809291906129f9565b60405180910390a2505b67016345785d8a00003411156108f5573373ffffffffffffffffffffffffffffffffffffffff166108fc67016345785d8a0000346108c89190612a29565b9081150290604051600060405180830381858888f193505050501580156108f3573d6000803e3d6000fd5b505b50505050610901611848565b565b662386f26fc1000081565b60606000806000600260008673ffffffffffffffffffffffffffffffffffffffff1673ffffffffffffffffffffffffffffffffffffffff16815260200190815260200160002060050160009054906101000a900460ff166109a4576040517f08c379a000000000000000000000000000000000000000000000000000000000815260040161099b906127a4565b60405180910390fd5b6000600260008773ffffffffffffffffffffffffffffffffffffffff1673ffffffffffffffffffffffffffffffffffffffff168152602001908152602001600020905080600001816001015482600201548360030154838054610a06906123af565b80601f0160208091040260200160405190810160405280929190818152602001828054610a32906123af565b8015610a7f5780601f10610a5457610100808354040283529160200191610a7f565b820191906000526020600020905b815481529060010190602001808311610a6257829003601f168201915b505050505093509450945094509450509193509193565b6003602052806000526040600020600091509050806000018054610ab9906123af565b80601f0160208091040260200160405190810160405280929190818152602001828054610ae5906123af565b8015610b325780601f10610b0757610100808354040283529160200191610b32565b820191906000526020600020905b815481529060010190602001808311610b1557829003601f168201915b505050505090806001015490806002018054610b4d906123af565b80601f0160208091040260200160405190810160405280929190818152602001828054610b79906123af565b8015610bc65780601f10610b9b57610100808354040283529160200191610bc6565b820191906000526020600020905b815481529060010190602001808311610ba957829003601f168201915b505050505090806003018054610bdb906123af565b80601f0160208091040260200160405190810160405280929190818152602001828054610c07906123af565b8015610c545780601f10610c2957610100808354040283529160200191610c54565b820191906000526020600020905b815481529060010190602001808311610c3757829003601f168201915b5050505050908060040160009054906101000a900460ff16908060040160019054906101000a900460ff16908060050154908060060154905088565b66470de4df82000081565b6002602052806000526040600020600091509050806000018054610cbe906123af565b80601f0160208091040260200160405190810160405280929190818152602001828054610cea906123af565b8015610d375780601f10610d0c57610100808354040283529160200191610d37565b820191906000526020600020905b815481529060010190602001808311610d1a57829003601f168201915b5050505050908060010154908060020154908060030154908060050160009054906101000a900460ff16905085565b610d6e611851565b610d7860006118cf565b565b600260003373ffffffffffffffffffffffffffffffffffffffff1673ffffffffffffffffffffffffffffffffffffffff16815260200190815260200160002060050160009054906101000a900460ff168015610e225750600260008273ffffffffffffffffffffffffffffffffffffffff1673ffffffffffffffffffffffffffffffffffffffff16815260200190815260200160002060050160009054906101000a900460ff165b610e61576040517f08c379a0000000000000000000000000000000000000000000000000000000008152600401610e5890612aa9565b60405180910390fd5b3373ffffffffffffffffffffffffffffffffffffffff168173ffffffffffffffffffffffffffffffffffffffff1603610ecf576040517f08c379a0000000000000000000000000000000000000000000000000000000008152600401610ec690612b15565b60405180910390fd5b6000610edc336000611993565b90506000610eeb836001611993565b905060008183119050801561109b576001600260003373ffffffffffffffffffffffffffffffffffffffff1673ffffffffffffffffffffffffffffffffffffffff1681526020019081526020016000206001016000828254610f4d9190612941565b92505081905550600a6008600260003373ffffffffffffffffffffffffffffffffffffffff1673ffffffffffffffffffffffffffffffffffffffff16815260200190815260200160002060020154610fa59190612b35565b610faf9190612b77565b600260003373ffffffffffffffffffffffffffffffffffffffff1673ffffffffffffffffffffffffffffffffffffffff16815260200190815260200160002060020181905550600a6008600260003373ffffffffffffffffffffffffffffffffffffffff1673ffffffffffffffffffffffffffffffffffffffff168152602001908152602001600020600301546110469190612b35565b6110509190612b77565b600260003373ffffffffffffffffffffffffffffffffffffffff1673ffffffffffffffffffffffffffffffffffffffff168152602001908152602001600020600301819055506111de565b600a6006600260003373ffffffffffffffffffffffffffffffffffffffff1673ffffffffffffffffffffffffffffffffffffffff168152602001908152602001600020600201546110ec9190612b35565b6110f69190612b77565b600260003373ffffffffffffffffffffffffffffffffffffffff1673ffffffffffffffffffffffffffffffffffffffff16815260200190815260200160002060020181905550600a6006600260003373ffffffffffffffffffffffffffffffffffffffff1673ffffffffffffffffffffffffffffffffffffffff1681526020019081526020016000206003015461118d9190612b35565b6111979190612b77565b600260003373ffffffffffffffffffffffffffffffffffffffff1673ffffffffffffffffffffffffffffffffffffffff168152602001908152602001600020600301819055505b8373ffffffffffffffffffffffffffffffffffffffff163373ffffffffffffffffffffffffffffffffffffffff167fe140066861257b53c07d803d0138b6eb631e7e5ac99e7cd9e7b4eca01e32fcf4838660405161123d929190612ba8565b60405180910390a350505050565b60008060009054906101000a900473ffffffffffffffffffffffffffffffffffffffff16905090565b606060006060806000806000806000600360008b8152602001908152602001600020604051806101000160405290816000820180546112b2906123af565b80601f01602080910402602001604051908101604052809291908181526020018280546112de906123af565b801561132b5780601f106113005761010080835404028352916020019161132b565b820191906000526020600020905b81548152906001019060200180831161130e57829003601f168201915b505050505081526020016001820154815260200160028201805461134e906123af565b80601f016020809104026020016040519081016040528092919081815260200182805461137a906123af565b80156113c75780601f1061139c576101008083540402835291602001916113c7565b820191906000526020600020905b8154815290600101906020018083116113aa57829003601f168201915b505050505081526020016003820180546113e0906123af565b80601f016020809104026020016040519081016040528092919081815260200182805461140c906123af565b80156114595780601f1061142e57610100808354040283529160200191611459565b820191906000526020600020905b81548152906001019060200180831161143c57829003601f168201915b505050505081526020016004820160009054906101000a900460ff161515151581526020016004820160019054906101000a900460ff16151515158152602001600582015481526020016006820154815250509050806000015181602001518260400151836060015184608001518560a001518660c001518760e001519850985098509850985098509850985050919395975091939597565b6114fa6117f9565b600260003373ffffffffffffffffffffffffffffffffffffffff1673ffffffffffffffffffffffffffffffffffffffff16815260200190815260200160002060050160009054906101000a900460ff16611589576040517f08c379a0000000000000000000000000000000000000000000000000000000008152600401611580906127a4565b60405180910390fd5b600066470de4df8200008261159e9190612b35565b662386f26fc10000846115b19190612b35565b6115bb9190612941565b905080341015611600576040517f08c379a00000000000000000000000000000000000000000000000000000000081526004016115f790612738565b60405180910390fd5b82600260003373ffffffffffffffffffffffffffffffffffffffff1673ffffffffffffffffffffffffffffffffffffffff16815260200190815260200160002060020160008282546116529190612941565b9250508190555081600260003373ffffffffffffffffffffffffffffffffffffffff1673ffffffffffffffffffffffffffffffffffffffff16815260200190815260200160002060030160008282546116ab9190612941565b925050819055503373ffffffffffffffffffffffffffffffffffffffff167faf29816cd11119a4c8c0eff4213407d9eee90e96234648827025b3dcda86af3984846040516116fa929190612bd1565b60405180910390a28034111561175d573373ffffffffffffffffffffffffffffffffffffffff166108fc82346117309190612a29565b9081150290604051600060405180830381858888f1935050505015801561175b573d6000803e3d6000fd5b505b50611766611848565b5050565b67016345785d8a000081565b61177e611851565b600073ffffffffffffffffffffffffffffffffffffffff168173ffffffffffffffffffffffffffffffffffffffff16036117ed576040517f08c379a00000000000000000000000000000000000000000000000000000000081526004016117e490612c6c565b60405180910390fd5b6117f6816118cf565b50565b60026001540361183e576040517f08c379a000000000000000000000000000000000000000000000000000000000815260040161183590612cd8565b60405180910390fd5b6002600181905550565b60018081905550565b611859611db9565b73ffffffffffffffffffffffffffffffffffffffff1661187761124b565b73ffffffffffffffffffffffffffffffffffffffff16146118cd576040517f08c379a00000000000000000000000000000000000000000000000000000000081526004016118c490612d44565b60405180910390fd5b565b60008060009054906101000a900473ffffffffffffffffffffffffffffffffffffffff169050816000806101000a81548173ffffffffffffffffffffffffffffffffffffffff021916908373ffffffffffffffffffffffffffffffffffffffff1602179055508173ffffffffffffffffffffffffffffffffffffffff168173ffffffffffffffffffffffffffffffffffffffff167f8be0079c531659141344cd1fd0a4f28419497f9722a3daafe3b4186f6b6457e060405160405180910390a35050565b60008060649050600060649050600080600190505b60058111611ccd57600260008873ffffffffffffffffffffffffffffffffffffffff1673ffffffffffffffffffffffffffffffffffffffff168152602001908152602001600020600401600082815260200190815260200160002060009054906101000a900460ff1615611cba5760006003600083815260200190815260200160002060405180610100016040529081600082018054611a47906123af565b80601f0160208091040260200160405190810160405280929190818152602001828054611a73906123af565b8015611ac05780601f10611a9557610100808354040283529160200191611ac0565b820191906000526020600020905b815481529060010190602001808311611aa357829003601f168201915b5050505050815260200160018201548152602001600282018054611ae3906123af565b80601f0160208091040260200160405190810160405280929190818152602001828054611b0f906123af565b8015611b5c5780601f10611b3157610100808354040283529160200191611b5c565b820191906000526020600020905b815481529060010190602001808311611b3f57829003601f168201915b50505050508152602001600382018054611b75906123af565b80601f0160208091040260200160405190810160405280929190818152602001828054611ba1906123af565b8015611bee5780601f10611bc357610100808354040283529160200191611bee565b820191906000526020600020905b815481529060010190602001808311611bd157829003601f168201915b505050505081526020016004820160009054906101000a900460ff161515151581526020016004820160019054906101000a900460ff1615151515815260200160058201548152602001600682015481525050905086158015611c52575080608001515b15611c6a57806020015183611c679190612941565b92505b868015611c7857508060a001515b15611c9057806020015183611c8d9190612941565b92505b848160c001511115611ca4578060c0015194505b838160e001511115611cb8578060e0015193505b505b8080611cc5906128f9565b9150506119a8565b506000606484600260008a73ffffffffffffffffffffffffffffffffffffffff1673ffffffffffffffffffffffffffffffffffffffff16815260200190815260200160002060020154611d209190612b35565b611d2a9190612b77565b9050600060648460028060008c73ffffffffffffffffffffffffffffffffffffffff1673ffffffffffffffffffffffffffffffffffffffff16815260200190815260200160002060030154611d7f9190612b35565b611d899190612b35565b611d939190612b77565b9050828183611da29190612941565b611dac9190612941565b9550505050505092915050565b600033905090565b6000604051905090565b600080fd5b600080fd5b600080fd5b600080fd5b6000601f19601f8301169050919050565b7f4e487b7100000000000000000000000000000000000000000000000000000000600052604160045260246000fd5b611e2882611ddf565b810181811067ffffffffffffffff82111715611e4757611e46611df0565b5b80604052505050565b6000611e5a611dc1565b9050611e668282611e1f565b919050565b600067ffffffffffffffff821115611e8657611e85611df0565b5b611e8f82611ddf565b9050602081019050919050565b82818337600083830152505050565b6000611ebe611eb984611e6b565b611e50565b905082815260208101848484011115611eda57611ed9611dda565b5b611ee5848285611e9c565b509392505050565b600082601f830112611f0257611f01611dd5565b5b8135611f12848260208601611eab565b91505092915050565b600060208284031215611f3157611f30611dcb565b5b600082013567ffffffffffffffff811115611f4f57611f4e611dd0565b5b611f5b84828501611eed565b91505092915050565b600073ffffffffffffffffffffffffffffffffffffffff82169050919050565b6000611f8f82611f64565b9050919050565b611f9f81611f84565b8114611faa57600080fd5b50565b600081359050611fbc81611f96565b92915050565b6000819050919050565b611fd581611fc2565b8114611fe057600080fd5b50565b600081359050611ff281611fcc565b92915050565b6000806040838503121561200f5761200e611dcb565b5b600061201d85828601611fad565b925050602061202e85828601611fe3565b9150509250929050565b60008115159050919050565b61204d81612038565b82525050565b60006020820190506120686000830184612044565b92915050565b61207781611fc2565b82525050565b6000602082019050612092600083018461206e565b92915050565b6000602082840312156120ae576120ad611dcb565b5b60006120bc84828501611fad565b91505092915050565b600081519050919050565b600082825260208201905092915050565b60005b838110156120ff5780820151818401526020810190506120e4565b60008484015250505050565b6000612116826120c5565b61212081856120d0565b93506121308185602086016120e1565b61213981611ddf565b840191505092915050565b6000608082019050818103600083015261215e818761210b565b905061216d602083018661206e565b61217a604083018561206e565b612187606083018461206e565b95945050505050565b6000602082840312156121a6576121a5611dcb565b5b60006121b484828501611fe3565b91505092915050565b60006101008201905081810360008301526121d8818b61210b565b90506121e7602083018a61206e565b81810360408301526121f9818961210b565b9050818103606083015261220d818861210b565b905061221c6080830187612044565b61222960a0830186612044565b61223660c083018561206e565b61224360e083018461206e565b9998505050505050505050565b600060a082019050818103600083015261226a818861210b565b9050612279602083018761206e565b612286604083018661206e565b612293606083018561206e565b6122a06080830184612044565b9695505050505050565b6122b381611f84565b82525050565b60006020820190506122ce60008301846122aa565b92915050565b600080604083850312156122eb576122ea611dcb565b5b60006122f985828601611fe3565b925050602061230a85828601611fe3565b9150509250929050565b7f4b68616e61746520616c72656164792065786973747300000000000000000000600082015250565b600061234a6016836120d0565b915061235582612314565b602082019050919050565b600060208201905081810360008301526123798161233d565b9050919050565b7f4e487b7100000000000000000000000000000000000000000000000000000000600052602260045260246000fd5b600060028204905060018216806123c757607f821691505b6020821081036123da576123d9612380565b5b50919050565b60008190508160005260206000209050919050565b60006020601f8301049050919050565b600082821b905092915050565b6000600883026124427fffffffffffffffffffffffffffffffffffffffffffffffffffffffffffffffff82612405565b61244c8683612405565b95508019841693508086168417925050509392505050565b6000819050919050565b600061248961248461247f84611fc2565b612464565b611fc2565b9050919050565b6000819050919050565b6124a38361246e565b6124b76124af82612490565b848454612412565b825550505050565b600090565b6124cc6124bf565b6124d781848461249a565b505050565b5b818110156124fb576124f06000826124c4565b6001810190506124dd565b5050565b601f82111561254057612511816123e0565b61251a846123f5565b81016020851015612529578190505b61253d612535856123f5565b8301826124dc565b50505b505050565b600082821c905092915050565b600061256360001984600802612545565b1980831691505092915050565b600061257c8383612552565b9150826002028217905092915050565b612595826120c5565b67ffffffffffffffff8111156125ae576125ad611df0565b5b6125b882546123af565b6125c38282856124ff565b600060209050601f8311600181146125f657600084156125e4578287015190505b6125ee8582612570565b865550612656565b601f198416612604866123e0565b60005b8281101561262c57848901518255600182019150602085019450602081019050612607565b868310156126495784890151612645601f891682612552565b8355505b6001600288020188555050505b505050505050565b60006020820190508181036000830152612678818461210b565b905092915050565b7f496e76616c696420426174797220494400000000000000000000000000000000600082015250565b60006126b66010836120d0565b91506126c182612680565b602082019050919050565b600060208201905081810360008301526126e5816126a9565b9050919050565b7f496e73756666696369656e74207061796d656e74000000000000000000000000600082015250565b60006127226014836120d0565b915061272d826126ec565b602082019050919050565b6000602082019050818103600083015261275181612715565b9050919050565b7f4b68616e617465206e6f7420696e697469616c697a6564000000000000000000600082015250565b600061278e6017836120d0565b915061279982612758565b602082019050919050565b600060208201905081810360008301526127bd81612781565b9050919050565b6000819050919050565b6127df6127da82611fc2565b6127c4565b82525050565b60008160601b9050919050565b60006127fd826127e5565b9050919050565b600061280f826127f2565b9050919050565b61282761282282611f84565b612804565b82525050565b600061283982866127ce565b60208201915061284982856127ce565b6020820191506128598284612816565b601482019150819050949350505050565b7f4e487b7100000000000000000000000000000000000000000000000000000000600052601260045260246000fd5b60006128a482611fc2565b91506128af83611fc2565b9250826128bf576128be61286a565b5b828206905092915050565b7f4e487b7100000000000000000000000000000000000000000000000000000000600052601160045260246000fd5b600061290482611fc2565b91507fffffffffffffffffffffffffffffffffffffffffffffffffffffffffffffffff8203612936576129356128ca565b5b600182019050919050565b600061294c82611fc2565b915061295783611fc2565b925082820190508082111561296f5761296e6128ca565b5b92915050565b60008154612982816123af565b61298c81866120d0565b945060018216600081146129a757600181146129bd576129f0565b60ff1983168652811515602002860193506129f0565b6129c6856123e0565b60005b838110156129e8578154818901526001820191506020810190506129c9565b808801955050505b50505092915050565b6000604082019050612a0e600083018561206e565b8181036020830152612a208184612975565b90509392505050565b6000612a3482611fc2565b9150612a3f83611fc2565b9250828203905081811115612a5757612a566128ca565b5b92915050565b7f496e76616c6964206b68616e6174657300000000000000000000000000000000600082015250565b6000612a936010836120d0565b9150612a9e82612a5d565b602082019050919050565b60006020820190508181036000830152612ac281612a86565b9050919050565b7f43616e6e6f7420626174746c6520796f757273656c6600000000000000000000600082015250565b6000612aff6016836120d0565b9150612b0a82612ac9565b602082019050919050565b60006020820190508181036000830152612b2e81612af2565b9050919050565b6000612b4082611fc2565b9150612b4b83611fc2565b9250828202612b5981611fc2565b91508282048414831517612b7057612b6f6128ca565b5b5092915050565b6000612b8282611fc2565b9150612b8d83611fc2565b925082612b9d57612b9c61286a565b5b828204905092915050565b6000604082019050612bbd6000830185612044565b612bca602083018461206e565b9392505050565b6000604082019050612be6600083018561206e565b612bf3602083018461206e565b9392505050565b7f4f776e61626c653a206e6577206f776e657220697320746865207a65726f206160008201527f6464726573730000000000000000000000000000000000000000000000000000602082015250565b6000612c566026836120d0565b9150612c6182612bfa565b604082019050919050565b60006020820190508181036000830152612c8581612c49565b9050919050565b7f5265656e7472616e637947756172643a207265656e7472616e742063616c6c00600082015250565b6000612cc2601f836120d0565b9150612ccd82612c8c565b602082019050919050565b60006020820190508181036000830152612cf181612cb5565b9050919050565b7f4f776e61626c653a2063616c6c6572206973206e6f7420746865206f776e6572600082015250565b6000612d2e6020836120d0565b9150612d3982612cf8565b602082019050919050565b60006020820190508181036000830152612d5d81612d21565b905091905056fea2646970667358221220478dc3f1f4a837dbe8effc9bfcb781b26f910610088e00ecc2b49195adf849a764736f6c6343000813003341206272696c6c69616e7420737472617465676973742077686f20656e68616e63657320616c6c2074726f6f707327206566666563746976656e6573732062792032302541206d6173746572206f6620636f6d62696e65642061726d7320746163746963732e2050726f76696465732062616c616e63656420626f6e7573657320746f20616c6c20756e69747341207374616c7761727420646566656e646572206f6620746865204b617a616b68206c616e64732e2050726f7669646573207374726f6e6720646566656e7369766520626f6e75736573206275742063616e6e6f7420706172746963697061746520696e2061747461636b7341206c6567656e646172792077617272696f72206b6e6f776e20666f722068697320636176616c727920746163746963732e20496e6372656173657320636176616c7279206566666563746976656e657373206279203530254d6173746572206f66206172636865727920746163746963732e20496e6372656173657320617263686572206566666563746976656e65737320627920353025",
  "linkReferences": {},
  "deployedLinkReferences": {}
}