{
  "_format": "hh-sol-artifact-1",
  "contractName": "KazakhKhanate",
  "sourceName": "contracts/KazakhKhanate.sol",
  "abi": [
    {
      "inputs": [],
      "stateMutability": "nonpayable",
      "type": "constructor"
    },
    {
      "anonymous": false,
      "inputs": [
        {
          "indexed": true,
          "internalType": "address",
          "name": "player",
          "type": "address"
        },
        {
          "indexed": false,
          "internalType": "string",
          "name": "achievement",
          "type": "string"
        }
      ],
      "name": "AchievementUnlocked",
      "type": "event"
    },
    {
      "anonymous": false,
      "inputs": [
        {
          "indexed": false,
          "internalType": "uint256",
          "name": "battleId",
          "type": "uint256"
        },
        {
          "indexed": false,
          "internalType": "address",
          "name": "attacker",
          "type": "address"
        },
        {
          "indexed": false,
          "internalType": "address",
          "name": "defender",
          "type": "address"
        },
        {
          "indexed": false,
          "internalType": "uint256",
          "name": "travelTime",
          "type": "uint256"
        }
      ],
      "name": "BattleInitiated",
      "type": "event"
    },
    {
      "anonymous": false,
      "inputs": [
        {
          "indexed": true,
          "internalType": "address",
          "name": "winner",
          "type": "address"
        },
        {
          "indexed": true,
          "internalType": "address",
          "name": "loser",
          "type": "address"
        },
        {
          "indexed": false,
          "internalType": "uint256",
          "name": "experienceGained",
          "type": "uint256"
        }
      ],
      "name": "BattleResult",
      "type": "event"
    },
    {
      "anonymous": false,
      "inputs": [
        {
          "indexed": false,
          "internalType": "uint256",
          "name": "battleId",
          "type": "uint256"
        },
        {
          "indexed": false,
          "internalType": "address",
          "name": "attacker",
          "type": "address"
        }
      ],
      "name": "BattleSpedUp",
      "type": "event"
    },
    {
      "anonymous": false,
      "inputs": [
        {
          "indexed": true,
          "internalType": "address",
          "name": "owner",
          "type": "address"
        },
        {
          "indexed": false,
          "internalType": "uint256",
          "name": "batyrId",
          "type": "uint256"
        },
        {
          "indexed": false,
          "internalType": "string",
          "name": "name",
          "type": "string"
        }
      ],
      "name": "BatyrAcquired",
      "type": "event"
    },
    {
      "anonymous": false,
      "inputs": [
        {
          "indexed": true,
          "internalType": "address",
          "name": "owner",
          "type": "address"
        },
        {
          "indexed": false,
          "internalType": "string",
          "name": "name",
          "type": "string"
        }
      ],
      "name": "KhanateCreated",
      "type": "event"
    },
    {
      "anonymous": false,
      "inputs": [
        {
          "indexed": true,
          "internalType": "address",
          "name": "owner",
          "type": "address"
        },
        {
          "indexed": false,
          "internalType": "uint256",
          "name": "archers",
          "type": "uint256"
        },
        {
          "indexed": false,
          "internalType": "uint256",
          "name": "cavalry",
          "type": "uint256"
        }
      ],
      "name": "TroopsPurchased",
      "type": "event"
    },
    {
      "inputs": [],
      "name": "ARCHER_PRICE",
      "outputs": [
        {
          "internalType": "uint256",
          "name": "",
          "type": "uint256"
        }
      ],
      "stateMutability": "view",
      "type": "function"
    },
    {
      "inputs": [],
      "name": "CAVALRY_PRICE",
      "outputs": [
        {
          "internalType": "uint256",
          "name": "",
          "type": "uint256"
        }
      ],
      "stateMutability": "view",
      "type": "function"
    },
    {
      "inputs": [],
      "name": "LUCKY_BOX_PRICE",
      "outputs": [
        {
          "internalType": "uint256",
          "name": "",
          "type": "uint256"
        }
      ],
      "stateMutability": "view",
      "type": "function"
    },
    {
      "inputs": [],
      "name": "SPEED_UP_PRICE",
      "outputs": [
        {
          "internalType": "uint256",
          "name": "",
          "type": "uint256"
        }
      ],
      "stateMutability": "view",
      "type": "function"
    },
    {
      "inputs": [
        {
          "internalType": "address",
          "name": "",
          "type": "address"
        },
        {
          "internalType": "string",
          "name": "",
          "type": "string"
        }
      ],
      "name": "achievements",
      "outputs": [
        {
          "internalType": "bool",
          "name": "",
          "type": "bool"
        }
      ],
      "stateMutability": "view",
      "type": "function"
    },
    {
      "inputs": [
        {
          "internalType": "uint256",
          "name": "",
          "type": "uint256"
        }
      ],
      "name": "activeBattles",
      "outputs": [
        {
          "internalType": "address",
          "name": "attacker",
          "type": "address"
        },
        {
          "internalType": "address",
          "name": "defender",
          "type": "address"
        },
        {
          "internalType": "uint256",
          "name": "startTime",
          "type": "uint256"
        },
        {
          "internalType": "bool",
          "name": "resolved",
          "type": "bool"
        },
        {
          "internalType": "uint256",
          "name": "travelTime",
          "type": "uint256"
        }
      ],
      "stateMutability": "view",
      "type": "function"
    },
    {
      "inputs": [
        {
          "internalType": "uint256",
          "name": "",
          "type": "uint256"
        }
      ],
      "name": "batyrs",
      "outputs": [
        {
          "internalType": "string",
          "name": "name",
          "type": "string"
        },
        {
          "internalType": "string",
          "name": "ability",
          "type": "string"
        },
        {
          "internalType": "string",
          "name": "description",
          "type": "string"
        },
        {
          "internalType": "uint256",
          "name": "power",
          "type": "uint256"
        },
        {
          "internalType": "uint256",
          "name": "archerBonus",
          "type": "uint256"
        },
        {
          "internalType": "uint256",
          "name": "cavalryBonus",
          "type": "uint256"
        },
        {
          "internalType": "bool",
          "name": "canBattle",
          "type": "bool"
        }
      ],
      "stateMutability": "view",
      "type": "function"
    },
    {
      "inputs": [
        {
          "internalType": "string",
          "name": "name",
          "type": "string"
        }
      ],
      "name": "createKhanate",
      "outputs": [],
      "stateMutability": "nonpayable",
      "type": "function"
    },
    {
      "inputs": [
        {
          "internalType": "uint256",
          "name": "battleId",
          "type": "uint256"
        }
      ],
      "name": "executeBattle",
      "outputs": [],
      "stateMutability": "nonpayable",
      "type": "function"
    },
    {
      "inputs": [
        {
          "internalType": "uint256",
          "name": "batyrId",
          "type": "uint256"
        }
      ],
      "name": "getBatyrStats",
      "outputs": [
        {
          "internalType": "string",
          "name": "name",
          "type": "string"
        },
        {
          "internalType": "string",
          "name": "ability",
          "type": "string"
        },
        {
          "internalType": "string",
          "name": "description",
          "type": "string"
        },
        {
          "internalType": "uint256",
          "name": "power",
          "type": "uint256"
        },
        {
          "internalType": "uint256",
          "name": "archerBonus",
          "type": "uint256"
        },
        {
          "internalType": "uint256",
          "name": "cavalryBonus",
          "type": "uint256"
        },
        {
          "internalType": "bool",
          "name": "canBattle",
          "type": "bool"
        }
      ],
      "stateMutability": "view",
      "type": "function"
    },
    {
      "inputs": [
        {
          "internalType": "address",
          "name": "player",
          "type": "address"
        }
      ],
      "name": "getKhanateStats",
      "outputs": [
        {
          "internalType": "string",
          "name": "name",
          "type": "string"
        },
        {
          "internalType": "uint256",
          "name": "level",
          "type": "uint256"
        },
        {
          "internalType": "uint256",
          "name": "archers",
          "type": "uint256"
        },
        {
          "internalType": "uint256",
          "name": "cavalry",
          "type": "uint256"
        },
        {
          "internalType": "uint256",
          "name": "experience",
          "type": "uint256"
        },
        {
          "internalType": "uint256",
          "name": "wins",
          "type": "uint256"
        },
        {
          "internalType": "uint256",
          "name": "losses",
          "type": "uint256"
        }
      ],
      "stateMutability": "view",
      "type": "function"
    },
    {
      "inputs": [
        {
          "internalType": "address",
          "name": "player",
          "type": "address"
        }
      ],
      "name": "getPlayerStats",
      "outputs": [
        {
          "internalType": "bool",
          "name": "FIRST_BLOOD",
          "type": "bool"
        },
        {
          "internalType": "bool",
          "name": "VETERAN",
          "type": "bool"
        },
        {
          "internalType": "bool",
          "name": "WARLORD",
          "type": "bool"
        },
        {
          "internalType": "bool",
          "name": "DEFENDER",
          "type": "bool"
        },
        {
          "internalType": "bool",
          "name": "COLLECTOR",
          "type": "bool"
        }
      ],
      "stateMutability": "view",
      "type": "function"
    },
    {
      "inputs": [
        {
          "internalType": "address",
          "name": "player",
          "type": "address"
        },
        {
          "internalType": "uint256",
          "name": "batyrId",
          "type": "uint256"
        }
      ],
      "name": "hasBatyr",
      "outputs": [
        {
          "internalType": "bool",
          "name": "",
          "type": "bool"
        }
      ],
      "stateMutability": "view",
      "type": "function"
    },
    {
      "inputs": [
        {
          "internalType": "address",
          "name": "defender",
          "type": "address"
        }
      ],
      "name": "initiateBattle",
      "outputs": [],
      "stateMutability": "nonpayable",
      "type": "function"
    },
    {
      "inputs": [
        {
          "internalType": "address",
          "name": "",
          "type": "address"
        }
      ],
      "name": "khanates",
      "outputs": [
        {
          "internalType": "string",
          "name": "name",
          "type": "string"
        },
        {
          "internalType": "uint256",
          "name": "level",
          "type": "uint256"
        },
        {
          "internalType": "uint256",
          "name": "archers",
          "type": "uint256"
        },
        {
          "internalType": "uint256",
          "name": "cavalry",
          "type": "uint256"
        },
        {
          "internalType": "uint256",
          "name": "experience",
          "type": "uint256"
        },
        {
          "internalType": "uint256",
          "name": "wins",
          "type": "uint256"
        },
        {
          "internalType": "uint256",
          "name": "losses",
          "type": "uint256"
        },
        {
          "internalType": "uint256",
          "name": "successfulDefenses",
          "type": "uint256"
        },
        {
          "internalType": "bool",
          "name": "initialized",
          "type": "bool"
        }
      ],
      "stateMutability": "view",
      "type": "function"
    },
    {
      "inputs": [
        {
          "internalType": "address",
          "name": "",
          "type": "address"
        },
        {
          "internalType": "uint256",
          "name": "",
          "type": "uint256"
        }
      ],
      "name": "ownedBatyrs",
      "outputs": [
        {
          "internalType": "bool",
          "name": "",
          "type": "bool"
        }
      ],
      "stateMutability": "view",
      "type": "function"
    },
    {
      "inputs": [],
      "name": "purchaseLuckyBox",
      "outputs": [],
      "stateMutability": "payable",
      "type": "function"
    },
    {
      "inputs": [
        {
          "internalType": "uint256",
          "name": "archerAmount",
          "type": "uint256"
        },
        {
          "internalType": "uint256",
          "name": "cavalryAmount",
          "type": "uint256"
        }
      ],
      "name": "purchaseTroops",
      "outputs": [],
      "stateMutability": "payable",
      "type": "function"
    },
    {
      "inputs": [
        {
          "internalType": "uint256",
          "name": "battleId",
          "type": "uint256"
        }
      ],
      "name": "speedUpBattle",
      "outputs": [],
      "stateMutability": "payable",
      "type": "function"
    }
  ],
  "bytecode": "0x60806040523480156200001157600080fd5b5060016000819055506040518060e001604052806040518060400160405280600e81526020017f4b6162616e62617920426174797200000000000000000000000000000000000081525081526020016040518060400160405280601181526020017f4d6173746572205374726174656769737400000000000000000000000000000081525081526020016040518060600160405280602e815260200162004b4f602e91398152602001606481526020016078815260200160788152602001600115158152506006600060018152602001908152602001600020600082015181600001908162000101919062000973565b50602082015181600101908162000119919062000973565b50604082015181600201908162000131919062000973565b50606082015181600301556080820151816004015560a0820151816005015560c08201518160060160006101000a81548160ff0219169083151502179055509050506040518060e001604052806040518060400160405280600e81526020017f426f67656e62616920426174797200000000000000000000000000000000000081525081526020016040518060400160405280601081526020017f41726368657220436f6d6d616e64657200000000000000000000000000000000815250815260200160405180606001604052806021815260200162004b2e60219139815260200160508152602001609681526020016064815260200160011515815250600660006002815260200190815260200160002060008201518160000190816200025a919062000973565b50602082015181600101908162000272919062000973565b5060408201518160020190816200028a919062000973565b50606082015181600301556080820151816004015560a0820151816005015560c08201518160060160006101000a81548160ff0219169083151502179055509050506040518060e001604052806040518060400160405280600f81526020017f4e617572797a626169204261747972000000000000000000000000000000000081525081526020016040518060400160405280600e81526020017f436176616c7279204d6173746572000000000000000000000000000000000000815250815260200160405180606001604052806022815260200162004b7d6022913981526020016050815260200160648152602001609681526020016001151581525060066000600381526020019081526020016000206000820151816000019081620003b3919062000973565b506020820151816001019081620003cb919062000973565b506040820151816002019081620003e3919062000973565b50606082015181600301556080820151816004015560a0820151816005015560c08201518160060160006101000a81548160ff0219169083151502179055509050506040518060e001604052806040518060400160405280600d81526020017f4b6172617361692042617479720000000000000000000000000000000000000081525081526020016040518060400160405280601081526020017f446566656e736976652045787065727400000000000000000000000000000000815250815260200160405180606001604052806021815260200162004b0d60219139815260200160788152602001606e8152602001606e815260200160001515815250600660006004815260200190815260200160002060008201518160000190816200050c919062000973565b50602082015181600101908162000524919062000973565b5060408201518160020190816200053c919062000973565b50606082015181600301556080820151816004015560a0820151816005015560c08201518160060160006101000a81548160ff0219169083151502179055509050506040518060e001604052806040518060400160405280600e81526020017f5a68616e6962656b20426174797200000000000000000000000000000000000081525081526020016040518060400160405280600e81526020017f456c69746520477561726469616e00000000000000000000000000000000000081525081526020016040518060400160405280601e81526020017f53757072656d6520646566656e73697665206361706162696c697469657300008152508152602001609681526020016064815260200160648152602001600015158152506006600060058152602001908152602001600020600082015181600001908162000681919062000973565b50602082015181600101908162000699919062000973565b506040820151816002019081620006b1919062000973565b50606082015181600301556080820151816004015560a0820151816005015560c08201518160060160006101000a81548160ff02191690831515021790555090505062000a5a565b600081519050919050565b7f4e487b7100000000000000000000000000000000000000000000000000000000600052604160045260246000fd5b7f4e487b7100000000000000000000000000000000000000000000000000000000600052602260045260246000fd5b600060028204905060018216806200077b57607f821691505b60208210810362000791576200079062000733565b5b50919050565b60008190508160005260206000209050919050565b60006020601f8301049050919050565b600082821b905092915050565b600060088302620007fb7fffffffffffffffffffffffffffffffffffffffffffffffffffffffffffffffff82620007bc565b620008078683620007bc565b95508019841693508086168417925050509392505050565b6000819050919050565b6000819050919050565b6000620008546200084e62000848846200081f565b62000829565b6200081f565b9050919050565b6000819050919050565b620008708362000833565b620008886200087f826200085b565b848454620007c9565b825550505050565b600090565b6200089f62000890565b620008ac81848462000865565b505050565b5b81811015620008d457620008c860008262000895565b600181019050620008b2565b5050565b601f8211156200092357620008ed8162000797565b620008f884620007ac565b8101602085101562000908578190505b620009206200091785620007ac565b830182620008b1565b50505b505050565b600082821c905092915050565b6000620009486000198460080262000928565b1980831691505092915050565b600062000963838362000935565b9150826002028217905092915050565b6200097e82620006f9565b67ffffffffffffffff8111156200099a576200099962000704565b5b620009a6825462000762565b620009b3828285620008d8565b600060209050601f831160018114620009eb5760008415620009d6578287015190505b620009e2858262000955565b86555062000a52565b601f198416620009fb8662000797565b60005b8281101562000a2557848901518255600182019150602085019450602081019050620009fe565b8683101562000a45578489015162000a41601f89168262000935565b8355505b6001600288020188555050505b505050505050565b6140a38062000a6a6000396000f3fe6080604052600436106101145760003560e01c806354258088116100a0578063c1c063eb11610064578063c1c063eb146103d5578063dfad625714610418578063e0f83f2114610434578063ee52f8f31461045f578063fd0a5d9b146104a057610114565b806354258088146102ba5780635dcee894146102e55780636011515c146103225780636b4faeca1461034d5780638602eebf1461039257610114565b80633a0de743116100e75780633a0de743146101c45780633b42f248146101ce5780633dde60c21461020b5780633f430695146102365780634fd66eae1461027957610114565b80630c1cdb6d146101195780631504f5cd1461014257806321ec18e11461016b578063232e096d14610187575b600080fd5b34801561012557600080fd5b50610140600480360381019061013b9190612c98565b6104c9565b005b34801561014e57600080fd5b5061016960048036038101906101649190612d17565b6106f7565b005b61018560048036038101906101809190612d17565b6109b0565b005b34801561019357600080fd5b506101ae60048036038101906101a99190612da2565b610ba7565b6040516101bb9190612dfd565b60405180910390f35b6101cc610c0f565b005b3480156101da57600080fd5b506101f560048036038101906101f09190612da2565b610ff4565b6040516102029190612dfd565b60405180910390f35b34801561021757600080fd5b50610220611023565b60405161022d9190612e27565b60405180910390f35b34801561024257600080fd5b5061025d60048036038101906102589190612e42565b61102e565b6040516102709796959493929190612eee565b60405180910390f35b34801561028557600080fd5b506102a0600480360381019061029b9190612e42565b611247565b6040516102b1959493929190612f64565b60405180910390f35b3480156102c657600080fd5b506102cf611465565b6040516102dc9190612e27565b60405180910390f35b3480156102f157600080fd5b5061030c60048036038101906103079190612fb7565b611471565b6040516103199190612dfd565b60405180910390f35b34801561032e57600080fd5b506103376114b6565b6040516103449190612e27565b60405180910390f35b34801561035957600080fd5b50610374600480360381019061036f9190612e42565b6114c1565b60405161038999989796959493929190613013565b60405180910390f35b34801561039e57600080fd5b506103b960048036038101906103b49190612d17565b6115a4565b6040516103cc97969594939291906130a7565b60405180910390f35b3480156103e157600080fd5b506103fc60048036038101906103f79190612d17565b61178b565b60405161040f97969594939291906130a7565b60405180910390f35b610432600480360381019061042d919061312b565b611a34565b005b34801561044057600080fd5b50610449611c9c565b6040516104569190612e27565b60405180910390f35b34801561046b57600080fd5b5061048660048036038101906104819190612d17565b611ca8565b60405161049795949392919061317a565b60405180910390f35b3480156104ac57600080fd5b506104c760048036038101906104c29190612e42565b611d2b565b005b600160003373ffffffffffffffffffffffffffffffffffffffff1673ffffffffffffffffffffffffffffffffffffffff16815260200190815260200160002060080160009054906101000a900460ff1615610559576040517f08c379a000000000000000000000000000000000000000000000000000000000815260040161055090613219565b60405180910390fd5b600081511161059d576040517f08c379a000000000000000000000000000000000000000000000000000000000815260040161059490613285565b60405180910390fd5b60405180610120016040528082815260200160018152602001600a8152602001600581526020016000815260200160008152602001600081526020016000815260200160011515815250600160003373ffffffffffffffffffffffffffffffffffffffff1673ffffffffffffffffffffffffffffffffffffffff168152602001908152602001600020600082015181600001908161063b91906134b1565b506020820151816001015560408201518160020155606082015181600301556080820151816004015560a0820151816005015560c0820151816006015560e082015181600701556101008201518160080160006101000a81548160ff0219169083151502179055509050503373ffffffffffffffffffffffffffffffffffffffff167f67409ced604950b5508f075f60153e7d166866a8251a44b569a7a07d7f27c3eb826040516106ec9190613583565b60405180910390a250565b60006004600083815260200190815260200160002090508060030160009054906101000a900460ff1615610760576040517f08c379a0000000000000000000000000000000000000000000000000000000008152600401610757906135f1565b60405180910390fd5b806004015481600201546107749190613640565b4210156107b6576040517f08c379a00000000000000000000000000000000000000000000000000000000081526004016107ad906136c0565b60405180910390fd5b60008160000160009054906101000a900473ffffffffffffffffffffffffffffffffffffffff16905060008260010160009054906101000a900473ffffffffffffffffffffffffffffffffffffffff16905060006108138361211f565b905060006108208361211f565b90506000605a601442878760405160200161083d93929190613749565b6040516020818303038152906040528051906020012060001c61086091906137b5565b61086a9190613640565b90506064818461087a91906137e6565b6108849190613828565b925060018660030160006101000a81548160ff021916908315150217905550818311156108ba576108b585856124cf565b6109a7565b6108c484866124cf565b600160008573ffffffffffffffffffffffffffffffffffffffff1673ffffffffffffffffffffffffffffffffffffffff168152602001908152602001600020600701600081548092919061091790613859565b91905055506005600160008673ffffffffffffffffffffffffffffffffffffffff1673ffffffffffffffffffffffffffffffffffffffff16815260200190815260200160002060070154106109a6576109a5846040518060400160405280600881526020017f444546454e444552000000000000000000000000000000000000000000000000815250612981565b5b5b50505050505050565b6000600460008381526020019081526020016000209050670429d069189e0000341015610a12576040517f08c379a0000000000000000000000000000000000000000000000000000000008152600401610a0990613913565b60405180910390fd5b3373ffffffffffffffffffffffffffffffffffffffff168160000160009054906101000a900473ffffffffffffffffffffffffffffffffffffffff1673ffffffffffffffffffffffffffffffffffffffff1614610aa4576040517f08c379a0000000000000000000000000000000000000000000000000000000008152600401610a9b9061397f565b60405180910390fd5b8060030160009054906101000a900460ff1615610af6576040517f08c379a0000000000000000000000000000000000000000000000000000000008152600401610aed906135f1565b60405180910390fd5b7f1e372b79674f198909a4f4ee1416fd2c6e8dcd6ae23ceb1593d2ed32264d8d2e8233604051610b2792919061399f565b60405180910390a1610b38826106f7565b670429d069189e0000341115610ba3573373ffffffffffffffffffffffffffffffffffffffff166108fc670429d069189e000034610b7691906139c8565b9081150290604051600060405180830381858888f19350505050158015610ba1573d6000803e3d6000fd5b505b5050565b6000600260008473ffffffffffffffffffffffffffffffffffffffff1673ffffffffffffffffffffffffffffffffffffffff168152602001908152602001600020600083815260200190815260200160002060009054906101000a900460ff16905092915050565b600160003373ffffffffffffffffffffffffffffffffffffffff1673ffffffffffffffffffffffffffffffffffffffff16815260200190815260200160002060080160009054906101000a900460ff16610c9e576040517f08c379a0000000000000000000000000000000000000000000000000000000008152600401610c9590613a48565b60405180910390fd5b67016345785d8a0000341015610ce9576040517f08c379a0000000000000000000000000000000000000000000000000000000008152600401610ce090613ab4565b60405180910390fd5b600060644233604051602001610d00929190613ad4565b6040516020818303038152906040528051906020012060001c610d2391906137b5565b90506014811015610f8657600060016005423385604051602001610d4993929190613b00565b6040516020818303038152906040528051906020012060001c610d6c91906137b5565b610d769190613640565b9050600260003373ffffffffffffffffffffffffffffffffffffffff1673ffffffffffffffffffffffffffffffffffffffff168152602001908152602001600020600082815260200190815260200160002060009054906101000a900460ff16610f84576001600260003373ffffffffffffffffffffffffffffffffffffffff1673ffffffffffffffffffffffffffffffffffffffff168152602001908152602001600020600083815260200190815260200160002060006101000a81548160ff0219169083151502179055503373ffffffffffffffffffffffffffffffffffffffff167fc78cd494272180e0c224c92ca5bedd58597e9f5494e17a757b031988d4b6372c8260066000858152602001908152602001600020600001604051610ea0929190613bc1565b60405180910390a26000600190506000600190505b60058111610f3b57600260003373ffffffffffffffffffffffffffffffffffffffff1673ffffffffffffffffffffffffffffffffffffffff168152602001908152602001600020600082815260200190815260200160002060009054906101000a900460ff16610f285760009150610f3b565b8080610f3390613859565b915050610eb5565b508015610f8257610f81336040518060400160405280600981526020017f434f4c4c4543544f520000000000000000000000000000000000000000000000815250612981565b5b505b505b67016345785d8a0000341115610ff1573373ffffffffffffffffffffffffffffffffffffffff166108fc67016345785d8a000034610fc491906139c8565b9081150290604051600060405180830381858888f19350505050158015610fef573d6000803e3d6000fd5b505b50565b60026020528160005260406000206020528060005260406000206000915091509054906101000a900460ff1681565b662386f26fc1000081565b6060600080600080600080600160008973ffffffffffffffffffffffffffffffffffffffff1673ffffffffffffffffffffffffffffffffffffffff16815260200190815260200160002060080160009054906101000a900460ff166110c8576040517f08c379a00000000000000000000000000000000000000000000000000000000081526004016110bf90613a48565b60405180910390fd5b6000600160008a73ffffffffffffffffffffffffffffffffffffffff1673ffffffffffffffffffffffffffffffffffffffff16815260200190815260200160002060405180610120016040529081600082018054611125906132d4565b80601f0160208091040260200160405190810160405280929190818152602001828054611151906132d4565b801561119e5780601f106111735761010080835404028352916020019161119e565b820191906000526020600020905b81548152906001019060200180831161118157829003601f168201915b50505050508152602001600182015481526020016002820154815260200160038201548152602001600482015481526020016005820154815260200160068201548152602001600782015481526020016008820160009054906101000a900460ff1615151515815250509050806000015181602001518260400151836060015184608001518560a001518660c00151975097509750975097509750975050919395979092949650565b6000806000806000600360008773ffffffffffffffffffffffffffffffffffffffff1673ffffffffffffffffffffffffffffffffffffffff16815260200190815260200160002060405161129a90613c48565b908152602001604051809103902060009054906101000a900460ff16600360008873ffffffffffffffffffffffffffffffffffffffff1673ffffffffffffffffffffffffffffffffffffffff16815260200190815260200160002060405161130190613ca9565b908152602001604051809103902060009054906101000a900460ff16600360008973ffffffffffffffffffffffffffffffffffffffff1673ffffffffffffffffffffffffffffffffffffffff16815260200190815260200160002060405161136890613d0a565b908152602001604051809103902060009054906101000a900460ff16600360008a73ffffffffffffffffffffffffffffffffffffffff1673ffffffffffffffffffffffffffffffffffffffff1681526020019081526020016000206040516113cf90613d6b565b908152602001604051809103902060009054906101000a900460ff16600360008b73ffffffffffffffffffffffffffffffffffffffff1673ffffffffffffffffffffffffffffffffffffffff16815260200190815260200160002060405161143690613dcc565b908152602001604051809103902060009054906101000a900460ff169450945094509450945091939590929450565b670429d069189e000081565b6003602052816000526040600020818051602081018201805184825260208301602085012081835280955050505050506000915091509054906101000a900460ff1681565b66470de4df82000081565b60016020528060005260406000206000915090508060000180546114e4906132d4565b80601f0160208091040260200160405190810160405280929190818152602001828054611510906132d4565b801561155d5780601f106115325761010080835404028352916020019161155d565b820191906000526020600020905b81548152906001019060200180831161154057829003601f168201915b5050505050908060010154908060020154908060030154908060040154908060050154908060060154908060070154908060080160009054906101000a900460ff16905089565b60066020528060005260406000206000915090508060000180546115c7906132d4565b80601f01602080910402602001604051908101604052809291908181526020018280546115f3906132d4565b80156116405780601f1061161557610100808354040283529160200191611640565b820191906000526020600020905b81548152906001019060200180831161162357829003601f168201915b505050505090806001018054611655906132d4565b80601f0160208091040260200160405190810160405280929190818152602001828054611681906132d4565b80156116ce5780601f106116a3576101008083540402835291602001916116ce565b820191906000526020600020905b8154815290600101906020018083116116b157829003601f168201915b5050505050908060020180546116e3906132d4565b80601f016020809104026020016040519081016040528092919081815260200182805461170f906132d4565b801561175c5780601f106117315761010080835404028352916020019161175c565b820191906000526020600020905b81548152906001019060200180831161173f57829003601f168201915b5050505050908060030154908060040154908060050154908060060160009054906101000a900460ff16905087565b60608060606000806000806000881180156117a7575060058811155b6117e6576040517f08c379a00000000000000000000000000000000000000000000000000000000081526004016117dd90613e2d565b60405180910390fd5b6000600660008a81526020019081526020016000206040518060e0016040529081600082018054611816906132d4565b80601f0160208091040260200160405190810160405280929190818152602001828054611842906132d4565b801561188f5780601f106118645761010080835404028352916020019161188f565b820191906000526020600020905b81548152906001019060200180831161187257829003601f168201915b505050505081526020016001820180546118a8906132d4565b80601f01602080910402602001604051908101604052809291908181526020018280546118d4906132d4565b80156119215780601f106118f657610100808354040283529160200191611921565b820191906000526020600020905b81548152906001019060200180831161190457829003601f168201915b5050505050815260200160028201805461193a906132d4565b80601f0160208091040260200160405190810160405280929190818152602001828054611966906132d4565b80156119b35780601f10611988576101008083540402835291602001916119b3565b820191906000526020600020905b81548152906001019060200180831161199657829003601f168201915b505050505081526020016003820154815260200160048201548152602001600582015481526020016006820160009054906101000a900460ff1615151515815250509050806000015181602001518260400151836060015184608001518560a001518660c00151975097509750975097509750975050919395979092949650565b600160003373ffffffffffffffffffffffffffffffffffffffff1673ffffffffffffffffffffffffffffffffffffffff16815260200190815260200160002060080160009054906101000a900460ff16611ac3576040517f08c379a0000000000000000000000000000000000000000000000000000000008152600401611aba90613a48565b60405180910390fd5b600066470de4df82000082611ad891906137e6565b662386f26fc1000084611aeb91906137e6565b611af59190613640565b905080341015611b3a576040517f08c379a0000000000000000000000000000000000000000000000000000000008152600401611b3190613ab4565b60405180910390fd5b82600160003373ffffffffffffffffffffffffffffffffffffffff1673ffffffffffffffffffffffffffffffffffffffff1681526020019081526020016000206002016000828254611b8c9190613640565b9250508190555081600160003373ffffffffffffffffffffffffffffffffffffffff1673ffffffffffffffffffffffffffffffffffffffff1681526020019081526020016000206003016000828254611be59190613640565b925050819055503373ffffffffffffffffffffffffffffffffffffffff167faf29816cd11119a4c8c0eff4213407d9eee90e96234648827025b3dcda86af398484604051611c34929190613e4d565b60405180910390a280341115611c97573373ffffffffffffffffffffffffffffffffffffffff166108fc8234611c6a91906139c8565b9081150290604051600060405180830381858888f19350505050158015611c95573d6000803e3d6000fd5b505b505050565b67016345785d8a000081565b60046020528060005260406000206000915090508060000160009054906101000a900473ffffffffffffffffffffffffffffffffffffffff16908060010160009054906101000a900473ffffffffffffffffffffffffffffffffffffffff16908060020154908060030160009054906101000a900460ff16908060040154905085565b600160003373ffffffffffffffffffffffffffffffffffffffff1673ffffffffffffffffffffffffffffffffffffffff16815260200190815260200160002060080160009054906101000a900460ff16611dba576040517f08c379a0000000000000000000000000000000000000000000000000000000008152600401611db190613a48565b60405180910390fd5b3373ffffffffffffffffffffffffffffffffffffffff168173ffffffffffffffffffffffffffffffffffffffff1603611e28576040517f08c379a0000000000000000000000000000000000000000000000000000000008152600401611e1f90613ec2565b60405180910390fd5b600160008273ffffffffffffffffffffffffffffffffffffffff1673ffffffffffffffffffffffffffffffffffffffff16815260200190815260200160002060080160009054906101000a900460ff16611eb7576040517f08c379a0000000000000000000000000000000000000000000000000000000008152600401611eae90613f54565b60405180910390fd5b6000600160003373ffffffffffffffffffffffffffffffffffffffff1673ffffffffffffffffffffffffffffffffffffffff168152602001908152602001600020600201541180611f4a57506000600160003373ffffffffffffffffffffffffffffffffffffffff1673ffffffffffffffffffffffffffffffffffffffff16815260200190815260200160002060030154115b611f89576040517f08c379a0000000000000000000000000000000000000000000000000000000008152600401611f8090613fc0565b60405180910390fd5b6000611f956005612ab5565b9050611fa16005612ac3565b6000611fad3384612ad9565b90506040518060a001604052803373ffffffffffffffffffffffffffffffffffffffff1681526020018473ffffffffffffffffffffffffffffffffffffffff168152602001428152602001600015158152602001828152506004600084815260200190815260200160002060008201518160000160006101000a81548173ffffffffffffffffffffffffffffffffffffffff021916908373ffffffffffffffffffffffffffffffffffffffff16021790555060208201518160010160006101000a81548173ffffffffffffffffffffffffffffffffffffffff021916908373ffffffffffffffffffffffffffffffffffffffff1602179055506040820151816002015560608201518160030160006101000a81548160ff021916908315150217905550608082015181600401559050507f44bbd1153f1b36a3354f2af50e8f8ceb7b4c95e46240e7547a0f73c322380d21823385846040516121129493929190613fe0565b60405180910390a1505050565b600080600a600160008573ffffffffffffffffffffffffffffffffffffffff1673ffffffffffffffffffffffffffffffffffffffff1681526020019081526020016000206002015461217191906137e6565b905060006014600160008673ffffffffffffffffffffffffffffffffffffffff1673ffffffffffffffffffffffffffffffffffffffff168152602001908152602001600020600301546121c491906137e6565b9050600081836121d49190613640565b90506000600190505b600581116124c357600260008773ffffffffffffffffffffffffffffffffffffffff1673ffffffffffffffffffffffffffffffffffffffff168152602001908152602001600020600082815260200190815260200160002060009054906101000a900460ff16156124b0576000600660008381526020019081526020016000206040518060e0016040529081600082018054612278906132d4565b80601f01602080910402602001604051908101604052809291908181526020018280546122a4906132d4565b80156122f15780601f106122c6576101008083540402835291602001916122f1565b820191906000526020600020905b8154815290600101906020018083116122d457829003601f168201915b5050505050815260200160018201805461230a906132d4565b80601f0160208091040260200160405190810160405280929190818152602001828054612336906132d4565b80156123835780601f1061235857610100808354040283529160200191612383565b820191906000526020600020905b81548152906001019060200180831161236657829003601f168201915b5050505050815260200160028201805461239c906132d4565b80601f01602080910402602001604051908101604052809291908181526020018280546123c8906132d4565b80156124155780601f106123ea57610100808354040283529160200191612415565b820191906000526020600020905b8154815290600101906020018083116123f857829003601f168201915b505050505081526020016003820154815260200160048201548152602001600582015481526020016006820160009054906101000a900460ff16151515158152505090508060c00151156124ae57606481608001518661247591906137e6565b61247f9190613828565b945060648160a001518561249391906137e6565b61249d9190613828565b935083856124ab9190613640565b92505b505b80806124bb90613859565b9150506121dd565b50809350505050919050565b60006064905080600160008573ffffffffffffffffffffffffffffffffffffffff1673ffffffffffffffffffffffffffffffffffffffff16815260200190815260200160002060040160008282546125279190613640565b92505081905550600160008473ffffffffffffffffffffffffffffffffffffffff1673ffffffffffffffffffffffffffffffffffffffff168152602001908152602001600020600501600081548092919061258190613859565b9190505550600160008373ffffffffffffffffffffffffffffffffffffffff1673ffffffffffffffffffffffffffffffffffffffff16815260200190815260200160002060060160008154809291906125d990613859565b91905055505b6064600160008573ffffffffffffffffffffffffffffffffffffffff1673ffffffffffffffffffffffffffffffffffffffff1681526020019081526020016000206001015461262e91906137e6565b600160008573ffffffffffffffffffffffffffffffffffffffff1673ffffffffffffffffffffffffffffffffffffffff168152602001908152602001600020600401541061277a576064600160008573ffffffffffffffffffffffffffffffffffffffff1673ffffffffffffffffffffffffffffffffffffffff168152602001908152602001600020600101546126c591906137e6565b600160008573ffffffffffffffffffffffffffffffffffffffff1673ffffffffffffffffffffffffffffffffffffffff168152602001908152602001600020600401600082825461271691906139c8565b92505081905550600160008473ffffffffffffffffffffffffffffffffffffffff1673ffffffffffffffffffffffffffffffffffffffff168152602001908152602001600020600101600081548092919061277090613859565b91905055506125df565b60018060008573ffffffffffffffffffffffffffffffffffffffff1673ffffffffffffffffffffffffffffffffffffffff168152602001908152602001600020600501540361280357612802836040518060400160405280600b81526020017f46495253545f424c4f4f44000000000000000000000000000000000000000000815250612981565b5b600a600160008573ffffffffffffffffffffffffffffffffffffffff1673ffffffffffffffffffffffffffffffffffffffff168152602001908152602001600020600501540361288d5761288c836040518060400160405280600781526020017f5645544552414e00000000000000000000000000000000000000000000000000815250612981565b5b6032600160008573ffffffffffffffffffffffffffffffffffffffff1673ffffffffffffffffffffffffffffffffffffffff168152602001908152602001600020600501540361291757612916836040518060400160405280600781526020017f5741524c4f524400000000000000000000000000000000000000000000000000815250612981565b5b8173ffffffffffffffffffffffffffffffffffffffff168373ffffffffffffffffffffffffffffffffffffffff167f081ed76c4c071d6097731876fc5abf74d14653d1900d984ce23fe568f23448fa836040516129749190612e27565b60405180910390a3505050565b600360008373ffffffffffffffffffffffffffffffffffffffff1673ffffffffffffffffffffffffffffffffffffffff168152602001908152602001600020816040516129ce9190614056565b908152602001604051809103902060009054906101000a900460ff16612ab1576001600360008473ffffffffffffffffffffffffffffffffffffffff1673ffffffffffffffffffffffffffffffffffffffff16815260200190815260200160002082604051612a3d9190614056565b908152602001604051809103902060006101000a81548160ff0219169083151502179055508173ffffffffffffffffffffffffffffffffffffffff167fca8c9accce1ea9b1e88e76d666c26849f39052a6344521346b739cdd29ad4ae682604051612aa89190613583565b60405180910390a25b5050565b600081600001549050919050565b6001816000016000828254019250508190555050565b6000808273ffffffffffffffffffffffffffffffffffffffff168473ffffffffffffffffffffffffffffffffffffffff16189050606481612b1a91906137b5565b9050600181612b2991906137e6565b601e612b359190613640565b91505092915050565b6000604051905090565b600080fd5b600080fd5b600080fd5b600080fd5b6000601f19601f8301169050919050565b7f4e487b7100000000000000000000000000000000000000000000000000000000600052604160045260246000fd5b612ba582612b5c565b810181811067ffffffffffffffff82111715612bc457612bc3612b6d565b5b80604052505050565b6000612bd7612b3e565b9050612be38282612b9c565b919050565b600067ffffffffffffffff821115612c0357612c02612b6d565b5b612c0c82612b5c565b9050602081019050919050565b82818337600083830152505050565b6000612c3b612c3684612be8565b612bcd565b905082815260208101848484011115612c5757612c56612b57565b5b612c62848285612c19565b509392505050565b600082601f830112612c7f57612c7e612b52565b5b8135612c8f848260208601612c28565b91505092915050565b600060208284031215612cae57612cad612b48565b5b600082013567ffffffffffffffff811115612ccc57612ccb612b4d565b5b612cd884828501612c6a565b91505092915050565b6000819050919050565b612cf481612ce1565b8114612cff57600080fd5b50565b600081359050612d1181612ceb565b92915050565b600060208284031215612d2d57612d2c612b48565b5b6000612d3b84828501612d02565b91505092915050565b600073ffffffffffffffffffffffffffffffffffffffff82169050919050565b6000612d6f82612d44565b9050919050565b612d7f81612d64565b8114612d8a57600080fd5b50565b600081359050612d9c81612d76565b92915050565b60008060408385031215612db957612db8612b48565b5b6000612dc785828601612d8d565b9250506020612dd885828601612d02565b9150509250929050565b60008115159050919050565b612df781612de2565b82525050565b6000602082019050612e126000830184612dee565b92915050565b612e2181612ce1565b82525050565b6000602082019050612e3c6000830184612e18565b92915050565b600060208284031215612e5857612e57612b48565b5b6000612e6684828501612d8d565b91505092915050565b600081519050919050565b600082825260208201905092915050565b60005b83811015612ea9578082015181840152602081019050612e8e565b60008484015250505050565b6000612ec082612e6f565b612eca8185612e7a565b9350612eda818560208601612e8b565b612ee381612b5c565b840191505092915050565b600060e0820190508181036000830152612f08818a612eb5565b9050612f176020830189612e18565b612f246040830188612e18565b612f316060830187612e18565b612f3e6080830186612e18565b612f4b60a0830185612e18565b612f5860c0830184612e18565b98975050505050505050565b600060a082019050612f796000830188612dee565b612f866020830187612dee565b612f936040830186612dee565b612fa06060830185612dee565b612fad6080830184612dee565b9695505050505050565b60008060408385031215612fce57612fcd612b48565b5b6000612fdc85828601612d8d565b925050602083013567ffffffffffffffff811115612ffd57612ffc612b4d565b5b61300985828601612c6a565b9150509250929050565b600061012082019050818103600083015261302e818c612eb5565b905061303d602083018b612e18565b61304a604083018a612e18565b6130576060830189612e18565b6130646080830188612e18565b61307160a0830187612e18565b61307e60c0830186612e18565b61308b60e0830185612e18565b613099610100830184612dee565b9a9950505050505050505050565b600060e08201905081810360008301526130c1818a612eb5565b905081810360208301526130d58189612eb5565b905081810360408301526130e98188612eb5565b90506130f86060830187612e18565b6131056080830186612e18565b61311260a0830185612e18565b61311f60c0830184612dee565b98975050505050505050565b6000806040838503121561314257613141612b48565b5b600061315085828601612d02565b925050602061316185828601612d02565b9150509250929050565b61317481612d64565b82525050565b600060a08201905061318f600083018861316b565b61319c602083018761316b565b6131a96040830186612e18565b6131b66060830185612dee565b6131c36080830184612e18565b9695505050505050565b7f4b68616e61746520616c72656164792065786973747300000000000000000000600082015250565b6000613203601683612e7a565b915061320e826131cd565b602082019050919050565b60006020820190508181036000830152613232816131f6565b9050919050565b7f4e616d652063616e6e6f7420626520656d707479000000000000000000000000600082015250565b600061326f601483612e7a565b915061327a82613239565b602082019050919050565b6000602082019050818103600083015261329e81613262565b9050919050565b7f4e487b7100000000000000000000000000000000000000000000000000000000600052602260045260246000fd5b600060028204905060018216806132ec57607f821691505b6020821081036132ff576132fe6132a5565b5b50919050565b60008190508160005260206000209050919050565b60006020601f8301049050919050565b600082821b905092915050565b6000600883026133677fffffffffffffffffffffffffffffffffffffffffffffffffffffffffffffffff8261332a565b613371868361332a565b95508019841693508086168417925050509392505050565b6000819050919050565b60006133ae6133a96133a484612ce1565b613389565b612ce1565b9050919050565b6000819050919050565b6133c883613393565b6133dc6133d4826133b5565b848454613337565b825550505050565b600090565b6133f16133e4565b6133fc8184846133bf565b505050565b5b81811015613420576134156000826133e9565b600181019050613402565b5050565b601f8211156134655761343681613305565b61343f8461331a565b8101602085101561344e578190505b61346261345a8561331a565b830182613401565b50505b505050565b600082821c905092915050565b60006134886000198460080261346a565b1980831691505092915050565b60006134a18383613477565b9150826002028217905092915050565b6134ba82612e6f565b67ffffffffffffffff8111156134d3576134d2612b6d565b5b6134dd82546132d4565b6134e8828285613424565b600060209050601f83116001811461351b5760008415613509578287015190505b6135138582613495565b86555061357b565b601f19841661352986613305565b60005b828110156135515784890151825560018201915060208501945060208101905061352c565b8683101561356e578489015161356a601f891682613477565b8355505b6001600288020188555050505b505050505050565b6000602082019050818103600083015261359d8184612eb5565b905092915050565b7f426174746c6520616c7265616479207265736f6c766564000000000000000000600082015250565b60006135db601783612e7a565b91506135e6826135a5565b602082019050919050565b6000602082019050818103600083015261360a816135ce565b9050919050565b7f4e487b7100000000000000000000000000000000000000000000000000000000600052601160045260246000fd5b600061364b82612ce1565b915061365683612ce1565b925082820190508082111561366e5761366d613611565b5b92915050565b7f54726f6f7073207374696c6c2074726176656c696e6700000000000000000000600082015250565b60006136aa601683612e7a565b91506136b582613674565b602082019050919050565b600060208201905081810360008301526136d98161369d565b9050919050565b6000819050919050565b6136fb6136f682612ce1565b6136e0565b82525050565b60008160601b9050919050565b600061371982613701565b9050919050565b600061372b8261370e565b9050919050565b61374361373e82612d64565b613720565b82525050565b600061375582866136ea565b6020820191506137658285613732565b6014820191506137758284613732565b601482019150819050949350505050565b7f4e487b7100000000000000000000000000000000000000000000000000000000600052601260045260246000fd5b60006137c082612ce1565b91506137cb83612ce1565b9250826137db576137da613786565b5b828206905092915050565b60006137f182612ce1565b91506137fc83612ce1565b925082820261380a81612ce1565b9150828204841483151761382157613820613611565b5b5092915050565b600061383382612ce1565b915061383e83612ce1565b92508261384e5761384d613786565b5b828204905092915050565b600061386482612ce1565b91507fffffffffffffffffffffffffffffffffffffffffffffffffffffffffffffffff820361389657613895613611565b5b600182019050919050565b7f496e73756666696369656e74207061796d656e7420666f72207370656564207560008201527f7000000000000000000000000000000000000000000000000000000000000000602082015250565b60006138fd602183612e7a565b9150613908826138a1565b604082019050919050565b6000602082019050818103600083015261392c816138f0565b9050919050565b7f4e6f7420796f757220626174746c650000000000000000000000000000000000600082015250565b6000613969600f83612e7a565b915061397482613933565b602082019050919050565b600060208201905081810360008301526139988161395c565b9050919050565b60006040820190506139b46000830185612e18565b6139c1602083018461316b565b9392505050565b60006139d382612ce1565b91506139de83612ce1565b92508282039050818111156139f6576139f5613611565b5b92915050565b7f4b68616e617465206e6f7420696e697469616c697a6564000000000000000000600082015250565b6000613a32601783612e7a565b9150613a3d826139fc565b602082019050919050565b60006020820190508181036000830152613a6181613a25565b9050919050565b7f496e73756666696369656e74207061796d656e74000000000000000000000000600082015250565b6000613a9e601483612e7a565b9150613aa982613a68565b602082019050919050565b60006020820190508181036000830152613acd81613a91565b9050919050565b6000613ae082856136ea565b602082019150613af08284613732565b6014820191508190509392505050565b6000613b0c82866136ea565b602082019150613b1c8285613732565b601482019150613b2c82846136ea565b602082019150819050949350505050565b60008154613b4a816132d4565b613b548186612e7a565b94506001821660008114613b6f5760018114613b8557613bb8565b60ff198316865281151560200286019350613bb8565b613b8e85613305565b60005b83811015613bb057815481890152600182019150602081019050613b91565b808801955050505b50505092915050565b6000604082019050613bd66000830185612e18565b8181036020830152613be88184613b3d565b90509392505050565b600081905092915050565b7f46495253545f424c4f4f44000000000000000000000000000000000000000000600082015250565b6000613c32600b83613bf1565b9150613c3d82613bfc565b600b82019050919050565b6000613c5382613c25565b9150819050919050565b7f5645544552414e00000000000000000000000000000000000000000000000000600082015250565b6000613c93600783613bf1565b9150613c9e82613c5d565b600782019050919050565b6000613cb482613c86565b9150819050919050565b7f5741524c4f524400000000000000000000000000000000000000000000000000600082015250565b6000613cf4600783613bf1565b9150613cff82613cbe565b600782019050919050565b6000613d1582613ce7565b9150819050919050565b7f444546454e444552000000000000000000000000000000000000000000000000600082015250565b6000613d55600883613bf1565b9150613d6082613d1f565b600882019050919050565b6000613d7682613d48565b9150819050919050565b7f434f4c4c4543544f520000000000000000000000000000000000000000000000600082015250565b6000613db6600983613bf1565b9150613dc182613d80565b600982019050919050565b6000613dd782613da9565b9150819050919050565b7f496e76616c696420426174797220494400000000000000000000000000000000600082015250565b6000613e17601083612e7a565b9150613e2282613de1565b602082019050919050565b60006020820190508181036000830152613e4681613e0a565b9050919050565b6000604082019050613e626000830185612e18565b613e6f6020830184612e18565b9392505050565b7f43616e6e6f7420626174746c6520796f757273656c6600000000000000000000600082015250565b6000613eac601683612e7a565b9150613eb782613e76565b602082019050919050565b60006020820190508181036000830152613edb81613e9f565b9050919050565b7f446566656e6465722773204b68616e617465206e6f7420696e697469616c697a60008201527f6564000000000000000000000000000000000000000000000000000000000000602082015250565b6000613f3e602283612e7a565b9150613f4982613ee2565b604082019050919050565b60006020820190508181036000830152613f6d81613f31565b9050919050565b7f4e6f2074726f6f707320746f20626174746c6520776974680000000000000000600082015250565b6000613faa601883612e7a565b9150613fb582613f74565b602082019050919050565b60006020820190508181036000830152613fd981613f9d565b9050919050565b6000608082019050613ff56000830187612e18565b614002602083018661316b565b61400f604083018561316b565b61401c6060830184612e18565b95945050505050565b600061403082612e6f565b61403a8185613bf1565b935061404a818560208601612e8b565b80840191505092915050565b60006140628284614025565b91508190509291505056fea26469706673582212201c9bc07102fbb331ab7c1001600f23ecbed1a2d9e5b0ffa172259b51ae94439e64736f6c6343000813003350726f7669646573207374726f6e6720646566656e7369766520626f6e757365735369676e69666963616e746c7920626f6f7374732061726368657220706f776572456e68616e63657320626f74682061726368657220616e6420636176616c7279206566666563746976656e6573735369676e69666963616e746c7920626f6f73747320636176616c727920706f776572",
  "linkReferences": {},
  "deployedLinkReferences": {}
}