{
  "_format": "hh-sol-artifact-1",
  "contractName": "KazakhKhanate",
  "sourceName": "contracts/KazakhKhanate.sol",
  "abi": [
    {
      "inputs": [],
      "stateMutability": "nonpayable",
      "type": "constructor"
    },
    {
      "anonymous": false,
      "inputs": [
        {
          "indexed": true,
          "internalType": "address",
          "name": "player",
          "type": "address"
        },
        {
          "indexed": false,
          "internalType": "string",
          "name": "achievement",
          "type": "string"
        }
      ],
      "name": "AchievementUnlocked",
      "type": "event"
    },
    {
      "anonymous": false,
      "inputs": [
        {
          "indexed": false,
          "internalType": "uint256",
          "name": "battleId",
          "type": "uint256"
        },
        {
          "indexed": false,
          "internalType": "address",
          "name": "attacker",
          "type": "address"
        },
        {
          "indexed": false,
          "internalType": "address",
          "name": "defender",
          "type": "address"
        },
        {
          "indexed": false,
          "internalType": "uint256",
          "name": "travelTime",
          "type": "uint256"
        }
      ],
      "name": "BattleInitiated",
      "type": "event"
    },
    {
      "anonymous": false,
      "inputs": [
        {
          "indexed": true,
          "internalType": "address",
          "name": "winner",
          "type": "address"
        },
        {
          "indexed": true,
          "internalType": "address",
          "name": "loser",
          "type": "address"
        },
        {
          "indexed": false,
          "internalType": "uint256",
          "name": "experienceGained",
          "type": "uint256"
        }
      ],
      "name": "BattleResult",
      "type": "event"
    },
    {
      "anonymous": false,
      "inputs": [
        {
          "indexed": false,
          "internalType": "uint256",
          "name": "battleId",
          "type": "uint256"
        },
        {
          "indexed": false,
          "internalType": "address",
          "name": "attacker",
          "type": "address"
        }
      ],
      "name": "BattleSpedUp",
      "type": "event"
    },
    {
      "anonymous": false,
      "inputs": [
        {
          "indexed": true,
          "internalType": "address",
          "name": "owner",
          "type": "address"
        },
        {
          "indexed": false,
          "internalType": "uint256",
          "name": "batyrId",
          "type": "uint256"
        },
        {
          "indexed": false,
          "internalType": "string",
          "name": "name",
          "type": "string"
        }
      ],
      "name": "BatyrAcquired",
      "type": "event"
    },
    {
      "anonymous": false,
      "inputs": [
        {
          "indexed": true,
          "internalType": "address",
          "name": "owner",
          "type": "address"
        },
        {
          "indexed": false,
          "internalType": "string",
          "name": "name",
          "type": "string"
        }
      ],
      "name": "KhanateCreated",
      "type": "event"
    },
    {
      "anonymous": false,
      "inputs": [
        {
          "indexed": true,
          "internalType": "address",
          "name": "owner",
          "type": "address"
        },
        {
          "indexed": false,
          "internalType": "uint256",
          "name": "archers",
          "type": "uint256"
        },
        {
          "indexed": false,
          "internalType": "uint256",
          "name": "cavalry",
          "type": "uint256"
        }
      ],
      "name": "TroopsPurchased",
      "type": "event"
    },
    {
      "inputs": [],
      "name": "ARCHER_PRICE",
      "outputs": [
        {
          "internalType": "uint256",
          "name": "",
          "type": "uint256"
        }
      ],
      "stateMutability": "view",
      "type": "function"
    },
    {
      "inputs": [],
      "name": "CAVALRY_PRICE",
      "outputs": [
        {
          "internalType": "uint256",
          "name": "",
          "type": "uint256"
        }
      ],
      "stateMutability": "view",
      "type": "function"
    },
    {
      "inputs": [],
      "name": "LUCKY_BOX_PRICE",
      "outputs": [
        {
          "internalType": "uint256",
          "name": "",
          "type": "uint256"
        }
      ],
      "stateMutability": "view",
      "type": "function"
    },
    {
      "inputs": [],
      "name": "SPEED_UP_PRICE",
      "outputs": [
        {
          "internalType": "uint256",
          "name": "",
          "type": "uint256"
        }
      ],
      "stateMutability": "view",
      "type": "function"
    },
    {
      "inputs": [
        {
          "internalType": "address",
          "name": "",
          "type": "address"
        },
        {
          "internalType": "string",
          "name": "",
          "type": "string"
        }
      ],
      "name": "achievements",
      "outputs": [
        {
          "internalType": "bool",
          "name": "",
          "type": "bool"
        }
      ],
      "stateMutability": "view",
      "type": "function"
    },
    {
      "inputs": [
        {
          "internalType": "uint256",
          "name": "",
          "type": "uint256"
        }
      ],
      "name": "activeBattles",
      "outputs": [
        {
          "internalType": "address",
          "name": "attacker",
          "type": "address"
        },
        {
          "internalType": "address",
          "name": "defender",
          "type": "address"
        },
        {
          "internalType": "uint256",
          "name": "startTime",
          "type": "uint256"
        },
        {
          "internalType": "bool",
          "name": "resolved",
          "type": "bool"
        },
        {
          "internalType": "uint256",
          "name": "travelTime",
          "type": "uint256"
        }
      ],
      "stateMutability": "view",
      "type": "function"
    },
    {
      "inputs": [
        {
          "internalType": "uint256",
          "name": "",
          "type": "uint256"
        }
      ],
      "name": "allKhanates",
      "outputs": [
        {
          "internalType": "address",
          "name": "",
          "type": "address"
        }
      ],
      "stateMutability": "view",
      "type": "function"
    },
    {
      "inputs": [
        {
          "internalType": "uint256",
          "name": "",
          "type": "uint256"
        }
      ],
      "name": "batyrs",
      "outputs": [
        {
          "internalType": "string",
          "name": "name",
          "type": "string"
        },
        {
          "internalType": "string",
          "name": "ability",
          "type": "string"
        },
        {
          "internalType": "string",
          "name": "description",
          "type": "string"
        },
        {
          "internalType": "uint256",
          "name": "power",
          "type": "uint256"
        },
        {
          "internalType": "uint256",
          "name": "archerBonus",
          "type": "uint256"
        },
        {
          "internalType": "uint256",
          "name": "cavalryBonus",
          "type": "uint256"
        },
        {
          "internalType": "bool",
          "name": "canBattle",
          "type": "bool"
        }
      ],
      "stateMutability": "view",
      "type": "function"
    },
    {
      "inputs": [
        {
          "internalType": "string",
          "name": "name",
          "type": "string"
        }
      ],
      "name": "createKhanate",
      "outputs": [],
      "stateMutability": "nonpayable",
      "type": "function"
    },
    {
      "inputs": [
        {
          "internalType": "uint256",
          "name": "battleId",
          "type": "uint256"
        }
      ],
      "name": "executeBattle",
      "outputs": [],
      "stateMutability": "nonpayable",
      "type": "function"
    },
    {
      "inputs": [],
      "name": "getAllKhanates",
      "outputs": [
        {
          "internalType": "address[]",
          "name": "",
          "type": "address[]"
        }
      ],
      "stateMutability": "view",
      "type": "function"
    },
    {
      "inputs": [
        {
          "internalType": "uint256",
          "name": "batyrId",
          "type": "uint256"
        }
      ],
      "name": "getBatyrStats",
      "outputs": [
        {
          "internalType": "string",
          "name": "name",
          "type": "string"
        },
        {
          "internalType": "string",
          "name": "ability",
          "type": "string"
        },
        {
          "internalType": "string",
          "name": "description",
          "type": "string"
        },
        {
          "internalType": "uint256",
          "name": "power",
          "type": "uint256"
        },
        {
          "internalType": "uint256",
          "name": "archerBonus",
          "type": "uint256"
        },
        {
          "internalType": "uint256",
          "name": "cavalryBonus",
          "type": "uint256"
        },
        {
          "internalType": "bool",
          "name": "canBattle",
          "type": "bool"
        }
      ],
      "stateMutability": "view",
      "type": "function"
    },
    {
      "inputs": [
        {
          "internalType": "address",
          "name": "player",
          "type": "address"
        }
      ],
      "name": "getKhanateStats",
      "outputs": [
        {
          "internalType": "string",
          "name": "name",
          "type": "string"
        },
        {
          "internalType": "uint256",
          "name": "level",
          "type": "uint256"
        },
        {
          "internalType": "uint256",
          "name": "archers",
          "type": "uint256"
        },
        {
          "internalType": "uint256",
          "name": "cavalry",
          "type": "uint256"
        },
        {
          "internalType": "uint256",
          "name": "experience",
          "type": "uint256"
        },
        {
          "internalType": "uint256",
          "name": "wins",
          "type": "uint256"
        },
        {
          "internalType": "uint256",
          "name": "losses",
          "type": "uint256"
        }
      ],
      "stateMutability": "view",
      "type": "function"
    },
    {
      "inputs": [
        {
          "internalType": "address",
          "name": "player",
          "type": "address"
        }
      ],
      "name": "getPlayerStats",
      "outputs": [
        {
          "internalType": "bool",
          "name": "FIRST_BLOOD",
          "type": "bool"
        },
        {
          "internalType": "bool",
          "name": "VETERAN",
          "type": "bool"
        },
        {
          "internalType": "bool",
          "name": "WARLORD",
          "type": "bool"
        },
        {
          "internalType": "bool",
          "name": "DEFENDER",
          "type": "bool"
        },
        {
          "internalType": "bool",
          "name": "COLLECTOR",
          "type": "bool"
        }
      ],
      "stateMutability": "view",
      "type": "function"
    },
    {
      "inputs": [
        {
          "internalType": "address",
          "name": "player",
          "type": "address"
        },
        {
          "internalType": "uint256",
          "name": "batyrId",
          "type": "uint256"
        }
      ],
      "name": "hasBatyr",
      "outputs": [
        {
          "internalType": "bool",
          "name": "",
          "type": "bool"
        }
      ],
      "stateMutability": "view",
      "type": "function"
    },
    {
      "inputs": [
        {
          "internalType": "address",
          "name": "defender",
          "type": "address"
        }
      ],
      "name": "initiateBattle",
      "outputs": [],
      "stateMutability": "nonpayable",
      "type": "function"
    },
    {
      "inputs": [
        {
          "internalType": "address",
          "name": "",
          "type": "address"
        }
      ],
      "name": "khanateIndex",
      "outputs": [
        {
          "internalType": "uint256",
          "name": "",
          "type": "uint256"
        }
      ],
      "stateMutability": "view",
      "type": "function"
    },
    {
      "inputs": [
        {
          "internalType": "address",
          "name": "",
          "type": "address"
        }
      ],
      "name": "khanates",
      "outputs": [
        {
          "internalType": "string",
          "name": "name",
          "type": "string"
        },
        {
          "internalType": "uint256",
          "name": "level",
          "type": "uint256"
        },
        {
          "internalType": "uint256",
          "name": "archers",
          "type": "uint256"
        },
        {
          "internalType": "uint256",
          "name": "cavalry",
          "type": "uint256"
        },
        {
          "internalType": "uint256",
          "name": "experience",
          "type": "uint256"
        },
        {
          "internalType": "uint256",
          "name": "wins",
          "type": "uint256"
        },
        {
          "internalType": "uint256",
          "name": "losses",
          "type": "uint256"
        },
        {
          "internalType": "uint256",
          "name": "successfulDefenses",
          "type": "uint256"
        },
        {
          "internalType": "bool",
          "name": "initialized",
          "type": "bool"
        }
      ],
      "stateMutability": "view",
      "type": "function"
    },
    {
      "inputs": [
        {
          "internalType": "address",
          "name": "",
          "type": "address"
        },
        {
          "internalType": "uint256",
          "name": "",
          "type": "uint256"
        }
      ],
      "name": "ownedBatyrs",
      "outputs": [
        {
          "internalType": "bool",
          "name": "",
          "type": "bool"
        }
      ],
      "stateMutability": "view",
      "type": "function"
    },
    {
      "inputs": [],
      "name": "purchaseLuckyBox",
      "outputs": [],
      "stateMutability": "payable",
      "type": "function"
    },
    {
      "inputs": [
        {
          "internalType": "uint256",
          "name": "archerAmount",
          "type": "uint256"
        },
        {
          "internalType": "uint256",
          "name": "cavalryAmount",
          "type": "uint256"
        }
      ],
      "name": "purchaseTroops",
      "outputs": [],
      "stateMutability": "payable",
      "type": "function"
    },
    {
      "inputs": [
        {
          "internalType": "uint256",
          "name": "battleId",
          "type": "uint256"
        }
      ],
      "name": "speedUpBattle",
      "outputs": [],
      "stateMutability": "payable",
      "type": "function"
    }
  ],
  "bytecode": "0x60806040523480156200001157600080fd5b5060016000819055506040518060e001604052806040518060400160405280600e81526020017f4b6162616e62617920426174797200000000000000000000000000000000000081525081526020016040518060400160405280601181526020017f4d6173746572205374726174656769737400000000000000000000000000000081525081526020016040518060600160405280602e8152602001620053b3602e91398152602001606481526020016078815260200160788152602001600115158152506008600060018152602001908152602001600020600082015181600001908162000101919062000973565b50602082015181600101908162000119919062000973565b50604082015181600201908162000131919062000973565b50606082015181600301556080820151816004015560a0820151816005015560c08201518160060160006101000a81548160ff0219169083151502179055509050506040518060e001604052806040518060400160405280600e81526020017f426f67656e62616920426174797200000000000000000000000000000000000081525081526020016040518060400160405280601081526020017f41726368657220436f6d6d616e6465720000000000000000000000000000000081525081526020016040518060600160405280602181526020016200539260219139815260200160508152602001609681526020016064815260200160011515815250600860006002815260200190815260200160002060008201518160000190816200025a919062000973565b50602082015181600101908162000272919062000973565b5060408201518160020190816200028a919062000973565b50606082015181600301556080820151816004015560a0820151816005015560c08201518160060160006101000a81548160ff0219169083151502179055509050506040518060e001604052806040518060400160405280600f81526020017f4e617572797a626169204261747972000000000000000000000000000000000081525081526020016040518060400160405280600e81526020017f436176616c7279204d61737465720000000000000000000000000000000000008152508152602001604051806060016040528060228152602001620053e16022913981526020016050815260200160648152602001609681526020016001151581525060086000600381526020019081526020016000206000820151816000019081620003b3919062000973565b506020820151816001019081620003cb919062000973565b506040820151816002019081620003e3919062000973565b50606082015181600301556080820151816004015560a0820151816005015560c08201518160060160006101000a81548160ff0219169083151502179055509050506040518060e001604052806040518060400160405280600d81526020017f4b6172617361692042617479720000000000000000000000000000000000000081525081526020016040518060400160405280601081526020017f446566656e73697665204578706572740000000000000000000000000000000081525081526020016040518060600160405280602181526020016200537160219139815260200160788152602001606e8152602001606e815260200160001515815250600860006004815260200190815260200160002060008201518160000190816200050c919062000973565b50602082015181600101908162000524919062000973565b5060408201518160020190816200053c919062000973565b50606082015181600301556080820151816004015560a0820151816005015560c08201518160060160006101000a81548160ff0219169083151502179055509050506040518060e001604052806040518060400160405280600e81526020017f5a68616e6962656b20426174797200000000000000000000000000000000000081525081526020016040518060400160405280600e81526020017f456c69746520477561726469616e00000000000000000000000000000000000081525081526020016040518060400160405280601e81526020017f53757072656d6520646566656e73697665206361706162696c697469657300008152508152602001609681526020016064815260200160648152602001600015158152506008600060058152602001908152602001600020600082015181600001908162000681919062000973565b50602082015181600101908162000699919062000973565b506040820151816002019081620006b1919062000973565b50606082015181600301556080820151816004015560a0820151816005015560c08201518160060160006101000a81548160ff02191690831515021790555090505062000a5a565b600081519050919050565b7f4e487b7100000000000000000000000000000000000000000000000000000000600052604160045260246000fd5b7f4e487b7100000000000000000000000000000000000000000000000000000000600052602260045260246000fd5b600060028204905060018216806200077b57607f821691505b60208210810362000791576200079062000733565b5b50919050565b60008190508160005260206000209050919050565b60006020601f8301049050919050565b600082821b905092915050565b600060088302620007fb7fffffffffffffffffffffffffffffffffffffffffffffffffffffffffffffffff82620007bc565b620008078683620007bc565b95508019841693508086168417925050509392505050565b6000819050919050565b6000819050919050565b6000620008546200084e62000848846200081f565b62000829565b6200081f565b9050919050565b6000819050919050565b620008708362000833565b620008886200087f826200085b565b848454620007c9565b825550505050565b600090565b6200089f62000890565b620008ac81848462000865565b505050565b5b81811015620008d457620008c860008262000895565b600181019050620008b2565b5050565b601f8211156200092357620008ed8162000797565b620008f884620007ac565b8101602085101562000908578190505b620009206200091785620007ac565b830182620008b1565b50505b505050565b600082821c905092915050565b6000620009486000198460080262000928565b1980831691505092915050565b600062000963838362000935565b9150826002028217905092915050565b6200097e82620006f9565b67ffffffffffffffff8111156200099a576200099962000704565b5b620009a6825462000762565b620009b3828285620008d8565b600060209050601f831160018114620009eb5760008415620009d6578287015190505b620009e2858262000955565b86555062000a52565b601f198416620009fb8662000797565b60005b8281101562000a2557848901518255600182019150602085019450602081019050620009fe565b8683101562000a45578489015162000a41601f89168262000935565b8355505b6001600288020188555050505b505050505050565b6149078062000a6a6000396000f3fe6080604052600436106101355760003560e01c80636011515c116100ab578063c1c063eb1161006f578063c1c063eb14610470578063d1e69f40146104b3578063dfad6257146104de578063e0f83f21146104fa578063ee52f8f314610525578063fd0a5d9b1461056657610135565b80636011515c146103435780636b4faeca1461036e5780636c513c51146103b35780636d3c4787146103f05780638602eebf1461042d57610135565b80633b42f248116100fd5780633b42f248146101ef5780633dde60c21461022c5780633f430695146102575780634fd66eae1461029a57806354258088146102db5780635dcee8941461030657610135565b80630c1cdb6d1461013a5780631504f5cd1461016357806321ec18e11461018c578063232e096d146101a85780633a0de743146101e5575b600080fd5b34801561014657600080fd5b50610161600480360381019061015c9190613401565b61058f565b005b34801561016f57600080fd5b5061018a60048036038101906101859190613480565b610869565b005b6101a660048036038101906101a19190613480565b610b22565b005b3480156101b457600080fd5b506101cf60048036038101906101ca919061350b565b610d19565b6040516101dc9190613566565b60405180910390f35b6101ed610d81565b005b3480156101fb57600080fd5b506102166004803603810190610211919061350b565b611166565b6040516102239190613566565b60405180910390f35b34801561023857600080fd5b50610241611195565b60405161024e9190613590565b60405180910390f35b34801561026357600080fd5b5061027e600480360381019061027991906135ab565b6111a0565b6040516102919796959493929190613657565b60405180910390f35b3480156102a657600080fd5b506102c160048036038101906102bc91906135ab565b6113b9565b6040516102d29594939291906136cd565b60405180910390f35b3480156102e757600080fd5b506102f06115d7565b6040516102fd9190613590565b60405180910390f35b34801561031257600080fd5b5061032d60048036038101906103289190613720565b6115e3565b60405161033a9190613566565b60405180910390f35b34801561034f57600080fd5b50610358611628565b6040516103659190613590565b60405180910390f35b34801561037a57600080fd5b50610395600480360381019061039091906135ab565b611633565b6040516103aa9998979695949392919061377c565b60405180910390f35b3480156103bf57600080fd5b506103da60048036038101906103d591906135ab565b611716565b6040516103e79190613590565b60405180910390f35b3480156103fc57600080fd5b5061041760048036038101906104129190613480565b61172e565b604051610424919061381f565b60405180910390f35b34801561043957600080fd5b50610454600480360381019061044f9190613480565b61176d565b604051610467979695949392919061383a565b60405180910390f35b34801561047c57600080fd5b5061049760048036038101906104929190613480565b611954565b6040516104aa979695949392919061383a565b60405180910390f35b3480156104bf57600080fd5b506104c8611bfd565b6040516104d5919061397c565b60405180910390f35b6104f860048036038101906104f3919061399e565b611c8b565b005b34801561050657600080fd5b5061050f611ef3565b60405161051c9190613590565b60405180910390f35b34801561053157600080fd5b5061054c60048036038101906105479190613480565b611eff565b60405161055d9594939291906139de565b60405180910390f35b34801561057257600080fd5b5061058d600480360381019061058891906135ab565b611f82565b005b600160003373ffffffffffffffffffffffffffffffffffffffff1673ffffffffffffffffffffffffffffffffffffffff16815260200190815260200160002060080160009054906101000a900460ff161561061f576040517f08c379a000000000000000000000000000000000000000000000000000000000815260040161061690613a7d565b60405180910390fd5b6000815111610663576040517f08c379a000000000000000000000000000000000000000000000000000000000815260040161065a90613ae9565b60405180910390fd5b60405180610120016040528082815260200160018152602001600a8152602001600581526020016000815260200160008152602001600081526020016000815260200160011515815250600160003373ffffffffffffffffffffffffffffffffffffffff1673ffffffffffffffffffffffffffffffffffffffff16815260200190815260200160002060008201518160000190816107019190613d15565b506020820151816001015560408201518160020155606082015181600301556080820151816004015560a0820151816005015560c0820151816006015560e082015181600701556101008201518160080160006101000a81548160ff021916908315150217905550905050600680549050600760003373ffffffffffffffffffffffffffffffffffffffff1673ffffffffffffffffffffffffffffffffffffffff168152602001908152602001600020819055506006339080600181540180825580915050600190039060005260206000200160009091909190916101000a81548173ffffffffffffffffffffffffffffffffffffffff021916908373ffffffffffffffffffffffffffffffffffffffff1602179055503373ffffffffffffffffffffffffffffffffffffffff167f67409ced604950b5508f075f60153e7d166866a8251a44b569a7a07d7f27c3eb8260405161085e9190613de7565b60405180910390a250565b60006004600083815260200190815260200160002090508060030160009054906101000a900460ff16156108d2576040517f08c379a00000000000000000000000000000000000000000000000000000000081526004016108c990613e55565b60405180910390fd5b806004015481600201546108e69190613ea4565b421015610928576040517f08c379a000000000000000000000000000000000000000000000000000000000815260040161091f90613f24565b60405180910390fd5b60008160000160009054906101000a900473ffffffffffffffffffffffffffffffffffffffff16905060008260010160009054906101000a900473ffffffffffffffffffffffffffffffffffffffff169050600061098583612376565b9050600061099283612376565b90506000605a60144287876040516020016109af93929190613fad565b6040516020818303038152906040528051906020012060001c6109d29190614019565b6109dc9190613ea4565b9050606481846109ec919061404a565b6109f6919061408c565b925060018660030160006101000a81548160ff02191690831515021790555081831115610a2c57610a278585612726565b610b19565b610a368486612726565b600160008573ffffffffffffffffffffffffffffffffffffffff1673ffffffffffffffffffffffffffffffffffffffff1681526020019081526020016000206007016000815480929190610a89906140bd565b91905055506005600160008673ffffffffffffffffffffffffffffffffffffffff1673ffffffffffffffffffffffffffffffffffffffff1681526020019081526020016000206007015410610b1857610b17846040518060400160405280600881526020017f444546454e4445520000000000000000000000000000000000000000000000008152506130ea565b5b5b50505050505050565b6000600460008381526020019081526020016000209050670429d069189e0000341015610b84576040517f08c379a0000000000000000000000000000000000000000000000000000000008152600401610b7b90614177565b60405180910390fd5b3373ffffffffffffffffffffffffffffffffffffffff168160000160009054906101000a900473ffffffffffffffffffffffffffffffffffffffff1673ffffffffffffffffffffffffffffffffffffffff1614610c16576040517f08c379a0000000000000000000000000000000000000000000000000000000008152600401610c0d906141e3565b60405180910390fd5b8060030160009054906101000a900460ff1615610c68576040517f08c379a0000000000000000000000000000000000000000000000000000000008152600401610c5f90613e55565b60405180910390fd5b7f1e372b79674f198909a4f4ee1416fd2c6e8dcd6ae23ceb1593d2ed32264d8d2e8233604051610c99929190614203565b60405180910390a1610caa82610869565b670429d069189e0000341115610d15573373ffffffffffffffffffffffffffffffffffffffff166108fc670429d069189e000034610ce8919061422c565b9081150290604051600060405180830381858888f19350505050158015610d13573d6000803e3d6000fd5b505b5050565b6000600260008473ffffffffffffffffffffffffffffffffffffffff1673ffffffffffffffffffffffffffffffffffffffff168152602001908152602001600020600083815260200190815260200160002060009054906101000a900460ff16905092915050565b600160003373ffffffffffffffffffffffffffffffffffffffff1673ffffffffffffffffffffffffffffffffffffffff16815260200190815260200160002060080160009054906101000a900460ff16610e10576040517f08c379a0000000000000000000000000000000000000000000000000000000008152600401610e07906142ac565b60405180910390fd5b67016345785d8a0000341015610e5b576040517f08c379a0000000000000000000000000000000000000000000000000000000008152600401610e5290614318565b60405180910390fd5b600060644233604051602001610e72929190614338565b6040516020818303038152906040528051906020012060001c610e959190614019565b905060148110156110f857600060016005423385604051602001610ebb93929190614364565b6040516020818303038152906040528051906020012060001c610ede9190614019565b610ee89190613ea4565b9050600260003373ffffffffffffffffffffffffffffffffffffffff1673ffffffffffffffffffffffffffffffffffffffff168152602001908152602001600020600082815260200190815260200160002060009054906101000a900460ff166110f6576001600260003373ffffffffffffffffffffffffffffffffffffffff1673ffffffffffffffffffffffffffffffffffffffff168152602001908152602001600020600083815260200190815260200160002060006101000a81548160ff0219169083151502179055503373ffffffffffffffffffffffffffffffffffffffff167fc78cd494272180e0c224c92ca5bedd58597e9f5494e17a757b031988d4b6372c8260086000858152602001908152602001600020600001604051611012929190614425565b60405180910390a26000600190506000600190505b600581116110ad57600260003373ffffffffffffffffffffffffffffffffffffffff1673ffffffffffffffffffffffffffffffffffffffff168152602001908152602001600020600082815260200190815260200160002060009054906101000a900460ff1661109a57600091506110ad565b80806110a5906140bd565b915050611027565b5080156110f4576110f3336040518060400160405280600981526020017f434f4c4c4543544f5200000000000000000000000000000000000000000000008152506130ea565b5b505b505b67016345785d8a0000341115611163573373ffffffffffffffffffffffffffffffffffffffff166108fc67016345785d8a000034611136919061422c565b9081150290604051600060405180830381858888f19350505050158015611161573d6000803e3d6000fd5b505b50565b60026020528160005260406000206020528060005260406000206000915091509054906101000a900460ff1681565b662386f26fc1000081565b6060600080600080600080600160008973ffffffffffffffffffffffffffffffffffffffff1673ffffffffffffffffffffffffffffffffffffffff16815260200190815260200160002060080160009054906101000a900460ff1661123a576040517f08c379a0000000000000000000000000000000000000000000000000000000008152600401611231906142ac565b60405180910390fd5b6000600160008a73ffffffffffffffffffffffffffffffffffffffff1673ffffffffffffffffffffffffffffffffffffffff1681526020019081526020016000206040518061012001604052908160008201805461129790613b38565b80601f01602080910402602001604051908101604052809291908181526020018280546112c390613b38565b80156113105780601f106112e557610100808354040283529160200191611310565b820191906000526020600020905b8154815290600101906020018083116112f357829003601f168201915b50505050508152602001600182015481526020016002820154815260200160038201548152602001600482015481526020016005820154815260200160068201548152602001600782015481526020016008820160009054906101000a900460ff1615151515815250509050806000015181602001518260400151836060015184608001518560a001518660c00151975097509750975097509750975050919395979092949650565b6000806000806000600360008773ffffffffffffffffffffffffffffffffffffffff1673ffffffffffffffffffffffffffffffffffffffff16815260200190815260200160002060405161140c906144ac565b908152602001604051809103902060009054906101000a900460ff16600360008873ffffffffffffffffffffffffffffffffffffffff1673ffffffffffffffffffffffffffffffffffffffff1681526020019081526020016000206040516114739061450d565b908152602001604051809103902060009054906101000a900460ff16600360008973ffffffffffffffffffffffffffffffffffffffff1673ffffffffffffffffffffffffffffffffffffffff1681526020019081526020016000206040516114da9061456e565b908152602001604051809103902060009054906101000a900460ff16600360008a73ffffffffffffffffffffffffffffffffffffffff1673ffffffffffffffffffffffffffffffffffffffff168152602001908152602001600020604051611541906145cf565b908152602001604051809103902060009054906101000a900460ff16600360008b73ffffffffffffffffffffffffffffffffffffffff1673ffffffffffffffffffffffffffffffffffffffff1681526020019081526020016000206040516115a890614630565b908152602001604051809103902060009054906101000a900460ff169450945094509450945091939590929450565b670429d069189e000081565b6003602052816000526040600020818051602081018201805184825260208301602085012081835280955050505050506000915091509054906101000a900460ff1681565b66470de4df82000081565b600160205280600052604060002060009150905080600001805461165690613b38565b80601f016020809104026020016040519081016040528092919081815260200182805461168290613b38565b80156116cf5780601f106116a4576101008083540402835291602001916116cf565b820191906000526020600020905b8154815290600101906020018083116116b257829003601f168201915b5050505050908060010154908060020154908060030154908060040154908060050154908060060154908060070154908060080160009054906101000a900460ff16905089565b60076020528060005260406000206000915090505481565b6006818154811061173e57600080fd5b906000526020600020016000915054906101000a900473ffffffffffffffffffffffffffffffffffffffff1681565b600860205280600052604060002060009150905080600001805461179090613b38565b80601f01602080910402602001604051908101604052809291908181526020018280546117bc90613b38565b80156118095780601f106117de57610100808354040283529160200191611809565b820191906000526020600020905b8154815290600101906020018083116117ec57829003601f168201915b50505050509080600101805461181e90613b38565b80601f016020809104026020016040519081016040528092919081815260200182805461184a90613b38565b80156118975780601f1061186c57610100808354040283529160200191611897565b820191906000526020600020905b81548152906001019060200180831161187a57829003601f168201915b5050505050908060020180546118ac90613b38565b80601f01602080910402602001604051908101604052809291908181526020018280546118d890613b38565b80156119255780601f106118fa57610100808354040283529160200191611925565b820191906000526020600020905b81548152906001019060200180831161190857829003601f168201915b5050505050908060030154908060040154908060050154908060060160009054906101000a900460ff16905087565b6060806060600080600080600088118015611970575060058811155b6119af576040517f08c379a00000000000000000000000000000000000000000000000000000000081526004016119a690614691565b60405180910390fd5b6000600860008a81526020019081526020016000206040518060e00160405290816000820180546119df90613b38565b80601f0160208091040260200160405190810160405280929190818152602001828054611a0b90613b38565b8015611a585780601f10611a2d57610100808354040283529160200191611a58565b820191906000526020600020905b815481529060010190602001808311611a3b57829003601f168201915b50505050508152602001600182018054611a7190613b38565b80601f0160208091040260200160405190810160405280929190818152602001828054611a9d90613b38565b8015611aea5780601f10611abf57610100808354040283529160200191611aea565b820191906000526020600020905b815481529060010190602001808311611acd57829003601f168201915b50505050508152602001600282018054611b0390613b38565b80601f0160208091040260200160405190810160405280929190818152602001828054611b2f90613b38565b8015611b7c5780601f10611b5157610100808354040283529160200191611b7c565b820191906000526020600020905b815481529060010190602001808311611b5f57829003601f168201915b505050505081526020016003820154815260200160048201548152602001600582015481526020016006820160009054906101000a900460ff1615151515815250509050806000015181602001518260400151836060015184608001518560a001518660c00151975097509750975097509750975050919395979092949650565b60606006805480602002602001604051908101604052809291908181526020018280548015611c8157602002820191906000526020600020905b8160009054906101000a900473ffffffffffffffffffffffffffffffffffffffff1673ffffffffffffffffffffffffffffffffffffffff1681526020019060010190808311611c37575b5050505050905090565b600160003373ffffffffffffffffffffffffffffffffffffffff1673ffffffffffffffffffffffffffffffffffffffff16815260200190815260200160002060080160009054906101000a900460ff16611d1a576040517f08c379a0000000000000000000000000000000000000000000000000000000008152600401611d11906142ac565b60405180910390fd5b600066470de4df82000082611d2f919061404a565b662386f26fc1000084611d42919061404a565b611d4c9190613ea4565b905080341015611d91576040517f08c379a0000000000000000000000000000000000000000000000000000000008152600401611d8890614318565b60405180910390fd5b82600160003373ffffffffffffffffffffffffffffffffffffffff1673ffffffffffffffffffffffffffffffffffffffff1681526020019081526020016000206002016000828254611de39190613ea4565b9250508190555081600160003373ffffffffffffffffffffffffffffffffffffffff1673ffffffffffffffffffffffffffffffffffffffff1681526020019081526020016000206003016000828254611e3c9190613ea4565b925050819055503373ffffffffffffffffffffffffffffffffffffffff167faf29816cd11119a4c8c0eff4213407d9eee90e96234648827025b3dcda86af398484604051611e8b9291906146b1565b60405180910390a280341115611eee573373ffffffffffffffffffffffffffffffffffffffff166108fc8234611ec1919061422c565b9081150290604051600060405180830381858888f19350505050158015611eec573d6000803e3d6000fd5b505b505050565b67016345785d8a000081565b60046020528060005260406000206000915090508060000160009054906101000a900473ffffffffffffffffffffffffffffffffffffffff16908060010160009054906101000a900473ffffffffffffffffffffffffffffffffffffffff16908060020154908060030160009054906101000a900460ff16908060040154905085565b600160003373ffffffffffffffffffffffffffffffffffffffff1673ffffffffffffffffffffffffffffffffffffffff16815260200190815260200160002060080160009054906101000a900460ff16612011576040517f08c379a0000000000000000000000000000000000000000000000000000000008152600401612008906142ac565b60405180910390fd5b3373ffffffffffffffffffffffffffffffffffffffff168173ffffffffffffffffffffffffffffffffffffffff160361207f576040517f08c379a000000000000000000000000000000000000000000000000000000000815260040161207690614726565b60405180910390fd5b600160008273ffffffffffffffffffffffffffffffffffffffff1673ffffffffffffffffffffffffffffffffffffffff16815260200190815260200160002060080160009054906101000a900460ff1661210e576040517f08c379a0000000000000000000000000000000000000000000000000000000008152600401612105906147b8565b60405180910390fd5b6000600160003373ffffffffffffffffffffffffffffffffffffffff1673ffffffffffffffffffffffffffffffffffffffff1681526020019081526020016000206002015411806121a157506000600160003373ffffffffffffffffffffffffffffffffffffffff1673ffffffffffffffffffffffffffffffffffffffff16815260200190815260200160002060030154115b6121e0576040517f08c379a00000000000000000000000000000000000000000000000000000000081526004016121d790614824565b60405180910390fd5b60006121ec600561321e565b90506121f8600561322c565b60006122043384613242565b90506040518060a001604052803373ffffffffffffffffffffffffffffffffffffffff1681526020018473ffffffffffffffffffffffffffffffffffffffff168152602001428152602001600015158152602001828152506004600084815260200190815260200160002060008201518160000160006101000a81548173ffffffffffffffffffffffffffffffffffffffff021916908373ffffffffffffffffffffffffffffffffffffffff16021790555060208201518160010160006101000a81548173ffffffffffffffffffffffffffffffffffffffff021916908373ffffffffffffffffffffffffffffffffffffffff1602179055506040820151816002015560608201518160030160006101000a81548160ff021916908315150217905550608082015181600401559050507f44bbd1153f1b36a3354f2af50e8f8ceb7b4c95e46240e7547a0f73c322380d21823385846040516123699493929190614844565b60405180910390a1505050565b600080600a600160008573ffffffffffffffffffffffffffffffffffffffff1673ffffffffffffffffffffffffffffffffffffffff168152602001908152602001600020600201546123c8919061404a565b905060006014600160008673ffffffffffffffffffffffffffffffffffffffff1673ffffffffffffffffffffffffffffffffffffffff1681526020019081526020016000206003015461241b919061404a565b90506000818361242b9190613ea4565b90506000600190505b6005811161271a57600260008773ffffffffffffffffffffffffffffffffffffffff1673ffffffffffffffffffffffffffffffffffffffff168152602001908152602001600020600082815260200190815260200160002060009054906101000a900460ff1615612707576000600860008381526020019081526020016000206040518060e00160405290816000820180546124cf90613b38565b80601f01602080910402602001604051908101604052809291908181526020018280546124fb90613b38565b80156125485780601f1061251d57610100808354040283529160200191612548565b820191906000526020600020905b81548152906001019060200180831161252b57829003601f168201915b5050505050815260200160018201805461256190613b38565b80601f016020809104026020016040519081016040528092919081815260200182805461258d90613b38565b80156125da5780601f106125af576101008083540402835291602001916125da565b820191906000526020600020905b8154815290600101906020018083116125bd57829003601f168201915b505050505081526020016002820180546125f390613b38565b80601f016020809104026020016040519081016040528092919081815260200182805461261f90613b38565b801561266c5780601f106126415761010080835404028352916020019161266c565b820191906000526020600020905b81548152906001019060200180831161264f57829003601f168201915b505050505081526020016003820154815260200160048201548152602001600582015481526020016006820160009054906101000a900460ff16151515158152505090508060c00151156127055760648160800151866126cc919061404a565b6126d6919061408c565b945060648160a00151856126ea919061404a565b6126f4919061408c565b935083856127029190613ea4565b92505b505b8080612712906140bd565b915050612434565b50809350505050919050565b60006064905080600160008573ffffffffffffffffffffffffffffffffffffffff1673ffffffffffffffffffffffffffffffffffffffff168152602001908152602001600020600401600082825461277e9190613ea4565b92505081905550600160008473ffffffffffffffffffffffffffffffffffffffff1673ffffffffffffffffffffffffffffffffffffffff16815260200190815260200160002060050160008154809291906127d8906140bd565b9190505550600160008373ffffffffffffffffffffffffffffffffffffffff1673ffffffffffffffffffffffffffffffffffffffff1681526020019081526020016000206006016000815480929190612830906140bd565b91905055506000806000806064600f600160008a73ffffffffffffffffffffffffffffffffffffffff1673ffffffffffffffffffffffffffffffffffffffff1681526020019081526020016000206002015461288c919061404a565b612896919061408c565b93506064600f600160008a73ffffffffffffffffffffffffffffffffffffffff1673ffffffffffffffffffffffffffffffffffffffff168152602001908152602001600020600301546128e9919061404a565b6128f3919061408c565b925060646032600160008973ffffffffffffffffffffffffffffffffffffffff1673ffffffffffffffffffffffffffffffffffffffff16815260200190815260200160002060020154612946919061404a565b612950919061408c565b915060646032600160008973ffffffffffffffffffffffffffffffffffffffff1673ffffffffffffffffffffffffffffffffffffffff168152602001908152602001600020600301546129a3919061404a565b6129ad919061408c565b905083600160008973ffffffffffffffffffffffffffffffffffffffff1673ffffffffffffffffffffffffffffffffffffffff16815260200190815260200160002060020154116129ff576000612a4e565b83600160008973ffffffffffffffffffffffffffffffffffffffff1673ffffffffffffffffffffffffffffffffffffffff16815260200190815260200160002060020154612a4d919061422c565b5b600160008973ffffffffffffffffffffffffffffffffffffffff1673ffffffffffffffffffffffffffffffffffffffff1681526020019081526020016000206002018190555082600160008973ffffffffffffffffffffffffffffffffffffffff1673ffffffffffffffffffffffffffffffffffffffff1681526020019081526020016000206003015411612ae4576000612b33565b82600160008973ffffffffffffffffffffffffffffffffffffffff1673ffffffffffffffffffffffffffffffffffffffff16815260200190815260200160002060030154612b32919061422c565b5b600160008973ffffffffffffffffffffffffffffffffffffffff1673ffffffffffffffffffffffffffffffffffffffff1681526020019081526020016000206003018190555081600160008873ffffffffffffffffffffffffffffffffffffffff1673ffffffffffffffffffffffffffffffffffffffff1681526020019081526020016000206002015411612bc9576000612c18565b81600160008873ffffffffffffffffffffffffffffffffffffffff1673ffffffffffffffffffffffffffffffffffffffff16815260200190815260200160002060020154612c17919061422c565b5b600160008873ffffffffffffffffffffffffffffffffffffffff1673ffffffffffffffffffffffffffffffffffffffff1681526020019081526020016000206002018190555080600160008873ffffffffffffffffffffffffffffffffffffffff1673ffffffffffffffffffffffffffffffffffffffff1681526020019081526020016000206003015411612cae576000612cfd565b80600160008873ffffffffffffffffffffffffffffffffffffffff1673ffffffffffffffffffffffffffffffffffffffff16815260200190815260200160002060030154612cfc919061422c565b5b600160008873ffffffffffffffffffffffffffffffffffffffff1673ffffffffffffffffffffffffffffffffffffffff168152602001908152602001600020600301819055505b6064600160008973ffffffffffffffffffffffffffffffffffffffff1673ffffffffffffffffffffffffffffffffffffffff16815260200190815260200160002060010154612d93919061404a565b600160008973ffffffffffffffffffffffffffffffffffffffff1673ffffffffffffffffffffffffffffffffffffffff1681526020019081526020016000206004015410612edf576064600160008973ffffffffffffffffffffffffffffffffffffffff1673ffffffffffffffffffffffffffffffffffffffff16815260200190815260200160002060010154612e2a919061404a565b600160008973ffffffffffffffffffffffffffffffffffffffff1673ffffffffffffffffffffffffffffffffffffffff1681526020019081526020016000206004016000828254612e7b919061422c565b92505081905550600160008873ffffffffffffffffffffffffffffffffffffffff1673ffffffffffffffffffffffffffffffffffffffff1681526020019081526020016000206001016000815480929190612ed5906140bd565b9190505550612d44565b60018060008973ffffffffffffffffffffffffffffffffffffffff1673ffffffffffffffffffffffffffffffffffffffff1681526020019081526020016000206005015403612f6857612f67876040518060400160405280600b81526020017f46495253545f424c4f4f440000000000000000000000000000000000000000008152506130ea565b5b600a600160008973ffffffffffffffffffffffffffffffffffffffff1673ffffffffffffffffffffffffffffffffffffffff1681526020019081526020016000206005015403612ff257612ff1876040518060400160405280600781526020017f5645544552414e000000000000000000000000000000000000000000000000008152506130ea565b5b6032600160008973ffffffffffffffffffffffffffffffffffffffff1673ffffffffffffffffffffffffffffffffffffffff168152602001908152602001600020600501540361307c5761307b876040518060400160405280600781526020017f5741524c4f5244000000000000000000000000000000000000000000000000008152506130ea565b5b8573ffffffffffffffffffffffffffffffffffffffff168773ffffffffffffffffffffffffffffffffffffffff167f081ed76c4c071d6097731876fc5abf74d14653d1900d984ce23fe568f23448fa876040516130d99190613590565b60405180910390a350505050505050565b600360008373ffffffffffffffffffffffffffffffffffffffff1673ffffffffffffffffffffffffffffffffffffffff1681526020019081526020016000208160405161313791906148ba565b908152602001604051809103902060009054906101000a900460ff1661321a576001600360008473ffffffffffffffffffffffffffffffffffffffff1673ffffffffffffffffffffffffffffffffffffffff168152602001908152602001600020826040516131a691906148ba565b908152602001604051809103902060006101000a81548160ff0219169083151502179055508173ffffffffffffffffffffffffffffffffffffffff167fca8c9accce1ea9b1e88e76d666c26849f39052a6344521346b739cdd29ad4ae6826040516132119190613de7565b60405180910390a25b5050565b600081600001549050919050565b6001816000016000828254019250508190555050565b6000808273ffffffffffffffffffffffffffffffffffffffff168473ffffffffffffffffffffffffffffffffffffffff161890506064816132839190614019565b9050600181613292919061404a565b601e61329e9190613ea4565b91505092915050565b6000604051905090565b600080fd5b600080fd5b600080fd5b600080fd5b6000601f19601f8301169050919050565b7f4e487b7100000000000000000000000000000000000000000000000000000000600052604160045260246000fd5b61330e826132c5565b810181811067ffffffffffffffff8211171561332d5761332c6132d6565b5b80604052505050565b60006133406132a7565b905061334c8282613305565b919050565b600067ffffffffffffffff82111561336c5761336b6132d6565b5b613375826132c5565b9050602081019050919050565b82818337600083830152505050565b60006133a461339f84613351565b613336565b9050828152602081018484840111156133c0576133bf6132c0565b5b6133cb848285613382565b509392505050565b600082601f8301126133e8576133e76132bb565b5b81356133f8848260208601613391565b91505092915050565b600060208284031215613417576134166132b1565b5b600082013567ffffffffffffffff811115613435576134346132b6565b5b613441848285016133d3565b91505092915050565b6000819050919050565b61345d8161344a565b811461346857600080fd5b50565b60008135905061347a81613454565b92915050565b600060208284031215613496576134956132b1565b5b60006134a48482850161346b565b91505092915050565b600073ffffffffffffffffffffffffffffffffffffffff82169050919050565b60006134d8826134ad565b9050919050565b6134e8816134cd565b81146134f357600080fd5b50565b600081359050613505816134df565b92915050565b60008060408385031215613522576135216132b1565b5b6000613530858286016134f6565b92505060206135418582860161346b565b9150509250929050565b60008115159050919050565b6135608161354b565b82525050565b600060208201905061357b6000830184613557565b92915050565b61358a8161344a565b82525050565b60006020820190506135a56000830184613581565b92915050565b6000602082840312156135c1576135c06132b1565b5b60006135cf848285016134f6565b91505092915050565b600081519050919050565b600082825260208201905092915050565b60005b838110156136125780820151818401526020810190506135f7565b60008484015250505050565b6000613629826135d8565b61363381856135e3565b93506136438185602086016135f4565b61364c816132c5565b840191505092915050565b600060e0820190508181036000830152613671818a61361e565b90506136806020830189613581565b61368d6040830188613581565b61369a6060830187613581565b6136a76080830186613581565b6136b460a0830185613581565b6136c160c0830184613581565b98975050505050505050565b600060a0820190506136e26000830188613557565b6136ef6020830187613557565b6136fc6040830186613557565b6137096060830185613557565b6137166080830184613557565b9695505050505050565b60008060408385031215613737576137366132b1565b5b6000613745858286016134f6565b925050602083013567ffffffffffffffff811115613766576137656132b6565b5b613772858286016133d3565b9150509250929050565b6000610120820190508181036000830152613797818c61361e565b90506137a6602083018b613581565b6137b3604083018a613581565b6137c06060830189613581565b6137cd6080830188613581565b6137da60a0830187613581565b6137e760c0830186613581565b6137f460e0830185613581565b613802610100830184613557565b9a9950505050505050505050565b613819816134cd565b82525050565b60006020820190506138346000830184613810565b92915050565b600060e0820190508181036000830152613854818a61361e565b90508181036020830152613868818961361e565b9050818103604083015261387c818861361e565b905061388b6060830187613581565b6138986080830186613581565b6138a560a0830185613581565b6138b260c0830184613557565b98975050505050505050565b600081519050919050565b600082825260208201905092915050565b6000819050602082019050919050565b6138f3816134cd565b82525050565b600061390583836138ea565b60208301905092915050565b6000602082019050919050565b6000613929826138be565b61393381856138c9565b935061393e836138da565b8060005b8381101561396f57815161395688826138f9565b975061396183613911565b925050600181019050613942565b5085935050505092915050565b60006020820190508181036000830152613996818461391e565b905092915050565b600080604083850312156139b5576139b46132b1565b5b60006139c38582860161346b565b92505060206139d48582860161346b565b9150509250929050565b600060a0820190506139f36000830188613810565b613a006020830187613810565b613a0d6040830186613581565b613a1a6060830185613557565b613a276080830184613581565b9695505050505050565b7f4b68616e61746520616c72656164792065786973747300000000000000000000600082015250565b6000613a676016836135e3565b9150613a7282613a31565b602082019050919050565b60006020820190508181036000830152613a9681613a5a565b9050919050565b7f4e616d652063616e6e6f7420626520656d707479000000000000000000000000600082015250565b6000613ad36014836135e3565b9150613ade82613a9d565b602082019050919050565b60006020820190508181036000830152613b0281613ac6565b9050919050565b7f4e487b7100000000000000000000000000000000000000000000000000000000600052602260045260246000fd5b60006002820490506001821680613b5057607f821691505b602082108103613b6357613b62613b09565b5b50919050565b60008190508160005260206000209050919050565b60006020601f8301049050919050565b600082821b905092915050565b600060088302613bcb7fffffffffffffffffffffffffffffffffffffffffffffffffffffffffffffffff82613b8e565b613bd58683613b8e565b95508019841693508086168417925050509392505050565b6000819050919050565b6000613c12613c0d613c088461344a565b613bed565b61344a565b9050919050565b6000819050919050565b613c2c83613bf7565b613c40613c3882613c19565b848454613b9b565b825550505050565b600090565b613c55613c48565b613c60818484613c23565b505050565b5b81811015613c8457613c79600082613c4d565b600181019050613c66565b5050565b601f821115613cc957613c9a81613b69565b613ca384613b7e565b81016020851015613cb2578190505b613cc6613cbe85613b7e565b830182613c65565b50505b505050565b600082821c905092915050565b6000613cec60001984600802613cce565b1980831691505092915050565b6000613d058383613cdb565b9150826002028217905092915050565b613d1e826135d8565b67ffffffffffffffff811115613d3757613d366132d6565b5b613d418254613b38565b613d4c828285613c88565b600060209050601f831160018114613d7f5760008415613d6d578287015190505b613d778582613cf9565b865550613ddf565b601f198416613d8d86613b69565b60005b82811015613db557848901518255600182019150602085019450602081019050613d90565b86831015613dd25784890151613dce601f891682613cdb565b8355505b6001600288020188555050505b505050505050565b60006020820190508181036000830152613e01818461361e565b905092915050565b7f426174746c6520616c7265616479207265736f6c766564000000000000000000600082015250565b6000613e3f6017836135e3565b9150613e4a82613e09565b602082019050919050565b60006020820190508181036000830152613e6e81613e32565b9050919050565b7f4e487b7100000000000000000000000000000000000000000000000000000000600052601160045260246000fd5b6000613eaf8261344a565b9150613eba8361344a565b9250828201905080821115613ed257613ed1613e75565b5b92915050565b7f54726f6f7073207374696c6c2074726176656c696e6700000000000000000000600082015250565b6000613f0e6016836135e3565b9150613f1982613ed8565b602082019050919050565b60006020820190508181036000830152613f3d81613f01565b9050919050565b6000819050919050565b613f5f613f5a8261344a565b613f44565b82525050565b60008160601b9050919050565b6000613f7d82613f65565b9050919050565b6000613f8f82613f72565b9050919050565b613fa7613fa2826134cd565b613f84565b82525050565b6000613fb98286613f4e565b602082019150613fc98285613f96565b601482019150613fd98284613f96565b601482019150819050949350505050565b7f4e487b7100000000000000000000000000000000000000000000000000000000600052601260045260246000fd5b60006140248261344a565b915061402f8361344a565b92508261403f5761403e613fea565b5b828206905092915050565b60006140558261344a565b91506140608361344a565b925082820261406e8161344a565b9150828204841483151761408557614084613e75565b5b5092915050565b60006140978261344a565b91506140a28361344a565b9250826140b2576140b1613fea565b5b828204905092915050565b60006140c88261344a565b91507fffffffffffffffffffffffffffffffffffffffffffffffffffffffffffffffff82036140fa576140f9613e75565b5b600182019050919050565b7f496e73756666696369656e74207061796d656e7420666f72207370656564207560008201527f7000000000000000000000000000000000000000000000000000000000000000602082015250565b60006141616021836135e3565b915061416c82614105565b604082019050919050565b6000602082019050818103600083015261419081614154565b9050919050565b7f4e6f7420796f757220626174746c650000000000000000000000000000000000600082015250565b60006141cd600f836135e3565b91506141d882614197565b602082019050919050565b600060208201905081810360008301526141fc816141c0565b9050919050565b60006040820190506142186000830185613581565b6142256020830184613810565b9392505050565b60006142378261344a565b91506142428361344a565b925082820390508181111561425a57614259613e75565b5b92915050565b7f4b68616e617465206e6f7420696e697469616c697a6564000000000000000000600082015250565b60006142966017836135e3565b91506142a182614260565b602082019050919050565b600060208201905081810360008301526142c581614289565b9050919050565b7f496e73756666696369656e74207061796d656e74000000000000000000000000600082015250565b60006143026014836135e3565b915061430d826142cc565b602082019050919050565b60006020820190508181036000830152614331816142f5565b9050919050565b60006143448285613f4e565b6020820191506143548284613f96565b6014820191508190509392505050565b60006143708286613f4e565b6020820191506143808285613f96565b6014820191506143908284613f4e565b602082019150819050949350505050565b600081546143ae81613b38565b6143b881866135e3565b945060018216600081146143d357600181146143e95761441c565b60ff19831686528115156020028601935061441c565b6143f285613b69565b60005b83811015614414578154818901526001820191506020810190506143f5565b808801955050505b50505092915050565b600060408201905061443a6000830185613581565b818103602083015261444c81846143a1565b90509392505050565b600081905092915050565b7f46495253545f424c4f4f44000000000000000000000000000000000000000000600082015250565b6000614496600b83614455565b91506144a182614460565b600b82019050919050565b60006144b782614489565b9150819050919050565b7f5645544552414e00000000000000000000000000000000000000000000000000600082015250565b60006144f7600783614455565b9150614502826144c1565b600782019050919050565b6000614518826144ea565b9150819050919050565b7f5741524c4f524400000000000000000000000000000000000000000000000000600082015250565b6000614558600783614455565b915061456382614522565b600782019050919050565b60006145798261454b565b9150819050919050565b7f444546454e444552000000000000000000000000000000000000000000000000600082015250565b60006145b9600883614455565b91506145c482614583565b600882019050919050565b60006145da826145ac565b9150819050919050565b7f434f4c4c4543544f520000000000000000000000000000000000000000000000600082015250565b600061461a600983614455565b9150614625826145e4565b600982019050919050565b600061463b8261460d565b9150819050919050565b7f496e76616c696420426174797220494400000000000000000000000000000000600082015250565b600061467b6010836135e3565b915061468682614645565b602082019050919050565b600060208201905081810360008301526146aa8161466e565b9050919050565b60006040820190506146c66000830185613581565b6146d36020830184613581565b9392505050565b7f43616e6e6f7420626174746c6520796f757273656c6600000000000000000000600082015250565b60006147106016836135e3565b915061471b826146da565b602082019050919050565b6000602082019050818103600083015261473f81614703565b9050919050565b7f446566656e6465722773204b68616e617465206e6f7420696e697469616c697a60008201527f6564000000000000000000000000000000000000000000000000000000000000602082015250565b60006147a26022836135e3565b91506147ad82614746565b604082019050919050565b600060208201905081810360008301526147d181614795565b9050919050565b7f4e6f2074726f6f707320746f20626174746c6520776974680000000000000000600082015250565b600061480e6018836135e3565b9150614819826147d8565b602082019050919050565b6000602082019050818103600083015261483d81614801565b9050919050565b60006080820190506148596000830187613581565b6148666020830186613810565b6148736040830185613810565b6148806060830184613581565b95945050505050565b6000614894826135d8565b61489e8185614455565b93506148ae8185602086016135f4565b80840191505092915050565b60006148c68284614889565b91508190509291505056fea2646970667358221220e49b4ec59a9f812449cc226e0ef36cd4410e336d53a762e59e8fbef7d6bce44b64736f6c6343000813003350726f7669646573207374726f6e6720646566656e7369766520626f6e757365735369676e69666963616e746c7920626f6f7374732061726368657220706f776572456e68616e63657320626f74682061726368657220616e6420636176616c7279206566666563746976656e6573735369676e69666963616e746c7920626f6f73747320636176616c727920706f776572",
  "linkReferences": {},
  "deployedLinkReferences": {}
}