{
  "_format": "hh-sol-artifact-1",
  "contractName": "KazakhKhanate",
  "sourceName": "contracts/KazakhKhanate.sol",
  "abi": [
    {
      "inputs": [],
      "stateMutability": "nonpayable",
      "type": "constructor"
    },
    {
      "anonymous": false,
      "inputs": [
        {
          "indexed": true,
          "internalType": "address",
          "name": "player",
          "type": "address"
        },
        {
          "indexed": false,
          "internalType": "string",
          "name": "achievement",
          "type": "string"
        }
      ],
      "name": "AchievementUnlocked",
      "type": "event"
    },
    {
      "anonymous": false,
      "inputs": [
        {
          "indexed": false,
          "internalType": "uint256",
          "name": "battleId",
          "type": "uint256"
        },
        {
          "indexed": false,
          "internalType": "address",
          "name": "attacker",
          "type": "address"
        },
        {
          "indexed": false,
          "internalType": "address",
          "name": "defender",
          "type": "address"
        },
        {
          "indexed": false,
          "internalType": "uint256",
          "name": "travelTime",
          "type": "uint256"
        }
      ],
      "name": "BattleInitiated",
      "type": "event"
    },
    {
      "anonymous": false,
      "inputs": [
        {
          "indexed": true,
          "internalType": "address",
          "name": "winner",
          "type": "address"
        },
        {
          "indexed": true,
          "internalType": "address",
          "name": "loser",
          "type": "address"
        },
        {
          "indexed": false,
          "internalType": "uint256",
          "name": "experienceGained",
          "type": "uint256"
        }
      ],
      "name": "BattleResult",
      "type": "event"
    },
    {
      "anonymous": false,
      "inputs": [
        {
          "indexed": false,
          "internalType": "uint256",
          "name": "battleId",
          "type": "uint256"
        },
        {
          "indexed": false,
          "internalType": "address",
          "name": "attacker",
          "type": "address"
        }
      ],
      "name": "BattleSpedUp",
      "type": "event"
    },
    {
      "anonymous": false,
      "inputs": [
        {
          "indexed": true,
          "internalType": "address",
          "name": "owner",
          "type": "address"
        },
        {
          "indexed": false,
          "internalType": "uint256",
          "name": "batyrId",
          "type": "uint256"
        },
        {
          "indexed": false,
          "internalType": "string",
          "name": "name",
          "type": "string"
        }
      ],
      "name": "BatyrAcquired",
      "type": "event"
    },
    {
      "anonymous": false,
      "inputs": [
        {
          "indexed": true,
          "internalType": "address",
          "name": "owner",
          "type": "address"
        },
        {
          "indexed": false,
          "internalType": "string",
          "name": "name",
          "type": "string"
        }
      ],
      "name": "KhanateCreated",
      "type": "event"
    },
    {
      "anonymous": false,
      "inputs": [
        {
          "indexed": true,
          "internalType": "address",
          "name": "owner",
          "type": "address"
        },
        {
          "indexed": false,
          "internalType": "uint256",
          "name": "archers",
          "type": "uint256"
        },
        {
          "indexed": false,
          "internalType": "uint256",
          "name": "cavalry",
          "type": "uint256"
        }
      ],
      "name": "TroopsPurchased",
      "type": "event"
    },
    {
      "inputs": [],
      "name": "ARCHER_PRICE",
      "outputs": [
        {
          "internalType": "uint256",
          "name": "",
          "type": "uint256"
        }
      ],
      "stateMutability": "view",
      "type": "function"
    },
    {
      "inputs": [],
      "name": "CAVALRY_PRICE",
      "outputs": [
        {
          "internalType": "uint256",
          "name": "",
          "type": "uint256"
        }
      ],
      "stateMutability": "view",
      "type": "function"
    },
    {
      "inputs": [],
      "name": "LUCKY_BOX_PRICE",
      "outputs": [
        {
          "internalType": "uint256",
          "name": "",
          "type": "uint256"
        }
      ],
      "stateMutability": "view",
      "type": "function"
    },
    {
      "inputs": [],
      "name": "SPEED_UP_PRICE",
      "outputs": [
        {
          "internalType": "uint256",
          "name": "",
          "type": "uint256"
        }
      ],
      "stateMutability": "view",
      "type": "function"
    },
    {
      "inputs": [
        {
          "internalType": "address",
          "name": "",
          "type": "address"
        },
        {
          "internalType": "string",
          "name": "",
          "type": "string"
        }
      ],
      "name": "achievements",
      "outputs": [
        {
          "internalType": "bool",
          "name": "",
          "type": "bool"
        }
      ],
      "stateMutability": "view",
      "type": "function"
    },
    {
      "inputs": [
        {
          "internalType": "uint256",
          "name": "",
          "type": "uint256"
        }
      ],
      "name": "activeBattles",
      "outputs": [
        {
          "internalType": "address",
          "name": "attacker",
          "type": "address"
        },
        {
          "internalType": "address",
          "name": "defender",
          "type": "address"
        },
        {
          "internalType": "uint256",
          "name": "startTime",
          "type": "uint256"
        },
        {
          "internalType": "bool",
          "name": "resolved",
          "type": "bool"
        },
        {
          "internalType": "uint256",
          "name": "travelTime",
          "type": "uint256"
        }
      ],
      "stateMutability": "view",
      "type": "function"
    },
    {
      "inputs": [
        {
          "internalType": "uint256",
          "name": "",
          "type": "uint256"
        }
      ],
      "name": "activeKhanates",
      "outputs": [
        {
          "internalType": "address",
          "name": "",
          "type": "address"
        }
      ],
      "stateMutability": "view",
      "type": "function"
    },
    {
      "inputs": [
        {
          "internalType": "uint256",
          "name": "",
          "type": "uint256"
        }
      ],
      "name": "batyrs",
      "outputs": [
        {
          "internalType": "string",
          "name": "name",
          "type": "string"
        },
        {
          "internalType": "string",
          "name": "ability",
          "type": "string"
        },
        {
          "internalType": "string",
          "name": "description",
          "type": "string"
        },
        {
          "internalType": "uint256",
          "name": "power",
          "type": "uint256"
        },
        {
          "internalType": "uint256",
          "name": "archerBonus",
          "type": "uint256"
        },
        {
          "internalType": "uint256",
          "name": "cavalryBonus",
          "type": "uint256"
        },
        {
          "internalType": "bool",
          "name": "canBattle",
          "type": "bool"
        }
      ],
      "stateMutability": "view",
      "type": "function"
    },
    {
      "inputs": [
        {
          "internalType": "string",
          "name": "name",
          "type": "string"
        }
      ],
      "name": "createKhanate",
      "outputs": [],
      "stateMutability": "nonpayable",
      "type": "function"
    },
    {
      "inputs": [
        {
          "internalType": "uint256",
          "name": "battleId",
          "type": "uint256"
        }
      ],
      "name": "executeBattle",
      "outputs": [],
      "stateMutability": "nonpayable",
      "type": "function"
    },
    {
      "inputs": [],
      "name": "getActiveKhanates",
      "outputs": [
        {
          "internalType": "address[]",
          "name": "",
          "type": "address[]"
        }
      ],
      "stateMutability": "view",
      "type": "function"
    },
    {
      "inputs": [
        {
          "internalType": "uint256",
          "name": "batyrId",
          "type": "uint256"
        }
      ],
      "name": "getBatyrStats",
      "outputs": [
        {
          "internalType": "string",
          "name": "name",
          "type": "string"
        },
        {
          "internalType": "string",
          "name": "ability",
          "type": "string"
        },
        {
          "internalType": "string",
          "name": "description",
          "type": "string"
        },
        {
          "internalType": "uint256",
          "name": "power",
          "type": "uint256"
        },
        {
          "internalType": "uint256",
          "name": "archerBonus",
          "type": "uint256"
        },
        {
          "internalType": "uint256",
          "name": "cavalryBonus",
          "type": "uint256"
        },
        {
          "internalType": "bool",
          "name": "canBattle",
          "type": "bool"
        }
      ],
      "stateMutability": "view",
      "type": "function"
    },
    {
      "inputs": [
        {
          "internalType": "address",
          "name": "player",
          "type": "address"
        }
      ],
      "name": "getKhanateStats",
      "outputs": [
        {
          "internalType": "string",
          "name": "name",
          "type": "string"
        },
        {
          "internalType": "uint256",
          "name": "level",
          "type": "uint256"
        },
        {
          "internalType": "uint256",
          "name": "archers",
          "type": "uint256"
        },
        {
          "internalType": "uint256",
          "name": "cavalry",
          "type": "uint256"
        },
        {
          "internalType": "uint256",
          "name": "experience",
          "type": "uint256"
        },
        {
          "internalType": "uint256",
          "name": "wins",
          "type": "uint256"
        },
        {
          "internalType": "uint256",
          "name": "losses",
          "type": "uint256"
        }
      ],
      "stateMutability": "view",
      "type": "function"
    },
    {
      "inputs": [
        {
          "internalType": "uint256",
          "name": "start",
          "type": "uint256"
        },
        {
          "internalType": "uint256",
          "name": "end",
          "type": "uint256"
        }
      ],
      "name": "getKhanatesByRange",
      "outputs": [
        {
          "internalType": "address[]",
          "name": "addresses",
          "type": "address[]"
        },
        {
          "internalType": "string[]",
          "name": "names",
          "type": "string[]"
        },
        {
          "internalType": "uint256[]",
          "name": "levels",
          "type": "uint256[]"
        },
        {
          "internalType": "uint256[]",
          "name": "archerCounts",
          "type": "uint256[]"
        },
        {
          "internalType": "uint256[]",
          "name": "cavalryCounts",
          "type": "uint256[]"
        }
      ],
      "stateMutability": "view",
      "type": "function"
    },
    {
      "inputs": [
        {
          "internalType": "address",
          "name": "player",
          "type": "address"
        }
      ],
      "name": "getPlayerStats",
      "outputs": [
        {
          "internalType": "bool",
          "name": "FIRST_BLOOD",
          "type": "bool"
        },
        {
          "internalType": "bool",
          "name": "VETERAN",
          "type": "bool"
        },
        {
          "internalType": "bool",
          "name": "WARLORD",
          "type": "bool"
        },
        {
          "internalType": "bool",
          "name": "DEFENDER",
          "type": "bool"
        },
        {
          "internalType": "bool",
          "name": "COLLECTOR",
          "type": "bool"
        }
      ],
      "stateMutability": "view",
      "type": "function"
    },
    {
      "inputs": [
        {
          "internalType": "address",
          "name": "player",
          "type": "address"
        },
        {
          "internalType": "uint256",
          "name": "batyrId",
          "type": "uint256"
        }
      ],
      "name": "hasBatyr",
      "outputs": [
        {
          "internalType": "bool",
          "name": "",
          "type": "bool"
        }
      ],
      "stateMutability": "view",
      "type": "function"
    },
    {
      "inputs": [
        {
          "internalType": "address",
          "name": "defender",
          "type": "address"
        }
      ],
      "name": "initiateBattle",
      "outputs": [],
      "stateMutability": "nonpayable",
      "type": "function"
    },
    {
      "inputs": [
        {
          "internalType": "address",
          "name": "",
          "type": "address"
        }
      ],
      "name": "khanates",
      "outputs": [
        {
          "internalType": "string",
          "name": "name",
          "type": "string"
        },
        {
          "internalType": "uint256",
          "name": "level",
          "type": "uint256"
        },
        {
          "internalType": "uint256",
          "name": "archers",
          "type": "uint256"
        },
        {
          "internalType": "uint256",
          "name": "cavalry",
          "type": "uint256"
        },
        {
          "internalType": "uint256",
          "name": "experience",
          "type": "uint256"
        },
        {
          "internalType": "uint256",
          "name": "wins",
          "type": "uint256"
        },
        {
          "internalType": "uint256",
          "name": "losses",
          "type": "uint256"
        },
        {
          "internalType": "uint256",
          "name": "successfulDefenses",
          "type": "uint256"
        },
        {
          "internalType": "bool",
          "name": "initialized",
          "type": "bool"
        }
      ],
      "stateMutability": "view",
      "type": "function"
    },
    {
      "inputs": [
        {
          "internalType": "address",
          "name": "",
          "type": "address"
        },
        {
          "internalType": "uint256",
          "name": "",
          "type": "uint256"
        }
      ],
      "name": "ownedBatyrs",
      "outputs": [
        {
          "internalType": "bool",
          "name": "",
          "type": "bool"
        }
      ],
      "stateMutability": "view",
      "type": "function"
    },
    {
      "inputs": [],
      "name": "purchaseLuckyBox",
      "outputs": [],
      "stateMutability": "payable",
      "type": "function"
    },
    {
      "inputs": [
        {
          "internalType": "uint256",
          "name": "archerAmount",
          "type": "uint256"
        },
        {
          "internalType": "uint256",
          "name": "cavalryAmount",
          "type": "uint256"
        }
      ],
      "name": "purchaseTroops",
      "outputs": [],
      "stateMutability": "payable",
      "type": "function"
    },
    {
      "inputs": [
        {
          "internalType": "address",
          "name": "khanateAddress",
          "type": "address"
        }
      ],
      "name": "removeInactiveKhanate",
      "outputs": [],
      "stateMutability": "nonpayable",
      "type": "function"
    },
    {
      "inputs": [
        {
          "internalType": "uint256",
          "name": "battleId",
          "type": "uint256"
        }
      ],
      "name": "speedUpBattle",
      "outputs": [],
      "stateMutability": "payable",
      "type": "function"
    }
  ],
  "bytecode": "0x60806040523480156200001157600080fd5b5060016000819055506040518060e001604052806040518060400160405280600e81526020017f4b6162616e62617920426174797200000000000000000000000000000000000081525081526020016040518060400160405280601181526020017f4d6173746572205374726174656769737400000000000000000000000000000081525081526020016040518060600160405280602e815260200162005f37602e91398152602001606481526020016078815260200160788152602001600115158152506008600060018152602001908152602001600020600082015181600001908162000101919062000973565b50602082015181600101908162000119919062000973565b50604082015181600201908162000131919062000973565b50606082015181600301556080820151816004015560a0820151816005015560c08201518160060160006101000a81548160ff0219169083151502179055509050506040518060e001604052806040518060400160405280600e81526020017f426f67656e62616920426174797200000000000000000000000000000000000081525081526020016040518060400160405280601081526020017f41726368657220436f6d6d616e64657200000000000000000000000000000000815250815260200160405180606001604052806021815260200162005f1660219139815260200160508152602001609681526020016064815260200160011515815250600860006002815260200190815260200160002060008201518160000190816200025a919062000973565b50602082015181600101908162000272919062000973565b5060408201518160020190816200028a919062000973565b50606082015181600301556080820151816004015560a0820151816005015560c08201518160060160006101000a81548160ff0219169083151502179055509050506040518060e001604052806040518060400160405280600f81526020017f4e617572797a626169204261747972000000000000000000000000000000000081525081526020016040518060400160405280600e81526020017f436176616c7279204d6173746572000000000000000000000000000000000000815250815260200160405180606001604052806022815260200162005f656022913981526020016050815260200160648152602001609681526020016001151581525060086000600381526020019081526020016000206000820151816000019081620003b3919062000973565b506020820151816001019081620003cb919062000973565b506040820151816002019081620003e3919062000973565b50606082015181600301556080820151816004015560a0820151816005015560c08201518160060160006101000a81548160ff0219169083151502179055509050506040518060e001604052806040518060400160405280600d81526020017f4b6172617361692042617479720000000000000000000000000000000000000081525081526020016040518060400160405280601081526020017f446566656e736976652045787065727400000000000000000000000000000000815250815260200160405180606001604052806021815260200162005ef560219139815260200160788152602001606e8152602001606e815260200160001515815250600860006004815260200190815260200160002060008201518160000190816200050c919062000973565b50602082015181600101908162000524919062000973565b5060408201518160020190816200053c919062000973565b50606082015181600301556080820151816004015560a0820151816005015560c08201518160060160006101000a81548160ff0219169083151502179055509050506040518060e001604052806040518060400160405280600e81526020017f5a68616e6962656b20426174797200000000000000000000000000000000000081525081526020016040518060400160405280600e81526020017f456c69746520477561726469616e00000000000000000000000000000000000081525081526020016040518060400160405280601e81526020017f53757072656d6520646566656e73697665206361706162696c697469657300008152508152602001609681526020016064815260200160648152602001600015158152506008600060058152602001908152602001600020600082015181600001908162000681919062000973565b50602082015181600101908162000699919062000973565b506040820151816002019081620006b1919062000973565b50606082015181600301556080820151816004015560a0820151816005015560c08201518160060160006101000a81548160ff02191690831515021790555090505062000a5a565b600081519050919050565b7f4e487b7100000000000000000000000000000000000000000000000000000000600052604160045260246000fd5b7f4e487b7100000000000000000000000000000000000000000000000000000000600052602260045260246000fd5b600060028204905060018216806200077b57607f821691505b60208210810362000791576200079062000733565b5b50919050565b60008190508160005260206000209050919050565b60006020601f8301049050919050565b600082821b905092915050565b600060088302620007fb7fffffffffffffffffffffffffffffffffffffffffffffffffffffffffffffffff82620007bc565b620008078683620007bc565b95508019841693508086168417925050509392505050565b6000819050919050565b6000819050919050565b6000620008546200084e62000848846200081f565b62000829565b6200081f565b9050919050565b6000819050919050565b620008708362000833565b620008886200087f826200085b565b848454620007c9565b825550505050565b600090565b6200089f62000890565b620008ac81848462000865565b505050565b5b81811015620008d457620008c860008262000895565b600181019050620008b2565b5050565b601f8211156200092357620008ed8162000797565b620008f884620007ac565b8101602085101562000908578190505b620009206200091785620007ac565b830182620008b1565b50505b505050565b600082821c905092915050565b6000620009486000198460080262000928565b1980831691505092915050565b600062000963838362000935565b9150826002028217905092915050565b6200097e82620006f9565b67ffffffffffffffff8111156200099a576200099962000704565b5b620009a6825462000762565b620009b3828285620008d8565b600060209050601f831160018114620009eb5760008415620009d6578287015190505b620009e2858262000955565b86555062000a52565b601f198416620009fb8662000797565b60005b8281101562000a2557848901518255600182019150602085019450602081019050620009fe565b8683101562000a45578489015162000a41601f89168262000935565b8355505b6001600288020188555050505b505050505050565b61548b8062000a6a6000396000f3fe6080604052600436106101405760003560e01c806354258088116100b65780638602eebf1161006f5780638602eebf14610490578063c1c063eb146104d3578063dfad625714610516578063e0f83f2114610532578063ee52f8f31461055d578063fd0a5d9b1461059e57610140565b806354258088146103645780635dcee8941461038f5780635e474b76146103cc5780636011515c146103f75780636759bbab146104225780636b4faeca1461044b57610140565b80633b42f248116101085780633b42f248146101fa5780633dde60c2146102375780633f43069514610262578063409195e1146102a55780634fd66eae146102e257806350755be81461032357610140565b80630c1cdb6d146101455780631504f5cd1461016e57806321ec18e114610197578063232e096d146101b35780633a0de743146101f0575b600080fd5b34801561015157600080fd5b5061016c60048036038101906101679190613c0f565b6105c7565b005b34801561017a57600080fd5b5061019560048036038101906101909190613c8e565b6108ac565b005b6101b160048036038101906101ac9190613c8e565b610b65565b005b3480156101bf57600080fd5b506101da60048036038101906101d59190613d19565b610d5c565b6040516101e79190613d74565b60405180910390f35b6101f8610dc4565b005b34801561020657600080fd5b50610221600480360381019061021c9190613d19565b6111a9565b60405161022e9190613d74565b60405180910390f35b34801561024357600080fd5b5061024c6111d8565b6040516102599190613d9e565b60405180910390f35b34801561026e57600080fd5b5061028960048036038101906102849190613db9565b6111e3565b60405161029c9796959493929190613e65565b60405180910390f35b3480156102b157600080fd5b506102cc60048036038101906102c79190613c8e565b6113fc565b6040516102d99190613eea565b60405180910390f35b3480156102ee57600080fd5b5061030960048036038101906103049190613db9565b61143b565b60405161031a959493929190613f05565b60405180910390f35b34801561032f57600080fd5b5061034a60048036038101906103459190613f58565b611659565b60405161035b959493929190614220565b60405180910390f35b34801561037057600080fd5b50610379611a6e565b6040516103869190613d9e565b60405180910390f35b34801561039b57600080fd5b506103b660048036038101906103b19190614296565b611a7a565b6040516103c39190613d74565b60405180910390f35b3480156103d857600080fd5b506103e1611abf565b6040516103ee91906142f2565b60405180910390f35b34801561040357600080fd5b5061040c611b4d565b6040516104199190613d9e565b60405180910390f35b34801561042e57600080fd5b5061044960048036038101906104449190613db9565b611b58565b005b34801561045757600080fd5b50610472600480360381019061046d9190613db9565b611ec8565b60405161048799989796959493929190614314565b60405180910390f35b34801561049c57600080fd5b506104b760048036038101906104b29190613c8e565b611fab565b6040516104ca97969594939291906143a8565b60405180910390f35b3480156104df57600080fd5b506104fa60048036038101906104f59190613c8e565b612192565b60405161050d97969594939291906143a8565b60405180910390f35b610530600480360381019061052b9190613f58565b61243b565b005b34801561053e57600080fd5b506105476126a3565b6040516105549190613d9e565b60405180910390f35b34801561056957600080fd5b50610584600480360381019061057f9190613c8e565b6126af565b60405161059595949392919061442c565b60405180910390f35b3480156105aa57600080fd5b506105c560048036038101906105c09190613db9565b612732565b005b600360003373ffffffffffffffffffffffffffffffffffffffff1673ffffffffffffffffffffffffffffffffffffffff16815260200190815260200160002060080160009054906101000a900460ff1615610657576040517f08c379a000000000000000000000000000000000000000000000000000000000815260040161064e906144cb565b60405180910390fd5b600081511161069b576040517f08c379a000000000000000000000000000000000000000000000000000000000815260040161069290614537565b60405180910390fd5b60405180610120016040528082815260200160018152602001600a8152602001600581526020016000815260200160008152602001600081526020016000815260200160011515815250600360003373ffffffffffffffffffffffffffffffffffffffff1673ffffffffffffffffffffffffffffffffffffffff16815260200190815260200160002060008201518160000190816107399190614763565b506020820151816001015560408201518160020155606082015181600301556080820151816004015560a0820151816005015560c0820151816006015560e082015181600701556101008201518160080160006101000a81548160ff0219169083151502179055509050506001339080600181540180825580915050600190039060005260206000200160009091909190916101000a81548173ffffffffffffffffffffffffffffffffffffffff021916908373ffffffffffffffffffffffffffffffffffffffff160217905550600180805490506108189190614864565b600260003373ffffffffffffffffffffffffffffffffffffffff1673ffffffffffffffffffffffffffffffffffffffff168152602001908152602001600020819055503373ffffffffffffffffffffffffffffffffffffffff167f67409ced604950b5508f075f60153e7d166866a8251a44b569a7a07d7f27c3eb826040516108a19190614898565b60405180910390a250565b60006006600083815260200190815260200160002090508060030160009054906101000a900460ff1615610915576040517f08c379a000000000000000000000000000000000000000000000000000000000815260040161090c90614906565b60405180910390fd5b806004015481600201546109299190614926565b42101561096b576040517f08c379a0000000000000000000000000000000000000000000000000000000008152600401610962906149a6565b60405180910390fd5b60008160000160009054906101000a900473ffffffffffffffffffffffffffffffffffffffff16905060008260010160009054906101000a900473ffffffffffffffffffffffffffffffffffffffff16905060006109c883612b26565b905060006109d583612b26565b90506000605a60144287876040516020016109f293929190614a2f565b6040516020818303038152906040528051906020012060001c610a159190614a9b565b610a1f9190614926565b905060648184610a2f9190614acc565b610a399190614b0e565b925060018660030160006101000a81548160ff02191690831515021790555081831115610a6f57610a6a8585612ed6565b610b5c565b610a798486612ed6565b600360008573ffffffffffffffffffffffffffffffffffffffff1673ffffffffffffffffffffffffffffffffffffffff1681526020019081526020016000206007016000815480929190610acc90614b3f565b91905055506005600360008673ffffffffffffffffffffffffffffffffffffffff1673ffffffffffffffffffffffffffffffffffffffff1681526020019081526020016000206007015410610b5b57610b5a846040518060400160405280600881526020017f444546454e44455200000000000000000000000000000000000000000000000081525061389b565b5b5b50505050505050565b6000600660008381526020019081526020016000209050670429d069189e0000341015610bc7576040517f08c379a0000000000000000000000000000000000000000000000000000000008152600401610bbe90614bf9565b60405180910390fd5b3373ffffffffffffffffffffffffffffffffffffffff168160000160009054906101000a900473ffffffffffffffffffffffffffffffffffffffff1673ffffffffffffffffffffffffffffffffffffffff1614610c59576040517f08c379a0000000000000000000000000000000000000000000000000000000008152600401610c5090614c65565b60405180910390fd5b8060030160009054906101000a900460ff1615610cab576040517f08c379a0000000000000000000000000000000000000000000000000000000008152600401610ca290614906565b60405180910390fd5b7f1e372b79674f198909a4f4ee1416fd2c6e8dcd6ae23ceb1593d2ed32264d8d2e8233604051610cdc929190614c85565b60405180910390a1610ced826108ac565b670429d069189e0000341115610d58573373ffffffffffffffffffffffffffffffffffffffff166108fc670429d069189e000034610d2b9190614864565b9081150290604051600060405180830381858888f19350505050158015610d56573d6000803e3d6000fd5b505b5050565b6000600460008473ffffffffffffffffffffffffffffffffffffffff1673ffffffffffffffffffffffffffffffffffffffff168152602001908152602001600020600083815260200190815260200160002060009054906101000a900460ff16905092915050565b600360003373ffffffffffffffffffffffffffffffffffffffff1673ffffffffffffffffffffffffffffffffffffffff16815260200190815260200160002060080160009054906101000a900460ff16610e53576040517f08c379a0000000000000000000000000000000000000000000000000000000008152600401610e4a90614cfa565b60405180910390fd5b67016345785d8a0000341015610e9e576040517f08c379a0000000000000000000000000000000000000000000000000000000008152600401610e9590614d66565b60405180910390fd5b600060644233604051602001610eb5929190614d86565b6040516020818303038152906040528051906020012060001c610ed89190614a9b565b9050601481101561113b57600060016005423385604051602001610efe93929190614db2565b6040516020818303038152906040528051906020012060001c610f219190614a9b565b610f2b9190614926565b9050600460003373ffffffffffffffffffffffffffffffffffffffff1673ffffffffffffffffffffffffffffffffffffffff168152602001908152602001600020600082815260200190815260200160002060009054906101000a900460ff16611139576001600460003373ffffffffffffffffffffffffffffffffffffffff1673ffffffffffffffffffffffffffffffffffffffff168152602001908152602001600020600083815260200190815260200160002060006101000a81548160ff0219169083151502179055503373ffffffffffffffffffffffffffffffffffffffff167fc78cd494272180e0c224c92ca5bedd58597e9f5494e17a757b031988d4b6372c8260086000858152602001908152602001600020600001604051611055929190614e73565b60405180910390a26000600190506000600190505b600581116110f057600460003373ffffffffffffffffffffffffffffffffffffffff1673ffffffffffffffffffffffffffffffffffffffff168152602001908152602001600020600082815260200190815260200160002060009054906101000a900460ff166110dd57600091506110f0565b80806110e890614b3f565b91505061106a565b50801561113757611136336040518060400160405280600981526020017f434f4c4c4543544f52000000000000000000000000000000000000000000000081525061389b565b5b505b505b67016345785d8a00003411156111a6573373ffffffffffffffffffffffffffffffffffffffff166108fc67016345785d8a0000346111799190614864565b9081150290604051600060405180830381858888f193505050501580156111a4573d6000803e3d6000fd5b505b50565b60046020528160005260406000206020528060005260406000206000915091509054906101000a900460ff1681565b662386f26fc1000081565b6060600080600080600080600360008973ffffffffffffffffffffffffffffffffffffffff1673ffffffffffffffffffffffffffffffffffffffff16815260200190815260200160002060080160009054906101000a900460ff1661127d576040517f08c379a000000000000000000000000000000000000000000000000000000000815260040161127490614cfa565b60405180910390fd5b6000600360008a73ffffffffffffffffffffffffffffffffffffffff1673ffffffffffffffffffffffffffffffffffffffff168152602001908152602001600020604051806101200160405290816000820180546112da90614586565b80601f016020809104026020016040519081016040528092919081815260200182805461130690614586565b80156113535780601f1061132857610100808354040283529160200191611353565b820191906000526020600020905b81548152906001019060200180831161133657829003601f168201915b50505050508152602001600182015481526020016002820154815260200160038201548152602001600482015481526020016005820154815260200160068201548152602001600782015481526020016008820160009054906101000a900460ff1615151515815250509050806000015181602001518260400151836060015184608001518560a001518660c00151975097509750975097509750975050919395979092949650565b6001818154811061140c57600080fd5b906000526020600020016000915054906101000a900473ffffffffffffffffffffffffffffffffffffffff1681565b6000806000806000600560008773ffffffffffffffffffffffffffffffffffffffff1673ffffffffffffffffffffffffffffffffffffffff16815260200190815260200160002060405161148e90614efa565b908152602001604051809103902060009054906101000a900460ff16600560008873ffffffffffffffffffffffffffffffffffffffff1673ffffffffffffffffffffffffffffffffffffffff1681526020019081526020016000206040516114f590614f5b565b908152602001604051809103902060009054906101000a900460ff16600560008973ffffffffffffffffffffffffffffffffffffffff1673ffffffffffffffffffffffffffffffffffffffff16815260200190815260200160002060405161155c90614fbc565b908152602001604051809103902060009054906101000a900460ff16600560008a73ffffffffffffffffffffffffffffffffffffffff1673ffffffffffffffffffffffffffffffffffffffff1681526020019081526020016000206040516115c39061501d565b908152602001604051809103902060009054906101000a900460ff16600560008b73ffffffffffffffffffffffffffffffffffffffff1673ffffffffffffffffffffffffffffffffffffffff16815260200190815260200160002060405161162a9061507e565b908152602001604051809103902060009054906101000a900460ff169450945094509450945091939590929450565b6060806060806060858711158015611675575060018054905086105b6116b4576040517f08c379a00000000000000000000000000000000000000000000000000000000081526004016116ab906150df565b60405180910390fd5b6000600188886116c49190614864565b6116ce9190614926565b90508067ffffffffffffffff8111156116ea576116e9613ae4565b5b6040519080825280602002602001820160405280156117185781602001602082028036833780820191505090505b5095508067ffffffffffffffff81111561173557611734613ae4565b5b60405190808252806020026020018201604052801561176857816020015b60608152602001906001900390816117535790505b5094508067ffffffffffffffff81111561178557611784613ae4565b5b6040519080825280602002602001820160405280156117b35781602001602082028036833780820191505090505b5093508067ffffffffffffffff8111156117d0576117cf613ae4565b5b6040519080825280602002602001820160405280156117fe5781602001602082028036833780820191505090505b5092508067ffffffffffffffff81111561181b5761181a613ae4565b5b6040519080825280602002602001820160405280156118495781602001602082028036833780820191505090505b50915060005b81811015611a625760006001828b6118679190614926565b81548110611878576118776150ff565b5b9060005260206000200160009054906101000a900473ffffffffffffffffffffffffffffffffffffffff1690506000600360008373ffffffffffffffffffffffffffffffffffffffff1673ffffffffffffffffffffffffffffffffffffffff1681526020019081526020016000209050818984815181106118fc576118fb6150ff565b5b602002602001019073ffffffffffffffffffffffffffffffffffffffff16908173ffffffffffffffffffffffffffffffffffffffff168152505080600001805461194590614586565b80601f016020809104026020016040519081016040528092919081815260200182805461197190614586565b80156119be5780601f10611993576101008083540402835291602001916119be565b820191906000526020600020905b8154815290600101906020018083116119a157829003601f168201915b50505050508884815181106119d6576119d56150ff565b5b602002602001018190525080600101548784815181106119f9576119f86150ff565b5b6020026020010181815250508060020154868481518110611a1d57611a1c6150ff565b5b6020026020010181815250508060030154858481518110611a4157611a406150ff565b5b60200260200101818152505050508080611a5a90614b3f565b91505061184f565b50509295509295909350565b670429d069189e000081565b6005602052816000526040600020818051602081018201805184825260208301602085012081835280955050505050506000915091509054906101000a900460ff1681565b60606001805480602002602001604051908101604052809291908181526020018280548015611b4357602002820191906000526020600020905b8160009054906101000a900473ffffffffffffffffffffffffffffffffffffffff1673ffffffffffffffffffffffffffffffffffffffff1681526020019060010190808311611af9575b5050505050905090565b66470de4df82000081565b8073ffffffffffffffffffffffffffffffffffffffff163373ffffffffffffffffffffffffffffffffffffffff1614611bc6576040517f08c379a0000000000000000000000000000000000000000000000000000000008152600401611bbd9061517a565b60405180910390fd5b600360008273ffffffffffffffffffffffffffffffffffffffff1673ffffffffffffffffffffffffffffffffffffffff16815260200190815260200160002060080160009054906101000a900460ff16611c55576040517f08c379a0000000000000000000000000000000000000000000000000000000008152600401611c4c90614cfa565b60405180910390fd5b6000600260008373ffffffffffffffffffffffffffffffffffffffff1673ffffffffffffffffffffffffffffffffffffffff168152602001908152602001600020549050600060018080549050611cac9190614864565b9050808214611d9b57600060018281548110611ccb57611cca6150ff565b5b9060005260206000200160009054906101000a900473ffffffffffffffffffffffffffffffffffffffff1690508060018481548110611d0d57611d0c6150ff565b5b9060005260206000200160006101000a81548173ffffffffffffffffffffffffffffffffffffffff021916908373ffffffffffffffffffffffffffffffffffffffff16021790555082600260008373ffffffffffffffffffffffffffffffffffffffff1673ffffffffffffffffffffffffffffffffffffffff16815260200190815260200160002081905550505b6001805480611dad57611dac61519a565b5b6001900381819060005260206000200160006101000a81549073ffffffffffffffffffffffffffffffffffffffff02191690559055600260008473ffffffffffffffffffffffffffffffffffffffff1673ffffffffffffffffffffffffffffffffffffffff16815260200190815260200160002060009055600360008473ffffffffffffffffffffffffffffffffffffffff1673ffffffffffffffffffffffffffffffffffffffff16815260200190815260200160002060008082016000611e759190613a58565b60018201600090556002820160009055600382016000905560048201600090556005820160009055600682016000905560078201600090556008820160006101000a81549060ff02191690555050505050565b6003602052806000526040600020600091509050806000018054611eeb90614586565b80601f0160208091040260200160405190810160405280929190818152602001828054611f1790614586565b8015611f645780601f10611f3957610100808354040283529160200191611f64565b820191906000526020600020905b815481529060010190602001808311611f4757829003601f168201915b5050505050908060010154908060020154908060030154908060040154908060050154908060060154908060070154908060080160009054906101000a900460ff16905089565b6008602052806000526040600020600091509050806000018054611fce90614586565b80601f0160208091040260200160405190810160405280929190818152602001828054611ffa90614586565b80156120475780601f1061201c57610100808354040283529160200191612047565b820191906000526020600020905b81548152906001019060200180831161202a57829003601f168201915b50505050509080600101805461205c90614586565b80601f016020809104026020016040519081016040528092919081815260200182805461208890614586565b80156120d55780601f106120aa576101008083540402835291602001916120d5565b820191906000526020600020905b8154815290600101906020018083116120b857829003601f168201915b5050505050908060020180546120ea90614586565b80601f016020809104026020016040519081016040528092919081815260200182805461211690614586565b80156121635780601f1061213857610100808354040283529160200191612163565b820191906000526020600020905b81548152906001019060200180831161214657829003601f168201915b5050505050908060030154908060040154908060050154908060060160009054906101000a900460ff16905087565b60608060606000806000806000881180156121ae575060058811155b6121ed576040517f08c379a00000000000000000000000000000000000000000000000000000000081526004016121e490615215565b60405180910390fd5b6000600860008a81526020019081526020016000206040518060e001604052908160008201805461221d90614586565b80601f016020809104026020016040519081016040528092919081815260200182805461224990614586565b80156122965780601f1061226b57610100808354040283529160200191612296565b820191906000526020600020905b81548152906001019060200180831161227957829003601f168201915b505050505081526020016001820180546122af90614586565b80601f01602080910402602001604051908101604052809291908181526020018280546122db90614586565b80156123285780601f106122fd57610100808354040283529160200191612328565b820191906000526020600020905b81548152906001019060200180831161230b57829003601f168201915b5050505050815260200160028201805461234190614586565b80601f016020809104026020016040519081016040528092919081815260200182805461236d90614586565b80156123ba5780601f1061238f576101008083540402835291602001916123ba565b820191906000526020600020905b81548152906001019060200180831161239d57829003601f168201915b505050505081526020016003820154815260200160048201548152602001600582015481526020016006820160009054906101000a900460ff1615151515815250509050806000015181602001518260400151836060015184608001518560a001518660c00151975097509750975097509750975050919395979092949650565b600360003373ffffffffffffffffffffffffffffffffffffffff1673ffffffffffffffffffffffffffffffffffffffff16815260200190815260200160002060080160009054906101000a900460ff166124ca576040517f08c379a00000000000000000000000000000000000000000000000000000000081526004016124c190614cfa565b60405180910390fd5b600066470de4df820000826124df9190614acc565b662386f26fc10000846124f29190614acc565b6124fc9190614926565b905080341015612541576040517f08c379a000000000000000000000000000000000000000000000000000000000815260040161253890614d66565b60405180910390fd5b82600360003373ffffffffffffffffffffffffffffffffffffffff1673ffffffffffffffffffffffffffffffffffffffff16815260200190815260200160002060020160008282546125939190614926565b9250508190555081600360003373ffffffffffffffffffffffffffffffffffffffff1673ffffffffffffffffffffffffffffffffffffffff16815260200190815260200160002060030160008282546125ec9190614926565b925050819055503373ffffffffffffffffffffffffffffffffffffffff167faf29816cd11119a4c8c0eff4213407d9eee90e96234648827025b3dcda86af39848460405161263b929190615235565b60405180910390a28034111561269e573373ffffffffffffffffffffffffffffffffffffffff166108fc82346126719190614864565b9081150290604051600060405180830381858888f1935050505015801561269c573d6000803e3d6000fd5b505b505050565b67016345785d8a000081565b60066020528060005260406000206000915090508060000160009054906101000a900473ffffffffffffffffffffffffffffffffffffffff16908060010160009054906101000a900473ffffffffffffffffffffffffffffffffffffffff16908060020154908060030160009054906101000a900460ff16908060040154905085565b600360003373ffffffffffffffffffffffffffffffffffffffff1673ffffffffffffffffffffffffffffffffffffffff16815260200190815260200160002060080160009054906101000a900460ff166127c1576040517f08c379a00000000000000000000000000000000000000000000000000000000081526004016127b890614cfa565b60405180910390fd5b3373ffffffffffffffffffffffffffffffffffffffff168173ffffffffffffffffffffffffffffffffffffffff160361282f576040517f08c379a0000000000000000000000000000000000000000000000000000000008152600401612826906152aa565b60405180910390fd5b600360008273ffffffffffffffffffffffffffffffffffffffff1673ffffffffffffffffffffffffffffffffffffffff16815260200190815260200160002060080160009054906101000a900460ff166128be576040517f08c379a00000000000000000000000000000000000000000000000000000000081526004016128b59061533c565b60405180910390fd5b6000600360003373ffffffffffffffffffffffffffffffffffffffff1673ffffffffffffffffffffffffffffffffffffffff16815260200190815260200160002060020154118061295157506000600360003373ffffffffffffffffffffffffffffffffffffffff1673ffffffffffffffffffffffffffffffffffffffff16815260200190815260200160002060030154115b612990576040517f08c379a0000000000000000000000000000000000000000000000000000000008152600401612987906153a8565b60405180910390fd5b600061299c60076139cf565b90506129a860076139dd565b60006129b433846139f3565b90506040518060a001604052803373ffffffffffffffffffffffffffffffffffffffff1681526020018473ffffffffffffffffffffffffffffffffffffffff168152602001428152602001600015158152602001828152506006600084815260200190815260200160002060008201518160000160006101000a81548173ffffffffffffffffffffffffffffffffffffffff021916908373ffffffffffffffffffffffffffffffffffffffff16021790555060208201518160010160006101000a81548173ffffffffffffffffffffffffffffffffffffffff021916908373ffffffffffffffffffffffffffffffffffffffff1602179055506040820151816002015560608201518160030160006101000a81548160ff021916908315150217905550608082015181600401559050507f44bbd1153f1b36a3354f2af50e8f8ceb7b4c95e46240e7547a0f73c322380d2182338584604051612b1994939291906153c8565b60405180910390a1505050565b600080600a600360008573ffffffffffffffffffffffffffffffffffffffff1673ffffffffffffffffffffffffffffffffffffffff16815260200190815260200160002060020154612b789190614acc565b905060006014600360008673ffffffffffffffffffffffffffffffffffffffff1673ffffffffffffffffffffffffffffffffffffffff16815260200190815260200160002060030154612bcb9190614acc565b905060008183612bdb9190614926565b90506000600190505b60058111612eca57600460008773ffffffffffffffffffffffffffffffffffffffff1673ffffffffffffffffffffffffffffffffffffffff168152602001908152602001600020600082815260200190815260200160002060009054906101000a900460ff1615612eb7576000600860008381526020019081526020016000206040518060e0016040529081600082018054612c7f90614586565b80601f0160208091040260200160405190810160405280929190818152602001828054612cab90614586565b8015612cf85780601f10612ccd57610100808354040283529160200191612cf8565b820191906000526020600020905b815481529060010190602001808311612cdb57829003601f168201915b50505050508152602001600182018054612d1190614586565b80601f0160208091040260200160405190810160405280929190818152602001828054612d3d90614586565b8015612d8a5780601f10612d5f57610100808354040283529160200191612d8a565b820191906000526020600020905b815481529060010190602001808311612d6d57829003601f168201915b50505050508152602001600282018054612da390614586565b80601f0160208091040260200160405190810160405280929190818152602001828054612dcf90614586565b8015612e1c5780601f10612df157610100808354040283529160200191612e1c565b820191906000526020600020905b815481529060010190602001808311612dff57829003601f168201915b505050505081526020016003820154815260200160048201548152602001600582015481526020016006820160009054906101000a900460ff16151515158152505090508060c0015115612eb5576064816080015186612e7c9190614acc565b612e869190614b0e565b945060648160a0015185612e9a9190614acc565b612ea49190614b0e565b93508385612eb29190614926565b92505b505b8080612ec290614b3f565b915050612be4565b50809350505050919050565b60006064905080600360008573ffffffffffffffffffffffffffffffffffffffff1673ffffffffffffffffffffffffffffffffffffffff1681526020019081526020016000206004016000828254612f2e9190614926565b92505081905550600360008473ffffffffffffffffffffffffffffffffffffffff1673ffffffffffffffffffffffffffffffffffffffff1681526020019081526020016000206005016000815480929190612f8890614b3f565b9190505550600360008373ffffffffffffffffffffffffffffffffffffffff1673ffffffffffffffffffffffffffffffffffffffff1681526020019081526020016000206006016000815480929190612fe090614b3f565b91905055506000806000806064600f600360008a73ffffffffffffffffffffffffffffffffffffffff1673ffffffffffffffffffffffffffffffffffffffff1681526020019081526020016000206002015461303c9190614acc565b6130469190614b0e565b93506064600f600360008a73ffffffffffffffffffffffffffffffffffffffff1673ffffffffffffffffffffffffffffffffffffffff168152602001908152602001600020600301546130999190614acc565b6130a39190614b0e565b925060646032600360008973ffffffffffffffffffffffffffffffffffffffff1673ffffffffffffffffffffffffffffffffffffffff168152602001908152602001600020600201546130f69190614acc565b6131009190614b0e565b915060646032600360008973ffffffffffffffffffffffffffffffffffffffff1673ffffffffffffffffffffffffffffffffffffffff168152602001908152602001600020600301546131539190614acc565b61315d9190614b0e565b905083600360008973ffffffffffffffffffffffffffffffffffffffff1673ffffffffffffffffffffffffffffffffffffffff16815260200190815260200160002060020154116131af5760006131fe565b83600360008973ffffffffffffffffffffffffffffffffffffffff1673ffffffffffffffffffffffffffffffffffffffff168152602001908152602001600020600201546131fd9190614864565b5b600360008973ffffffffffffffffffffffffffffffffffffffff1673ffffffffffffffffffffffffffffffffffffffff1681526020019081526020016000206002018190555082600360008973ffffffffffffffffffffffffffffffffffffffff1673ffffffffffffffffffffffffffffffffffffffff16815260200190815260200160002060030154116132945760006132e3565b82600360008973ffffffffffffffffffffffffffffffffffffffff1673ffffffffffffffffffffffffffffffffffffffff168152602001908152602001600020600301546132e29190614864565b5b600360008973ffffffffffffffffffffffffffffffffffffffff1673ffffffffffffffffffffffffffffffffffffffff1681526020019081526020016000206003018190555081600360008873ffffffffffffffffffffffffffffffffffffffff1673ffffffffffffffffffffffffffffffffffffffff16815260200190815260200160002060020154116133795760006133c8565b81600360008873ffffffffffffffffffffffffffffffffffffffff1673ffffffffffffffffffffffffffffffffffffffff168152602001908152602001600020600201546133c79190614864565b5b600360008873ffffffffffffffffffffffffffffffffffffffff1673ffffffffffffffffffffffffffffffffffffffff1681526020019081526020016000206002018190555080600360008873ffffffffffffffffffffffffffffffffffffffff1673ffffffffffffffffffffffffffffffffffffffff168152602001908152602001600020600301541161345e5760006134ad565b80600360008873ffffffffffffffffffffffffffffffffffffffff1673ffffffffffffffffffffffffffffffffffffffff168152602001908152602001600020600301546134ac9190614864565b5b600360008873ffffffffffffffffffffffffffffffffffffffff1673ffffffffffffffffffffffffffffffffffffffff168152602001908152602001600020600301819055505b6064600360008973ffffffffffffffffffffffffffffffffffffffff1673ffffffffffffffffffffffffffffffffffffffff168152602001908152602001600020600101546135439190614acc565b600360008973ffffffffffffffffffffffffffffffffffffffff1673ffffffffffffffffffffffffffffffffffffffff168152602001908152602001600020600401541061368f576064600360008973ffffffffffffffffffffffffffffffffffffffff1673ffffffffffffffffffffffffffffffffffffffff168152602001908152602001600020600101546135da9190614acc565b600360008973ffffffffffffffffffffffffffffffffffffffff1673ffffffffffffffffffffffffffffffffffffffff168152602001908152602001600020600401600082825461362b9190614864565b92505081905550600360008873ffffffffffffffffffffffffffffffffffffffff1673ffffffffffffffffffffffffffffffffffffffff168152602001908152602001600020600101600081548092919061368590614b3f565b91905055506134f4565b6001600360008973ffffffffffffffffffffffffffffffffffffffff1673ffffffffffffffffffffffffffffffffffffffff168152602001908152602001600020600501540361371957613718876040518060400160405280600b81526020017f46495253545f424c4f4f4400000000000000000000000000000000000000000081525061389b565b5b600a600360008973ffffffffffffffffffffffffffffffffffffffff1673ffffffffffffffffffffffffffffffffffffffff16815260200190815260200160002060050154036137a3576137a2876040518060400160405280600781526020017f5645544552414e0000000000000000000000000000000000000000000000000081525061389b565b5b6032600360008973ffffffffffffffffffffffffffffffffffffffff1673ffffffffffffffffffffffffffffffffffffffff168152602001908152602001600020600501540361382d5761382c876040518060400160405280600781526020017f5741524c4f52440000000000000000000000000000000000000000000000000081525061389b565b5b8573ffffffffffffffffffffffffffffffffffffffff168773ffffffffffffffffffffffffffffffffffffffff167f081ed76c4c071d6097731876fc5abf74d14653d1900d984ce23fe568f23448fa8760405161388a9190613d9e565b60405180910390a350505050505050565b600560008373ffffffffffffffffffffffffffffffffffffffff1673ffffffffffffffffffffffffffffffffffffffff168152602001908152602001600020816040516138e8919061543e565b908152602001604051809103902060009054906101000a900460ff166139cb576001600560008473ffffffffffffffffffffffffffffffffffffffff1673ffffffffffffffffffffffffffffffffffffffff16815260200190815260200160002082604051613957919061543e565b908152602001604051809103902060006101000a81548160ff0219169083151502179055508173ffffffffffffffffffffffffffffffffffffffff167fca8c9accce1ea9b1e88e76d666c26849f39052a6344521346b739cdd29ad4ae6826040516139c29190614898565b60405180910390a25b5050565b600081600001549050919050565b6001816000016000828254019250508190555050565b6000808273ffffffffffffffffffffffffffffffffffffffff168473ffffffffffffffffffffffffffffffffffffffff16189050606481613a349190614a9b565b9050600181613a439190614acc565b601e613a4f9190614926565b91505092915050565b508054613a6490614586565b6000825580601f10613a765750613a95565b601f016020900490600052602060002090810190613a949190613a98565b5b50565b5b80821115613ab1576000816000905550600101613a99565b5090565b6000604051905090565b600080fd5b600080fd5b600080fd5b600080fd5b6000601f19601f8301169050919050565b7f4e487b7100000000000000000000000000000000000000000000000000000000600052604160045260246000fd5b613b1c82613ad3565b810181811067ffffffffffffffff82111715613b3b57613b3a613ae4565b5b80604052505050565b6000613b4e613ab5565b9050613b5a8282613b13565b919050565b600067ffffffffffffffff821115613b7a57613b79613ae4565b5b613b8382613ad3565b9050602081019050919050565b82818337600083830152505050565b6000613bb2613bad84613b5f565b613b44565b905082815260208101848484011115613bce57613bcd613ace565b5b613bd9848285613b90565b509392505050565b600082601f830112613bf657613bf5613ac9565b5b8135613c06848260208601613b9f565b91505092915050565b600060208284031215613c2557613c24613abf565b5b600082013567ffffffffffffffff811115613c4357613c42613ac4565b5b613c4f84828501613be1565b91505092915050565b6000819050919050565b613c6b81613c58565b8114613c7657600080fd5b50565b600081359050613c8881613c62565b92915050565b600060208284031215613ca457613ca3613abf565b5b6000613cb284828501613c79565b91505092915050565b600073ffffffffffffffffffffffffffffffffffffffff82169050919050565b6000613ce682613cbb565b9050919050565b613cf681613cdb565b8114613d0157600080fd5b50565b600081359050613d1381613ced565b92915050565b60008060408385031215613d3057613d2f613abf565b5b6000613d3e85828601613d04565b9250506020613d4f85828601613c79565b9150509250929050565b60008115159050919050565b613d6e81613d59565b82525050565b6000602082019050613d896000830184613d65565b92915050565b613d9881613c58565b82525050565b6000602082019050613db36000830184613d8f565b92915050565b600060208284031215613dcf57613dce613abf565b5b6000613ddd84828501613d04565b91505092915050565b600081519050919050565b600082825260208201905092915050565b60005b83811015613e20578082015181840152602081019050613e05565b60008484015250505050565b6000613e3782613de6565b613e418185613df1565b9350613e51818560208601613e02565b613e5a81613ad3565b840191505092915050565b600060e0820190508181036000830152613e7f818a613e2c565b9050613e8e6020830189613d8f565b613e9b6040830188613d8f565b613ea86060830187613d8f565b613eb56080830186613d8f565b613ec260a0830185613d8f565b613ecf60c0830184613d8f565b98975050505050505050565b613ee481613cdb565b82525050565b6000602082019050613eff6000830184613edb565b92915050565b600060a082019050613f1a6000830188613d65565b613f276020830187613d65565b613f346040830186613d65565b613f416060830185613d65565b613f4e6080830184613d65565b9695505050505050565b60008060408385031215613f6f57613f6e613abf565b5b6000613f7d85828601613c79565b9250506020613f8e85828601613c79565b9150509250929050565b600081519050919050565b600082825260208201905092915050565b6000819050602082019050919050565b613fcd81613cdb565b82525050565b6000613fdf8383613fc4565b60208301905092915050565b6000602082019050919050565b600061400382613f98565b61400d8185613fa3565b935061401883613fb4565b8060005b838110156140495781516140308882613fd3565b975061403b83613feb565b92505060018101905061401c565b5085935050505092915050565b600081519050919050565b600082825260208201905092915050565b6000819050602082019050919050565b600082825260208201905092915050565b600061409e82613de6565b6140a88185614082565b93506140b8818560208601613e02565b6140c181613ad3565b840191505092915050565b60006140d88383614093565b905092915050565b6000602082019050919050565b60006140f882614056565b6141028185614061565b93508360208202850161411485614072565b8060005b85811015614150578484038952815161413185826140cc565b945061413c836140e0565b925060208a01995050600181019050614118565b50829750879550505050505092915050565b600081519050919050565b600082825260208201905092915050565b6000819050602082019050919050565b61419781613c58565b82525050565b60006141a9838361418e565b60208301905092915050565b6000602082019050919050565b60006141cd82614162565b6141d7818561416d565b93506141e28361417e565b8060005b838110156142135781516141fa888261419d565b9750614205836141b5565b9250506001810190506141e6565b5085935050505092915050565b600060a082019050818103600083015261423a8188613ff8565b9050818103602083015261424e81876140ed565b9050818103604083015261426281866141c2565b9050818103606083015261427681856141c2565b9050818103608083015261428a81846141c2565b90509695505050505050565b600080604083850312156142ad576142ac613abf565b5b60006142bb85828601613d04565b925050602083013567ffffffffffffffff8111156142dc576142db613ac4565b5b6142e885828601613be1565b9150509250929050565b6000602082019050818103600083015261430c8184613ff8565b905092915050565b600061012082019050818103600083015261432f818c613e2c565b905061433e602083018b613d8f565b61434b604083018a613d8f565b6143586060830189613d8f565b6143656080830188613d8f565b61437260a0830187613d8f565b61437f60c0830186613d8f565b61438c60e0830185613d8f565b61439a610100830184613d65565b9a9950505050505050505050565b600060e08201905081810360008301526143c2818a613e2c565b905081810360208301526143d68189613e2c565b905081810360408301526143ea8188613e2c565b90506143f96060830187613d8f565b6144066080830186613d8f565b61441360a0830185613d8f565b61442060c0830184613d65565b98975050505050505050565b600060a0820190506144416000830188613edb565b61444e6020830187613edb565b61445b6040830186613d8f565b6144686060830185613d65565b6144756080830184613d8f565b9695505050505050565b7f4b68616e61746520616c72656164792065786973747300000000000000000000600082015250565b60006144b5601683613df1565b91506144c08261447f565b602082019050919050565b600060208201905081810360008301526144e4816144a8565b9050919050565b7f4e616d652063616e6e6f7420626520656d707479000000000000000000000000600082015250565b6000614521601483613df1565b915061452c826144eb565b602082019050919050565b6000602082019050818103600083015261455081614514565b9050919050565b7f4e487b7100000000000000000000000000000000000000000000000000000000600052602260045260246000fd5b6000600282049050600182168061459e57607f821691505b6020821081036145b1576145b0614557565b5b50919050565b60008190508160005260206000209050919050565b60006020601f8301049050919050565b600082821b905092915050565b6000600883026146197fffffffffffffffffffffffffffffffffffffffffffffffffffffffffffffffff826145dc565b61462386836145dc565b95508019841693508086168417925050509392505050565b6000819050919050565b600061466061465b61465684613c58565b61463b565b613c58565b9050919050565b6000819050919050565b61467a83614645565b61468e61468682614667565b8484546145e9565b825550505050565b600090565b6146a3614696565b6146ae818484614671565b505050565b5b818110156146d2576146c760008261469b565b6001810190506146b4565b5050565b601f821115614717576146e8816145b7565b6146f1846145cc565b81016020851015614700578190505b61471461470c856145cc565b8301826146b3565b50505b505050565b600082821c905092915050565b600061473a6000198460080261471c565b1980831691505092915050565b60006147538383614729565b9150826002028217905092915050565b61476c82613de6565b67ffffffffffffffff81111561478557614784613ae4565b5b61478f8254614586565b61479a8282856146d6565b600060209050601f8311600181146147cd57600084156147bb578287015190505b6147c58582614747565b86555061482d565b601f1984166147db866145b7565b60005b82811015614803578489015182556001820191506020850194506020810190506147de565b86831015614820578489015161481c601f891682614729565b8355505b6001600288020188555050505b505050505050565b7f4e487b7100000000000000000000000000000000000000000000000000000000600052601160045260246000fd5b600061486f82613c58565b915061487a83613c58565b925082820390508181111561489257614891614835565b5b92915050565b600060208201905081810360008301526148b28184613e2c565b905092915050565b7f426174746c6520616c7265616479207265736f6c766564000000000000000000600082015250565b60006148f0601783613df1565b91506148fb826148ba565b602082019050919050565b6000602082019050818103600083015261491f816148e3565b9050919050565b600061493182613c58565b915061493c83613c58565b925082820190508082111561495457614953614835565b5b92915050565b7f54726f6f7073207374696c6c2074726176656c696e6700000000000000000000600082015250565b6000614990601683613df1565b915061499b8261495a565b602082019050919050565b600060208201905081810360008301526149bf81614983565b9050919050565b6000819050919050565b6149e16149dc82613c58565b6149c6565b82525050565b60008160601b9050919050565b60006149ff826149e7565b9050919050565b6000614a11826149f4565b9050919050565b614a29614a2482613cdb565b614a06565b82525050565b6000614a3b82866149d0565b602082019150614a4b8285614a18565b601482019150614a5b8284614a18565b601482019150819050949350505050565b7f4e487b7100000000000000000000000000000000000000000000000000000000600052601260045260246000fd5b6000614aa682613c58565b9150614ab183613c58565b925082614ac157614ac0614a6c565b5b828206905092915050565b6000614ad782613c58565b9150614ae283613c58565b9250828202614af081613c58565b91508282048414831517614b0757614b06614835565b5b5092915050565b6000614b1982613c58565b9150614b2483613c58565b925082614b3457614b33614a6c565b5b828204905092915050565b6000614b4a82613c58565b91507fffffffffffffffffffffffffffffffffffffffffffffffffffffffffffffffff8203614b7c57614b7b614835565b5b600182019050919050565b7f496e73756666696369656e74207061796d656e7420666f72207370656564207560008201527f7000000000000000000000000000000000000000000000000000000000000000602082015250565b6000614be3602183613df1565b9150614bee82614b87565b604082019050919050565b60006020820190508181036000830152614c1281614bd6565b9050919050565b7f4e6f7420796f757220626174746c650000000000000000000000000000000000600082015250565b6000614c4f600f83613df1565b9150614c5a82614c19565b602082019050919050565b60006020820190508181036000830152614c7e81614c42565b9050919050565b6000604082019050614c9a6000830185613d8f565b614ca76020830184613edb565b9392505050565b7f4b68616e617465206e6f7420696e697469616c697a6564000000000000000000600082015250565b6000614ce4601783613df1565b9150614cef82614cae565b602082019050919050565b60006020820190508181036000830152614d1381614cd7565b9050919050565b7f496e73756666696369656e74207061796d656e74000000000000000000000000600082015250565b6000614d50601483613df1565b9150614d5b82614d1a565b602082019050919050565b60006020820190508181036000830152614d7f81614d43565b9050919050565b6000614d9282856149d0565b602082019150614da28284614a18565b6014820191508190509392505050565b6000614dbe82866149d0565b602082019150614dce8285614a18565b601482019150614dde82846149d0565b602082019150819050949350505050565b60008154614dfc81614586565b614e068186613df1565b94506001821660008114614e215760018114614e3757614e6a565b60ff198316865281151560200286019350614e6a565b614e40856145b7565b60005b83811015614e6257815481890152600182019150602081019050614e43565b808801955050505b50505092915050565b6000604082019050614e886000830185613d8f565b8181036020830152614e9a8184614def565b90509392505050565b600081905092915050565b7f46495253545f424c4f4f44000000000000000000000000000000000000000000600082015250565b6000614ee4600b83614ea3565b9150614eef82614eae565b600b82019050919050565b6000614f0582614ed7565b9150819050919050565b7f5645544552414e00000000000000000000000000000000000000000000000000600082015250565b6000614f45600783614ea3565b9150614f5082614f0f565b600782019050919050565b6000614f6682614f38565b9150819050919050565b7f5741524c4f524400000000000000000000000000000000000000000000000000600082015250565b6000614fa6600783614ea3565b9150614fb182614f70565b600782019050919050565b6000614fc782614f99565b9150819050919050565b7f444546454e444552000000000000000000000000000000000000000000000000600082015250565b6000615007600883614ea3565b915061501282614fd1565b600882019050919050565b600061502882614ffa565b9150819050919050565b7f434f4c4c4543544f520000000000000000000000000000000000000000000000600082015250565b6000615068600983614ea3565b915061507382615032565b600982019050919050565b60006150898261505b565b9150819050919050565b7f496e76616c69642072616e676500000000000000000000000000000000000000600082015250565b60006150c9600d83613df1565b91506150d482615093565b602082019050919050565b600060208201905081810360008301526150f8816150bc565b9050919050565b7f4e487b7100000000000000000000000000000000000000000000000000000000600052603260045260246000fd5b7f43616e206f6e6c792072656d6f7665206f776e204b68616e6174650000000000600082015250565b6000615164601b83613df1565b915061516f8261512e565b602082019050919050565b6000602082019050818103600083015261519381615157565b9050919050565b7f4e487b7100000000000000000000000000000000000000000000000000000000600052603160045260246000fd5b7f496e76616c696420426174797220494400000000000000000000000000000000600082015250565b60006151ff601083613df1565b915061520a826151c9565b602082019050919050565b6000602082019050818103600083015261522e816151f2565b9050919050565b600060408201905061524a6000830185613d8f565b6152576020830184613d8f565b9392505050565b7f43616e6e6f7420626174746c6520796f757273656c6600000000000000000000600082015250565b6000615294601683613df1565b915061529f8261525e565b602082019050919050565b600060208201905081810360008301526152c381615287565b9050919050565b7f446566656e6465722773204b68616e617465206e6f7420696e697469616c697a60008201527f6564000000000000000000000000000000000000000000000000000000000000602082015250565b6000615326602283613df1565b9150615331826152ca565b604082019050919050565b6000602082019050818103600083015261535581615319565b9050919050565b7f4e6f2074726f6f707320746f20626174746c6520776974680000000000000000600082015250565b6000615392601883613df1565b915061539d8261535c565b602082019050919050565b600060208201905081810360008301526153c181615385565b9050919050565b60006080820190506153dd6000830187613d8f565b6153ea6020830186613edb565b6153f76040830185613edb565b6154046060830184613d8f565b95945050505050565b600061541882613de6565b6154228185614ea3565b9350615432818560208601613e02565b80840191505092915050565b600061544a828461540d565b91508190509291505056fea2646970667358221220c1f525a8fb92a232b6422135ddba9c1cb3596778a617ad007fd5e119f02c741264736f6c6343000813003350726f7669646573207374726f6e6720646566656e7369766520626f6e757365735369676e69666963616e746c7920626f6f7374732061726368657220706f776572456e68616e63657320626f74682061726368657220616e6420636176616c7279206566666563746976656e6573735369676e69666963616e746c7920626f6f73747320636176616c727920706f776572",
  "linkReferences": {},
  "deployedLinkReferences": {}
}