{
  "_format": "hh-sol-artifact-1",
  "contractName": "KazakhKhanate",
  "sourceName": "contracts/KazakhKhanate.sol",
  "abi": [
    {
      "inputs": [],
      "stateMutability": "nonpayable",
      "type": "constructor"
    },
    {
      "anonymous": false,
      "inputs": [
        {
          "indexed": true,
          "internalType": "address",
          "name": "attacker",
          "type": "address"
        },
        {
          "indexed": true,
          "internalType": "address",
          "name": "defender",
          "type": "address"
        },
        {
          "indexed": false,
          "internalType": "bool",
          "name": "victory",
          "type": "bool"
        }
      ],
      "name": "BattleResult",
      "type": "event"
    },
    {
      "anonymous": false,
      "inputs": [
        {
          "indexed": true,
          "internalType": "address",
          "name": "owner",
          "type": "address"
        },
        {
          "indexed": false,
          "internalType": "uint256",
          "name": "batyrId",
          "type": "uint256"
        }
      ],
      "name": "BatyrAcquired",
      "type": "event"
    },
    {
      "anonymous": false,
      "inputs": [
        {
          "indexed": true,
          "internalType": "address",
          "name": "owner",
          "type": "address"
        },
        {
          "indexed": false,
          "internalType": "string",
          "name": "name",
          "type": "string"
        }
      ],
      "name": "KhanateCreated",
      "type": "event"
    },
    {
      "anonymous": false,
      "inputs": [
        {
          "indexed": true,
          "internalType": "address",
          "name": "previousOwner",
          "type": "address"
        },
        {
          "indexed": true,
          "internalType": "address",
          "name": "newOwner",
          "type": "address"
        }
      ],
      "name": "OwnershipTransferred",
      "type": "event"
    },
    {
      "anonymous": false,
      "inputs": [
        {
          "indexed": true,
          "internalType": "address",
          "name": "owner",
          "type": "address"
        },
        {
          "indexed": false,
          "internalType": "uint256",
          "name": "archers",
          "type": "uint256"
        },
        {
          "indexed": false,
          "internalType": "uint256",
          "name": "cavalry",
          "type": "uint256"
        }
      ],
      "name": "TroopsPurchased",
      "type": "event"
    },
    {
      "inputs": [],
      "name": "ARCHER_PRICE",
      "outputs": [
        {
          "internalType": "uint256",
          "name": "",
          "type": "uint256"
        }
      ],
      "stateMutability": "view",
      "type": "function"
    },
    {
      "inputs": [],
      "name": "CAVALRY_PRICE",
      "outputs": [
        {
          "internalType": "uint256",
          "name": "",
          "type": "uint256"
        }
      ],
      "stateMutability": "view",
      "type": "function"
    },
    {
      "inputs": [],
      "name": "LUCKY_BOX_PRICE",
      "outputs": [
        {
          "internalType": "uint256",
          "name": "",
          "type": "uint256"
        }
      ],
      "stateMutability": "view",
      "type": "function"
    },
    {
      "inputs": [
        {
          "internalType": "address",
          "name": "_opponent",
          "type": "address"
        }
      ],
      "name": "battle",
      "outputs": [],
      "stateMutability": "nonpayable",
      "type": "function"
    },
    {
      "inputs": [
        {
          "internalType": "uint256",
          "name": "",
          "type": "uint256"
        }
      ],
      "name": "batyrStats",
      "outputs": [
        {
          "internalType": "string",
          "name": "name",
          "type": "string"
        },
        {
          "internalType": "uint256",
          "name": "power",
          "type": "uint256"
        },
        {
          "internalType": "string",
          "name": "ability",
          "type": "string"
        }
      ],
      "stateMutability": "view",
      "type": "function"
    },
    {
      "inputs": [
        {
          "internalType": "string",
          "name": "_name",
          "type": "string"
        }
      ],
      "name": "createKhanate",
      "outputs": [],
      "stateMutability": "nonpayable",
      "type": "function"
    },
    {
      "inputs": [
        {
          "internalType": "address",
          "name": "_player",
          "type": "address"
        }
      ],
      "name": "getKhanateStats",
      "outputs": [
        {
          "internalType": "string",
          "name": "name",
          "type": "string"
        },
        {
          "internalType": "uint256",
          "name": "level",
          "type": "uint256"
        },
        {
          "internalType": "uint256",
          "name": "archers",
          "type": "uint256"
        },
        {
          "internalType": "uint256",
          "name": "cavalry",
          "type": "uint256"
        }
      ],
      "stateMutability": "view",
      "type": "function"
    },
    {
      "inputs": [
        {
          "internalType": "address",
          "name": "_player",
          "type": "address"
        },
        {
          "internalType": "uint256",
          "name": "_batyrId",
          "type": "uint256"
        }
      ],
      "name": "hasBatyr",
      "outputs": [
        {
          "internalType": "bool",
          "name": "",
          "type": "bool"
        }
      ],
      "stateMutability": "view",
      "type": "function"
    },
    {
      "inputs": [
        {
          "internalType": "address",
          "name": "",
          "type": "address"
        }
      ],
      "name": "khanates",
      "outputs": [
        {
          "internalType": "string",
          "name": "name",
          "type": "string"
        },
        {
          "internalType": "uint256",
          "name": "level",
          "type": "uint256"
        },
        {
          "internalType": "uint256",
          "name": "archers",
          "type": "uint256"
        },
        {
          "internalType": "uint256",
          "name": "cavalry",
          "type": "uint256"
        },
        {
          "internalType": "bool",
          "name": "isInitialized",
          "type": "bool"
        }
      ],
      "stateMutability": "view",
      "type": "function"
    },
    {
      "inputs": [],
      "name": "owner",
      "outputs": [
        {
          "internalType": "address",
          "name": "",
          "type": "address"
        }
      ],
      "stateMutability": "view",
      "type": "function"
    },
    {
      "inputs": [],
      "name": "purchaseLuckyBox",
      "outputs": [],
      "stateMutability": "payable",
      "type": "function"
    },
    {
      "inputs": [
        {
          "internalType": "uint256",
          "name": "_archers",
          "type": "uint256"
        },
        {
          "internalType": "uint256",
          "name": "_cavalry",
          "type": "uint256"
        }
      ],
      "name": "purchaseTroops",
      "outputs": [],
      "stateMutability": "payable",
      "type": "function"
    },
    {
      "inputs": [],
      "name": "renounceOwnership",
      "outputs": [],
      "stateMutability": "nonpayable",
      "type": "function"
    },
    {
      "inputs": [
        {
          "internalType": "address",
          "name": "newOwner",
          "type": "address"
        }
      ],
      "name": "transferOwnership",
      "outputs": [],
      "stateMutability": "nonpayable",
      "type": "function"
    }
  ],
  "bytecode": "0x60806040523480156200001157600080fd5b5062000032620000266200047260201b60201c565b6200047a60201b60201c565b6001808190555060405180606001604052806040518060400160405280600e81526020017f4b6162616e6261792042617479720000000000000000000000000000000000008152508152602001601e81526020016040518060400160405280601081526020017f5665727920686967682064616d6167650000000000000000000000000000000081525081525060036000600181526020019081526020016000206000820151816000019081620000ea9190620007b8565b506020820151816001015560408201518160020190816200010c9190620007b8565b5090505060405180606001604052806040518060400160405280600f81526020017f4b6f62796c616e647920426174797200000000000000000000000000000000008152508152602001601981526020016040518060400160405280601681526020017f4869676820737065656420616e6420646566656e73650000000000000000000081525081525060036000600281526020019081526020016000206000820151816000019081620001c19190620007b8565b50602082015181600101556040820151816002019081620001e39190620007b8565b5090505060405180606001604052806040518060400160405280600b81526020017f4162796c6169204b68616e0000000000000000000000000000000000000000008152508152602001601481526020016040518060400160405280601081526020017f4c65616465727368697020626f6e75730000000000000000000000000000000081525081525060036000600381526020019081526020016000206000820151816000019081620002989190620007b8565b50602082015181600101556040820151816002019081620002ba9190620007b8565b5090505060405180606001604052806040518060400160405280600e81526020017f5261696d67617a792042617479720000000000000000000000000000000000008152508152602001601681526020016040518060400160405280600f81526020017f436176616c727920636f756e7465720000000000000000000000000000000000815250815250600360006004815260200190815260200160002060008201518160000190816200036f9190620007b8565b50602082015181600101556040820151816002019081620003919190620007b8565b5090505060405180606001604052806040518060400160405280600a81526020017f5372796d204461746f76000000000000000000000000000000000000000000008152508152602001601581526020016040518060400160405280601181526020017f417263686572207370656369616c69737400000000000000000000000000000081525081525060036000600581526020019081526020016000206000820151816000019081620004469190620007b8565b50602082015181600101556040820151816002019081620004689190620007b8565b509050506200089f565b600033905090565b60008060009054906101000a900473ffffffffffffffffffffffffffffffffffffffff169050816000806101000a81548173ffffffffffffffffffffffffffffffffffffffff021916908373ffffffffffffffffffffffffffffffffffffffff1602179055508173ffffffffffffffffffffffffffffffffffffffff168173ffffffffffffffffffffffffffffffffffffffff167f8be0079c531659141344cd1fd0a4f28419497f9722a3daafe3b4186f6b6457e060405160405180910390a35050565b600081519050919050565b7f4e487b7100000000000000000000000000000000000000000000000000000000600052604160045260246000fd5b7f4e487b7100000000000000000000000000000000000000000000000000000000600052602260045260246000fd5b60006002820490506001821680620005c057607f821691505b602082108103620005d657620005d562000578565b5b50919050565b60008190508160005260206000209050919050565b60006020601f8301049050919050565b600082821b905092915050565b600060088302620006407fffffffffffffffffffffffffffffffffffffffffffffffffffffffffffffffff8262000601565b6200064c868362000601565b95508019841693508086168417925050509392505050565b6000819050919050565b6000819050919050565b600062000699620006936200068d8462000664565b6200066e565b62000664565b9050919050565b6000819050919050565b620006b58362000678565b620006cd620006c482620006a0565b8484546200060e565b825550505050565b600090565b620006e4620006d5565b620006f1818484620006aa565b505050565b5b8181101562000719576200070d600082620006da565b600181019050620006f7565b5050565b601f82111562000768576200073281620005dc565b6200073d84620005f1565b810160208510156200074d578190505b620007656200075c85620005f1565b830182620006f6565b50505b505050565b600082821c905092915050565b60006200078d600019846008026200076d565b1980831691505092915050565b6000620007a883836200077a565b9150826002028217905092915050565b620007c3826200053e565b67ffffffffffffffff811115620007df57620007de62000549565b5b620007eb8254620005a7565b620007f88282856200071d565b600060209050601f8311600181146200083057600084156200081b578287015190505b6200082785826200079a565b86555062000897565b601f1984166200084086620005dc565b60005b828110156200086a5784890151825560018201915060208501945060208101905062000843565b868310156200088a578489015162000886601f8916826200077a565b8355505b6001600288020188555050505b505050505050565b61255280620008af6000396000f3fe6080604052600436106100dd5760003560e01c80636b4faeca1161007f5780638da5cb5b116100595780638da5cb5b146102a8578063dfad6257146102d3578063e0f83f21146102ef578063f2fde38b1461031a576100dd565b80636b4faeca14610227578063715018a61461026857806371c952811461027f576100dd565b80633dde60c2116100bb5780633dde60c2146101525780633f4306951461017d57806357c86704146101bd5780636011515c146101fc576100dd565b80630c1cdb6d146100e2578063232e096d1461010b5780633a0de74314610148575b600080fd5b3480156100ee57600080fd5b50610109600480360381019061010491906117fe565b610343565b005b34801561011757600080fd5b50610132600480360381019061012d91906118db565b6104b5565b60405161013f9190611936565b60405180910390f35b61015061056f565b005b34801561015e57600080fd5b506101676107ed565b6040516101749190611960565b60405180910390f35b34801561018957600080fd5b506101a4600480360381019061019f919061197b565b6107f8565b6040516101b49493929190611a27565b60405180910390f35b3480156101c957600080fd5b506101e460048036038101906101df9190611a73565b610980565b6040516101f393929190611aa0565b60405180910390f35b34801561020857600080fd5b50610211610aba565b60405161021e9190611960565b60405180910390f35b34801561023357600080fd5b5061024e6004803603810190610249919061197b565b610ac5565b60405161025f959493929190611ae5565b60405180910390f35b34801561027457600080fd5b5061027d610b90565b005b34801561028b57600080fd5b506102a660048036038101906102a1919061197b565b610ba4565b005b3480156102b457600080fd5b506102bd61106f565b6040516102ca9190611b4e565b60405180910390f35b6102ed60048036038101906102e89190611b69565b611098565b005b3480156102fb57600080fd5b50610304611310565b6040516103119190611960565b60405180910390f35b34801561032657600080fd5b50610341600480360381019061033c919061197b565b61131c565b005b600260003373ffffffffffffffffffffffffffffffffffffffff1673ffffffffffffffffffffffffffffffffffffffff16815260200190815260200160002060050160009054906101000a900460ff16156103d3576040517f08c379a00000000000000000000000000000000000000000000000000000000081526004016103ca90611bf5565b60405180910390fd5b6000600260003373ffffffffffffffffffffffffffffffffffffffff1673ffffffffffffffffffffffffffffffffffffffff1681526020019081526020016000209050818160000190816104279190611e21565b5060018160010181905550600a81600201819055506005816003018190555060018160050160006101000a81548160ff0219169083151502179055503373ffffffffffffffffffffffffffffffffffffffff167f67409ced604950b5508f075f60153e7d166866a8251a44b569a7a07d7f27c3eb836040516104a99190611ef3565b60405180910390a25050565b600080821180156104c7575060058211155b610506576040517f08c379a00000000000000000000000000000000000000000000000000000000081526004016104fd90611f61565b60405180910390fd5b600260008473ffffffffffffffffffffffffffffffffffffffff1673ffffffffffffffffffffffffffffffffffffffff168152602001908152602001600020600401600083815260200190815260200160002060009054906101000a900460ff16905092915050565b61057761139f565b67016345785d8a00003410156105c2576040517f08c379a00000000000000000000000000000000000000000000000000000000081526004016105b990611fcd565b60405180910390fd5b600260003373ffffffffffffffffffffffffffffffffffffffff1673ffffffffffffffffffffffffffffffffffffffff16815260200190815260200160002060050160009054906101000a900460ff16610651576040517f08c379a000000000000000000000000000000000000000000000000000000000815260040161064890612039565b60405180910390fd5b6000444233604051602001610668939291906120c2565b6040516020818303038152906040528051906020012060001c90506000606482610692919061212e565b9050600a81101561077657600060016005846106ae919061212e565b6106b8919061218e565b90506001600260003373ffffffffffffffffffffffffffffffffffffffff1673ffffffffffffffffffffffffffffffffffffffff168152602001908152602001600020600401600083815260200190815260200160002060006101000a81548160ff0219169083151502179055503373ffffffffffffffffffffffffffffffffffffffff167ff877951e00dcc3cdca3128576bb85744a328db5182a4961bb6cf59cfec3095948260405161076c9190611960565b60405180910390a2505b67016345785d8a00003411156107e1573373ffffffffffffffffffffffffffffffffffffffff166108fc67016345785d8a0000346107b491906121c2565b9081150290604051600060405180830381858888f193505050501580156107df573d6000803e3d6000fd5b505b50506107eb6113ee565b565b662386f26fc1000081565b60606000806000600260008673ffffffffffffffffffffffffffffffffffffffff1673ffffffffffffffffffffffffffffffffffffffff16815260200190815260200160002060050160009054906101000a900460ff1661088e576040517f08c379a000000000000000000000000000000000000000000000000000000000815260040161088590612039565b60405180910390fd5b6000600260008773ffffffffffffffffffffffffffffffffffffffff1673ffffffffffffffffffffffffffffffffffffffff1681526020019081526020016000209050806000018160010154826002015483600301548380546108f090611c44565b80601f016020809104026020016040519081016040528092919081815260200182805461091c90611c44565b80156109695780601f1061093e57610100808354040283529160200191610969565b820191906000526020600020905b81548152906001019060200180831161094c57829003601f168201915b505050505093509450945094509450509193509193565b60036020528060005260406000206000915090508060000180546109a390611c44565b80601f01602080910402602001604051908101604052809291908181526020018280546109cf90611c44565b8015610a1c5780601f106109f157610100808354040283529160200191610a1c565b820191906000526020600020905b8154815290600101906020018083116109ff57829003601f168201915b505050505090806001015490806002018054610a3790611c44565b80601f0160208091040260200160405190810160405280929190818152602001828054610a6390611c44565b8015610ab05780601f10610a8557610100808354040283529160200191610ab0565b820191906000526020600020905b815481529060010190602001808311610a9357829003601f168201915b5050505050905083565b66470de4df82000081565b6002602052806000526040600020600091509050806000018054610ae890611c44565b80601f0160208091040260200160405190810160405280929190818152602001828054610b1490611c44565b8015610b615780601f10610b3657610100808354040283529160200191610b61565b820191906000526020600020905b815481529060010190602001808311610b4457829003601f168201915b5050505050908060010154908060020154908060030154908060050160009054906101000a900460ff16905085565b610b986113f7565b610ba26000611475565b565b600260003373ffffffffffffffffffffffffffffffffffffffff1673ffffffffffffffffffffffffffffffffffffffff16815260200190815260200160002060050160009054906101000a900460ff168015610c4c5750600260008273ffffffffffffffffffffffffffffffffffffffff1673ffffffffffffffffffffffffffffffffffffffff16815260200190815260200160002060050160009054906101000a900460ff165b610c8b576040517f08c379a0000000000000000000000000000000000000000000000000000000008152600401610c8290612242565b60405180910390fd5b3373ffffffffffffffffffffffffffffffffffffffff168173ffffffffffffffffffffffffffffffffffffffff1603610cf9576040517f08c379a0000000000000000000000000000000000000000000000000000000008152600401610cf0906122ae565b60405180910390fd5b6000610d0433611539565b90506000610d1183611539565b9050600081831190508015610ec1576001600260003373ffffffffffffffffffffffffffffffffffffffff1673ffffffffffffffffffffffffffffffffffffffff1681526020019081526020016000206001016000828254610d73919061218e565b92505081905550600a6008600260003373ffffffffffffffffffffffffffffffffffffffff1673ffffffffffffffffffffffffffffffffffffffff16815260200190815260200160002060020154610dcb91906122ce565b610dd59190612310565b600260003373ffffffffffffffffffffffffffffffffffffffff1673ffffffffffffffffffffffffffffffffffffffff16815260200190815260200160002060020181905550600a6008600260003373ffffffffffffffffffffffffffffffffffffffff1673ffffffffffffffffffffffffffffffffffffffff16815260200190815260200160002060030154610e6c91906122ce565b610e769190612310565b600260003373ffffffffffffffffffffffffffffffffffffffff1673ffffffffffffffffffffffffffffffffffffffff16815260200190815260200160002060030181905550611004565b600a6006600260003373ffffffffffffffffffffffffffffffffffffffff1673ffffffffffffffffffffffffffffffffffffffff16815260200190815260200160002060020154610f1291906122ce565b610f1c9190612310565b600260003373ffffffffffffffffffffffffffffffffffffffff1673ffffffffffffffffffffffffffffffffffffffff16815260200190815260200160002060020181905550600a6006600260003373ffffffffffffffffffffffffffffffffffffffff1673ffffffffffffffffffffffffffffffffffffffff16815260200190815260200160002060030154610fb391906122ce565b610fbd9190612310565b600260003373ffffffffffffffffffffffffffffffffffffffff1673ffffffffffffffffffffffffffffffffffffffff168152602001908152602001600020600301819055505b8373ffffffffffffffffffffffffffffffffffffffff163373ffffffffffffffffffffffffffffffffffffffff167fcd99ebcbb6c7824bebc9f9b71ce6415d1cf7515bac8c494d896f0c833620c3e1836040516110619190611936565b60405180910390a350505050565b60008060009054906101000a900473ffffffffffffffffffffffffffffffffffffffff16905090565b6110a061139f565b600260003373ffffffffffffffffffffffffffffffffffffffff1673ffffffffffffffffffffffffffffffffffffffff16815260200190815260200160002060050160009054906101000a900460ff1661112f576040517f08c379a000000000000000000000000000000000000000000000000000000000815260040161112690612039565b60405180910390fd5b600066470de4df8200008261114491906122ce565b662386f26fc100008461115791906122ce565b611161919061218e565b9050803410156111a6576040517f08c379a000000000000000000000000000000000000000000000000000000000815260040161119d90611fcd565b60405180910390fd5b82600260003373ffffffffffffffffffffffffffffffffffffffff1673ffffffffffffffffffffffffffffffffffffffff16815260200190815260200160002060020160008282546111f8919061218e565b9250508190555081600260003373ffffffffffffffffffffffffffffffffffffffff1673ffffffffffffffffffffffffffffffffffffffff1681526020019081526020016000206003016000828254611251919061218e565b925050819055503373ffffffffffffffffffffffffffffffffffffffff167faf29816cd11119a4c8c0eff4213407d9eee90e96234648827025b3dcda86af3984846040516112a0929190612341565b60405180910390a280341115611303573373ffffffffffffffffffffffffffffffffffffffff166108fc82346112d691906121c2565b9081150290604051600060405180830381858888f19350505050158015611301573d6000803e3d6000fd5b505b5061130c6113ee565b5050565b67016345785d8a000081565b6113246113f7565b600073ffffffffffffffffffffffffffffffffffffffff168173ffffffffffffffffffffffffffffffffffffffff1603611393576040517f08c379a000000000000000000000000000000000000000000000000000000000815260040161138a906123dc565b60405180910390fd5b61139c81611475565b50565b6002600154036113e4576040517f08c379a00000000000000000000000000000000000000000000000000000000081526004016113db90612448565b60405180910390fd5b6002600181905550565b60018081905550565b6113ff61169c565b73ffffffffffffffffffffffffffffffffffffffff1661141d61106f565b73ffffffffffffffffffffffffffffffffffffffff1614611473576040517f08c379a000000000000000000000000000000000000000000000000000000000815260040161146a906124b4565b60405180910390fd5b565b60008060009054906101000a900473ffffffffffffffffffffffffffffffffffffffff169050816000806101000a81548173ffffffffffffffffffffffffffffffffffffffff021916908373ffffffffffffffffffffffffffffffffffffffff1602179055508173ffffffffffffffffffffffffffffffffffffffff168173ffffffffffffffffffffffffffffffffffffffff167f8be0079c531659141344cd1fd0a4f28419497f9722a3daafe3b4186f6b6457e060405160405180910390a35050565b60008060028060008573ffffffffffffffffffffffffffffffffffffffff1673ffffffffffffffffffffffffffffffffffffffff1681526020019081526020016000206003015461158a91906122ce565b6001600260008673ffffffffffffffffffffffffffffffffffffffff1673ffffffffffffffffffffffffffffffffffffffff168152602001908152602001600020600201546115d991906122ce565b6115e3919061218e565b90506000600190505b6005811161169257600260008573ffffffffffffffffffffffffffffffffffffffff1673ffffffffffffffffffffffffffffffffffffffff168152602001908152602001600020600401600082815260200190815260200160002060009054906101000a900460ff161561167f5760036000828152602001908152602001600020600101548261167c919061218e565b91505b808061168a906124d4565b9150506115ec565b5080915050919050565b600033905090565b6000604051905090565b600080fd5b600080fd5b600080fd5b600080fd5b6000601f19601f8301169050919050565b7f4e487b7100000000000000000000000000000000000000000000000000000000600052604160045260246000fd5b61170b826116c2565b810181811067ffffffffffffffff8211171561172a576117296116d3565b5b80604052505050565b600061173d6116a4565b90506117498282611702565b919050565b600067ffffffffffffffff821115611769576117686116d3565b5b611772826116c2565b9050602081019050919050565b82818337600083830152505050565b60006117a161179c8461174e565b611733565b9050828152602081018484840111156117bd576117bc6116bd565b5b6117c884828561177f565b509392505050565b600082601f8301126117e5576117e46116b8565b5b81356117f584826020860161178e565b91505092915050565b600060208284031215611814576118136116ae565b5b600082013567ffffffffffffffff811115611832576118316116b3565b5b61183e848285016117d0565b91505092915050565b600073ffffffffffffffffffffffffffffffffffffffff82169050919050565b600061187282611847565b9050919050565b61188281611867565b811461188d57600080fd5b50565b60008135905061189f81611879565b92915050565b6000819050919050565b6118b8816118a5565b81146118c357600080fd5b50565b6000813590506118d5816118af565b92915050565b600080604083850312156118f2576118f16116ae565b5b600061190085828601611890565b9250506020611911858286016118c6565b9150509250929050565b60008115159050919050565b6119308161191b565b82525050565b600060208201905061194b6000830184611927565b92915050565b61195a816118a5565b82525050565b60006020820190506119756000830184611951565b92915050565b600060208284031215611991576119906116ae565b5b600061199f84828501611890565b91505092915050565b600081519050919050565b600082825260208201905092915050565b60005b838110156119e25780820151818401526020810190506119c7565b60008484015250505050565b60006119f9826119a8565b611a0381856119b3565b9350611a138185602086016119c4565b611a1c816116c2565b840191505092915050565b60006080820190508181036000830152611a4181876119ee565b9050611a506020830186611951565b611a5d6040830185611951565b611a6a6060830184611951565b95945050505050565b600060208284031215611a8957611a886116ae565b5b6000611a97848285016118c6565b91505092915050565b60006060820190508181036000830152611aba81866119ee565b9050611ac96020830185611951565b8181036040830152611adb81846119ee565b9050949350505050565b600060a0820190508181036000830152611aff81886119ee565b9050611b0e6020830187611951565b611b1b6040830186611951565b611b286060830185611951565b611b356080830184611927565b9695505050505050565b611b4881611867565b82525050565b6000602082019050611b636000830184611b3f565b92915050565b60008060408385031215611b8057611b7f6116ae565b5b6000611b8e858286016118c6565b9250506020611b9f858286016118c6565b9150509250929050565b7f4b68616e61746520616c72656164792065786973747300000000000000000000600082015250565b6000611bdf6016836119b3565b9150611bea82611ba9565b602082019050919050565b60006020820190508181036000830152611c0e81611bd2565b9050919050565b7f4e487b7100000000000000000000000000000000000000000000000000000000600052602260045260246000fd5b60006002820490506001821680611c5c57607f821691505b602082108103611c6f57611c6e611c15565b5b50919050565b60008190508160005260206000209050919050565b60006020601f8301049050919050565b600082821b905092915050565b600060088302611cd77fffffffffffffffffffffffffffffffffffffffffffffffffffffffffffffffff82611c9a565b611ce18683611c9a565b95508019841693508086168417925050509392505050565b6000819050919050565b6000611d1e611d19611d14846118a5565b611cf9565b6118a5565b9050919050565b6000819050919050565b611d3883611d03565b611d4c611d4482611d25565b848454611ca7565b825550505050565b600090565b611d61611d54565b611d6c818484611d2f565b505050565b5b81811015611d9057611d85600082611d59565b600181019050611d72565b5050565b601f821115611dd557611da681611c75565b611daf84611c8a565b81016020851015611dbe578190505b611dd2611dca85611c8a565b830182611d71565b50505b505050565b600082821c905092915050565b6000611df860001984600802611dda565b1980831691505092915050565b6000611e118383611de7565b9150826002028217905092915050565b611e2a826119a8565b67ffffffffffffffff811115611e4357611e426116d3565b5b611e4d8254611c44565b611e58828285611d94565b600060209050601f831160018114611e8b5760008415611e79578287015190505b611e838582611e05565b865550611eeb565b601f198416611e9986611c75565b60005b82811015611ec157848901518255600182019150602085019450602081019050611e9c565b86831015611ede5784890151611eda601f891682611de7565b8355505b6001600288020188555050505b505050505050565b60006020820190508181036000830152611f0d81846119ee565b905092915050565b7f496e76616c696420426174797220494400000000000000000000000000000000600082015250565b6000611f4b6010836119b3565b9150611f5682611f15565b602082019050919050565b60006020820190508181036000830152611f7a81611f3e565b9050919050565b7f496e73756666696369656e74207061796d656e74000000000000000000000000600082015250565b6000611fb76014836119b3565b9150611fc282611f81565b602082019050919050565b60006020820190508181036000830152611fe681611faa565b9050919050565b7f4b68616e617465206e6f7420696e697469616c697a6564000000000000000000600082015250565b60006120236017836119b3565b915061202e82611fed565b602082019050919050565b6000602082019050818103600083015261205281612016565b9050919050565b6000819050919050565b61207461206f826118a5565b612059565b82525050565b60008160601b9050919050565b60006120928261207a565b9050919050565b60006120a482612087565b9050919050565b6120bc6120b782611867565b612099565b82525050565b60006120ce8286612063565b6020820191506120de8285612063565b6020820191506120ee82846120ab565b601482019150819050949350505050565b7f4e487b7100000000000000000000000000000000000000000000000000000000600052601260045260246000fd5b6000612139826118a5565b9150612144836118a5565b925082612154576121536120ff565b5b828206905092915050565b7f4e487b7100000000000000000000000000000000000000000000000000000000600052601160045260246000fd5b6000612199826118a5565b91506121a4836118a5565b92508282019050808211156121bc576121bb61215f565b5b92915050565b60006121cd826118a5565b91506121d8836118a5565b92508282039050818111156121f0576121ef61215f565b5b92915050565b7f496e76616c6964206b68616e6174657300000000000000000000000000000000600082015250565b600061222c6010836119b3565b9150612237826121f6565b602082019050919050565b6000602082019050818103600083015261225b8161221f565b9050919050565b7f43616e6e6f7420626174746c6520796f757273656c6600000000000000000000600082015250565b60006122986016836119b3565b91506122a382612262565b602082019050919050565b600060208201905081810360008301526122c78161228b565b9050919050565b60006122d9826118a5565b91506122e4836118a5565b92508282026122f2816118a5565b915082820484148315176123095761230861215f565b5b5092915050565b600061231b826118a5565b9150612326836118a5565b925082612336576123356120ff565b5b828204905092915050565b60006040820190506123566000830185611951565b6123636020830184611951565b9392505050565b7f4f776e61626c653a206e6577206f776e657220697320746865207a65726f206160008201527f6464726573730000000000000000000000000000000000000000000000000000602082015250565b60006123c66026836119b3565b91506123d18261236a565b604082019050919050565b600060208201905081810360008301526123f5816123b9565b9050919050565b7f5265656e7472616e637947756172643a207265656e7472616e742063616c6c00600082015250565b6000612432601f836119b3565b915061243d826123fc565b602082019050919050565b6000602082019050818103600083015261246181612425565b9050919050565b7f4f776e61626c653a2063616c6c6572206973206e6f7420746865206f776e6572600082015250565b600061249e6020836119b3565b91506124a982612468565b602082019050919050565b600060208201905081810360008301526124cd81612491565b9050919050565b60006124df826118a5565b91507fffffffffffffffffffffffffffffffffffffffffffffffffffffffffffffffff82036125115761251061215f565b5b60018201905091905056fea2646970667358221220ec5fbc6696c6aab0f9eb24b18e1ba0aee3bf3429ce8388b44c02c7c386b99c9664736f6c63430008130033",
  "linkReferences": {},
  "deployedLinkReferences": {}
}