{
  "_format": "hh-sol-artifact-1",
  "contractName": "KazakhKhanate",
  "sourceName": "contracts/KazakhKhanate.sol",
  "abi": [
    {
      "inputs": [],
      "stateMutability": "nonpayable",
      "type": "constructor"
    },
    {
      "anonymous": false,
      "inputs": [
        {
          "indexed": true,
          "internalType": "address",
          "name": "player",
          "type": "address"
        },
        {
          "indexed": false,
          "internalType": "string",
          "name": "achievement",
          "type": "string"
        }
      ],
      "name": "AchievementUnlocked",
      "type": "event"
    },
    {
      "anonymous": false,
      "inputs": [
        {
          "indexed": false,
          "internalType": "uint256",
          "name": "battleId",
          "type": "uint256"
        },
        {
          "indexed": false,
          "internalType": "address",
          "name": "attacker",
          "type": "address"
        },
        {
          "indexed": false,
          "internalType": "address",
          "name": "defender",
          "type": "address"
        },
        {
          "indexed": false,
          "internalType": "uint256",
          "name": "travelTime",
          "type": "uint256"
        }
      ],
      "name": "BattleInitiated",
      "type": "event"
    },
    {
      "anonymous": false,
      "inputs": [
        {
          "indexed": true,
          "internalType": "address",
          "name": "winner",
          "type": "address"
        },
        {
          "indexed": true,
          "internalType": "address",
          "name": "loser",
          "type": "address"
        },
        {
          "indexed": false,
          "internalType": "uint256",
          "name": "experienceGained",
          "type": "uint256"
        }
      ],
      "name": "BattleResult",
      "type": "event"
    },
    {
      "anonymous": false,
      "inputs": [
        {
          "indexed": false,
          "internalType": "uint256",
          "name": "battleId",
          "type": "uint256"
        },
        {
          "indexed": false,
          "internalType": "address",
          "name": "attacker",
          "type": "address"
        }
      ],
      "name": "BattleSpedUp",
      "type": "event"
    },
    {
      "anonymous": false,
      "inputs": [
        {
          "indexed": true,
          "internalType": "address",
          "name": "owner",
          "type": "address"
        },
        {
          "indexed": false,
          "internalType": "uint256",
          "name": "batyrId",
          "type": "uint256"
        },
        {
          "indexed": false,
          "internalType": "string",
          "name": "name",
          "type": "string"
        }
      ],
      "name": "BatyrAcquired",
      "type": "event"
    },
    {
      "anonymous": false,
      "inputs": [
        {
          "indexed": true,
          "internalType": "address",
          "name": "owner",
          "type": "address"
        },
        {
          "indexed": false,
          "internalType": "string",
          "name": "name",
          "type": "string"
        }
      ],
      "name": "KhanateCreated",
      "type": "event"
    },
    {
      "anonymous": false,
      "inputs": [
        {
          "indexed": true,
          "internalType": "address",
          "name": "owner",
          "type": "address"
        },
        {
          "indexed": false,
          "internalType": "uint256",
          "name": "archers",
          "type": "uint256"
        },
        {
          "indexed": false,
          "internalType": "uint256",
          "name": "cavalry",
          "type": "uint256"
        }
      ],
      "name": "TroopsPurchased",
      "type": "event"
    },
    {
      "inputs": [],
      "name": "ARCHER_PRICE",
      "outputs": [
        {
          "internalType": "uint256",
          "name": "",
          "type": "uint256"
        }
      ],
      "stateMutability": "view",
      "type": "function"
    },
    {
      "inputs": [],
      "name": "CAVALRY_PRICE",
      "outputs": [
        {
          "internalType": "uint256",
          "name": "",
          "type": "uint256"
        }
      ],
      "stateMutability": "view",
      "type": "function"
    },
    {
      "inputs": [],
      "name": "LUCKY_BOX_PRICE",
      "outputs": [
        {
          "internalType": "uint256",
          "name": "",
          "type": "uint256"
        }
      ],
      "stateMutability": "view",
      "type": "function"
    },
    {
      "inputs": [],
      "name": "SPEED_UP_PRICE",
      "outputs": [
        {
          "internalType": "uint256",
          "name": "",
          "type": "uint256"
        }
      ],
      "stateMutability": "view",
      "type": "function"
    },
    {
      "inputs": [
        {
          "internalType": "address",
          "name": "",
          "type": "address"
        },
        {
          "internalType": "string",
          "name": "",
          "type": "string"
        }
      ],
      "name": "achievements",
      "outputs": [
        {
          "internalType": "bool",
          "name": "",
          "type": "bool"
        }
      ],
      "stateMutability": "view",
      "type": "function"
    },
    {
      "inputs": [
        {
          "internalType": "uint256",
          "name": "",
          "type": "uint256"
        }
      ],
      "name": "activeBattles",
      "outputs": [
        {
          "internalType": "address",
          "name": "attacker",
          "type": "address"
        },
        {
          "internalType": "address",
          "name": "defender",
          "type": "address"
        },
        {
          "internalType": "uint256",
          "name": "startTime",
          "type": "uint256"
        },
        {
          "internalType": "bool",
          "name": "resolved",
          "type": "bool"
        },
        {
          "internalType": "uint256",
          "name": "travelTime",
          "type": "uint256"
        }
      ],
      "stateMutability": "view",
      "type": "function"
    },
    {
      "inputs": [
        {
          "internalType": "uint256",
          "name": "",
          "type": "uint256"
        }
      ],
      "name": "activeKhanates",
      "outputs": [
        {
          "internalType": "address",
          "name": "",
          "type": "address"
        }
      ],
      "stateMutability": "view",
      "type": "function"
    },
    {
      "inputs": [
        {
          "internalType": "uint256",
          "name": "",
          "type": "uint256"
        }
      ],
      "name": "batyrs",
      "outputs": [
        {
          "internalType": "string",
          "name": "name",
          "type": "string"
        },
        {
          "internalType": "string",
          "name": "ability",
          "type": "string"
        },
        {
          "internalType": "string",
          "name": "description",
          "type": "string"
        },
        {
          "internalType": "uint256",
          "name": "power",
          "type": "uint256"
        },
        {
          "internalType": "uint256",
          "name": "archerBonus",
          "type": "uint256"
        },
        {
          "internalType": "uint256",
          "name": "cavalryBonus",
          "type": "uint256"
        },
        {
          "internalType": "bool",
          "name": "canBattle",
          "type": "bool"
        }
      ],
      "stateMutability": "view",
      "type": "function"
    },
    {
      "inputs": [
        {
          "internalType": "string",
          "name": "name",
          "type": "string"
        },
        {
          "internalType": "uint256",
          "name": "locationX",
          "type": "uint256"
        },
        {
          "internalType": "uint256",
          "name": "locationY",
          "type": "uint256"
        }
      ],
      "name": "createKhanate",
      "outputs": [],
      "stateMutability": "nonpayable",
      "type": "function"
    },
    {
      "inputs": [
        {
          "internalType": "uint256",
          "name": "battleId",
          "type": "uint256"
        }
      ],
      "name": "executeBattle",
      "outputs": [],
      "stateMutability": "nonpayable",
      "type": "function"
    },
    {
      "inputs": [],
      "name": "getActiveKhanates",
      "outputs": [
        {
          "internalType": "address[]",
          "name": "",
          "type": "address[]"
        }
      ],
      "stateMutability": "view",
      "type": "function"
    },
    {
      "inputs": [
        {
          "internalType": "uint256",
          "name": "batyrId",
          "type": "uint256"
        }
      ],
      "name": "getBatyrStats",
      "outputs": [
        {
          "internalType": "string",
          "name": "name",
          "type": "string"
        },
        {
          "internalType": "string",
          "name": "ability",
          "type": "string"
        },
        {
          "internalType": "string",
          "name": "description",
          "type": "string"
        },
        {
          "internalType": "uint256",
          "name": "power",
          "type": "uint256"
        },
        {
          "internalType": "uint256",
          "name": "archerBonus",
          "type": "uint256"
        },
        {
          "internalType": "uint256",
          "name": "cavalryBonus",
          "type": "uint256"
        },
        {
          "internalType": "bool",
          "name": "canBattle",
          "type": "bool"
        }
      ],
      "stateMutability": "view",
      "type": "function"
    },
    {
      "inputs": [
        {
          "internalType": "address",
          "name": "player",
          "type": "address"
        }
      ],
      "name": "getKhanateStats",
      "outputs": [
        {
          "internalType": "string",
          "name": "name",
          "type": "string"
        },
        {
          "internalType": "uint256",
          "name": "level",
          "type": "uint256"
        },
        {
          "internalType": "uint256",
          "name": "archers",
          "type": "uint256"
        },
        {
          "internalType": "uint256",
          "name": "cavalry",
          "type": "uint256"
        },
        {
          "internalType": "uint256",
          "name": "experience",
          "type": "uint256"
        },
        {
          "internalType": "uint256",
          "name": "wins",
          "type": "uint256"
        },
        {
          "internalType": "uint256",
          "name": "losses",
          "type": "uint256"
        },
        {
          "internalType": "uint256",
          "name": "locationX",
          "type": "uint256"
        },
        {
          "internalType": "uint256",
          "name": "locationY",
          "type": "uint256"
        }
      ],
      "stateMutability": "view",
      "type": "function"
    },
    {
      "inputs": [
        {
          "internalType": "uint256",
          "name": "start",
          "type": "uint256"
        },
        {
          "internalType": "uint256",
          "name": "end",
          "type": "uint256"
        }
      ],
      "name": "getKhanatesByRange",
      "outputs": [
        {
          "internalType": "address[]",
          "name": "addresses",
          "type": "address[]"
        },
        {
          "internalType": "string[]",
          "name": "names",
          "type": "string[]"
        },
        {
          "internalType": "uint256[]",
          "name": "levels",
          "type": "uint256[]"
        },
        {
          "internalType": "uint256[]",
          "name": "archerCounts",
          "type": "uint256[]"
        },
        {
          "internalType": "uint256[]",
          "name": "cavalryCounts",
          "type": "uint256[]"
        }
      ],
      "stateMutability": "view",
      "type": "function"
    },
    {
      "inputs": [
        {
          "internalType": "address",
          "name": "player",
          "type": "address"
        }
      ],
      "name": "getPlayerStats",
      "outputs": [
        {
          "internalType": "bool",
          "name": "FIRST_BLOOD",
          "type": "bool"
        },
        {
          "internalType": "bool",
          "name": "VETERAN",
          "type": "bool"
        },
        {
          "internalType": "bool",
          "name": "WARLORD",
          "type": "bool"
        },
        {
          "internalType": "bool",
          "name": "DEFENDER",
          "type": "bool"
        },
        {
          "internalType": "bool",
          "name": "COLLECTOR",
          "type": "bool"
        }
      ],
      "stateMutability": "view",
      "type": "function"
    },
    {
      "inputs": [
        {
          "internalType": "address",
          "name": "player",
          "type": "address"
        },
        {
          "internalType": "uint256",
          "name": "batyrId",
          "type": "uint256"
        }
      ],
      "name": "hasBatyr",
      "outputs": [
        {
          "internalType": "bool",
          "name": "",
          "type": "bool"
        }
      ],
      "stateMutability": "view",
      "type": "function"
    },
    {
      "inputs": [
        {
          "internalType": "address",
          "name": "defender",
          "type": "address"
        }
      ],
      "name": "initiateBattle",
      "outputs": [],
      "stateMutability": "nonpayable",
      "type": "function"
    },
    {
      "inputs": [
        {
          "internalType": "address",
          "name": "",
          "type": "address"
        }
      ],
      "name": "khanates",
      "outputs": [
        {
          "internalType": "string",
          "name": "name",
          "type": "string"
        },
        {
          "internalType": "uint256",
          "name": "level",
          "type": "uint256"
        },
        {
          "internalType": "uint256",
          "name": "archers",
          "type": "uint256"
        },
        {
          "internalType": "uint256",
          "name": "cavalry",
          "type": "uint256"
        },
        {
          "internalType": "uint256",
          "name": "experience",
          "type": "uint256"
        },
        {
          "internalType": "uint256",
          "name": "wins",
          "type": "uint256"
        },
        {
          "internalType": "uint256",
          "name": "losses",
          "type": "uint256"
        },
        {
          "internalType": "uint256",
          "name": "successfulDefenses",
          "type": "uint256"
        },
        {
          "internalType": "bool",
          "name": "initialized",
          "type": "bool"
        },
        {
          "internalType": "uint256",
          "name": "locationX",
          "type": "uint256"
        },
        {
          "internalType": "uint256",
          "name": "locationY",
          "type": "uint256"
        }
      ],
      "stateMutability": "view",
      "type": "function"
    },
    {
      "inputs": [
        {
          "internalType": "address",
          "name": "",
          "type": "address"
        },
        {
          "internalType": "uint256",
          "name": "",
          "type": "uint256"
        }
      ],
      "name": "ownedBatyrs",
      "outputs": [
        {
          "internalType": "bool",
          "name": "",
          "type": "bool"
        }
      ],
      "stateMutability": "view",
      "type": "function"
    },
    {
      "inputs": [],
      "name": "purchaseLuckyBox",
      "outputs": [],
      "stateMutability": "payable",
      "type": "function"
    },
    {
      "inputs": [
        {
          "internalType": "uint256",
          "name": "archerAmount",
          "type": "uint256"
        },
        {
          "internalType": "uint256",
          "name": "cavalryAmount",
          "type": "uint256"
        }
      ],
      "name": "purchaseTroops",
      "outputs": [],
      "stateMutability": "payable",
      "type": "function"
    },
    {
      "inputs": [
        {
          "internalType": "address",
          "name": "khanateAddress",
          "type": "address"
        }
      ],
      "name": "removeInactiveKhanate",
      "outputs": [],
      "stateMutability": "nonpayable",
      "type": "function"
    },
    {
      "inputs": [
        {
          "internalType": "uint256",
          "name": "battleId",
          "type": "uint256"
        }
      ],
      "name": "speedUpBattle",
      "outputs": [],
      "stateMutability": "payable",
      "type": "function"
    }
  ],
  "bytecode": "0x60806040523480156200001157600080fd5b5060016000819055506040518060e001604052806040518060400160405280600e81526020017f4b6162616e62617920426174797200000000000000000000000000000000000081525081526020016040518060400160405280601181526020017f4d6173746572205374726174656769737400000000000000000000000000000081525081526020016040518060600160405280602e8152602001620060c3602e91398152602001606481526020016078815260200160788152602001600115158152506008600060018152602001908152602001600020600082015181600001908162000101919062000973565b50602082015181600101908162000119919062000973565b50604082015181600201908162000131919062000973565b50606082015181600301556080820151816004015560a0820151816005015560c08201518160060160006101000a81548160ff0219169083151502179055509050506040518060e001604052806040518060400160405280600e81526020017f426f67656e62616920426174797200000000000000000000000000000000000081525081526020016040518060400160405280601081526020017f41726368657220436f6d6d616e646572000000000000000000000000000000008152508152602001604051806060016040528060218152602001620060a260219139815260200160508152602001609681526020016064815260200160011515815250600860006002815260200190815260200160002060008201518160000190816200025a919062000973565b50602082015181600101908162000272919062000973565b5060408201518160020190816200028a919062000973565b50606082015181600301556080820151816004015560a0820151816005015560c08201518160060160006101000a81548160ff0219169083151502179055509050506040518060e001604052806040518060400160405280600f81526020017f4e617572797a626169204261747972000000000000000000000000000000000081525081526020016040518060400160405280600e81526020017f436176616c7279204d61737465720000000000000000000000000000000000008152508152602001604051806060016040528060228152602001620060f16022913981526020016050815260200160648152602001609681526020016001151581525060086000600381526020019081526020016000206000820151816000019081620003b3919062000973565b506020820151816001019081620003cb919062000973565b506040820151816002019081620003e3919062000973565b50606082015181600301556080820151816004015560a0820151816005015560c08201518160060160006101000a81548160ff0219169083151502179055509050506040518060e001604052806040518060400160405280600d81526020017f4b6172617361692042617479720000000000000000000000000000000000000081525081526020016040518060400160405280601081526020017f446566656e73697665204578706572740000000000000000000000000000000081525081526020016040518060600160405280602181526020016200608160219139815260200160788152602001606e8152602001606e815260200160001515815250600860006004815260200190815260200160002060008201518160000190816200050c919062000973565b50602082015181600101908162000524919062000973565b5060408201518160020190816200053c919062000973565b50606082015181600301556080820151816004015560a0820151816005015560c08201518160060160006101000a81548160ff0219169083151502179055509050506040518060e001604052806040518060400160405280600e81526020017f5a68616e6962656b20426174797200000000000000000000000000000000000081525081526020016040518060400160405280600e81526020017f456c69746520477561726469616e00000000000000000000000000000000000081525081526020016040518060400160405280601e81526020017f53757072656d6520646566656e73697665206361706162696c697469657300008152508152602001609681526020016064815260200160648152602001600015158152506008600060058152602001908152602001600020600082015181600001908162000681919062000973565b50602082015181600101908162000699919062000973565b506040820151816002019081620006b1919062000973565b50606082015181600301556080820151816004015560a0820151816005015560c08201518160060160006101000a81548160ff02191690831515021790555090505062000a5a565b600081519050919050565b7f4e487b7100000000000000000000000000000000000000000000000000000000600052604160045260246000fd5b7f4e487b7100000000000000000000000000000000000000000000000000000000600052602260045260246000fd5b600060028204905060018216806200077b57607f821691505b60208210810362000791576200079062000733565b5b50919050565b60008190508160005260206000209050919050565b60006020601f8301049050919050565b600082821b905092915050565b600060088302620007fb7fffffffffffffffffffffffffffffffffffffffffffffffffffffffffffffffff82620007bc565b620008078683620007bc565b95508019841693508086168417925050509392505050565b6000819050919050565b6000819050919050565b6000620008546200084e62000848846200081f565b62000829565b6200081f565b9050919050565b6000819050919050565b620008708362000833565b620008886200087f826200085b565b848454620007c9565b825550505050565b600090565b6200089f62000890565b620008ac81848462000865565b505050565b5b81811015620008d457620008c860008262000895565b600181019050620008b2565b5050565b601f8211156200092357620008ed8162000797565b620008f884620007ac565b8101602085101562000908578190505b620009206200091785620007ac565b830182620008b1565b50505b505050565b600082821c905092915050565b6000620009486000198460080262000928565b1980831691505092915050565b600062000963838362000935565b9150826002028217905092915050565b6200097e82620006f9565b67ffffffffffffffff8111156200099a576200099962000704565b5b620009a6825462000762565b620009b3828285620008d8565b600060209050601f831160018114620009eb5760008415620009d6578287015190505b620009e2858262000955565b86555062000a52565b601f198416620009fb8662000797565b60005b8281101562000a2557848901518255600182019150602085019450602081019050620009fe565b8683101562000a45578489015162000a41601f89168262000935565b8355505b6001600288020188555050505b505050505050565b6156178062000a6a6000396000f3fe6080604052600436106101405760003560e01c806354258088116100b65780638602eebf1161006f5780638602eebf14610494578063c1c063eb146104d7578063dfad62571461051a578063e0f83f2114610536578063ee52f8f314610561578063fd0a5d9b146105a257610140565b806354258088146103665780635dcee894146103915780635e474b76146103ce5780636011515c146103f95780636759bbab146104245780636b4faeca1461044d57610140565b80633dde60c2116101085780633dde60c21461020e5780633f43069514610239578063409195e11461027e5780634111899b146102bb5780634fd66eae146102e457806350755be81461032557610140565b80631504f5cd1461014557806321ec18e11461016e578063232e096d1461018a5780633a0de743146101c75780633b42f248146101d1575b600080fd5b34801561015157600080fd5b5061016c60048036038101906101679190613bbd565b6105cb565b005b61018860048036038101906101839190613bbd565b610884565b005b34801561019657600080fd5b506101b160048036038101906101ac9190613c48565b610a7b565b6040516101be9190613ca3565b60405180910390f35b6101cf610ae3565b005b3480156101dd57600080fd5b506101f860048036038101906101f39190613c48565b610ec8565b6040516102059190613ca3565b60405180910390f35b34801561021a57600080fd5b50610223610ef7565b6040516102309190613ccd565b60405180910390f35b34801561024557600080fd5b50610260600480360381019061025b9190613ce8565b610f02565b60405161027599989796959493929190613da5565b60405180910390f35b34801561028a57600080fd5b506102a560048036038101906102a09190613bbd565b611144565b6040516102b29190613e48565b60405180910390f35b3480156102c757600080fd5b506102e260048036038101906102dd9190613f98565b611183565b005b3480156102f057600080fd5b5061030b60048036038101906103069190613ce8565b6114dd565b60405161031c959493929190614007565b60405180910390f35b34801561033157600080fd5b5061034c6004803603810190610347919061405a565b6116fb565b60405161035d959493929190614322565b60405180910390f35b34801561037257600080fd5b5061037b611b10565b6040516103889190613ccd565b60405180910390f35b34801561039d57600080fd5b506103b860048036038101906103b39190614398565b611b1c565b6040516103c59190613ca3565b60405180910390f35b3480156103da57600080fd5b506103e3611b61565b6040516103f091906143f4565b60405180910390f35b34801561040557600080fd5b5061040e611bef565b60405161041b9190613ccd565b60405180910390f35b34801561043057600080fd5b5061044b60048036038101906104469190613ce8565b611bfa565b005b34801561045957600080fd5b50610474600480360381019061046f9190613ce8565b611f7a565b60405161048b9b9a99989796959493929190614416565b60405180910390f35b3480156104a057600080fd5b506104bb60048036038101906104b69190613bbd565b612069565b6040516104ce97969594939291906144c8565b60405180910390f35b3480156104e357600080fd5b506104fe60048036038101906104f99190613bbd565b612250565b60405161051197969594939291906144c8565b60405180910390f35b610534600480360381019061052f919061405a565b6124f9565b005b34801561054257600080fd5b5061054b612761565b6040516105589190613ccd565b60405180910390f35b34801561056d57600080fd5b5061058860048036038101906105839190613bbd565b61276d565b60405161059995949392919061454c565b60405180910390f35b3480156105ae57600080fd5b506105c960048036038101906105c49190613ce8565b6127f0565b005b60006006600083815260200190815260200160002090508060030160009054906101000a900460ff1615610634576040517f08c379a000000000000000000000000000000000000000000000000000000000815260040161062b906145eb565b60405180910390fd5b80600401548160020154610648919061463a565b42101561068a576040517f08c379a0000000000000000000000000000000000000000000000000000000008152600401610681906146ba565b60405180910390fd5b60008160000160009054906101000a900473ffffffffffffffffffffffffffffffffffffffff16905060008260010160009054906101000a900473ffffffffffffffffffffffffffffffffffffffff16905060006106e783612be4565b905060006106f483612be4565b90506000605a601442878760405160200161071193929190614743565b6040516020818303038152906040528051906020012060001c61073491906147af565b61073e919061463a565b90506064818461074e91906147e0565b6107589190614822565b925060018660030160006101000a81548160ff0219169083151502179055508183111561078e576107898585612f94565b61087b565b6107988486612f94565b600360008573ffffffffffffffffffffffffffffffffffffffff1673ffffffffffffffffffffffffffffffffffffffff16815260200190815260200160002060070160008154809291906107eb90614853565b91905055506005600360008673ffffffffffffffffffffffffffffffffffffffff1673ffffffffffffffffffffffffffffffffffffffff168152602001908152602001600020600701541061087a57610879846040518060400160405280600881526020017f444546454e444552000000000000000000000000000000000000000000000000815250613959565b5b5b50505050505050565b6000600660008381526020019081526020016000209050670429d069189e00003410156108e6576040517f08c379a00000000000000000000000000000000000000000000000000000000081526004016108dd9061490d565b60405180910390fd5b3373ffffffffffffffffffffffffffffffffffffffff168160000160009054906101000a900473ffffffffffffffffffffffffffffffffffffffff1673ffffffffffffffffffffffffffffffffffffffff1614610978576040517f08c379a000000000000000000000000000000000000000000000000000000000815260040161096f90614979565b60405180910390fd5b8060030160009054906101000a900460ff16156109ca576040517f08c379a00000000000000000000000000000000000000000000000000000000081526004016109c1906145eb565b60405180910390fd5b7f1e372b79674f198909a4f4ee1416fd2c6e8dcd6ae23ceb1593d2ed32264d8d2e82336040516109fb929190614999565b60405180910390a1610a0c826105cb565b670429d069189e0000341115610a77573373ffffffffffffffffffffffffffffffffffffffff166108fc670429d069189e000034610a4a91906149c2565b9081150290604051600060405180830381858888f19350505050158015610a75573d6000803e3d6000fd5b505b5050565b6000600460008473ffffffffffffffffffffffffffffffffffffffff1673ffffffffffffffffffffffffffffffffffffffff168152602001908152602001600020600083815260200190815260200160002060009054906101000a900460ff16905092915050565b600360003373ffffffffffffffffffffffffffffffffffffffff1673ffffffffffffffffffffffffffffffffffffffff16815260200190815260200160002060080160009054906101000a900460ff16610b72576040517f08c379a0000000000000000000000000000000000000000000000000000000008152600401610b6990614a42565b60405180910390fd5b67016345785d8a0000341015610bbd576040517f08c379a0000000000000000000000000000000000000000000000000000000008152600401610bb490614aae565b60405180910390fd5b600060644233604051602001610bd4929190614ace565b6040516020818303038152906040528051906020012060001c610bf791906147af565b90506014811015610e5a57600060016005423385604051602001610c1d93929190614afa565b6040516020818303038152906040528051906020012060001c610c4091906147af565b610c4a919061463a565b9050600460003373ffffffffffffffffffffffffffffffffffffffff1673ffffffffffffffffffffffffffffffffffffffff168152602001908152602001600020600082815260200190815260200160002060009054906101000a900460ff16610e58576001600460003373ffffffffffffffffffffffffffffffffffffffff1673ffffffffffffffffffffffffffffffffffffffff168152602001908152602001600020600083815260200190815260200160002060006101000a81548160ff0219169083151502179055503373ffffffffffffffffffffffffffffffffffffffff167fc78cd494272180e0c224c92ca5bedd58597e9f5494e17a757b031988d4b6372c8260086000858152602001908152602001600020600001604051610d74929190614c30565b60405180910390a26000600190506000600190505b60058111610e0f57600460003373ffffffffffffffffffffffffffffffffffffffff1673ffffffffffffffffffffffffffffffffffffffff168152602001908152602001600020600082815260200190815260200160002060009054906101000a900460ff16610dfc5760009150610e0f565b8080610e0790614853565b915050610d89565b508015610e5657610e55336040518060400160405280600981526020017f434f4c4c4543544f520000000000000000000000000000000000000000000000815250613959565b5b505b505b67016345785d8a0000341115610ec5573373ffffffffffffffffffffffffffffffffffffffff166108fc67016345785d8a000034610e9891906149c2565b9081150290604051600060405180830381858888f19350505050158015610ec3573d6000803e3d6000fd5b505b50565b60046020528160005260406000206020528060005260406000206000915091509054906101000a900460ff1681565b662386f26fc1000081565b6060600080600080600080600080600360008b73ffffffffffffffffffffffffffffffffffffffff1673ffffffffffffffffffffffffffffffffffffffff16815260200190815260200160002060080160009054906101000a900460ff16610f9f576040517f08c379a0000000000000000000000000000000000000000000000000000000008152600401610f9690614a42565b60405180910390fd5b6000600360008c73ffffffffffffffffffffffffffffffffffffffff1673ffffffffffffffffffffffffffffffffffffffff16815260200190815260200160002060405180610160016040529081600082018054610ffc90614b66565b80601f016020809104026020016040519081016040528092919081815260200182805461102890614b66565b80156110755780601f1061104a57610100808354040283529160200191611075565b820191906000526020600020905b81548152906001019060200180831161105857829003601f168201915b50505050508152602001600182015481526020016002820154815260200160038201548152602001600482015481526020016005820154815260200160068201548152602001600782015481526020016008820160009054906101000a900460ff1615151515815260200160098201548152602001600a820154815250509050806000015181602001518260400151836060015184608001518560a001518660c00151876101200151886101400151995099509950995099509950995099509950509193959799909294969850565b6001818154811061115457600080fd5b906000526020600020016000915054906101000a900473ffffffffffffffffffffffffffffffffffffffff1681565b600360003373ffffffffffffffffffffffffffffffffffffffff1673ffffffffffffffffffffffffffffffffffffffff16815260200190815260200160002060080160009054906101000a900460ff1615611213576040517f08c379a000000000000000000000000000000000000000000000000000000000815260040161120a90614cac565b60405180910390fd5b6000835111611257576040517f08c379a000000000000000000000000000000000000000000000000000000000815260040161124e90614d18565b60405180910390fd5b60648211158015611269575060648111155b6112a8576040517f08c379a000000000000000000000000000000000000000000000000000000000815260040161129f90614d84565b60405180910390fd5b60405180610160016040528084815260200160018152602001600a8152602001600581526020016000815260200160008152602001600081526020016000815260200160011515815260200183815260200182815250600360003373ffffffffffffffffffffffffffffffffffffffff1673ffffffffffffffffffffffffffffffffffffffff16815260200190815260200160002060008201518160000190816113529190614f3b565b506020820151816001015560408201518160020155606082015181600301556080820151816004015560a0820151816005015560c0820151816006015560e082015181600701556101008201518160080160006101000a81548160ff021916908315150217905550610120820151816009015561014082015181600a01559050506001339080600181540180825580915050600190039060005260206000200160009091909190916101000a81548173ffffffffffffffffffffffffffffffffffffffff021916908373ffffffffffffffffffffffffffffffffffffffff1602179055506001808054905061144791906149c2565b600260003373ffffffffffffffffffffffffffffffffffffffff1673ffffffffffffffffffffffffffffffffffffffff168152602001908152602001600020819055503373ffffffffffffffffffffffffffffffffffffffff167f67409ced604950b5508f075f60153e7d166866a8251a44b569a7a07d7f27c3eb846040516114d0919061500d565b60405180910390a2505050565b6000806000806000600560008773ffffffffffffffffffffffffffffffffffffffff1673ffffffffffffffffffffffffffffffffffffffff16815260200190815260200160002060405161153090615086565b908152602001604051809103902060009054906101000a900460ff16600560008873ffffffffffffffffffffffffffffffffffffffff1673ffffffffffffffffffffffffffffffffffffffff168152602001908152602001600020604051611597906150e7565b908152602001604051809103902060009054906101000a900460ff16600560008973ffffffffffffffffffffffffffffffffffffffff1673ffffffffffffffffffffffffffffffffffffffff1681526020019081526020016000206040516115fe90615148565b908152602001604051809103902060009054906101000a900460ff16600560008a73ffffffffffffffffffffffffffffffffffffffff1673ffffffffffffffffffffffffffffffffffffffff168152602001908152602001600020604051611665906151a9565b908152602001604051809103902060009054906101000a900460ff16600560008b73ffffffffffffffffffffffffffffffffffffffff1673ffffffffffffffffffffffffffffffffffffffff1681526020019081526020016000206040516116cc9061520a565b908152602001604051809103902060009054906101000a900460ff169450945094509450945091939590929450565b6060806060806060858711158015611717575060018054905086105b611756576040517f08c379a000000000000000000000000000000000000000000000000000000000815260040161174d9061526b565b60405180910390fd5b60006001888861176691906149c2565b611770919061463a565b90508067ffffffffffffffff81111561178c5761178b613e6d565b5b6040519080825280602002602001820160405280156117ba5781602001602082028036833780820191505090505b5095508067ffffffffffffffff8111156117d7576117d6613e6d565b5b60405190808252806020026020018201604052801561180a57816020015b60608152602001906001900390816117f55790505b5094508067ffffffffffffffff81111561182757611826613e6d565b5b6040519080825280602002602001820160405280156118555781602001602082028036833780820191505090505b5093508067ffffffffffffffff81111561187257611871613e6d565b5b6040519080825280602002602001820160405280156118a05781602001602082028036833780820191505090505b5092508067ffffffffffffffff8111156118bd576118bc613e6d565b5b6040519080825280602002602001820160405280156118eb5781602001602082028036833780820191505090505b50915060005b81811015611b045760006001828b611909919061463a565b8154811061191a5761191961528b565b5b9060005260206000200160009054906101000a900473ffffffffffffffffffffffffffffffffffffffff1690506000600360008373ffffffffffffffffffffffffffffffffffffffff1673ffffffffffffffffffffffffffffffffffffffff16815260200190815260200160002090508189848151811061199e5761199d61528b565b5b602002602001019073ffffffffffffffffffffffffffffffffffffffff16908173ffffffffffffffffffffffffffffffffffffffff16815250508060000180546119e790614b66565b80601f0160208091040260200160405190810160405280929190818152602001828054611a1390614b66565b8015611a605780601f10611a3557610100808354040283529160200191611a60565b820191906000526020600020905b815481529060010190602001808311611a4357829003601f168201915b5050505050888481518110611a7857611a7761528b565b5b60200260200101819052508060010154878481518110611a9b57611a9a61528b565b5b6020026020010181815250508060020154868481518110611abf57611abe61528b565b5b6020026020010181815250508060030154858481518110611ae357611ae261528b565b5b60200260200101818152505050508080611afc90614853565b9150506118f1565b50509295509295909350565b670429d069189e000081565b6005602052816000526040600020818051602081018201805184825260208301602085012081835280955050505050506000915091509054906101000a900460ff1681565b60606001805480602002602001604051908101604052809291908181526020018280548015611be557602002820191906000526020600020905b8160009054906101000a900473ffffffffffffffffffffffffffffffffffffffff1673ffffffffffffffffffffffffffffffffffffffff1681526020019060010190808311611b9b575b5050505050905090565b66470de4df82000081565b8073ffffffffffffffffffffffffffffffffffffffff163373ffffffffffffffffffffffffffffffffffffffff1614611c68576040517f08c379a0000000000000000000000000000000000000000000000000000000008152600401611c5f90615306565b60405180910390fd5b600360008273ffffffffffffffffffffffffffffffffffffffff1673ffffffffffffffffffffffffffffffffffffffff16815260200190815260200160002060080160009054906101000a900460ff16611cf7576040517f08c379a0000000000000000000000000000000000000000000000000000000008152600401611cee90614a42565b60405180910390fd5b6000600260008373ffffffffffffffffffffffffffffffffffffffff1673ffffffffffffffffffffffffffffffffffffffff168152602001908152602001600020549050600060018080549050611d4e91906149c2565b9050808214611e3d57600060018281548110611d6d57611d6c61528b565b5b9060005260206000200160009054906101000a900473ffffffffffffffffffffffffffffffffffffffff1690508060018481548110611daf57611dae61528b565b5b9060005260206000200160006101000a81548173ffffffffffffffffffffffffffffffffffffffff021916908373ffffffffffffffffffffffffffffffffffffffff16021790555082600260008373ffffffffffffffffffffffffffffffffffffffff1673ffffffffffffffffffffffffffffffffffffffff16815260200190815260200160002081905550505b6001805480611e4f57611e4e615326565b5b6001900381819060005260206000200160006101000a81549073ffffffffffffffffffffffffffffffffffffffff02191690559055600260008473ffffffffffffffffffffffffffffffffffffffff1673ffffffffffffffffffffffffffffffffffffffff16815260200190815260200160002060009055600360008473ffffffffffffffffffffffffffffffffffffffff1673ffffffffffffffffffffffffffffffffffffffff16815260200190815260200160002060008082016000611f179190613b16565b60018201600090556002820160009055600382016000905560048201600090556005820160009055600682016000905560078201600090556008820160006101000a81549060ff02191690556009820160009055600a8201600090555050505050565b6003602052806000526040600020600091509050806000018054611f9d90614b66565b80601f0160208091040260200160405190810160405280929190818152602001828054611fc990614b66565b80156120165780601f10611feb57610100808354040283529160200191612016565b820191906000526020600020905b815481529060010190602001808311611ff957829003601f168201915b5050505050908060010154908060020154908060030154908060040154908060050154908060060154908060070154908060080160009054906101000a900460ff169080600901549080600a015490508b565b600860205280600052604060002060009150905080600001805461208c90614b66565b80601f01602080910402602001604051908101604052809291908181526020018280546120b890614b66565b80156121055780601f106120da57610100808354040283529160200191612105565b820191906000526020600020905b8154815290600101906020018083116120e857829003601f168201915b50505050509080600101805461211a90614b66565b80601f016020809104026020016040519081016040528092919081815260200182805461214690614b66565b80156121935780601f1061216857610100808354040283529160200191612193565b820191906000526020600020905b81548152906001019060200180831161217657829003601f168201915b5050505050908060020180546121a890614b66565b80601f01602080910402602001604051908101604052809291908181526020018280546121d490614b66565b80156122215780601f106121f657610100808354040283529160200191612221565b820191906000526020600020905b81548152906001019060200180831161220457829003601f168201915b5050505050908060030154908060040154908060050154908060060160009054906101000a900460ff16905087565b606080606060008060008060008811801561226c575060058811155b6122ab576040517f08c379a00000000000000000000000000000000000000000000000000000000081526004016122a2906153a1565b60405180910390fd5b6000600860008a81526020019081526020016000206040518060e00160405290816000820180546122db90614b66565b80601f016020809104026020016040519081016040528092919081815260200182805461230790614b66565b80156123545780601f1061232957610100808354040283529160200191612354565b820191906000526020600020905b81548152906001019060200180831161233757829003601f168201915b5050505050815260200160018201805461236d90614b66565b80601f016020809104026020016040519081016040528092919081815260200182805461239990614b66565b80156123e65780601f106123bb576101008083540402835291602001916123e6565b820191906000526020600020905b8154815290600101906020018083116123c957829003601f168201915b505050505081526020016002820180546123ff90614b66565b80601f016020809104026020016040519081016040528092919081815260200182805461242b90614b66565b80156124785780601f1061244d57610100808354040283529160200191612478565b820191906000526020600020905b81548152906001019060200180831161245b57829003601f168201915b505050505081526020016003820154815260200160048201548152602001600582015481526020016006820160009054906101000a900460ff1615151515815250509050806000015181602001518260400151836060015184608001518560a001518660c00151975097509750975097509750975050919395979092949650565b600360003373ffffffffffffffffffffffffffffffffffffffff1673ffffffffffffffffffffffffffffffffffffffff16815260200190815260200160002060080160009054906101000a900460ff16612588576040517f08c379a000000000000000000000000000000000000000000000000000000000815260040161257f90614a42565b60405180910390fd5b600066470de4df8200008261259d91906147e0565b662386f26fc10000846125b091906147e0565b6125ba919061463a565b9050803410156125ff576040517f08c379a00000000000000000000000000000000000000000000000000000000081526004016125f690614aae565b60405180910390fd5b82600360003373ffffffffffffffffffffffffffffffffffffffff1673ffffffffffffffffffffffffffffffffffffffff1681526020019081526020016000206002016000828254612651919061463a565b9250508190555081600360003373ffffffffffffffffffffffffffffffffffffffff1673ffffffffffffffffffffffffffffffffffffffff16815260200190815260200160002060030160008282546126aa919061463a565b925050819055503373ffffffffffffffffffffffffffffffffffffffff167faf29816cd11119a4c8c0eff4213407d9eee90e96234648827025b3dcda86af3984846040516126f99291906153c1565b60405180910390a28034111561275c573373ffffffffffffffffffffffffffffffffffffffff166108fc823461272f91906149c2565b9081150290604051600060405180830381858888f1935050505015801561275a573d6000803e3d6000fd5b505b505050565b67016345785d8a000081565b60066020528060005260406000206000915090508060000160009054906101000a900473ffffffffffffffffffffffffffffffffffffffff16908060010160009054906101000a900473ffffffffffffffffffffffffffffffffffffffff16908060020154908060030160009054906101000a900460ff16908060040154905085565b600360003373ffffffffffffffffffffffffffffffffffffffff1673ffffffffffffffffffffffffffffffffffffffff16815260200190815260200160002060080160009054906101000a900460ff1661287f576040517f08c379a000000000000000000000000000000000000000000000000000000000815260040161287690614a42565b60405180910390fd5b3373ffffffffffffffffffffffffffffffffffffffff168173ffffffffffffffffffffffffffffffffffffffff16036128ed576040517f08c379a00000000000000000000000000000000000000000000000000000000081526004016128e490615436565b60405180910390fd5b600360008273ffffffffffffffffffffffffffffffffffffffff1673ffffffffffffffffffffffffffffffffffffffff16815260200190815260200160002060080160009054906101000a900460ff1661297c576040517f08c379a0000000000000000000000000000000000000000000000000000000008152600401612973906154c8565b60405180910390fd5b6000600360003373ffffffffffffffffffffffffffffffffffffffff1673ffffffffffffffffffffffffffffffffffffffff168152602001908152602001600020600201541180612a0f57506000600360003373ffffffffffffffffffffffffffffffffffffffff1673ffffffffffffffffffffffffffffffffffffffff16815260200190815260200160002060030154115b612a4e576040517f08c379a0000000000000000000000000000000000000000000000000000000008152600401612a4590615534565b60405180910390fd5b6000612a5a6007613a8d565b9050612a666007613a9b565b6000612a723384613ab1565b90506040518060a001604052803373ffffffffffffffffffffffffffffffffffffffff1681526020018473ffffffffffffffffffffffffffffffffffffffff168152602001428152602001600015158152602001828152506006600084815260200190815260200160002060008201518160000160006101000a81548173ffffffffffffffffffffffffffffffffffffffff021916908373ffffffffffffffffffffffffffffffffffffffff16021790555060208201518160010160006101000a81548173ffffffffffffffffffffffffffffffffffffffff021916908373ffffffffffffffffffffffffffffffffffffffff1602179055506040820151816002015560608201518160030160006101000a81548160ff021916908315150217905550608082015181600401559050507f44bbd1153f1b36a3354f2af50e8f8ceb7b4c95e46240e7547a0f73c322380d2182338584604051612bd79493929190615554565b60405180910390a1505050565b600080600a600360008573ffffffffffffffffffffffffffffffffffffffff1673ffffffffffffffffffffffffffffffffffffffff16815260200190815260200160002060020154612c3691906147e0565b905060006014600360008673ffffffffffffffffffffffffffffffffffffffff1673ffffffffffffffffffffffffffffffffffffffff16815260200190815260200160002060030154612c8991906147e0565b905060008183612c99919061463a565b90506000600190505b60058111612f8857600460008773ffffffffffffffffffffffffffffffffffffffff1673ffffffffffffffffffffffffffffffffffffffff168152602001908152602001600020600082815260200190815260200160002060009054906101000a900460ff1615612f75576000600860008381526020019081526020016000206040518060e0016040529081600082018054612d3d90614b66565b80601f0160208091040260200160405190810160405280929190818152602001828054612d6990614b66565b8015612db65780601f10612d8b57610100808354040283529160200191612db6565b820191906000526020600020905b815481529060010190602001808311612d9957829003601f168201915b50505050508152602001600182018054612dcf90614b66565b80601f0160208091040260200160405190810160405280929190818152602001828054612dfb90614b66565b8015612e485780601f10612e1d57610100808354040283529160200191612e48565b820191906000526020600020905b815481529060010190602001808311612e2b57829003601f168201915b50505050508152602001600282018054612e6190614b66565b80601f0160208091040260200160405190810160405280929190818152602001828054612e8d90614b66565b8015612eda5780601f10612eaf57610100808354040283529160200191612eda565b820191906000526020600020905b815481529060010190602001808311612ebd57829003601f168201915b505050505081526020016003820154815260200160048201548152602001600582015481526020016006820160009054906101000a900460ff16151515158152505090508060c0015115612f73576064816080015186612f3a91906147e0565b612f449190614822565b945060648160a0015185612f5891906147e0565b612f629190614822565b93508385612f70919061463a565b92505b505b8080612f8090614853565b915050612ca2565b50809350505050919050565b60006064905080600360008573ffffffffffffffffffffffffffffffffffffffff1673ffffffffffffffffffffffffffffffffffffffff1681526020019081526020016000206004016000828254612fec919061463a565b92505081905550600360008473ffffffffffffffffffffffffffffffffffffffff1673ffffffffffffffffffffffffffffffffffffffff168152602001908152602001600020600501600081548092919061304690614853565b9190505550600360008373ffffffffffffffffffffffffffffffffffffffff1673ffffffffffffffffffffffffffffffffffffffff168152602001908152602001600020600601600081548092919061309e90614853565b91905055506000806000806064600f600360008a73ffffffffffffffffffffffffffffffffffffffff1673ffffffffffffffffffffffffffffffffffffffff168152602001908152602001600020600201546130fa91906147e0565b6131049190614822565b93506064600f600360008a73ffffffffffffffffffffffffffffffffffffffff1673ffffffffffffffffffffffffffffffffffffffff1681526020019081526020016000206003015461315791906147e0565b6131619190614822565b925060646032600360008973ffffffffffffffffffffffffffffffffffffffff1673ffffffffffffffffffffffffffffffffffffffff168152602001908152602001600020600201546131b491906147e0565b6131be9190614822565b915060646032600360008973ffffffffffffffffffffffffffffffffffffffff1673ffffffffffffffffffffffffffffffffffffffff1681526020019081526020016000206003015461321191906147e0565b61321b9190614822565b905083600360008973ffffffffffffffffffffffffffffffffffffffff1673ffffffffffffffffffffffffffffffffffffffff168152602001908152602001600020600201541161326d5760006132bc565b83600360008973ffffffffffffffffffffffffffffffffffffffff1673ffffffffffffffffffffffffffffffffffffffff168152602001908152602001600020600201546132bb91906149c2565b5b600360008973ffffffffffffffffffffffffffffffffffffffff1673ffffffffffffffffffffffffffffffffffffffff1681526020019081526020016000206002018190555082600360008973ffffffffffffffffffffffffffffffffffffffff1673ffffffffffffffffffffffffffffffffffffffff16815260200190815260200160002060030154116133525760006133a1565b82600360008973ffffffffffffffffffffffffffffffffffffffff1673ffffffffffffffffffffffffffffffffffffffff168152602001908152602001600020600301546133a091906149c2565b5b600360008973ffffffffffffffffffffffffffffffffffffffff1673ffffffffffffffffffffffffffffffffffffffff1681526020019081526020016000206003018190555081600360008873ffffffffffffffffffffffffffffffffffffffff1673ffffffffffffffffffffffffffffffffffffffff1681526020019081526020016000206002015411613437576000613486565b81600360008873ffffffffffffffffffffffffffffffffffffffff1673ffffffffffffffffffffffffffffffffffffffff1681526020019081526020016000206002015461348591906149c2565b5b600360008873ffffffffffffffffffffffffffffffffffffffff1673ffffffffffffffffffffffffffffffffffffffff1681526020019081526020016000206002018190555080600360008873ffffffffffffffffffffffffffffffffffffffff1673ffffffffffffffffffffffffffffffffffffffff168152602001908152602001600020600301541161351c57600061356b565b80600360008873ffffffffffffffffffffffffffffffffffffffff1673ffffffffffffffffffffffffffffffffffffffff1681526020019081526020016000206003015461356a91906149c2565b5b600360008873ffffffffffffffffffffffffffffffffffffffff1673ffffffffffffffffffffffffffffffffffffffff168152602001908152602001600020600301819055505b6064600360008973ffffffffffffffffffffffffffffffffffffffff1673ffffffffffffffffffffffffffffffffffffffff1681526020019081526020016000206001015461360191906147e0565b600360008973ffffffffffffffffffffffffffffffffffffffff1673ffffffffffffffffffffffffffffffffffffffff168152602001908152602001600020600401541061374d576064600360008973ffffffffffffffffffffffffffffffffffffffff1673ffffffffffffffffffffffffffffffffffffffff1681526020019081526020016000206001015461369891906147e0565b600360008973ffffffffffffffffffffffffffffffffffffffff1673ffffffffffffffffffffffffffffffffffffffff16815260200190815260200160002060040160008282546136e991906149c2565b92505081905550600360008873ffffffffffffffffffffffffffffffffffffffff1673ffffffffffffffffffffffffffffffffffffffff168152602001908152602001600020600101600081548092919061374390614853565b91905055506135b2565b6001600360008973ffffffffffffffffffffffffffffffffffffffff1673ffffffffffffffffffffffffffffffffffffffff16815260200190815260200160002060050154036137d7576137d6876040518060400160405280600b81526020017f46495253545f424c4f4f44000000000000000000000000000000000000000000815250613959565b5b600a600360008973ffffffffffffffffffffffffffffffffffffffff1673ffffffffffffffffffffffffffffffffffffffff168152602001908152602001600020600501540361386157613860876040518060400160405280600781526020017f5645544552414e00000000000000000000000000000000000000000000000000815250613959565b5b6032600360008973ffffffffffffffffffffffffffffffffffffffff1673ffffffffffffffffffffffffffffffffffffffff16815260200190815260200160002060050154036138eb576138ea876040518060400160405280600781526020017f5741524c4f524400000000000000000000000000000000000000000000000000815250613959565b5b8573ffffffffffffffffffffffffffffffffffffffff168773ffffffffffffffffffffffffffffffffffffffff167f081ed76c4c071d6097731876fc5abf74d14653d1900d984ce23fe568f23448fa876040516139489190613ccd565b60405180910390a350505050505050565b600560008373ffffffffffffffffffffffffffffffffffffffff1673ffffffffffffffffffffffffffffffffffffffff168152602001908152602001600020816040516139a691906155ca565b908152602001604051809103902060009054906101000a900460ff16613a89576001600560008473ffffffffffffffffffffffffffffffffffffffff1673ffffffffffffffffffffffffffffffffffffffff16815260200190815260200160002082604051613a1591906155ca565b908152602001604051809103902060006101000a81548160ff0219169083151502179055508173ffffffffffffffffffffffffffffffffffffffff167fca8c9accce1ea9b1e88e76d666c26849f39052a6344521346b739cdd29ad4ae682604051613a80919061500d565b60405180910390a25b5050565b600081600001549050919050565b6001816000016000828254019250508190555050565b6000808273ffffffffffffffffffffffffffffffffffffffff168473ffffffffffffffffffffffffffffffffffffffff16189050606481613af291906147af565b9050600181613b0191906147e0565b601e613b0d919061463a565b91505092915050565b508054613b2290614b66565b6000825580601f10613b345750613b53565b601f016020900490600052602060002090810190613b529190613b56565b5b50565b5b80821115613b6f576000816000905550600101613b57565b5090565b6000604051905090565b600080fd5b600080fd5b6000819050919050565b613b9a81613b87565b8114613ba557600080fd5b50565b600081359050613bb781613b91565b92915050565b600060208284031215613bd357613bd2613b7d565b5b6000613be184828501613ba8565b91505092915050565b600073ffffffffffffffffffffffffffffffffffffffff82169050919050565b6000613c1582613bea565b9050919050565b613c2581613c0a565b8114613c3057600080fd5b50565b600081359050613c4281613c1c565b92915050565b60008060408385031215613c5f57613c5e613b7d565b5b6000613c6d85828601613c33565b9250506020613c7e85828601613ba8565b9150509250929050565b60008115159050919050565b613c9d81613c88565b82525050565b6000602082019050613cb86000830184613c94565b92915050565b613cc781613b87565b82525050565b6000602082019050613ce26000830184613cbe565b92915050565b600060208284031215613cfe57613cfd613b7d565b5b6000613d0c84828501613c33565b91505092915050565b600081519050919050565b600082825260208201905092915050565b60005b83811015613d4f578082015181840152602081019050613d34565b60008484015250505050565b6000601f19601f8301169050919050565b6000613d7782613d15565b613d818185613d20565b9350613d91818560208601613d31565b613d9a81613d5b565b840191505092915050565b6000610120820190508181036000830152613dc0818c613d6c565b9050613dcf602083018b613cbe565b613ddc604083018a613cbe565b613de96060830189613cbe565b613df66080830188613cbe565b613e0360a0830187613cbe565b613e1060c0830186613cbe565b613e1d60e0830185613cbe565b613e2b610100830184613cbe565b9a9950505050505050505050565b613e4281613c0a565b82525050565b6000602082019050613e5d6000830184613e39565b92915050565b600080fd5b600080fd5b7f4e487b7100000000000000000000000000000000000000000000000000000000600052604160045260246000fd5b613ea582613d5b565b810181811067ffffffffffffffff82111715613ec457613ec3613e6d565b5b80604052505050565b6000613ed7613b73565b9050613ee38282613e9c565b919050565b600067ffffffffffffffff821115613f0357613f02613e6d565b5b613f0c82613d5b565b9050602081019050919050565b82818337600083830152505050565b6000613f3b613f3684613ee8565b613ecd565b905082815260208101848484011115613f5757613f56613e68565b5b613f62848285613f19565b509392505050565b600082601f830112613f7f57613f7e613e63565b5b8135613f8f848260208601613f28565b91505092915050565b600080600060608486031215613fb157613fb0613b7d565b5b600084013567ffffffffffffffff811115613fcf57613fce613b82565b5b613fdb86828701613f6a565b9350506020613fec86828701613ba8565b9250506040613ffd86828701613ba8565b9150509250925092565b600060a08201905061401c6000830188613c94565b6140296020830187613c94565b6140366040830186613c94565b6140436060830185613c94565b6140506080830184613c94565b9695505050505050565b6000806040838503121561407157614070613b7d565b5b600061407f85828601613ba8565b925050602061409085828601613ba8565b9150509250929050565b600081519050919050565b600082825260208201905092915050565b6000819050602082019050919050565b6140cf81613c0a565b82525050565b60006140e183836140c6565b60208301905092915050565b6000602082019050919050565b60006141058261409a565b61410f81856140a5565b935061411a836140b6565b8060005b8381101561414b57815161413288826140d5565b975061413d836140ed565b92505060018101905061411e565b5085935050505092915050565b600081519050919050565b600082825260208201905092915050565b6000819050602082019050919050565b600082825260208201905092915050565b60006141a082613d15565b6141aa8185614184565b93506141ba818560208601613d31565b6141c381613d5b565b840191505092915050565b60006141da8383614195565b905092915050565b6000602082019050919050565b60006141fa82614158565b6142048185614163565b93508360208202850161421685614174565b8060005b85811015614252578484038952815161423385826141ce565b945061423e836141e2565b925060208a0199505060018101905061421a565b50829750879550505050505092915050565b600081519050919050565b600082825260208201905092915050565b6000819050602082019050919050565b61429981613b87565b82525050565b60006142ab8383614290565b60208301905092915050565b6000602082019050919050565b60006142cf82614264565b6142d9818561426f565b93506142e483614280565b8060005b838110156143155781516142fc888261429f565b9750614307836142b7565b9250506001810190506142e8565b5085935050505092915050565b600060a082019050818103600083015261433c81886140fa565b9050818103602083015261435081876141ef565b9050818103604083015261436481866142c4565b9050818103606083015261437881856142c4565b9050818103608083015261438c81846142c4565b90509695505050505050565b600080604083850312156143af576143ae613b7d565b5b60006143bd85828601613c33565b925050602083013567ffffffffffffffff8111156143de576143dd613b82565b5b6143ea85828601613f6a565b9150509250929050565b6000602082019050818103600083015261440e81846140fa565b905092915050565b6000610160820190508181036000830152614431818e613d6c565b9050614440602083018d613cbe565b61444d604083018c613cbe565b61445a606083018b613cbe565b614467608083018a613cbe565b61447460a0830189613cbe565b61448160c0830188613cbe565b61448e60e0830187613cbe565b61449c610100830186613c94565b6144aa610120830185613cbe565b6144b8610140830184613cbe565b9c9b505050505050505050505050565b600060e08201905081810360008301526144e2818a613d6c565b905081810360208301526144f68189613d6c565b9050818103604083015261450a8188613d6c565b90506145196060830187613cbe565b6145266080830186613cbe565b61453360a0830185613cbe565b61454060c0830184613c94565b98975050505050505050565b600060a0820190506145616000830188613e39565b61456e6020830187613e39565b61457b6040830186613cbe565b6145886060830185613c94565b6145956080830184613cbe565b9695505050505050565b7f426174746c6520616c7265616479207265736f6c766564000000000000000000600082015250565b60006145d5601783613d20565b91506145e08261459f565b602082019050919050565b60006020820190508181036000830152614604816145c8565b9050919050565b7f4e487b7100000000000000000000000000000000000000000000000000000000600052601160045260246000fd5b600061464582613b87565b915061465083613b87565b92508282019050808211156146685761466761460b565b5b92915050565b7f54726f6f7073207374696c6c2074726176656c696e6700000000000000000000600082015250565b60006146a4601683613d20565b91506146af8261466e565b602082019050919050565b600060208201905081810360008301526146d381614697565b9050919050565b6000819050919050565b6146f56146f082613b87565b6146da565b82525050565b60008160601b9050919050565b6000614713826146fb565b9050919050565b600061472582614708565b9050919050565b61473d61473882613c0a565b61471a565b82525050565b600061474f82866146e4565b60208201915061475f828561472c565b60148201915061476f828461472c565b601482019150819050949350505050565b7f4e487b7100000000000000000000000000000000000000000000000000000000600052601260045260246000fd5b60006147ba82613b87565b91506147c583613b87565b9250826147d5576147d4614780565b5b828206905092915050565b60006147eb82613b87565b91506147f683613b87565b925082820261480481613b87565b9150828204841483151761481b5761481a61460b565b5b5092915050565b600061482d82613b87565b915061483883613b87565b92508261484857614847614780565b5b828204905092915050565b600061485e82613b87565b91507fffffffffffffffffffffffffffffffffffffffffffffffffffffffffffffffff82036148905761488f61460b565b5b600182019050919050565b7f496e73756666696369656e74207061796d656e7420666f72207370656564207560008201527f7000000000000000000000000000000000000000000000000000000000000000602082015250565b60006148f7602183613d20565b91506149028261489b565b604082019050919050565b60006020820190508181036000830152614926816148ea565b9050919050565b7f4e6f7420796f757220626174746c650000000000000000000000000000000000600082015250565b6000614963600f83613d20565b915061496e8261492d565b602082019050919050565b6000602082019050818103600083015261499281614956565b9050919050565b60006040820190506149ae6000830185613cbe565b6149bb6020830184613e39565b9392505050565b60006149cd82613b87565b91506149d883613b87565b92508282039050818111156149f0576149ef61460b565b5b92915050565b7f4b68616e617465206e6f7420696e697469616c697a6564000000000000000000600082015250565b6000614a2c601783613d20565b9150614a37826149f6565b602082019050919050565b60006020820190508181036000830152614a5b81614a1f565b9050919050565b7f496e73756666696369656e74207061796d656e74000000000000000000000000600082015250565b6000614a98601483613d20565b9150614aa382614a62565b602082019050919050565b60006020820190508181036000830152614ac781614a8b565b9050919050565b6000614ada82856146e4565b602082019150614aea828461472c565b6014820191508190509392505050565b6000614b0682866146e4565b602082019150614b16828561472c565b601482019150614b2682846146e4565b602082019150819050949350505050565b7f4e487b7100000000000000000000000000000000000000000000000000000000600052602260045260246000fd5b60006002820490506001821680614b7e57607f821691505b602082108103614b9157614b90614b37565b5b50919050565b60008190508160005260206000209050919050565b60008154614bb981614b66565b614bc38186613d20565b94506001821660008114614bde5760018114614bf457614c27565b60ff198316865281151560200286019350614c27565b614bfd85614b97565b60005b83811015614c1f57815481890152600182019150602081019050614c00565b808801955050505b50505092915050565b6000604082019050614c456000830185613cbe565b8181036020830152614c578184614bac565b90509392505050565b7f4b68616e61746520616c72656164792065786973747300000000000000000000600082015250565b6000614c96601683613d20565b9150614ca182614c60565b602082019050919050565b60006020820190508181036000830152614cc581614c89565b9050919050565b7f4e616d652063616e6e6f7420626520656d707479000000000000000000000000600082015250565b6000614d02601483613d20565b9150614d0d82614ccc565b602082019050919050565b60006020820190508181036000830152614d3181614cf5565b9050919050565b7f496e76616c6964206c6f636174696f6e20636f6f7264696e6174657300000000600082015250565b6000614d6e601c83613d20565b9150614d7982614d38565b602082019050919050565b60006020820190508181036000830152614d9d81614d61565b9050919050565b60006020601f8301049050919050565b600082821b905092915050565b600060088302614df17fffffffffffffffffffffffffffffffffffffffffffffffffffffffffffffffff82614db4565b614dfb8683614db4565b95508019841693508086168417925050509392505050565b6000819050919050565b6000614e38614e33614e2e84613b87565b614e13565b613b87565b9050919050565b6000819050919050565b614e5283614e1d565b614e66614e5e82614e3f565b848454614dc1565b825550505050565b600090565b614e7b614e6e565b614e86818484614e49565b505050565b5b81811015614eaa57614e9f600082614e73565b600181019050614e8c565b5050565b601f821115614eef57614ec081614b97565b614ec984614da4565b81016020851015614ed8578190505b614eec614ee485614da4565b830182614e8b565b50505b505050565b600082821c905092915050565b6000614f1260001984600802614ef4565b1980831691505092915050565b6000614f2b8383614f01565b9150826002028217905092915050565b614f4482613d15565b67ffffffffffffffff811115614f5d57614f5c613e6d565b5b614f678254614b66565b614f72828285614eae565b600060209050601f831160018114614fa55760008415614f93578287015190505b614f9d8582614f1f565b865550615005565b601f198416614fb386614b97565b60005b82811015614fdb57848901518255600182019150602085019450602081019050614fb6565b86831015614ff85784890151614ff4601f891682614f01565b8355505b6001600288020188555050505b505050505050565b600060208201905081810360008301526150278184613d6c565b905092915050565b600081905092915050565b7f46495253545f424c4f4f44000000000000000000000000000000000000000000600082015250565b6000615070600b8361502f565b915061507b8261503a565b600b82019050919050565b600061509182615063565b9150819050919050565b7f5645544552414e00000000000000000000000000000000000000000000000000600082015250565b60006150d160078361502f565b91506150dc8261509b565b600782019050919050565b60006150f2826150c4565b9150819050919050565b7f5741524c4f524400000000000000000000000000000000000000000000000000600082015250565b600061513260078361502f565b915061513d826150fc565b600782019050919050565b600061515382615125565b9150819050919050565b7f444546454e444552000000000000000000000000000000000000000000000000600082015250565b600061519360088361502f565b915061519e8261515d565b600882019050919050565b60006151b482615186565b9150819050919050565b7f434f4c4c4543544f520000000000000000000000000000000000000000000000600082015250565b60006151f460098361502f565b91506151ff826151be565b600982019050919050565b6000615215826151e7565b9150819050919050565b7f496e76616c69642072616e676500000000000000000000000000000000000000600082015250565b6000615255600d83613d20565b91506152608261521f565b602082019050919050565b6000602082019050818103600083015261528481615248565b9050919050565b7f4e487b7100000000000000000000000000000000000000000000000000000000600052603260045260246000fd5b7f43616e206f6e6c792072656d6f7665206f776e204b68616e6174650000000000600082015250565b60006152f0601b83613d20565b91506152fb826152ba565b602082019050919050565b6000602082019050818103600083015261531f816152e3565b9050919050565b7f4e487b7100000000000000000000000000000000000000000000000000000000600052603160045260246000fd5b7f496e76616c696420426174797220494400000000000000000000000000000000600082015250565b600061538b601083613d20565b915061539682615355565b602082019050919050565b600060208201905081810360008301526153ba8161537e565b9050919050565b60006040820190506153d66000830185613cbe565b6153e36020830184613cbe565b9392505050565b7f43616e6e6f7420626174746c6520796f757273656c6600000000000000000000600082015250565b6000615420601683613d20565b915061542b826153ea565b602082019050919050565b6000602082019050818103600083015261544f81615413565b9050919050565b7f446566656e6465722773204b68616e617465206e6f7420696e697469616c697a60008201527f6564000000000000000000000000000000000000000000000000000000000000602082015250565b60006154b2602283613d20565b91506154bd82615456565b604082019050919050565b600060208201905081810360008301526154e1816154a5565b9050919050565b7f4e6f2074726f6f707320746f20626174746c6520776974680000000000000000600082015250565b600061551e601883613d20565b9150615529826154e8565b602082019050919050565b6000602082019050818103600083015261554d81615511565b9050919050565b60006080820190506155696000830187613cbe565b6155766020830186613e39565b6155836040830185613e39565b6155906060830184613cbe565b95945050505050565b60006155a482613d15565b6155ae818561502f565b93506155be818560208601613d31565b80840191505092915050565b60006155d68284615599565b91508190509291505056fea2646970667358221220bbad637246886f0b6b531445c17d4efd8271b76d9030f11ef34eb3ace0cc804564736f6c6343000813003350726f7669646573207374726f6e6720646566656e7369766520626f6e757365735369676e69666963616e746c7920626f6f7374732061726368657220706f776572456e68616e63657320626f74682061726368657220616e6420636176616c7279206566666563746976656e6573735369676e69666963616e746c7920626f6f73747320636176616c727920706f776572",
  "linkReferences": {},
  "deployedLinkReferences": {}
}