{
  "_format": "hh-sol-artifact-1",
  "contractName": "KazakhKhanate",
  "sourceName": "contracts/KazakhKhanate.sol",
  "abi": [
    {
      "inputs": [],
      "stateMutability": "nonpayable",
      "type": "constructor"
    },
    {
      "anonymous": false,
      "inputs": [
        {
          "indexed": true,
          "internalType": "address",
          "name": "player",
          "type": "address"
        },
        {
          "indexed": false,
          "internalType": "string",
          "name": "achievement",
          "type": "string"
        }
      ],
      "name": "AchievementUnlocked",
      "type": "event"
    },
    {
      "anonymous": false,
      "inputs": [
        {
          "indexed": false,
          "internalType": "uint256",
          "name": "battleId",
          "type": "uint256"
        },
        {
          "indexed": false,
          "internalType": "address",
          "name": "attacker",
          "type": "address"
        },
        {
          "indexed": false,
          "internalType": "address",
          "name": "defender",
          "type": "address"
        },
        {
          "indexed": false,
          "internalType": "uint256",
          "name": "travelTime",
          "type": "uint256"
        }
      ],
      "name": "BattleInitiated",
      "type": "event"
    },
    {
      "anonymous": false,
      "inputs": [
        {
          "indexed": true,
          "internalType": "address",
          "name": "winner",
          "type": "address"
        },
        {
          "indexed": true,
          "internalType": "address",
          "name": "loser",
          "type": "address"
        },
        {
          "indexed": false,
          "internalType": "uint256",
          "name": "experienceGained",
          "type": "uint256"
        }
      ],
      "name": "BattleResult",
      "type": "event"
    },
    {
      "anonymous": false,
      "inputs": [
        {
          "indexed": false,
          "internalType": "uint256",
          "name": "battleId",
          "type": "uint256"
        },
        {
          "indexed": false,
          "internalType": "address",
          "name": "attacker",
          "type": "address"
        }
      ],
      "name": "BattleSpedUp",
      "type": "event"
    },
    {
      "anonymous": false,
      "inputs": [
        {
          "indexed": true,
          "internalType": "address",
          "name": "owner",
          "type": "address"
        },
        {
          "indexed": false,
          "internalType": "uint256",
          "name": "batyrId",
          "type": "uint256"
        },
        {
          "indexed": false,
          "internalType": "string",
          "name": "name",
          "type": "string"
        }
      ],
      "name": "BatyrAcquired",
      "type": "event"
    },
    {
      "anonymous": false,
      "inputs": [
        {
          "indexed": true,
          "internalType": "address",
          "name": "owner",
          "type": "address"
        },
        {
          "indexed": false,
          "internalType": "string",
          "name": "name",
          "type": "string"
        }
      ],
      "name": "KhanateCreated",
      "type": "event"
    },
    {
      "anonymous": false,
      "inputs": [
        {
          "indexed": true,
          "internalType": "address",
          "name": "owner",
          "type": "address"
        },
        {
          "indexed": false,
          "internalType": "uint256",
          "name": "archers",
          "type": "uint256"
        },
        {
          "indexed": false,
          "internalType": "uint256",
          "name": "cavalry",
          "type": "uint256"
        }
      ],
      "name": "TroopsPurchased",
      "type": "event"
    },
    {
      "inputs": [],
      "name": "ARCHER_PRICE",
      "outputs": [
        {
          "internalType": "uint256",
          "name": "",
          "type": "uint256"
        }
      ],
      "stateMutability": "view",
      "type": "function"
    },
    {
      "inputs": [],
      "name": "CAVALRY_PRICE",
      "outputs": [
        {
          "internalType": "uint256",
          "name": "",
          "type": "uint256"
        }
      ],
      "stateMutability": "view",
      "type": "function"
    },
    {
      "inputs": [],
      "name": "LUCKY_BOX_PRICE",
      "outputs": [
        {
          "internalType": "uint256",
          "name": "",
          "type": "uint256"
        }
      ],
      "stateMutability": "view",
      "type": "function"
    },
    {
      "inputs": [],
      "name": "SPEED_UP_PRICE",
      "outputs": [
        {
          "internalType": "uint256",
          "name": "",
          "type": "uint256"
        }
      ],
      "stateMutability": "view",
      "type": "function"
    },
    {
      "inputs": [
        {
          "internalType": "address",
          "name": "",
          "type": "address"
        },
        {
          "internalType": "string",
          "name": "",
          "type": "string"
        }
      ],
      "name": "achievements",
      "outputs": [
        {
          "internalType": "bool",
          "name": "",
          "type": "bool"
        }
      ],
      "stateMutability": "view",
      "type": "function"
    },
    {
      "inputs": [
        {
          "internalType": "uint256",
          "name": "",
          "type": "uint256"
        }
      ],
      "name": "activeBattles",
      "outputs": [
        {
          "internalType": "address",
          "name": "attacker",
          "type": "address"
        },
        {
          "internalType": "address",
          "name": "defender",
          "type": "address"
        },
        {
          "internalType": "uint256",
          "name": "startTime",
          "type": "uint256"
        },
        {
          "internalType": "bool",
          "name": "resolved",
          "type": "bool"
        },
        {
          "internalType": "uint256",
          "name": "travelTime",
          "type": "uint256"
        }
      ],
      "stateMutability": "view",
      "type": "function"
    },
    {
      "inputs": [
        {
          "internalType": "uint256",
          "name": "",
          "type": "uint256"
        }
      ],
      "name": "batyrs",
      "outputs": [
        {
          "internalType": "string",
          "name": "name",
          "type": "string"
        },
        {
          "internalType": "string",
          "name": "ability",
          "type": "string"
        },
        {
          "internalType": "string",
          "name": "description",
          "type": "string"
        },
        {
          "internalType": "uint256",
          "name": "power",
          "type": "uint256"
        },
        {
          "internalType": "uint256",
          "name": "archerBonus",
          "type": "uint256"
        },
        {
          "internalType": "uint256",
          "name": "cavalryBonus",
          "type": "uint256"
        },
        {
          "internalType": "bool",
          "name": "canBattle",
          "type": "bool"
        }
      ],
      "stateMutability": "view",
      "type": "function"
    },
    {
      "inputs": [
        {
          "internalType": "string",
          "name": "name",
          "type": "string"
        }
      ],
      "name": "createKhanate",
      "outputs": [],
      "stateMutability": "nonpayable",
      "type": "function"
    },
    {
      "inputs": [
        {
          "internalType": "uint256",
          "name": "battleId",
          "type": "uint256"
        }
      ],
      "name": "executeBattle",
      "outputs": [],
      "stateMutability": "nonpayable",
      "type": "function"
    },
    {
      "inputs": [
        {
          "internalType": "uint256",
          "name": "batyrId",
          "type": "uint256"
        }
      ],
      "name": "getBatyrStats",
      "outputs": [
        {
          "internalType": "string",
          "name": "name",
          "type": "string"
        },
        {
          "internalType": "string",
          "name": "ability",
          "type": "string"
        },
        {
          "internalType": "string",
          "name": "description",
          "type": "string"
        },
        {
          "internalType": "uint256",
          "name": "power",
          "type": "uint256"
        },
        {
          "internalType": "uint256",
          "name": "archerBonus",
          "type": "uint256"
        },
        {
          "internalType": "uint256",
          "name": "cavalryBonus",
          "type": "uint256"
        },
        {
          "internalType": "bool",
          "name": "canBattle",
          "type": "bool"
        }
      ],
      "stateMutability": "view",
      "type": "function"
    },
    {
      "inputs": [
        {
          "internalType": "address",
          "name": "player",
          "type": "address"
        }
      ],
      "name": "getKhanateStats",
      "outputs": [
        {
          "internalType": "string",
          "name": "name",
          "type": "string"
        },
        {
          "internalType": "uint256",
          "name": "level",
          "type": "uint256"
        },
        {
          "internalType": "uint256",
          "name": "archers",
          "type": "uint256"
        },
        {
          "internalType": "uint256",
          "name": "cavalry",
          "type": "uint256"
        },
        {
          "internalType": "uint256",
          "name": "experience",
          "type": "uint256"
        },
        {
          "internalType": "uint256",
          "name": "wins",
          "type": "uint256"
        },
        {
          "internalType": "uint256",
          "name": "losses",
          "type": "uint256"
        }
      ],
      "stateMutability": "view",
      "type": "function"
    },
    {
      "inputs": [
        {
          "internalType": "address",
          "name": "player",
          "type": "address"
        }
      ],
      "name": "getPlayerStats",
      "outputs": [
        {
          "internalType": "bool",
          "name": "FIRST_BLOOD",
          "type": "bool"
        },
        {
          "internalType": "bool",
          "name": "VETERAN",
          "type": "bool"
        },
        {
          "internalType": "bool",
          "name": "WARLORD",
          "type": "bool"
        },
        {
          "internalType": "bool",
          "name": "DEFENDER",
          "type": "bool"
        },
        {
          "internalType": "bool",
          "name": "COLLECTOR",
          "type": "bool"
        }
      ],
      "stateMutability": "view",
      "type": "function"
    },
    {
      "inputs": [
        {
          "internalType": "address",
          "name": "player",
          "type": "address"
        },
        {
          "internalType": "uint256",
          "name": "batyrId",
          "type": "uint256"
        }
      ],
      "name": "hasBatyr",
      "outputs": [
        {
          "internalType": "bool",
          "name": "",
          "type": "bool"
        }
      ],
      "stateMutability": "view",
      "type": "function"
    },
    {
      "inputs": [
        {
          "internalType": "address",
          "name": "defender",
          "type": "address"
        }
      ],
      "name": "initiateBattle",
      "outputs": [],
      "stateMutability": "nonpayable",
      "type": "function"
    },
    {
      "inputs": [
        {
          "internalType": "address",
          "name": "",
          "type": "address"
        }
      ],
      "name": "khanates",
      "outputs": [
        {
          "internalType": "string",
          "name": "name",
          "type": "string"
        },
        {
          "internalType": "uint256",
          "name": "level",
          "type": "uint256"
        },
        {
          "internalType": "uint256",
          "name": "archers",
          "type": "uint256"
        },
        {
          "internalType": "uint256",
          "name": "cavalry",
          "type": "uint256"
        },
        {
          "internalType": "uint256",
          "name": "experience",
          "type": "uint256"
        },
        {
          "internalType": "uint256",
          "name": "wins",
          "type": "uint256"
        },
        {
          "internalType": "uint256",
          "name": "losses",
          "type": "uint256"
        },
        {
          "internalType": "uint256",
          "name": "successfulDefenses",
          "type": "uint256"
        },
        {
          "internalType": "bool",
          "name": "initialized",
          "type": "bool"
        }
      ],
      "stateMutability": "view",
      "type": "function"
    },
    {
      "inputs": [
        {
          "internalType": "address",
          "name": "",
          "type": "address"
        },
        {
          "internalType": "uint256",
          "name": "",
          "type": "uint256"
        }
      ],
      "name": "ownedBatyrs",
      "outputs": [
        {
          "internalType": "bool",
          "name": "",
          "type": "bool"
        }
      ],
      "stateMutability": "view",
      "type": "function"
    },
    {
      "inputs": [],
      "name": "purchaseLuckyBox",
      "outputs": [],
      "stateMutability": "payable",
      "type": "function"
    },
    {
      "inputs": [
        {
          "internalType": "uint256",
          "name": "archerAmount",
          "type": "uint256"
        },
        {
          "internalType": "uint256",
          "name": "cavalryAmount",
          "type": "uint256"
        }
      ],
      "name": "purchaseTroops",
      "outputs": [],
      "stateMutability": "payable",
      "type": "function"
    },
    {
      "inputs": [
        {
          "internalType": "uint256",
          "name": "battleId",
          "type": "uint256"
        }
      ],
      "name": "speedUpBattle",
      "outputs": [],
      "stateMutability": "payable",
      "type": "function"
    }
  ],
  "bytecode": "0x60806040523480156200001157600080fd5b5060016000819055506040518060e001604052806040518060400160405280600e81526020017f4b6162616e62617920426174797200000000000000000000000000000000000081525081526020016040518060400160405280601181526020017f4d6173746572205374726174656769737400000000000000000000000000000081525081526020016040518060600160405280602e815260200162005061602e91398152602001606481526020016078815260200160788152602001600115158152506006600060018152602001908152602001600020600082015181600001908162000101919062000973565b50602082015181600101908162000119919062000973565b50604082015181600201908162000131919062000973565b50606082015181600301556080820151816004015560a0820151816005015560c08201518160060160006101000a81548160ff0219169083151502179055509050506040518060e001604052806040518060400160405280600e81526020017f426f67656e62616920426174797200000000000000000000000000000000000081525081526020016040518060400160405280601081526020017f41726368657220436f6d6d616e6465720000000000000000000000000000000081525081526020016040518060600160405280602181526020016200504060219139815260200160508152602001609681526020016064815260200160011515815250600660006002815260200190815260200160002060008201518160000190816200025a919062000973565b50602082015181600101908162000272919062000973565b5060408201518160020190816200028a919062000973565b50606082015181600301556080820151816004015560a0820151816005015560c08201518160060160006101000a81548160ff0219169083151502179055509050506040518060e001604052806040518060400160405280600f81526020017f4e617572797a626169204261747972000000000000000000000000000000000081525081526020016040518060400160405280600e81526020017f436176616c7279204d617374657200000000000000000000000000000000000081525081526020016040518060600160405280602281526020016200508f6022913981526020016050815260200160648152602001609681526020016001151581525060066000600381526020019081526020016000206000820151816000019081620003b3919062000973565b506020820151816001019081620003cb919062000973565b506040820151816002019081620003e3919062000973565b50606082015181600301556080820151816004015560a0820151816005015560c08201518160060160006101000a81548160ff0219169083151502179055509050506040518060e001604052806040518060400160405280600d81526020017f4b6172617361692042617479720000000000000000000000000000000000000081525081526020016040518060400160405280601081526020017f446566656e73697665204578706572740000000000000000000000000000000081525081526020016040518060600160405280602181526020016200501f60219139815260200160788152602001606e8152602001606e815260200160001515815250600660006004815260200190815260200160002060008201518160000190816200050c919062000973565b50602082015181600101908162000524919062000973565b5060408201518160020190816200053c919062000973565b50606082015181600301556080820151816004015560a0820151816005015560c08201518160060160006101000a81548160ff0219169083151502179055509050506040518060e001604052806040518060400160405280600e81526020017f5a68616e6962656b20426174797200000000000000000000000000000000000081525081526020016040518060400160405280600e81526020017f456c69746520477561726469616e00000000000000000000000000000000000081525081526020016040518060400160405280601e81526020017f53757072656d6520646566656e73697665206361706162696c697469657300008152508152602001609681526020016064815260200160648152602001600015158152506006600060058152602001908152602001600020600082015181600001908162000681919062000973565b50602082015181600101908162000699919062000973565b506040820151816002019081620006b1919062000973565b50606082015181600301556080820151816004015560a0820151816005015560c08201518160060160006101000a81548160ff02191690831515021790555090505062000a5a565b600081519050919050565b7f4e487b7100000000000000000000000000000000000000000000000000000000600052604160045260246000fd5b7f4e487b7100000000000000000000000000000000000000000000000000000000600052602260045260246000fd5b600060028204905060018216806200077b57607f821691505b60208210810362000791576200079062000733565b5b50919050565b60008190508160005260206000209050919050565b60006020601f8301049050919050565b600082821b905092915050565b600060088302620007fb7fffffffffffffffffffffffffffffffffffffffffffffffffffffffffffffffff82620007bc565b620008078683620007bc565b95508019841693508086168417925050509392505050565b6000819050919050565b6000819050919050565b6000620008546200084e62000848846200081f565b62000829565b6200081f565b9050919050565b6000819050919050565b620008708362000833565b620008886200087f826200085b565b848454620007c9565b825550505050565b600090565b6200089f62000890565b620008ac81848462000865565b505050565b5b81811015620008d457620008c860008262000895565b600181019050620008b2565b5050565b601f8211156200092357620008ed8162000797565b620008f884620007ac565b8101602085101562000908578190505b620009206200091785620007ac565b830182620008b1565b50505b505050565b600082821c905092915050565b6000620009486000198460080262000928565b1980831691505092915050565b600062000963838362000935565b9150826002028217905092915050565b6200097e82620006f9565b67ffffffffffffffff8111156200099a576200099962000704565b5b620009a6825462000762565b620009b3828285620008d8565b600060209050601f831160018114620009eb5760008415620009d6578287015190505b620009e2858262000955565b86555062000a52565b601f198416620009fb8662000797565b60005b8281101562000a2557848901518255600182019150602085019450602081019050620009fe565b8683101562000a45578489015162000a41601f89168262000935565b8355505b6001600288020188555050505b505050505050565b6145b58062000a6a6000396000f3fe6080604052600436106101145760003560e01c806354258088116100a0578063c1c063eb11610064578063c1c063eb146103d5578063dfad625714610418578063e0f83f2114610434578063ee52f8f31461045f578063fd0a5d9b146104a057610114565b806354258088146102ba5780635dcee894146102e55780636011515c146103225780636b4faeca1461034d5780638602eebf1461039257610114565b80633a0de743116100e75780633a0de743146101c45780633b42f248146101ce5780633dde60c21461020b5780633f430695146102365780634fd66eae1461027957610114565b80630c1cdb6d146101195780631504f5cd1461014257806321ec18e11461016b578063232e096d14610187575b600080fd5b34801561012557600080fd5b50610140600480360381019061013b91906131aa565b6104c9565b005b34801561014e57600080fd5b5061016960048036038101906101649190613229565b6106f7565b005b61018560048036038101906101809190613229565b6109b0565b005b34801561019357600080fd5b506101ae60048036038101906101a991906132b4565b610ba7565b6040516101bb919061330f565b60405180910390f35b6101cc610c0f565b005b3480156101da57600080fd5b506101f560048036038101906101f091906132b4565b610ff4565b604051610202919061330f565b60405180910390f35b34801561021757600080fd5b50610220611023565b60405161022d9190613339565b60405180910390f35b34801561024257600080fd5b5061025d60048036038101906102589190613354565b61102e565b6040516102709796959493929190613400565b60405180910390f35b34801561028557600080fd5b506102a0600480360381019061029b9190613354565b611247565b6040516102b1959493929190613476565b60405180910390f35b3480156102c657600080fd5b506102cf611465565b6040516102dc9190613339565b60405180910390f35b3480156102f157600080fd5b5061030c600480360381019061030791906134c9565b611471565b604051610319919061330f565b60405180910390f35b34801561032e57600080fd5b506103376114b6565b6040516103449190613339565b60405180910390f35b34801561035957600080fd5b50610374600480360381019061036f9190613354565b6114c1565b60405161038999989796959493929190613525565b60405180910390f35b34801561039e57600080fd5b506103b960048036038101906103b49190613229565b6115a4565b6040516103cc97969594939291906135b9565b60405180910390f35b3480156103e157600080fd5b506103fc60048036038101906103f79190613229565b61178b565b60405161040f97969594939291906135b9565b60405180910390f35b610432600480360381019061042d919061363d565b611a34565b005b34801561044057600080fd5b50610449611c9c565b6040516104569190613339565b60405180910390f35b34801561046b57600080fd5b5061048660048036038101906104819190613229565b611ca8565b60405161049795949392919061368c565b60405180910390f35b3480156104ac57600080fd5b506104c760048036038101906104c29190613354565b611d2b565b005b600160003373ffffffffffffffffffffffffffffffffffffffff1673ffffffffffffffffffffffffffffffffffffffff16815260200190815260200160002060080160009054906101000a900460ff1615610559576040517f08c379a00000000000000000000000000000000000000000000000000000000081526004016105509061372b565b60405180910390fd5b600081511161059d576040517f08c379a000000000000000000000000000000000000000000000000000000000815260040161059490613797565b60405180910390fd5b60405180610120016040528082815260200160018152602001600a8152602001600581526020016000815260200160008152602001600081526020016000815260200160011515815250600160003373ffffffffffffffffffffffffffffffffffffffff1673ffffffffffffffffffffffffffffffffffffffff168152602001908152602001600020600082015181600001908161063b91906139c3565b506020820151816001015560408201518160020155606082015181600301556080820151816004015560a0820151816005015560c0820151816006015560e082015181600701556101008201518160080160006101000a81548160ff0219169083151502179055509050503373ffffffffffffffffffffffffffffffffffffffff167f67409ced604950b5508f075f60153e7d166866a8251a44b569a7a07d7f27c3eb826040516106ec9190613a95565b60405180910390a250565b60006004600083815260200190815260200160002090508060030160009054906101000a900460ff1615610760576040517f08c379a000000000000000000000000000000000000000000000000000000000815260040161075790613b03565b60405180910390fd5b806004015481600201546107749190613b52565b4210156107b6576040517f08c379a00000000000000000000000000000000000000000000000000000000081526004016107ad90613bd2565b60405180910390fd5b60008160000160009054906101000a900473ffffffffffffffffffffffffffffffffffffffff16905060008260010160009054906101000a900473ffffffffffffffffffffffffffffffffffffffff16905060006108138361211f565b905060006108208361211f565b90506000605a601442878760405160200161083d93929190613c5b565b6040516020818303038152906040528051906020012060001c6108609190613cc7565b61086a9190613b52565b90506064818461087a9190613cf8565b6108849190613d3a565b925060018660030160006101000a81548160ff021916908315150217905550818311156108ba576108b585856124cf565b6109a7565b6108c484866124cf565b600160008573ffffffffffffffffffffffffffffffffffffffff1673ffffffffffffffffffffffffffffffffffffffff168152602001908152602001600020600701600081548092919061091790613d6b565b91905055506005600160008673ffffffffffffffffffffffffffffffffffffffff1673ffffffffffffffffffffffffffffffffffffffff16815260200190815260200160002060070154106109a6576109a5846040518060400160405280600881526020017f444546454e444552000000000000000000000000000000000000000000000000815250612e93565b5b5b50505050505050565b6000600460008381526020019081526020016000209050670429d069189e0000341015610a12576040517f08c379a0000000000000000000000000000000000000000000000000000000008152600401610a0990613e25565b60405180910390fd5b3373ffffffffffffffffffffffffffffffffffffffff168160000160009054906101000a900473ffffffffffffffffffffffffffffffffffffffff1673ffffffffffffffffffffffffffffffffffffffff1614610aa4576040517f08c379a0000000000000000000000000000000000000000000000000000000008152600401610a9b90613e91565b60405180910390fd5b8060030160009054906101000a900460ff1615610af6576040517f08c379a0000000000000000000000000000000000000000000000000000000008152600401610aed90613b03565b60405180910390fd5b7f1e372b79674f198909a4f4ee1416fd2c6e8dcd6ae23ceb1593d2ed32264d8d2e8233604051610b27929190613eb1565b60405180910390a1610b38826106f7565b670429d069189e0000341115610ba3573373ffffffffffffffffffffffffffffffffffffffff166108fc670429d069189e000034610b769190613eda565b9081150290604051600060405180830381858888f19350505050158015610ba1573d6000803e3d6000fd5b505b5050565b6000600260008473ffffffffffffffffffffffffffffffffffffffff1673ffffffffffffffffffffffffffffffffffffffff168152602001908152602001600020600083815260200190815260200160002060009054906101000a900460ff16905092915050565b600160003373ffffffffffffffffffffffffffffffffffffffff1673ffffffffffffffffffffffffffffffffffffffff16815260200190815260200160002060080160009054906101000a900460ff16610c9e576040517f08c379a0000000000000000000000000000000000000000000000000000000008152600401610c9590613f5a565b60405180910390fd5b67016345785d8a0000341015610ce9576040517f08c379a0000000000000000000000000000000000000000000000000000000008152600401610ce090613fc6565b60405180910390fd5b600060644233604051602001610d00929190613fe6565b6040516020818303038152906040528051906020012060001c610d239190613cc7565b90506014811015610f8657600060016005423385604051602001610d4993929190614012565b6040516020818303038152906040528051906020012060001c610d6c9190613cc7565b610d769190613b52565b9050600260003373ffffffffffffffffffffffffffffffffffffffff1673ffffffffffffffffffffffffffffffffffffffff168152602001908152602001600020600082815260200190815260200160002060009054906101000a900460ff16610f84576001600260003373ffffffffffffffffffffffffffffffffffffffff1673ffffffffffffffffffffffffffffffffffffffff168152602001908152602001600020600083815260200190815260200160002060006101000a81548160ff0219169083151502179055503373ffffffffffffffffffffffffffffffffffffffff167fc78cd494272180e0c224c92ca5bedd58597e9f5494e17a757b031988d4b6372c8260066000858152602001908152602001600020600001604051610ea09291906140d3565b60405180910390a26000600190506000600190505b60058111610f3b57600260003373ffffffffffffffffffffffffffffffffffffffff1673ffffffffffffffffffffffffffffffffffffffff168152602001908152602001600020600082815260200190815260200160002060009054906101000a900460ff16610f285760009150610f3b565b8080610f3390613d6b565b915050610eb5565b508015610f8257610f81336040518060400160405280600981526020017f434f4c4c4543544f520000000000000000000000000000000000000000000000815250612e93565b5b505b505b67016345785d8a0000341115610ff1573373ffffffffffffffffffffffffffffffffffffffff166108fc67016345785d8a000034610fc49190613eda565b9081150290604051600060405180830381858888f19350505050158015610fef573d6000803e3d6000fd5b505b50565b60026020528160005260406000206020528060005260406000206000915091509054906101000a900460ff1681565b662386f26fc1000081565b6060600080600080600080600160008973ffffffffffffffffffffffffffffffffffffffff1673ffffffffffffffffffffffffffffffffffffffff16815260200190815260200160002060080160009054906101000a900460ff166110c8576040517f08c379a00000000000000000000000000000000000000000000000000000000081526004016110bf90613f5a565b60405180910390fd5b6000600160008a73ffffffffffffffffffffffffffffffffffffffff1673ffffffffffffffffffffffffffffffffffffffff16815260200190815260200160002060405180610120016040529081600082018054611125906137e6565b80601f0160208091040260200160405190810160405280929190818152602001828054611151906137e6565b801561119e5780601f106111735761010080835404028352916020019161119e565b820191906000526020600020905b81548152906001019060200180831161118157829003601f168201915b50505050508152602001600182015481526020016002820154815260200160038201548152602001600482015481526020016005820154815260200160068201548152602001600782015481526020016008820160009054906101000a900460ff1615151515815250509050806000015181602001518260400151836060015184608001518560a001518660c00151975097509750975097509750975050919395979092949650565b6000806000806000600360008773ffffffffffffffffffffffffffffffffffffffff1673ffffffffffffffffffffffffffffffffffffffff16815260200190815260200160002060405161129a9061415a565b908152602001604051809103902060009054906101000a900460ff16600360008873ffffffffffffffffffffffffffffffffffffffff1673ffffffffffffffffffffffffffffffffffffffff168152602001908152602001600020604051611301906141bb565b908152602001604051809103902060009054906101000a900460ff16600360008973ffffffffffffffffffffffffffffffffffffffff1673ffffffffffffffffffffffffffffffffffffffff1681526020019081526020016000206040516113689061421c565b908152602001604051809103902060009054906101000a900460ff16600360008a73ffffffffffffffffffffffffffffffffffffffff1673ffffffffffffffffffffffffffffffffffffffff1681526020019081526020016000206040516113cf9061427d565b908152602001604051809103902060009054906101000a900460ff16600360008b73ffffffffffffffffffffffffffffffffffffffff1673ffffffffffffffffffffffffffffffffffffffff168152602001908152602001600020604051611436906142de565b908152602001604051809103902060009054906101000a900460ff169450945094509450945091939590929450565b670429d069189e000081565b6003602052816000526040600020818051602081018201805184825260208301602085012081835280955050505050506000915091509054906101000a900460ff1681565b66470de4df82000081565b60016020528060005260406000206000915090508060000180546114e4906137e6565b80601f0160208091040260200160405190810160405280929190818152602001828054611510906137e6565b801561155d5780601f106115325761010080835404028352916020019161155d565b820191906000526020600020905b81548152906001019060200180831161154057829003601f168201915b5050505050908060010154908060020154908060030154908060040154908060050154908060060154908060070154908060080160009054906101000a900460ff16905089565b60066020528060005260406000206000915090508060000180546115c7906137e6565b80601f01602080910402602001604051908101604052809291908181526020018280546115f3906137e6565b80156116405780601f1061161557610100808354040283529160200191611640565b820191906000526020600020905b81548152906001019060200180831161162357829003601f168201915b505050505090806001018054611655906137e6565b80601f0160208091040260200160405190810160405280929190818152602001828054611681906137e6565b80156116ce5780601f106116a3576101008083540402835291602001916116ce565b820191906000526020600020905b8154815290600101906020018083116116b157829003601f168201915b5050505050908060020180546116e3906137e6565b80601f016020809104026020016040519081016040528092919081815260200182805461170f906137e6565b801561175c5780601f106117315761010080835404028352916020019161175c565b820191906000526020600020905b81548152906001019060200180831161173f57829003601f168201915b5050505050908060030154908060040154908060050154908060060160009054906101000a900460ff16905087565b60608060606000806000806000881180156117a7575060058811155b6117e6576040517f08c379a00000000000000000000000000000000000000000000000000000000081526004016117dd9061433f565b60405180910390fd5b6000600660008a81526020019081526020016000206040518060e0016040529081600082018054611816906137e6565b80601f0160208091040260200160405190810160405280929190818152602001828054611842906137e6565b801561188f5780601f106118645761010080835404028352916020019161188f565b820191906000526020600020905b81548152906001019060200180831161187257829003601f168201915b505050505081526020016001820180546118a8906137e6565b80601f01602080910402602001604051908101604052809291908181526020018280546118d4906137e6565b80156119215780601f106118f657610100808354040283529160200191611921565b820191906000526020600020905b81548152906001019060200180831161190457829003601f168201915b5050505050815260200160028201805461193a906137e6565b80601f0160208091040260200160405190810160405280929190818152602001828054611966906137e6565b80156119b35780601f10611988576101008083540402835291602001916119b3565b820191906000526020600020905b81548152906001019060200180831161199657829003601f168201915b505050505081526020016003820154815260200160048201548152602001600582015481526020016006820160009054906101000a900460ff1615151515815250509050806000015181602001518260400151836060015184608001518560a001518660c00151975097509750975097509750975050919395979092949650565b600160003373ffffffffffffffffffffffffffffffffffffffff1673ffffffffffffffffffffffffffffffffffffffff16815260200190815260200160002060080160009054906101000a900460ff16611ac3576040517f08c379a0000000000000000000000000000000000000000000000000000000008152600401611aba90613f5a565b60405180910390fd5b600066470de4df82000082611ad89190613cf8565b662386f26fc1000084611aeb9190613cf8565b611af59190613b52565b905080341015611b3a576040517f08c379a0000000000000000000000000000000000000000000000000000000008152600401611b3190613fc6565b60405180910390fd5b82600160003373ffffffffffffffffffffffffffffffffffffffff1673ffffffffffffffffffffffffffffffffffffffff1681526020019081526020016000206002016000828254611b8c9190613b52565b9250508190555081600160003373ffffffffffffffffffffffffffffffffffffffff1673ffffffffffffffffffffffffffffffffffffffff1681526020019081526020016000206003016000828254611be59190613b52565b925050819055503373ffffffffffffffffffffffffffffffffffffffff167faf29816cd11119a4c8c0eff4213407d9eee90e96234648827025b3dcda86af398484604051611c3492919061435f565b60405180910390a280341115611c97573373ffffffffffffffffffffffffffffffffffffffff166108fc8234611c6a9190613eda565b9081150290604051600060405180830381858888f19350505050158015611c95573d6000803e3d6000fd5b505b505050565b67016345785d8a000081565b60046020528060005260406000206000915090508060000160009054906101000a900473ffffffffffffffffffffffffffffffffffffffff16908060010160009054906101000a900473ffffffffffffffffffffffffffffffffffffffff16908060020154908060030160009054906101000a900460ff16908060040154905085565b600160003373ffffffffffffffffffffffffffffffffffffffff1673ffffffffffffffffffffffffffffffffffffffff16815260200190815260200160002060080160009054906101000a900460ff16611dba576040517f08c379a0000000000000000000000000000000000000000000000000000000008152600401611db190613f5a565b60405180910390fd5b3373ffffffffffffffffffffffffffffffffffffffff168173ffffffffffffffffffffffffffffffffffffffff1603611e28576040517f08c379a0000000000000000000000000000000000000000000000000000000008152600401611e1f906143d4565b60405180910390fd5b600160008273ffffffffffffffffffffffffffffffffffffffff1673ffffffffffffffffffffffffffffffffffffffff16815260200190815260200160002060080160009054906101000a900460ff16611eb7576040517f08c379a0000000000000000000000000000000000000000000000000000000008152600401611eae90614466565b60405180910390fd5b6000600160003373ffffffffffffffffffffffffffffffffffffffff1673ffffffffffffffffffffffffffffffffffffffff168152602001908152602001600020600201541180611f4a57506000600160003373ffffffffffffffffffffffffffffffffffffffff1673ffffffffffffffffffffffffffffffffffffffff16815260200190815260200160002060030154115b611f89576040517f08c379a0000000000000000000000000000000000000000000000000000000008152600401611f80906144d2565b60405180910390fd5b6000611f956005612fc7565b9050611fa16005612fd5565b6000611fad3384612feb565b90506040518060a001604052803373ffffffffffffffffffffffffffffffffffffffff1681526020018473ffffffffffffffffffffffffffffffffffffffff168152602001428152602001600015158152602001828152506004600084815260200190815260200160002060008201518160000160006101000a81548173ffffffffffffffffffffffffffffffffffffffff021916908373ffffffffffffffffffffffffffffffffffffffff16021790555060208201518160010160006101000a81548173ffffffffffffffffffffffffffffffffffffffff021916908373ffffffffffffffffffffffffffffffffffffffff1602179055506040820151816002015560608201518160030160006101000a81548160ff021916908315150217905550608082015181600401559050507f44bbd1153f1b36a3354f2af50e8f8ceb7b4c95e46240e7547a0f73c322380d218233858460405161211294939291906144f2565b60405180910390a1505050565b600080600a600160008573ffffffffffffffffffffffffffffffffffffffff1673ffffffffffffffffffffffffffffffffffffffff168152602001908152602001600020600201546121719190613cf8565b905060006014600160008673ffffffffffffffffffffffffffffffffffffffff1673ffffffffffffffffffffffffffffffffffffffff168152602001908152602001600020600301546121c49190613cf8565b9050600081836121d49190613b52565b90506000600190505b600581116124c357600260008773ffffffffffffffffffffffffffffffffffffffff1673ffffffffffffffffffffffffffffffffffffffff168152602001908152602001600020600082815260200190815260200160002060009054906101000a900460ff16156124b0576000600660008381526020019081526020016000206040518060e0016040529081600082018054612278906137e6565b80601f01602080910402602001604051908101604052809291908181526020018280546122a4906137e6565b80156122f15780601f106122c6576101008083540402835291602001916122f1565b820191906000526020600020905b8154815290600101906020018083116122d457829003601f168201915b5050505050815260200160018201805461230a906137e6565b80601f0160208091040260200160405190810160405280929190818152602001828054612336906137e6565b80156123835780601f1061235857610100808354040283529160200191612383565b820191906000526020600020905b81548152906001019060200180831161236657829003601f168201915b5050505050815260200160028201805461239c906137e6565b80601f01602080910402602001604051908101604052809291908181526020018280546123c8906137e6565b80156124155780601f106123ea57610100808354040283529160200191612415565b820191906000526020600020905b8154815290600101906020018083116123f857829003601f168201915b505050505081526020016003820154815260200160048201548152602001600582015481526020016006820160009054906101000a900460ff16151515158152505090508060c00151156124ae5760648160800151866124759190613cf8565b61247f9190613d3a565b945060648160a00151856124939190613cf8565b61249d9190613d3a565b935083856124ab9190613b52565b92505b505b80806124bb90613d6b565b9150506121dd565b50809350505050919050565b60006064905080600160008573ffffffffffffffffffffffffffffffffffffffff1673ffffffffffffffffffffffffffffffffffffffff16815260200190815260200160002060040160008282546125279190613b52565b92505081905550600160008473ffffffffffffffffffffffffffffffffffffffff1673ffffffffffffffffffffffffffffffffffffffff168152602001908152602001600020600501600081548092919061258190613d6b565b9190505550600160008373ffffffffffffffffffffffffffffffffffffffff1673ffffffffffffffffffffffffffffffffffffffff16815260200190815260200160002060060160008154809291906125d990613d6b565b91905055506000806000806064600f600160008a73ffffffffffffffffffffffffffffffffffffffff1673ffffffffffffffffffffffffffffffffffffffff168152602001908152602001600020600201546126359190613cf8565b61263f9190613d3a565b93506064600f600160008a73ffffffffffffffffffffffffffffffffffffffff1673ffffffffffffffffffffffffffffffffffffffff168152602001908152602001600020600301546126929190613cf8565b61269c9190613d3a565b925060646032600160008973ffffffffffffffffffffffffffffffffffffffff1673ffffffffffffffffffffffffffffffffffffffff168152602001908152602001600020600201546126ef9190613cf8565b6126f99190613d3a565b915060646032600160008973ffffffffffffffffffffffffffffffffffffffff1673ffffffffffffffffffffffffffffffffffffffff1681526020019081526020016000206003015461274c9190613cf8565b6127569190613d3a565b905083600160008973ffffffffffffffffffffffffffffffffffffffff1673ffffffffffffffffffffffffffffffffffffffff16815260200190815260200160002060020154116127a85760006127f7565b83600160008973ffffffffffffffffffffffffffffffffffffffff1673ffffffffffffffffffffffffffffffffffffffff168152602001908152602001600020600201546127f69190613eda565b5b600160008973ffffffffffffffffffffffffffffffffffffffff1673ffffffffffffffffffffffffffffffffffffffff1681526020019081526020016000206002018190555082600160008973ffffffffffffffffffffffffffffffffffffffff1673ffffffffffffffffffffffffffffffffffffffff168152602001908152602001600020600301541161288d5760006128dc565b82600160008973ffffffffffffffffffffffffffffffffffffffff1673ffffffffffffffffffffffffffffffffffffffff168152602001908152602001600020600301546128db9190613eda565b5b600160008973ffffffffffffffffffffffffffffffffffffffff1673ffffffffffffffffffffffffffffffffffffffff1681526020019081526020016000206003018190555081600160008873ffffffffffffffffffffffffffffffffffffffff1673ffffffffffffffffffffffffffffffffffffffff16815260200190815260200160002060020154116129725760006129c1565b81600160008873ffffffffffffffffffffffffffffffffffffffff1673ffffffffffffffffffffffffffffffffffffffff168152602001908152602001600020600201546129c09190613eda565b5b600160008873ffffffffffffffffffffffffffffffffffffffff1673ffffffffffffffffffffffffffffffffffffffff1681526020019081526020016000206002018190555080600160008873ffffffffffffffffffffffffffffffffffffffff1673ffffffffffffffffffffffffffffffffffffffff1681526020019081526020016000206003015411612a57576000612aa6565b80600160008873ffffffffffffffffffffffffffffffffffffffff1673ffffffffffffffffffffffffffffffffffffffff16815260200190815260200160002060030154612aa59190613eda565b5b600160008873ffffffffffffffffffffffffffffffffffffffff1673ffffffffffffffffffffffffffffffffffffffff168152602001908152602001600020600301819055505b6064600160008973ffffffffffffffffffffffffffffffffffffffff1673ffffffffffffffffffffffffffffffffffffffff16815260200190815260200160002060010154612b3c9190613cf8565b600160008973ffffffffffffffffffffffffffffffffffffffff1673ffffffffffffffffffffffffffffffffffffffff1681526020019081526020016000206004015410612c88576064600160008973ffffffffffffffffffffffffffffffffffffffff1673ffffffffffffffffffffffffffffffffffffffff16815260200190815260200160002060010154612bd39190613cf8565b600160008973ffffffffffffffffffffffffffffffffffffffff1673ffffffffffffffffffffffffffffffffffffffff1681526020019081526020016000206004016000828254612c249190613eda565b92505081905550600160008873ffffffffffffffffffffffffffffffffffffffff1673ffffffffffffffffffffffffffffffffffffffff1681526020019081526020016000206001016000815480929190612c7e90613d6b565b9190505550612aed565b60018060008973ffffffffffffffffffffffffffffffffffffffff1673ffffffffffffffffffffffffffffffffffffffff1681526020019081526020016000206005015403612d1157612d10876040518060400160405280600b81526020017f46495253545f424c4f4f44000000000000000000000000000000000000000000815250612e93565b5b600a600160008973ffffffffffffffffffffffffffffffffffffffff1673ffffffffffffffffffffffffffffffffffffffff1681526020019081526020016000206005015403612d9b57612d9a876040518060400160405280600781526020017f5645544552414e00000000000000000000000000000000000000000000000000815250612e93565b5b6032600160008973ffffffffffffffffffffffffffffffffffffffff1673ffffffffffffffffffffffffffffffffffffffff1681526020019081526020016000206005015403612e2557612e24876040518060400160405280600781526020017f5741524c4f524400000000000000000000000000000000000000000000000000815250612e93565b5b8573ffffffffffffffffffffffffffffffffffffffff168773ffffffffffffffffffffffffffffffffffffffff167f081ed76c4c071d6097731876fc5abf74d14653d1900d984ce23fe568f23448fa87604051612e829190613339565b60405180910390a350505050505050565b600360008373ffffffffffffffffffffffffffffffffffffffff1673ffffffffffffffffffffffffffffffffffffffff16815260200190815260200160002081604051612ee09190614568565b908152602001604051809103902060009054906101000a900460ff16612fc3576001600360008473ffffffffffffffffffffffffffffffffffffffff1673ffffffffffffffffffffffffffffffffffffffff16815260200190815260200160002082604051612f4f9190614568565b908152602001604051809103902060006101000a81548160ff0219169083151502179055508173ffffffffffffffffffffffffffffffffffffffff167fca8c9accce1ea9b1e88e76d666c26849f39052a6344521346b739cdd29ad4ae682604051612fba9190613a95565b60405180910390a25b5050565b600081600001549050919050565b6001816000016000828254019250508190555050565b6000808273ffffffffffffffffffffffffffffffffffffffff168473ffffffffffffffffffffffffffffffffffffffff1618905060648161302c9190613cc7565b905060018161303b9190613cf8565b601e6130479190613b52565b91505092915050565b6000604051905090565b600080fd5b600080fd5b600080fd5b600080fd5b6000601f19601f8301169050919050565b7f4e487b7100000000000000000000000000000000000000000000000000000000600052604160045260246000fd5b6130b78261306e565b810181811067ffffffffffffffff821117156130d6576130d561307f565b5b80604052505050565b60006130e9613050565b90506130f582826130ae565b919050565b600067ffffffffffffffff8211156131155761311461307f565b5b61311e8261306e565b9050602081019050919050565b82818337600083830152505050565b600061314d613148846130fa565b6130df565b90508281526020810184848401111561316957613168613069565b5b61317484828561312b565b509392505050565b600082601f83011261319157613190613064565b5b81356131a184826020860161313a565b91505092915050565b6000602082840312156131c0576131bf61305a565b5b600082013567ffffffffffffffff8111156131de576131dd61305f565b5b6131ea8482850161317c565b91505092915050565b6000819050919050565b613206816131f3565b811461321157600080fd5b50565b600081359050613223816131fd565b92915050565b60006020828403121561323f5761323e61305a565b5b600061324d84828501613214565b91505092915050565b600073ffffffffffffffffffffffffffffffffffffffff82169050919050565b600061328182613256565b9050919050565b61329181613276565b811461329c57600080fd5b50565b6000813590506132ae81613288565b92915050565b600080604083850312156132cb576132ca61305a565b5b60006132d98582860161329f565b92505060206132ea85828601613214565b9150509250929050565b60008115159050919050565b613309816132f4565b82525050565b60006020820190506133246000830184613300565b92915050565b613333816131f3565b82525050565b600060208201905061334e600083018461332a565b92915050565b60006020828403121561336a5761336961305a565b5b60006133788482850161329f565b91505092915050565b600081519050919050565b600082825260208201905092915050565b60005b838110156133bb5780820151818401526020810190506133a0565b60008484015250505050565b60006133d282613381565b6133dc818561338c565b93506133ec81856020860161339d565b6133f58161306e565b840191505092915050565b600060e082019050818103600083015261341a818a6133c7565b9050613429602083018961332a565b613436604083018861332a565b613443606083018761332a565b613450608083018661332a565b61345d60a083018561332a565b61346a60c083018461332a565b98975050505050505050565b600060a08201905061348b6000830188613300565b6134986020830187613300565b6134a56040830186613300565b6134b26060830185613300565b6134bf6080830184613300565b9695505050505050565b600080604083850312156134e0576134df61305a565b5b60006134ee8582860161329f565b925050602083013567ffffffffffffffff81111561350f5761350e61305f565b5b61351b8582860161317c565b9150509250929050565b6000610120820190508181036000830152613540818c6133c7565b905061354f602083018b61332a565b61355c604083018a61332a565b613569606083018961332a565b613576608083018861332a565b61358360a083018761332a565b61359060c083018661332a565b61359d60e083018561332a565b6135ab610100830184613300565b9a9950505050505050505050565b600060e08201905081810360008301526135d3818a6133c7565b905081810360208301526135e781896133c7565b905081810360408301526135fb81886133c7565b905061360a606083018761332a565b613617608083018661332a565b61362460a083018561332a565b61363160c0830184613300565b98975050505050505050565b600080604083850312156136545761365361305a565b5b600061366285828601613214565b925050602061367385828601613214565b9150509250929050565b61368681613276565b82525050565b600060a0820190506136a1600083018861367d565b6136ae602083018761367d565b6136bb604083018661332a565b6136c86060830185613300565b6136d5608083018461332a565b9695505050505050565b7f4b68616e61746520616c72656164792065786973747300000000000000000000600082015250565b600061371560168361338c565b9150613720826136df565b602082019050919050565b6000602082019050818103600083015261374481613708565b9050919050565b7f4e616d652063616e6e6f7420626520656d707479000000000000000000000000600082015250565b600061378160148361338c565b915061378c8261374b565b602082019050919050565b600060208201905081810360008301526137b081613774565b9050919050565b7f4e487b7100000000000000000000000000000000000000000000000000000000600052602260045260246000fd5b600060028204905060018216806137fe57607f821691505b602082108103613811576138106137b7565b5b50919050565b60008190508160005260206000209050919050565b60006020601f8301049050919050565b600082821b905092915050565b6000600883026138797fffffffffffffffffffffffffffffffffffffffffffffffffffffffffffffffff8261383c565b613883868361383c565b95508019841693508086168417925050509392505050565b6000819050919050565b60006138c06138bb6138b6846131f3565b61389b565b6131f3565b9050919050565b6000819050919050565b6138da836138a5565b6138ee6138e6826138c7565b848454613849565b825550505050565b600090565b6139036138f6565b61390e8184846138d1565b505050565b5b81811015613932576139276000826138fb565b600181019050613914565b5050565b601f8211156139775761394881613817565b6139518461382c565b81016020851015613960578190505b61397461396c8561382c565b830182613913565b50505b505050565b600082821c905092915050565b600061399a6000198460080261397c565b1980831691505092915050565b60006139b38383613989565b9150826002028217905092915050565b6139cc82613381565b67ffffffffffffffff8111156139e5576139e461307f565b5b6139ef82546137e6565b6139fa828285613936565b600060209050601f831160018114613a2d5760008415613a1b578287015190505b613a2585826139a7565b865550613a8d565b601f198416613a3b86613817565b60005b82811015613a6357848901518255600182019150602085019450602081019050613a3e565b86831015613a805784890151613a7c601f891682613989565b8355505b6001600288020188555050505b505050505050565b60006020820190508181036000830152613aaf81846133c7565b905092915050565b7f426174746c6520616c7265616479207265736f6c766564000000000000000000600082015250565b6000613aed60178361338c565b9150613af882613ab7565b602082019050919050565b60006020820190508181036000830152613b1c81613ae0565b9050919050565b7f4e487b7100000000000000000000000000000000000000000000000000000000600052601160045260246000fd5b6000613b5d826131f3565b9150613b68836131f3565b9250828201905080821115613b8057613b7f613b23565b5b92915050565b7f54726f6f7073207374696c6c2074726176656c696e6700000000000000000000600082015250565b6000613bbc60168361338c565b9150613bc782613b86565b602082019050919050565b60006020820190508181036000830152613beb81613baf565b9050919050565b6000819050919050565b613c0d613c08826131f3565b613bf2565b82525050565b60008160601b9050919050565b6000613c2b82613c13565b9050919050565b6000613c3d82613c20565b9050919050565b613c55613c5082613276565b613c32565b82525050565b6000613c678286613bfc565b602082019150613c778285613c44565b601482019150613c878284613c44565b601482019150819050949350505050565b7f4e487b7100000000000000000000000000000000000000000000000000000000600052601260045260246000fd5b6000613cd2826131f3565b9150613cdd836131f3565b925082613ced57613cec613c98565b5b828206905092915050565b6000613d03826131f3565b9150613d0e836131f3565b9250828202613d1c816131f3565b91508282048414831517613d3357613d32613b23565b5b5092915050565b6000613d45826131f3565b9150613d50836131f3565b925082613d6057613d5f613c98565b5b828204905092915050565b6000613d76826131f3565b91507fffffffffffffffffffffffffffffffffffffffffffffffffffffffffffffffff8203613da857613da7613b23565b5b600182019050919050565b7f496e73756666696369656e74207061796d656e7420666f72207370656564207560008201527f7000000000000000000000000000000000000000000000000000000000000000602082015250565b6000613e0f60218361338c565b9150613e1a82613db3565b604082019050919050565b60006020820190508181036000830152613e3e81613e02565b9050919050565b7f4e6f7420796f757220626174746c650000000000000000000000000000000000600082015250565b6000613e7b600f8361338c565b9150613e8682613e45565b602082019050919050565b60006020820190508181036000830152613eaa81613e6e565b9050919050565b6000604082019050613ec6600083018561332a565b613ed3602083018461367d565b9392505050565b6000613ee5826131f3565b9150613ef0836131f3565b9250828203905081811115613f0857613f07613b23565b5b92915050565b7f4b68616e617465206e6f7420696e697469616c697a6564000000000000000000600082015250565b6000613f4460178361338c565b9150613f4f82613f0e565b602082019050919050565b60006020820190508181036000830152613f7381613f37565b9050919050565b7f496e73756666696369656e74207061796d656e74000000000000000000000000600082015250565b6000613fb060148361338c565b9150613fbb82613f7a565b602082019050919050565b60006020820190508181036000830152613fdf81613fa3565b9050919050565b6000613ff28285613bfc565b6020820191506140028284613c44565b6014820191508190509392505050565b600061401e8286613bfc565b60208201915061402e8285613c44565b60148201915061403e8284613bfc565b602082019150819050949350505050565b6000815461405c816137e6565b614066818661338c565b945060018216600081146140815760018114614097576140ca565b60ff1983168652811515602002860193506140ca565b6140a085613817565b60005b838110156140c2578154818901526001820191506020810190506140a3565b808801955050505b50505092915050565b60006040820190506140e8600083018561332a565b81810360208301526140fa818461404f565b90509392505050565b600081905092915050565b7f46495253545f424c4f4f44000000000000000000000000000000000000000000600082015250565b6000614144600b83614103565b915061414f8261410e565b600b82019050919050565b600061416582614137565b9150819050919050565b7f5645544552414e00000000000000000000000000000000000000000000000000600082015250565b60006141a5600783614103565b91506141b08261416f565b600782019050919050565b60006141c682614198565b9150819050919050565b7f5741524c4f524400000000000000000000000000000000000000000000000000600082015250565b6000614206600783614103565b9150614211826141d0565b600782019050919050565b6000614227826141f9565b9150819050919050565b7f444546454e444552000000000000000000000000000000000000000000000000600082015250565b6000614267600883614103565b915061427282614231565b600882019050919050565b60006142888261425a565b9150819050919050565b7f434f4c4c4543544f520000000000000000000000000000000000000000000000600082015250565b60006142c8600983614103565b91506142d382614292565b600982019050919050565b60006142e9826142bb565b9150819050919050565b7f496e76616c696420426174797220494400000000000000000000000000000000600082015250565b600061432960108361338c565b9150614334826142f3565b602082019050919050565b600060208201905081810360008301526143588161431c565b9050919050565b6000604082019050614374600083018561332a565b614381602083018461332a565b9392505050565b7f43616e6e6f7420626174746c6520796f757273656c6600000000000000000000600082015250565b60006143be60168361338c565b91506143c982614388565b602082019050919050565b600060208201905081810360008301526143ed816143b1565b9050919050565b7f446566656e6465722773204b68616e617465206e6f7420696e697469616c697a60008201527f6564000000000000000000000000000000000000000000000000000000000000602082015250565b600061445060228361338c565b915061445b826143f4565b604082019050919050565b6000602082019050818103600083015261447f81614443565b9050919050565b7f4e6f2074726f6f707320746f20626174746c6520776974680000000000000000600082015250565b60006144bc60188361338c565b91506144c782614486565b602082019050919050565b600060208201905081810360008301526144eb816144af565b9050919050565b6000608082019050614507600083018761332a565b614514602083018661367d565b614521604083018561367d565b61452e606083018461332a565b95945050505050565b600061454282613381565b61454c8185614103565b935061455c81856020860161339d565b80840191505092915050565b60006145748284614537565b91508190509291505056fea2646970667358221220e9f88467335ec8190a5d84c6e365bd68473fce6affdbc2817f3fc9f59008ee9064736f6c6343000813003350726f7669646573207374726f6e6720646566656e7369766520626f6e757365735369676e69666963616e746c7920626f6f7374732061726368657220706f776572456e68616e63657320626f74682061726368657220616e6420636176616c7279206566666563746976656e6573735369676e69666963616e746c7920626f6f73747320636176616c727920706f776572",
  "linkReferences": {},
  "deployedLinkReferences": {}
}